:020000040800F2
:100000000010002049200008B30F0008BB0F0008B3
:1000100000000000000000000000000000000000E0
:10002000000000000000000000000000C30F0008F6
:100030000000000000000000CD0F0008D90F0008EC
:10004000992000080000000099200008992000086D
:10005000992000089920000899200008992000089C
:1000600000000000992000089920000805100008F1
:10007000992000089920000899200008000000003D
:1000800099200008000000000000000099200008EE
:10009000000000009920000899200008992000081D
:1000A0000000000099200008000000004510000832
:1000B0000000000000000000000000000000000040
:1000C00010B5064C2378002B07D1054B002B02D02E
:1000D000044800E000BF0123237010BD1000002081
:1000E00000000000B43A0008044B10B5002B03D008
:1000F0000349044800E000BF10BDC04600000000F6
:1001000014000020B43A0008002243088B4274D344
:1001100003098B425FD3030A8B4244D3030B8B4208
:1001200028D3030C8B420DD3FF22090212BA030C11
:100130008B4202D31212090265D0030B8B4219D3F2
:1001400000E0090AC30B8B4201D3CB03C01A524112
:10015000830B8B4201D38B03C01A5241430B8B425A
:1001600001D34B03C01A5241030B8B4201D30B0343
:10017000C01A5241C30A8B4201D3CB02C01A52416A
:10018000830A8B4201D38B02C01A5241430A8B422D
:1001900001D34B02C01A5241030A8B4201D30B0216
:1001A000C01A5241CDD2C3098B4201D3CB01C01A30
:1001B000524183098B4201D38B01C01A524143093A
:1001C0008B4201D34B01C01A524103098B4201D328
:1001D0000B01C01A5241C3088B4201D3CB00C01A95
:1001E000524183088B4201D38B00C01A524143080D
:1001F0008B4201D34B00C01A5241411A00D2014632
:10020000524110467047FFE701B5002000F0F0F8BA
:1002100002BDC0460029F7D076E7704703460B437E
:100220007FD4002243088B4274D303098B425FD3EF
:10023000030A8B4244D3030B8B4228D3030C8B421B
:100240000DD3FF22090212BA030C8B4202D3121201
:10025000090265D0030B8B4219D300E0090AC30BD6
:100260008B4201D3CB03C01A5241830B8B4201D383
:100270008B03C01A5241430B8B4201D34B03C01A6C
:100280005241030B8B4201D30B03C01A5241C30AE4
:100290008B4201D3CB02C01A5241830A8B4201D355
:1002A0008B02C01A5241430A8B4201D34B02C01A3F
:1002B0005241030A8B4201D30B02C01A5241CDD2E4
:1002C000C3098B4201D3CB01C01A524183098B422F
:1002D00001D38B01C01A524143098B4201D34B0118
:1002E000C01A524103098B4201D30B01C01A52417B
:1002F000C3088B4201D3CB00C01A524183088B4202
:1003000001D38B00C01A524143088B4201D34B00EA
:10031000C01A5241411A00D201465241104670475C
:100320005DE0CA0F00D04942031000D34042534061
:1003300000229C4603098B422DD3030A8B4212D321
:10034000FC22890112BA030A8B420CD38901921153
:100350008B4208D3890192118B4204D389013AD090
:10036000921100E08909C3098B4201D3CB01C01A65
:10037000524183098B4201D38B01C01A5241430978
:100380008B4201D34B01C01A524103098B4201D366
:100390000B01C01A5241C3088B4201D3CB00C01AD3
:1003A000524183088B4201D38B00C01A5241D9D2EB
:1003B00043088B4201D34B00C01A5241411A00D26C
:1003C0000146634652415B10104601D34042002B68
:1003D00000D54942704763465B1000D3404201B5E7
:1003E000002000F005F802BD0029F8D016E770479C
:1003F0007047C04680B582B000AF0200FB1D1A7086
:10040000FB1D1B787F2B09D8FB1D1B781A001F23AF
:100410001A40044B012191400A001A60C046BD46B3
:1004200002B080BD00E100E090B583B000AF0200F3
:100430003960FB1D1A70FB1D1B787F2B28D82F4AB3
:10044000FB1D1B785BB29B08C0339B009B58FA1DB9
:100450001278110003220A40D200FF2191400A00C5
:10046000D2431A4011003B689B01FF221A40FB1D3A
:100470001B78180003230340DB009A401F48FB1D34
:100480001B785BB29B080A43C0339B001A5031E0D3
:100490001B4AFB1D1B7819000F230B40083B9B08D0
:1004A00006339B00D31804331B68FA1D1278110021
:1004B00003220A40D200FF2191400A00D2431A4091
:1004C00011003B689B01FF221A40FB1D1B7818009E
:1004D00003230340DB009A400948FB1D1B781C00E6
:1004E0000F232340083B9B080A4306339B00C31895
:1004F00004331A60C046BD4603B090BD00E100E081
:1005000000ED00E080B584B000AF7860074B59691A
:10051000064B7A680A435A61044B5B697A68134058
:10052000FB60FB68C046BD4604B080BD00100240C1
:1005300080B500AF0120FFF7E5FF00210B20FFF79A
:1005400073FF0B20FFF756FFC046BD4680BD80B548
:1005500082B000AF786039607B683A689A62C046C2
:10056000BD4602B080BD000080B584B000AF7860A9
:10057000074B5969064B7A680A435A61044B5B6919
:100580007A681340FB60FB68C046BD4604B080BD7E
:100590000010024080B586B000AF3B001800182361
:1005A0001A00002103F05AFA8023DB031800FFF73A
:1005B000DBFF80239B021800FFF7D6FF8023DB02BE
:1005C0001800FFF7D1FF9023DB0508211800FFF783
:1005D000BEFF9023DB0520211800FFF7B8FF902312
:1005E000DB0540211800FFF7B2FF9023DB058021D7
:1005F0001800FFF7ACFF3B0001221A603B0000220D
:100600005A603B0001221A613A009023DB05110079
:10061000180002F020FC3B0002221A603B0000227E
:100620005A603B0001221A613A009023DB05110059
:10063000180002F010FC3B0004221A603B0000226C
:100640005A603B0001221A613A009023DB05110039
:10065000180002F000FC3B0008221A603B00012257
:100660005A603B0000229A603B000022DA603B00A7
:1006700000221A613A009023DB051100180002F0F5
:10068000EAFB3B0020221A603B0001225A603B003B
:1006900000229A603B000022DA603B0002221A61CD
:1006A0003A009023DB051100180002F0D4FB3B0058
:1006B00040221A603B0001225A603B0000229A60EF
:1006C0003B000022DA603B0002221A613A009023CC
:1006D000DB051100180002F0BEFB3B0080221A600F
:1006E0003B0001225A603B0000229A603B0000223E
:1006F000DA603B0002221A613A009023DB05110008
:10070000180002F0A8FBC046BD4606B080BD80B50B
:1007100086B000AF7860EFF31083BB60BB687B618D
:100720000123FB60FB6883F31088C0467B681B686D
:1007300020221A437B681A607B693B613B6983F323
:100740001088C046C046BD4606B080BD80B500AF2B
:1007500001F0A4FC00F01AF8FFF71CFFFFF7E8FE19
:1007600000F09EFE00F084FF01F0F8F801F0A6FA18
:10077000054B1800FFF7CBFF00F016FB00F066F802
:1007800000F066FBC046F9E70038014090B595B02F
:1007900000AF20243B19180030231A00002103F079
:1007A0005DF91023FB18180010231A00002103F034
:1007B00055F93B00180010231A00002103F04EF9F0
:1007C00021007B1801221A607B1801225A607B18D5
:1007D00002221A627B18802252025A627B188022FF
:1007E00052039A627B180022DA627B18180001F02B
:1007F0006DFD031E01D000F051FB10217B18072274
:100800001A607B1802225A607B1800229A607B18BB
:100810000022DA607B180121180002F071F8031E33
:1008200001D000F03BFB3B0001221A603B0000229C
:100830009A603B00180002F087F9031E01D000F017
:100840002DFBC046BD4615B090BD000080B582B0FE
:1008500000AFFB1D00221A70BB1D00221A707B1D09
:1008600000221A703B1D00221A70FB1C01221A7014
:10087000BB1C00221A70CC4B1B78002B00D18FE1DF
:10088000CA4B1B68022B00D88AE1C74B1B78052B8B
:1008900068D9BB1C00221A705AE0BB1C1B78C44AE2
:1008A000D35C3B2B05D1FB1C1A78FB1C01321A7060
:1008B00049E0BB1C1B78BE4AD35C092B4ED9BB1C3C
:1008C0001B78BB4AD35CDB2B48D8FB1C1B78012B65
:1008D00010D1FB1D1B781A1C9200D318DB18DAB25A
:1008E000BB1C1B78B249CB5CD318DAB2FB1D303A83
:1008F0001A7028E0FB1C1B78022B10D1BB1D1B7843
:100900001A1C9200D318DB18DAB2BB1C1B78A8495A
:10091000CB5CD318DAB2BB1D303A1A7013E0FB1C63
:100920001B78032B0FD13B1D1B781A1C9200D31888
:10093000DB18DAB2BB1C1B789D49CB5CD318DAB24A
:100940003B1D303A1A70BB1C1A78BB1C01321A705E
:10095000954B1B78BA1C12789A429ED3924B002278
:100960001A7002E0904B00221A70BB1D1B78013BED
:1009700005211800FFF752FC03001A008D4B1B786D
:10098000013B9A420CD1BB1D1B78013B052118008D
:10099000FFF72AFD0B00DAB27B1D01321A7002E06C
:1009A0007B1D06221A70FB1D1B78012B04D1BB1D79
:1009B0001B78002B00D0ECE0FB1D1B78022B1DD117
:1009C0003B1D1B78002B19D03B1D1B78032B15D822
:1009D0003B1D1B78012B03D13B1D02221A7006E040
:1009E0003B1D1B78022B02D13B1D01221A703B1DBF
:1009F0001B78013B704A0021D154CAE0FB1D1B78D3
:100A0000032B2DD13B1D1B78002B29D03B1D1B78C0
:100A1000032B25D83B1D1B78012B03D13B1D022244
:100A20001A7006E03B1D1B78022B02D13B1D0122F0
:100A30001A707B1D1B78002B0BD07B1D1B78052BA0
:100A400007D83B1D1B78013B5B4A791D0978D154BF
:100A50009FE03B1D1B78013B574A0021D15498E091
:100A6000FB1D1B78042B00D093E07B1D1B78002B13
:100A700000D18EE07B1D1B78052B00D989E07B1D02
:100A80001B785A1E4D4B5200D35A013B98B27B1D26
:100A90001B785A1E4A4B5200D35A013B9BB202228A
:100AA000190001F085FA7B1D1B785A1E454B520038
:100AB000D35A013B98B27B1D1B785A1E424B520001
:100AC000D35A013B9BB20222190001F071FA642053
:100AD00002F0A2FF7B1D1B785A1E384B5200D35ADE
:100AE000013B98B27B1D1B785A1E354B5200D35ADE
:100AF000013B9BB20122190001F05AFA7B1D1B78C1
:100B00005A1E304B5200D35A013B98B27B1D1B78C2
:100B10005A1E2D4B5200D35A013B9BB201221900A1
:100B200001F046FA642002F077FF7B1D1B785A1E05
:100B3000224B5200D35A013B98B27B1D1B785A1EA0
:100B40001F4B5200D35A013B9BB20322190001F004
:100B50002FFA7B1D1B785A1E1A4B5200D35A013BA9
:100B600098B27B1D1B785A1E174B5200D35A013B7B
:100B70009BB20322190001F01BFA642002F04CFF23
:100B80000D4B00221A700C4B00225A700A4B0022A7
:100B90009A70FB1D1B78012B03D900F017F800E0B9
:100BA000C046BD4602B080BD400000204400002089
:100BB0002C000020000000204C000020CC3A00084F
:100BC000D83A0008E43A0008F03A000880B582B04C
:100BD00000AF6E4B00221900002001F0E9F96C4BC8
:100BE00000221A60FB1D01221A70C4E07B1D002246
:100BF0001A70BB1D00221A7011E0BB1D1B78654ADC
:100C0000D35CFA1D12789A4204D17B1D1A787B1DA1
:100C100001321A70BB1D1A78BB1D01321A70BB1D40
:100C20001B78022BE9D97B1D1B78002B00D19DE09E
:100C3000FB1D1B785A1E584B5200D35A1900FB1D3E
:100C40001B785A1E554B5200D35ACA1A7B1D1B786B
:100C500019001000FFF7E2FA03001A003B001A80A7
:100C6000FB1D1B78591EBB1C4C4A49008A5A1A802E
:100C7000BB1D00221A7026E0BB1D1B78454AD35CC1
:100C8000FA1D12789A4219D1BB1C1B88013B98B2FD
:100C9000BA1C3B0012881B88D3189BB2013B99B247
:100CA000BB1D1B780133DBB21A0001F081F9BB1CBC
:100CB000B91C3A00098812888A181A80BB1D1A7854
:100CC000BB1D01321A70BB1D1B78022BD4D9FB1D32
:100CD0001B785A1E324B5200D35A1900FB1D1B7849
:100CE0005A1E304B5200D35ACA1A7B1D1B7819006A
:100CF0001000FFF793FA03001A003B001A80FB1D57
:100D00001B78591EBB1C274A49008A5A1A80BB1DF2
:100D100000221A7026E0BB1D1B781E4AD35CFA1D08
:100D200012789A4219D1BB1C1B88013B98B2BA1C9D
:100D30003B0012881B88D3189BB2013B99B2BB1DA4
:100D40001B780133DBB21A0001F032F9BB1CB91C6D
:100D50003A00098812888A181A80BB1D1A78BB1DB0
:100D600001321A70BB1D1B78022BD4D9FB1D1A78D7
:100D7000FB1D01321A70FB1D1B78052B00D835E7CF
:100D8000C046C046BD4602B080BDC04688130000C4
:100D9000480000204C000020D83A0008CC3A000857
:100DA000F03A0008E43A000880B582B000AF642051
:100DB00002F032FEFB1D00221A7031E01F4B0022B0
:100DC0001900002001F0F4F8FB1D1A781C4B5200AA
:100DD000D35A013B98B2FB1D1A781A4B5200D35AD2
:100DE000013B9BB20122190001F0E2F8FB1D1A78C9
:100DF000154B5200D35A013B98B2FB1D1A78134B86
:100E00005200D35A013B9BB20122190001F0D0F8E5
:100E1000C82002F001FEFB1D1A78FB1D01321A707A
:100E2000FB1D1B78042BC9D9044B0022190000209C
:100E300001F0BEF8C046BD4602B080BD8813000078
:100E4000E43A0008F03A0008CC3A0008D83A000822
:100E500080B582B000AF0E4B1B680E4A934213D987
:100E6000FB1D00221A7009E0FB1D1B780A4A0021B5
:100E7000D154FB1D1A78FB1D01321A70FB1D1B7823
:100E8000022BF1D9FFF7A2FEC046BD4602B080BDDD
:100E900048000020C02709004C00002080B500AFAA
:100EA00072B6C046C046FDE780B582B000AF0F4BBA
:100EB0009A690E4B01210A439A610C4B9B690122EE
:100EC00013407B607B68094BDA69084B8021490538
:100ED0000A43DA61054BDA6980235B0513403B6006
:100EE0003B68C046BD4602B080BDC046001002400F
:100EF00080B582B000AF78607B681A6880239B025F
:100F00001340054A944663445A425341DBB21800E9
:100F1000BD4602B080BDC0460000FEFF80B582B075
:100F200000AF78607B681A688023DB021340054AB3
:100F3000944663445A425341DBB21800BD4602B0A6
:100F400080BDC0460000FCFF80B582B000AF786075
:100F50007B68802292025A60C046BD4602B080BDC6
:100F600080B582B000AF78607B688022D2025A6080
:100F7000C046BD4602B080BD80B582B000AF78608B
:100F80007B68DB6920221340202B01D1012300E084
:100F900000231800BD4602B080BD80B582B000AF0E
:100FA00078607B689B8C9BB2DBB21800BD4602B0B8
:100FB00080BD80B500AFC046FDE780B500AFC0463C
:100FC000FDE780B500AFC046BD4680BD80B500AF2F
:100FD000C046BD4680BD000080B500AF074B1B6812
:100FE0005A1C064B1A60064B1B685A1C044B1A60AD
:100FF00001F09CF8C046BD4680BDC04644000020BC
:101000004800002080B500AF0D4B1800FFF786FFA9
:10101000031E06D000F0A2FE094B1800FFF7A0FF48
:101020000BE0074B1800FFF763FF031E05D000F02D
:1010300095FE034B1800FFF787FFC046BD4680BDF5
:1010400000000240B0B500AF104B1800FFF794FF4E
:10105000031E17D00E4B00221A600E4B1B781C008B
:101060000A4B1800FFF799FF03001A000A4B1A55A4
:10107000084B1B78112B05D8064B1B780133DAB2CD
:10108000044B1A70C046BD46B0BDC0460038014092
:1010900044000020400000202C00002080B500AF5C
:1010A000C046BD4680BD000080B584B000AFF8608A
:1010B000B9607A60BB68013B0B4AD35C1A00FB68DD
:1010C000D3181B68094A13401900BB68013B064A44
:1010D000D35C1A00FB68D3187A680A431A60C046CA
:1010E000BD4604B080BDC046143B0008EFBFFFFF03
:1010F00080B584B000AFF860B9607A60BB68013B2E
:101100000B4AD35C1A00FB68D3181B682022934358
:101110001900BB68013B064AD35C1A00FB68D31870
:101120007A680A431A60C046BD4604B080BDC04616
:10113000143B000880B584B000AFF860B9607A60F5
:10114000BB68013B0B4AD35C1A00FB68D3181B68D1
:10115000402293431900BB68013B064AD35C1A0046
:10116000FB68D3187A680A431A60C046BD4604B0CB
:1011700080BDC046143B000880B584B000AFF86065
:10118000B9607A60BB68013B0B4AD35C1A00FB680C
:10119000D3181B68802293431900BB68013B064AA1
:1011A000D35C1A00FB68D3187A680A431A60C046F9
:1011B000BD4604B080BDC046143B000880B584B075
:1011C00000AFF860B9607A60BB68013B0B4AD35C42
:1011D0001A00FB68D3181B68094A13401900BB6842
:1011E000013B064AD35C1A00FB68D3187A680A43AD
:1011F0001A60C046BD4604B080BDC046143B00081E
:10120000FFFCFFFF80B584B000AFF860B9607A6082
:10121000BB68013B0B4AD35C1A00FB68D3181B6800
:10122000094A13401900BB68013B064AD35C1A0007
:10123000FB68D3187A680A431A60C046BD4604B0FA
:1012400080BDC046143B0008FFF3FFFF80B584B0AB
:1012500000AFF860B9607A60BB68013B0B4AD35CB1
:101260001A00FB68D3181B68094A13401900BB68B1
:10127000013B064AD35C1A00FB68D3187A680A431C
:101280001A60C046BD4604B080BDC046143B00088D
:10129000FFCFFFFF80B582B000AF78607B681B682E
:1012A000802293431A007B681A60C046BD4602B094
:1012B00080BD000080B584B000AF786039603B68C5
:1012C000012B1ED03B68042B19D03B68102B14D087
:1012D0003B68402B0FD03A6880235B009A4208D0CD
:1012E0003A688023DB009A4201D105230AE00623F5
:1012F00008E0042306E0032304E0022302E00123C4
:1013000000E000230F203A1813707B68183319008F
:101310003B181B780A4AD35CCB18BB60BB681B68C0
:101320003A18127807498A5C110004228A40D24395
:101330001A40BB681A60C046BD4604B080BDC046B6
:101340001C3B0008243B000880B584B000AF7860E7
:1013500039603B68012B1ED03B68042B19D03B68D9
:10136000102B14D03B68402B0FD03A6880235B00D1
:101370009A4208D03A688023DB009A4201D10523C3
:101380000AE0062308E0042306E0032304E0022326
:1013900002E0012300E000230F203A1813707B685D
:1013A000183319003B181B78094AD35CCB18BB6073
:1013B000BB681A683B181B780649CB5C19000823E8
:1013C0008B401A43BB681A60C046BD4604B080BD5E
:1013D0001C3B0008243B000880B582B000AF786059
:1013E00039607B685B68702293431A003B681A433C
:1013F0007B685A60C046BD4602B080BD80B582B0F1
:1014000000AF78607B689B68802293431A007B68FA
:101410009A60C046BD4602B080BD000080B584B071
:1014200000AF7860074B5969064B7A680A435A61E6
:10143000044B5B697A681340FB60FB68C046BD469D
:1014400004B080BD0010024080B584B000AF786069
:10145000074BD969064B7A680A43DA61044BDB69AA
:101460007A681340FB60FB68C046BD4604B080BD8F
:101470000010024080B584B000AF7860074B9969D6
:10148000064B7A680A439A61044B9B697A68134059
:10149000FB60FB68C046BD4604B080BD0010024042
:1014A000F0B59BB000AF5426BB19180014231A00E6
:1014B000002102F0D3FA34243B19180020231A002B
:1014C000002102F0CBFA1C257B19180018231A0002
:1014D000002102F0C3FA3B1D180018231A00002156
:1014E00002F0BCFA80231B011800FFF7C3FF5D4B1D
:1014F000102205211800FFF7D7FDC0239B01594892
:101500001A000521FFF7A2FE564B202205211800E4
:10151000FFF7EEFD534B002205211800FFF70AFEEE
:10152000504B802205211800FFF726FE80235B0028
:101530004C481A000521FFF741FE4A4B00220521C5
:101540001800FFF75FFEBB1900221A8031007B18DC
:1015500000225A607B183B229A607B180022DA60D6
:101560007B1800221A617B183F4A1900100001F015
:1015700077FE3D4B1800FFF78DFE80235B003A4A53
:1015800019001000FFF7E0FE21007B1860221A60AE
:101590007B1800225A607B1800229A607B18002278
:1015A000DA607B1800221A617B1800225A617B18CE
:1015B00000229A617B180022DA617A1880235B008E
:1015C0002948190001F0BAFE80235B00264A190061
:1015D0001000FFF76FFE244B00211800FFF7FCFE00
:1015E000214B1800FFF70AFF29007B1800221A6020
:1015F0007B1800225A607B1800229A607B18002218
:101600001A737B180022DA817B18802292011A61FA
:101610007B1800225A617B18134A1900100001F050
:10162000E7FE8023DB021800FFF7F8FE3B1D0222D5
:101630001A603B1D02225A603B1D03229A603B1D2B
:101640000022DA603B1D02221A613B1D02225A6110
:101650003B1D064A1900100001F0FDFBC046BD46C7
:101660001BB0F0BD00000240002C01400004004807
:10167000B0B594B000AF3C257B19180014231A00B4
:10168000002102F0EBF91C243B19180020231A005A
:10169000002102F0E3F93B1D180018231A00002175
:1016A00002F0DCF980235B001800FFF7CDFE7B1908
:1016B00000221A807B1900225A607B1977229A60D7
:1016C0007B190022DA607B19254A1900100001F00D
:1016D000C7FD234B1800FFF7DDFD214B012118004A
:1016E000FFF732FE21007B1860221A607B1800226F
:1016F0005A607B1800229A607B183C22DA607B18C3
:1017000000221A617B1816481A00012101F016FE0A
:10171000134B01211800FFF7CDFD80239B02180019
:10172000FFF77CFE3B1D10221A603B1D02225A600F
:101730003B1D00229A603B1D0022DA603B1D002207
:101740001A613B1D04225A613A1D9023DB051100EA
:10175000180001F080FBC046BD4614B0B0BDC046C5
:101760000020004080B582B000AF0200FB1D1A705F
:10177000FB1D1B787F2B09D8FB1D1B781A001F232C
:101780001A40044B012191400A001A60C046BD4630
:1017900002B080BD00E100E090B583B000AF020070
:1017A0003960FB1D1A70FB1D1B787F2B28D82F4A30
:1017B000FB1D1B785BB29B08C0339B009B58FA1D36
:1017C0001278110003220A40D200FF2191400A0042
:1017D000D2431A4011003B689B01FF221A40FB1DB7
:1017E0001B78180003230340DB009A401F48FB1DB1
:1017F0001B785BB29B080A43C0339B001A5031E050
:101800001B4AFB1D1B7819000F230B40083B9B084C
:1018100006339B00D31804331B68FA1D127811009D
:1018200003220A40D200FF2191400A00D2431A400D
:1018300011003B689B01FF221A40FB1D1B7818001A
:1018400003230340DB009A400948FB1D1B781C0062
:101850000F232340083B9B080A4306339B00C31811
:1018600004331A60C046BD4603B090BD00E100E0FD
:1018700000ED00E080B582B000AF78607B681B6847
:1018800001221A437B681A60C046BD4602B080BD83
:1018900080B582B000AF78607B685B68074A1A4009
:1018A0007B685A607B689B68082293431A007B68B8
:1018B0009A60C046BD4602B080BDC046FFF7FFFF3C
:1018C00080B586B000AF7860EFF31083BB60BB6873
:1018D0007B610123FB60FB6883F31088C0467B6853
:1018E0009B68074A1A407B689A607B693B613B6949
:1018F00083F31088C046C046BD4606B080BDC046D2
:10190000FFFBFFFF80B584B000AF7860074B5969DB
:10191000064B7A680A435A61044B5B697A68134044
:10192000FB60FB68C046BD4604B080BD00100240AD
:1019300080B584B000AF7860074B9969064B7A6830
:101940000A439A61044B9B697A681340FB60FB6809
:10195000C046BD4604B080BD0010024090B58FB0B7
:1019600000AF1C243B1918001C231A00002102F0B0
:1019700075F83B1D180018231A00002102F06EF8BC
:101980008023DB011800FFF7D3FF80239B021800A0
:10199000FFF7B8FF3B1D802292001A603B1D022218
:1019A0005A603B1D03229A603B1D0022DA603B1DFA
:1019B00000221A613B1D01225A613A1D9023DB056A
:1019C0001100180001F047FA3B1D8022D2001A6076
:1019D0003B1D02225A603B1D03229A603B1D0022E0
:1019E000DA603B1D00221A613B1D01225A613A1D3B
:1019F0009023DB051100180001F02DFA00211B20B7
:101A0000FFF7CAFE1B20FFF7ADFE3B19962292019D
:101A10001A6021007B1800225A607B1800229A600D
:101A20007B180022DA607B180C221A617B180022D6
:101A30005A617B1800229A617B180A4A190010002B
:101A400001F092FF074B1800FFF73AFF054B180013
:101A5000FFF71EFF034B1800FFF70CFFC046BD4603
:101A60000FB090BD0038014080B582B000AF786003
:101A700039603B68013B0A4AD35C1A007B68D31883
:101A80001A683B68013B0649CB5C19007B68CB18A0
:101A900001210A431A60C046BD4602B080BDC0465F
:101AA0002C3B000880B584B000AFF860B9607A6064
:101AB000BB68013B0A4AD35C1A00FB68D3185B6819
:101AC0001B0C1904BB68013B054AD35C1A00FB6878
:101AD000D3187A680A435A60C046BD4604B080BD38
:101AE0002C3B000880B584B000AFF860B9607A6024
:101AF000BB68013B054AD35C1A00FB68D3187A68BF
:101B0000DA60C046BD4604B080BDC0462C3B00082C
:101B100080B584B000AFF860B9607A60BB68013B03
:101B2000054AD35C1A00FB68D3187A689A60C046ED
:101B3000BD4604B080BDC0462C3B000880B582B0D5
:101B400000AF786039603B68013B0A4AD35C1A00F9
:101B50007B68D3181A683B68013B0649CB5C1900C7
:101B60007B68CB1802210A431A60C046BD4602B00A
:101B700080BDC0462C3B000880B582B000AF7860C5
:101B800039603B68013B0A4AD35C1A007B68D31872
:101B90001A683B68013B0649CB5C19007B68CB188F
:101BA00004210A431A60C046BD4602B080BDC0464B
:101BB0002C3B000880B582B000AF78607B681B6862
:101BC00001221A437B681A60C046BD4602B080BD40
:101BD00080B582B000AF786039607B681A6A3B6874
:101BE0001A437B681A62C046BD4602B080BD000041
:101BF00080B584B000AF786039603B68012B1ED09F
:101C00003B68042B19D03B68102B14D03B68402B49
:101C10000FD03A6880235B009A4208D03A6880234C
:101C2000DB009A4201D105230AE0062308E00423E1
:101C300006E0032304E0022302E0012300E0002386
:101C40000F203A1813707B68183319003B181B7863
:101C5000094AD35CCB18BB60BB681A683B181B7879
:101C60000649CB5C190008238B401A43BB681A60F5
:101C7000C046BD4604B080BD343B00083C3B000874
:101C800080B582B000AF78607B685B6C8022120206
:101C90001A437B685A64C046BD4602B080BD80B519
:101CA00082B000AF78607B68DB68802212011A4343
:101CB0007B68DA60C046BD4602B080BD80B500AF2B
:101CC000224B0022DA63214B1800FFF7E8FF204A7D
:101CD000204B05211800FFF71BFF1E4B05211800A4
:101CE000FFF74AFF1B4B05211800FFF727FF1A4B90
:101CF00018481A000521FFF7F5FEC0235B001548C0
:101D00001A000521FFF7CEFE124B05211800FFF740
:101D1000ABFE0E4B1800FFF7C2FF80235B000B4A9F
:101D200019001000FFF764FF8023DB00074A190049
:101D30001000FFF74DFF054B1800FFF73BFF034B6B
:101D40001800FFF79DFFC046BD4680BD002C014036
:101D50003C2C0140000002405000002080B582B0C1
:101D600000AF3E4B1A88C823DB009A4242D3BB1D0A
:101D700000221A8031E03B1D00221A800DE0384B12
:101D80001B881A003B1D1B88D318364A0021D154EA
:101D90003B1D1A883B1D01321A803B1D1B88172BE7
:101DA000EDD92F4B1B8818339AB22D4B1A802C4B30
:101DB0001B88C02251001800FEF72CFA0B009AB2C3
:101DC000274B1A80254B1B8801339AB2234B1A806C
:101DD000BB1D1A88BB1D01321A80BB1D1B88072B37
:101DE000C9D91E4B1B88204A934232D91B4B002273
:101DF0001A802EE0BB1D00221A8026E0184B1A889C
:101E0000164B1B881900194B5B5C1900100000F081
:101E10002FF8134B1B8818339AB2114B1A80104BB2
:101E20001B88C02251001800FEF7F4F90B009AB28B
:101E30000B4B1A80094B1B8801339AB2074B1A804F
:101E4000BB1D1A88BB1D01321A80BB1D1B88072BC6
:101E5000D4D9C046BD4602B080BDC046100800209F
:101E60001208002050000020A4060000D00100202D
:101E700080B584B000AF0200BB1D1A807B1D0A1C18
:101E80001A700E23FB1813221A700D23FB1813224D
:101E90001A700C23FB1813221A707B1D1B78012B60
:101EA0000BD07B1D1B78032B07D07B1D1B78042BCD
:101EB00003D07B1D1B78062B03D10E23FB18242295
:101EC0001A707B1D1B78022B0BD07B1D1B78042BFB
:101ED00007D07B1D1B78052B03D07B1D1B78062BA1
:101EE00003D10D23FB1824221A707B1D1B78032BB2
:101EF00007D07B1D1B78052B03D07B1D1B78062B81
:101F000003D10C23FB1824221A700F23FB18002284
:101F10001A700FE0BB1D1A880F203B181B78D318CE
:101F2000224A0E2179180978D1543B181A783B18A7
:101F300001321A700F22BB181B78072BEAD9BB1885
:101F400008221A700FE0BB1D1A880F203B181B785F
:101F5000D318164A0D2179180978D1543B181A78EC
:101F60003B1801321A700F22BB181B780F2BEAD9CD
:101F7000BB1810221A700FE0BB1D1A880F203B18E7
:101F80001B78D318094A0C2179180978D1543B18C9
:101F90001A783B1801321A700F23FB181B78172B85
:101FA000EAD9C046C046BD4604B080BD50000020FE
:101FB00090B585B000AF040008001100BB1D221CC5
:101FC0001A803B1D021C1A80FB1C0A1C1A700E2171
:101FD0007B183A1D12881A800C23FB18BA1D128830
:101FE0001A803B1D1A88C823DB009A4203D37B1852
:101FF000C822D2001A80BB1D1B88104A934210D9F8
:102000000C23FB180E4A1A800BE00C203B181B888F
:102010000C4AF91C0978D1543B181A883B18013234
:102020001A800C23FA180E23FB1812881B889A4278
:10203000EBD3C046C046BD4605B090BD3E0600008D
:102040003F060000D00100200D488546FFF726F826
:102050000C480D490D4A002302E0D458C450043303
:10206000C4188C42F9D30A4A0A4C002301E01360D9
:102070000432A242FBD301F0F9FCFEF767FBFEE756
:102080000010002000000020100000206C3B000821
:102090001000002018080020FEE7000080B500AF07
:1020A000074B1A68064B10210A431A60032000F000
:1020B00009F8FEF7F9FE00231800BD4680BDC046B2
:1020C0000020024090B583B000AF7860144B1C68CC
:1020D000144B1B781900FA239800FEF715F803003B
:1020E00019002000FEF710F80300180000F0E1F8D6
:1020F000031E01D001230FE07B68032B0BD8796806
:1021000001235B420022180000F0BEF8064B7A68FB
:102110001A60002300E001231800BD4603B090BD03
:10212000040000200C0000200800002080B500AF53
:10213000054B1B781A00054B1B68D218034B1A601D
:10214000C046BD4680BDC0460C00002014080020DB
:1021500080B500AF024B1B681800BD4680BDC0466D
:102160001408002090B583B000AF02003960FB1D59
:102170001A70FB1D1B787F2B28D82F4AFB1D1B785C
:102180005BB29B08C0339B009B58FA1D127811006C
:1021900003220A40D200FF2191400A00D2431A4094
:1021A00011003B689B01FF221A40FB1D1B781800A1
:1021B00003230340DB009A401F48FB1D1B785BB2E2
:1021C0009B080A43C0339B001A5031E01B4AFB1D99
:1021D0001B7819000F230B40083B9B0806339B001C
:1021E000D31804331B68FA1D1278110003220A4029
:1021F000D200FF2191400A00D2431A4011003B68EF
:102200009B01FF221A40FB1D1B781800032303408B
:10221000DB009A400948FB1D1B781C000F2323405C
:10222000083B9B080A4306339B00C31804331A601B
:10223000C046BD4603B090BD00E100E000ED00E007
:1022400080B582B000AF78607B685A1E80235B0443
:102250009A4201D3012310E00A4B7A68013A5A608E
:1022600001235B4203211800FFF77CFF054B00228E
:102270009A60044B07221A6000231800BD4602B082
:1022800080BDC04610E000E080B584B000AFB9600A
:102290007A600F217B18021C1A70BA687B181B78B1
:1022A0005BB211001800FFF75DFFC046BD4604B0E9
:1022B00080BD80B582B000AF78607B681800FFF702
:1022C000BFFF03001800BD4602B080BD80B588B0D6
:1022D00000AF78607B68002B01D1012301E37B68AC
:1022E0001B680122134000D18DE0C34B5B680C22B8
:1022F0001340042B0ED0C04B5B680C221340082BFC
:1023000016D1BD4B5A6880235B021A4080235B02C2
:102310009A420DD1B84B1A6880239B02134000D11A
:1023200070E07B685B68002B00D06BE00123D8E293
:102330007B685B68012B07D1AF4B1A68AE4B8021DD
:1023400049020A431A602FE07B685B68002B0CD1BE
:10235000A94B1A68A84BA9490A401A60A64B1A68EB
:10236000A54BA7490A401A601EE07B685B68052BF5
:102370000ED1A14B1A68A04B8021C9020A431A60F2
:102380009D4B1A689C4B802149020A431A600BE05E
:10239000994B1A68984B99490A401A60964B1A68EB
:1023A000954B97490A401A607B685B68002B14D0F4
:1023B000FFF7CEFE0300BB6108E0FFF7C9FE020095
:1023C000BB69D31A642B01D903238AE28A4B1A68AA
:1023D00080239B021340F0D015E0FFF7B9FE030005
:1023E000BB6108E0FFF7B4FE0200BB69D31A642B9F
:1023F00001D9032375E2804B1A6880239B021340A6
:10240000F0D100E0C0467B681B680222134000D177
:1024100069E0794B5B680C2213400BD0764B5B680C
:102420000C221340082B1CD1734B5A6880235B028B
:10243000134016D1704B1B680222134005D07B68F5
:10244000DB68012B01D001234BE26B4B1B68F822A8
:10245000934319007B681B69DA00674B0A431A60D3
:1024600041E07B68DB68002B24D0634B1A68624B29
:1024700001210A431A60FFF76BFE0300BB6108E00D
:10248000FFF766FE0200BB69D31A022B01D90323B2
:1024900027E2594B1B6802221340F1D0564B1B68B0
:1024A000F822934319007B681B69DA00524B0A43F8
:1024B0001A6018E0504B1A684F4B01218A431A608A
:1024C000FFF746FE0300BB6108E0FFF741FE020094
:1024D000BB69D31A022B01D9032302E2464B1B68C6
:1024E00002221340F1D17B681B680822134036D0CA
:1024F0007B68DB69002B19D03F4B5A6A3E4B0121A8
:102500000A435A62FFF724FE0300BB6108E0FFF7AD
:102510001FFE0200BB69D31A022B01D90323E0E19D
:10252000354B5B6A02221340F1D018E0324B5A6AF5
:10253000314B01218A435A62FFF70AFE0300BB6157
:1025400008E0FFF705FE0200BB69D31A022B01D990
:102550000323C6E1284B5B6A02221340F1D17B685A
:102560001B680422134000D1B4E01F203B18002256
:102570001A70214BDA6980235B05134010D11E4B82
:10258000DA691D4B802149050A43DA611A4BDA6981
:1025900080235B051340FB60FB683B1801221A7027
:1025A000184B1A6880235B0013401AD1154B1A6828
:1025B000144B802149000A431A60FFF7C9FD03004C
:1025C000BB6108E0FFF7C4FD0200BB69D31A642BAE
:1025D00001D9032385E10B4B1A6880235B0013406C
:1025E000F0D07B689B68012B0ED1034B1A6A024B1B
:1025F00001210A431A6235E000100240FFFFFEFF8E
:10260000FFFFFBFF007000407B689B68002B0CD134
:10261000B64B1A6AB54B01218A431A62B34B1A6A48
:10262000B24B04218A431A621CE07B689B68052B2D
:102630000CD1AE4B1A6AAD4B04210A431A62AB4B64
:102640001A6AAA4B01210A431A620BE0A74B1A6AC5
:10265000A64B01218A431A62A44B1A6AA34B042198
:102660008A431A627B689B68002B14D0FFF770FDC9
:102670000300BB6109E0FFF76BFD0200BB69D31AE1
:102680009B4A934201D903232BE1984B1B6A0222F8
:102690001340F0D013E0FFF75BFD0300BB6109E0DE
:1026A000FFF756FD0200BB69D31A914A934201D944
:1026B000032316E18D4B1B6A02221340F0D11F2326
:1026C000FB181B78012B05D1884BDA69874B8949A8
:1026D0000A40DA617B681B681022134063D07B6874
:1026E0005B69012B2AD1814B5A6B804B04210A4331
:1026F0005A637E4B5A6B7D4B01210A435A63FFF7A5
:1027000027FD0300BB6108E0FFF722FD0200BB6963
:10271000D31A022B01D90323E3E0744B5B6B022233
:102720001340F1D0714B5B6BF822934319007B6827
:102730009B69DA006D4B0A435A6334E07B685B693E
:10274000053311D1694B5A6B684B04218A435A6394
:10275000664B5B6BF822934319007B689B69DA0038
:10276000624B0A435A631EE0604B5A6B5F4B042175
:102770000A435A635D4B5A6B5C4B01218A435A638F
:10278000FFF7E6FC0300BB6108E0FFF7E1FC020095
:10279000BB69D31A022B01D90323A2E0534B5B6B15
:1027A00002221340F1D17B681B6A002B00D197E015
:1027B0004E4B5B680C221340082B00D16BE07B680A
:1027C0001B6A022B4CD1494B1A68484B4A490A40B4
:1027D0001A60FFF7BDFC0300BB6108E0FFF7B8FC1F
:1027E0000200BB69D31A022B01D9032379E03F4BC6
:1027F0001A6880239B041340F0D13C4BDB6A0F2204
:10280000934319007B68DA6A384B0A43DA62374B24
:102810005B683A4A134019007B689A6A7B685B6A76
:102820001A43324B0A435A60304B1A682F4B8021AF
:1028300049040A431A60FFF78BFC0300BB6108E000
:10284000FFF786FC0200BB69D31A022B01D90323D0
:1028500047E0264B1A6880239B041340F0D03FE0EA
:10286000224B1A68214B24490A401A60FFF770FC7A
:102870000300BB6108E0FFF76BFC0200BB69D31AE1
:10288000022B01D903232CE0184B1A6880239B04E8
:102890001340F0D124E07B681B6A012B01D1012396
:1028A0001FE0124B5B687B61104BDB6A3B617A690E
:1028B00080235B021A407B685B6A9A420ED13B69B7
:1028C0000F221A407B68DB6A9A4207D17A69F023AB
:1028D0009B031A407B689B6A9A4201D0012300E067
:1028E00000231800BD4608B080BDC046001002405D
:1028F00088130000FFFFFFEFFFFFFFFEFFFFC2FF97
:1029000080B584B000AF786039607B68002B01D15E
:102910000123B3E05B4B1B68012213403A689A42E3
:1029200011D9584B1B68012293431900554B3A6843
:102930000A431A60534B1B68012213403A689A42BB
:1029400001D001239AE07B681B680222134015D056
:102950007B681B680422134006D04B4B5A684A4BD5
:10296000E021C9000A435A60474B5B68F022934359
:1029700019007B689A68444B0A435A607B681B685D
:102980000122134040D07B685B68012B07D13E4B8E
:102990001A6880239B02134014D101236EE07B68E8
:1029A0005B68022B07D1384B1A6880239B041340C5
:1029B00008D1012362E0344B1B680222134001D18D
:1029C00001235BE0304B5B680322934319007B6873
:1029D0005A682D4B0A435A60FFF7BAFB0300FB60AD
:1029E00009E0FFF7B5FB0200FB68D31A274A9342C0
:1029F00001D9032342E0244B5B680C221A407B6818
:102A00005B689B009A42ECD11E4B1B68012213406D
:102A10003A689A4211D21B4B1B680122934319005A
:102A2000184B3A680A431A60164B1B680122134080
:102A30003A689A4201D0012320E07B681B68042297
:102A4000134009D0104B5B68114A134019007B6892
:102A5000DA680D4B0A435A6000F020F801000A4B77
:102A60005B681B090F2213400A4AD35C0A00DA4054
:102A7000094B1A600320FFF725FB00231800BD4611
:102A800004B080BD00200240001002408813000006
:102A9000FFF8FFFFFC3A00080400002080B586B074
:102AA00000AF0023FB600023BB6000237B61002399
:102AB0007B6000233B61204B5B68FB60FB680C2262
:102AC0001340042B02D0082B03D02CE01B4B3B619E
:102AD0002CE0FB689B0C0F221340194AD35C7B60EF
:102AE000154BDB6A0F221340164AD35CBB60FA68B1
:102AF00080235B02134009D0B9681048FDF704FB3E
:102B000003001A007B6853437B6109E079680A007F
:102B10005201521A93019B1ADB005B181B027B6166
:102B20007B693B6102E0054B3B61C0463B69180095
:102B3000BD4606B080BDC0460010024000127A00BB
:102B4000443B0008543B000880B586B000AF786075
:102B500000233B610023FB607B681A6880235B02D3
:102B6000134000D18EE017203B1800221A70574BFB
:102B7000DA6980235B05134010D1544BDA69534B5B
:102B8000802149050A43DA61504BDA6980235B05ED
:102B90001340BB60BB683B1801221A704C4B1A688B
:102BA00080235B0013401AD1494B1A68484B80219F
:102BB00049000A431A60FFF7CBFA03003B6108E0C3
:102BC000FFF7C6FA02003B69D31A642B01D903232D
:102BD00077E03F4B1A6880235B001340F0D03B4BFB
:102BE0001A6AC0239B001340FB60FB68002B34D0A3
:102BF0007B685A68C0239B001340FA689A422CD025
:102C0000324B1B6A334A1340FB60304B1A6A2F4B1E
:102C1000802149020A431A622C4B1A6A2B4B2E4917
:102C20000A401A62294BFA681A62FB6801221340B3
:102C300013D0FFF78DFA03003B6109E0FFF788FA34
:102C400002003B69D31A254A934201D9032338E095
:102C50001E4B1B6A02221340F0D01C4B1B6A1D4AFC
:102C6000134019007B685A68184B0A431A621723ED
:102C7000FB181B78012B05D1144BDA69134B18494B
:102C80000A40DA617B681B680122134009D00F4BB0
:102C90001B6B0322934319007B689A680B4B0A4312
:102CA0001A637B681B682022134009D0074B1B6BFB
:102CB0001022934319007B68DA68044B0A431A63B5
:102CC00000231800BD4606B080BDC046001002407B
:102CD00000700040FFFCFFFFFFFFFEFF88130000B5
:102CE000FFFFFFEF80B584B000AFF860B9607A6095
:102CF000FB681968BB685B431A0013005B009B18F4
:102D0000DB430B401A00BB685B4379684B431A43B3
:102D1000FB681A60C046BD4604B080BD80B584B073
:102D200000AFF860B9607A60FB685B68BA68D2434C
:102D30001A40BB6879684B431A43FB685A60C04627
:102D4000BD4604B080BD80B584B000AFF860B96006
:102D50007A60FB689968BB685B431A0013005B00EC
:102D60009B18DB430B401A00BB685B4379684B43FD
:102D70001A43FB689A60C046BD4604B080BD80B56A
:102D800084B000AFF860B9607A60FB68D968BB684E
:102D90005B431A0013005B009B18DB430B401A00D7
:102DA000BB685B4379684B431A43FB68DA60C046F3
:102DB000BD4604B080BD80B584B000AFF860B96096
:102DC0007A60FB68196ABB685B43BA685343BA68A8
:102DD0005A4313001B019B1ADB430B401A00BB68CC
:102DE0005B43B9684B43B9684B4379684B431A431B
:102DF000FB681A62C046BD4604B080BD80B584B091
:102E000000AFF860B9607A60FB68596ABB681B0A5A
:102E1000BA68120A5343BA68120A5343BA68120ACC
:102E20005A4313001B019B1ADB430B401A00BB687B
:102E30001B0AB968090A4B43B968090A4B43B968C8
:102E4000090A4B4379684B431A43FB685A62C046F0
:102E5000BD4604B080BD80B584B000AF78603960F5
:102E60000023FB6048E03B681B680121FA68914041
:102E70000A001340BB60BB68002B3AD03B685B681C
:102E8000012B03D03B685B68022B0ED13B689A682C
:102E9000B9687B681800FFF756FF3B6819683B6804
:102EA000DA687B681800FFF739FF3B681A69B96870
:102EB0007B681800FFF763FF3B685B68022B11D14A
:102EC000BB68FF2B07D83B685A69B9687B68180054
:102ED000FFF771FF06E03B685A69B9687B68180024
:102EE000FFF78CFF3B685A68B9687B681800FFF7EA
:102EF000F9FEFB680133FB603B681A68FB68DA4047
:102F0000131EB0D100231800BD4604B080BD0000E0
:102F100080B500AF054B1B6802221340023B5A42AA
:102F20005341DBB21800BD4680BDC04600100240D0
:102F300080B500AF054B1B6A02221340023B5A4288
:102F40005341DBB21800BD4680BDC04600100240B0
:102F500080B500AF034B5B680C2213401800BD46E0
:102F600080BDC0460010024080B500AF034B5B68D7
:102F7000F02213401800BD4680BDC046001002403C
:102F800080B500AF034B5A68E023DB001340180004
:102F9000BD4680BD0010024080B582B000AF7860B1
:102FA000064B1B6B03217A6891400A001A407B682C
:102FB0001B0613431800BD4602B080BD001002403E
:102FC00080B500AF034B5A6880235B0213401800A2
:102FD000BD4680BD0010024080B500AF034B5A686B
:102FE000F0239B0313401800BD4680BD0010024033
:102FF00080B500AF034BDB6A0F2213401800BD46BB
:1030000080BDC0460010024080B584B000AF78603B
:103010000023FB607B68002B30D17B681800FFF732
:10302000BBFF0300032B0AD018D8012B02D0022BC0
:103030000CD013E000F02AF80300FB601EE0FFF75D
:1030400067FF031E17D0104BFB6014E0FFF770FF03
:10305000031E12D080231B02FB600EE000F016F866
:103060000300180000F038F80300180000F04AF8D8
:103070000300FB6002E0C04600E0C046FB681800A9
:10308000BD4604B080BDC04600127A0080B582B053
:1030900000AF00237B60FFF75BFF0300082B0BD022
:1030A0000FD8002B02D0042B03D00AE0094B7B6021
:1030B0000AE0084B7B6007E000F038F803007B6013
:1030C00002E0044B7B60C0467B681800BD4602B03E
:1030D00080BDC04600127A0080B582B000AF786033
:1030E000FFF742FF03001B090F221340044AD35C81
:1030F0001A007B68D3401800BD4602B080BDC046B0
:10310000FC3A000880B582B000AF7860FFF738FF66
:1031100003001B0A044AD35C1A007B68D3401800E2
:10312000BD4602B080BDC0460C3B000890B583B0E0
:1031300000AF00237B6000233B60FFF741FF0300EB
:103140003B603B68002B05D03A6880235B029A42C3
:1031500003D005E00F4B7B6005E00F4B7B6002E086
:103160000C4B7B60C046FFF743FF0300013319009F
:103170007868FCF7C9FF03001C00FFF72DFF030070
:103180009B0C0F221340023363431800BD4603B06B
:1031900090BDC04600093D0000127A0080B582B0A3
:1031A00000AF786039607B683A689A62C046BD4675
:1031B00002B080BD80B582B000AF786039607B68B6
:1031C0003A68DA62C046BD4602B080BD80B582B0C2
:1031D00000AF786039607B683A681A63C046BD46C4
:1031E00002B080BD80B582B000AF786039607B6886
:1031F0003A685A63C046BD4602B080BD80B582B011
:1032000000AF786039607B683A689A63C046BD4613
:1032100002B080BD80B582B000AF786039607B6855
:103220003A68DA63C046BD4602B080BD80B582B060
:1032300000AF786039607B683A681A64C046BD4662
:1032400002B080BD80B582B000AF78607B685B69FA
:1032500001221A437B685A61C046BD4602B080BD58
:1032600080B584B000AF786039607B681B68FB6014
:103270007B682C4A934203D07B682B4A934207D148
:10328000FB68702293431A003B685B681343FB6042
:103290007B68244A93420FD07B68234A93420BD029
:1032A0007B68224A934207D07B68214A934203D02D
:1032B0007B68204A934206D1FB681F4A1A403B684C
:1032C000DB681343FB607B68FA681A603B689A68A6
:1032D0007B6811001800FFF76DFF3B681B881A0020
:1032E0007B6811001800FFF759FF7B680D4A934275
:1032F00007D07B680E4A934203D07B680D4A934205
:1033000006D13B681A697B6811001800FFF75EFF61
:103310007B681800FFF796FF00231800BD4604B035
:1033200080BDC046002C0140000400400020004049
:103330000044014000480140FFFCFFFF90B587B00A
:1033400000AFF860B9607A601723FB1801221A7089
:10335000BA6880235B019A4236D0BA6880235B0149
:103360009A423CD8BA6880235B009A4221D0BA685E
:1033700080235B009A4232D8BB68012B03D0BB6824
:10338000102B0BD02BE01723FC187A68FB68110078
:10339000180000F083F80300237021E01723FC18C5
:1033A0007A68FB681100180000F0F6F8030023703B
:1033B00016E01723FC187A68FB681100180000F06B
:1033C0006FF9030023700BE01723FC187A68FB6881
:1033D0001100180000F0E8F90300237000E0C04677
:1033E0001723FB181B781800BD4607B090BD0000DE
:1033F00080B584B000AF786039600023FB60FB6863
:10340000FF2293433A68127B1343FB60FB681C4A1C
:103410001A403B689B681343FB60FB68194A1A40DB
:103420003B685B681343FB60FB68174A1A403B68C4
:103430001B681343FB60FB68144A13403A68D28947
:103440001343FB60FB68124A1A403B681B69134335
:10345000FB60FB680F4A1A403B685B691343FB60E3
:10346000FB680D4A1A403B685B691343FB607B684D
:10347000FA685A6400231800BD4604B080BDC046F7
:10348000FFFCFFFFFFFBFFFFFFF7FFFFFFEFFFFF6B
:10349000FFDFFFFFFFBFFFFFFF7FFFFF80B586B0AD
:1034A00000AF786039607B681B6A012293431A0081
:1034B0007B681A627B681B6A7B617B685B683B6127
:1034C0007B689B69FB60FB6803229343FB60FB689E
:1034D000702293431A003B681B681343FB607B69AF
:1034E000022293431A003B681B6913437B617B698B
:1034F000012293431A003B685B6813437B617B683E
:10350000204A934207D07B681F4A934203D07B68CE
:103510001E4A934220D17B69082293431A003B68DC
:103520005B699B0013437B617B69042293431A0010
:103530003B689B689B0013437B613B69144A1A40BC
:103540003B689B6913433B613B69124A1A403B68E5
:10355000DB695B0013433B617B683A695A607B68B7
:10356000FA689A613B68DA687B6811001800FFF717
:1035700039FE7B687A691A6200231800BD4606B0DE
:1035800080BDC046002C014000440140004801407D
:10359000FFFEFFFFFFFDFFFF80B586B000AF786044
:1035A00039607B681B6A102293431A007B681A6299
:1035B0007B681B6A7B617B685B683B617B689B699E
:1035C000FB60FB682F4A1340FB60FB682E4A1A40E1
:1035D0003B681B681B021343FB607B6920229343FB
:1035E0001A003B681B691B0113437B617B69102236
:1035F00093431A003B685B681B0113437B617B6844
:10360000224A934207D07B68214A934203D07B68C9
:10361000204A934221D17B69802293431A003B6860
:103620005B699B0113437B617B69402293431A00D2
:103630003B689B689B0113437B613B69164A1A40B8
:103640003B689B699B0013433B613B69134A1A40EB
:103650003B68DB69DB0013433B617B683A695A6076
:103660007B68FA689A613B68DA687B681100180029
:10367000FFF7C4FD7B687A691A6200231800BD4613
:1036800006B080BDFFFCFFFFFF8FFFFF002C014055
:103690000044014000480140FFFBFFFFFFF7FFFF30
:1036A00080B586B000AF786039607B681B6A354AA8
:1036B0001A407B681A627B681B6A7B617B685B6867
:1036C0003B617B68DB69FB60FB6803229343FB6023
:1036D000FB68702293431A003B681B681343FB602E
:1036E0007B69294A1A403B681B691B0213437B61B3
:1036F0007B69244A1A403B685B681B0213437B6169
:103700007B68224A934207D07B68214A934203D0C8
:103710007B68204A93421FD17B691F4A1A403B684D
:103720005B699B0213437B617B691C4A1A403B68BF
:103730009B689B0213437B613B69194A1A403B68B3
:103740009B691B0113433B613B69164A1A403B6866
:10375000DB695B0113433B617B683A695A607B68B4
:10376000FA68DA613B68DA687B6811001800FFF7D5
:1037700051FD7B687A691A6200231800BD4606B0C5
:1037800080BDC046FFFEFFFFFFFDFFFF002C014094
:103790000044014000480140FFF7FFFFFFFBFFFF2F
:1037A000FFEFFFFFFFDFFFFF80B586B000AF78605F
:1037B00039607B681B6A294A1A407B681A627B68F9
:1037C0001B6A3B617B685B687B617B68DB69FB60D4
:1037D000FB68234A1340FB60FB68224A1A403B689F
:1037E0001B681B021343FB603B691F4A1A403B687E
:1037F0001B691B0313433B613B69184A1A403B6832
:103800005B681B0313433B617B68184A934207D0F4
:103810007B68174A934203D07B68164A934207D1CC
:103820007B69154A1A403B689B699B0113437B6186
:103830007B687A695A607B68FA68DA613B68DA68A3
:103840007B6811001800FFF7F1FC7B683A691A6287
:1038500000231800BD4606B080BDC046FFEFFFFF45
:10386000FFFCFFFFFF8FFFFFFFDFFFFF002C01408A
:103870000044014000480140FFBFFFFF80B582B017
:1038800000AF78607B681B6801221340012B01D1D7
:10389000012300E000231800BD4602B080BD0000F7
:1038A00080B582B000AF786039607B685B68054A9C
:1038B0001A403B681A437B685A60C046BD4602B056
:1038C00080BDC046FFCFFFFF80B582B000AF7860FB
:1038D00039607B689B68054A1A403B681A437B68DD
:1038E0009A60C046BD4602B080BDC046FFFCFFFFE7
:1038F00080B586B000AFF860B9607A603B607A68E6
:1039000080231B029A421CD1BB685A003B685B08AB
:10391000D31839681800FCF7F7FB03009BB27B61F2
:103920007B69104A13403B617B695B089BB21A00BC
:10393000072313403A6913433B61FB683A69DA6035
:103940000CE03B685A08BB68D31839681800FCF7CC
:10395000DBFB03009BB21A00FB68DA60C046BD4681
:1039600006B080BDF0FF000080B584B000AF786085
:1039700039600F23FB1801221A700023BB607B689B
:103980001800FFF77BFF031E3BD17B681B68204AB2
:103990001A403B6859683B68DB6819433B681B6900
:1039A00019433B689B690B431A437B681A603B6869
:1039B0009A687B6811001800FFF772FF3B685A692C
:1039C0007B6811001800FFF77FFF7B68114A934264
:1039D00004D10020FFF718FB0300BB60BB68002B7D
:1039E0000FD03B681B68002B0BD00F23FB18002265
:1039F0001A703B689A693B681B68B9687868FFF77A
:103A000077FF0F23FB181B781800BD4604B080BD5C
:103A1000F369FFFF0038014080B584B000AF7860E3
:103A20000D4B1B68FB60FB687B6801330CD07B6827
:103A300001337B6008E0084B1A6880235B02134067
:103A400002D07B68013B7B607B68002BF3D1C046D2
:103A5000C046BD4604B080BD10E000E003008218FF
:103A6000934200D1704719700133F9E770B5002611
:103A70000C4C0D4D641BA410A64209D1002600F089
:103A800019F80A4C0A4D641BA410A64205D170BD5A
:103A9000B300EB5898470136EEE7B300EB58984770
:103AA0000136F2E7643B0008643B0008683B00080D
:103AB000643B0008F8B5C046F8BC08BC9E46704799
:0C3AC000F8B5C046F8BC08BC9E46704734
:103ACC000100320064009600C80000003100630061
:103ADC009500C700F9000000C20190015E012C01A5
:103AEC00FA000000F301C1018F015D012B01000000
:103AFC000000000000000000010203040607080992
:103B0C000000000001020304081C304458000000AF
:103B1C00000000000404040000000800000008007D
:103B2C00081C30445800000000000000040404008D
:103B3C00000008000000080002030405060708093D
:103B4C000A0B0C0D0E0F10100102030405060708DA
:083B5C00090A0B0C0D0E0F10FD
:043B6400E90000086C
:043B6800C100000890
:103B6C002400000000127A00040000000100000094
:040000050800204986
:00000001FF
