:020000040800F2
:100000000000022061310008892F0008912F0008AC
:10001000992F0008A12F0008A92F00080000000058
:10002000000000000000000000000000B12F0008E8
:10003000BF2F000800000000CD2F0008DB2F0008B4
:10004000B1310008B1310008B1310008B131000808
:10005000B1310008B1310008B1310008B1310008F8
:10006000B1310008B1310008B1310008B1310008E8
:10007000B1310008B1310008B1310008B1310008D8
:10008000B1310008B1310008B1310008B1310008C8
:10009000B1310008B1310008B1310008B1310008B8
:1000A000B1310008B1310008B1310008B1310008A8
:1000B000B1310008B1310008B1310008B131000898
:1000C000B1310008B1310008B1310008B131000888
:1000D000B1310008F92F0008B1310008B131000832
:1000E000B1310008B1310008B1310008B131000868
:1000F00029300008B1310008B1310008B1310008E1
:10010000B1310008B1310008B1310008B131000847
:10011000B1310008B1310008B1310008B131000837
:10012000B1310008B1310008B1310008B131000827
:10013000B1310008B1310008B1310008B131000817
:10014000B1310008B1310008B1310008B131000807
:10015000B13100083930000851300008653000081E
:10016000B1310008B1310008B1310008B1310008E7
:10017000B1310008B1310008B131000800000000C1
:08018000B1310008B1310008A3
:1001900010B5054C237833B9044B13B10448AFF3C1
:1001A00000800123237010BD1C010020000000000E
:1001B000BCAD000808B5034B1BB103490348AFF3BE
:1001C000008008BD0000000020010020BCAD000838
:1001D00053B94AB9002908BF00281CBF4FF0FF31AE
:1001E0004FF0FF3000F088B9ADF1080C6DE904CE96
:1001F00000F006F8DDF804E0DDE9022304B0704702
:100200002DE9F047089D8E4604468846002B4AD1CA
:100210008A42174662D9B2FA82F64EB1C6F120037D
:1002200001FA06F820FA03F3B74043EA0808B4409D
:100230004FEA174E1FFA87FCB8FBFEF1230C0EFBAA
:10024000118843EA084301FB0CF29A4209D9FB18D2
:1002500001F1FF3080F0EA809A4240F2E7800239F3
:100260003B449A1AA3B2B2FBFEF00EFB102243EA03
:10027000024300FB0CFC9C4509D9FB1800F1FF323E
:1002800080F0D6809C4540F2D3803B44023840EA5F
:100290000140A3EB0C0300211DB1F3400022C5E98E
:1002A0000032BDE8F0878B4205D90DB1C5E90001E8
:1002B00000210846F5E7B3FA83F1002946D17345DA
:1002C00002D3824200F20581841A6EEB0302012000
:1002D0009046002DE5D0C5E90048E2E7002A00F08D
:1002E0009080B2FA82F6002E40F0A4808A1A030CA5
:1002F0004FEA174E80B2BCB20121B2FBFEFC0EFBEE
:100300001C2243EA024304FB0CF29A4207D9FB1871
:100310000CF1FF3802D29A4200F2E080C4469B1AE8
:10032000B3FBFEF20EFB123340EA034302FB04F47C
:100330009C4207D9FB1802F1FF3002D29C4200F226
:10034000CA8002461B1B42EA0C40A5E7C1F1200609
:100350008B4022FA06F71F430EFA01F420FA06F347
:100360002EFA06FE4FEA1749234300FA01F81FFA56
:1003700087FCBEFBF9F01C0C09FB10EE44EA0E44AE
:1003800000FB0CFEA64502FA01F209D93C1900F166
:10039000FF3A80F09C80A64540F2998002383C44A8
:1003A000A4EB0E041FFA83FEB4FBF9F309FB13441C
:1003B0004EEA044403FB0CFCA44508D93C1903F1A4
:1003C000FF3E80F08280A4457FD9023B3C4443EA53
:1003D0000040A4EB0C04A0FB02EC64457346E1462C
:1003E00062D35FD05DB1B8EB030264EB090404FA99
:1003F00006F622FA01F31E43CC40C5E90064002151
:100400004FE7B1FBF2FC010C41EA0E4180B240EA39
:1004100001423B4638463C46B846BE462026B1FB24
:10042000F7F1A2EB080241EA0C4166E7014618E742
:1004300010462CE7C6F120022EFA02F3B740B14075
:1004400020FA02F24FEA174E0A43B3FBFEF8BCB2A1
:100450000EFB1833110C41EA034108FB04F9B040CC
:1004600089454FEA104380B23ED9791808F1FF3C24
:1004700001D289451FD8A1EB0901B1FBFEF909FBA7
:1004800004F80EFB191192B242EA0142424529D208
:10049000BA1809F1FF31C4D24245C2D2A9F1020112
:1004A0003A44BEE7F0459DD2BEEB02036CEB070C6D
:1004B0000138E14696E7A7EB09094944A8F1020C87
:1004C000B1FBFEF909FB04F8DBE773467FE7504612
:1004D00066E70846FDE63B44023A33E7ACF1020C1E
:1004E0003B441CE749469CE7A1EB0901C446B1FB2C
:1004F000FEF909FB04F8C4E7704700BF034613F890
:10050000012B002AFBD1181A0138704700000000A7
:1005100001F0FF01102A2BDB10F0070F08D010F8B4
:10052000013B013A8B422DD010F0070F42B3F6D1B8
:10053000F0B441EA012141EA014122F007047FF0D1
:1005400000070023F0E80256083C85EA010586EA28
:10055000010685FA47F5A3FA87F586FA47F6A5FA64
:1005600087F68EB9EED1F0BC01F0FF0102F0070270
:1005700032B110F8013B013A83EA010313B1F8D11B
:100580000020704701387047002D06BF35460338FC
:10059000073815F0010F07D1013015F4807F02BF35
:1005A000013015F4C03F0130F0BC0138704700BF86
:1005B00002440346934200D1704703F8011BF9E758
:1005C00070B50D4D0D4C641BA4100026A64209D138
:1005D0000B4D0C4C0AF0F2FB641BA4100026A64243
:1005E00005D170BD55F8043B98470136EEE755F844
:1005F000043B98470136F2E794AF000894AF000837
:1006000094AF000898AF00087047704738B50546AA
:10061000002941D051F8043C0C1F002BB8BFE4184E
:1006200000F0E0F81D4A136833B96360146028468F
:10063000BDE8384000F0DCB8A34208D92068211892
:100640008B4201BF19685B6809182160EDE71A4603
:100650005B680BB1A342FAD911685018A0420BD1C4
:1006600020680144501883421160E0D118685B682B
:10067000536008441060DAE702D90C232B60D6E7F8
:10068000206821188B4204BF19685B68636004BF4F
:10069000091821605460CAE738BD00BF7C02002001
:1006A00070B50F4E0C463168054611B900F0A6F83A
:1006B00030602146284600F0A1F8431C03D14FF0DA
:1006C000FF34204670BDC41C24F00304A042F8D0BF
:1006D000211A284600F092F80130F2D1EFE700BF6E
:1006E000780200202DE9F843CD1C25F003050835DC
:1006F0000C2D38BF0C25002D064601DBA94204D97C
:100700000C2333600020BDE8F883DFF8D48000F0CC
:1007100069F8D8F800301C4644BB29463046FFF73C
:10072000BFFF431C044658D1D8F800402746002F8D
:1007300043D1002C4BD023683946304604EB0309E3
:1007400000F05CF8814542D121686D1A2946304697
:10075000FFF7A6FF01303AD023682B442360D8F876
:1007600000305A6862BBC8F800700FE02268521B64
:1007700020D40B2A17D96119A342256018BF5960EC
:10078000636808BFC8F8001062514B60304600F043
:100790002FF804F10B00231D20F00700C21A1CBF24
:1007A0001B1AA350AFE76268A3420CBFC8F8002031
:1007B0005A60EBE723466468AEE73C467F68B6E7DD
:1007C0001A465B68A342FBD100235360DEE70C238B
:1007D0003360304600F00CF894E70560D6E700BFC0
:1007E0007C0200200148FFF70FBF00BF7402002009
:1007F0000148FFF70ABF00BF7402002038B5064D5C
:100800000023044608462B6002F074FC431C02D10E
:100810002B6803B1236038BD70020020034AD2F870
:10082000883043F47003C2F88830704700ED00E070
:100830002DE9F04F02460D6895FAA5F44FF0010C32
:10084000B4FA84F403274FF00F0E35FA04F001D107
:10085000BDE8F08F0CFA04F32B406AD04868461EBE
:10086000012E1ED893FAA3F893FAA3F9B8FA88F8E0
:1008700096684FEA480807FA08F826EA0808B9FA1D
:1008800089F98E684FEA490906FA09F646EA080628
:100890009660566826EA0308CE685E4348EA060674
:1008A000566093FAA3F8B8FA88F8D66893FAA3F9D1
:1008B0004FEA480807FA08F826EA0808B9FA89F959
:1008C0000E694FEA490906FA09F646EA08060228BF
:1008D000D6601BD193FAA3F6D1F814905EB3B6FAA2
:1008E00086FABAF1070F26DCD2F820804FEA8A0A8E
:1008F0004FF00F0BB6FA86F60BFA0AFAB60028EAA2
:100900000A0809FA06F646EA0806166293FAA3F6FA
:10091000B6FA86F6D2F8008093FAA3F37600B3FA1B
:1009200083F307FA06F65B0028EA06069840304390
:100930001060013489E71E0A96FAA6FABAFA8AFA12
:10094000D2F8248096FAA6F64FEA8A0AB6FA86F614
:10095000B6000EFA0AFA28EA0A0809FA06F949EA7C
:1009600008065662D2E700002DE9F3471F46894684
:100970009046044601F00AF90A9D3D442D1A01F003
:1009800005F9264B1E68C6F3CB366E4382460196A8
:100990002268936839EA03030CBF0123002343450F
:1009A00001D100202EE07B1CF3D001F0EFF8A0EB8A
:1009B0000A00A84229D323685A6822F0E0025A604C
:1009C0006268B2F5827F0AD1A268B2F5004F02D008
:1009D000B2F5806F03D11A6822F040021A60A26A51
:1009E000B2F5005F07D11A6822F400521A601A6843
:1009F00042F400521A60012384F85130002384F835
:100A00005030032002B0BDE8F087019B1BB1019B71
:100A1000013B0193BCE71D46BAE700BF5000002030
:100A2000F0B585B00B4600920E4617460221012212
:100A30000446FFF799FF054628B1636D43F0200394
:100A40006365032515E0124B1868124BB0FBF3F0F9
:100A50004FF47A73584363680390B3F5827F0BD1E8
:100A6000009733462A4680212046FFF77DFF002865
:100A7000E3D1284605B0F0BD039B002BF9D0039BC2
:100A8000013B039323689B681B06F5D4F1E700BF85
:100A90005000002000366E0137B50B464168B1F5B5
:100AA000827F044608D0009201210022FFF75CFFFC
:100AB000D0B9002003B030BD8168B1F5004F02D03D
:100AC000B1F5806F07D125682868B1F5806F20F0F7
:100AD0004000286004D00092802100222046E5E7F3
:100AE000009201210022F9E7636D43F02003636562
:100AF0000320DFE710B50446002855D0436A002BD9
:100B00004ED14268B2F5827F00D0C3610023A36258
:100B100094F8513003F0FF0223B984F850202046A6
:100B200001F00AFD2168A068A269022384F851300F
:100B30000B6823F040030B60636800F4044003F487
:100B400082730343E06800F400600343206900F00F
:100B500002000343606900F00100034302F40070E7
:100B60000343E06900F038000343206A00F080008E
:100B70000343A06A00F4005003430B60636A120C45
:100B800003F0100302F004021A434A60CB6923F415
:100B90000063CB6100200123606584F8513010BDF3
:100BA0000023C0E90433B1E70120F8E72DE9F7435A
:100BB00004461F460D46904600F0E8FF94F8513079
:100BC000012B8146D8B240F09F80002D74D0B8F13F
:100BD000000F71D094F85030012B00F09580032362
:100BE00084F8513000236365C4E91033A4F83680DB
:100BF000A363A387E387A368266884F85000B3F54E
:100C0000004F2563A4F8348007D1336823F04003F4
:100C10003360336843F4804333603368E2685B06D3
:100C20005EBF336843F040033360B2F5006F636822
:100C300045D113B1B8F1010F07D135F8023BF3608C
:100C40002563E38E013B9BB2E386E38E9BB2D3B96F
:100C50004A4639462046FFF7E3FE002851D1A368F3
:100C600033B901932368DA6801929B680193019B71
:100C7000012384F85130606D0023C01A84F850308D
:100C800018BF012018E022689368980705D5236BE8
:100C900033F8021BD1602363D3E700F077FFA0EBAA
:100CA0000900B842D1D3791CCFD0012384F8513048
:100CB000002384F85030032003B0BDE8F08313B163
:100CC000B8F1010F08D12B783373236B0133236301
:100CD000E38E013B9BB2E386E38E9BB2002BB7D041
:100CE00023689A68920703D5226B12781A73ECE78F
:100CF00000F04CFFA0EB0900B842EDD37B1CEBD019
:100D0000D3E720236365AAE70220D5E72DE9F7435F
:100D100004460D4691461E46DDF8288000F036FF59
:100D200094F851306268012B0746D9B20AD0B2F567
:100D3000827F40F0E580A368002B40F0E180042929
:100D400040F0DE80002D4BD0B9F1000F48D0002ECE
:100D500046D094F85030012B00F0D280012384F863
:100D6000503094F85130C4F83890042B1CBF052340
:100D700084F8513000236365C4E910332368E687A3
:100D8000E6861968A687490658BF1968256358BFC3
:100D900041F04001A68658BF1960E168B1F5006FC7
:100DA00055D10AB1012E07D135F8022BDA60E38E56
:100DB0002563013B9BB2E3860125E38E9BB28BB991
:100DC000E38F9BB273B93A4641462046FFF728FEAF
:100DD000002800F0818020236365002384F85030D0
:100DE000012031E021688B689A070DD5E38E9BB214
:100DF00053B145B1236B33F8022BCA602363E38EF2
:100E0000013B9BB2E38600258A6812F001020CD0F8
:100E1000E38F9BB24BB1A36BC96823F8021BA3639A
:100E2000E38F013B9BB2E387154600F0AFFEC01B8A
:100E30004045C2D3B8F1FF3FBFD0012384F8513001
:100E4000002384F85030032003B0BDE8F0830AB1DA
:100E5000012E08D12A781A73236B01332363E38EA2
:100E6000013B9BB2E38601252DE0226893689B0736
:100E70000ED5E38E9BB25BB14DB1236B1B78137320
:100E8000236B01332363E38E013B9BB2E386002592
:100E90002268916811F001010DD0E38F9BB253B12C
:100EA000A36BD2681A70A36B0133A363E38F013B7A
:100EB0009BB2E3870D4600F069FEC01B404502D39C
:100EC000B8F1FF3FB9D1E38E9BB2002BCDD1E38FB8
:100ED0009BB2002BC9D176E7A36833B9019323688D
:100EE000DA6801929B680193019B012384F85130D9
:100EF000606D0023C01A84F8503018BF0120A3E7AA
:100F00000220A1E72DE9F7431E4690F85130012B4E
:100F1000044689461746DDB204D00225284603B0B0
:100F2000BDE8F0830029F9D0002AF7D04368B3F573
:100F3000827F0BD183684BB9042380F8513013466C
:100F400000960A46FFF7E2FE0546E7E700F01EFEC0
:100F500094F85030012B8046DFD0A268C4F8389056
:100F60000123002584F85030B2F5004F4FF0040300
:100F700084F85130C4E9105565652368E787A78771
:100F80002563A586E58607D11A6822F040021A601B
:100F90001A6822F480421A601A6855065EBF1A6801
:100FA00042F040021A60E368F3B1E38F9BB2FBB1F9
:100FB00023689A68D2073CD5DA68A36B23F8022B22
:100FC000A363E38F013B9BB2E387EEE723689A6854
:100FD000D0071ED5A26B1B7B1370A36B0133A363D9
:100FE000E38F013B9BB2E387E38F9BB2002BEDD1F4
:100FF000424631462046FFF74FFD18BB012384F8D7
:101000005130656D0023ED1A84F8503018BF01256A
:1010100084E700F0BBFDA0EB0800B042E4D3711CF4
:10102000E2D0012384F85130002384F850300325A6
:1010300074E700F0ABFDA0EB0800B042B5D3731C21
:10104000B3D0EEE720236365D8E700002DE9F34134
:10105000044640B30368DE0710D423689D075BD4C1
:101060002368190700F19D8023685A0700F1BD80AD
:10107000A369002B40F0248100202CE08D4B9A685E
:1010800002F00C02042A07D09A6802F00C02082A27
:101090000BD15B68590208D5864B1B689A03DCD5D7
:1010A0006368002BD9D1012015E06368814DB3F549
:1010B000803F13D12B6843F480332B6000F066FD32
:1010C0007C4E054633689B03C7D400F05FFD401B90
:1010D0006428F7D9032002B0BDE8F081B3F5A02F52
:1010E00004D12B6843F480232B60E3E72A6822F4C1
:1010F00080322A602A6822F480222A60002BDDD107
:1011000000F044FD06462B689F03A6D500F03EFD87
:10111000801B6428F7D9DDE7664B9A6812F00C0F44
:1011200007D09A6802F00C02082A11D15B685D02B0
:101130000ED4604A1368990702D5E368012BB2D137
:101140001368216923F0F80343EAC103136087E7BA
:10115000E268594BB2B101221A6000F017FD554DFB
:1011600006462B689B0707D52B68226923F0F803F6
:1011700043EAC2032B6073E700F008FD801B0228DE
:10118000EFD9A7E71A6000F001FD4A4E0546336823
:101190009F077FF565AF00F0F9FC401B0228F6D9E8
:1011A00098E76269444B82B10122C3F8802E00F0B7
:1011B000EDFC404E0546736F9B073FF555AF00F0C1
:1011C000E5FC401B0228F6D984E7C3F8802E00F026
:1011D000DDFC384E0546736F9F077FF545AF00F085
:1011E000D5FC401B0228F6D974E7324B1A6C12F07A
:1011F000805228D101921A6C42F080521A641B6C02
:1012000003F080530193019B01272C4D2B68D805D7
:101210001BD5A368274D012B27D12B6F43F001036A
:101220002B6700F0B3FC234E054641F28838336F3C
:101230009A0739D5002F3FF41BAF1E4A136C23F0D9
:101240008053136414E70027DFE72B6843F48073AF
:101250002B6000F09BFC06462B68D905D9D400F022
:1012600095FC801B0228F7D934E7052B04D12B6F9E
:1012700043F004032B67D0E72A6F22F001022A67AC
:101280002A6F22F004022A67002BCAD100F07EFCEC
:1012900041F2883806462B6F9B07CBD500F076FCD1
:1012A000801B4045F7D915E700F070FC401B404516
:1012B000BDD90FE7003802400000474200700040EF
:1012C000374DAA6802F00C02082A3ED0022B354B9B
:1012D0004FF000021A662BD100F058FC06462B682E
:1012E00099011FD4D4E907321343626A43EA821397
:1012F000E26A43EA0263A26A5208013A43EA0243FD
:101300006B60284B264D01221A6600F03FFC044614
:101310002B689A013FF5B0AE00F038FC001B0228A4
:10132000F6D9D7E600F032FC801B0228D7D9D1E6E7
:1013300000F02CFC04462B689B017FF59DAE00F06D
:1013400025FC001B0228F6D9C4E6012B3FF4ABAE06
:101350006B68E26903F4800191427FF4A4AE216AD4
:1013600003F03F028A427FF49EAE616A47F6C07284
:101370001A40B2EB811F7FF496AEA26A520803F4C2
:101380004031013AB1EB024F7FF48DAEE26A03F0D7
:101390007063B3EB026F14BF012000209BE600BF17
:1013A0000038024000004742134908B58B6803F03B
:1013B0000C03042B1CD0082B1CD14A684B684968CD
:1013C00013F4800314BF0D480D48C1F3881118BFF2
:1013D000002302F03F02A1FB0001FEF7F9FE064BDD
:1013E0005B68C3F3014301335B00B0FBF3F008BD5E
:1013F0000248FCE70248FAE70038024000127A008F
:101400000024F4002DE9F0410D46044610B90120F6
:10141000BDE8F081434B1A6802F007028A4228D3E4
:1014200021688F072DD4C80740D43E4B1A6802F0BC
:101430000702AA4265D8226851076BD4130707D563
:10144000394A2169936823F4604343EAC1039360F6
:10145000FFF7AAFF344B354A9B68C3F30313D35CF1
:10146000D840334B1860334B186800F045FB002020
:10147000CEE7CAB21A701B6803F007038B42C6D1CD
:10148000CEE7294B11F0040F1EBF9A6842F4E052D8
:101490009A600E0742BF9A6842F460429A609A6866
:1014A000A06822F0F00202439A60BCE762681E4B1B
:1014B000012A1CD11B6813F4003FA8D01A4EB36850
:1014C00023F003031343B36000F060FB41F288385C
:1014D0000746B368626803F00C03B3EB820FA4D035
:1014E00000F054FBC01B4045F3D9032090E7911E48
:1014F00001291B6802D813F0007FDEE713F0020F0A
:10150000DBE7EAB21A701B6803F00703AB427FF413
:101510007EAF90E70449E0688B6823F4E05303430F
:101520008B608BE7003C0240003802402EAF000881
:101530005000002058000020094910B50C6924F41F
:1015400040740C610C6944F440740C610C6944F003
:1015500001040C610260BFF36F8F436010BD00BFD8
:10156000003C0240074B1A6922F440721A611A6962
:1015700042F400721A611A6942F001021A610160B4
:10158000704700BF003C0240074B1A6922F44072CA
:101590001A611A6942F480721A611A6942F00102F2
:1015A0001A610180704700BF003C02401A4BDA68A4
:1015B000D20606D51949CA6942F01002CA61102242
:1015C000DA60DA68900606D51449CA6942F0080262
:1015D000CA612022DA60104BDA68510606D50F493D
:1015E000CA6942F00402CA614022DA60DA6812066F
:1015F00006D50A49CA6942F00202CA618022DA604D
:10160000054AD3689B0706D50449CB6943F02003FC
:10161000CB610223D3607047003C0240800200206F
:10162000064B1A69002ABFBF054A5A6002F1883288
:101630005A60BABF1869C00F00207047003C0240D2
:1016400023016745034A136943F0004313610020F7
:10165000704700BF003C0240114B70B500220446A9
:10166000DA6100F093FA0F4D0646EB68DA030CD40A
:10167000EB68DB0744BF0123EB60E86810F0F20081
:1016800007D0FFF793FF012003E0611CEDD00CB9F8
:10169000032070BD00F07AFA801BA042E5D9F7E77D
:1016A00080020020003C02402DE9F0411F4E984688
:1016B000337E012B07460D46144635D001234CF2EC
:1016C00050303376FFF7C8FFB0B9CFB9184B1A695D
:1016D00022F440721A611A691A611A69E4B242F07E
:1016E00001021A612C704CF25030FFF7B5FF104A1E
:1016F000136923F00103136100233376BDE8F08101
:10170000012F04D1A1B22846FFF73EFFEBE7022FDD
:1017100004D121462846FFF725FFE4E72246434649
:101720002846FFF709FFDEE70220E7E780020020F6
:10173000003C0240074B1A6922F440721A611A6990
:1017400042F004021A611A6942EA002242F480322D
:101750001A617047003C02400D4B1A6922F4407236
:101760001A611A69022994BF09024FF440710A43B1
:101770001A611A6922F078021A611A6942EAC000F5
:1017800040F0020018611A6942F480321A61704711
:10179000003C0240144B1A6891050FD51A6822F4D8
:1017A00000721A601A6842F400621A601A6822F421
:1017B00000621A601A6842F400721A600A4B1A68D2
:1017C00052050FD51A6822F480621A601A6842F432
:1017D00080521A601A6822F480521A601A6842F421
:1017E00080621A60704700BF003C02402DE9F84358
:1017F000DFF8948098F81830012B05460F463FD04B
:1018000001234CF2503088F81830FFF725FF0446CA
:10181000A0B94FF0FF333B602B68012B14D1287C1B
:10182000FFF788FF4CF25030FFF716FF154A136997
:1018300023F0040304461361FFF7ACFF002388F88C
:1018400018302046BDE8F883AE68DFF83890D5E957
:1018500002231344B342EFD9297C3046FFF77CFFC3
:101860004CF25030FFF7F8FED9F8103023F07A032D
:10187000C9F8103010B13E600446DDE70136E6E7F6
:101880000224DEE7003C0240800200202DE9F74FF1
:10189000DFF8A491664A00230D6801249C4004EA05
:1018A0000506AC4340F0AF804D68032705F0030404
:1018B0004FEA430807FA08FC671E012F6FEA0C0C79
:1018C00034D8876807EA0C0ECF6807FA08F747EAAA
:1018D0000E078760476827EA060EC5F300179F408A
:1018E00047EA0E074760C76807EA0C0E8F6807FAD9
:1018F00008F747EA0E07022CC76019D14FEAD30A4E
:1019000000EB8A0A03F0070BDAF820704FEA8B0B22
:101910004FF00F0E0EFA0BFE27EA0E0E0F6907FAB4
:101920000BF747EA0E07CAF8207001E0032CDAD162
:10193000076804FA08F407EA0C073C4315F4403F33
:10194000046060D000240194D9F8444044F48044F9
:10195000C9F84440D9F8444023F0030707F1804711
:1019600004F4804407F59C37019403F0030C019CB8
:10197000D7F808E04FEA8C0C0F2404FA0CF42EEA96
:10198000040E2C4CA04245D004F58064A04243D004
:1019900004F58064A04241D004F58064A0423FD0A9
:1019A00004F58064A0423DD004F58064A0423BD0A1
:1019B00004F58064A04239D004F58064A04214BFCD
:1019C0000824072404FA0CF444EA0E04BC6094686A
:1019D000F74315F4801F0CBF3C4034439460D46837
:1019E00015F4001F0CBF3C403443D460546815F418
:1019F000003F0CBF3C40344354601468ED0354BFB7
:101A00003C40344314600133102B7FF445AF03B0E6
:101A1000BDE8F08F0024D5E70124D3E70224D1E705
:101A20000324CFE70424CDE70524CBE70624C9E748
:101A3000003C0140000002400038024003691942A6
:101A400014BF0120002070470749CA6822F4E062F1
:101A50000302120403F4E063120C134343F0BF6368
:101A600043F40033CB60704700ED00E0164B30B517
:101A7000DC68C4F30224C4F10703251D042B28BF2E
:101A80000423062D4FF0FF358CBF033C002405FADC
:101A900003F321EA0303A54022EA0502A34000283C
:101AA00043EA0203ACBF00F16040084A4FEA031367
:101AB000B8BF00F00F00DBB2AABF00F561401354BD
:101AC00080F8003330BD00BF00ED00E014ED00E011
:101AD0000138B0F1807F0BD24FF0E023054A586106
:101AE000F02182F823100020072298611A617047C4
:101AF0000120704700ED00E038B50E4B1A784FF426
:101B00007A73B3FBF2F30C4A05461068B0FBF3F0AE
:101B1000FFF7DEFF044658B90F2D09D802462946C3
:101B20004FF0FF30FFF7A2FF044B20461D6038BD89
:101B30000120FCE754000020500000205800002045
:101B400008B50B4B1A6842F400721A601A6842F426
:101B500080621A601A6842F480721A600320FFF7EC
:101B600073FF0F20FFF7C8FF01F09CFA002008BDAB
:101B7000003C0240034A044B11681B780B4413607D
:101B8000704700BFA002002054000020014B1868DD
:101B9000704700BFA002002038B50446FFF7F6FFEB
:101BA000631C1CBF054B1B78054618BFE418FFF7E4
:101BB000EDFF431BA342FAD338BD00BF5400002001
:101BC000034B044A9B68C3F30313D35CD8407047AC
:101BD000003802402EAF0008034B044A9B68C3F351
:101BE0008223D35CD84070470038024026AF0008FB
:101BF000034B044A9B68C3F34233D35CD84070471D
:101C00000038024026AF00080E4A0F49536813F40B
:101C1000800F0E4B08BF0B46082810D15068516842
:101C2000526800F03F00B3FBF0F0C1F38813584353
:101C3000C2F3014301335B00B0FBF3F070470020B7
:101C4000704700BF003802400024F40000127A0000
:101C5000064B986800F00C00042803D0082803D134
:101C6000FFF7D2BF02487047024870470038024071
:101C700000127A000024F40010B50446FFF7E8FFD4
:101C80002060FFF79DFF60600146FFF7A5FFA060A1
:101C90000846FFF7ADFFE06010BD4FF0E02382B0D3
:101CA0001B690193411C019B18BF01304FF0E023D9
:101CB00008B902B070471A69D203FCD50138F7E7BA
:101CC000254A0368904212D0B0F1804F0FD0A2F5A0
:101CD0007C4290420BD002F58062904207D002F520
:101CE0008062904203D002F57842904208D14A685F
:101CF00023F070031343CA6823F44073134316E0C0
:101D0000164A9042F7D002F580629042F3D002F575
:101D100080629042EFD0A2F598329042EBD002F56B
:101D200080629042E7D002F580629042E3D0036087
:101D30008B68C3620B888362074B984203D003F51C
:101D40008063984201D10B690363436943F0010347
:101D500043610020704700BF000001400040014087
:101D600030B5C3689B0485B004460D4602D50120FA
:101D700005B030BD4B68C968C2680B4329690B4385
:101D8000A96922F416420B4322F00C021343C360EC
:101D90000369AA6823F440531343036143696A69E2
:101DA00023F44073134343616846FFF765FF284BF4
:101DB0009C4228D103980028D9D02B68002BD6D07C
:101DC000AA691921B2F5004FA0FB010130D1DA1840
:101DD0004FF0000545EB0503FEF7FAF96422B0FB6E
:101DE000F2F102FB1103DB003233B3FBF2F303F039
:101DF00007025B0002EB011203F4F87313449BB279
:101E0000A3600020B4E7134B9C4201D10298D2E7B3
:101E1000114B9C42FAD003F54C439C42CAD0A3F527
:101E200048439C42F2D003F580639C429FD1EDE78A
:101E30009A009B0FFEF7CCF96422B0FBF2F102FB93
:101E400011031B013233B3FBF2F303EB0113D6E7AB
:101E500000100140004400400048004080B489B0B8
:101E600000AF78607B680C33FB60FB6853E8003F91
:101E7000BB60BB6843F02003FB617B680C33FA69ED
:101E8000BA617B617969BA6941E800233B613B69CA
:101E9000002BE7D100BF00BF2437BD465DF8047BAF
:101EA000704780B489B000AF78607B680C33FB600A
:101EB000FB6853E8003FBB60BB6823F01003FB6185
:101EC0007B680C33FA69BA617B617969BA6941E868
:101ED00000233B613B69002BE7D100BF00BF2437E3
:101EE000BD465DF8047B704780B489B000AF786070
:101EF0007B680C33FB60FB6853E8003FBB60BB684A
:101F000023F08003FB617B680C33FA69BA617B6163
:101F10007969BA6941E800233B613B69002BE7D14D
:101F200000BF00BF2437BD465DF8047B704780B416
:101F300089B000AF78607B681433FB60FB6853E8BE
:101F4000003FBB60BB6823F00103FB617B68143377
:101F5000FA69BA617B617969BA6941E800233B613A
:101F60003B69002BE7D100BF00BF2437BD465DF8B9
:101F7000047B704780B500AFFFF7E2FD00F022F868
:101F800000F0C6F800F044FA00F05AFE00F068FADB
:101F900000F002FC00F09AFA00F0E2FE0848FFF7B9
:101FA00080FF0748FFF7A0FF0548FFF7C0FF044880
:101FB000FFF754FF01F004FA01F046FAFCE700BF16
:101FC0000014014080B594B000AF07F12003302227
:101FD00000211846FEF7ECFA07F10C0300221A6004
:101FE0005A609A60DA601A610023BB60284B1B6C50
:101FF000274A43F080531364254B1B6C03F0805336
:10200000BB60BB6800237B60224B1B68214A43F402
:10201000804313601F4B1B6803F480437B607B6825
:1020200001233B624FF480337B620223BB634FF496
:102030008003FB6304233B64A8237B640223BB640B
:102040000423FB6407F120031846FEF7FFFF034655
:10205000002B01D000F020F80F23FB6002233B612E
:1020600000237B614FF4A053BB614FF48053FB61AD
:1020700007F10C0305211846FFF7C4F90346002BAE
:1020800001D000F009F800BF5037BD4680BD00BF49
:10209000003802400070004080B400AF72B600BF4C
:1020A00000BFFDE780B483B000AF786039607B6823
:1020B0003A689A6100BF0C37BD465DF8047B7047F3
:1020C00080B483B000AF786039603B681A047B68E5
:1020D0009A6100BF0C37BD465DF8047B7047000075
:1020E00080B485B000AF7860084B1A6B07497B68F5
:1020F00013430B63054B1A6B7B681340FB60FB6853
:1021000000BF1437BD465DF8047B704700380240BD
:1021100080B586B000AF3B4600221A605A609A60D4
:10212000DA601A615A618020FFF7DAFF0120FFF7B9
:10213000D7FF0420FFF7D4FF0220FFF7D1FF1020C4
:10214000FFF7CEFF0820FFF7CBFF4FF401615A489D
:10215000FFF7B6FF6F215948FFF7B2FF4FF48071C8
:102160005748FFF7ADFFB6215648FFF7A9FF2021DA
:102170005348FFF797FF10233B6001237B60032345
:10218000BB600023FB6000233B613B4619464A4885
:10219000FEF74EFB4FF490733B6001237B600023FE
:1021A000BB600023FB6000233B613B46194644486B
:1021B000FEF73EFB07233B6001237B600023BB60EF
:1021C0000023FB6002233B613B4619463B48FEF778
:1021D0002FFB4FF478633B6000237B6001233B615E
:1021E0003B4619463848FEF723FB4FF400633B603B
:1021F00001237B600023BB600023FB6000233B6165
:102200003B4619462C48FEF713FB49233B6000234D
:102210007B6000233B613B4619462A48FEF708FBDA
:1022200092233B6001237B600223BB600023FB60A1
:1022300001233B613B4619462248FEF7F9FA242365
:102240003B6001237B600023BB600023FB60002315
:102250003B613B4619461B48FEF7EAFA48233B60C0
:1022600001237B600023BB600023FB6000233B61F4
:102270003B4619461148FEF7DBFA10233B6000236A
:102280007B6000233B613B4619460C48FEF7D0FAC1
:1022900020233B6001237B600223BB600023FB60A3
:1022A00001233B613B4619460448FEF7C1FA00BFD3
:1022B0001837BD4680BD00BF000002400004024048
:1022C00000080240000C02400010024080B400AF41
:1022D000044BDB681B0A03F007031846BD465DF894
:1022E000047B704700ED00E080B483B000AF03468C
:1022F000FB7197F90730002B0BDBFB7903F01F0212
:10230000074997F907305B09012000FA02F241F80A
:10231000232000BF0C37BD465DF8047B704700BF2B
:1023200000E100E080B483B000AF03463960FB7188
:1023300097F90730002B0ADB3B68DAB20C4997F9B2
:1023400007301201D2B20B4483F800230AE03B6845
:10235000DAB20849FB7903F00F03043B1201D2B251
:102360000B441A7600BF0C37BD465DF8047B7047FE
:1023700000E100E000ED00E080B489B000AFF8605B
:10238000B9607A60FB6803F00703FB61FB69C3F186
:102390000703042B28BF0423BB61FB690433062B0E
:1023A00002D9FB69033B00E000237B614FF0FF3261
:1023B000BB6902FA03F3DA43BB681A407B699A40AF
:1023C0004FF0FF317B6901FA03F3D9437B680B407F
:1023D000134318462437BD465DF8047B7047000060
:1023E00080B485B000AF7860084B1A6B07497B68F2
:1023F00013430B63054B1A6B7B681340FB60FB6850
:1024000000BF1437BD465DF8047B704700380240BA
:1024100080B500AF4FF48000FFF7E2FFFFF756FFF3
:102420000346002200211846FFF7A6FF034619467F
:102430004520FFF777FF4520FFF756FFFFF746FFE0
:102440000346002200211846FFF796FF034619466F
:102450004620FFF767FF4620FFF746FF00BF80BD1D
:1024600080B500AF174B184A1A60164B4FF48272B2
:102470005A60144B00229A60124B0022DA60114B12
:1024800000221A610F4B00225A610E4B4FF400726A
:102490009A610C4B0822DA610A4B00221A62094B3E
:1024A00000225A62074B00229A62064B0A22DA6225
:1024B0000448FEF71FFB0346002B01D0FFF7ECFD9D
:1024C00000BF80BDA40200200030014080B500AFF5
:1024D000174B184A1A60164B4FF482725A60144B0D
:1024E00000229A60124B0022DA60114B00221A611E
:1024F0000F4B00225A610E4B4FF400729A610C4B45
:102500000022DA610A4B00221A62094B00225A6249
:10251000074B00229A62064B0A22DA620448FEF751
:10252000E9FA0346002B01D0FFF7B6FD00BF80BDDE
:10253000FC020020003C004080B58CB000AF786009
:1025400007F11C0300221A605A609A60DA601A616F
:102550007B681B68324A93422CD10023BB61314B0C
:102560005B6C304A43F4805353642E4B5B6C03F432
:102570008053BB61BB6900237B612A4B1B6B294ADB
:1025800043F001031363274B1B6B03F001037B61D3
:102590007B69E023FB6102233B6200237B62032310
:1025A000BB620523FB6207F11C0319461E48FFF7B7
:1025B0006DF931E07B681B681C4A93422CD10023E3
:1025C0003B61184B1B6C174A43F400431364154BD3
:1025D0001B6C03F400433B613B690023FB60114B20
:1025E0001B6B104A43F0040313630E4B1B6B03F089
:1025F0000403FB60FB684FF4E053FB6102233B6282
:1026000000237B620323BB620623FB6207F11C03EA
:1026100019460748FFF73AF900BF3037BD4680BD7D
:10262000003001400038024000000240003C004001
:102630000008024080B400AF044BDB681B0A03F0C3
:1026400007031846BD465DF8047B704700ED00E0C7
:1026500080B483B000AF0346FB7197F90730002BBD
:102660000BDBFB7903F01F02074997F907305B0981
:10267000012000FA02F241F8232000BF0C37BD46CA
:102680005DF8047B704700BF00E100E080B483B0D8
:1026900000AF03463960FB7197F90730002B0ADB66
:1026A0003B68DAB20C4997F907301201D2B20B44F9
:1026B00083F800230AE03B68DAB20849FB7903F0AB
:1026C0000F03043B1201D2B20B441A7600BF0C3741
:1026D000BD465DF8047B704700E100E000ED00E0DE
:1026E00080B489B000AFF860B9607A60FB6803F02D
:1026F0000703FB61FB69C3F10703042B28BF042315
:10270000BB61FB690433062B02D9FB69033B00E084
:1027100000237B614FF0FF32BB6902FA03F3DA4317
:10272000BB681A407B699A404FF0FF317B6901FA20
:1027300003F3D9437B680B40134318462437BD4647
:102740005DF8047B704780B483B000AF78607B682D
:102750001B6823F080027B681A6000BF0C37BD46FF
:102760005DF8047B7047000080B485B000AF7860EE
:10277000084B1A6C07497B6813430B64054B1A6CB2
:102780007B681340FB60FB6800BF1437BD465DF8F3
:10279000047B70470038024080B586B000AF3B1D17
:1027A00000221A605A609A60DA601A618020FFF78E
:1027B000DBFFFFF73FFF0346002200211846FFF72B
:1027C0008FFF034619462C20FFF760FF2C20FFF7F0
:1027D0003FFF5323BB800023BB6040F2E733FB6025
:1027E00000233B613B1D19460448FFF769FA034883
:1027F000FFF7A9FF00BF1837BD4680BD001C004091
:1028000080B400AF044BDB681B0A03F007031846D3
:10281000BD465DF8047B704700ED00E080B483B0F6
:1028200000AF0346FB7197F90730002B0BDBFB79F8
:1028300003F01F02074997F907305B09012000FAEE
:1028400002F241F8232000BF0C37BD465DF8047B3F
:10285000704700BF00E100E080B483B000AF0346E2
:102860003960FB7197F90730002B0ADB3B68DAB25D
:102870000C4997F907301201D2B20B4483F80023B8
:102880000AE03B68DAB20849FB7903F00F03043B26
:102890001201D2B20B441A7600BF0C37BD465DF868
:1028A000047B704700E100E000ED00E080B489B0F7
:1028B00000AFF860B9607A60FB6803F00703FB6162
:1028C000FB69C3F10703042B28BF0423BB61FB6929
:1028D0000433062B02D9FB69033B00E000237B6134
:1028E0004FF0FF32BB6902FA03F3DA43BB681A40C8
:1028F0007B699A404FF0FF317B6901FA03F3D943BA
:102900007B680B40134318462437BD465DF8047BB3
:102910007047000080B485B000AFF860B9607A609D
:102920000D4ABB6813441B781A46FB6813441B68A6
:1029300023F0C0020849BB680B441B781946FB68AA
:102940000B4419467B6813430B6000BF1437BD4628
:102950005DF8047B704700BF40AF000880B485B0CD
:1029600000AFF860B9607A600D4ABB6813441B7809
:102970001A46FB6813441B6823F490720849BB682D
:102980000B441B781946FB680B4419467B681343BC
:102990000B6000BF1437BD465DF8047B704700BF75
:1029A00040AF000880B485B000AFF860B9607A60CD
:1029B0000D4ABB6813441B781A46FB6813441B6816
:1029C00023F400720849BB680B441B781946FB6866
:1029D0000B4419467B6813430B6000BF1437BD4698
:1029E0005DF8047B704700BF40AF000880B485B03D
:1029F00000AFF860B9607A600D4ABB6813441B7879
:102A00001A46FB6813441B6823F480620849BB68BC
:102A10000B441B781946FB680B4419467B6813432B
:102A20000B6000BF1437BD465DF8047B704700BFE4
:102A300040AF000880B485B000AFF860B9607A603C
:102A40000D4ABB6813441B781A46FB6813441B6885
:102A500023F4C0520849BB680B441B781946FB6835
:102A60000B4419467B6813430B6000BF1437BD4607
:102A70005DF8047B704700BF40AF000880B485B0AC
:102A800000AFF860B9607A600D4ABB6813441B78E8
:102A90001A46FB6813441B6823F4C0420849BB680C
:102AA0000B441B781946FB680B4419467B6813439B
:102AB0000B6000BF1437BD465DF8047B704700BF54
:102AC00040AF000880B485B000AFF860B9607A60AC
:102AD0000D4ABB6813441B781A46FB6813441B68F5
:102AE00023F440320849BB680B441B781946FB6845
:102AF0000B4419467B6813430B6000BF1437BD4677
:102B00005DF8047B704700BF40AF000880B485B01B
:102B100000AFF860B9607A600D4ABB6813441B7857
:102B20001A46FB6813441B6823F060620849BB68BF
:102B30000B441B781946FB680B4419467B6813430A
:102B40000B6000BF1437BD465DF8047B704700BFC3
:102B500040AF000880B483B000AF786039600C4AA1
:102B60003B6813441B781A467B6813445B69084929
:102B70003A680A44127811467A680A4423F004033A
:102B8000536100BF0C37BD465DF8047B704700BF42
:102B900040AF000880B483B000AF78607B68DB682A
:102BA00043F400527B68DA6000BF0C37BD465DF825
:102BB000047B704780B483B000AF78607B681B698A
:102BC00023F490427B681A617B685B6923F02A02D8
:102BD0007B685A6100BF0C37BD465DF8047B7047C7
:102BE00080B485B000AF7860084B1A6B07497B68EA
:102BF00013430B63054B1A6B7B681340FB60FB6848
:102C000000BF1437BD465DF8047B704700380240B2
:102C100080B485B000AF7860084B5A6C07497B6878
:102C200013434B64054B5A6C7B681340FB60FB6895
:102C300000BF1437BD465DF8047B70470038024082
:102C400080B58EB000AF07F11C0300221A605A60F5
:102C50009A60DA601A615A619A613B1D00221A601B
:102C60005A609A60DA601A615A611020FFF7D0FF4B
:102C70000120FFF7B5FF4FF4C0637B600223BB6008
:102C80000323FB6000233B6100237B610723BB61BF
:102C90003B1D19462F48FDF7CBFD4FF00062072181
:102CA0002D48FFF733FF402207212B48FFF732FE64
:102CB000002207212848FFF705FF002207212648A8
:102CC000FFF74CFE002207212348FFF76BFE4FF46D
:102CD000806207212048FFF789FE002207211E4855
:102CE000FFF7A8FE002207211B48FFF7C7FE0721B8
:102CF0001948FFF72FFFFFF783FD0346002200214D
:102D00001846FFF7D3FD034619462520FFF7A4FD1B
:102D10002520FFF783FD4FF4E133FB6100233B6285
:102D200000237B620023BB620C23FB6200233B6316
:102D300000237B6307F11C0319460848FFF710F8CE
:102D40000648FFF737FF0548FFF724FF00BF383775
:102D5000BD4680BD000002400064024000100140FA
:102D600080B58EB000AF07F11C0300221A605A60D4
:102D70009A60DA601A615A619A613B1D00221A60FA
:102D80005A609A60DA601A615A612020FFF740FFAA
:102D90000420FFF725FFC0237B600223BB600323D1
:102DA000FB6000233B6100237B610823BB613B1D6B
:102DB00019463048FDF73CFD4FF0206206212E48B1
:102DC000FFF7A4FE402206212B48FFF7A3FD0022B7
:102DD00006212948FFF776FE002206212648FFF744
:102DE000BDFD002206212448FFF7DCFD4FF4806280
:102DF00006212148FFF7FAFD002206211E48FFF7B1
:102E000019FE002206211C48FFF738FE06211A4849
:102E1000FFF7A0FEFFF7F4FC03460022002118464E
:102E2000FFF744FD034619464720FFF715FD4720ED
:102E3000FFF7F4FC4FF41653FB6100233B620023C1
:102E40007B620023BB620C23FB6200233B630023F5
:102E50007B6307F11C0319460848FEF781FF07480A
:102E6000FFF7A8FE0548FFF795FE00BF3837BD46BF
:102E700080BD00BF00080240006402400014014011
:102E800080B483B000AF78607B684FF40012DA60E2
:102E900000BF0C37BD465DF8047B704780B483B03B
:102EA00000AF78607B684FF00062DA6000BF0C37DB
:102EB000BD465DF8047B704780B483B000AF786096
:102EC0007B681B6803F02003202B0CBF0123002329
:102ED000DBB218460C37BD465DF8047B704780B402
:102EE00085B000AF78607B681B68FB60FB687B681F
:102EF0005B68FB60FB6800BF1437BD465DF8047B70
:102F0000704780B485B000AF78607B681B68FB6059
:102F1000FB687B685B68FB60FB6800BF1437BD46DD
:102F20005DF8047B704780B485B000AF78607B6843
:102F30001B68FB60FB687B685B68FB60FB6800BF2D
:102F40001437BD465DF8047B704780B485B000AF90
:102F500078607B681B68FB60FB687B685B68FB6074
:102F6000FB6800BF1437BD465DF8047B704780B432
:102F700083B000AF78607B685B68DBB218460C37C3
:102F8000BD465DF8047B704780B400AF00BFFDE72D
:102F900080B400AF00BFFDE780B400AF00BFFDE725
:102FA00080B400AF00BFFDE780B400AF00BFFDE715
:102FB00080B400AF00BFBD465DF8047B704780B4AD
:102FC00000AF00BFBD465DF8047B704780B400AF22
:102FD00000BFBD465DF8047B704780B500AF01F0CF
:102FE00065FF00F0E9FF01F089FF03F0BFFDFEF788
:102FF000C1FD00BF80BD000080B500AF0948FFF7EC
:103000005BFF0346002B0BD10648FFF78CFF0548FA
:10301000FFF765FF0348FFF774FF0248FFF795FFCE
:1030200000BF80BD0010014080B400AF00BFBD46AE
:103030005DF8047B7047000080B500AF0348FFF7E0
:103040001FFF00F0A7FF00BF80BD00BF006402406B
:1030500080B500AF0248FFF721FF00BF80BD00BF71
:103060000064024080B500AF0D48FFF725FF03461E
:10307000002B07D00A48FFF77AFF0346184600F0F6
:1030800069FF0BE00648FFF74EFF0548FFF727FFF3
:103090000348FFF736FF0248FFF757FF00BF80BD28
:1030A0000014014080B483B000AF00237B60104B5C
:1030B0005B6C0F4A43F4804353640D4B5B6C03F429
:1030C00080437B607B6800233B60094B1B6C084A94
:1030D00043F080531364064B1B6C03F080533B603A
:1030E0003B6800BF0C37BD465DF8047B704700BFEE
:1030F0000038024080B586B000AF7860144A154BA6
:10310000D31A7B617B693B61134B1B68002B02D197
:10311000114B124A1A60104B1A687B6813443A69C3
:103120009A4207D207F0FAFA03460C221A604FF0CF
:10313000FF3309E0084B1B68FB60074B1A687B688C
:103140001344054A1360FB6818461837BD4680BD16
:10315000000002200040000054030020282D002021
:10316000DFF834D0FDF75AFB0C480D490D4A002317
:1031700002E0D458C4500433C4188C42F9D30A4A2C
:103180000A4C002301E013600432A242FBD3FDF796
:1031900017FAFEF7EFFE7047000002200000002043
:1031A0001C0100209CAF00081C010020242D0020E1
:1031B000FEE7000080B400AFBFF34F8F00BF064BA7
:1031C000DB6803F4E0620449044B1343CB60BFF3B4
:1031D0004F8F00BF00BFFDE700ED00E00400FA05DF
:1031E00080B483B000AF786039600C4A3B68134408
:1031F0001B781A467B6813441B6808493A680A44DE
:10320000127811467A680A4443F00103136000BF44
:103210000C37BD465DF8047B704700BF48AF00081F
:1032200080B483B000AF786039600C4A3B681344C7
:103230001B781A467B6813441B6808493A680A449D
:10324000127811467A680A4423F00103136000BF24
:103250000C37BD465DF8047B704700BF48AF0008DF
:1032600080B485B000AFF860B9607A600D4ABB6881
:1032700013441B781A46FB6813445B681B0C1B0441
:103280000849BA680A4412781146FA680A44114695
:103290007A6813434B6000BF1437BD465DF8047B6A
:1032A000704700BF48AF000880B485B000AFF86039
:1032B000B9607A603B60BB69402B14D1174ABB6888
:1032C00013441B781A46FB6813441A467B68D36084
:1032D000124ABB6813441B781A46FB6813441A460B
:1032E0003B68936013E00D4ABB6813441B781A4691
:1032F000FB6813441A467B689360084ABB68134412
:103300001B781A46FB6813441A463B68D36000BF1B
:103310001437BD465DF8047B704700BF48AF000816
:1033200080B483B000AF786039600C4A3B681344C6
:103330001B781A467B6813441B6808493A680A449C
:10334000127811467A680A4443F01003136000BFF4
:103350000C37BD465DF8047B704700BF48AF0008DE
:1033600080B489B000AF78607B681433FB60FB6881
:1033700053E8003FBB60BB6843F08003FB617B68A0
:103380001433FA69BA617B617969BA6941E800234B
:103390003B613B69002BE7D100BF00BF2437BD462E
:1033A0005DF8047B704780B483B000AF78607B68C1
:1033B000043318460C37BD465DF8047B70470000A7
:1033C00080B582B000AF0023FB7100F0CDFE02F0AB
:1033D000C7FE184B1B881849184603F011FA00F075
:1033E0005DFB0023FB711CE0FB79144A4FF6FF7173
:1033F00022F81310FB79184603F03AF90346002B24
:1034000006D1F8790E4B0022022100F04FFA05E0B8
:10341000F8790C4B0022032100F048FAFB790133C4
:10342000FB71FB79032BDFD900BF00BF0837BD4616
:1034300080BD00BF6000002058030020E00600208F
:10344000D4AD0008E0AD000880B500AF0C4B002201
:103450001A6000F019F800F091FF00F01FFB02F075
:10346000E1FE074B1A68074B1B689A4203D9044BCD
:103470001B68044A136003F03FFB00BF80BD00BF20
:10348000701700207417002090B583B000AF0023A0
:10349000FB710023BB800023FB71F3E1FB79984AA9
:1034A00032F813304FF6FF72934240F0BF81FB7940
:1034B000944AC82101FB03F313441B78002B40F00E
:1034C000B581FB79184602F0DFFF0346002B00F0C0
:1034D000AD81FB79184602F0E7FF38603B681B7846
:1034E000FF2B0FD13B6801331B78002B0AD1F879F1
:1034F000854B0022022100F0D9F9FB79184603F030
:1035000097F892E13B681B78FE2B0FD13B680133A3
:103510001B78002B0AD1F8797C4B0022032100F0A4
:10352000C5F9FB79184603F083F87EE13B681B7808
:10353000232B55D13B6801331B78532B50D13B686B
:1035400002331B78452B4BD13B6803331B78542B3C
:1035500046D1F8793B680022022100F0A7F93B68C8
:1035600005331B78492B13D13B6806331B78442B5A
:103570000ED1386800F044FDF879654B0022022135
:1035800000F094F94FF4FA70FEF787FBFFF712FE94
:103590003B6805331B78482B1DD13B6806331B78ED
:1035A0004F2B18D13B6807331B78532B13D13B6843
:1035B00008331B78542B0ED1386800F067FDF8797A
:1035C000544B0022022100F071F94FF4FA70FEF71B
:1035D00064FBFFF7EFFDFB79184603F029F824E1BF
:1035E0003B681B78542B64D13B6801331B78452B17
:1035F0005FD13B6802331B78532B5AD13B680333AE
:103600001B78542B55D13B6804331B784C2B12D1BB
:103610003B6805331B78452B0DD13B6806331B787F
:10362000442B08D13C4B01221A70F8793B4B002205
:10363000022100F03BF93B6804331B78532B33D154
:103640003B6805331B784E2B2ED13B6806331B7825
:10365000412B29D13B6807331B784B2B24D13B6886
:1036600008331B78452B1FD10123BB710DE0BB79BB
:103670009AB2F8792A4B042100F018F94FF4167029
:10368000FEF70BFBBB790133BB71BB79C82BEED9BD
:10369000F879244B0022022100F008F94FF4FA7067
:1036A000FEF7FBFAFFF786FDFB79184602F0C0FF34
:1036B000BBE0194B1B78012B72D13B681B78452B63
:1036C00018D13B6801331B78582B13D13B68023368
:1036D0001B78492B0ED13B6803331B78542B09D13F
:1036E0000D4B00221A70F8790F4B0022022100F0D6
:1036F000DDF850E00023BB800023BB7133E000BF46
:10370000E0060020C0030020F0AD00080CAE000869
:103710001CAE000858030020BC03002040AE000887
:103720005CAE000868AE000874AE0008BB793A6869
:1037300013441B782F2B19D9BB793A6813441B7893
:10374000392B13D8BB881A46920013445B009BB2F6
:10375000BA7939680A44127813449BB2303BBB8073
:10376000BB790133BB71BB79092BDFD9BB88002B37
:103770000BD0BB8840F2E632934206D8BA88F8797B
:10378000454B042100F092F805E0F8793B680022EF
:10379000032100F08BF8FB79184602F049FF6EE038
:1037A00003F090F90346012B0AD8F8793B4B00222D
:1037B000032100F07BF8FB79184602F039FF5EE048
:1037C0000023BB7122E0BB793A6813441B78002BBD
:1037D0000ED0BB793A68D118FA79BB790C783049A8
:1037E000C82000FB02F20A44134422461A700AE081
:1037F000FA79BB792A49C82000FB02F20A44134433
:1038000000221A7005E0BB790133BB71BB79C52B6F
:10381000D9D9FB79C82202FB03F3214A1344F87972
:103820000022022100F042F829E028E0FB791D4A3D
:1038300032F813304FF6FF72934220D0FB79194AC9
:1038400032F81320FB794FF4967101FB03F316490C
:103850000B44F879032100F029F8FB79104AC821BC
:1038600001FB03F3134400221A70FB790D4A4FF653
:10387000FF7122F81310FB79184602F0D9FEFB798C
:103880000133FB71FB79032B7FF608AE00BF00BF4D
:103890000C37BD4690BD00BF88AE000894AE00084E
:1038A000C0030020E0060020E806002090B482B0AB
:1038B00000AF3B600346FB710B46BB711346BB80F8
:1038C000714B1B781846BB793033D9B26F4A4FF42D
:1038D000967300FB03F313440A461A706A4B1B7875
:1038E00019466A4A4FF4967301FB03F313440133FC
:1038F0003B221A70BB88664AA2FB03235B099AB27B
:10390000644BA3FB0213D9080B469B000B445B00DE
:10391000D31A9BB2DBB25C4A127810463033D9B26C
:103920005A4A4FF4967300FB03F3134402330A46DA
:103930001A70BB88574AA2FB0323DB089AB2554B87
:10394000A3FB0213D9080B469B000B445B00D31A60
:103950009BB2DBB24C4A127810463033D9B24B4A94
:103960004FF4967300FB03F3134403330A461A70B3
:10397000BA88484BA3FB0213D9080B469B000B44A3
:103980005B00D31A9BB2DBB23F4A12781046303349
:10399000D9B23E4A4FF4967300FB03F31344043349
:1039A0000A461A70384B1B781946384A4FF49673FA
:1039B00001FB03F3134405333B221A70324B1B788F
:1039C0001846FB793133D9B2304A4FF4967300FB75
:1039D00003F3134406330A461A702B4B1B7819461F
:1039E0002A4A4FF4967301FB03F3134407333B2237
:1039F0001A70254B1B781A46274B082123F8121002
:103A000025E03B681B78002B1ED01F4B1B781C4603
:103A10001D4B1B781A46204B33F8123018463B6872
:103A200019781A4A4FF4967304FB03F313440344C2
:103A30000A461A70144B1B78174A32F813200132C9
:103A400091B2154A22F813103B6801333B603B6882
:103A50001B78002BD5D10C4B1B780133DAB20A4B03
:103A60001A70094B1A780B4BA3FB0213D9080B46AB
:103A70009B000B445B00D31ADAB2034B1A7000BFF1
:103A80000837BD4690BC704768170020980B00208F
:103A90001F85EB51CDCCCCCC5017002090B5B9B0E0
:103AA00000AF07F11403C82200211846FCF780FD7F
:103AB0000023A7F8DE30574B3C1D0FCB07C42380F3
:103AC00002341B0C237002F0FDFF03461A46524BD2
:103AD0001B78DBB29A4200F0B78102F0F3FF034695
:103AE0001A464D4B1A7007F11403184602F05EFF98
:103AF000494B1B78DBB2002B26D10023A7F8DC3022
:103B00001DE0B7F8DC30E0333B4413F8DC3C002B1D
:103B100035D0B7F8DC20B7F8DE30E0323A4412F89E
:103B2000DC2CE0333B4403F8CC2CB7F8DE30013317
:103B3000A7F8DE30B7F8DC300133A7F8DC30B7F88F
:103B4000DC300D2BDDD91BE00023A7F8DC3011E0C1
:103B5000B7F8DC30E0333B4413F8CC3C002B04D105
:103B6000B7F8DC30A7F8DE300AE0B7F8DC30013314
:103B7000A7F8DC30B7F8DC30632BE9D900E000BFF0
:103B8000B7F8DE30E0333B442C2203F8CC2CB7F8F6
:103B9000DE300133A7F8DE30B7F8DE3007F114026B
:103BA0001344184602F02AFFB7F8DE30A7F8DC30DD
:103BB00011E0B7F8DC30E0333B4413F8CC3C002B89
:103BC00004D1B7F8DC30A7F8DE3008E0B7F8DC3015
:103BD0000133A7F8DC30B7F8DC30C72BE9D9B7F8E8
:103BE000DE30E0333B442C2203F8CC2CB7F8DE3037
:103BF0000133A7F8DE30084B1B78DBB2022B0DD166
:103C0000B7F8DE3007F114021344184602F022FF21
:103C100012E100BFA4AE000862000020B7F8DE3059
:103C2000E0333B44562203F8CC2CB7F8DE300133A6
:103C3000A7F8DE30B7F8DE30E0333B443A2203F831
:103C4000CC2CB7F8DE300133A7F8DE30804B1B6890
:103C5000804A93421CD37E4B1B687F4AA2FB0323FE
:103C6000990D7E4BA3FB0123DA0813469B001344F6
:103C70005B00CA1AD2B2B7F8DE303032D2B2E033CB
:103C80003B4403F8CC2CB7F8DE300133A7F8DE3024
:103C90006F4B1B68724AA2FB0323990C6F4BA3FB6B
:103CA0000123DA0813469B0013445B00CA1AD2B200
:103CB000B7F8DE303032D2B2E0333B4403F8CC2CDC
:103CC000B7F8DE300133A7F8DE30B7F8DE30E03386
:103CD0003B442E2203F8CC2CB7F8DE300133A7F892
:103CE000DE305B4B1B685B095E4AA2FB0323D909EC
:103CF0005A4BA3FB0123DA0813469B0013445B00D5
:103D0000CA1AD2B2B7F8DE303032D2B2E0333B4416
:103D100003F8CC2CB7F8DE300133A7F8DE304C4B7B
:103D20001B68514AA2FB0323590B4C4BA3FB0123F5
:103D3000DA0813469B0013445B00CA1AD2B2B7F8E4
:103D4000DE303032D2B2E0333B4403F8CC2CB7F84B
:103D5000DE300133A7F8DE303D4B1B68434AA2FB3F
:103D6000032399093D4BA3FB0123DA0813469B006B
:103D700013445B00CA1AD2B2B7F8DE303032D2B286
:103D8000E0333B4403F8CC2CB7F8DE300133A7F81E
:103D9000DE302F4B1B68364AA2FB032359092F4BF9
:103DA000A3FB0123DA0813469B0013445B00CA1AE5
:103DB000D2B2B7F8DE303032D2B2E0333B4403F84F
:103DC000CC2CB7F8DE300133A7F8DE30204B1B686F
:103DD000224AA2FB0323D908204BA3FB0123DA08C4
:103DE00013469B0013445B00CA1AD2B2B7F8DE3008
:103DF0003032D2B2E0333B4403F8CC2CB7F8DE309B
:103E00000133A7F8DE30124B1968144BA3FB0123D2
:103E1000DA0813469B0013445B00CA1AD2B2B7F803
:103E2000DE303032D2B2E0333B4403F8CC2CB7F86A
:103E3000DE300133A7F8DE300E4B1A8807F1140389
:103E400001210120FFF732FD00BFE437BD4690BDE0
:103E50005C000020809698006BCA5F6BCDCCCCCC08
:103E600083DE1B43C55A7C0A5917B7D1D34D621064
:103E70001F85EB516000002090B583B002AF2C4B42
:103E80001A782C4B1B789A424DD02B4B1B88092B50
:103E900049D92A4B1B78002B45D106212848FFF72A
:103EA000BFF906212648FFF73BFA224B1B781A463A
:103EB0004FF4967302FB03F3224A13441C46224834
:103EC000FFF771FA034640220092224606211C4861
:103ED000FFF7EAF9174B1B781A461C4B33F81230E0
:103EE0001A4606211648FFF7BBF906211448FFF7CA
:103EF00077F91548FFF734FA104B01221A700D4B71
:103F00001B780133DAB20B4B1A700A4B1A78104B3C
:103F1000A3FB0213D9080B469B000B445B00D31A8A
:103F2000DAB2044B1A7000BF0437BD4690BD00BF23
:103F3000681700206717002064170020661700200C
:103F400000640240980B002000140140501700202C
:103F5000CDCCCCCC80B483B000AF0346FB710A4B10
:103F60001B781946094AFB795354074B1B780133D8
:103F7000DAB2054B1A70064B00221A6000BF0C37EC
:103F8000BD465DF8047B7047781800207817002044
:103F90007C18002080B400AF054B00221A70054B3E
:103FA00000221A8000BFBD465DF8047B704700BF49
:103FB000661700206417002080B500AF0C4B1B680B
:103FC00001330B4A13600B4B1B680133094A136022
:103FD000094B1B680133084A1360084B1B880133E7
:103FE0009AB2064B1A80FFF747FF00BF80BD00BFA3
:103FF0006C170020741700207C1800206417002024
:1040000080B584B000AF78607868FCF777FA034633
:10401000FB720023BB81FB7A062B24D9FB7A063B7B
:10402000FB731CE0FB7B7A6813441B782F2B13D99E
:10403000FB7B7A6813441B78392B0DD8BB891A4651
:10404000920013445B009BB2FA7B79680A441278B1
:1040500013449BB2303BBB81FB7B0133FB73FA7B88
:10406000FB7A9A42DED3BB89002B09D0064B1B8812
:10407000BA899A4204D0044ABB89138000F0E4F85C
:1040800000BF1037BD4680BD6000002080B590B0F5
:1040900000AF7860002387F83E3007F10C0332222E
:1040A00000211846FCF784FA0A2387F83F302DE0F8
:1040B00097F83F307A6813441B780D2B2AD997F86C
:1040C0003F307A6813441B78C82B23D897F83F30C9
:1040D0007A6813441B78242B13D097F83E30312B89
:1040E0000FD897F83F307A681A4497F83E30127824
:1040F00040333B4403F8342C97F83E30013387F8C3
:104100003E3097F83F30013387F83F3097F83F3023
:10411000632BCDD997F83E30052B1ED9002387F8A5
:104120003F3014E097F83F2097F83F3040323A4450
:1041300012F8341C0B4AD15497F83F300133094A26
:104140000021D15497F83F30013387F83F3097F87A
:104150003F30312BE6D900F077F800BF4037BD463D
:1041600080BD00BF5803002080B588B000AF3B463B
:104170001E2200211846FCF71BFA2F4B1B689AB22F
:104180002E4B1A802D4B1B88002B05D02B4B1B88E8
:1041900042F20F72934202D9284B01221A80002367
:1041A000FB7725E0FB7F06339B0003F1006303F5FB
:1041B000C0231A68FB7FD2B220333B4403F8202C83
:1041C000FB7F20333B4413F8203C0D2B06D9FB7FAB
:1041D00020333B4413F8203CC82B06D9FB7F203307
:1041E0003B44002203F8202C05E0FB7F0133FB77E2
:1041F000FB7F1D2BD6D93B780D2B14D93B78C72BD1
:1042000011D80023FB770AE0FA7FFB7F20323A4483
:1042100012F8201C0A4AD154FB7F0133FB77FB7F45
:104220001D2BF1D904E00749054806F035FA00BF17
:1042300000BF2037BD4680BD00000608600000209A
:1042400058030020BCAE00082DE9B04386B000AF93
:1042500000233B610023FB600023BB6000237B60E5
:10426000FDF7DEF907233B610123FB603E4B002293
:104270001A603D4B02221A613B4A3B6993603A4AFD
:10428000FB68D3603B1D19463748FDF7AFFA374B43
:104290001B68364A23F480631360344B1B68334A2F
:1042A00023F400731360314B1B68304A43F480538E
:1042B00013602E4B1B682D4A23F4805313602B4B45
:1042C0001B682A4A43F400631360284B1B68274A83
:1042D00023F400631360254B1B68244A43F40073E6
:1042E0001360224B1B68214A43F480631360204B08
:1042F000BB60204B1B889BB20022984691464246E9
:104300004B46B9680220FDF7CFF91B4B1B780D2BEC
:104310001ED9194B1B78C72B1AD80023FB7514E044
:10432000FB7D06339B001A46BB68D118FB7D124A01
:10433000D35CDBB200221C46154622462B460220E7
:10434000FDF7B2F9FB7D0133FB75FB7D1D2BE7D932
:10435000FDF778F94FF4FA60FDF71EFC00BF18373F
:10436000BD46BDE8B08300BF80180020003C02407D
:1043700000000608600000205803002090B5ADF54D
:104380001F7D00AF07F51E73A3F5A67318464FF403
:1043900096731A460021FCF70BF90023A7F8763232
:1043A0000023A7F87432002387F87332002387F8BC
:1043B00072320023A7F8703207F51E73A3F51E733F
:1043C00018464FF496731A460021FCF7F1F802F0F4
:1043D00079FB0346012B40F22984C14B1B78013342
:1043E0005A4203F0030302F0030258BF5342DAB209
:1043F000BB4B1A70BA4B1B781A46BA4B1344C7F81A
:104400006C32B74B1B789B00B74A1344C7F868322D
:10441000B34B1B789B00B54A1344C7F86432B04BCA
:104420001B789B00B24A1344C7F86032AC4B1B7830
:10443000033387F85F320023A7F87632002387F82A
:104440007332002387F872320023A7F87032D7F84E
:104450006C321B78002B63D1A14B1B781946A54AFF
:10446000C82301FB03F313441B78002B58D09C4B4B
:104470001B781A46A04B33F812304FF6FF72934266
:104480004ED197F85F329BB203F52A539AB297F850
:104490005F020023012102F01FFC034687F85E3211
:1044A00097F95E2297F85F329A4240F0C08302F09B
:1044B000FFFA0146914B1A8897F85F32184602F0CE
:1044C0008DFD034687F85E3297F95E32012B0CD1E1
:1044D000D7F86C3201221A70D7F8683200221A60BD
:1044E000D7F8603200221A60A1E3D7F86C32632259
:1044F0001A707B4B1B781A467F4B002123F8121051
:10450000774B1B7819467B4AC82301FB03F31344FE
:1045100000221A70724B1B78184600F02FFC86E3BD
:10452000D7F86C321B78012B3AD197F85F321846D6
:1045300002F0FAFD034687F85E3297F95E32012BEE
:1045400004D1D7F86C3202221A7070E397F95E3208
:10455000002B06DBD7F868321B68B3F57A7F40F290
:104560006683D7F86C3263221A70D7F86432644AD3
:104570001A605B4B1B781A465F4B002123F8121020
:10458000574B1B7819465B4AC82301FB03F31344BE
:1045900000221A70524B1B78184600F0EFFB46E3DE
:1045A000D7F86C321B78022B40F0918107F51E730F
:1045B000A3F5A6735B221A7007F51E73A3F5A67305
:1045C00050225A7007F51E73A3F5A67354229A70F1
:1045D00007F51E73A3F5A6734C22DA7007F51E7358
:1045E000A3F5A6735D221A71464B1B88464AA2FBAF
:1045F00003239B099AB2454BA3FB0213D9080B4630
:104600009B000B445B00D31A9BB2DBB23033DAB2AF
:1046100007F51E73A3F5A6735A713A4B1B883C4AE3
:10462000A2FB03235B099AB2384BA3FB0213D90800
:104630000B469B000B445B00D31A9BB2DBB23033BA
:10464000DAB207F51E73A3F5A6739A712D4B1B887A
:104650002E4AA2FB0323DB089AB22C4BA3FB0213C6
:10466000D9080B469B000B445B00D31A9BB2DBB20C
:104670003033DAB207F51E73A3F5A673DA71214B56
:104680001A88224BA3FB0213D9080B469B000B444C
:104690005B00D31A9BB2DBB23033DAB207F51E737C
:1046A000A3F5A6731A7207F51E73A3F5A6733B2232
:1046B0005A720A23A7F87632094B1A78B7F876327D
:1046C0003132D1B207F51E72A2F5A672D154B7F8F5
:1046D00076320133A7F876320023A7F8743244E02B
:1046E000C81800209418002098180020A81800204E
:1046F000B8180020C0030020E0060020640000205D
:104700003F420F0060000020D34D6210CDCCCCCCD6
:104710001F85EB51C34B1B781846B7F87432C2495A
:10472000C82200FB02F20A4413441B78202B21D933
:10473000BC4B1B781C46B7F87422B7F87632BA48DF
:10474000C82104FB01F101440A44117807F51E72E7
:10475000A2F5A672D154B7F876320133A7F87632B3
:10476000B7F874320133A7F87432B7F87432C72B34
:10477000D0D900E000BFB7F8763207F51E72A2F577
:10478000A6723B21D154B7F876320133A7F87632BE
:10479000B7F8763207F51E72A2F5A6725B21D154E6
:1047A000B7F876320133A7F87632B7F8763207F5E4
:1047B0001E72A2F5A6722521D154B7F876320133C4
:1047C000A7F87632B7F8763207F51E72A2F5A67210
:1047D0005021D154B7F876320133A7F87632B7F8C2
:1047E000763207F51E72A2F5A6725421D154B7F89D
:1047F00076320133A7F87632B7F8763207F51E72B3
:10480000A2F5A6724C21D154B7F876320133A7F83D
:104810007632B7F8763207F51E72A2F5A6725D21E0
:10482000D154B7F876320133A7F87632B7F876323A
:1048300007F51E72A2F5A6720D21D154B7F8763293
:104840000133A7F87632B7F8763207F51E72A2F573
:10485000A6720A21D154B7F876320133A7F876321E
:10486000B7F8762207F5967197F85F32184602F08E
:104870009DFCC7F85802D7F85832002B08DDD7F84E
:104880006C3203221A70D7F8683200221A60CEE127
:10489000D7F86C3263221A70D7F86432634A1A6010
:1048A000604B1B781A46624B002123F812105D4BB7
:1048B0001B7819465C4AC82301FB03F3134400220A
:1048C0001A70584B1B78184600F058FAAFE1D7F829
:1048D0006C321B78032B40F09A8197F85F321846B0
:1048E00002F004FE0346002B00F06B8107F5967181
:1048F00097F85F3240F22B12184602F043FDC7F8DA
:104900005802D7F858320A2B40F3368107F51E7348
:10491000A3F5A6731B785B2B40F02E8107F51E7361
:10492000A3F5A6735B78502B40F0268107F51E7324
:10493000A3F5A6739B78542B40F01E810023A7F8A3
:1049400076320023A7F874329DE0B7F8743207F589
:104950001E72A2F5A672D35C3B2B08D0B7F8743256
:1049600007F51E72A2F5A672D35C5B2B05D197F8F2
:104970007332013387F8733280E097F87332012B7A
:1049800025D1B7F8743207F51E72A2F5A672D35C72
:104990002F2B1CD9B7F8743207F51E72A2F5A67238
:1049A000D35C392B13D897F872321A46920013440D
:1049B0005B00DAB2B7F8743207F51E71A1F5A67183
:1049C000CB5C1344DBB2303B87F8723256E097F889
:1049D0007332022B2ED1B7F8743207F51E72A2F58E
:1049E000A672D35C2F2B25D9B7F8743207F51E7247
:1049F000A2F5A672D35C392B1CD8B7F870321A46D0
:104A0000920013445B009BB2B7F8742207F51E7145
:104A1000A1F5A6718A5C13449BB2303BA7F87032B3
:104A20002CE000BFC8180020C00300203F420F0048
:104A3000E006002097F87332032B1FD1B7F87432C9
:104A400007F51E72A2F5A672D35C0F2B16D9B7F824
:104A50007632C52B12D8B7F87422B7F8763207F53C
:104A60001E71A1F5A671895C07F51E72A2F51E7272
:104A7000D154B7F876320133A7F87632B7F87432EA
:104A80000133A7F87432B7F87432D7F858229A4233
:104A90003FF75BAF97F87232002B52D097F8723223
:104AA000042B4ED897F87232013B6349B7F8702255
:104AB00021F813200023A7F8743232E0B7F87432DB
:104AC00007F51E72A2F51E72D35C002B15D0B7F845
:104AD000741297F872325A1EB7F8743207F51E70C6
:104AE000A0F51E70445C55494FF4967000FB02F22D
:104AF0000A44134422461A700EE097F872325A1E86
:104B0000B7F874324D494FF4967000FB02F20A4434
:104B1000134400221A7009E0B7F874320133A7F881
:104B20007432B7F87432B3F5C87FC7D397F87232CE
:104B3000013B434AC82101FB03F3134400221A70CE
:104B400015E0404B1B781A463B4B002123F812100E
:104B50003C4B1B7819463A4AC82301FB03F3134424
:104B600000221A70374B1B78184600F06FF8D7F800
:104B70006C3263221A7019E0D7F86C3263221A7013
:104B8000304B1B781A462C4B002123F812102D4B6A
:104B90001B7819462A4AC82301FB03F31344002259
:104BA0001A70284B1B78184600F050F8D7F8683276
:104BB0001A68D7F864321A60D7F8683200221A608F
:104BC00035E0D7F868321B6840F6B83293422ED9E8
:104BD000D7F86C3263221A70D7F864321A4A1A6016
:104BE000184B1B781A46144B002123F81210154B52
:104BF0001B781946124AC82301FB03F31344002211
:104C00001A70104B1B78184600F0B8F80FE0D7F870
:104C10006C321B78632B0AD1D7F86C3200221A70E1
:104C200097F85F32184602F06BF900E000BF07F515
:104C30001F77BD4690BD00BFE0060020E8060020BB
:104C4000C0030020C81800203F420F0080B483B08A
:104C500000AF0346FB71FB79474A4FF4967101FBA5
:104C600003F3134445221A70FB79434A4FF49671BB
:104C700001FB03F31344013358221A70FB793E4AB7
:104C80004FF4967101FB03F31344023343221A706D
:104C9000FB79394A4FF4967101FB03F31344033354
:104CA00048221A70FB79344A4FF4967101FB03F3E2
:104CB0001344043341221A70FB792F4A4FF4967142
:104CC00001FB03F3134405334E221A70FB792A4A81
:104CD0004FF4967101FB03F31344063347221A7015
:104CE000FB79254A4FF4967101FB03F31344073314
:104CF00045221A70FB79204A4FF4967101FB03F3A9
:104D00001344083320221A70FB791B4A4FF4967122
:104D100001FB03F31344093345221A70FB79164A49
:104D20004FF4967101FB03F313440A3372221A7095
:104D3000FB79114A4FF4967101FB03F313440B33D3
:104D400072221A70FB790C4A4FF4967101FB03F33F
:104D500013440C3321221A70FB79074A4FF49671E1
:104D600001FB03F313440D3300221A7000BF0C370C
:104D7000BD465DF8047B7047E806002080B483B030
:104D800000AF0346FB71FB79474A4FF4967101FB74
:104D900003F313444E221A70FB79434A4FF4967181
:104DA00001FB03F31344013345221A70FB793E4A99
:104DB0004FF4967101FB03F31344023354221A702B
:104DC000FB79394A4FF4967101FB03F31344033323
:104DD00057221A70FB79344A4FF4967101FB03F3A2
:104DE000134404334F221A70FB792F4A4FF4967103
:104DF00001FB03F31344053352221A70FB792A4A4C
:104E00004FF4967101FB03F3134406334B221A70DF
:104E1000FB79254A4FF4967101FB03F313440733E2
:104E200020221A70FB79204A4FF4967101FB03F39C
:104E30001344083320221A70FB791B4A4FF49671F1
:104E400001FB03F31344093345221A70FB79164A18
:104E50004FF4967101FB03F313440A3372221A7064
:104E6000FB79114A4FF4967101FB03F313440B33A2
:104E700072221A70FB790C4A4FF4967101FB03F30E
:104E800013440C3321221A70FB79074A4FF49671B0
:104E900001FB03F313440D3300221A7000BF0C37DB
:104EA000BD465DF8047B7047E806002080B483B0FF
:104EB00000AF0023FB7112E0FB790E4A52F8232069
:104EC00001320C4941F82320FB790B4A52F8232088
:104ED0000132094941F82320FB790133FB71FB7949
:104EE000032BE9D900BF00BF0C37BD465DF8047B3A
:104EF000704700BF98180020B818002080B400AF99
:104F0000074B1B680133064A1360064B1B680133CD
:104F1000044A136000BFBD465DF8047B704700BFC4
:104F2000CC180020D018002090B58DB006AF0346F5
:104F30000A46FB711346BB71FB791B02A44A13445A
:104F40003B61FB791B02A24A1344FB60FB791B0205
:104F50009F4A1344B979F8790593092304930023F0
:104F600003930223029300230193062300938023DB
:104F7000002200F0C9FC0346FB72FB7A002B01D033
:104F8000002365E13B695B88B3F5807F03D94FF46B
:104F90008073FB8202E03B695B88FB82FB791B022A
:104FA0008B4A1344B979F8790593FB8A049300235B
:104FB000039302230293002301930623009380238B
:104FC000002200F0A1FC0346FB72FB7A002B01D00B
:104FD00000233DE13B695B79BB722EE13B695B7865
:104FE000042B08D03B691B781A46FB681344FB600E
:104FF000FB683B6121E13B695B79032B40F01B813E
:105000003B699B79012B40F016813B69DB79012BD1
:1050100040F01181F979BA796E481346DB001344E8
:105020005B00A22201FB02F213440344103301226D
:105030001A70F979BA7967481346DB0013445B00AC
:10504000A22201FB02F21344034402331B887B7249
:10505000FB79184600F004F9F979F879BA795D4CD2
:105060001346DB0013445B00A22200FB02F2134450
:10507000E018594A0B011344024603CB10605160FB
:10508000F979F879BA79534C1346DB0013445B0085
:10509000A22200FB02F21344234403F108004E4A0B
:1050A0000B0113440833024603CB10605160F979B9
:1050B000BA797B7A9CB247481346DB0013445B0005
:1050C000A22201FB02F213440344023322461A8057
:1050D000FB793A699178414A5B0013440A465A7059
:1050E000FB793E49BA7901F813203B691B781A46CF
:1050F000FB681344FB60FB683B6191E03B695B78B4
:10510000052B08D03B691B781A46FB681344FB60EB
:10511000FB683B6184E0F979BA793B699C782D485A
:105120001346DB0013445B00A22201FB02F213448E
:105130000344083322461A70F979BA793B69DC785E
:1051400024481346DB0013445B00A22201FB02F259
:1051500013440344093322461A70F979BA793B693A
:105160009C881C481346DB0013445B00A22201FB11
:1051700002F2134403440A3322461A80F979BA79B9
:105180003B699C7913481346DB0013445B00A22261
:1051900001FB02F2134403440C3322461A70B9791E
:1051A000F87900230593002304930023039300233D
:1051B0000293BB7A0193092300930023002200F09D
:1051C000A3FB0346FB72FB7A002B09D000233FE0D0
:1051D000D4180020141D0020D41C002068000020DA
:1051E000FB791D4A5B0013445B781A46B979F8795C
:1051F00000230593002304930392002302930023CA
:1052000001930B2300932123002200F07DFB034632
:10521000FB72FB7A002B01D0002319E0012317E079
:10522000FB791B020D4A1A44FB8A1344FA689A421E
:10523000FFF464AF01E000230AE0FB791B02074A98
:105240001A44FB8A1344FA689A42FFF4C7AE00235B
:1052500018461C37BD4690BD68000020D4180020B9
:1052600080B483B000AF0346FB71FB79094A1B0190
:1052700013440D3340221A70FB79064A1B01134474
:105280000E3310221A7000BF0C37BD465DF8047B48
:10529000704700BFD41C002090B587B002AF786083
:1052A0000B46FB70FB78174A12F81320FB78E021BD
:1052B000184600F0C9F8FB78124A12F81310FA7871
:1052C000FB78104810F813301C460F482346DB00CB
:1052D00023445B00A22404FB02F2134403440A3378
:1052E0001B88DBB2F87801937B68009308230122C6
:1052F00000F06CFC0346FB73FB7B18461437BD467D
:1053000090BD00BF68000020141D002080B483B051
:1053100000AF786039607B683A689A6100BF0C37EB
:10532000BD465DF8047B704780B483B000AF786001
:1053300039603B681A047B689A6100BF0C37BD4630
:105340005DF8047B7047000080B586B002AF03466D
:105350000A46FB711346BB71BB793B73FB79032B88
:105360000AD807F1080207F10C014FF47A73009391
:1053700001230448FBF7CAFC3B7A18461037BD46A8
:1053800080BD00BFFC02002080B584B000AF0346A2
:105390000A46FB711346BB710023FB730EE0FB7BD7
:1053A000134A52F82320FB7B124931F81330194677
:1053B0001046FFF7ABFFFB7B0133FB73FB7B032B3B
:1053C000EDD9BB79012B0ED1FB79032B0BD8FB79DF
:1053D000074A52F82320FB79064931F81330194661
:1053E0001046FFF7A1FF00BF1037BD4680BD00BFCC
:1053F000700000208000002080B582B000AF03461E
:10540000FB71FB790E4A52F82320FB790D4931F8E4
:10541000133019461046FFF779FF3220FCF73DFCA8
:10542000FB79074A52F82320FB79064931F81330FB
:1054300019461046FFF778FF00BF0837BD4680BD0C
:10544000880000209800002080B582B000AF03469D
:10545000FB710B46BB7113467B71FB79012118462A
:10546000FFF792FFBB790233DAB2FB791146184697
:10547000FFF76AFF7A79FB7911461846FFF764FF58
:10548000FB7900211846FFF77FFF00BF0837BD46B4
:1054900080BD80B582B000AF3B600346FB710B4618
:1054A000BB7113467B71FB7901211846FFF76CFF36
:1054B000BB790233DAB2FB7911461846FFF744FF95
:1054C0000CE03B681A78FB7911461846FFF73CFF61
:1054D0003B6801333B607B79013B7B717B79002B1F
:1054E000EFD1FB7900211846FFF74EFF3B681846C5
:1054F0000837BD4680BD80B584B000AF03460A467C
:10550000FB711346BB71FB7901211846FFF73CFF85
:10551000BA79FB7911461846FFF716FFFB7900218F
:105520001846FFF711FF0346FB73FB79002118466D
:10553000FFF72AFFFB7B18461037BD4680BD80B5BC
:1055400084B000AF3B600346FB710B46BB71134652
:105550007B71FB7901211846FFF716FFBA79FB79B9
:1055600011461846FFF7F0FE0FE0FB7900211846C0
:10557000FFF7EAFE0346FB733B68FA7B1A703B6851
:1055800001333B607B79013B7B717B79002BECD154
:10559000FB7900211846FFF7F7FE3B6818461037E5
:1055A000BD4680BD80B584B000AF0346FB710023CB
:1055B000FB73FB79202278211846FFF745FFFB7922
:1055C000002278211846FFF73FFF05E0FB7B0133FF
:1055D000FB73FB7B002B0AD0FB7968211846FFF791
:1055E0008AFF034603F00103002BEFD000E000BF69
:1055F00000BF1037BD4680BD80B584B000AF034604
:105600000A46FB711346BB71FB79A8211846FFF7C8
:1056100072FF0346FB73BB79002B04D0FB7B43F086
:105620000803FB7303E0FB7B23F00803FB73FA7BA7
:10563000FB79A8211846FFF707FFBB79002B02D0A2
:105640001E20FCF7A9FAFB79A8211846FFF753FFA3
:1056500003465BB2002B01DB002300E00123184668
:105660001037BD4680BD000080B584B000AF034652
:10567000FB71FB79F8211846FFF73DFF0346FB73EA
:10568000FB7B23F03F03FB73FB7BC02B4CD0C02B79
:1056900069DC802B06D0802B65DC002B49D0402BA9
:1056A00021D060E0FB79324AD35C132B58D0FB79D0
:1056B000D8211846FFF71FFF034603F00203002B13
:1056C00006D1FB79C922D8211846FFF7BDFE05E0B7
:1056D000FB79CB22D8211846FFF7B6FEFB79244A86
:1056E0001021D1543CE0FB79214AD35C132B39D0F3
:1056F000FB79D8211846FFF7FEFE034603F00203AC
:10570000002B06D1FB79CB22D8211846FFF79CFE4F
:1057100005E0FB79C922D8211846FFF795FEFB79F1
:10572000134A1021D1541DE0FB79114A0421D154B0
:1057300019E0FB790E4AD35C03F0F003002B04D090
:10574000FB790B4A0121D1540DE0FB79C922D82104
:105750001846FFF779FEFB79054A0321D15402E090
:1057600000BF00E000BF00BF1037BD4680BD00BFD6
:10577000C000002080B582B000AF0346FB71FB790A
:105780001A2288211846FFF75FFEFB791846FFF7BB
:1057900009FFFB7900211846FFF72EFFFB798022D5
:1057A000B8211846FFF750FEFB7901211846FFF794
:1057B00023FFFB79D122D8211846FFF745FEFB795C
:1057C0002022D0211846FFF73FFEFB790422E82172
:1057D0001846FFF739FEFB791846FFF745FFFB79BE
:1057E0002022C8211846FFF72FFEFB7901228021D5
:1057F0001846FFF729FE00BF0837BD4680BD0000F0
:1058000080B582B000AF0346FB71FB79074A52F8BE
:105810002320FB79064931F8133019461046FCF76E
:105820000DF9034618460837BD4680BDA00000208C
:10583000B000002080B582B000AF0346FB71FB7959
:105840001846FFF7DDFF0346002B03D1FB7918460E
:1058500000F004F800BF0837BD4680BD80B584B0B5
:1058600000AF0346FB710023FB73FB79C821184688
:10587000FFF741FE0346BB73BB7B03F02003002B05
:1058800007D0FB791846FFF7EFFEFB7B43F02003C0
:10589000FB73BB7B03F00103002B0AD0FB790A4AA0
:1058A000D25C0132D1B2084AD154FB7B43F00103F0
:1058B000FB73FA7BFB79C8211846FFF7C5FD00BFD3
:1058C0001037BD4680BD00BFC000002080B487B047
:1058D00000AFF8600B467A60FB7200237B6107E043
:1058E0007B69FA681344FA7A1A707B6901337B6129
:1058F0007A697B689A42F3DB00BF00BF1C37BD4664
:105900005DF8047B70470000B0B588B002AF044674
:10591000084611461A462346FB710346BB710B46E7
:105920007B7113463B710023FB750123BB75FB6B39
:10593000002B01D10023BB75BA79FB79E021184611
:10594000FFF782FD97F90430002B01DA0123FB7584
:105950003B793B7397F828307B7397F82C30BB73F7
:1059600097F83030FB73BB8E3B823B8F7B8207F115
:105970000C03F87908222021FFF78BFD7A79FB7957
:105980001021184600F0A2F803467B757B7D002BA2
:1059900001D07B7D10E0BB7D094A52F823403D8F4A
:1059A0007A79B979F879FB7D0193FB6B00932B46EB
:1059B000A04703467B757B7D18461837BD46B0BDB2
:1059C00050AF000890B587B002AF044608461146B4
:1059D0001A462346FB710346BB710B467B71134687
:1059E0007B8097F82430002B3ED0F979BA797B7907
:1059F000204CD8001346DB0013445B00C218A223DE
:105A000001FB03F313442344063320221A70F9796F
:105A1000BA797B79174CD8001346DB0013445B003E
:105A2000C218A22301FB03F31344234402331B884F
:105A3000DBB27C887A79B979F87901933B6A009373
:105A4000234600F0C3F80346FB73FB7B002B01D019
:105A5000FB7B0AE07A79FB79A021184600F036F842
:105A60000346FB73FB7B00E0FF2318461437BD465B
:105A700090BD00BF141D002090B585B000AF044656
:105A8000084611461A462346FB710346BB710B4676
:105A90007B7113467B8097F82430002B08D07A79ED
:105AA000FB79A021184600F011F80346FB7307E0CC
:105AB0007A79FB798021184600F008F80346FB73D9
:105AC000FB7B18461437BD4690BD000090B587B0EB
:105AD00000AF0346FB710B46BB7113467B71FC792B
