:020000040800F2
:1000000000000220ED100008390D00083D0D000829
:10001000410D0008450D0008490D000800000000D2
:100020000000000000000000000000004D0D00086E
:10003000510D0008000000003D110008550D00089A
:100040003D1100083D1100083D1100083D11000858
:100050003D1100083D1100083D1100083D11000848
:100060003D1100083D1100083D1100083D11000838
:100070003D1100083D1100083D1100083D11000828
:100080003D1100083D1100083D1100083D11000818
:100090003D1100083D1100083D1100083D11000808
:1000A0003D110008590D00083D1100083D110008E0
:1000B000710D00083D1100083D1100083D110008B8
:1000C0003D1100083D1100083D1100083D110008D8
:1000D0003D110008750D00083D1100083D11000894
:1000E0003D1100083D1100083D1100083D110008B8
:1000F0003D1100083D1100083D1100083D110008A8
:100100003D1100083D1100083D1100083D11000897
:100110003D1100083D1100083D1100083D11000887
:100120003D1100083D1100083D1100083D11000877
:100130003D1100083D1100083D1100083D11000867
:100140003D1100083D1100083D1100083D11000857
:10015000AD0D00083D1100083D1100083D110008DB
:100160003D1100083D1100083D1100083D11000837
:100170003D1100083D1100083D110008000000007D
:080180003D1100083D110008CB
:1001900010B5054C237833B9044B13B10448AFF3C1
:1001A00000800123237010BD8C000020000000009F
:1001B000E028000808B5034B1BB103490348AFF31F
:1001C000008008BD0000000090000020E02800082A
:1001D00001F0FF01102A2BDB10F0070F08D010F8F8
:1001E000013B013A8B422DD010F0070F42B3F6D1FC
:1001F000F0B441EA012141EA014122F007047FF015
:1002000000070023F0E80256083C85EA010586EA6B
:10021000010685FA47F5A3FA87F586FA47F6A5FAA7
:1002200087F68EB9EED1F0BC01F0FF0102F00702B3
:1002300032B110F8013B013A83EA010313B1F8D15E
:100240000020704701387047002D06BF354603383F
:10025000073815F0010F07D1013015F4807F02BF78
:10026000013015F4C03F0130F0BC0138704700BFC9
:1002700053B94AB9002908BF00281CBF4FF0FF310D
:100280004FF0FF3000F070B9ADF1080C6DE904CE0D
:1002900000F006F8DDF804E0DDE9022304B0704761
:1002A0002DE9F047089E0D4604460F46002B4AD123
:1002B0008A42944665D9B2FA82F343B102FA03FC4A
:1002C000C3F120029F4020FA02F217439C404FEAFC
:1002D0001C4E1FFA8CF5B7FBFEF1220C0EFB1177BA
:1002E00042EA074201FB05F090420AD91CEB0202E8
:1002F00001F1FF3780F01C81904240F219810239F0
:100300006244121AA4B2B2FBFEF00EFB102244EAC1
:10031000024400FB05F5A5420AD91CEB040400F1D8
:10032000FF3280F00781A54240F204816444023824
:1003300040EA0140641B00211EB1DC400023C6E9F5
:100340000043BDE8F0878B4208D9002E00F0ED8015
:100350000021C6E900050846BDE8F087B3FA83F13D
:10036000002949D1AB4202D3824200F2F880841ABC
:1003700065EB030201201746002EE2D0C6E90047D4
:10038000DFE702B9FFDEB2FA82F3002B40F0908083
:100390008A1A4FEA1C471FFA8CFE0121B2FBF7F5BF
:1003A00007FB1520220C42EA00420EFB05F09042AA
:1003B00008D91CEB020205F1FF3802D2904200F28C
:1003C000CB804546121AA4B2B2FBF7F007FB10220D
:1003D00044EA02440EFB00FEA64508D91CEB0404C7
:1003E00000F1FF3202D2A64500F2BB801046A4EB1A
:1003F0000E0440EA05409FE7C1F120078B4022FA36
:1004000007FC4CEA030C05FA01F420FA07F3FD405F
:100410004FEA1C492343B5FBF9F81FFA8CFE09FB90
:1004200018551C0C44EA054408FB0EF5A54202FAD7
:1004300001F200FA01F00BD91CEB040408F1FF3AB9
:1004400080F08880A54240F28580A8F102086444CB
:10045000641B9DB2B4FBF9F309FB134445EA044461
:1004600003FB0EFEA64508D91CEB040403F1FF357F
:100470006CD2A6456AD9023B644443EA0843A3FB15
:100480000295A4EB0E04AC42C846AE4656D353D0F8
:1004900056B1B0EB080264EB0E0404FA07F7CA4049
:1004A000CC401743C6E9007418460021BDE8F08728
:1004B000C3F1200102FA03FC20FA01F225FA01F14E
:1004C0009D402A434FEA1C471FFA8CFEB1FBF7F010
:1004D00007FB1015110C41EA054100FB0EF58D429A
:1004E00004FA03F408D91CEB010100F1FF382FD204
:1004F0008D422DD902386144491B92B2B1FBF7F508
:1005000007FB151142EA014205FB0EF1914208D9A1
:100510001CEB020205F1FF3816D2914214D9023DBC
:100520006244521A45EA004138E73146304608E74E
:100530003946E6E61046FBE64845A9D2B9EB020883
:1005400065EB0C0E013BA3E74546EAE72B4694E733
:100550004046D1E7D0467BE7023D624432E7084699
:100560000AE76444023842E7704700BF0B4B0C486F
:100570001A6B0C4910B442F480021A631B6B83B0EF
:1005800003F480030193019CC0680022102381F8CA
:1005900044238B6003B05DF8044B70470038024081
:1005A00000ED00E000E100E0F0B500248DB0CDE901
:1005B0000944454B0B9408941A6B444D444E42F049
:1005C00010021A631A6B02F010020592059A1A6B58
:1005D00042F004021A631A6B02F004020492049AB5
:1005E0001A6B42F080021A631A6B02F080020392C7
:1005F000039A1A6B42F001021A631A6B02F00102AD
:100600000292029A1A6B42F002021A631A6B02F00B
:1006100002020192019A1A6B42F008021A631B6BE4
:1006200003F0080300934FF07F414FF08053009A8E
:10063000A961FF22B36106A903232846CDE9062359
:1006400000F0B6FF06A943F6FF72032321480A947F
:10065000CDE9062300F0ACFF06A949F6FF120323FB
:100660001D480A94CDE9062300F0A2FF4EF2FF7266
:1006700006A903233046CDE9062303270A9400F098
:1006800097FF4FF47F4306A9284601250693CDE93D
:1006900009450795089700F08BFF06A94FF4805392
:1006A00030460693CDE909450897079500F080FF8D
:1006B0004FF6FF72032306A908480A94CDE90623E2
:1006C00000F076FF0DB0F0BD00380240001002408F
:1006D000000402400008024000000240000C0240FA
:1006E0002A4A08B5136823F0070343F00503136093
:1006F000136803F00703052BFAD12549254A0B6837
:1007000043F480430B60136843F480331360136831
:100710009903FCD550682049204B01400B4353609E
:1007200053681C4923F440335360136843F08073CB
:1007300013600B689A01FCD5154A53685B04FCD51D
:10074000144A936823F0F0039360936823F4E05312
:1007500043F4A0539360936823F4604343F400434D
:100760009360936823F0030343F00203936093685C
:1007700003F00C03082BFAD1094801F0D9F90F2036
:1007800000F08EFA08B172B6FEE708BD003C0240E8
:1007900000700040003802400080BFFF042A400083
:1007A000007A030A30B5492083B001F06FFBE024E2
:1007B0001D20CDE900042023012203211C4801F063
:1007C0009FFA0094012340F233121F210D2001F003
:1007D000E7FA0094282303223C21312001F0E0FABB
:1007E000142500940123F0225021322001F0D8FA80
:1007F0002823032278213120009501F0D1FA032427
:100800000123F0228C210095322001F0C9FA224602
:100810002823B4213120009401F0C2FA009401236E
:10082000F022C821322001F0BBFA03B030BD00BF76
:10083000787900082DE9F0410026A8B005460C465D
:100840009222314603A8029601F0C6FB2B492A46A4
:1008500002A801F0A1FB49221E23009201214FF4BE
:100860008772322001F09CFAFF2300932448012371
:10087000322202A901F014FA8CB323787BB3B0467C
:100880003046204D204F95260AE0A0306844C90923
:1008900000F8983C14F8013F06FB1122D0B2EBB1EE
:1008A000421CD2B22C2BA5FB02C1EED10028ECD009
:1008B000FF230093C822434602A9384601F0F0F90D
:1008C0009622002102A801F087FB14F8013F08F1ED
:1008D0000A081FFA88F80020002BE1D110B928B0CF
:1008E000BDE8F081FF230093C822434602A90648D1
:1008F00001F0D6F928B0BDE8F08100BFF828000863
:1009000024000020EF61EBDB0C00002070B586B006
:100910000023CDE9033304461646ADF8143061B91F
:100920005823012C8DF80C304FF0160211D0022CF8
:1009300012D0032C21D006B070BD0D462A461049B6
:1009400003A801F029FB092D8CBF05221622012CDA
:10095000EDD15425412301E090257D23FF2403A9F7
:100960000094084801F09CF900942B463A22314645
:10097000054801F095F906B070BDCC25B923EDE727
:10098000F8280008240000200C0000202DE98048F1
:10099000C3B000F0D5FBFFF7A3FEFFF705FEFFF79E
:1009A000E5FD00F031FA00F0BFFA00F043FB01F082
:1009B00017FAFFF7F7FEA24A02F10C0353E8003FD3
:1009C00043F0200302F10C0141E80037002FF3D17E
:1009D000DFF87C929B4D0DF108080021FC2203A852
:1009E000C8F8007001F0F8FA99F80010052940F2F3
:1009F000E080954B1B68032BEFD94FF0000C644649
:100A0000E24666464FF0010E6246AB5C3B2B00F0BF
:100A1000C680A3F10A00C0B2D12825D80EF1FF305C
:100A2000032800F2C080DFE800F09B7C5E02501CCF
:100A30005FFA80FE0EF1FF3EAE44C2B20CF1010B34
:100A4000914208F80C305FFA8BFC0DD91EF8013F7B
:100A5000A3F10A0B3B2B02F101005FFA8BFB00F0C4
:100A6000B880BBF1D10FE8D94FF0FF0B5A460021F7
:100A7000284601F0B1FA012E89F8007000F0C98013
:100A8000022E40F0CF80631E022BA6D8C4EB0414C4
:100A9000A400A4B24FF0490AA61D2146B6B2CDF873
:100AA00000A028233022002001F07AF93146CDF849
:100AB00000A00B234FF482723A2001F071F904F187
:100AC000180189B2CDF800A00E234FF482723A20AB
:100AD00001F066F9CDF800B033463A2241465B4852
:100AE00001F0DEF879E7501C5FFA80FE0EF1FF3E60
:100AF000AE4404EB840403EB4404C2B2303C9142A4
:100B000004F0FF04B0D91EF8013FA3F10A0B3B2B00
:100B100002F101005FFA8BFB6BD0BBF1D10FE8D97A
:100B2000A2E7501C5FFA80FE0EF1FF3EAE440AEBD6
:100B30008A0A03EB4A0AC2B2AAF1300A91421FFAAA
:100B40008AFA91D91EF8013FA3F10A0B3B2B02F15F
:100B500001005FFA8BFB54D0BBF1D10FE7D983E7DB
:100B6000501C5FFA80FE0EF1FF3EAE4406EB860697
:100B700003EB4606C2B2303E914206F0FF067FF616
:100B800073AF1EF8013FA3F10A0B3B2B02F10100EA
:100B90005FFA8BFB25D0BBF1D10FE7D964E70EF1EB
:100BA000010E5FFA8EFE0132D2B291423FF62DAFB6
:100BB0005AE700293FF411AF234B1B68032B7FF644
:100BC0000CAFFF220021284601F006FA89F80070D8
:100BD00003E70132D2B291424FF0050E3FF615AF56
:100BE00042E70132D2B291424FF0020E3FF60DAF12
:100BF0003AE70132D2B291424FF0040E3FF605AF10
:100C000032E70132D2B291424FF0030E3FF6FDAE11
:100C10002AE7BAF1000F3FF4E0AE41465046FFF735
:100C200009FEDAE6032E7FF4D8AE631E022B3FF6F0
:100C3000D4AE424651462046FFF768FECDE600BFDF
:100C400000100140A8000020AC0100200C00002092
:100C5000A9010020034B02689A4200D0704700F0BF
:100C600089BA00BF0044014082B00C4B00210091C2
:100C70005A6C42F480425A645A6C02F480420092E8
:100C8000009A01911A6C42F080521A641B6C03F0B6
:100C900080530193019B02B0704700BF00380240AF
:100CA00070B588B000251F4B02955A6C1E4C42F45B
:100CB00000325A645B6C03F4003301A902930646C8
:100CC00003A8029B00F0D0FA00F0BEFA174A226097
:100CD00040F2E732E260164A25614300A2FB03239B
:100CE0009B0C013B2046C4E90135A56100F0E0FA08
:100CF000054610B1284608B070BD204600F066FBDE
:100D000005460028F6D1192000F090FA0F2E01D9DF
:100D10000125EFE72A463146192000F049FA054B34
:100D20001E60E7E700380240B001002000440140A7
:100D300083DE1B4308000020FEE700BFFEE700BF84
:100D4000FEE700BFFEE700BFFEE700BF704700BF41
:100D5000704700BF704700BF034A0448136801335F
:100D6000136000F077BB00BFAC010020B001002091
:100D700001F0B0B8094B1A6892060DD510B4084AB4
:100D8000084811780024046007485C6844544B1CF0
:100D900013705DF8044B7047704700BF00100140AE
:100DA000A9010020AC010020A800002001F0DCB85F
:100DB0000C490D4A0B6810B50C4C121B2BB1184492
:100DC000904207D80860184610BD094B0B601844C4
:100DD0009042F7D901F008F90C2303604FF0FF337C
:100DE000184610BDF801002000000220004000005D
:100DF00048300120034AD2F8883043F47003C2F827
:100E00008830704700ED00E010B586B00021414AFF
:100E1000ADF80610506C404B404C40F0010050645F
:100E2000526C3F4802F001020092009AD3F88820E9
:100E300022F0606242F04062C3F88820D3F8882034
:100E400022F0C00242F04002C3F88820D3F8882084
:100E500042F44032C3F88820D3F8882022F49072FC
:100E6000C3F88820D3F8882022F40072C3F88820C1
:100E7000D3F8882042F48062C3F88820D3F8882011
:100E800022F4C052C3F88820D3F8882022F4C0424C
:100E9000C3F88820D3F89C2022F00402C3F89C20D9
:100EA000C368C3F30223C3F10702181D042A28BF35
:100EB0000422062888BFD91E4FF0FF339340DB433E
:100EC0008B40184A1B01DBB24FF0007182F81933D6
:100ED0002046002311600D2201A9CDE90232ADF8B0
:100EE0000430CDE9043300F051FC236823F0800383
:100EF0002360A36823F4804323F00703A36063689F
:100F000023F070036360A36823F08003A36006B03E
:100F100010BD00BF003802400064024000000140E4
:100F200000ED00E000E100E0F0B5002497B02146BC
:100F300020220EA8CDE90344CDE90544079401F031
:100F40004BF8CDE90844CDE90A44CDE90C44354ECF
:100F5000354A336C43F001033364336C03F001030F
:100F60000293029B314B4FF08045DB6882F81C43B3
:100F70004FF08053136003A940F66C232846059375
:100F8000ADF80C400494069400F000FC2B6823F0AC
:100F900080032B60EB6943F00803EB6160230227B9
:100FA0000E930EAA4FF4CA734FF480712846119322
:100FB000CDE90F44129700F045FCEB6923F00403E0
:100FC000EB61EB6943F40063EB610EAA4FF4A0738D
:100FD0004FF480512846119300F034FCEB6923F460
:100FE0008063EB616B6823F070036B60AB6823F088
:100FF0008003AB60336B3B433363336B0B943B40F9
:1010000001200121CDE90C0101934FF4006203237B
:1010100008A907480892CDE90973019A00F0C8FAB7
:1010200017B0F0BD0038024000E100E000ED00E044
:101030000004024030B5002491B0CDE90844CDE968
:101040000A44CDE90C44CDE90544234B0E945A6C77
:101050002248234D42F010025A645A6C02F01002EA
:101060000192019A1A6B42F001021A631B6B03F0A2
:10107000010300934FF4C0620223CDE9022303234E
:1010800002A904930723009A079300F091FA154BE5
:1010900015492022C96883F825435A604FF4165336
:1010A0000DEB020108930C2200232846CDE90C2306
:1010B000CDE909440B940E9400F0AEFC2B6923F4A7
:1010C00090432B616B6923F02A036B61EB6843F457
:1010D0000053EB6011B030BD003802400000024008
:1010E0000010014000E100E000ED00E0DFF834D046
:1010F0000D480E490E4A002302E0D458C450043370
:10110000C4188C42F9D30B4A0B4C002301E0136046
:101110000432A242FBD3FFF76DFE00F06BFFFFF736
:1011200035FC704700000220000000208C000020E9
:10113000307A00088C00002044300120FEE70000D7
:1011400008B50B4B1A6842F400721A601A6842F430
:1011500080621A601A6842F480721A60032000F0FC
:1011600015F80F20FFF79CFDFFF77EFD002008BD5E
:10117000003C0240034A044B11681B780B44136087
:10118000704700BFFC010020040000200749CA6826
:1011900003024FF6FF0003F4E0630240134343F001
:1011A000BF6343F40033CB60704700BF00ED00E045
:1011B0001C4BDB68C3F3022300B5C3F1070EBEF17D
:1011C000040F03F1040C28BF4FF0040EBCF1060F0E
:1011D0001BD9033B4FF0FF3C0CFA03FC22EA0C0244
:1011E0004FF0FF3C0CFA0EFC21EA0C01994000285C
:1011F00041EA02010CDB00F16040090100F56140A9
:10120000C9B280F800135DF804FB00221346E7E73B
:10121000054B00F00F0009010344C9B219765DF8CF
:1012200004FB00BF00ED00E0FCEC00E0002807DB61
:101230004109044A00F01F000123834042F8213095
:10124000704700BF00E100E0044B05499B68054A78
:101250000868C3F34233D35CD8407047003802407B
:10126000000000200C2900080E4B0F2202609A6833
:1012700002F0030242609A6802F0F00282609A680B
:1012800002F4E052C2609B68DB0810B403F4E05340
:10129000054C036123685DF8044B03F007030B6002
:1012A000704700BF00380240003C0240704700BF5A
:1012B000002800F0878010B590F83D30044603F018
:1012C000FF02002B79D022683F49022384F83D3089
:1012D0008A4213685DD0B2F1804F31D0A1F57C41D4
:1012E0008A422DD001F580618A4229D001F58061C2
:1012F0008A4225D001F578418A424AD001F57051E1
:101300008A4221D001F580618A421DD001F58061B9
:101310008A4219D0A1F598318A4215D001F5806131
:101320008A4211D001F580618A420DD0A069E1683E
:1013300023F08003034313606368D162936210E07B
:10134000A16823F070030B432069A16923F4407363
:10135000034323F08003E0680B4361681360D062AD
:1013600091620123536184F8463084F83E3084F85A
:101370003F3084F8403084F8413084F8423084F8BB
:10138000433084F8443084F8453084F83D30002000
:1013900010BDA068216923F07003034323F4407358
:1013A0000B43A16923F080030B431360E368D3620E
:1013B0006368936263691363D3E780F83C20FFF7A7
:1013C00075FF80E7012070470000014090F83D3034
:1013D000012B2FD103681949022280F83D20DA68D9
:1013E0008B4242F00102DA6019D0B3F1804F16D07F
:1013F000134A934213D002F5806293420FD002F554
:10140000806293420BD002F57842934207D002F5F6
:101410007052934203D0A2F59432934204D19A6859
:1014200002F00702062A07D01A6842F001020020E3
:101430001A6070470120704700207047000001408B
:1014400000040040704700BF704700BF704700BFF6
:10145000704700BF03681A69910710B5044602D5AA
:10146000DA6892075FD41A69500702D5DA68510723
:1014700046D41A69120702D5DA6810072ED41A6901
:10148000D20602D5DA68D00618D41A69D10702D577
:10149000DA68D2075DD41A69100602D5DA68110637
:1014A0005FD41A69520602D5DA68500661D41A6907
:1014B000910602D5DA68920643D410BD6FF0100190
:1014C000082219612277DB6913F4407F204664D03B
:1014D000FFF7BAFF002223682277D6E76FF00801F2
:1014E000042219612277DB699907204652D1FFF760
:1014F000A9FF2046FFF7AAFF002223682277BEE754
:101500006FF004010222196122779B6913F4407F76
:1015100020463CD1FFF796FF2046FFF797FF0022B9
:1015200023682277A5E76FF0020101221961027793
:101530009B699B0725D0FFF787FF0022236822774E
:1015400091E76FF0200220461A61BDE8104000F0DC
:101550002BB86FF001021A612046FFF77BFB23686E
:1015600099E76FF080021A61204600F01FF82368A7
:1015700097E76FF040021A612046FFF769FF236882
:1015800095E7FFF75FFF2046FFF760FFD5E7FFF71E
:101590005BFFC4E7FFF758FFAEE7FFF753FF2046B6
:1015A000FFF754FF96E700BF704700BF704700BFCA
:1015B0002DE9F0470C6894FAA4F2B2FA82F234FAF8
:1015C00002F37DD04FF0010E4FF0030C4FF00F0AE5
:1015D00017E0D0F8008093FAA3F7B7FA87F793FAE9
:1015E000A3F3B3FA83F37F000CFA07F75B0028EA52
:1015F00007089D4048EA05050560013234FA02F308
:101600005ED00EFA02F32340F7D04D686F1E012F13
:101610001FD8D0F8088093FAA3F7B7FA87F793FAA0
:10162000A3F98E68B9FA89F97F000CFA07F74FEA37
:10163000490928EA070706FA09F847EA0807876010
:101640004768CE6827EA030706FB03F847EA08075E
:101650004760D0F80C8093FAA3F7B7FA87F793FAAC
:10166000A3F97F000CFA07F728EA0708B9FA89F905
:101670000F694FEA490907FA09F948EA0907022DF3
:10168000C760A6D193FAA3F7B7FA87F7072F1ADC3A
:10169000D0F8208093FAA3F7B7FA87F793FAA3F963
:1016A0004E69B9FA89F9BF000AFA07F74FEA8909C2
:1016B00028EA070706FA09F847EA0807076288E7F1
:1016C0000020BDE8F087D0F824901F0A97FAA7F809
:1016D000B8FA88F897FAA7F74E69B7FA87F74FEA8A
:1016E00088080AFA08F8BF0029EA080906FA07F785
:1016F00049EA070747626CE71F4A936803F00C0347
:10170000042B10B435D0082B31D151681B4C1C4B25
:1017100011F4800F516818BF234601F03F01B3FB5D
:10172000F1F351685268C2F30142C1F388110132EA
:1017300001FB03F35200B3FBF2F30F4A036091681D
:10174000104CC1F30311615C0F4CCB4043609168B6
:10175000C1F38221615C23FA01F181609268C2F3D6
:101760004232A25C5DF8044BD340C3607047044B27
:10177000E3E7024BE1E700BF0038024000127A00C5
:101780000024F400FC2800080C2900082C4A0368F7
:10179000904230B444D0B0F1804F33D0A2F57C42B7
:1017A00090422FD002F5806290422BD002F58062E9
:1017B000904227D002F57842904231D002F5705223
:1017C000904223D002F5806290421FD002F58062E1
:1017D00090421BD0A2F59832904217D002F5806259
:1017E000904213D002F5806290420FD08C680A8834
:1017F0000360C4628262436943F00103436130BC09
:10180000002070474A6823F070031343CD688C684A
:101810000A8823F440732B430360C4628262EAE7C0
:101820004C68CA6823F07003234323F440731343C6
:1018300003608A680B88C26283620B690363DAE71C
:1018400000000140B1F5807F30B403467AD02AD839
:10185000012955D0102950D1016A156921F01001D4
:101860000162016A40689C6921F0200141EA05118A
:10187000156824F4E64444EA0524556821F0100173
:1018800041EA0511634DAB4200F0A98005F5806582
:10189000AB4200F0A480D26858609C6100209A633B
:1018A00030BC19627047B1F5805F26D1016A1569B5
:1018B00021F480510162016A4068DC6921F4005121
:1018C00041EA0531156824F4E64444EA05245568E4
:1018D00021F4805141EA05314E4DAB4200F0948035
:1018E00005F58065AB4200F08F80D2685860DC61FE
:1018F00000201A6430BC19627047012030BC704768
:10190000016A156921F001010162016A40689C6960
:1019100021F002012943156824F073042C43556813
:1019200021F0010129433B4DAB4244D005F58065D0
:10193000AB4240D0D26858609C6100205A6330BCF2
:1019400019627047016A156921F480710162016AA8
:101950004068DC6921F4007141EA0521156824F032
:1019600073042C43556821F4807141EA0521294D07
:10197000AB420BD005F58065AB4207D0D26858600A
:10198000DC610020DA6330BC19627047556921F4CC
:10199000006141EA8521956920F4805040EA0510F4
:1019A000956821F4806141EA8521D56920F40050D1
:1019B00040EA4510E2E7556921F0080141EA850156
:1019C000956920F480702843956821F0040141EA6C
:1019D0008501D56920F4007040EA4500AAE7556901
:1019E00021F0800141EA8511956920F4806040EA88
:1019F0008500956821F0400141EA8511D56920F400
:101A0000006040EAC50046E7956920F4804040EA5E
:101A100085106AE700000140C3689B0401D50120DE
:101A2000704730B54B68C2680D46C9680B432969D9
:101A30000B43A96922F4164222F00C020B43134314
:101A4000C3600369AA6823F44053134303614369E5
:101A50006A6923F44073134385B0436104466846C2
:101A6000FFF74AFE2E4B9C4218D02E4B9C420ED0C4
:101A70002D4B9C420BD003F54C439C420ED0A3F55A
:101A800048439C4203D003F580639C4203D10299F2
:101A900009B12B6823B9012005B030BD0399F7E7E0
:101AA000AA69B2F5004F18D019209A00A1FB0001D5
:101AB0009B0FFEF7DDFB1D49A1FB00325209642399
:101AC00003FB12031B013233A1FB0313120102EBD0
:101AD00053139BB2A3600020DEE70025DA184FF015
:101AE000190045EB0503A1FB0001FEF7C1FB0F4AFE
:101AF00003462846A2FB03514909642505FB11331F
:101B0000DB003233A2FB0323C3F342121B0902EBB7
:101B1000011203F4F87313449BB2A360BCE700BF47
:101B20000010014000440040004800401F85EB5178
:101B3000014B1860704700BF000000202DE9F04FF6
:101B400087B0FE29BDF840B002921D4663D8524BC3
:101B5000002203E001325E2A00F09B8033F8024B42
:101B60008C42F7D14168438A0193036831F822908F
:101B700001EB820000274688019A002A43D009F031
:101B800007020392B9F1000F3DD0002F58D1B8469B
:101B90000724EA1B0492029ACDF8149009EB020A7A
:101BA0001FFA8AFA9946049B029D08EB0307BFB20D
:101BB00004E00135ADB2AA459CB216D019F8063042
:101BC000234113F0010F28465FFA8BF2394601D00A
:101BD00000F070F9631E002CEBD10135ADB2013677
:101BE000AA45B6B24FF00704E8D1039B13B1013602
:101BF000B6B2072408F101031FFA83F8019B43459D
:101C0000D1D8DDF81490029B013309EB030080B2B8
:101C100007B0BDE8F08F214A002302E001334A2BD0
:101C200037D032F8024B8C42F8D1C268418A019118
:101C300002EB830132F823904E888368878A9BE702
:101C40000198B84228BF38468446039807244FF0CD
:101C50000008002206E001328EB291B249454FF0F1
:101C6000070408D2711C002CF5D0013291B2013C5E
:101C70004945A4B2F6D310B10136B6B2072408F133
:101C800001081FFA88F8E045E3D3019A424580D85D
:101C9000B9E74FF00009B6E728780008E4780008B3
:101CA0002DE9E0410D4683B00978BDF8207011B3ED
:101CB000064698460FE0022B03D86B78013543EABD
:101CC0000121434600973046FFF738FF2B46024676
:101CD0005978013579B101F130032029DBB289B29D
:101CE000E9D1318A2B4602EB51025978013A92B27E
:101CF00001350029EFD1104603B0BDE8E08100BFF7
:101D00002DE9F04F85B09346BDF83840BDF83C2032
:101D100003938946002C35D003F0070100918BB363
:101D20005C445FFA82FA4B44A1B202935346804668
:101D3000DA460191072500269B46BDF808704C46FF
:101D400004E00134A4B2BC429DB20FD018F80630B2
:101D50002B41DB071ED46B1E002DF2D10134A4B23F
:101D60000136BC42B6B24FF00705EFD1009B13B16C
:101D70000136B6B20725019B0AF101011FFA81FA6B
:101D80005345DAD1039B013309EB030080B205B060
:101D9000BDE8F08F20465A46514600F08BF8DAE74E
:101DA0002DE9F843BDF82080BAB1B3B102440B4429
:101DB00005460F461FFA82F95FFA88F89EB23C4644
:101DC0002146013442462846A4B200F073F8A642E8
:101DD000F6D10135ADB24D45F1D1BDE8F88300BF74
:101DE00070B5244D244C00264FF4963231462846D7
:101DF0002680656000F0F0F8204B214A5E614FF4C8
:101E0000805103F5A8439161D3F888201D4942F021
:101E10001002C3F88820C3F89450C3F89010D3F888
:101E20008C201949120C120442F4A07242F00102F3
:101E3000C3F88C20D3F88820C868A26040F4807072
:101E40004FF08042C860106A40F488501062D06839
:101E500040F00800D060106840F0010010600A688F
:101E600042F001020A60D3F8882042F00102C3F870
:101E7000882070BD0C0200200002002000100240EB
:101E800000040240151002400000014070B5074CEC
:101E9000074E054620464FF4A072294604F241142D
:101EA00000F09AF8A642F5D170BD00BF0C020020E8
:101EB000FC2E0120B0F5A07F28BF0020EF2904D818
:101EC00001EB810301EB83110844014B1A54704765
:101ED0000C0200201F4A4FF080436FF00801196187
:101EE00011884B1C9BB2B3F5037F138008D91A4BA2
:101EF000536000211180194B4FF080529A61704756
:101F0000012BF8D9022B1ED02339B1F5EF7F1FD852
:101F10001349906830B4C1F888005468114DC1F875
:101F20009440286840F001002860D1F88800DB0761
:101F300048BF04F2411440F00100C1F8880048BFD6
:101F4000546030BC7047054B4FF480529A61704723
:101F5000704700BF000200200C0200200004024075
:101F60000064024000000140084909484FF4006342
:101F700010B4CB600368074C002223F00103036018
:101F8000C1F8882062615DF8044B7047006402402C
:101F900000000140001002400EB400B59CB01DAB23
:101FA000029006906FF00041094807910491094999
:101FB00053F8042B05910068019302A900F09AF8E8
:101FC000029B00221A701CB05DF804EB03B070474E
:101FD000880000200802FFFF02440346934200D11C
:101FE000704703F8011BF9E7014B1868704700BF01
:101FF0008800002070B50D4D0D4C641BA410002608
:10200000A64209D10B4D0C4C00F06AFC641BA410D5
:102010000026A64205D170BD55F8043B984701360D
:10202000EEE755F8043B98470136F2E7287A0008B6
:10203000287A0008287A00082C7A00087047704730
:102040002DE9F0478E681F46BE420B6882460C465B
:1020500090462CD88A8912F4906F26D06569096958
:1020600005EB4505A3EB010905EBD5757B1C4B443E
:102070006D109D4238BF1D46530527D5294600F0F7
:1020800057F9064660B321694A4600F0C7FBA389A9
:1020900023F4906343F08003A381266165614E447D
:1020A000A5EB09052660A5603E46BE4200D93E4626
:1020B00020683246414600F086FBA3689B1BA36064
:1020C0002368334423600020BDE8F0872A4600F0EF
:1020D0004BFB06460028E0D12169504600F0ACFBDE
:1020E0000C23CAF80030A38943F04003A3814FF0CA
:1020F000FF30E9E72DE9F04F98468B891B069DB02C
:1021000007460D4614460ED50B6963B9402100F011
:102110000FF92860286120B90C233B604FF0FF3095
:10212000D0E040236B610023099320238DF82930F0
:10213000CDF80C803023DFF8A4818DF82A304FF0E1
:10214000010923469A4613F8012B0AB1252AF9D131
:10215000BAEB040B0BD05B46224629463846FFF704
:102160006FFF013000F0A980099A5A4409929AF849
:102170000030002B00F0A18000234FF0FF32CDE9AA
:1021800005230AF1010A049307938DF853301A933B
:102190005446052214F8011B5048FEF719F8049A1A
:1021A000D8B9D00644BF20238DF85330110744BF5F
:1021B0002B238DF853309AF800302A2B15D0079A2C
:1021C000544600204FF00A0C214611F8013B303BE9
:1021D000092B4DD9B0B1079214E0A0EB080309FA1E
:1021E00003F313430493A246D2E7039B191D1B6814
:1021F0000391002BBBBF5B4242F00202079307939F
:10220000B8BF049223782E2B0CD163782A2B34D1BB
:10221000039B1A1D1B680392002BB8BF4FF0FF33BE
:1022200002340593DFF8C4A0217803225046FDF75D
:10223000CFFF38B1049BA0EB0A0040228240134339
:102240000134049314F8011B25488DF82810062248
:10225000FDF7BEFF002838D0224B1BBB039B073382
:1022600023F0070308330393099B3344099368E77A
:102270000CFB02320C460120A6E700230134059333
:1022800019464FF00A0C204610F8012B303A092A63
:1022900003D9002BC6D00591C4E70CFB01210446ED
:1022A0000123F0E703AB00932A460F4B04A93846FD
:1022B000AFF30080421C0646D6D1AB895B063FF5E2
:1022C0002DAF09981DB0BDE8F08F03AB00932A46EF
:1022D000054B04A9384600F019F9EBE7EC79000842
:1022E000F67900080000000041200008F27900089B
:1022F00070B50E4E0C463168054611B900F07EFAF5
:1023000030602146284600F079FA431C0AD0C41CEC
:1023100024F00304A04207D0211A284600F06EFAE8
:10232000013001D14FF0FF34204670BD3C30012018
:102330002DE9F843CD1C25F0030508350C2D38BFD9
:102340000C25002D074601DBA94205D90C233B6073
:1023500000263046BDE8F883DFF8D08000F0F8F9B9
:10236000D8F800301C465CBB29463846FFF7C0FF52
:10237000431C044655D1D8F800402646002E45D1CE
:10238000002C48D023683146384604EB030900F09E
:1023900035FA81453FD121686D1A29463846FFF745
:1023A000A7FF013037D023682B442360D8F80030D2
:1023B000002B38D05A68A2422BD100225A600FE07D
:1023C0002268521B1FD40B2A17D96119A34225601A
:1023D00018BF5960636808BFC8F8001062514B60AD
:1023E000384604F10B0600F0B9F926F00706231D64
:1023F000F21AAED09B1BA350ABE7A3426268DDD1BB
:10240000C8F80020ECE723466468ACE734467668F9
:10241000B4E71346CCE70C233B60384600F09EF946
:1024200097E72560DCE75B60FFDE00BF3830012006
:102430002DE9F047164699468A680B69DDF8208039
:102440009342B8BF1346336091F8432007460C46C9
:102450000AB1013333602368990642BF33680233FF
:102460003360256815F0060506D104F1190AE36802
:1024700032689B1AAB4226DC94F84320131E226874
:1024800018BF012392062BD404F143024946384673
:10249000C04701301ED02368226903F00603042BD5
:1024A00002BFE5683368ED1AA3680CBF25EAE5753D
:1024B00000259342C4BF9B1AED1800261A34B5427A
:1024C0001AD1002008E00123524649463846C04749
:1024D000013003D14FF0FF30BDE8F0870135C6E78A
:1024E000E1185A1C302081F84300224494F845102A
:1024F00082F843100233C7E7012322464946384693
:10250000C0470130E6D00136D9E700002DE9FF478A
:102510000F7E0C9D782F914680460C469A4601F11D
:10252000430207D8622F0AD8002F00F0D480582F1A
:1025300000F0C08004F1420584F842703AE0A7F14F
:102540006303152BF6D801A151F823F0A525000847
:10255000B92500083525000835250008352500086F
:1025600035250008B925000835250008352500085F
:102570003525000835250008BD260008E52500089A
:10258000772600083525000835250008DF260008D5
:1025900035250008E5250008352500083525000803
:1025A0007F2600082B681A1D1B682A6004F142056B
:1025B00084F8423001239FE020682B68070603F16E
:1025C0000401296001D51E6803E04606FBD5B3F976
:1025D0000060002E03DA2D23764284F843305A48F7
:1025E0000A2312E02B682068191D2960050601D511
:1025F0001E6802E04106FBD51E8853486F2F0CBFB2
:1026000008230A23002184F843106568A560002D83
:10261000A2BF216821F0040121600EB9002D4BD02A
:102620001546B6FBF3F103FB1167C75D05F8017DA5
:102630003746BB420E46F4D9082B0BD12368DE0780
:1026400008D5236961689942DEBF302305F8013C53
:1026500005F1FF35521B2261CDF800A04B4603AABD
:1026600021464046FFF7E4FE01304AD14FF0FF30EB
:1026700004B0BDE8F087236843F0200323603348AB
:10268000782784F84570236829681F0651F8046B81
:1026900002D45F0648BFB6B2DF0748BF43F020034D
:1026A000296048BF23601EB9236823F020032360FC
:1026B0001023A7E72448E4E71546BDE72B68266802
:1026C0006169181D286035061B6801D5196002E094
:1026D0007006FBD51980002323611546BCE72B68E3
:1026E0001A1D2A601D68626800212846FDF770FDEA
:1026F00008B1401B606063682361002384F84330A5
:10270000AAE723692A4649464046D0470130ADD062
:1027100023689B0713D4E068039B9842B8BF184610
:10272000A6E70123324649464046D04701309DD0B6
:102730000135E36803995B1AAB42F2DCEBE7002555
:1027400004F11906F5E700BFFD7900080E7A0008CC
:102750000148FFF773BC00BF343001200148FFF788
:102760006EBC00BF343001202DE9F0418046144694
:102770000E4621B9BDE8F0411146FFF7D9BD2AB98F
:1027800000F05AF825462846BDE8F08100F0A0F890
:102790008442074602D8B4EB500F12D82146404677
:1027A000FFF7C6FD05460028EDD0BC422246314663
:1027B00028BF3A4600F032F83146404600F03CF877
:1027C000E1E73546DFE7884210B501EB020402D9A4
:1027D0008442234607D8431EA14208D011F8012B9A
:1027E00003F8012FF8E7024401468A4200D110BDE8
:1027F00013F8014D02F8014DF7E7000038B5064D1A
:102800000023044608462B60FEF7D2FA431C02D18F
:102810002B6803B1236038BD403001200A44914247
:1028200000F1FF3300D1704710B511F8014B03F8E8
:10283000014F9142F9D110BD37B5002944D051F86C
:10284000043C0190002BA1F10404B8BFE418FFF789
:102850007FFF1E4A0198136833B96360146003B0A8
:10286000BDE83040FFF77ABFA34208D92568611957
:102870008B4201BF19685B6849192160EDE71A4670
:102880005B680BB1A342FAD911685518A5420BD168
:10289000246821445418A3421160E0D11C685B688D
:1028A00053600C441460DAE702D90C230360D6E7C6
:1028B000256861198B4204BF19685B68636004BFB7
:1028C000491921605460CAE703B030BD3830012097
:1028D00051F8043C181F002BBCBF0B58C0187047A0
:1028E000F8B500BFF8BC08BC9E467047F8B500BFFD
:0828F000F8BC08BC9E467047CD
:1028F800256400000000000000000000010203043D
:102908000607080900000000010203040080808017
:1029180080800000800000000000D8D8909000005F
:10292800000000000000242448FC4848FC4890901F
:1029380000000020709080601090E02020000000CF
:102948000040A04018E010281000000000000038E7
:10295800404060A8907800000000008080808000DF
:1029680000000000000000004040808080808080DF
:10297800404000000080804040404040408080004F
:10298800000020F820505000000000000000000067
:10299800101010FE101010000000000000000000D1
:1029A80000006040C08000000000000000FC000043
:1029B800000000000000000000000000C0C000008F
:1029C800000008081010202040408080000000000F
:1029D8007884848484848478000000000020E020C7
:1029E80020202020F80000000000708808102040F7
:1029F80088F8000000000070880830080888700017
:102A08000000000018284848FC08081C00000000C6
:102A1800007C4040780404847800000000003840BE
:102A280080F0888888700000000000FC8404080892
:102A38001010100000000000788484788484847862
:102A48000000000000788484847C0408F000000002
:102A580000000000C0C00000C0C00000000000006E
:102A6800006060000060C0800000000000041820C2
:102A7800C020180400000000000000FC00FC00005A
:102A8800000000000000008060100C106080000052
:102A98000000007088080810200060000000007026
:102AA800888898A8A89880887000000000301028AE
:102AB80028283844EE0000000000F84444784444D4
:102AC80044F800000000003C4480808080443800C6
:102AD80000000000F0484444444448F0000000006E
:102AE80000FC445070504044FC0000000000FC44CE
:102AF8005070504040E000000000003C4480808E50
:102B08008444380000000000EE44447C444444EE11
:102B18000000000000F8202020202020F8000000FD
:102B280000003C080808888888700000000000EE53
:102B3800444850704844E60000000000E04040402F
:102B4800404444FC0000000000EE6C6C54544444C3
:102B5800EE0000000000E76252524A4A46E60000D2
:102B6800000000384482828282443800000000005D
:102B7800F8444444784040E00000000000384482B3
:102B880082828244383E00000000F8444444784879
:102B980044E20000000000748C80780404C4B8008B
:102BA80000000000FE921010101010380000000005
:102BB80000EE444444444444380000000000E74226
:102BC8004224242418180000000000EE4444545401
:102BD8005454280000000000EE442810102844EE49
:102BE8000000000000EE44282810101038000000F3
:102BF8000000F8881020204088F80000000000E05D
:102C08008080808080808080E0000080804040203C
:102C1800202010101000000000E02020202020209C
:102C28002020E00000202050880000000000000064
:102C38000000000000000000000000000000FF008D
:102C48008040000000000000000000000000007844
:102C5800047C848C760000000000C0405C62424224
:102C680062DC00000000000000748C808084780022
:102C7800000000000C04748C84848C760000000032
:102C88000000007884FC80807C00000000001C208C
:102C9800FC20202020FC00000000000000768C842E
:102CA800848C740478000000C0405864444444EEA6
:102CB80000000000002000E020202020F800000094
:102CC8000000100078080808080808F0000000C094
:102CD800405E48705048CE00000000006020202070
:102CE800202020F800000000000000D26D4949496A
:102CF800ED00000000000000D864444444EE0000E9
:102D080000000000007884848484780000000000BB
:102D18000000D8644444447840E000000000007695
:102D28008C84848C74040E0000000000DC60404039
:102D380040F8000000000000007C80780484F8005F
:102D4800000000000040F840404044380000000007
:102D5800000000CC4444444C360000000000000051
:102D6800E7422424181800000000000000EE445434
:102D780054542800000000000000CC48303048CCF3
:102D880000000000000000EE4444282810107000E5
:102D980000000000F890204088F8000000000020A3
:102DA80040404080404040200000000080808080FB
:102DB800808080808080000000804040402040402B
:102DC800408000000000000000649800000000003F
:102DD80000000000004800FC445070504044FC00D3
:102DE80000000000748C84F080808478000000006B
:102DF80000F8202020202020F80000004800F820BB
:102E08002020202020F8000000000030102828286A
:102E18003844EE0000000000FC444078444444F884
:102E28000000000000F8444478444444F8000000DE
:102E38000000FC444440404040E000000000007EA8
:102E4800242424242444FE8282000000FC44507080
:102E5800504044FC0000000000D35454383454520D
:102E6800D30000000000B0C88830080808F000004F
:102E7800000000E3464A4A525262C7000024180084
:102E8800E3464A4A525262C70000000000E64A5030
:102E980060504844E600000000007E2424242424D6
:102EA800A4CE0000000000EE6C6C54544444EE00C4
:102EB80000000000EE44447C444444EE000000005E
:102EC8000038448282828244380000000000FE44B8
:102ED8004444444444EE0000000000F8444444786C
:102EE8004040E000000000003C448080808044387E
:102EF8000000000000FE92101010101038000000B2
:102F08000000EE4428281010A0E00000000000385F
:102F1800107C92927C10380000000000EE442810CB
:102F2800102844EE0000000000EE444444444444A9
:102F3800FE0202000000EE4444444C34040E00003B
:102F4800000000DD494949494949FF0000000000E7
:102F5800DD494949494949FF0101000000F89090BD
:102F68009E1212123C0000000000E74242724A4AD8
:102F78004AF70000000000E0404078444444F8006C
:102F880000000000B8C4843C0404847800000000F9
:102F980000E6494979494949E600000000003E44F5
:102FA80044443C44448E0000000000000078047C47
:102FB800848C7600000000087880B8C48484847803
:102FC80000000000000000FC447C4242FC000000BD
:102FD80000000000FC44444440E000000000000001
:102FE800007E24242424FE8200000000000078844F
:102FF800FC80807C00000000000000DBAD182C4A3B
:10300800DB00000000000000FC04780404F8000065
:103018000000000000E64C545464CE000000002478
:103028001800E64C545464CE00000000000000EC88
:1030380054704844E6000000000000007E24242468
:10304800A4CE00000000000000E7665A5A42E700DC
:10305800000000000000EE447C4444EE0000000044
:103068000000007884848484780000000000000058
:10307800FE44444444EE00000000000000D86444CC
:1030880044447840E00000000000748C808084781C
:1030980000000000000000FE9292101038000000AE
:1030A80000000000E742242418105060000000309F
:1030B800107C929292927C10380000000000CC485C
:1030C800303048CC00000000000000EE4444444486
:1030D800FE02000000000000E742467A02070000F6
:1030E8000000000000DD49494949FF0000000000D8
:1030F8000000DD49494949FF01000000000000F0D7
:10310800A0BC22227C00000000000000E7427A4AAE
:103118004AF700000000000000E040784444F8004E
:10312800000000000000F8843C04847800000000DF
:10313800000000EE51715151EE0000000000000047
:103148003E44443C44CE000000000048007884FC23
:1031580080807C000000000000007C84F08084787F
:1031680000000000002000E020202020F8000000DF
:1031780000009000E020202020F80000000404FC5B
:10318800404040404040E000000000000808F8408F
:10319800404040E0000000000100000005000D0074
:1031A80006001A000400270005003400050041004D
:1031B80001004E0002005B00020068000500750077
:1031C8000700820003008F0006009C000200A9008F
:1031D8000500B6000600C3000500D0000500DD00AC
:1031E8000500EA000600F7000600040105001101C9
:1031F80006001E0106002B010600380102004501E9
:103208000300520106005F0106006C010600790107
:1032180005008601050093010700A0010600AD0125
:103228000600BA010600C7010600D4010600E10144
:103238000700EE010700FB01050008020600150261
:103248000700220206002F0207003C02080049027C
:1032580007005602060063020700700207007D029D
:1032680006008A02070097020700A4020800B102BC
:103278000700BE020700CB020700D8020500E502DE
:103288000300F2020400FF0203000C030500190307
:1032980008002603020033030700400307004D031C
:1032A80006005A030700670306007403060081033B
:1032B80007008E0307009B030500A8030500B5035C
:1032C8000700C2030500CF030800DC030700E90379
:1032D8000600F603060003040700100406001D0498
:1032E80006002A04060037040700440408005104B5
:1032F80007005E0406006B040700780405008504D7
:103308000300920401009F040300AC040600B90402
:103318000600000006000D0005001A000500270041
:10332800070034000600410006004E0006005B005E
:1033380007006800060075000800820005008F007D
:1033480008009C000800A9000700B6000700C30099
:103358000700D0000700DD000700EA000700F700BB
:10336800060004010600110107001E0107002B01D9
:1033780007003801070045010700520107005F01F7
:1033880008006C0108007901070086010800930114
:103398000600A0010600AD010800BA010700C70138
:1033A8000700D4010600E1010700EE010600FB0159
:1033B80007000802060015020800220206002F0274
:1033C80007003C0207004902070056020700630293
:1033D8000800700207007D0206008A0207009702B3
:1033E8000600A4020600B1020700BE020800CB02D4
:1033F8000700D8020600E5020700F2020800FF02F3
:1034080008000C030800190307002603080033030B
:103418000600400306004D0308005A03070067032F
:10342800060074030600810305008E0305009B0354
:103438000600A8030500B503000060F0F0F0F0F006
:10344800F0F0F06060606060606060000000006044
:10345800F0F060000000000000000000000000F82C
:10346800F8F8F8F0F0F0F0F0F070707070606060EC
:103478006060606060000000000000000000000064
:103488000000000000000000000000000000000034
:103498000000000000000000000000000000000024
:1034A8000000000618061806180618061806180C54
:1034B800300C300C300C30FFFFFFFF0C300C300CA0
:1034C800300C300C30FFFFFFFF0C300C300C300C90
:1034D80030186018601860186018601860000000E4
:1034E8000000000000000001800180018007C01F6B
:1034F800EC383C301C600C600C6000600070003CD4
:10350800000FC001F8001C000E000600060006C0EF
:1035180006C00CF03CFFF8CFC00300030003000313
:10352800000300030000000000000000000000008D
:10353800001E006180408080408040804080404084
:103548008061801E03001C00E007003800C00000F6
:10355800F0030C020404020402040204020204033D
:103568000C00F00000000000000000000000000057
:103578000000000000000000000000000000000340
:10358800C007F80E3018001800180018000C000CBE
:10359800001E003E00630EE18EC198C0D8C0D0C0A6
:1035A80070607070F03F9E0F1E0000000000000069
:1035B8000000000000000000000000F0F0F0F0F053
:1035C8006060606060606000000000000000000053
:1035D80000000000000000000000000000000C0CCB
:1035E8001818303030606060C0C0C0C0C0C0C0C0F3
:1035F800C0C060606030303018180C0C000000004B
:1036080000C0C060603030301818180C0C0C0C0C5E
:103618000C0C0C0C0C1818183030306060C0C0004E
:10362800000000000000018001800180018001800D
:10363800E187FFFF1FF803C003C006600C300C30A1
:10364800181810080000000000000000000000002A
:103658000000000000000000000000000000000062
:103668000000000000000000000000000000000052
:103678000000000000000000C00000C00000C00002
:1036880000C00000C00000C00000C00000C0000072
:10369800C000FFFFC0FFFFC000C00000C00000C0A6
:1036A8000000C00000C00000C00000C00000C00052
:1036B80000C0000000000000000000000000000042
:1036C80000000000000000000000000000000000F2
:1036D80000000000000000000000000000000000E2
:1036E8000000000000001E1C3C383878707060E054
:1036F800C0C0000000000000000000000000000042
:1037080000000000000000000000000000000000B1
:1037180000000000000000000000000000000000A1
:1037280000FFFF80FFFF8000000000000000000095
:103738000000000000000000000000000000000081
:103748000000000000000000000000000000000071
:103758000000000000000000000000000000000061
:103768000000000000000000000000000000000051
:1037780000000078FCFCFC7800000000000000005D
:103788000003000300060006000C000C00180018D7
:10379800003000300060006000C000C0018001807F
:1037A80003000300060006000C000C0018001800B7
:1037B8003000300060006000C000C0000000000061
:1037C8000000000000000000000007E00FF01818DB
:1037D800300C600660066006C003C003C003C00367
:1037E800C003C003C003C003C003C003C003600616
:1037F80060066006300C18180FF007E000000000A3
:1038080000000000000000000000000000000000B0
:1038180001800F80798061800180018001800180B2
:103828000180018001800180018001800180018088
:103838000180018001800180018001800180FFFFFB
:10384800FFFF000000000000000000000000000072
:1038580000000000000003E00FF81C1C380E3007C1
:1038680060036003000300030006000C001800302A
:10387800006000C00180030006000C001800300042
:103888006003C003FFFFFFFF00000000000000000E
:1038980000000000000000000000000007E01FF822
:1038A800383C600C600E0006000600060006000C9E
:1038B800001803F003E00038000C000600030003C2
:1038C800000300038007E00E783C1FF807E00000C3
:1038D80000000000000000000000000000000000E0
:1038E8000000007800F800D801980398031806181B
:1038F80006180C180C1818181818301860186018C2
:10390800C018FFFEFFFE0018001800180018001865
:1039180001FE01FE000000000000000000000000A1
:1039280000000000000000003FFC3FFC30003000B9
:103938003000300030003000300033F03FF8381CE1
:10394800000600070003000300030003000300074C
:10395800C006E00E783C1FF807E0000000000000F9
:103968000000000000000000000000000000007ED1
:1039780001FF07800E0018003000200060004000A2
:10398800C000C3E0CFF8DE1CD806F002E003E00375
:10399800C00360036003300238061C1C0FF803E004
:1039A800000000000000000000000000000000000F
:1039B80000000000FFFEFFFEC006C006000C000C61
:1039C800000C000C001800180018003000300030FF
:1039D800006000600060006000C000C000C001809E
:1039E80001800180010000000000000000000000CC
:1039F8000000000000000000000007C01FF0383879
:103A0800600CE00EC006C006C006C006600C381880
:103A18001FF01FF03018600CC006C006C006C006B4
:103A2800C006C006600C38381FF007C00000000050
:103A3800000000000000000000000000000000007E
:103A48000F801FE038306018600CC00CC004C0063E
:103A5800C006C006600E701E38761FE60F86000688
:103A680000060004000C00180038007081E0FF8098
:103A78007E000000000000000000000000000000C0
:103A8800000000000000000000000078FCFCFC784A
:103A9800000000000000000078FCFCFC780000003A
:103AA800000000000000000000000000000000000E
:103AB800000000000000000F001F801F801F800F03
:103AC800000000000000000000000000001E003C94
:103AD800003C003800780070006000E000C000C0C2
:103AE80000000000000000000000000000000000CE
:103AF800000000000000000000000000600001E07D
:103B0800000380000E00003C0000700001C00007A8
:103B180080001E0000380000E000003800001E0091
:103B28000007800001C000007000003C00000E008B
:103B38000003800001E000006000000000000000B9
:103B4800000000000000000000000000000000006D
:103B5800000000000000000000000000000000005D
:103B6800000000000000000000000000000000004D
:103B78000000000000FFFFF0FFFFF0000000000061
:103B880000000000000000FFFFF0FFFFF000000051
:103B9800000000000000000000000000000000001D
:103BA800000000000000000000000000000000000D
:103BB80000000000000000000000000000000000FD
:103BC800000000000000000000000000C00000F03D
:103BD80000003800000E000007800001C0000070DF
:103BE80000003C00000F000003800000E00003809C
:103BF800000F00003C0000700001C0000780000EAC
:103C08000000380000F00000C000000000000000C4
:103C1800000000000000000000000000000000009C
:103C280000000000000000000000000000000FC0BD
:103C38003FF0F078C018C01CC00C000C000C000C41
:103C48000018003800E003C0030003000300000070
:103C58000000000007800FC00FC0078000000000B0
:103C6800000000000000000000000000000003E069
:103C78000FF81C1C380C700660066006C006C03EB3
:103C8800C0FEC1C6C186C306C306C306C306C1C6F5
:103C9800C0FFC07FC000C000600060003000380670
:103CA8001C0E0FFC03F000000000000000000000E4
:103CB80000000000000000000000000000000000FC
:103CC80000000FFE00000FFF00000033000000613D
:103CD8008000006180000061800000C0C00000C05A
:103CE800C00000C0C0000180600001806000018049
:103CF8006000030030000300300007FFF80007FFF2
:103D0800F800060018000C000C000C000C000C0059
:103D18000C0018000600FF003FC0FF003FC0000075
:103D2800000000000000000000000000000000008B
:103D3800000000000000000000000000000000007B
:103D480000000000000000000000FFFC00FFFF0072
:103D58001803801801801800C01800C01800C01887
:103D680000C01801801807001FFE001FFF0018037D
:103D7800C01800E018007018003018003018003023
:103D88001800301800601801E0FFFFC0FFFF0000B6
:103D9800000000000000000000000000000000001B
:103DA800000000000000000000000000000000000B
:103DB80000000003F0C00FFCC01E0FC03803C03065
:103DC80001C06000C06000C0C00000C00000C000AA
:103DD80000C00000C00000C00000C00000C000001B
:103DE800E000006000007000603000E01C01C00EC0
:103DF800078007FF0001F800000000000000000035
:103E080000000000000000000000000000000000AA
:103E1800000000000000000000000000FFF800FFA4
:103E2800FE001803801801C01800C01800601800B0
:103E380060180030180030180030180030180030B2
:103E480018003018003018003018003018006018BA
:103E580000601800C01801C0180780FFFE00FFF8B6
:103E6800000000000000000000000000000000004A
:103E7800000000000000000000000000000000003A
:103E88000000000000FFFFC0FFFFC01800C01800BE
:103E9800C01800C01800C01800C018300018300042
:103EA8001830001FF0001FF00018300018300018FC
:103EB80030001800601800601800601800601800D2
:103EC80060180060FFFFE0FFFFE000000000000056
:103ED80000000000000000000000000000000000DA
:103EE8000000000000000000000000000000FFFFCC
:103EF800E0FFFFE01800601800601800601800601C
:103F08001800601830001830001830001FF0001F2B
:103F1800F0001830001830001830001800001800A1
:103F280000180000180000180000180000FFF0003A
:103F3800FFF000000000000000000000000000008A
:103F48000000000000000000000000000000000069
:103F58000000000000000001F8C00FFEC01E07C0EE
:103F68003801C03000C06000C0600000C00000C060
:103F78000000C00000C00000C00000C07FF8C07F83
:103F8800F8C000C0C000C06000C06000C03000C001
:103F98003800C01E03C007FF0001FC00000000003D
:103FA8000000000000000000000000000000000009
:103FB80000000000000000000000000000000000F9
:103FC800FF0FF0FF0FF0180180180180180180180A
:103FD80001801801801801801801801801801FFFD6
:103FE800801FFF8018018018018018018018018047
:103FF800180180180180180180180180180180FFBD
:104008000FF0FF0FF00000000000000000000000AB
:104018000000000000000000000000000000000098
:104028000000000000FFFFFFFF0180018001800108
:104038008001800180018001800180018001800170
:10404800800180018001800180018001800180FF62
:10405800FFFFFF000000000000000000000000005B
:104068000000000000000000000000000000000741
:10407800FFF007FFF000060000060000060000063B
:10408800000006000006000006000006000006000A
:10409800000600C00600C00600C00600C00600C03A
:1040A8000600C00600C00C00E01C003838001FF0F5
:1040B8000007C00000000000000000000000000031
:1040C80000000000000000000000000000000000E8
:1040D8000000000000000000FF07FCFF07FC1800BC
:1040E800C0180180180300180E00181C00183000B2
:1040F80018600018C00019F0001F78001E1C001876
:104108000E0018060018070018030018038018018D
:10411800801801801800C0FF00F8FF00F8000000B8
:104128000000000000000000000000000000000087
:104138000000000000000000000000000000000077
:1041480000FFF000FFF00006000006000006000077
:104158000600000600000600000600000600000633
:104168000000060000060000060060060060060069
:1041780060060060060060060060060060060060D9
:10418800FFFFE0FFFFE0000000000000000000006B
:104198000000000000000000000000000000000017
:1041A8000000000000000000000000000000FC000B
:1041B8001F80FE003F801E003C001B006C001B009F
:1041C8006C001980CC001980CC0018C18C0018C173
:1041D8008C0018618C0018630C0018330C0018361A
:1041E8000C00181E0C00181C0C00180C0C001800F1
:1041F8000C0018000C0018000C0018000C00180027
:104208000C00FF007F80FF007F800000000000009E
:104218000000000000000000000000000000000096
:104228000000000000000000000000000000000086
:10423800000000000000FC03FCFE03FC1E00601BE5
:1042480000601B006019806019806018C06018C089
:10425800601860601860601830601818601818607E
:10426800180C60180C6018066018066018036018AF
:1042780003601801E0FF01E0FF00E000000000001B
:104288000000000000000000000000000000000026
:104298000000000000000000000000000000000115
:1042A800F80007FE000E07001801803000C07000FB
:1042B800E0600060400020C00030C00030C0003026
:1042C800C00030C00030C00030C000304000206066
:1042D80000607000E03000C01C01800E070007FE7F
:1042E8000001F800000000000000000000000000CD
:1042F80000000000000000000000000000000000B6
:104308000000000000000000FFF800FFFE00180792
:10431800001801801801C01800C01800C01800C09B
:104328001800C01801C01801801807001FFE001FE0
:10433800F800180000180000180000180000180005
:1043480000180000180000FFF000FFF00000000057
:104358000000000000000000000000000000000055
:104368000000000000000000000000000000000045
:104378000001F80007FE000E07001801803000C099
:10438800600060600060400030C00030C00030C095
:104398000030C00030C00030C00030C000304000E5
:1043A800206000606000603000C01801800E0700C7
:1043B80007FE0001F80001C00001800003FC300F77
:1043C800FFF00E03C0000000000000000000000025
:1043D80000000000000000000000FFFC00FFFE00DD
:1043E8001807001801801801C01800C01800C0186C
:1043F80000C01801C0180380180F001FFE001FF02E
:1044080000181C00180E0018070018030018018077
:104418001800C01800C0180060FF0078FF003800BE
:104428000000000000000000000000000000000084
:104438000000000000000000000000000000000074
:1044480000000007E3001FFB00381F003007006072
:1044580003006003006003006000003000003C00BF
:10446800000FE00003FC00001E00000300000380B2
:10447800000180C00180C00180E00180F00300F8E5
:104488000E00CFFC00C3F000000000000000000098
:104498000000000000000000000000000000000014
:1044A800000000000000000000000000FFFFC0FF47
:1044B800FFC0C0C0C0C0C0C0C0C0C0C0C0C0C0C0B5
:1044C800C0C0C0C0C0C0C000C00000C00000C00064
:1044D80000C00000C00000C00000C00000C0000014
:1044E800C00000C00000C00000C0001FFE001FFE8A
:1044F80000000000000000000000000000000000B4
:1045080000000000000000000000000000000000A3
:104518000000000000FF03FCFF03FC180060180007
:1045280060180060180060180060180060180060CB
:104538001800601800601800601800601800601803
:1045480000601800601800601800600C00C00E01C0
:10455800C007038003FF0000FC000000000000000B
:104568000000000000000000000000000000000043
:104578000000000000000000000000000000FF0034
:10458800FFFF00FF1800180C00300C00300C003042
:104598000600600600600600600300C00300C0015A
:1045A800818001818001818000C30000C30000C3B5
:1045B80000006600006600006600003C00003C0049
:1045C80000180000000000000000000000000000CB
:1045D80000000000000000000000000000000000D3
:1045E8000000000000000000000000FFC1FF80FF85
:1045F800C1FF8018000C0018000C0018000C0018EF
:104608001C0C000C1C18000C1418000C1418000CBE
:104618003618000C3618000C3218000C2218000648
:104628006330000663300006633000064130000640
:10463800C1B00006C1B00006C1B00006C1B0000399
:1046480080E0000380E0000000000000000000009F
:104658000000000000000000000000000000000052
:104668000000000000000000000000000000000042
:10467800000000FE07F0FE07F03000C01801800CB3
:1046880003800C0300060600030C0001980000D804
:104698000000700000700000F000019800018C001C
:1046A8000306000603000C01801C01801800C030BE
:1046B8000060FE03F8FE03F80000000000000000A0
:1046C80000000000000000000000000000000000E2
:1046D800000000000000000000000000FE07F0FEDF
:1046E80007F03000C01801800C03000C0300060618
:1046F80000030C00030C0001980000F00000F0001B
:1047080000600000600000600000600000600000C1
:1047180060000060000060000060000FFF000FFFF5
:104728000000000000000000000000000000000081
:104738000000000000000000000000000000000071
:10474800007FFF7FFF60036006600E601C601860DA
:1047580030006000E000C00180030007000E030C79
:10476800031803380370036003C003FFFFFFFF0053
:104778000000000000000000000000000000000031
:1047880000FEFEC0C0C0C0C0C0C0C0C0C0C0C0C065
:10479800C0C0C0C0C0C0C0C0C0C0C0C0C0FEFE0055
:1047A8000000C000C0006000600030003000180049
:1047B80018000C000C00060006000300030001802E
:1047C800018000C000C000600060003000300018A8
:1047D8000018000C000C000600060003000300008F
:1047E80000000000000000000000FEFE06060606AD
:1047F8000606060606060606060606060606060651
:10480800060606060606FEFE000000000000000080
:10481800000100038006C00C601C7018303018605E
:104828000CC0068006000000000000000000000028
:104838000000000000000000000000000000000070
:104848000000000000000000000000000000000060
:104858000000000000000000000000000000000050
:104868000000000000000000000000000000000040
:104878000000000000C0E030180E06000000000034
:104888000000000000000000000000000000000020
:104898000000000000000000000000000000000010
:1048A8000000000000000000000000000000000000
:1048B800000003F0003FF800381C00000E0000065E
:1048C800000006000006000FF6003FFE0078060014
:1048D800600600C00600C00600C00E00E01E0070A2
:1048E80076003FE7C01F87C00000000000000000FE
:1048F80000000000000000000000000000000000B0
:10490800000000000000F80000F80000180000187F
:104918000000180000180000180000187E0018FF9A
:10492800801B81C01F00E01E00701C00301800189A
:104938001800181800181800181800181800181C63
:1049480000301E00701F00E01B81C0F8FF80F87E59
:10495800000000000000000000000000000000004F
:10496800000000000000000000000000000000003F
:10497800000000000000000000000000000000002F
:104988000000000003F1800FFD801C0F80300380C1
:10499800600180600180C00000C00000C00000C04D
:1049A8000000C00000C000006000006000C03001CE
:1049B800C01C0F800FFE0003F8000000000000007C
:1049C80000000000000000000000000000000000DF
:1049D80000000000000000000007C00007C0000041
:1049E800C00000C00000C00000C00000C003F0C04C
:1049F8000FF8C01C0EC03807C07003C06001C0C0EB
:104A080000C0C000C0C000C0C000C0C000C0C0001E
:104A1800C06001C07003C03807C01C0EC00FF8F892
:104A280003F0F80000000000000000000000000093
:104A3800000000000000000000000000000000006E
:104A4800000000000000000000000000000000005E
:104A580000000000000003F0000FFC001C0F0030F5
:104A68000300600180600180C000C0FFFFC0FFFF3D
:104A7800C0C00000C00000E000006000007000003E
:104A88003800C01E03C00FFF0003F800000000003C
:104A9800000000000000000000000000000000000E
:104AA8000000000000000000000000FF0001FF807F
:104AB800038000060000060000060000060000FF54
:104AC800FF00FFFF000600000600000600000600C9
:104AD80000060000060000060000060000060000B0
:104AE800060000060000060000060000060000FFA1
:104AF800FE00FFFE000000000000000000000000B3
:104B0800000000000000000000000000000000009D
:104B1800000000000000000000000000000000008D
:104B2800000000000000000007C3E01FF3E03C3B6A
:104B380000300F00600700600700C00300C00300DA
:104B4800C00300C00300C00300C00300600700608A
:104B58000700300F003C3B001FF30007C3000003B1
:104B680000000300000300000700000600001C000E
:104B78001FF8001FF000000000000000F80000F817
:104B880000001800001800001800001800001800A5
:104B980000187C0019FF001B83801E01801C00C0C8
:104BA8001800C01800C01800C01800C01800C018AD
:104BB80000C01800C01800C01800C01800C01800B5
:104BC800C0FF07F8FF07F800000000000000000021
:104BD80000000000000000000000000000000000CD
:104BE800000000C00000C00000C00000C0000000BD
:104BF800000000000000000000003FC0003FC000AF
:104C080000C00000C00000C00000C00000C00000DC
:104C1800C00000C00000C00000C00000C00000C00C
:104C28000000C00000C00000C000FFFFC0FFFFC0C0
:104C3800000000000000000000000000000000006C
:104C4800000000000000000000000060006000603C
:104C580000600000000000000000FFF8FFF80018E6
:104C6800001800180018001800180018001800187C
:104C7800001800180018001800180018001800186C
:104C8800001800180018003000707FE07F800000D6
:104C980000000000F80000F80000180000180000EC
:104CA800180000180000180000181FC0181FC018AE
:104CB8000C0018180018300018600019C0001B807C
:104CC800001F00001D800018C00018600018300088
:104CD800181800180400180300F81FE0F81FE00077
:104CE80000000000000000000000000000000000BC
:104CF800000000000000000000000000003FC000AD
:104D08003FC00000C00000C00000C00000C000009C
:104D1800C00000C00000C00000C00000C00000C00B
:104D28000000C00000C00000C00000C00000C000BB
:104D380000C00000C00000C00000C00000C00000AB
:104D4800C000FFFFC0FFFFC000000000000000001F
:104D5800000000000000000000000000000000004B
:104D6800000000000000000000000000000000003B
:104D78000000000000000000000000F9E1E0FBF383
:104D8800F01E36381C1C181C1C181818181818186F
:104D9800181818181818181818181818181818188B
:104DA8001818181818181818181818FF1F1FFF1F98
:104DB8001F000000000000000000000000000000CC
:104DC80000000000000000000000000000000000DB
:104DD80000000000000000000000000000000000CB
:104DE80000000000F87C00F9FF001B83801E01C052
:104DF8001C00C01800C01800C01800C01800C01857
:104E080000C01800C01800C01800C01800C0180062
:104E1800C01800C0FF07F8FF07F8000000000000F6
:104E2800000000000000000000000000000000007A
:104E3800000000000000000000000000000000006A
:104E48000000000000000000000000000003F00067
:104E58000FFC001C0E00380700700380600180C042
:104E680000C0C000C0C000C0C000C0C000C0C000BA
:104E7800C06001807003803807001C0E000FFC0022
:104E880003F0000000000000000000000000000027
:104E9800000000000000000000000000000000000A
:104EA80000000000000000000000000000000000FA
:104EB800000000000000F87E00F9FF801B81C01F81
:104EC80000E01E00701C00301800181800181800A8
:104ED800181800181800181800181C00301E007048
:104EE8001F00E01B81C019FF80187E001800001801
:104EF8000000180000180000180000180000FFC08B
:104F080000FFC000000000000000000000000000DA
:104F18000000000000000000000000000000000782
:104F2800E1F00FF9F01C1D803007807007806003E6
:104F380080C00180C00180C00180C00180C00180A4
:104F4800C001806003807007803007801C1D800FBF
:104F5800F98007E1800001800001800001800001E4
:104F680080000180000180003FF0003FF000000059
:104F78000000000000000000000000000000000029
:104F880000000000000000003E0F003E3F80067059
:104F9800C006E04007C00007000006000006000049
:104FA80006000006000006000006000006000006D5
:104FB8000000060000060000FFFE00FFFE000000E3
:104FC80000000000000000000000000000000000D9
:104FD80000000000000000000000000000000000C9
:104FE800000000000000000007E61FF6381E6006FB
:104FF8006006600078003FE00FF8003E00060003FE
:105008000003C003C007F01EDFFCC7F0000000006B
:105018000000000000000000000000000000000088
:1050280000000000000C00000C00000C00000C0048
:10503800000C00000C0000FFFF00FFFF000C000048
:105048000C00000C00000C00000C00000C00000C10
:1050580000000C00000C00000C00000C00000C000C
:10506800000E00600703E003FF8001FC0000000061
:105078000000000000000000000000000000000028
:105088000000000000000000000000000000000018
:105098000000000000000000000000000000000008
:1050A800F807C0F807C01800C01800C01800C018DA
:1050B80000C01800C01800C01800C01800C01800B0
:1050C800C01800C01800C01801C01C07C00E1EC0C0
:1050D80007FCF803E0F800000000000000000000F2
:1050E80000000000000000000000000000000000B8
:1050F80000000000000000000000000000000000A8
:10510800000000000000000000FF01FEFF01FE1883
:1051180000301800300C00600C00600600C006006B
:10512800C0030180030180038380018300018300A1
:1051380000C60000C600006C00007C0000380000BB
:105148000000000000000000000000000000000057
:105158000000000000000000000000000000000047
:105168000000000000000000000000000000000037
:105178000000FE007FFE007F30000C30000C300085
:105188000C180018181818183C18183C1818661825
:105198001866180C46300CC3300CC3300D81B00DA6
:1051A80081B00700E00700E00000000000000000F8
:1051B80000000000000000000000000000000000E7
:1051C80000000000000000000000000000000000D7
:1051D80000000000000000000000007F0FE07F0FCB
:1051E800E01801800C0300060600030C000198007B
:1051F80000F00000600000F000019800030C0006B9
:1052080006000C03001801803000C0FE07F0FE07FE
:10521800F000000000000000000000000000000096
:105228000000000000000000000000000000000076
:105238000000000000000000000000000000000066
:1052480000000000FC07F0FC07F06000C03000C060
:105258003001801801801803000C03000C060006BA
:105268000600060C00030C0003180001980001B0AA
:105278000000F00000F00000600000600000C000C6
:1052880000C000018000018000030000FFE000FF73
:10529800E000000000000000000000000000000026
:1052A80000000000FFFEFFFEC00CC00CC01800305C
:1052B800006000C00180030006000C0018003006E2
:1052C80060066006FFFEFFFE000000000000000010
:1052D8000000000000000000000000070F0C181874
:1052E800181818181818181830E03018181818183E
:1052F80018181818180C0F070000000000C0C0C0CC
:10530800C0C0C0C0C0C0C0C0C0C0C0C0C0C0C0C095
:10531800C0C0C0C0C0C0C0C0C0C0C0000000000045
:1053280000E0F038181818181818181818180C076A
:105338000C1818181818181818181830F0E0000069
:105348000000000000000000000000000000000055
:105358000000000000000000000000000000000045
:1053680000000000000000001E00003F0180738163
:1053780080C0E700C07E00003C0000000000000084
:105388000000000000000000000000000000000015
:105398000000000000000000000000000000000005
:1053A80000000000000000000000000000000000F5
:1053B80000000000000E07000E07000E07000000A6
:1053C80000000000FFFFC0FFFFC01800C01800C0A9
:1053D8001800C01800C01800C01830001830001895
:1053E80030001FF0001FF00018300018300018308F
:1053F800001800601800601800601800601800604D
:10540800180060FFFFE0FFFFE00000000000000060
:105418000000000000000000000000000000000084
:105428000000000000000000000000000000000074
:1054380000000000000000000003F8C00FFEC01CC0
:1054480007C03801C03000C06000C06000C0C000A4
:1054580000C00000C00000FFF800FFF800C0000016
:10546800C00000C00000C0000060000060006030A4
:1054780000601800C00E038007FF0001FC00000058
:105488000000000000000000000000000000000014
:105498000000000000000000000000000000000004
:1054A800000000000000FFFFFFFF01800180018075
:1054B80001800180018001800180018001800180DC
:1054C80001800180018001800180018001800180CC
:1054D800FFFFFFFF000000000000000000000000C8
:1054E80000000000000000000000381C381C381CB8
:1054F80000000000FFFFFFFF0180018001800180A4
:10550800018001800180018001800180018001808B
:105518000180018001800180018001800180FFFFFE
:10552800FFFF000000000000000000000000000075
:105538000000000000000000000000000000000063
:105548000000000000000000000000000000000053
:1055580000000FFE00000FFF000000330000006194
:105568008000006180000061800000C0C00000C0B1
:10557800C00000C0C00001806000018060000180A0
:105588006000030030000300300007FFF80007FF49
:10559800F800060018000C000C000C000C000C00B1
:1055A8000C0018000600FF003FC0FF003FC00000CD
:1055B80000000000000000000000000000000000E3
:1055C80000000000000000000000000000000000D3
:1055D80000000000000000000000000000000000C3
:1055E800000000000000FFFFE0FFFFE01800601867
:1055F80000601800601800601800601800001800AB
:10560800001800001FFE001FFF801801C01800606E
:105618001800301800301800301800301800301802
:1056280000601800E0FFFFC0FFFF0000000000005E
:105638000000000000000000000000000000000062
:105648000000000000000000000000000000000052
:105658000000000000000000000000FFFC00FFFF49
:10566800001803801801801800C01800C01800C076
:105678001800C01801801807001FFE001FFF00183F
:1056880003C01800E0180070180030180030180027
:10569800301800301800601801E0FFFFC0FFFF005D
:1056A80000000000000000000000000000000000F2
:1056B80000000000000000000000000000000000E2
:1056C80000000000000000000000000000000000D2
:1056D800FFFFF8FFFFF80600180600180600180676
:1056E800001806001806001806001806001806001C
:1056F8000006000006000006000006000006000084
:10570800060000060000060000060000060000FF74
:10571800F000FFF0000000000000000000000000A2
:105728000000000000000000000000000000000071
:105738000000000000000000000000000000000061
:1057480000000000001FFFF81FFFF80300C003005F
:10575800C00300C00300C00300C00300C00300C0B2
:105768000300C00300C00300C00300C00300C0035F
:1057780000C00300C00200C00600C00600C00C0044
:10578800C01800C0FFFFF8FFFFF8C00018C00018DD
:10579800C00018C00018C00018C0001800000000A1
:1057A80000000000000000000000000000000000F1
:1057B80000000000000000000000FFFFC0FFFFC065
:1057C8001800C01800C01800C01800C01800C01881
:1057D80030001830001830001FF0001FF00018309B
:1057E80000183000183000180060180060180060B9
:1057F800180060180060180060FFFFE0FFFFE0007D
:105808000000000000000000000000000000000090
:105818000000000000000000000000000000000080
:1058280000000000000000000000000000000078F8
:10583800FF1E7CFF3E6C18366618666718E603186C
:10584800C00199C001998000DB0000FF0000FF0043
:105858000199800318C00318C00618600618600C68
:1058680018300C18300C1830181818181818F0FFC1
:105878000FF0FF0F00000000000000000000000013
:105888000000000000000000000000000000000010
:105898000000000000000000000000000000000000
:1058A8000000000061FE0067FF807E03C07800C032
:1058B8007000606000606000606000600000C00010
:1058C800038003FE0003FF800001C00000600000A9
:1058D80030000030000030000030000070C0006070
:1058E800F003C03FFF8007FE00000000000000003A
:1058F80000000000000000000000000000000000A0
:10590800000000000000000000000000000000008F
:10591800000000000000000000FF00FCFF00FC1871
:1059280001E01801E0180360180760180660180CF9
:1059380060180C60181860181860183060186060DB
:1059480018606018C06018C0601980601980601BFA
:1059580000601E00601E0060FC03FCFC03FC0000ED
:10596800000000000000000000000000000000002F
:105978000000000000000601800601800703800384
:10598800870001FE0000FC00000000000000FF008E
:10599800FCFF00FC1801E01801E01803601807601C
:1059A800180660180C60180C601818601818601831
:1059B800306018606018606018C06018C060198096
:1059C800601980601B00601E00601E0060FC03FC04
:1059D800FC03FC00000000000000000000000000C4
:1059E80000000000000000000000000000000000AF
:1059F800000000000000000000000000000000009F
:105A0800000000FF01F0FF03F018073018063018F7
:105A18000C30180C00181800181000183000186006
:105A2800001FC0001FE000187000181800180C00B4
:105A3800180C0018060018060018030018030018B0
:105A48000180FF01F8FF00F80000000000000000DE
:105A5800000000000000000000000000000000003E
:105A6800000000000000000000000000000000002E
:105A780000000000000000000FFFFC0FFFFC018089
:105A88006001806001806001806001806001806049
:105A98000180600180600180600180600180600198
:105AA8008060018060018060018060018060C18049
:105AB80060C30060C70060FE03FCFC03FC0000003C
:105AC80000000000000000000000000000000000CE
