:020000040800F2
:10000000000002203D2900086B2200087122000830
:10001000772200087D2200088322000800000000EB
:10002000000000000000000000000000892200081D
:100030009722000800000000A5220008B522000851
:100040008D2900088D2900088D2900088D290008B8
:100050008D2900088D2900088D2900088D290008A8
:100060008D2900088D2900088D2900088D29000898
:100070008D2900088D2900088D2900088D29000888
:100080008D2900088D2900088D290008F12200081B
:10009000052300088D2900088D2900088D290008F6
:1000A0008D2900088D2900088D2900088D29000858
:1000B0008D2900088D2900088D2900088D29000848
:1000C0008D2900088D2900088D2900088D29000838
:1000D0008D2900088D2900088D29000819230008A2
:1000E0008D2900088D2900088D2900088D29000818
:1000F0008D2900088D2900088D2900088D29000808
:100100008D2900088D2900088D2900088D290008F7
:100110008D2900088D2900088D2900088D290008E7
:100120008D2900088D2900088D2900088D290008D7
:100130008D2900088D2900088D2900088D290008C7
:100140008D2900088D2900088D2900088D290008B7
:100150008D2900088D2900088D29000865230008D5
:100160008D2900088D2900088D2900088D29000897
:100170008D2900088D2900088D2900080000000045
:080180008D2900088D290008FB
:1001900010B5054C237833B9044B13B10448AFF3C1
:1001A00000800123237010BDA80000200000000083
:1001B000588B010808B5034B1BB103490348AFF343
:1001C000008008BD00000000AC000020588B010832
:1001D000034613F8012B002AFBD1181A0138704787
:1001E00001F0FF01102A2BDB10F0070F08D010F8E8
:1001F000013B013A8B422DD010F0070F42B3F6D1EC
:10020000F0B441EA012141EA014122F007047FF004
:1002100000070023F0E80256083C85EA010586EA5B
:10022000010685FA47F5A3FA87F586FA47F6A5FA97
:1002300087F68EB9EED1F0BC01F0FF0102F00702A3
:1002400032B110F8013B013A83EA010313B1F8D14E
:100250000020704701387047002D06BF354603382F
:10026000073815F0010F07D1013015F4807F02BF68
:10027000013015F4C03F0130F0BC0138704700BFB9
:1002800053B94AB9002908BF00281CBF4FF0FF31FD
:100290004FF0FF3000F070B9ADF1080C6DE904CEFD
:1002A00000F006F8DDF804E0DDE9022304B0704751
:1002B0002DE9F047089E0D4604460F46002B4AD113
:1002C0008A42944665D9B2FA82F343B102FA03FC3A
:1002D000C3F120029F4020FA02F217439C404FEAEC
:1002E0001C4E1FFA8CF5B7FBFEF1220C0EFB1177AA
:1002F00042EA074201FB05F090420AD91CEB0202D8
:1003000001F1FF3780F01C81904240F219810239DF
:100310006244121AA4B2B2FBFEF00EFB102244EAB1
:10032000024400FB05F5A5420AD91CEB040400F1C8
:10033000FF3280F00781A54240F204816444023814
:1003400040EA0140641B00211EB1DC400023C6E9E5
:100350000043BDE8F0878B4208D9002E00F0ED8005
:100360000021C6E900050846BDE8F087B3FA83F12D
:10037000002949D1AB4202D3824200F2F880841AAC
:1003800065EB030201201746002EE2D0C6E90047C4
:10039000DFE702B9FFDEB2FA82F3002B40F0908073
:1003A0008A1A4FEA1C471FFA8CFE0121B2FBF7F5AF
:1003B00007FB1520220C42EA00420EFB05F090429A
:1003C00008D91CEB020205F1FF3802D2904200F27C
:1003D000CB804546121AA4B2B2FBF7F007FB1022FD
:1003E00044EA02440EFB00FEA64508D91CEB0404B7
:1003F00000F1FF3202D2A64500F2BB801046A4EB0A
:100400000E0440EA05409FE7C1F120078B4022FA25
:1004100007FC4CEA030C05FA01F420FA07F3FD404F
:100420004FEA1C492343B5FBF9F81FFA8CFE09FB80
:1004300018551C0C44EA054408FB0EF5A54202FAC7
:1004400001F200FA01F00BD91CEB040408F1FF3AA9
:1004500080F08880A54240F28580A8F102086444BB
:10046000641B9DB2B4FBF9F309FB134445EA044451
:1004700003FB0EFEA64508D91CEB040403F1FF356F
:100480006CD2A6456AD9023B644443EA0843A3FB05
:100490000295A4EB0E04AC42C846AE4656D353D0E8
:1004A00056B1B0EB080264EB0E0404FA07F7CA4039
:1004B000CC401743C6E9007418460021BDE8F08718
:1004C000C3F1200102FA03FC20FA01F225FA01F13E
:1004D0009D402A434FEA1C471FFA8CFEB1FBF7F000
:1004E00007FB1015110C41EA054100FB0EF58D428A
:1004F00004FA03F408D91CEB010100F1FF382FD2F4
:100500008D422DD902386144491B92B2B1FBF7F5F7
:1005100007FB151142EA014205FB0EF1914208D991
:100520001CEB020205F1FF3816D2914214D9023DAC
:100530006244521A45EA004138E73146304608E73E
:100540003946E6E61046FBE64845A9D2B9EB020873
:1005500065EB0C0E013BA3E74546EAE72B4694E723
:100560004046D1E7D0467BE7023D624432E7084689
:100570000AE76444023842E7704700BF80B500AF25
:10058000174B184A1A60164B15225A60144B00225A
:100590009A60134B0022DA60114B4FF440221A612B
:1005A0000F4B4FF480125A610D4B00221A760C4B00
:1005B00000225A760A4B00229A76094B0022DA76FC
:1005C000074B00221A77064B00225A77044802F0A4
:1005D000D5FB0346002B01D001F020FC00BF80BDFD
:1005E000C40000200064004080B58AB000AF78608D
:1005F00007F1140300221A605A609A60DA601A61E7
:100600007B681B68214A93423BD100233B61204B0E
:100610001B6C1F4A43F0007313641D4B1B6C03F0EB
:1006200000733B613B690023FB60194B1B6B184A4D
:1006300043F008031363164B1B6B03F00803FB60C6
:10064000FB6803237B610223BB610023FB6103235F
:100650003B6209237B6207F1140319460D4804F03D
:10066000FDFD00220021132003F0F3F9132003F015
:100670000CFA00220021142003F0EBF9142003F0FF
:1006800004FA00BF2837BD4680BD00BF00640040AB
:1006900000380240000C024080B58AB000AF002351
:1006A0007B6100233B6000237B600023BB60002351
:1006B000FB6000233B610023BB610123FB6101233D
:1006C0003B620E237B623B4619460E4802F052FC09
:1006D0000346002B01D001F0A1FB0221094802F0E2
:1006E0007DFE0346002B01D001F098FB054802F087
:1006F00021FD0346002B01D001F090FB00BF2837FD
:10070000BD4680BDC400002080B483B000AF7860D7
:1007100039607B683A689A6100BF0C37BD465DF866
:10072000047B704780B483B000AF786039603B6869
:100730001A047B689A6100BF0C37BD465DF8047BE4
:100740007047000080B485B000AF7860084B1A6B2A
:1007500007497B6813430B63054B1A6B7B68134097
:10076000FB60FB6800BF1437BD465DF8047B704733
:100770000038024080B586B000AF3B4600221A60C8
:100780005A609A60DA601A615A611020FFF7DAFF46
:100790000420FFF7D7FF8020FFF7D4FF0120FFF7E9
:1007A000D1FF0220FFF7CEFF0820FFF7CBFF48F272
:1007B00010015248FFF7A8FF4FF400715048FFF7AF
:1007C000A3FF48214F48FFF7ADFF80214C48FFF7BA
:1007D000A9FF4FF6FE733B6003237B6000233B6160
:1007E0003B461946484805F072FF4EF201333B6024
:1007F00003237B6000233B613B461946434805F0D9
:1008000066FF41F609733B6003237B6000233B6175
:100810003B461946394805F05AFF48F210033B6041
:1008200001237B600323BB600023FB6001233B614A
:100830003B461946314805F04AFF4CF25F133B60D6
:1008400003237B6000233B613B4619462C4805F09F
:100850003EFF4FF6A0433B6003237B6000233B61D8
:100860003B461946274805F032FF14233B6000231E
:100870007B6000233B613B461946224805F027FF79
:1008800048233B6001237B600023BB600023FB60A7
:1008900000233B613B4619461A4805F018FF8023A8
:1008A0003B6001237B600023BB600023FB600023CF
:1008B0003B613B461946124805F009FF4FF40073AF
:1008C0003B6001237B600323BB600023FB600123AB
:1008D0003B613B4619460A4805F0F9FE01233B609F
:1008E00000237B6000233B613B461946064805F028
:1008F000EEFE00BF1837BD4680BD00BF00000240BD
:1009000000040240000C02400010024000080240B7
:1009100080B400AFBFF34F8F00BF064BDB6803F41A
:10092000E0620449044B1343CB60BFF34F8F00BF19
:1009300000BFFDE700ED00E00400FA0580B489B0D7
:1009400000AF78607B680C33FB60FB6853E8003FC6
:10095000BB60BB6843F02003FB617B680C33FA6922
:10096000BA617B617969BA6941E800233B613B69FF
:10097000002BE7D100BF00BF2437BD465DF8047BE4
:10098000704780B489B000AF78607B680C33FB603F
:10099000FB6853E8003FBB60BB6843F08003FB612A
:1009A0007B680C33FA69BA617B617969BA6941E89D
:1009B00000233B613B69002BE7D100BF00BF243718
:1009C000BD465DF8047B704780B483B000AF7860AB
:1009D0000B46FB70FA787B685A6000BF0C37BD4647
:1009E0005DF8047B7047000080B500AF02F030F97D
:1009F00000F02AF84FF47A7002F09CF901F00CF93B
:100A0000FFF7B8FE01F010FAFFF7B8FD01F036FF6E
:100A100006F0F2FA01F03EFA01F072FA01F0CCFEB3
:100A2000FFF73AFE07F009FC0648FFF787FF07F0DB
:100A300029FC00F073F816F071FA00F0BFFC00F02A
:100A4000EDFCF4E70048004080B594B000AF07F13A
:100A5000200330220021184617F000F807F10C039C
:100A600000221A605A609A60DA601A610023BB6043
:100A7000284B1B6C274A43F080531364254B1B6C97
:100A800003F08053BB60BB6800237B60224B1B6874
:100A9000214A43F4804313601F4B1B6803F48043D7
:100AA0007B607B6801233B624FF480337B620223CF
:100AB000BB634FF48003FB6304233B64A8237B6484
:100AC0000223BB640423FB6407F12003184604F0EF
:100AD00093FD0346002B01D001F0A0F90F23FB602A
:100AE00002233B6100237B614FF4A053BB614FF4B1
:100AF0008053FB6107F10C030521184604F0F4FF55
:100B00000346002B01D001F089F900BF5037BD46E4
:100B100080BD00BF003802400070004080B590B03A
:100B200002AF002387F8373022E097F837301846B5
:100B300007F05CFC0346002B15D097F837301846B9
:100B400016F0ACFA0346002B08D197F83730184658
:100B500007F05CFC0346184600F0ECF897F83730D5
:100B6000184607F019FD97F83730013387F837300A
:100B700097F83730022BD8D9634B1B78002B28D03D
:100B8000624B1B68032B24D9614B1B78302B1AD97D
:100B90005F4B1B78332B16D85B4B1B78012B12D97C
:100BA000594B1B781A465A4B00219954584B1B78C5
:100BB000313BDBB2184616F071FA0346002B02D126
:100BC000534800F0B7F8504B00221A704F4B0022E8
:100BD0001A60002387F837304EE097F83730184610
:100BE00016F05CFA0346012B2FD197F837301846E0
:100BF00016F0BCFA034640F6C412934225D9454B81
:100C00001B781A46642302FB03F3434A981897F8AB
:100C100037300133414A632116F07AFD3D4B1B7892
:100C20005A1C3F4B83FB02139910D317C91A0B466A
:100C30009B000B445B00D11ACAB2364B1A7097F86E
:100C40003730184616F04EFA11E097F8373018464C
:100C500016F024FA0346022B09D197F837301846CC
:100C600000F03AFA97F83730184616F03BFA97F842
:100C70003730013387F8373097F83730022BACD94B
:100C800016F08AFA03461A46264B1B789A4237D04A
:100C900000237B6007F108032E220021184616F07E
:100CA000DDFE16F079FA03461A461E4B1A703B1DFC
:100CB000184616F089FA174B1B781A46642302FB74
:100CC00003F3154A9818184B1B881A46174B0193C3
:100CD0003B1D00931346164A632116F019FD0D4B78
:100CE0001B785A1C0E4B83FB02139910D317C91A99
:100CF0000B469B000B445B00D11ACAB2054B1A701D
:100D000000BF3837BD4680BDDC050020E00500206F
:100D1000DC040020D5040020EC000020708B0108CA
:100D2000676666660200002000000020A88B0108AC
:100D3000948B010880B5B8B002AF78600023A7F8A3
:100D4000D6307B681B78303B87F8D5300023FB60BA
:100D500007F11003C4220021184616F07FFE7B68BD
:100D600001331B78232B25D17B6802331B78532B4F
:100D700020D17B6803331B78452B1BD17B68043360
:100D80001B78542B16D1AC49786816F027FE034621
:100D9000002B03D0786800F027FE8DE1A749786822
:100DA00016F01CFE0346002B00F08681786800F0E8
:100DB000A1FE81E17B6801331B78542B46D17B680F
:100DC00002331B78452B41D17B6803331B78532BAF
:100DD0003CD17B6804331B78542B37D19849786811
:100DE00016F0FCFD0346002B05D097F8D5301846C9
:100DF00000F064FB62E19349786816F0EFFD03466A
:100E0000002B00F05B81904B01221A708F4B1B78F6
:100E10001A46642302FB03F38D4A981897F8D530DD
:100E20008C4A632116F074FC884B1B785A1C8A4B41
:100E300083FB02139910D317C91A0B469B000B446E
:100E40005B00D11ACAB2814B1A7037E17B6801335B
:100E50001B78532B34D17B6802331B78452B2FD161
:100E60007B6803331B78542B2AD17C49786816F0B1
:100E7000B5FD0346002B00F02281734B02221A704D
:100E8000724B1B781A46642302FB03F3704A9818CE
:100E900097F8D530724A632116F03AFC6B4B1B78F9
:100EA0005A1C6D4B83FB02139910D317C91A0B46BA
:100EB0009B000B445B00D11ACAB2644B1A70FEE06F
:100EC000614B1B78002B0FD05F4B1B78012B02D19D
:100ED000786800F0D3FB5C4B1B78022B40F0EF806E
:100EE000786800F0A5FCEAE097F8D530002B00F018
:100EF000E68097F8D530032B00F2E18097F8D530E3
:100F0000013BDBB2184616F0C9F80346002B40F04F
:100F1000D6804E4B1B781A46642302FB03F34C4ADF
:100F2000981897F8D5207B680133009313464D4AF3
:100F3000632116F0EDFB454B1B785A1C464B83FB97
:100F400002139910D317C91A0B469B000B445B0080
:100F5000D11ACAB23D4B1A70434B1B781A46434B09
:100F6000002103F83210404B1B78404ADB00134449
:100F700000225A703C4B1B78184697F8D5300C333A
:100F8000D9B23A4AC30013440A469A70364B1B78CA
:100F9000364ADB0013440022DA70334B1B78334AA5
:100FA000DB00134400221A712F4B1B782F4ADB0001
:100FB000134400225A712C4B1B782C4ADB0013443B
:100FC00000229A71284B1B78284ADB001344002228
:100FD000DA71254B1B785A1C1F4B83FB02139910A7
:100FE000D317C91A0B469B000B445B00D11ACAB237
:100FF0001D4B1A7016F0D0F80346002B3CD11C4B49
:101000001B881A4607F10C00252301937B68009387
:101010001346184A632116F07BFB0346A7F8D63027
:1010200097F8D530013BDBB2B7F8D62007F10C01B9
:10103000184615F0DDFF42E0B48B0108BC8B0108B7
:10104000C88B0108D48B01083C060020D504002081
:10105000EC000020DC8B010867666666F08B0108F7
:10106000F88B01080C8C010835060020E4050020EF
:1010700000000020188C0108134B1B781A466423CB
:1010800002FB03F3114A981897F8D530104A6321F0
:1010900016F03EFB0C4B1B785A1C0E4B83FB0213C5
:1010A0009910D317C91A0B469B000B445B00D11A49
:1010B000CAB2054B1A7002E000BF00E000BF00BFDB
:1010C000D837BD4680BD00BFD5040020EC0000200D
:1010D0002C8C01086766666680B59EB002AF034639
:1010E000FB71002387F86F30002387F867300023F7
:1010F000A7F864300023BB6007F10C0356220021DF
:10110000184616F0ABFC002387F86330002387F8FD
:101110006230FB79184616F031F9B86672E0BB6EA2
:101120001B783B2B03D0BB6E1B785B2B08D197F849
:101130006F30013387F86F30002387F863305EE04B
:1011400097F86F30012B16D1BB6E1B782F2B12D95D
:10115000BB6E1B78392B0ED897F867301A46920071
:1011600013445B00DAB2BB6E1B781344DBB2303B36
:1011700087F8673043E097F86F30022B17D1BB6ECA
:101180001B782F2B13D9BB6E1B78392B0FD8B7F8D0
:1011900064301A46920013445B009AB2BB6E1B780F
:1011A0009BB213449BB2303BA7F8643027E097F81A
:1011B0006F30032B11D197F86330582B0DD897F867
:1011C0006330BA6E127870333B4403F8682C97F89A
:1011D0006330013387F8633011E097F86F30042BE8
:1011E0000DD197F86330013387F8633097F8633097
:1011F000132B04D1BB6E1B78303B87F86230BB6E7B
:101200000133BB66BB6E1B78002B88D197F8673023
:10121000002B00F0A08097F86730032B00F29B8032
:10122000B7F86430B3F57A7F80F0958097F867302F
:101230005A1EFB799A4240F08E80594B1B781A4611
:10124000642302FB03F3574A9818B7F8641097F821
:10125000673007F10802019200930B46524A63215E
:1012600016F056FA4E4B1B785A1C504B83FB021358
:101270009910D317C91A0B469B000B445B00D11A77
:10128000CAB2474B1A70B7F86430002B00F0838065
:10129000474B1B781A46474B002103F83210444B4A
:1012A0001B78B7F86420D1B2424ADB0013440A46E7
:1012B0005A7097F86230022B0CD997F86230082BDD
:1012C00008D83B4B1B783B4ADB00134497F862205D
:1012D0009A700BE0364B1B78184697F8673002334C
:1012E000D9B2344AC30013440A469A70304B1B7873
:1012F000304ADB0013440022DA702D4B1B782D4A54
:10130000DB00134400221A71294B1B78294ADB00A9
:10131000134400225A71264B1B78264ADB001344E3
:1013200000229A71224B1B78224ADB0013440022D0
:10133000DA711F4B1B785A1C1C4B83FB021399104C
:10134000D317C91A0B469B000B445B00D11ACAB2D3
:10135000174B1A701FE0124B1B781A46642302FBCE
:1013600003F3104A9818FB790133134A632116F0EE
:10137000CFF90B4B1B785A1C0C4B83FB02139910B3
:10138000D317C91A0B469B000B445B00D11ACAB293
:10139000034B1A7000BF00BF7037BD4680BD00BF51
:1013A000D5040020EC0000204C8C010867666666BE
:1013B00035060020E4050020588C010880B500AFF8
:1013C000104B1A78104B1B789A4219D00F4B1B68A0
:1013D000092B15D90D4B00221A600B4B1B781946AF
:1013E0000B4A642301FB03F313441B781946094895
:1013F000FFF7EAFA0748FFF7C4FA074B01221A7011
:1014000000BF80BDD5040020D4040020D8040020F3
:10141000EC00002000140140D604002080B588B004
:1014200000AF204B1A78204B1B789A4235D01F4BC7
:101430001B680A2B31D90023FB6000237B60082343
:101440007B6100233B6100233B76194801F091FF4B
:101450000346002B21D0144B1B78DB00154A1A449D
:1014600007F11C03391D124801F0A8FE0346002BAA
:1014700013D10E4B00221A600B4B1B785A1C0E4BDB
:1014800083FB02139910D317C91A0B469B000B4418
:101490005B00D11ACAB2044B1A7000BF2037BD4698
:1014A00080BD00BF3506002034060020380600202D
:1014B000C4000020E40500206766666680B586B03B
:1014C00002AF0346FB710123FB73A0E0634B1B7863
:1014D0001A46642302FB03F3614A9818FA79FB7BEE
:1014E000009313465F4A632116F012F95B4B1B7899
:1014F0005A1C5D4B83FB02139910D317C91A0B4674
:101500009B000B445B00D11ACAB2544B1A70534B68
:101510001B781A46642302FB03F3514A9818FA7B9E
:10152000FB7900931346514A632116F0F1F84B4BB7
:101530001B785A1C4C4B83FB02139910D317C91A02
:101540000B469B000B445B00D11ACAB2434B1A7086
:10155000474B1B781A46474B002103F83210444B87
:101560001B78444ADB001344FA7B5A70404B1B78CB
:10157000404ADB001344FE229A703D4B1B783D4AE3
:10158000DB0013440022DA70394B1B78394ADB0048
:10159000134400221A71364B1B78364ADB00134481
:1015A00000225A71324B1B78324ADB00134400226E
:1015B0009A712F4B1B782F4ADB0013440022DA71FB
:1015C0002B4B1B785A1C284B83FB02139910D31703
:1015D000C91A0B469B000B445B00D11ACAB2244BBC
:1015E0001A7001F09BFB034603F5FA73BB6005E03C
:1015F000FFF7E4FEFFF712FF06F044FE01F08EFB5A
:101600000246BB689342F3D8FB7B0133FB73FB7B41
:10161000A02B7FF65BAF114B1B781A46642302FBAD
:1016200003F30F4A9818FB79134A632116F070F8F8
:101630000A4B1B785A1C0C4B83FB02139910D317CF
:10164000C91A0B469B000B445B00D11ACAB2034B6C
:101650001A7000BF1037BD4680BD00BFD504002002
:10166000EC000020888C010867666666A08C010883
:1016700035060020E4050020B08C010880B586B056
:1016800002AF78607B681B78303BFB720023BB8124
:101690000123FB731DE0FB7B7A6813441B782F2B1F
:1016A0001AD9FB7B7A6813441B78392B14D8BB8971
:1016B0001A46920013445B009AB2FB7B79680B4494
:1016C0001B789BB213449BB2303BBB81FB7B013345
:1016D000FB73FB7B052BDED9BB89002B00F09680CA
:1016E000BB8942F20F72934200F29080494B1B7803
:1016F0001A46642302FB03F3474A9818FA7ABB8917
:1017000000931346454A632116F002F8414B1B78BB
:101710005A1C434B83FB02139910D317C91A0B466B
:101720009B000B445B00D11ACAB23A4B1A70394B7A
:101730001B781A46642302FB03F3374A9818BA89C8
:10174000FB7A00931346374A632115F0E1FF314BD2
:101750001B785A1C324B83FB02139910D317C91AFA
:101760000B469B000B445B00D11ACAB2294B1A707E
:10177000BB891B0A99B22C4B1B781A46C9B22B4B5A
:1017800003F83210284B1B78BA89D1B2274ADB0004
:1017900013440A465A70244B1B78244ADB00134436
:1017A000FE229A70204B1B78204ADB001344002253
:1017B000DA701D4B1B781D4ADB00134400221A719E
:1017C000194B1B78194ADB00134400225A71164B3F
:1017D0001B78164ADB00134400229A71124B1B78C7
:1017E000124ADB0013440022DA710F4B1B785A1C9B
:1017F0000B4B83FB02139910D317C91A0B469B009E
:101800000B445B00D11ACAB2074B1A7000BF1037E5
:10181000BD4680BDD5040020EC000020CC8C010822
:1018200067666666A08C010835060020E405002086
:1018300080B586B002AF78607B681B78303BFB7266
:101840000023BB810123FB731DE0FB7B7A681344FB
:101850001B782F2B1AD9FB7B7A6813441B78392B02
:1018600014D8BB891A46920013445B009AB2FB7BE2
:1018700079680B441B789BB213449BB2303BBB810D
:10188000FB7B0133FB73FB7B052BDED9BB89002B74
:1018900000F09780BB8942F20F72934200F2918070
:1018A0004A4B1B781A46642302FB03F3484A9818F4
:1018B000FA7ABB8900931346464A632115F028FF44
:1018C000424B1B785A1C444B83FB02139910D317CD
:1018D000C91A0B469B000B445B00D11ACAB23B4BA2
:1018E0001A703A4B1B781A46642302FB03F3384AFA
:1018F0009818BA89FB7A00931346384A632115F089
:1019000007FF324B1B785A1C334B83FB0213991091
:10191000D317C91A0B469B000B445B00D11ACAB2FD
:101920002A4B1A702E4B1B781A462E4B002103F8B7
:1019300032102B4B1B782B4ADB00134400225A70C9
:10194000274B1B78274ADB001344FF229A70BB8980
:101950001B0A9AB2224B1B78D1B2224ADB001344F5
:101960000A46DA701E4B1B78BA89D1B21D4ADB00D9
:1019700013440A461A711A4B1B781A4ADB001344A7
:1019800000225A71164B1B78164ADB0013440022C2
:101990009A71134B1B78134ADB0013440022DA714F
:1019A0000F4B1B785A1C0C4B83FB02139910D31757
:1019B000C91A0B469B000B445B00D11ACAB2084BF4
:1019C0001A7000BF1037BD4680BD00BFD50400208F
:1019D000EC000020E08C010867666666F48C010864
:1019E00035060020E405002080B588B002AF78609D
:1019F0007868FEF7EDFB0346FB740023BB8201F021
:101A00008DF9034603F57A73FB60FB7C062B25D921
:101A1000FB7C063BFB751DE0FB7D7A6813441B785D
:101A20002F2B14D9FB7D7A6813441B78392B0ED8E1
:101A3000BB8A1A46920013445B009AB2FB7D796818
:101A40000B441B789BB213449BB2303BBB82FB7DA3
:101A50000133FB75FA7DFB7C9A42DDD3BB8A002BF8
:101A600039D01F4B1B88BA8A9A4234D01C4ABB8A91
:101A700013801C4B1B781A46642302FB03F31A4A9B
:101A800098187B681B78A3F13002BB8A0093134639
:101A9000164A632115F03CFE124B1B785A1C144B5E
:101AA00083FB02139910D317C91A0B469B000B44F2
:101AB0005B00D11ACAB20B4B1A70002000F018F963
:101AC00001E0FFF77BFC01F029F90246FB68934235
:101AD000F7D8FEF71DFF00BF1837BD4680BD00BF19
:101AE00000000020D5040020EC000020048D010837
:101AF0006766666680B594B002AF7860002387F8A9
:101B000046300023FB6007F110032E220021184607
:101B100015F0A4FF01F002F9034603F57A733B6464
:101B20000B2387F847302DE097F847307A68134445
:101B30001B780D2B2AD997F847307A6813441B7805
:101B4000C82B23D897F847307A6813441B78242B86
:101B500013D097F84630312B0FD897F847307A6872
:101B60001A4497F84630127848333B4403F83C2C2B
:101B700097F84630013387F8463097F847300133FD
:101B800087F8473097F84730632BCDD997F8463020
:101B9000052B34D91C4B1B781A46642302FB03F334
:101BA0001A4A98187B681B78A3F1300207F10C03DE
:101BB00000931346164A632115F0AAFD124B1B78B9
:101BC0005A1C144B83FB02139910D317C91A0B46E6
:101BD0009B000B445B00D11ACAB20B4B1A7007F181
:101BE0000C03184600F084F801E0FFF7E7FB01F072
:101BF00095F802463B6C9342F7D8FEF789FE00BF8A
:101C00004837BD4680BD00BFD5040020EC00002051
:101C10001C8D01086766666680B58EB000AF002334
:101C20007B6007F108032E220021184615F016FFED
:101C30002C4B1B689AB22C4B1A802B4B1B88002B09
:101C400005D0294B1B8842F20F72934202D9264BD2
:101C500001221A80002387F837302CE097F83730BC
:101C600001339B0003F1006303F5C0231A6897F862
:101C70003730D2B238333B4403F8342C97F837303E
:101C800038333B4413F8343C0D2B07D997F83730E1
:101C900038333B4413F8343CC82B07D997F8373016
:101CA00038333B44002203F8342C08E097F83730EF
:101CB000013387F8373097F83730312BCED93B795D
:101CC0000D2B07D93B79C72B04D83B1D184615F0BF
:101CD00043FB03E0054815F03FFB00BF00BF38376A
:101CE000BD4680BD00000608000000206C8D010884
:101CF0002DE9B04388B000AF78600023BB610023BA
:101D00007B6100233B610023FB6003F023F8072382
:101D1000BB6101237B613D4B00221A603B4B0222D9
:101D20001A613A4ABB699360384A7B69D36007F10C
:101D30000C031946354803F06FF9354B1B68344ADC
:101D400023F480631360324B1B68314A23F4007321
:101D500013602F4B1B682E4A43F4805313602C4BA7
:101D60001B682B4A23F480531360294B1B68284AB5
:101D700043F400631360264B1B68254A23F4006379
:101D80001360234B1B68224A43F400731360204BFB
:101D90001B681F4A43F4806313601E4B3B611E4B5C
:101DA0001B889BB200229846914642464B463969B1
:101DB000022002F07BFF7B68002B1BD00023FB7707
:101DC00015E0FB7F01339B001A463B69D118FB7F6E
:101DD0007A6813441B78DBB200221C461546224663
:101DE0002B46022002F062FFFB7F0133FB77FB7F73
:101DF000312BE6D902F0D0FF4FF4FA7000F09AFFD1
:101E000000BF2037BD46BDE8B08300BF40060020BC
:101E1000003C0240000006080000002080B400AF33
:101E200072B600BFFEE7000080B500AF174B184A3E
:101E30001A60164B4FF482725A60144B00229A605B
:101E4000124B0022DA60114B00221A610F4B002264
:101E50005A610E4B4FF400729A610C4B0822DA6102
:101E60000A4B00221A62094B00225A62074B0022D9
:101E70009A62064B0A22DA62044804F02DF80346FF
:101E8000002B01D0FFF7CAFF00BF80BD5406002021
:101E90000030014080B500AF174B184A1A60164B4E
:101EA0004FF482725A60144B00229A60124B002247
:101EB000DA60114B00221A610F4B00225A610E4B5F
:101EC0004FF400729A610C4B0022DA610A4B002237
:101ED0001A62094B00225A62074B00229A62064B93
:101EE0000A22DA62044803F0F7FF0346002B01D010
:101EF000FFF794FF00BF80BDAC0600200038004013
:101F000080B500AF174B184A1A60164B4FF4827217
:101F10005A60144B00229A60124B0022DA60114B77
:101F200000221A610F4B00225A610E4B4FF40072CF
:101F30009A610C4B0022DA610A4B00221A62094BAB
:101F400000225A62074B00229A62064B0A22DA628A
:101F5000044803F0C1FF0346002B01D0FFF75EFFEA
:101F600000BF80BD04070020003C004080B590B059
:101F700000AF786007F12C0300221A605A609A6063
:101F8000DA601A617B681B686A4A93424AD100236F
:101F9000BB62694B5B6C684A43F480535364664B85
:101FA0005B6C03F48053BB62BB6A00237B62624BB1
:101FB0001B6B614A43F0010313635F4B1B6B03F020
:101FC00001037B627B6A00233B625B4B1B6B5A4ABB
:101FD00043F002031363584B1B6B03F002033B6295
:101FE0003B6A6023FB6202233B6300237B63032382
:101FF000BB630523FB6307F12C0319464F4803F02D
:102000002DF92023FB6202233B6300237B63032320
:10201000BB630523FB6307F12C031946484803F013
:102020001DF982E07B681B68464A93424BD100232E
:10203000FB61414B1B6C404A43F4804313643E4BAD
:102040001B6C03F48043FB61FB690023BB613A4BCB
:102050001B6B394A43F004031363374B1B6B03F0CC
:102060000403BB61BB6900237B61334B1B6B324AAA
:1020700043F002031363304B1B6B03F002037B61DD
:102080007B690C23FB6202233B6300237B630323F6
:10209000BB630523FB6307F12C0319462A4803F0B1
:1020A000DDF84FF48063FB6202233B6300237B6314
:1020B0000323BB630523FB6307F12C031946204868
:1020C00003F0CCF831E07B681B68204A93422CD1A6
:1020D00000233B61184B1B6C174A43F40043136405
:1020E000154B1B6C03F400433B613B690023FB6011
:1020F000114B1B6B104A43F0040313630E4B1B6B15
:1021000003F00403FB60FB684FF4E053FB6202231F
:102110003B6300237B630323BB630623FB6307F15D
:102120002C031946084803F099F800BF4037BD4614
:1021300080BD00BF00300140003802400000024076
:10214000000402400038004000080240003C00400B
:1021500080B483B000AF00237B60104B5B6C0F4AF0
:1021600043F4804353640D4B5B6C03F480437B600A
:102170007B6800233B60094B1B6C084A43F080538B
:102180001364064B1B6C03F080533B603B6800BF3D
:102190000C37BD465DF8047B704700BF0038024035
:1021A00080B483B000AF78607B681B6803F02003C5
:1021B000202B0CBF01230023DBB218460C37BD4691
:1021C0005DF8047B704780B483B000AF78607B68B3
:1021D0001B6803F08003802B0CBF01230023DBB2BC
:1021E00018460C37BD465DF8047B704780B489B053
:1021F00000AF78607B680C33FB60FB6853E8003FFE
:10220000BB60BB6823F08003FB617B680C33FA6919
:10221000BA617B617969BA6941E800233B613B6936
:10222000002BE7D100BF00BF2437BD465DF8047B1B
:10223000704780B483B000AF78607B685B68DBB2C6
:1022400018460C37BD465DF8047B704780B483B0F8
:1022500000AF78600B46FB70FA787B685A6000BF6D
:102260000C37BD465DF8047B704780B400AFFEE7D5
:1022700080B400AFFEE780B400AFFEE780B400AFEB
:10228000FEE780B400AFFEE780B400AF00BFBD46FC
:102290005DF8047B704780B400AF00BFBD465DF8B9
:1022A000047B704780B400AF00BFBD465DF8047B7F
:1022B0007047000080B500AF15F032F8094B1B687D
:1022C0000133084A1360084B1B680133064A136048
:1022D000064B1B680133054A136000F00BFD00BF7D
:1022E00080BD00BFD804002038060020E005002093
:1022F00080B500AF024801F097F800BF80BD00BF75
:10230000C400002080B500AF024801F08DF800BF86
:1023100080BD00BFC400002098B500AF0D48FFF796
:102320003FFF0346002B12D00B4B00221A600B4BD1
:102330001B781C460748FFF77CFF03461A46084BEC
:102340001A55064B1B780133DAB2044B1A7000BFE2
:1023500098BD00BF00480040E0050020DC050020DB
:10236000DC04002080B500AF2348FFF72CFF0346B4
:10237000002B40D0214B00221A60214B1B781846BD
:10238000204B1B781946204A642300FB03F31344B7
:102390000B441B78002B17D11748FFF727FF184B6A
:1023A0001B785A1C194B83FB02139910D317C91AB7
:1023B0000B469B000B445B00D11ACAB2104B1A703B
:1023C000104B00221A7016E00D4B1B7818460D4B6F
:1023D0001B7819460C4A642300FB03F313440B4497
:1023E0001B7819460448FFF731FF064B1B78013371
:1023F000DAB2044B1A7080BD00140140D8040020EA
:10240000D4040020D6040020EC0000206766666635
:1024100080B400AF01231846BD465DF8047B7047C9
:1024200080B483B000AF78603960054B16221A6023
:102430004FF0FF3318460C37BD465DF8047B7047FC
:102440002C9B002080B582B000AF78604FF0FF3148
:102450007868FFF7E5FFFEE780B586B000AFF8606B
:10246000B9607A6000237B610AE0AFF30080014627
:10247000BB685A1CBA60CAB21A707B6901337B61AF
:102480007A697B689A42F0DB7B6818461837BD464C
:1024900080BD80B586B000AFF860B9607A60002377
:1024A0007B6109E0BB685A1CBA601B781846AFF321
:1024B00000807B6901337B617A697B689A42F1DB3A
:1024C0007B6818461837BD4680BD80B483B000AF26
:1024D00078604FF0FF3318460C37BD465DF8047B3B
:1024E000704780B483B000AF786039603B684FF4C8
:1024F00000525A60002318460C37BD465DF8047B35
:10250000704780B483B000AF7860012318460C3761
:10251000BD465DF8047B704780B485B000AFF860BD
:10252000B9607A60002318461437BD465DF8047B15
:102530007047000080B487B000AF7860144A154B34
:10254000D31A7B617B693B61134B1B68002B02D163
:10255000114B124A1A60104B1A687B6813443A698F
:102560009A4205D20E4B0C221A604FF0FF3309E05D
:10257000094B1B68FB60084B1A687B681344064ACA
:102580001360FB6818461C37BD465DF8047B704736
:1025900000000220006000005C070020409B00203B
:1025A0002C9B002080B400AF064BD3F88830054A3E
:1025B00043F47003C2F8883000BFBD465DF8047B69
:1025C000704700BF00ED00E080B400AF044BDB6853
:1025D0001B0A03F007031846BD465DF8047B7047ED
:1025E00000ED00E080B483B000AF0346FB7197F9C3
:1025F0000730002B0BDBFB7903F01F02074997F92B
:1026000007305B09012000FA02F241F8232000BFE5
:102610000C37BD465DF8047B704700BF00E100E069
:1026200080B483B000AF03463960FB7197F907307F
:10263000002B0ADB3B68DAB20C4997F9073012012C
:10264000D2B20B4483F800230AE03B68DAB20849AF
:10265000FB7903F00F03043B1201D2B20B441A764C
:1026600000BF0C37BD465DF8047B704700E100E019
:1026700000ED00E080B489B000AFF860B9607A6026
:10268000FB6803F00703FB61FB69C3F10703042B3D
:1026900028BF0423BB61FB690433062B02D9FB6905
:1026A000033B00E000237B614FF0FF32BB6902FA7D
:1026B00003F3DA43BB681A407B699A404FF0FF315D
:1026C0007B6901FA03F3D9437B680B401343184637
:1026D0002437BD465DF8047B704780B483B000AFFB
:1026E00078607B68DB6843F400527B68DA6000BF87
:1026F0000C37BD465DF8047B704780B483B000AFF3
:1027000078607B681B6923F490427B681A617B6860
:102710005B6923F02A027B685A6100BF0C37BD4613
:102720005DF8047B7047000080B485B000AF78602E
:10273000084B1A6B07497B6813430B63054B1A6BF5
:102740007B681340FB60FB6800BF1437BD465DF833
:10275000047B70470038024080B485B000AF7860D9
:10276000084B1A6C07497B6813430B64054B1A6CC2
:102770007B681340FB60FB6800BF1437BD465DF803
:10278000047B70470038024080B485B000AF7860A9
:10279000084B5A6C07497B6813434B64054B5A6CD2
:1027A0007B681340FB60FB6800BF1437BD465DF8D3
:1027B000047B70470038024080B58EB000AF07F14F
:1027C0001C0300221A605A609A60DA601A615A612A
:1027D0009A613B1D00221A605A609A60DA601A61A1
:1027E0005A614FF48020FFF7B7FF0820FFF79CFFE6
:1027F0004FF440737B600223BB600323FB60002324
:102800003B6100237B610723BB613B1D19461948CF
:1028100003F05DFFFFF7D8FE0346002200211846B3
:10282000FFF728FF034619462720FFF7F9FE272068
:10283000FFF7D8FE4FF41653FB6100233B620023E1
:102840007B620023BB620C23FB6200233B630023FB
:102850007B6307F11C031946074804F04DFB06484B
:10286000FFF74BFF0448FFF738FF00BF3837BD467E
:1028700080BD00BF000C02400048004080B58EB013
:1028800000AF07F11C0300221A605A609A60DA60F8
:102890001A615A619A613B1D00221A605A609A605F
:1028A000DA601A615A612020FFF76EFF0420FFF7FB
:1028B0003BFFC0237B600223BB600323FB6000233C
:1028C0003B6100237B610823BB613B1D194619480E
:1028D00003F0FDFEFFF778FE0346002200211846B4
:1028E000FFF7C8FE034619464720FFF799FE472029
:1028F000FFF778FE4FF41653FB6100233B62002381
:102900007B620023BB620C23FB6200233B6300233A
:102910007B6307F11C031946074804F0EDFA0648EB
:10292000FFF7EBFE0448FFF7D8FE00BF3837BD467F
:1029300080BD00BF0008024000140140DFF834D021
:102940000D480E490E4A002302E0D458C450043307
:10295000C4188C42F9D30B4A0B4C002301E01360DE
:102960000432A242FBD3FFF71DFE15F07FF8FEF7FD
:102970003BF870470000022000000020A800002063
:1029800040C00108A80000203C9B0020FEE780B466
:1029900083B000AF786039607B68002B0BD03B6858
:1029A000DB68002B07D03B689B68002B03D03B689B
:1029B0001B69002B02D14FF0FF3314E03B681A680B
:1029C0007B689A603B685A687B68DA603B68DA68C3
:1029D0007B685A613B689A687B681A613B681A6930
:1029E0007B689A61002318460C37BD465DF8047B6E
:1029F000704780B586B000AF78600023FB6000238D
:102A0000BB6000237B6100233B617B685B68002B1C
:102A10007CD17B689B68002B02D07B689B689847C1
:102A20007B6820221A6000237B611CE07B685B6965
:102A300007F108021921786998470346002B03DA49
:102A40006FF004033B610BE0BB6803F01F037A697E
:102A50009A4205D17B687A691A6000233B6105E0E0
:102A60007B6901337B617B691F2BDFD97B681B6826
:102A70001F2B02D96FF002033B613B69002B45D14C
:102A80007B681B697A6810684FF400420021984700
:102A90000346002B37DB7B685B697A68106807F1B7
:102AA0000802002198470346002B28DB7B689B69BE
:102AB00098470346FB601CE07B689B699847034688
:102AC0001A46FB68D31AB3F5FA7F0ED87B685B69A8
:102AD0007A68106807F10802002198470346002B26
:102AE00007DA6FF004033B6110E06FF001033B6114
:102AF0000CE0BB6803F40043002BDDD106E06FF06F
:102B000004033B6102E06FF003033B613B69002B70
:102B100012D17B689B6998470346FB6000BF7B68C6
:102B20009B69984703461A46FB68D31AB3F5FA6FB8
:102B3000F5D97B6801225A603B6918461837BD46B3
:102B400080BD80B584B000AF78600023FB607B68F7
:102B50005B697A68106807F10C0201219847034607
:102B6000002B02DA6FF004036EE07B685B697A6821
:102B7000106807F10C02012198470346002B02DA86
:102B80006FF0040360E0FB6803F00403002B01D145
:102B9000012359E07B685B697A68106807F10C02D1
:102BA000002198470346002B02DA6FF004034BE044
:102BB000FB6803F48053002B1BD1FB6803F4005324
:102BC000002B06D0FB6803F48073002B01D0022396
:102BD0003AE0FB6803F40053002B01D0032333E0F9
:102BE000FB6803F48073002B01D004232CE0052341
:102BF0002AE07B685B697A68106807F10C02102193
:102C000098470346002B02DA6FF004031CE0FB68D0
:102C100003F48073002B01D1062315E0FB6803F059
:102C20000603042B01D102230EE0FB6803F0060328
:102C3000002B01D1032307E0FB6803F00603062BFA
:102C400001D1042300E0052318461037BD4680BD9E
:102C500080B500AF0E4B1B680D4A43F40073136040
:102C60000B4B1B680A4A43F480631360084B1B68D4
:102C7000074A43F480731360032000F0DFFE0F2047
:102C800000F008F8FFF764FA0023184680BD00BF83
:102C9000003C024080B582B000AF7860124B1A68E9
:102CA000124B1B7819464FF47A73B3FBF1F3B2FB66
:102CB000F3F3184600F0F7FE0346002B01D0012382
:102CC0000EE07B680F2B0AD8002279684FF0FF30A6
:102CD00000F0BFFE064A7B681360002300E001237A
:102CE00018460837BD4680BD040000200C000020B7
:102CF0000800002080B400AF064B1B781A46064B34
:102D00001B681344044A136000BFBD465DF8047B92
:102D1000704700BF0C0000206007002080B400AFA7
:102D2000034B1B681846BD465DF8047B704700BF27
:102D30006007002080B584B000AF7860FFF7EEFF39
:102D4000B8607B68FB60FB68B3F1FF3F05D00A4BBE
:102D50001B781A46FB681344FB6000BFFFF7DEFFD9
:102D60000246BB68D31AFA689A42F7D800BF00BF80
:102D70001037BD4680BD00BF0C00002080B584B078
:102D800000AF78607B68002B01D10123EDE07B6808
:102D900093F82030DBB2002B02D17868FDF724FCD9
:102DA0007B681B681A687B681B6842F001021A6026
:102DB000FFF7B4FFF86012E0FFF7B0FF0246FB68D0
:102DC000D31A0A2B0BD97B685B6A43F400327B6809
:102DD0005A627B68052283F820200123C5E07B68C6
:102DE0001B685B6803F00103002BE5D07B681B6860
:102DF0001A687B681B6822F002021A60FFF78EFFD8
:102E0000F86012E0FFF78AFF0246FB68D31A0A2B2C
:102E10000BD97B685B6A43F400327B685A627B683B
:102E2000052283F8202001239FE07B681B685B68F4
:102E300003F00203002BE5D17B681B7E012B08D138
:102E40007B681B681A687B681B6842F080021A6006
:102E500007E07B681B681A687B681B6822F08002A9
:102E60001A607B685B7E012B08D17B681B681A683F
:102E70007B681B6842F040021A6007E07B681B68B1
:102E80001A687B681B6822F040021A607B689B7E90
:102E9000012B08D17B681B681A687B681B6842F0AD
:102EA00020021A6007E07B681B681A687B681B6851
:102EB00022F020021A607B68DB7E012B08D17B6840
:102EC0001B681A687B681B6822F010021A6007E012
:102ED0007B681B681A687B681B6842F010021A60E6
:102EE0007B681B7F012B08D17B681B681A687B6895
:102EF0001B6842F008021A6007E07B681B681A68CA
:102F00007B681B6822F008021A607B685B7F012BDC
:102F100008D17B681B681A687B681B6842F0040252
:102F20001A6007E07B681B681A687B681B6822F0E0
:102F300004021A607B689A687B68DB681A437B68C6
:102F40001B691A437B685B6942EA03017B685B6823
:102F50005A1E7B681B680A43DA617B6800225A624A
:102F60007B68012283F82020002318461037BD46D5
:102F700080BD000080B487B000AF786039607B68A6
:102F80001B687B617B6893F82030FB74FB7C012B12
:102F900003D0FB7C022B40F0BE80654B7B617B69DC
:102FA000D3F8003243F001027B69C3F800227B6949
:102FB000D3F8003223F47C527B69C3F800227B698A
:102FC000D3F800223B685B6A1B021A437B69C3F893
:102FD00000223B685B6903F01F03012202FA03F33E
:102FE000FB607B69D3F81C22FB68DB431A407B69DA
:102FF000C3F81C223B68DB69002B23D17B69D3F823
:103000000C22FB68DB431A407B69C3F80C223B6847
:10301000DB6819043B685B689BB23A6852691943E4
:103020007B69483243F832103B689B6819043B685F
:103030001B689AB23B685B690A4379694833DB00D5
:103040000B445A603B68DB69012B22D17B69D3F8C2
:103050000C22FB681A437B69C3F80C223B681B688F
:1030600019043B685B689BB23A68526919437B69F3
:10307000483243F832103B689B6819043B68DB68B0
:103080009AB23B685B690A4379694833DB000B44B9
:103090005A603B689B69002B09D17B69D3F80422F5
:1030A000FB68DB431A407B69C3F8042207E07B69B5
:1030B000D3F80422FB681A437B69C3F804223B68F7
:1030C0001B69002B09D17B69D3F81422FB68DB4311
:1030D0001A407B69C3F8142207E07B69D3F81422F5
:1030E000FB681A437B69C3F814223B681B6A012BF7
:1030F00007D17B69D3F81C22FB681A437B69C3F8AC
:103100001C227B69D3F8003223F001027B69C3F8EB
:103110000022002306E07B685B6A43F480227B6820
:103120005A62012318461C37BD465DF8047B704780
:103130000064004080B584B000AF78607B6893F88D
:103140002030DBB2012B2ED17B68022283F82020B5
:103150007B681B681A687B681B6822F001021A6092
:10316000FFF7DCFDF86012E0FFF7D8FD0246FB68D0
:10317000D31A0A2B0BD97B685B6A43F400327B6855
:103180005A627B68052283F82020012312E07B68C5
:103190001B685B6803F00103002BE5D17B6800220C
:1031A0005A62002306E07B685B6A43F400227B6876
:1031B0005A62012318461037BD4680BD80B489B0DD
:1031C00000AFF860B9607A603B60FB6893F820302C
:1031D000FB77FB681B689B68BB61FB7F012B03D0FF
:1031E000FB7F022B40F0B880BB6903F08063002BAB
:1031F0000AD1BB6903F00063002B05D1BB6903F062
:103200008053002B00F0A080BB691B0E03F003036A
:103210007B617B69022B07D9FB685B6A43F4000280
:10322000FB685A6201239EE001227B699A403B6859
:103230001A60BB689B68002B0DD1BB681B685A05E0
:10324000BB68DB68F96809681A437B6918331B019E
:103250000B441A600FE0BB685B68DA00BB689B68D0
:103260001A43BB68DB68F96809681A437B6918333D
:103270001B010B441A60FB681968BB681A697B69FB
:1032800018331B010B4404331A60BB681B7D012BF0
:1032900011D1FB681A687B6918331B01134404338E
:1032A0001B68FA68116843F480727B6918331B014C
:1032B0000B4404331A607B6807331B781A067B685B
:1032C00006331B781B041A437B6805331B781B02EB
:1032D00013437A68043212781046FA68116843EA98
:1032E00000027B691B010B4403F5C6731A607B68FF
:1032F00003331B781A067B6802331B781B041A43BE
:103300007B6801331B781B0213437A6812781046DE
:10331000FA68116843EA00027B691B010B4403F55C
:10332000C4731A60FB681A687B6918331B01134465
:103330001B68FA68116843F001027B6918331B01AE
:103340000B441A6000230EE0FB685B6A43F4001232
:10335000FB685A62012306E0FB685B6A43F4802243
:10336000FB685A62012318462437BD465DF8047B8A
:10337000704780B485B000AF78600023FB607B6845
:1033800093F82030FB72FB7A012B02D0FB7A022BE0
:103390001DD17B681B689B6803F08063002B02D003
:1033A000FB680133FB607B681B689B6803F000636C
:1033B000002B02D0FB680133FB607B681B689B68B5
:1033C00003F08053002B02D0FB680133FB60FB68E5
:1033D00018461437BD465DF8047B704780B485B04D
:1033E00000AF786039607B6893F82030FB73FB7B1B
:1033F000012B02D0FB7B022B09D17B681B6859692A
:103400007B681B683A680A435A61002306E07B68C0
:103410005B6A43F480227B685A62012318461437A2
:10342000BD465DF8047B704780B58AB000AF786018
:1034300000237B627B681B685B693B627B681B685F
:103440005B68FB617B681B689B68BB617B681B6872
:10345000DB687B617B681B681B693B617B681B6861
:103460009B69FB603B6A03F00103002B7CD0BB69C6
:1034700003F00103002B23D07B681B6801229A60B4
:10348000BB6903F00203002B03D0786800F083F9D6
:1034900016E0BB6903F00403002B04D07B6A43F4FD
:1034A00000637B620CE0BB6903F00803002B04D0CF
:1034B0007B6A43F480537B6202E0786800F089F90C
:1034C000BB6903F48073002B24D07B681B684FF426
:1034D00080729A60BB6903F40073002B03D0786894
:1034E00000F063F916E0BB6903F48063002B04D09D
:1034F0007B6A43F400537B620CE0BB6903F4006316
:10350000002B04D07B6A43F480437B6202E078683E
:1035100000F069F9BB6903F48033002B24D07B6889
:103520001B684FF480329A60BB6903F40033002BB0
:1035300003D0786800F043F916E0BB6903F48023F8
:10354000002B04D07B6A43F400437B620CE0BB6930
:1035500003F40023002B04D07B6A43F480337B62A6
:1035600002E0786800F049F93B6A03F00803002B99
:103570000CD07B6903F01003002B07D07B6A43F467
:1035800000737B627B681B681022DA603B6A03F081
:103590000403002B0BD07B6903F00803002B06D03B
:1035A0007B681B680822DA60786800F03AF93B6AA9
:1035B00003F00203002B09D07B681B68DB6803F073
:1035C0000303002B02D0786800F021F93B6A03F076
:1035D0004003002B0CD03B6903F01003002B07D0F5
:1035E0007B6A43F480637B627B681B6810221A61EC
:1035F0003B6A03F02003002B0BD03B6903F0080368
:10360000002B06D07B681B6808221A61786800F0DE
:103610001CF93B6A03F01003002B09D07B681B6880
:103620001B6903F00303002B02D0786800F003F954
:103630003B6A03F40033002B0BD0FB6903F010034B
:10364000002B06D07B681B6810225A60786800F057
:1036500006F93B6A03F48033002B0BD0FB6903F0BF
:103660000803002B06D07B681B6808225A60786824
:1036700000F0FFF83B6A03F40043002B7BD0FB69AA
:1036800003F00403002B72D03B6A03F48073002B19
:1036900008D0FB6803F00103002B03D07B6A43F0E2
:1036A00001037B623B6A03F40073002B08D0FB68C4
:1036B00003F00203002B03D07B6A43F002037B621A
:1036C0003B6A03F48063002B08D0FB6803F004031B
:1036D000002B03D07B6A43F004037B623B6A03F454
:1036E0000063002B43D0FB6803F07003002B3ED037
:1036F000FB6803F07003602B2BD0602B2ED8502B6F
:1037000022D0502B2AD8402B19D0402B26D8302B32
:1037100010D0302B22D8102B02D0202B05D01DE04A
:103720007B6A43F008037B6219E07B6A43F0100375
:103730007B6214E07B6A43F020037B620FE07B6ACC
:1037400043F040037B620AE07B6A43F080037B62C4
:1037500005E07B6A43F480737B6200E000BF7B6816
:103760001B689A697B681B6822F070029A617B680B
:103770001B6804225A607B6A002B08D07B685A6A57
:103780007B6A1A437B685A62786800F07CF800BF55
:103790002837BD4680BD80B483B000AF786000BFDD
:1037A0000C37BD465DF8047B704780B483B000AF32
:1037B000786000BF0C37BD465DF8047B704780B46D
:1037C00083B000AF786000BF0C37BD465DF8047B66
:1037D000704780B483B000AF786000BF0C37BD463F
:1037E0005DF8047B704780B483B000AF786000BFA1
:1037F0000C37BD465DF8047B704780B483B000AFE2
:10380000786000BF0C37BD465DF8047B704780B41C
:1038100083B000AF786000BF0C37BD465DF8047B15
:10382000704780B483B000AF786000BF0C37BD46EE
:103830005DF8047B704780B483B000AF786000BF50
:103840000C37BD465DF8047B704780B483B000AF91
:10385000786000BF0C37BD465DF8047B704780B4CC
:1038600083B000AF786000BF0C37BD465DF8047BC5
:10387000704780B483B000AF786000BF0C37BD469E
:103880005DF8047B704780B483B000AF786000BF00
:103890000C37BD465DF8047B7047000080B485B0EE
:1038A00000AF78607B6803F00703FB600C4BDB68BC
:1038B000BB60BA684FF6FF031340BB60FB681A0297
:1038C000BB68134343F0BF6343F40033BB60044A57
:1038D000BB68D36000BF1437BD465DF8047B7047FA
:1038E00000ED00E080B400AF044BDB681B0A03F07E
:1038F00007031846BD465DF8047B704700ED00E005
:1039000080B483B000AF0346FB7197F90730002BFA
:103910000BDBFB7903F01F02074997F907305B09BE
:10392000012000FA02F241F8232000BF0C37BD4607
:103930005DF8047B704700BF00E100E080B483B015
:1039400000AF03463960FB7197F90730002B0ADBA3
:103950003B68DAB20C4997F907301201D2B20B4436
:1039600083F800230AE03B68DAB20849FB7903F0E8
:103970000F03043B1201D2B20B441A7600BF0C377E
:10398000BD465DF8047B704700E100E000ED00E01B
:1039900080B489B000AFF860B9607A60FB6803F06A
:1039A0000703FB61FB69C3F10703042B28BF042352
:1039B000BB61FB690433062B02D9FB69033B00E0C2
:1039C00000237B614FF0FF32BB6902FA03F3DA4355
:1039D000BB681A407B699A404FF0FF317B6901FA5E
:1039E00003F3D9437B680B40134318462437BD4685
:1039F0005DF8047B7047000080B582B000AF78604E
:103A00007B68013BB3F1807F01D301230FE00A4AB9
:103A10007B68013B53600F214FF0FF30FFF78EFFB3
:103A2000054B00229A60044B07221A6000231846B7
:103A30000837BD4680BD00BF10E000E080B582B011
:103A400000AF78607868FFF729FF00BF0837BD46F0
:103A500080BD80B586B000AF0346B9607A60FB7365
:103A600000237B61FFF73EFF78617A68B968786967
:103A7000FFF78EFF024697F90F3011461846FFF701
:103A80005DFF00BF1837BD4680BD80B582B000AF76
:103A90000346FB7197F907301846FFF731FF00BF67
:103AA0000837BD4680BD80B582B000AF78607868C9
:103AB000FFF7A2FF034618460837BD4680BD000049
:103AC00080B584B000AF78607B68002B01D1012302
:103AD0006CE07B68D3F88430002B06D17B6823220E
:103AE000C3F88420786803F001FD0023BB60314BEC
:103AF0005B6C304A43F4804353642E4B5B6C03F49D
:103B00008043BB60BB682C4B5B682B4A23F40003EB
:103B10005360294B5A687B689B68274913434B6065
:103B2000254B5B687B681B6803F580531B687A68CC
:103B3000126843F0010302F580521360FFF7EEF8BC
:103B4000F86011E0FFF7EAF80246FB68D31AB3F514
:103B5000FA7F09D97B680422C3F888207B68E022B9
:103B6000C3F88420012321E07B681B6803F58053A0
:103B70001B6803F00103002BE4D1786800F0F0FD2E
:103B8000786800F097FE786800F0EDFE7B685B686F
:103B90001A460021786800F055FE7B680022C3F8C1
:103BA00088207B681022C3F8842000231846103731
:103BB000BD4680BD003802400038014080B584B069
:103BC00000AF78607B68D3F88430102B50D17B68CD
:103BD0002322C3F884207B680422DA66786800F028
:103BE000FDF97B681B681A687B681B6842F0080255
:103BF0001A607B681B681B68FB600120FFF79AF85E
:103C00007B681B68FA681A607B681B681A687B68A7
:103C10001B6842F004021A607B681B681B68FB602B
:103C20000120FFF787F87B681B68FA681A607868DC
:103C300000F036FC7B681B6803F580539B697A684B
:103C4000126843F4005302F5805293617B681B684D
:103C500003F580539B697A68126843F0020302F50A
:103C6000805293617B682322C3F88420002300E004
:103C7000012318461037BD4680BD80B584B000AF23
:103C800078607B68D3F88430232B4AD17B68232269
:103C9000C3F884207B681B6803F580539B697A68AE
:103CA000126823F4005302F5805293617B681B680D
:103CB00003F580539B697A68126823F0020302F5CA
:103CC000805293617B681B681A687B681B6822F0CE
:103CD00004021A607B681B681B68FB600120FFF709
:103CE00029F87B681B68FA681A60786800F0D8FBCE
:103CF0007B681B681A687B681B6822F008021A60E0
:103D00007B681B681B68FB600120FFF713F87B686A
:103D10001B68FA681A607B681022C3F884200023AD
:103D200000E0012318461037BD4680BD80B586B03F
:103D300000AFF860B9607A60BB68002B09D1FB68FE
:103D4000D3F8883043F00102FB68C3F888200123D0
:103D50007CE0FB68D3F88430232B76D10022B9684D
:103D6000F86800F06DFE0346002B09D0FB68D3F81D
:103D7000883043F00202FB68C3F88820012365E025
:103D8000BFF34F8F00BFFB689A6AFB68063253F897
:103D900022307B61FB689B6A5A1CFB689A62FB6855
:103DA0009B6A032B04D9FB689B6A1A1FFB689A6203
:103DB000FB68996AFB681A68FB68063153F8213082
:103DC00002F580525360FEF7A9FF386137E0FB68C7
:103DD0001B6803F580535B6903F40053002B11D07B
:103DE000FB68D3F8883043F00802FB68C3F88820EA
:103DF000FB681B6803F580535A69FB68C3F88C2085
:103E0000012323E07B68B3F1FF3F18D0FEF786FF64
:103E100002463B69D31A7A689A4202D37B68002B28
:103E20000DD1FB68D3F8883043F00402FB68C3F877
:103E300088207B694FF040521A60012306E07B69BD
:103E40001B68002BC3DB002300E001231846183752
:103E5000BD4680BD80B588B000AF78603960002372
:103E60007B610023FB733B68002B09D17B68D3F88F
:103E7000883043F001027B68C3F888200123A8E062
:103E80007B68D3F88430232B01D00123A1E07B6829
:103E9000DB6DFB617B68FA69123253F82230BB613B
:103EA0007B68DB6EC3F10403BB606AE0BB691B681F
:103EB00003F48073002B07D0BB699A697B689A670B
:103EC000BB69DA697B685A67BB691B6803F40073D6
:103ED000002B03D17B68DB6F002B40D0BB691B68D4
:103EE00003F40073002B05D07B6800221A667B6800
:103EF00000225A667B685B693B61BB691B6803F4FF
:103F00008073002B0CD0BB691B681B0CC3F30D0323
:103F1000043B3B61BB691A687B681A670123FB732A
:103F2000BB699A68BB691A627B6803F17C007B6895
:103F300003F18001BB691B6A1A463B699BB203F01F
:103F400085FC7B681B6E5A1C7B681A667B685A6E00
:103F50003B691A447B685A66BB6900221A62FB6996
:103F60000133FB61FB69032B02D9FB69043BFB6155
:103F70007B68FA69123253F82230BB617B690133E6
:103F80007B61BB691B68002B06DB7A69BB689A42C0
:103F900002D2FB7B002B89D07B68DA6E7B691A44E6
:103FA0007B68DA667B68DB6E002B02D0786800F0F5
:103FB00015F87B68FA69DA65FB7B012B08D17B6811
:103FC000DA6F3B681A607B680022DA67002300E042
:103FD000012318462037BD4680BD000080B588B05B
:103FE00000AF78600023FB600123FB747B689B6E4D
:103FF000FB617B68FA69123253F822307B617B687F
:10400000DB6EBB6140E07B691B6A002B12D107F1BC
:104010000C03184603F0EAFBFB68002B02D10023D7
:10402000FB7407E0FB681A467B691A62FB681A4654
:104030007B699A60FB7C002B26D07B689B6D002BF4
:1040400003D17B691E4A5A6003E07B694FF48C42BE
:104050005A60BFF35F8F00BF7B691B6843F000426B
:104060007B691A60FB690133FB61FB69032B02D991
:10407000FB69043BFB617B68FA69123253F822301A
:104080007B61BB69013BBB61BB69002B02D0FB7C40
:10409000002BB8D17B68DB6EBA699A420CD07B6882
:1040A0001B6803F580531A46002393607B68FA6906
:1040B0009A667B68BA69DA6600BF2037BD4680BD64
:1040C0000046008080B586B000AFF860B9607A60C5
:1040D0003B60FB681B681B697B617B6903F01C0309
:1040E0007B61BB68DB029BB27A6913437B617B68AF
:1040F0009B0103F4F8637A6913437B617B6923F0C6
:1041000002037B617B6943F001037B61FB681B68F1
:104110007A691A61FEF702FE38610DE0FEF7FEFDD6
:1041200002463B69D31AB3F5803F01D3012310E067
:10413000FB681B681B697B617B6903F00103002B33
:10414000ECD1FB681B685B699BB21A463B681A603E
:10415000002318461837BD4680BD80B586B000AF35
:10416000F860B9607A603B60FB681B681B697B6123
:104170007B6903F01C037B61BB68DB029BB27A693D
:1041800013437B617B689B0103F4F8637A691343F3
:104190007B617B6943F002037B617B6943F0010330
:1041A0007B613B689AB2FB681B685A61FB681B68BD
:1041B0007A691A61FEF7B2FD38610DE0FEF7AEFDD7
:1041C00002463B69D31AB3F5803F01D3012309E0CE
:1041D000FB681B681B697B617B6903F00103002B93
:1041E000ECD1002318461837BD4680BD80B483B09B
:1041F00000AF786039603B68002B01D10123D9E022
:104200007B681B681B6803F01003002B14BF01239D
:104210000023DBB21A463B6883F828207B681B68C2
:104220001B6803F060023B685A627B681B681B686E
:1042300003F40073002B0CBF01230023DBB21A46EA
:104240003B6883F820207B681B681B6803F480337D
:10425000002B14BF01230023DBB21A463B68DA7738
:104260007B681B681B6803F40053002B0CBF012301
:104270000023DBB21A463B689A777B681B681B6891
:1042800003F48053002B14BF01230023DBB21A4632
:104290003B681A777B681B681B6803F400623B6805
:1042A0009A617B681B681B6803F480423B685A6113
:1042B0007B681B681B6803F48003002B0CBF012381
:1042C0000023DBB21A463B685A747B681B681B6884
:1042D00003F40003002B0CBF01230023DBB21A46BA
:1042E0003B681A747B681B681B6803F08003002B13
:1042F00014BF01230023DBB21A463B68DA737B68E4
:104300001B681B6803F460223B689A607B681B682B
:104310001B6803F48063002B14BF01230023DBB26E
:104320001A463B681A717B681B689B6903F002039D
:10433000002B14BF01230023DBB21A463B6883F82D
:1043400054207B681B689B6903F08003002B0CBF23
:1043500001230023DBB21A463B6883F84C207B68BC
:104360001B689B6903F030023B681A657B681B6819
:104370009B691B0C9AB23B689A647B681B689B69BB
:1043800003F00403002B14BF01230023DBB21A4601
:104390003B6883F856207B681B689B6903F0080321
:1043A000002B14BF01230023DBB21A463B6883F8BD
:1043B0005520002318460C37BD465DF8047B704736
:1043C00080B582B000AF786039603B68002B01D1C6
:1043D00001230BE07B68D3F88430102B05D13968BA
:1043E000786800F083F8002300E0012318460837BE
:1043F000BD4680BD80B584B000AF78607B681B6827
:104400001B69FB60FB6823F01C03FB6001F058FD97
:10441000B860BB681D4A934208D9BB681C4A9342E6
:1044200004D8FB6843F00803FB6027E0BB68184A28
:10443000934208D9BB68174A934204D2FB6843F001
:104440000C03FB601AE0BB68124A934203D3BB68BB
:10445000114A934211D9BB680F4A934208D9BB68ED
:104460000E4A934204D8FB6843F00403FB6005E066
:10447000FB6843F01003FB6000E000BF7B681B6833
:10448000FA681A6100BF1037BD4680BDFF2C3101AC
:10449000BF0E160200879303FFE0F5057FD1F008F9
:1044A00080B584B000AF78600023FB607B681B6838
:1044B00003F580539B697A68126843F4801302F510
:1044C000805293617B681B6803F580539B69FB6096
:1044D0000120FEF72FFC7B681A68FB6802F580520A
:1044E000936100BF1037BD4680BD000080B584B029
:1044F00000AF786039607B681B681B68FB60FA68F6
:10450000514B1340FB603B681B7C002B02D14FF4E6
:10451000000200E000223B685B7C002B02D14FF4DC
:10452000800300E000231A433B689B681A433B6802
:10453000DB7F1B041A433B685B6913433A68927F35
:10454000002A02D14FF4005200E000221A433B68D7
:104550001B7F1B031A433B689B691A433B681B790B
:104560009B0213433A6892F82020002A02D14FF4AC
:10457000007200E000221A433B68DB7BDB011A4338
:104580003B685B6A1A433B6893F828301B0113436E
:10459000FA681343FB607B681B68FA681A607B68E3
:1045A0001B681B68FB600120FEF7C4FB7B681B686F
:1045B000FA681A607B681B689B69FB60FA684FF6B3
:1045C00041731340FB603B689B6C1B043A6892F894
:1045D0004C20002A01D1802200E000221A433B68CF
:1045E0001B6D13433A6892F85520012A01D1082225
:1045F00000E0002213433A6892F85620012A01D1C4
:10460000042200E0002213433A6892F85420012A61
:1046100001D1022200E000221343FA681343FB6039
:104620007B681B68FA689A617B681B689B69FB6002
:104630000120FEF77FFB7B681B68FA689A6100BF68
:104640001037BD4680BD00BF0F8120FF80B584B00C
:1046500000AF786039607B681B6803F580539B6905
:10466000FB60FA683D4B1340FB603B681B7B002BF3
:1046700002D14FF0806200E000223B685B7B5B066A
:1046800013433A68527F002A02D14FF4801200E0AF
:1046900000221A433B689B7B5B051A433B685B69BE
:1046A0001A433B681B7FDB011A433B689B7F9B01DE
:1046B0001A433B681B6A1A433B6893F824309B00FB
:1046C0001343FA681343FB607B681B6803F5805350
:1046D0001A46FB6893617B681B6803F580539B69EE
:1046E000FB600120FEF726FB7B681B6803F5805307
:1046F0001A46FB6893613B681B795A063B689B68C6
:104700001A433B689B691A433B681B691A433B6821
:1047100093F82530DB011A433B689B6A9B001A43E0
:104720003B681B6813437A68126843F4000302F580
:10473000805213607B681B6803F580531B68FB6025
:104740000120FEF7F7FA7B681B6803F580531A46D1
:10475000FB68136000BF1037BD4680BD233FDEF805
:1047600080B5A6B000AF7860012387F844300123FC
:1047700087F845300023FB63002387F8533001237B
:1047800087F85230002387F85030012387F83830FB
:10479000002387F85430002387F843300023BB659B
:1047A000002387F85C300023FB67002387F8803004
:1047B0000023C7F88430002387F88A30002387F865
:1047C00088304FF48043BB644FF40063FB640023E4
:1047D00087F8893007F1340319467868FFF786FEB9
:1047E00001233B7501237B75012387F825300123C5
:1047F000BB750023FB61002387F82430002387F872
:1048000026300023BB62012387F82C3001233B7341
:104810004FF480333B614FF480033B624FF400530D
:10482000BB61012387F82D3000233B630023BB606D
:1048300007F1080319467868FFF708FF00BF9837AB
:10484000BD4680BD80B487B000AFF860B9607A60C3
:104850007B6805331B781B027A6804321278134395
:104860007B61BA68114B13441A467B6913607B68FD
:1048700003331B781A067B6802331B781B041A4328
:104880007B6801331B781B0213437A681278134349
:104890007B61BA68064B13441A467B69136000BFFC
:1048A0001C37BD465DF8047B704700BF4080024066
:1048B0004480024080B485B000AF78600023FB6084
:1048C0003EE07B68D968FA6813469B001344DB001E
:1048D0000B44BB60BB6800221A60BB6800225A60B0
:1048E000BB6800229A60BB680022DA60B9687B6806
:1048F000FA68063243F82210BB681B6843F4801242
:10490000BB681A60FB68022B0CD87B68D968FB680F
:104910005A1C13469B001344DB000B441A46BB6829
:10492000DA6004E07B68DB681A46BB68DA60BB6863
:104930001B6843F44002BB681A60FB680133FB60EC
:10494000FB68032BBDD97B6800229A627B68DA681A
:104950007B681B6803F580531A6100BF1437BD469E
:104960005DF8047B704780B485B000AF78600023A9
:10497000FB6046E07B681969FA6813469B001344A4
:10498000DB000B44BB60BB6800221A60BB680022DE
:104990005A60BB6800229A60BB680022DA60BB687C
:1049A00000221A62BB6800225A62BB684FF00042C4
:1049B0001A60BB684FF48C425A60BB685B6823F096
:1049C0000042BB685A60B9687B68FA68123243F8E3
:1049D0002210FB68022B0CD87B681969FB685A1CF3
:1049E00013469B001344DB000B441A46BB68DA6095
:1049F00004E07B681B691A46BB68DA60FB68013318
:104A0000FB60FB68032BB5D97B680022DA657B6805
:104A100000221A667B6800229A667B680022DA66AA
:104A20007B6800229A657B681A697B681B6803F5BE
:104A30008053DA6000BF1437BD465DF8047B7047D1
:104A400080B48DB000AFF860B9607A60FB6818334D
:104A50007B617B691B69FB627B691B693B6100238E
:104A60007B627B69FA6A53F822303B62BB689B68C1
:104A7000FB610023BB613B6A1B6803F00043B3F199
:104A8000004F07D07A69FB6A04339B0013445B68CC
:104A9000002B01D0022303E17B6A01337B62FB69B7
:104AA0001B681A463B6A9A603B6A5B6823F4FF53B3
:104AB00023F01F03FA6952681A433B6A5A60BB68C5
:104AC0001B6803F00103002B08D03B6A1B6823F42A
:104AD0004002BB685B691A433B6A1A60BB681B688B
:104AE00003F02003002B08D03B6A1B6823F04062D0
:104AF000BB681B691A433B6A1A60BB681B6803F0FA
:104B00000403002B05D03B6A1B6843F080023B6A1C
:104B10001A603B6A1B6843F080523B6A1A60BFF31D
:104B20005F8F00BF3B6A1B6843F000423B6A1A601C
:104B300084E03B6A1B6823F000523B6A1A607B6882
:104B4000002B06D03B6A1B6843F080423B6A1A6028
:104B500005E03B6A1B6823F080423B6A1A60FB6AEF
:104B60000133FB62FB6A032B02D9FB6A043BFB6245
:104B70007B69FA6A53F822303B623B6A1B6823F078
:104B800080523B6A1A603B6A1B6803F00043B3F132
:104B9000004F07D07A69FB6A04339B0013445B68BB
:104BA000002B29D03B69FB627B69FA6A53F82230FB
:104BB0003B620023BB6219E0BFF35F8F00BF3B6A1B
:104BC0001B6823F000423B6A1A60FB6A0133FB62F8
:104BD000FB6A032B02D9FB6A043BFB627B69FA6A1E
:104BE00053F822303B62BB6A0133BB62BA6A7B6A0C
:104BF0009A42E1D3022353E07B6A01337B62FB6973
:104C00009B68FB61FB691B681A463B6A9A603B6ABA
:104C10005B6823F4FF5323F01F03FA6952681A43B9
:104C20003B6A5A60BB690133BB61BFF35F8F00BF52
:104C30003B6A1B6843F000423B6A1A60FB699B6851
:104C4000002B7FF476AF7B68002B06D03B6A1B6895
:104C500043F080423B6A1A6005E03B6A1B6823F020
:104C600080423B6A1A603B6A1B6843F000523B6A11
:104C70001A607B695A6A7969FB6A04339B000B44AA
:104C80005A607B69FA6A1A6172B600BF7B699A6AD8
:104C9000BB6913445A1C7B699A6262B600BF002349
:104CA00018463437BD465DF8047B704780B586B042
:104CB00000AFF860B960C7E900230123FB75234BFF
:104CC0001B7E012B01D102233BE0204B01221A76EF
:104CD0004CF2503000F070F80346FB75FB7D002B62
:104CE0002BD1FB68002B05D13B781946B86800F042
:104CF0001BF916E0FB68012B05D13B881946B86803
:104D000000F0EEF80DE0FB68022B05D13B68194678
:104D1000B86800F0C3F804E0D7E90023B86800F0F1
:104D20008BF84CF2503000F047F80346FB75084B07
:104D30001B69074A23F001031361044B00221A7612
:104D4000FB7D18461837BD4680BD00BF64070020B4
:104D5000003C024080B483B000AF0023FB710B4BDA
:104D60001B69002B0BDA094B094A5A60074B094AA9
:104D70005A60064B1B69002B01DA0123FB71FB799A
:104D800018460C37BD465DF8047B7047003C024076
:104D900023016745AB89EFCD80B400AF054B1B699C
:104DA000044A43F00043136100231846BD465DF8F2
:104DB000047B7047003C024080B584B000AF78604F
:104DC0000023FB601A4B0022DA61FDF7A7FFF860B1
:104DD00010E07B68B3F1FF3F0CD07B68002B07D05D
:104DE000FDF79CFF0246FB68D31A7A689A4201D20B
:104DF000032319E00F4BDB6803F48033002BE8D169
:104E00000C4BDB6803F00103002B02D0094B01229D
:104E1000DA60084BDB6803F0F203002B03D000F0EC
:104E2000A5F8012300E0002318461037BD4680BDD9
:104E300064070020003C024080B485B000AFF860F9
:104E4000C7E90023144B1B69134A23F44073136111
:104E5000114B1B69104A43F4407313610E4B1B69DD
:104E60000D4A43F001031361FB683A681A60BFF30F
:104E70006F8F00BFD7E900014FF000024FF0000331
:104E80000A000023F968043113460B6000BF143791
:104E9000BD465DF8047B7047003C024080B483B09F
:104EA00000AF786039600D4B1B690C4A23F44073E6
:104EB00013610A4B1B69094A43F400731361074BE2
:104EC0001B69064A43F0010313617B683A681A6064
:104ED00000BF0C37BD465DF8047B7047003C0240C4
:104EE00080B483B000AF78600B467B800D4B1B69AC
:104EF0000C4A23F4407313610A4B1B69094A43F4BB
:104F000080731361074B1B69064A43F00103136169
:104F10007B687A881A8000BF0C37BD465DF8047B39
:104F2000704700BF003C024080B483B000AF78609F
:104F30000B46FB700C4B1B690B4A23F44073136147
:104F4000094B094A1B691361074B1B69064A43F069
:104F5000010313617B68FA781A7000BF0C37BD46F5
:104F60005DF8047B704700BF003C024080B400AF96
:104F7000274BDB6803F01003002B08D0254BDB69BF
:104F800043F01003234AD361214B1022DA60204BF7
:104F9000DB6803F02003002B08D01E4BDB6943F0D5
:104FA00008031C4AD3611A4B2022DA60184BDB68D5
:104FB00003F04003002B08D0164BDB6943F00403D9
:104FC000144AD361124B4022DA60114BDB6803F0C4
:104FD0008003002B08D00F4BDB6943F002030D4A1E
:104FE000D3610B4B8022DA60094BDB6803F00203CC
:104FF000002B08D0074BDB6943F02003054AD3613F
:10500000034B0222DA6000BFBD465DF8047B7047A7
:10501000003C02406407002080B584B000AF786097
:1050200039600123FB730023BB60314B1B7E012BD6
:1050300001D1022358E02E4B01221A764CF2503057
:10504000FFF7BAFE0346FB73FB7B002B48D13B689E
:105050004FF0FF321A607B681B68012B15D17B680B
:105060001B69DAB27B685B681946104600F044F8A9
:105070004CF25030FFF7A0FE0346FB731D4B1B693B
:105080001C4A23F00403136128E07B689B68BB6023
:105090001CE07B681B69DBB21946B86800F050F869
:1050A0004CF25030FFF788FE0346FB73114B1B692F
:1050B000104A23F0FA031361FB7B002B03D03B68FB
:1050C000BA681A600AE0BB680133BB607B68DA68C3
:1050D0007B689B681344BA689A42DAD300F078F888
:1050E000034B00221A76FB7B18461037BD4680BD65
:1050F00064070020003C024080B483B000AF034648
:105100003960FB710D4B1B690C4A23F4407313612A
:105110000A4B1B69094A43F004031361074B1A69E0
:10512000FB791B021343054A43F48033136100BF2C
:105130000C37BD465DF8047B704700BF003C024061
:1051400080B485B000AF78600B46FB700023FB6035
:10515000FB78002B02D10023FB6010E0FB78012BD1
:1051600003D14FF48073FB6009E0FB78022B03D17D
:105170004FF40073FB6002E04FF44073FB60134B8D
:105180001B69124A23F440731361104B1A690F49CB
:10519000FB6813430B610D4B1B690C4A23F0F803AA
:1051A00013610A4B1A697B68DB001343074A43F01B
:1051B00002031361054B1B69044A43F480331361F6
:1051C00000BF1437BD465DF8047B7047003C0240C9
:1051D00080B400AF204B1B6803F40073002B17D082
:1051E0001D4B1B681C4A23F4007313601A4B1B6889
:1051F000194A43F400631360174B1B68164A23F4E3
:1052000000631360144B1B68134A43F4007313606C
:10521000114B1B6803F48063002B17D00E4B1B68E7
:105220000D4A23F4806313600B4B1B680A4A43F456
:1052300080531360084B1B68074A23F480531360A4
:10524000054B1B68044A43F48063136000BFBD46EE
:105250005DF8047B704700BF003C024080B489B019
:1052600000AF7860396000237B6100233B6100233D
:10527000BB610023FB616BE10122FB6902FA03F3CE
:105280007B613B681B687A6913403B613A697B69C3
:105290009A4240F05A813B685B6803F00303012B9C
:1052A00005D03B685B6803F00303022B30D17B68B9
:1052B0009B68BB61FB695B00032202FA03F3DB43DB
:1052C000BA691340BB613B68DA68FB695B0002FAAC
:1052D00003F3BA691343BB617B68BA699A607B6860
:1052E0005B68BB610122FB6902FA03F3DB43BA6925
:1052F0001340BB613B685B681B0903F00102FB695B
:1053000002FA03F3BA691343BB617B68BA695A6056
:105310003B685B6803F00303032B17D07B68DB68F3
:10532000BB61FB695B00032202FA03F3DB43BA694A
:105330001340BB613B689A68FB695B0002FA03F3A8
:10534000BA691343BB617B68BA69DA603B685B6822
:1053500003F00303022B23D1FB69DA087B680832D0
:1053600053F82230BB61FB6903F007039B000F2257
:1053700002FA03F3DB43BA691340BB613B681A6965
:10538000FB6903F007039B0002FA03F3BA691343B6
:10539000BB61FB69DA087B680832B96943F82210FF
:1053A0007B681B68BB61FB695B00032202FA03F3A5
:1053B000DB43BA691340BB613B685B6803F00302DF
:1053C000FB695B0002FA03F3BA691343BB617B68B4
:1053D000BA691A603B685B6803F44033002B00F045
:1053E000B4800023FB60604B5B6C5F4A43F48043F6
:1053F00053645D4B5B6C03F48043FB60FB685B4A6A
:10540000FB699B08023352F82330BB61FB6903F050
:1054100003039B000F2202FA03F3DB43BA69134034
:10542000BB617B68524A93422BD07B68514A9342BE
:1054300025D07B68504A93421FD07B684F4A9342E5
:1054400019D07B684E4A934213D07B684D4A9342F1
:105450000DD07B684C4A934207D07B684B4A9342FD
:1054600001D107230EE008230CE006230AE0052300
:1054700008E0042306E0032304E0022302E0012302
:1054800000E00023FA6902F0030292009340BA6937
:105490001343BB613549FB699B080233BA6941F884
:1054A00023203B4B9B68BB613B69DB43BA691340DC
:1054B000BB613B685B6803F48013002B03D0BA69BF
:1054C0003B691343BB61324ABB699360304BDB6875
:1054D000BB613B69DB43BA691340BB613B685B68F6
:1054E00003F40013002B03D0BA693B691343BB617B
:1054F000274ABB69D360264B5B68BB613B69DB43D2
:10550000BA691340BB613B685B6803F40033002B4E
:1055100003D0BA693B691343BB611D4ABB69536041
:105520001B4B1B68BB613B69DB43BA691340BB6122
:105530003B685B6803F48033002B03D0BA693B6996
:105540001343BB61124ABB691360FB690133FB6102
:10555000FB690F2B7FF690AE00BF00BF2437BD461E
:105560005DF8047B704700BF0038024000380140FE
:10557000000002400004024000080240000C02400B
:10558000001002400014024000180240001C0240BB
:10559000003C014080B485B000AF78600B467B8052
:1055A0007B681A697B881340002B02D00123FB73B0
:1055B00001E00023FB73FB7B18461437BD465DF802
:1055C000047B704780B483B000AF78600B467B806B
:1055D00013467B707B78002B03D07A887B689A61B6
:1055E00003E07B881A047B689A6100BF0C37BD46D4
:1055F0005DF8047B7047000080B586B000AF78602E
:105600007B68002B01D1012367E27B681B6803F0F4
:105610000103002B75D0884B9B6803F00C03042B0F
:105620000CD0854B9B6803F00C03082B12D1824BE6
:105630005B6803F48003B3F5800F0BD17E4B1B68CE
:1056400003F40033002B5BD07B685B68002B57D1E1
:10565000012342E27B685B68B3F5803F06D1764B5D
:105660001B68754A43F4803313601DE07B685B68F8
:10567000B3F5A02F0CD1704B1B686F4A43F4802305
:1056800013606D4B1B686C4A43F4803313600BE06E
:10569000694B1B68684A23F480331360664B1B68B0
:1056A000654A23F4802313607B685B68002B13D06A
:1056B000FDF734FB386108E0FDF730FB02463B693B
:1056C000D31A642B01D9032307E25B4B1B6803F455
:1056D0000033002BF0D014E0FDF720FB386108E028
:1056E000FDF71CFB02463B69D31A642B01D9032347
:1056F000F3E1514B1B6803F40033002BF0D100E0C1
:1057000000BF7B681B6803F00203002B63D04A4B89
:105710009B6803F00C03002B0BD0474B9B6803F0F6
:105720000C03082B1CD1444B5B6803F48003002B53
:1057300016D1414B1B6803F00203002B05D07B6898
:10574000DB68012B01D00123C7E13B4B1B6823F031
:10575000F8027B681B69DB00374913430B603AE0B2
:105760007B68DB68002B20D0344B01221A60FDF7E8
:10577000D5FA386108E0FDF7D1FA02463B69D31A41
:10578000022B01D90323A8E12B4B1B6803F0020372
:10579000002BF0D0284B1B6823F0F8027B681B69B4
:1057A000DB00254913430B6015E0244B00221A60EF
:1057B000FDF7B4FA386108E0FDF7B0FA02463B693C
:1057C000D31A022B01D9032387E11B4B1B6803F07B
:1057D0000203002BF0D17B681B6803F00803002B49
:1057E00036D07B685B69002B16D0154B01221A60FE
:1057F000FDF794FA386108E0FDF790FA02463B693C
:10580000D31A022B01D9032367E10B4B5B6F03F023
:105810000203002BF0D01BE0094B00221A60FDF7B9
:105820007DFA38610EE0FDF779FA02463B69D31A3A
:10583000022B07D9032350E1003802400000474201
:10584000800E4742884B5B6F03F00203002BEAD1C6
:105850007B681B6803F00403002B00F09780002393
:10586000FB75814B1B6C03F08053002B0FD1002381
:10587000BB607D4B1B6C7C4A43F0805313647A4BB6
:105880001B6C03F08053BB60BB680123FB75774B37
:105890001B6803F48073002B18D1744B1B68734A88
:1058A00043F480731360FDF739FA386108E0FDF7BF
:1058B00035FA02463B69D31A022B01D903230CE1C6
:1058C0006A4B1B6803F48073002BF0D07B689B68E5
:1058D000012B06D1644B1B6F634A43F0010313672E
:1058E0001CE07B689B68052B0CD15F4B1B6F5E4AED
:1058F00043F0040313675C4B1B6F5B4A43F00103E7
:1059000013670BE0584B1B6F574A23F001031367D3
:10591000554B1B6F544A23F0040313677B689B6845
:10592000002B15D0FDF7FAF938610AE0FDF7F6F91A
:1059300002463B69D31A41F28832934201D90323CC
:10594000CBE0494B1B6F03F00203002BEED014E0B9
:10595000FDF7E4F938610AE0FDF7E0F902463B693A
:10596000D31A41F28832934201D90323B5E03E4B6A
:105970001B6F03F00203002BEED1FB7D012B05D141
:10598000394B1B6C384A23F0805313647B689B6946
:10599000002B00F0A180344B9B6803F00C03082B14
:1059A0005CD07B689B69022B41D1314B00221A608D
:1059B000FDF7B4F9386108E0FDF7B0F902463B693C
:1059C000D31A022B01D9032387E0274B1B6803F06E
:1059D0000073002BF0D17B68DA697B681B6A1A437D
:1059E0007B685B6A9B011A437B689B6A5B08013B8F
:1059F0001B041A437B68DB6A1B061B4913434B607D
:105A00001B4B01221A60FDF789F9386108E0FDF7A8
:105A100085F902463B69D31A022B01D903235CE0C6
:105A2000114B1B6803F00073002BF0D054E0104BB7
:105A300000221A60FDF772F9386108E0FDF76EF98F
:105A400002463B69D31A022B01D9032345E0064BDA
:105A50001B6803F00073002BF0D13DE07B689B696D
:105A6000012B07D1012338E00038024000700040CC
:105A7000600047421B4B5B68FB607B689B69012BA6
:105A800028D0FB6803F480027B68DB699A4221D14D
:105A9000FB6803F03F027B681B6A9A421AD1FA68DE
:105AA00047F6C07313407A68526A9201934211D14B
:105AB000FB6803F440327B689B6A5B08013B1B0474
:105AC0009A4207D1FB6803F070627B68DB6A1B06B1
:105AD0009A4201D0012300E0002318461837BD4642
