:020000040800F2
:10000000000002202117000891160008931600082E
:1000100095160008971600089916000800000000C1
:100020000000000000000000000000009B16000817
:100030009D16000800000000711700089F160008B8
:100040007117000871170008711700087117000870
:100050007117000871170008711700087117000860
:100060007117000871170008711700087117000850
:100070007117000871170008711700087117000840
:100080007117000871170008711700087117000830
:100090007117000871170008711700087117000820
:1000A00071170008AD1600087117000871170008D5
:1000B000AF160008711700087117000871170008C3
:1000C00071170008711700087117000871170008F0
:1000D00071170008B516000871170008711700089D
:1000E00071170008711700087117000871170008D0
:1000F00071170008711700087117000871170008C0
:1001000071170008711700087117000871170008AF
:10011000711700087117000871170008711700089F
:10012000711700087117000871170008711700088F
:10013000711700087117000871170008711700087F
:10014000711700087117000871170008711700086F
:10015000E5160008711700087117000871170008EC
:10016000711700087117000871170008711700084F
:1001700071170008711700087117000800000000CF
:08018000711700087117000857
:1001880010B5054C237833B9044B13B10448AFF3C9
:1001980000800123237010BD3C00002000000000F7
:1001A8005021000808B5034B1BB103490348AFF3BE
:1001B800008008BD00000000400000205021000819
:1001C80053B94AB9002908BF00281CBF4FF0FF31B6
:1001D8004FF0FF3000F088B9ADF1080C6DE904CE9E
:1001E80000F006F8DDF804E0DDE9022304B070470A
:1001F8002DE9F047089D8E4604468846002B4AD1D3
:100208008A42174662D9B2FA82F64EB1C6F1200385
:1002180001FA06F820FA03F3B74043EA0808B440A5
:100228004FEA174E1FFA87FCB8FBFEF1230C0EFBB2
:10023800118843EA084301FB0CF29A4209D9FB18DA
:1002480001F1FF3080F0EA809A4240F2E7800239FB
:100258003B449A1AA3B2B2FBFEF00EFB102243EA0B
:10026800024300FB0CFC9C4509D9FB1800F1FF3246
:1002780080F0D6809C4540F2D3803B44023840EA67
:100288000140A3EB0C0300211DB1F3400022C5E996
:100298000032BDE8F0878B4205D90DB1C5E90001F0
:1002A80000210846F5E7B3FA83F1002946D17345E2
:1002B80002D3824200F20581841A6EEB0302012008
:1002C8009046002DE5D0C5E90048E2E7002A00F095
:1002D8009080B2FA82F6002E40F0A4808A1A030CAD
:1002E8004FEA174E80B2BCB20121B2FBFEFC0EFBF6
:1002F8001C2243EA024304FB0CF29A4207D9FB187A
:100308000CF1FF3802D29A4200F2E080C4469B1AF0
:10031800B3FBFEF20EFB123340EA034302FB04F484
:100328009C4207D9FB1802F1FF3002D29C4200F22E
:10033800CA8002461B1B42EA0C40A5E7C1F1200611
:100348008B4022FA06F71F430EFA01F420FA06F34F
:100358002EFA06FE4FEA1749234300FA01F81FFA5E
:1003680087FCBEFBF9F01C0C09FB10EE44EA0E44B6
:1003780000FB0CFEA64502FA01F209D93C1900F16E
:10038800FF3A80F09C80A64540F2998002383C44B0
:10039800A4EB0E041FFA83FEB4FBF9F309FB134424
:1003A8004EEA044403FB0CFCA44508D93C1903F1AC
:1003B800FF3E80F08280A4457FD9023B3C4443EA5B
:1003C8000040A4EB0C04A0FB02EC64457346E14634
:1003D80062D35FD05DB1B8EB030264EB090404FAA1
:1003E80006F622FA01F31E43CC40C5E90064002159
:1003F8004FE7B1FBF2FC010C41EA0E4180B240EA42
:1004080001423B4638463C46B846BE462026B1FB2C
:10041800F7F1A2EB080241EA0C4166E7014618E74A
:1004280010462CE7C6F120022EFA02F3B740B1407D
:1004380020FA02F24FEA174E0A43B3FBFEF8BCB2A9
:100448000EFB1833110C41EA034108FB04F9B040D4
:1004580089454FEA104380B23ED9791808F1FF3C2C
:1004680001D289451FD8A1EB0901B1FBFEF909FBAF
:1004780004F80EFB191192B242EA0142424529D210
:10048800BA1809F1FF31C4D24245C2D2A9F102011A
:100498003A44BEE7F0459DD2BEEB02036CEB070C75
:1004A8000138E14696E7A7EB09094944A8F1020C8F
:1004B800B1FBFEF909FB04F8DBE773467FE750461A
:1004C80066E70846FDE63B44023A33E7ACF1020C26
:1004D8003B441CE749469CE7A1EB0901C446B1FB34
:1004E800FEF909FB04F8C4E7704700BF024403465D
:1004F800934200D1704703F8011BF9E770B50D4D21
:100508000D4C641BA4100026A64209D10B4D0C4CBF
:1005180001F01AFE641BA4100026A64205D170BD86
:1005280055F8043B98470136EEE755F8043B9847E1
:100538000136F2E7747200087472000874720008D9
:1005480078720008034AD2F8883043F47003C2F87E
:100558008830704700ED00E02DE9F04F02460D6845
:1005680095FAA5F44FF0010CB4FA84F403274FF080
:100578000F0E35FA04F001D1BDE8F08F0CFA04F340
:100588002B406AD04868461E012E1ED893FAA3F85D
:1005980093FAA3F9B8FA88F896684FEA480807FA70
:1005A80008F826EA0808B9FA89F98E684FEA49096D
:1005B80006FA09F646EA08069660566826EA030827
:1005C800CE685E4348EA0606566093FAA3F8B8FA7E
:1005D80088F8D66893FAA3F94FEA480807FA08F8A2
:1005E80026EA0808B9FA89F90E694FEA490906FAAC
:1005F80009F646EA08060228D6601BD193FAA3F644
:10060800D1F814905EB3B6FA86FABAF1070F26DC71
:10061800D2F820804FEA8A0A4FF00F0BB6FA86F616
:100628000BFA0AFAB60028EA0A0809FA06F646EAB0
:100638000806166293FAA3F6B6FA86F6D2F8008090
:1006480093FAA3F37600B3FA83F307FA06F65B008E
:1006580028EA0606984030431060013489E71E0AEC
:1006680096FAA6FABAFA8AFAD2F8248096FAA6F680
:100678004FEA8A0AB6FA86F6B6000EFA0AFA28EAA5
:100688000A0809FA06F949EA08065662D2E700009C
:10069800254A0368904212D0B0F1804F0FD0A2F5DE
:1006A8007C4290420BD002F58062904207D002F55E
:1006B8008062904203D002F57842904208D14A689D
:1006C80023F070031343CA6823F44073134316E0FE
:1006D800164A9042F7D002F580629042F3D002F5B4
:1006E80080629042EFD0A2F598329042EBD002F5AA
:1006F80080629042E7D002F580629042E3D00360C6
:100708008B68C3620B888362074B984203D003F55A
:100718008063984201D10B690363436943F0010385
:1007280043610020704700BF0000014000400140C5
:10073800B1F5807F30B500F09B8005D801292DD018
:1007480010295FD0012030BDB1F5805FFAD1036A6E
:10075800156823F480530362036A4468C16921F46D
:10076800E64141EA0521156923F4005343EA0533BC
:10077800556823F4805343EA0533584DA84203D003
:1007880005F58065A84204D1956924F4804444EABB
:100798008514D2684460C161026430E0036A156858
:1007A80023F001030362036A4168846924F0730437
:1007B8002C43156923F002032B43556823F00103EA
:1007C8002B43464DA84203D005F58065A84212D1B7
:1007D800556923F0080343EA8503956823F0040369
:1007E80043EA8503956921F480712943D56921F489
:1007F800007141EA4501D268416084614263036245
:100808000020A0E7036A156823F010030362036A57
:100818004168846924F4E64444EA0524156923F010
:10082800200343EA0513556823F0100343EA051330
:100838002A4DA84203D005F58065A84213D1556911
:1008480023F0800343EA8513956823F0400343EAC5
:100858008513956921F4806141EA8501D56921F400
:10086800006141EAC501D268416084618263C6E7DC
:10087800036A156823F480730362036A4168C469D4
:1008880024F073042C43156923F4007343EA052309
:10089800556823F4807343EA0523104DA84203D01A
:1008A80005F58065A84213D1556923F4006343EA2E
:1008B8008523956823F4806343EA8523956921F4A9
:1008C800805141EA0511D56921F4005141EA4511E9
:1008D800D2684160C461C26391E700BF0000014073
:1008E8002DE9F341044640B30368DE0710D42368BA
:1008F8009D075BD42368190700F19D8023685A0778
:1009080000F1BD80A369002B40F0248100202CE079
:100918008D4B9A6802F00C02042A07D09A6802F0FC
:100928000C02082A0BD15B68590208D5864B1B6854
:100938009A03DCD56368002BD9D1012015E06368E0
:10094800814DB3F5803F13D12B6843F480332B607E
:1009580000F0DEFA7C4E054633689B03C7D400F0EE
:10096800D7FA401B6428F7D9032002B0BDE8F0810C
:10097800B3F5A02F04D12B6843F480232B60E3E761
:100988002A6822F480322A602A6822F480222A60A7
:10099800002BDDD100F0BCFA06462B689F03A6D5D4
:1009A80000F0B6FA801B6428F7D9DDE7664B9A6831
:1009B80012F00C0F07D09A6802F00C02082A11D125
:1009C8005B685D020ED4604A1368990702D5E36834
:1009D800012BB2D11368216923F0F80343EAC1035C
:1009E800136087E7E268594BB2B101221A6000F040
:1009F8008FFA554D06462B689B0707D52B68226949
:100A080023F0F80343EAC2032B6073E700F080FA8F
:100A1800801B0228EFD9A7E71A6000F079FA4A4E3E
:100A2800054633689F077FF565AF00F071FA401BF4
:100A38000228F6D998E76269444B82B10122C3F8CB
:100A4800802E00F065FA404E0546736F9B073FF510
:100A580055AF00F05DFA401B0228F6D984E7C3F8C9
:100A6800802E00F055FA384E0546736F9F077FF5C4
:100A780045AF00F04DFA401B0228F6D974E7324B17
:100A88001A6C12F0805228D101921A6C42F08052EE
:100A98001A641B6C03F080530193019B01272C4DB2
:100AA8002B68D8051BD5A368274D012B27D12B6FA1
:100AB80043F001032B6700F02BFA234E054641F261
:100AC8008838336F9A0739D5002F3FF41BAF1E4A79
:100AD800136C23F08053136414E70027DFE72B68B7
:100AE80043F480732B6000F013FA06462B68D9058F
:100AF800D9D400F00DFA801B0228F7D934E7052B6A
:100B080004D12B6F43F004032B67D0E72A6F22F040
:100B180001022A672A6F22F004022A67002BCAD131
:100B280000F0F6F941F2883806462B6F9B07CBD5C3
:100B380000F0EEF9801B4045F7D915E700F0E8F919
:100B4800401B4045BDD90FE700380240000047422E
:100B580000700040374DAA6802F00C02082A3ED007
:100B6800022B354B4FF000021A662BD100F0D0F95A
:100B780006462B6899011FD4D4E907321343626AE9
:100B880043EA8213E26A43EA0263A26A5208013A1C
:100B980043EA02436B60284B264D01221A6600F097
:100BA800B7F904462B689A013FF5B0AE00F0B0F9EA
:100BB800001B0228F6D9D7E600F0AAF9801B022804
:100BC800D7D9D1E600F0A4F904462B689B017FF53C
:100BD8009DAE00F09DF9001B0228F6D9C4E6012B52
:100BE8003FF4ABAE6B68E26903F4800191427FF495
:100BF800A4AE216A03F03F028A427FF49EAE616A86
:100C080047F6C0721A40B2EB811F7FF496AEA26A13
:100C1800520803F44031013AB1EB024F7FF48DAE34
:100C2800E26A03F07063B3EB026F14BF0120002087
:100C38009BE600BF0038024000004742134908B550
:100C48008B6803F00C03042B1CD0082B1CD14A68BA
:100C58004B68496813F4800314BF0D480D48C1F36D
:100C6800881118BF002302F03F02A1FB0001FFF723
:100C7800A7FA064B5B68C3F3014301335B00B0FB83
:100C8800F3F008BD0248FCE70248FAE700380240E2
:100C980000127A000024F4002DE9F0410D460446C4
:100CA80010B90120BDE8F081434B1A6802F0070231
:100CB8008A4228D321688F072DD4C80740D43E4BD9
:100CC8001A6802F00702AA4265D8226851076BD455
:100CD800130707D5394A2169936823F4604343EA27
:100CE800C1039360FFF7AAFF344B354A9B68C3F3EF
:100CF8000313D35CD840334B1860334B186800F0AB
:100D0800BDF80020CEE7CAB21A701B6803F00703CB
:100D18008B42C6D1CEE7294B11F0040F1EBF9A684B
:100D280042F4E0529A600E0742BF9A6842F4604269
:100D38009A609A68A06822F0F00202439A60BCE7C1
:100D480062681E4B012A1CD11B6813F4003FA8D00F
:100D58001A4EB36823F003031343B36000F0D8F8C6
:100D680041F288380746B368626803F00C03B3EBB6
:100D7800820FA4D000F0CCF8C01B4045F3D9032063
:100D880090E7911E01291B6802D813F0007FDEE767
:100D980013F0020FDBE7EAB21A701B6803F00703CF
:100DA800AB427FF47EAF90E70449E0688B6823F498
:100DB800E05303438B608BE7003C0240003802405D
:100DC8007021000800000020080000200749CA68B8
:100DD80022F4E0620302120403F4E063120C1343EA
:100DE80043F0BF6343F40033CB60704700ED00E08D
:100DF800164B30B5DC68C4F30224C4F10703251D83
:100E0800042B28BF0423062D4FF0FF358CBF033C6D
:100E1800002405FA03F321EA0303A54022EA0502A8
:100E2800A340002843EA0203ACBF00F16040084A2F
:100E38004FEA0313B8BF00F00F00DBB2AABF00F5FA
:100E48006140135480F8003330BD00BF00ED00E06E
:100E580014ED00E00138B0F1807F0BD24FF0E023B1
:100E6800054A5861F02182F8231000200722986172
:100E78001A6170470120704700ED00E038B50E4B4D
:100E88001A784FF47A73B3FBF2F30C4A05461068EC
:100E9800B0FBF3F0FFF7DEFF044658B90F2D09D871
:100EA800024629464FF0FF30FFF7A2FF044B2046C9
:100EB8001D6038BD0120FCE7040000200000002070
:100EC8000800002008B50B4B1A6842F400721A603B
:100ED8001A6842F480621A601A6842F480721A60D2
:100EE8000320FFF773FF0120FFF7C8FF00F0F8FBAE
:100EF800002008BD003C0240034A044B11681B78DF
:100F08000B441360704700BF580000200400002005
:100F1800014B1868704700BF58000020034B044A73
:100F28009B68C3F30313D35CD84070470038024072
:100F380070210008034B044A9B68C3F38223D35CE7
:100F4800D84070470038024068210008034B044A23
:100F58009B68C3F34233D35CD840704700380240E3
:100F6800682100080E4A0F49536813F4800F0E4B8E
:100F780008BF0B46082810D150685168526800F025
:100F88003F00B3FBF0F0C1F388135843C2F30143A9
:100F980001335B00B0FBF3F070470020704700BFDF
:100FA800003802400024F40000127A00064B9868CA
:100FB80000F00C00042803D0082803D1FFF7D2BFA3
:100FC80002487047024870470038024000127A0011
:100FD8000024F40010B50446FFF7E8FF2060FFF78F
:100FE8009DFF60600146FFF7A5FFA0600846FFF778
:100FF800ADFFE06010BD000030B5C3689B0485B04C
:1010080004460D4602D5012005B030BD4B68C968BD
:10101800C2680B4329690B43A96922F416420B43A2
:1010280022F00C021343C3600369AA6823F44053F7
:101038001343036143696A6923F4407313434361AB
:101048006846FFF7C7FF284B9C4228D10398002821
:10105800D9D02B68002BD6D0AA691921B2F5004F38
:10106800A0FB010130D1DA184FF0000545EB05036C
:10107800FFF7A6F86422B0FBF2F102FB1103DB00D4
:101088003233B3FBF2F303F007025B0002EB011209
:1010980003F4F87313449BB2A3600020B4E7134B26
:1010A8009C4201D10298D2E7114B9C42FAD003F539
:1010B8004C439C42CAD0A3F548439C42F2D003F566
:1010C80080639C429FD1EDE79A009B0FFFF778F869
:1010D8006422B0FBF2F102FB11031B013233B3FBB4
:1010E800F2F303EB0113D6E700100140004400407F
:1010F8000048004010B594B0102200210AA8FFF75C
:10110800F5F91422002103A8FFF7F0F9204B00217C
:1011180001911A6C42F080521A641B6C03F08053E0
:101128000193019B1B4B02911A6842F480421A609A
:101138001B6803F480430293029B01214FF4803320
:101148000224CDE908134FF480030420CDE90E43AF
:10115800A823CDE91003062308A812941393FFF7D8
:10116800BFFB08B172B6FEE70F23CDE90334059043
:101178004FF4A0524FF48053052103A8CDE906236C
:10118800FFF78AFD08B172B6FEE714B010BD00BFC4
:10119800003802400070004008B5FFF793FEFFF7E3
:1011A800A9FF00F04FF800F0C5F800F0F5F800F0DE
:1011B80079F900F003FA1B4B03F10C0252E8002FF7
:1011C80022F0100203F10C0040E800210029F3D1BD
:1011D80003F10C0252E8002F22F0800203F10C0008
:1011E80040E800210029F3D103F1140252E8002F4E
:1011F80022F0010203F1140040E800210029F3D194
:1012080003F10C0252E8002F42F0200203F10C0017
:1012180040E800210029F3D100F00EFB00F088FC23
:10122800FCE700BF00100140054B1A6B024382B077
:101238001A631B6B03400193019B02B0704700BF08
:10124800003802402DE9F041102486B022460021E2
:1012580002A8FFF74BF92046FFF7E6FF0420FFF747
:10126800E3FF8020FFF7E0FF0120FFF7DDFF02200A
:10127800FFF7DAFFDFF8B880294F0820FFF7D4FF1F
:101288004FF07F43C8F818304FF0805303250024EF
:10129800BB616946FF234046CDE900350494FFF75A
:1012A8005BF943F6FF7369461E480494CDE900359F
:1012B800FFF752F949F6FF1369461B480494CDE934
:1012C8000035FFF749F94EF2FF73694638460126A3
:1012D800CDE900350494FFF73FF94FF47F436946A1
:1012E8004046CDE90036CDE902540496FFF734F9BB
:1012F8004FF4805369463846CDE90036CDE90254AB
:101308000496FFF729F94FF6FF73694607480494D6
:10131800CDE90035FFF720F906B0BDE8F08100BF40
:10132800000402400008024000000240000C024095
:10133800001002400A4B1A6B42F4800282B01A6312
:101348001B6B03F480030193019B064BDB68064B80
:10135800002283F8442310229A6002B0704700BF2D
:101368000038024000ED00E000E100E000F0070076
:10137800C0F10702031D042A28BF0422062B4FF0E0
:10138800FF3303FA02F38CBF0338002021EA03017C
:1013980001FA00F07047000010B586B01422002151
:1013A80001A8FFF7A3F83A4B5A6C42F001025A64BD
:1013B8005B6C03F001030093009B364BD3F8882045
:1013C80022F0606242F04062C3F88820D3F8882097
:1013D80022F0C00242F04002C3F88820D3F88820E7
:1013E80042F44032C3F88820D3F8882022F490725F
:1013F800C3F88820D3F8882022F40072C3F8882024
:10140800D3F8882042F48062C3F88820D3F8882073
:1014180022F4C052C3F88820D3F8882022F4C042AE
:10142800C3F88820D3F89C2022F00402C3F89C203B
:10143800194BD8680F21C0F30220FFF797FF174B0D
:101448000001C0B283F819034FF000721A60144CFF
:1014580000230D2201A92046CDE90323ADF804306D
:1014680002930593FFF714F9236823F080032360A0
:10147800A36823F4804323F00703A360636823F081
:1014880070036360A36823F08003A36006B010BDF7
:10149800003802400064024000ED00E000E100E096
:1014A80000000140F0B597B01422002103A8FFF70F
:1014B8001DF83E4E202200210EA8FFF717F818222B
:1014C800002108A8FFF712F8336C43F001033364D6
:1014D800336C03F001030293029B354BD86800215B
:1014E800C0F30220FFF742FF324B0001C0B283F87D
:1014F8001C034FF080521A604FF08044002540F6DC
:101508006C2303A94FF08040CDE90535ADF80C50A8
:101518000495FFF7BDF8236823F080032360E3698F
:1015280043F00803E36160230227CDE90E350EAAD4
:101538004FF4CA734FF480712046CDE911371095E6
:10154800FFF7F6F8E36923F00403E361E36943F482
:101558000063E3610EAA4FF4A0734FF48051204654
:101568001193FFF7E5F8E369134823F48063E36117
:10157800636823F070036360A36823F08003A360AB
:10158800336B3B433363336B3B400193019B4FF415
:101598000063CDE908370323CDE90A3508A90123FB
:1015A800CDE90C33FEF7D8FF17B0F0BD0038024084
:1015B80000ED00E000E100E00004024010B590B04A
:1015C8001C22002109A8FEF791FF254B25485A6CDB
:1015D80042F010025A645A6C02F010020292029A07
:1015E8001A6B42F001021A631B6B03F001030193AB
:1015F800019B4FF4C06202230024CDE90323032397
:10160800CDE9053403A9072308930794FEF7A4FF3F
:10161800154BDB68154B83F8254320225A604FF49D
:101628001653CDE909340C23CDE90D34CDE90B442B
:101638000F9404F1804404F5883409A92046FFF783
:10164800DBFC236923F490432361636923F02A03B5
:101658006361E36843F40053E36010B010BD00BF5A
:10166800003802400000024000ED00E000E100E028
:10167800044B82B01A680192019A5B680193019B3E
:1016880002B0704700100140FEE7FEE7FEE7FEE704
:10169800FEE77047704708B500F080F8BDE80840DD
:1016A800FFF72ABC704700F05FBB000008B50A4B83
:1016B8001A68920605D55868BDE80840C0B200F01F
:1016C80055B8FFF7D5FFFFF7D3FFFFF7D1FFBDE808
:1016D8000840FFF7CDBF00BF0010014000F08EBBEF
:1016E80082B00C4B002100915A6C42F480425A643B
:1016F8005A6C02F480420092009A01911A6C42F0EE
:1017080080521A641B6C03F080530193019B02B052
:10171800704700BF00380240DFF834D0FEF712FFF0
:101728000C480D490D4A002302E0D458C450043334
:10173800C4188C42F9D30A4A0A4C002301E013600A
:101748000432A242FBD3FEF7D9FEFFF725FD70470E
:1017580000000220000000203C0000207C720008ED
:101768003C00002074370120FEE7000030B5074B2D
:10177800074C1B780749E25C03EB0325294488548E
:101788000132E254044B00221A6030BD5D00002093
:10179800640000206E000020600000200B4A1368DF
:1017A8000133032B10B513600FD90949094A0B7887
:1017B800D05C50B10133DBB20A20B3FBF0F400FB7C
:1017C8001433DBB20B700021D15410BD600000202F
:1017D8005D0000206400002073B5492000F0B2FAD3
:1017E800E0241D23CDE900340122202303210F48E2
:1017F8000F4D104E00F0B2FB0094012340F233125B
:101808001F210D2000F0EEFB042416F8013B009385
:1018180015F8011B282303223520013C00F0E2FBC8
:1018280014F0FF04F1D102B070BD00BFF6710008DA
:10183800952100089121000808B500F01BFABDE8C1
:101848000840FFF7C9BF000070B5A8B004460D46B0
:101858009622002102A8FEF749FEB4F57A7F2DD31F
:101868000A224FF47A73B4FBF3F3B3FBF2F102FBF1
:10187800113330338DF80830012303F1A0020A2117
:101888000DEB02006422B4FBF2F2B2FBF1F601FBAD
:101898001622303200F8982C013303F1A0020A21F5
:1018A8000DEB0200B4FBF1F2B2FBF1F601FB1622DC
:1018B8003032013300F8982CDBB205E0632C4FF08E
:1018C8000003DAD8092CE8D803F1A0020DEB0201D5
:1018D8000A220133B4FBF2F002FB104428AA52FAA0
:1018E80083F230344923002601F8984C322002F85C
:1018F800986C012100934FF487721E2300F072FB4D
:10190800FF2300931D480123322202A900F002FBA5
:1019180095B1013D344615F8013F7BB964B104F136
:10192800A0026A44164802F8983CFF230093C82294
:10193800334602A900F0EEFA28B070BD2C2B11D165
:1019480094B104F1A0036B44002403F8984CFF23DE
:1019580000930B483346C82202A90A3600F0DAFA87
:10196800B6B2D8E7942CD6D804F1A0020DEB020148
:10197800621C01F8983CD4B2CDE700BF24000020D7
:101988000C0000202DE9F0413B4B034486B013F8CE
:10199800016C4FF049080C460025282331460120E8
:1019A8001746CDF80080332204958DF8145000F0C6
:1019B80019FBCDF8008028234FF483723146392073
:1019C80000F010FBB4F57A7F31D2632C4DD9642333
:1019D800B4FBF3F330338DF8103001212A460A2086
:1019E80001F118030DEB0305B4FBF0F3B3FBF0FCB6
:1019F80000FB1C33303305F8083C4D1C05F1180377
:101A08000A210DEB0305B4FBF1F301FB134330335B
:101A180005F8083C1CB958238DF810301D22FF2307
:101A280000931648731D013204A900F073FA394671
:101A380028234FF48372124800F053FBC0F12800AA
:101A480000EBD070731C2822FF21CDE9012103EBA4
:101A580060034FF48372009209489BB239223946D9
:101A680000F000FB06B0BDE8F081092C02D9294638
:101A78001122B4E72222C1E79521000824000020A2
:101A88000C00002070B592B02822002108A8FEF7AB
:101A98002DFD234B03AA03F1100518685968144655
:101AA80003C40833AB422246F7D11B7823701D4B81
:101AB800D3F8182A0092D3F8142A0192D3F8103ACE
:101AC8000293194B089303F1C06303F2024309938D
:101AD80043F23143ADF828306D460A2108A855F87D
:101AE800046B44181C2226FA02F303F00F03483350
:101AF8006B44043A13F83C3C04F8013B131DF2D143
:101B080008312229EAD1094A002311680906FCD5BF
:101B1800013310F8011B5160222BF6D112B070BDB1
:101B2800802100080070FF1F303130310010014063
:101B38002DE9F043C1B04FF4807200216846FEF7EA
:101B4800D5FC484C484A237812789A422ED0474A06
:101B580012F803E0BEF1060F6AD9454A002703EBE5
:101B680003231344BC464FF0010838463E46394625
:101B780013F8012B3B2A1CD108F101085FFA88F8F9
:101B88000CF1010C5FFA8CFCE645F1D1012939D141
:101B98001EB169463046FFF757FE23780133DBB2A2
:101BA8000A22B3FBF2F102FB1133237041B0BDE806
:101BB800F083A2F10A05EDB2D12DE7D808F1FF357F
:101BC800032DDDD8DFE805F0020A111901EB8101C8
:101BD80002EB4101303901F0FF01D1E706EB86063F
:101BE80002EB4606303EB6B2CAE700EB800502EBD0
:101BF8004502303A02F0FF00C2E70DF8072001372E
:101C0800FFB2BDE7022908D1431E032BC5D86A4697
:101C18004FF6FF71FFF7B6FEBFE7032905D1431E54
:101C2800032BBAD86A463146F4E70429F7D0B4E75B
:101C3800BEF1050FB1D10E4903EB0323CA18CB5CE3
:101C4800472BAAD15378492BA7D19378442BA4D1F9
:101C5800D378312BA1D11379302B9ED1FFF712FF06
:101C68009BE700BF5C0000205D00002064000020AE
:101C78006E00002070B5254D254C00264FF4963295
:101C88003146284626806560FEF730FC214B224904
:101C98005E61A3F540634FF480529A6103F5C04337
:101CA800D3F8882042F01002C3F888201B4AC3F8F2
:101CB8009450C3F89020D3F88C206FF30F0242F4AD
:101CC800A07242F00102C3F88C20D3F88820A260E9
:101CD800CA6842F48072CA604FF08042106A40F4C9
:101CE80088501062D06840F00800D060106840F05A
:101CF800010010600A6842F001020A60D3F88820E7
:101D080042F00102C3F8882070BD00BF780A0020A5
:101D18006837012000100240000001401510024001
:101D2800B0F5A07F28BF0020054BF02910B528BFCB
:101D3800002140F2411404FB01331A5410BD00BFC6
:101D4800780A002038B5024600240025A8B22146AA
:101D58000135FFF7E5FFB5F5A07FF7D10134A4B24F
:101D6800F02CF2D138BD00004FF080436FF008022C
:101D780030B51A611C4B1A88013292B2B2F5037F52
:101D880086BF00221A801A80198884BF174A5A60B1
:101D9800012904D8164B4FF080529A6130BD0229B0
:101DA80003D1134B4FF48052F7E7A1F12402B2F5A7
:101DB800EF7FF3D80F489A68C0F888205A680E4D0C
:101DC800C0F894202C6844F001042C60D0F88840B6
:101DD800C90744F0010448BF02F24112C0F8884024
:101DE80048BF5A60DAE700BF68370120780A002048
:101DF800000402400064024000000140074A08490C
:101E08004FF40063D3600B6823F001030B600023D9
:101E1800C2F88830A2F5A8425361704700640240B6
:101E2800000001402DE9F04F87B0FE290093BDF86E
:101E380040300193904628D8344A002332F8024BA8
:101E48008C421AD14268B0F8129032F82360D0F868
:101E580000B002EB830100254C8806EB080292B221
:101E68000023072702921FFA83FAD14546D9009A20
:101E7800521B5244404691B236E001335E2BDDD10D
:101E88000025A9462E462C46E7E7214A002332F8CA
:101E9800024B8C420BD1C268B0F8129032F8236022
:101EA800D0F808B0858A02EB83014C88D5E7013366
:101EB8004A2BECD1E4E71BF804203A41D2070BD5B2
:101EC800554509D89DF804200593CDE90301FFF78E
:101ED80027FFDDE90413039817B90134A4B20827D2
:101EE800013F0130BFB280B2029A9042E3D172073B
:101EF8001EBF0134A4B207270133B4E708F1010873
:101F080006EB080080B207B0BDE8F08F3A71000810
:101F1800A6700008F7B5BDF8206005460C461F46B8
:101F2800217811B9104603B0F0BD202906D12B8ABB
:101F380002EB5302013A92B20134F1E701F13003A6
:101F4800DBB2022B03D834F8011B49BA89B20096D8
:101F58003B462846FFF766FF0246EDE72DE9F04FBE
:101F680085B09846BDF83890BDF83C30914401EBF7
:101F7800080B82460F4615461FFA89F907260024E2
:101F88001FFA8BFB4D4525D03846DAB215E01AF812
:101F980004103141C90708D52946CDE9022301902B
:101FA800FFF7BEFEDDE90223019816B90134A4B299
:101FB8000826013E0130B6B280B25845E7D118F084
:101FC800070F18BF013405F101051CBFA4B207268D
:101FD800ADB2D7E708F1010807EB080080B205B0F9
:101FE800BDE8F08F2DE9F04702440B44BDF820907E
:101FF8000446884696B29FB2B4420FD045465FFA6F
:1020080089FA06E0294652462046FFF789FE01353F
:10201800ADB2BD42F6D10134A4B2EDE7BDE8F08718
:10202800FE2910B50ED80D4A002332F8024BA14202
:1020380003D1426832F8230010BD01335E2BF4D17E
:102048000020F9E7064A002332F8024B8C4201D1FE
:10205800C268EFE701334A2BF6D1F1E73A7100087D
:10206800A67000082DE9F04F85B09B46BDF8389062
:10207800BDF84030BDF83CA0039307460D46904696
:102088001646297811B905B0BDE8F08F202906D188
:102098003A8A06EB5202013A96B20135F1E701F1AC
:1020A8003002D2B2022A03D835F8014B64BAA1B281
:1020B8003846FFF7B5FF3044484509DB788A00EB1E
:1020C8000B021FFA82FB10FA82F25245DBDA46460F
:1020D800039B009332465B463846FFF7A3FE06464D
:1020E800DBE72DE9F843002506460C4617469846D7
:1020F800A946217829B9738A2B449DB22846BDE8A0
:10210800F883202907D1318A09EB510101391FFAD7
:1021180081F90134EDE701F13003DBB2022B03D87A
:1021280034F8011B49BA89B23046FFF779FF4844B1
:10213800B842EEDB728AAB189DB212FA83F34345BC
:10214800DCDA4FF00009E4E7F8B500BFF8BC08BCDA
:102158009E467047F8B500BFF8BC08BC9E4670475D
:10216800000000000102030400000000000000005D
:102178000102030406070809303132333435363793
:10218800383941424344454600E01403FC295B8D3D
:10219800BF004800FC445070504044FC0000000060
:1021A80000748C84F0808084780000000000F8209F
:1021B8002020202020F80000004800F820202020BF
:1021C8002020F8000000000030102828283844EEAD
:1021D8000000000000FC444078444444F80000003B
:1021E8000000F8444478444444F80000000000FC2F
:1021F800444440404040E000000000007E24242485
:10220800242444FE8282000000FC44507050404464
:10221800FC0000000000D3545438345452D300005A
:10222800000000B0C88830080808F000000000006E
:10223800E3464A4A525262C70000241800E3464A5D
:102248004A525262C70000000000E64A50605048F7
:1022580044E600000000007E2424242424A4CE00A8
:1022680000000000EE6C6C54544444EE0000000082
:1022780000EE44447C444444EE000000000038442E
:102288008282828244380000000000FE44444444B4
:102298004444EE0000000000F8444444784040E024
:1022A80000000000003C448080808044380000002A
:1022B8000000FE921010101010380000000000EE10
:1022C8004428281010A0E0000000000038107C927C
:1022D800927C10380000000000EE442810102844BA
:1022E800EE0000000000EE444444444444FE020270
:1022F800000000EE4444444C34040E00000000008A
:10230800DD494949494949FF0000000000DD4949C4
:1023180049494949FF0101000000F890909E1212B6
:10232800123C0000000000E74242724A4A4AF700A5
:1023380000000000E0404078444444F800000000F9
:1023480000B8C4843C040484780000000000E64916
:102358004979494949E600000000003E4444443CAC
:1023680044448E0000000000000078047C848C76D1
:1023780000000000087880B8C484848478000000D5
:1023880000000000FC447C4242FC00000000000009
:1023980000FC44444440E0000000000000007E24AB
:1023A800242424FE820000000000007884FC808041
:1023B8007C00000000000000DBAD182C4ADB0000A8
:1023C8000000000000FC04780404F800000000008D
:1023D8000000E64C545464CE00000000241800E6C7
:1023E8004C545464CE00000000000000EC547048C7
:1023F80044E6000000000000007E242424A4CE004F
:10240800000000000000E7665A5A42E7000000009A
:10241800000000EE447C4444EE0000000000000090
:1024280078848484847800000000000000FE44441E
:102438004444EE00000000000000D864444444789E
:1024480040E00000000000748C8080847800000068
:1024580000000000FE9292101038000000000000FA
:1024680000E74224241810506000000030107C92CD
:102478009292927C10380000000000CC483030481E
:10248800CC00000000000000EE44444444FE02007A
:102498000000000000E742467A0207000000000042
:1024A8000000DD49494949FF00000000000000DD47
:1024B80049494949FF01000000000000F0A0BC2282
:1024C800227C00000000000000E7427A4A4AF70038
:1024D800000000000000E040784444F800000000DC
:1024E800000000F8843C048478000000000000002C
:1024F800EE51715151EE000000000000003E4444CE
:102508003C44CE000000000048007884FC80807CB9
:10251800000000000000007C84F080847800000047
:1025280000002000E020202020F80000000000909B
:1025380000E020202020F80000000404FC40404077
:10254800404040E000000000000808F840404040DB
:10255800E000000080808080800000800000000093
:1025680000D8D89090000000000000000024244803
:10257800FC4848FC48909000000020709080601053
:1025880090E020200000000040A04018E010281033
:1025980000000000000038404060A890780000006B
:1025A80000008080808000000000000000000040E3
:1025B80040808080808080404000000080804040D3
:1025C80040404040808000000020F820505000002B
:1025D80000000000000000101010FE101010000095
:1025E8000000000000000000006040C08000000003
:1025F80000000000FC0000000000000000000000D7
:10260800000000C0C0000000000808101020204092
:10261800408080000000007884848484848478006A
:102628000000000020E02020202020F8000000000A
:102638000070880810204088F800000000007088AA
:10264800083008088870000000000018284848FC76
:1026580008081C00000000007C40407804048478CE
:102668000000000000384080F08888887000000072
:102678000000FC8404080810101000000000007816
:1026880084847884848478000000000078848484BA
:102698007C0408F000000000000000C0C00000C07A
:1026A800C0000000000000006060000060C0800002
:1026B80000000000041820C02018040000000000DA
:1026C8000000FC00FC00000000000000000080602A
:1026D800100C1060800000000000708808081020AE
:1026E80000600000000070888898A8A8988088700A
:1026F8000000000030102828283844EE00000000B0
:1027080000F8444478444444F800000000003C4485
:102718008080808044380000000000F04844444431
:102728004448F00000000000FC445070504044FC55
:102738000000000000FC445070504040E0000000E1
:1027480000003C4480808E8444380000000000EE85
:1027580044447C444444EE0000000000F82020205B
:10276800202020F800000000003C0808088888881D
:10277800700000000000EE444850704844E6000035
:10278800000000E0404040404444FC0000000000DD
:10279800EE6C6C54544444EE0000000000E76252B2
:1027A800524A4A46E600000000003844828282828B
:1027B80044380000000000F8444444784040E000F9
:1027C8000000000038448282828244383E000000C3
:1027D80000F8444444784844E20000000000748C47
:1027E80080780404C4B80000000000FE92101010A5
:1027F8001010380000000000EE44444444444438BB
:102808000000000000E742422424241818000000B9
:102818000000EE444454545454280000000000EED4
:10282800442810102844EE0000000000EE44282838
:10283800101010380000000000F888102020408890
:10284800F80000000000E08080808080808080E0C8
:102858000000808040402020201010100000000060
:10286800E02020202020202020E000002020508888
:102878000000000000000000000000000000000050
:102888000000000000FF0080400000000000000081
:1028980000000000000078047C848C7600000000B2
:1028A80000C0405C62424262DC00000000000000A0
:1028B800748C8080847800000000000C04748C8480
:1028C800848C76000000000000007884FC80807C06
:1028D80000000000001C20FC20202020FC0000003C
:1028E80000000000768C84848C740478000000C09A
:1028F800405864444444EE00000000002000E020FA
:10290800202020F8000000000010007808080808BF
:102918000808F0000000C0405E48705048CE000033
:1029280000000060202020202020F8000000000087
:102938000000D26D494949ED00000000000000D8B0
:1029480064444444EE00000000000000788484845D
:10295800847800000000000000D8644444447840B3
:10296800E00000000000768C84848C74040E000063
:10297800000000DC60404040F8000000000000005B
:102988007C80780484F800000000000040F8404093
:1029980040443800000000000000CC4444444C3659
:1029A80000000000000000E742242418180000007E
:1029B80000000000EE4454545428000000000000B9
:1029C80000CC48303048CC00000000000000EE4445
:1029D8004428281010700000000000F8902040885B
:1029E800F8000000000020404040804040402000A7
:1029F80000000080808080808080808080000000CF
:102A0800804040402040404080000000000000001E
:102A180064980000000000000000060000000600A6
:102A28000D0005001A000500270007003400060005
:102A3800410006004E0006005B0007006800060023
:102A480075000800820005008F0008009C0008003F
:102A5800A9000700B6000700C3000700D000070060
:102A6800DD000700EA000700F70006000401060081
:102A7800110107001E0107002B010700380107009C
:102A880045010700520107005F0108006C010800BA
:102A9800790107008601080093010600A0010600DD
:102AA800AD010800BA010700C7010700D4010600FC
:102AB800E1010700EE010600FB010700080206001D
:102AC80015020800220206002F0207003C02070038
:102AD8004902070056020700630208007002070057
:102AE8007D0206008A02070097020600A40206007B
:102AF800B1020700BE020800CB020700D802060098
:102B0800E5020700F2020800FF0208000C030800B3
:102B180019030700260308003303060040030600D4
:102B28004D0308005A0307006703060074030600F4
:102B3800810305008E0305009B030600A80305001A
:102B4800B5030100000005000D0006001A0004008E
:102B58002700050034000500410001004E00020076
:102B68005B00020068000500750007008200030092
:102B78008F0006009C000200A9000500B6000600B0
:102B8800C3000500D0000500DD000500EA000600CE
:102B9800F700060004010500110106001E010600E9
:102BA8002B0106003801020045010300520106000E
:102BB8005F0106006C010600790105008601050029
:102BC80093010700A0010600AD010600BA01060046
:102BD800C7010600D4010600E1010700EE01070065
:102BE800FB01050008020600150207002202060084
:102BF8002F0207003C02080049020700560206009F
:102C080063020700700207007D0206008A020700BF
:102C180097020700A4020800B1020700BE020700DD
:102C2800CB020700D8020500E5020300F202040007
:102C3800FF0203000C030500190308002603020025
:102C480033030700400307004D0306005A0307003B
:102C58006703060074030600810307008E0307005C
:102C68009B030500A8030500B5030700C203050080
:102C7800CF030800DC030700E9030600F60306009B
:102C880003040700100406001D0406002A040600B9
:102C98003704070044040800510407005E040600D6
:102CA8006B04070078040500850403009204010002
:102CB8009F040300AC040600B904000000000000F3
:102CC8000000000E07000E07000E070000000000BD
:102CD8000000FFFFC0FFFFC01800C01800C01800A8
:102CE800C01800C01800C018300018300018300094
:102CF8001FF0001FF00018300018300018300018BE
:102D08000060180060180060180060180060180063
:102D180060FFFFE0FFFFE00000000000000000008F
:102D2800000000000000000000000000000000009B
:102D3800000000000000000000000000000000008B
:102D48000000000000000003F8C00FFEC01C07C010
:102D58003801C03000C06000C06000C0C00000C0C2
:102D68000000C00000FFF800FFF800C00000C0002D
:102D780000C00000C000006000006000603000601B
:102D88001800C00E038007FF0001FC0000000000CF
:102D9800000000000000000000000000000000002B
:102DA800000000000000000000000000000000001B
:102DB80000000000FFFFFFFF01800180018001800B
:102DC80001800180018001800180018001800180F3
:102DD8000180018001800180018001800180FFFF66
:102DE800FFFF0000000000000000000000000000DD
:102DF8000000000000000000381C381C381C0000CF
:102E08000000FFFFFFFF0180018001800180018039
:102E180001800180018001800180018001800180A2
:102E2800018001800180018001800180FFFFFFFF98
:102E3800000000000000000000000000000000008A
:102E4800000000000000000000000000000000007A
:102E5800000000000000000000000000000000006A
:102E68000FFE00000FFF000000330000006180002B
:102E7800006180000061800000C0C00000C0C00088
:102E880000C0C00001806000018060000180600017
:102E9800030030000300300007FFF80007FFF800C8
:102EA800060018000C000C000C000C000C000C00B4
:102EB80018000600FF003FC0FF003FC000000000F0
:102EC80000000000000000000000000000000000FA
:102ED80000000000000000000000000000000000EA
:102EE80000000000000000000000000000000000DA
:102EF80000000000FFFFE0FFFFE01800601800601E
:102F08001800601800601800601800001800001809
:102F180000001FFE001FFF801801C0180060180085
:102F280030180030180030180030180030180060D1
:102F38001800E0FFFFC0FFFF0000000000000000D5
:102F48000000000000000000000000000000000079
:102F58000000000000000000000000000000000069
:102F6800000000000000000000FFFC00FFFF001848
:102F780003801801801800C01800C01800C018008D
:102F8800C01801801807001FFE001FFF001803C0AB
:102F98001800E018007018003018003018003018B9
:102FA80000301800601801E0FFFFC0FFFF000000BC
:102FB8000000000000000000000000000000000009
:102FC80000000000000000000000000000000000F9
:102FD8000000000000000000000000000000FFFFEB
:102FE800F8FFFFF806001806001806001806001873
:102FF8000600180600180600180600180600000645
:10300800000006000006000006000006000006009A
:1030180000060000060000060000060000FFF000A1
:10302800FFF00000000000000000000000000000A9
:103038000000000000000000000000000000000088
:103048000000000000000000000000000000000078
:103058000000001FFFF81FFFF80300C00300C003B3
:1030680000C00300C00300C00300C00300C0030089
:10307800C00300C00300C00300C00300C00300C0B9
:103088000300C00200C00600C00600C00C00C01843
:1030980000C0FFFFF8FFFFF8C00018C00018C0000C
:1030A80018C00018C00018C0001800000000000078
:1030B8000000000000000000000000000000000008
:1030C8000000000000000000FFFFC0FFFFC0180064
:1030D800C01800C01800C01800C01800C018300080
:1030E8001830001830001FF0001FF00018300018CA
:1030F80030001830001800601800601800601800D0
:1031080060180060180060FFFFE0FFFFE0000000AB
:1031180000000000000000000000000000000000A7
:103128000000000000000000000000000000000097
:103138000000000000000000000000000078FF1EF2
:103148007CFF3E6C18366618666718E60318C001DF
:1031580099C001998000DB0000FF0000FF00019981
:10316800800318C00318C00618600618600C1830D1
:103178000C18300C1830181818181818F0FF0FF021
:10318800FF0F000000000000000000000000000029
:103198000000000000000000000000000000000027
:1031A8000000000000000000000000000000000017
:1031B800000061FE0067FF807E03C07800C07000D9
:1031C800606000606000606000600000C000038014
:1031D80003FE0003FF800001C00000600000300013
:1031E8000030000030000030000070C00060F003C4
:1031F800C03FFF8007FE0000000000000000000044
:1032080000000000000000000000000000000000B6
:1032180000000000000000000000000000000000A6
:1032280000000000000000FF00FCFF00FC1801E0A7
:103238001801E0180360180760180660180C601879
:103248000C601818601818601830601860601860F2
:103258006018C06018C0601980601980601B006029
:103268001E00601E0060FC03FCFC03FC0000000064
:103278000000000000000000000000000000000046
:103288000000000006018006018007038003870014
:1032980001FE0000FC00000000000000FF00FCFF31
:1032A80000FC1801E01801E0180360180760180610
:1032B80060180C60180C60181860181860183060D6
:1032C80018606018606018C06018C06019806019C4
:1032D80080601B00601E00601E0060FC03FCFC0395
:1032E800FC000000000000000000000000000000DA
:1032F80000000000000000000000000000000000C6
:1033080000000000000000000000000000000000B5
:1033180000FF01F0FF03F0180730180630180C30D2
:10332800180C001818001810001830001860001F3A
:10333800C0001FE000187000181800180C00180CC6
:10334800001806001806001803001803001801806A
:10335800FF01F8FF00F80000000000000000000076
:103368000000000000000000000000000000000055
:103378000000000000000000000000000000000045
:103388000000000000000FFFFC0FFFFC018060013F
:103398008060018060018060018060018060018040
:1033A8006001806001806001806001806001806050
:1033B800018060018060018060018060C18060C31D
:1033C8000060C70060FE03FCFC03FC000000000076
:1033D80000000000000000000000000000000000E5
:1033E80000000000000000000000000000000000D5
:1033F80000000000000000000000000000000000C5
:10340800000000FC001F80FE003F801E003C001BE7
:10341800006C001B006C001980CC001980CC0018CF
:10342800C18C0018C18C0018618C0018630C00183E
:10343800330C0018360C00181E0C00181C0C001851
:103448000C0C0018000C0018000C0018000C0018D8
:10345800000C0018000C00FF007F80FF007F800038
:103468000000000000000000000000000000000054
:103478000000000000000000000000000000000044
:103488000000000000000000000000000000000034
:1034980000000000000000FF0FF0FF0FF01801808F
:1034A80018018018018018018018018018018018FF
:1034B80001801801801FFF801FFF801801801801FC
:1034C8008018018018018018018018018018018077
:1034D800180180180180FF0FF0FF0FF000000000B6
:1034E80000000000000000000000000000000000D4
:1034F80000000000000000000000000000000000C4
:1035080000000000000000000000000001F80007B3
:10351800FE000E07001801803000C07000E0600057
:1035280060400020C00030C00030C00030C0003013
:10353800C00030C00030C000304000206000607023
:1035480000E03000C01C01800E070007FE0001F8F3
:103558000000000000000000000000000000000063
:103568000000000000000000000000000000000053
:103578000000000000000000000000000000000043
:1035880000FFFFF0FFFFF01801801801801801808C
:10359800180180180180180180180180180180180E
:1035A8000180180180180180180180180180180115
:1035B8008018018018018018018018018018018086
:1035C800FF0FF0FF0FF000000000000000000000F7
:1035D80000000000000000000000000000000000E3
:1035E80000000000000000000000000000000000D3
:1035F800000000000000FFF800FFFE001807001898
:1036080001801801C01800C01800C01800C01800B8
:10361800C01801C01801801807001FFE001FF8001D
:103628001800001800001800001800001800001802
:103638000000180000FFF000FFF00000000000008C
:103648000000000000000000000000000000000072
:103658000000000000000000000000000000000062
:10366800000000000000000000000003F0C00FFC94
:10367800C01E0FC03803C03001C06000C06000C069
:10368800C00000C00000C00000C00000C00000C0B2
:103698000000C00000C00000E000006000007000F2
:1036A800603000E01C01C00E078007FF0001F80031
:1036B8000000000000000000000000000000000002
:1036C80000000000000000000000000000000000F2
:1036D80000000000000000000000000000000000E2
:1036E800FFFFC0FFFFC0C0C0C0C0C0C0C0C0C0C0D6
:1036F800C0C0C0C0C0C0C0C0C0C0C000C00000C002
:103708000000C00000C00000C00000C00000C000F1
:1037180000C00000C00000C00000C00000C0001FC2
:10372800FE001FFE00000000000000000000000076
:103738000000000000000000000000000000000081
:103748000000000000000000000000000000000071
:103758000000000000FF01FEFF01FE1800300C0011
:10376800600C00600600C00701800301800183002F
:1037780001830000C60000C600006C00006C000059
:103788003800003800003000003000186000186071
:103798000018C0001F80001F00000000000000008B
:1037A8000000000000000000000000000000000011
:1037B8000000000000000000000000000000000001
:1037C8000000000000000000000003FC0003FC00F3
:1037D80000600000600007FE001FFF803861C060C5
:1037E8006060606060C06030C06030C06030C060E1
:1037F80030C060306060606060603861C01FFF800A
:1038080007FE0000600000600003FC0003FC0000ED
:1038180000000000000000000000000000000000A0
:103828000000000000000000000000000000000090
:10383800000000000000000000000000000000FE82
:1038480007F0FE07F03000C01801800C03800C035D
:1038580000060600030C0001980000D80000700064
:1038680000700000F000019800018C0003060006BB
:1038780003000C01801C01801800C0300060FE03AA
:10388800F8FE03F80000000000000000000000003F
:103898000000000000000000000000000000000020
:1038A8000000000000000000000000000000000010
:1038B80000000000FF0FF0FF0FF0180180180180D2
:1038C80018018018018018018018018018018018DB
:1038D80001801801801801801801801801801801E2
:1038E8008018018018018018018018018018018053
:1038F800180180FFFFF0FFFFF000003000003000EB
:1039080000300000300000300000300000000000EF
:10391800000000000000000000000000000000009F
:10392800000000000000000000FF0FF0FF0FF0187B
:103938000180180180180180180180180180180181
:10394800801801801801801801801803801C0780E6
:103958000C1D800FF98003E18000018000018000C8
:103968000180000180000180007FF0007FF00000EE
:10397800000000000000000000000000000000003F
:10398800000000000000000000000000000000002F
:103998000000000000000000000000000000FEFE23
:1039A800FEFEFEFE181818181818181818181818F7
:1039B800181818181818181818181818181818187F
:1039C800181818181818181818181818181818186F
:1039D80018181818181818181818181818FFFFFFAA
:1039E800FFFFFF00000000000000000000000000D2
:1039F80000000000000000000000000000000000BF
:103A080000000000000000000000000000000000AE
:103A1800000000FEFEFEFEFEFE1818181818181802
:103A2800181818181818181818181818181818180E
:103A380018181818181818181818181818181818FE
:103A480018181818181818181818181818181818EE
:103A58001818FFFFFFFFFFFF00000300000300002E
:103A68000300000300000300000300000000000042
:103A7800000000000000000000000000000000003E
:103A88000000000000000000FFF800FFF800C0C0C0
:103A980000C0C000C0C000C0C000C0C000C0C0009E
:103AA800C0C00000C00000FFE000FFF800C03C00FC
:103AB800C00C00C00600C00600C00600C00600C05A
:103AC8000600C00C00C01803FFF003FFE000000070
:103AD80000000000000000000000000000000000DE
:103AE80000000000000000000000000000000000CE
:103AF80000000000000000000000000000FF01FEC0
:103B0800FF01FE1800301800301800301800301877
:103B180000301800301800301800301FE0301FF84F
:103B280030181C30180630180330180330180330CA
:103B3800180330180330180630180C30FFF9FEFF50
:103B4800F1FE00000000000000000000000000007E
:103B5800000000000000000000000000000000005D
:103B6800000000000000000000000000000000004D
:103B78000000FF0000FF00001800001800001800F7
:103B880000180000180000180000180000180000B5
:103B98001FFE001FFF801801C01800601800701871
:103BA8000030180030180030180030180060180174
:103BB800C0FFFF80FFFF00000000000000000000C1
:103BC80000000000000000000000000000000000ED
:103BD80000000000000000000000000000000000DD
:103BE8000000000000000063F8006FFE007C070082
:103BF8007003806001806000C06000C00000600049
:103C0800006000006003FFE003FFE00000600000C8
:103C1800600000600000600000C0C000C0C00180FB
:103C2800600300380E001FFC0007F00000000000D1
:103C3800000000000000000000000000000000007C
:103C4800000000000000000000000000000000006C
:103C5800000000000000000000000000FF03E0FF7B
:103C68000FF8181C1C18380E183006187006186043
:103C7800031860031860031860031FE0031FE003C4
:103C880018600318600318600318600318600318AD
:103C9800700618300618380E181C1CFF0FF8FF03A2
:103CA800E00000000000000000000000000000002C
:103CB80000000000000000000000000000000000FC
:103CC80000000000000000000000000000000000EC
:103CD8000001FFF803FFF80700C00C00C01C00C07B
:103CE8001800C01800C01800C01C00C00E00C00793
:103CF80080C003FFC0007FC001C0C00380C00700B0
:103D0800C00600C00C00C01800C01800C03000C0B9
:103D1800F007F8E007F800000000000000000000CD
:103D2800000000000000000000000000000000008B
:103D3800000000000000000000000000000000007B
:103D4800000000000000000000000000000000006B
:103D5800000000000003F0003FF800381C00000ECF
:103D6800000006000006000006000FF6003FFE00F7
:103D7800780600600600C00600C00600C00E00E01D
:103D88001E007076003FE7C01F87C00000000000DB
:103D9800000000000000000000000000000000001B
:103DA800000000000000000000000000000000000B
:103DB80000000000000003000003000007000FFEE1
:103DC800003FFC0038000060000061F800C7FE00FA
:103DD800CC0700D80180F000C0E000C0E00060C05F
:103DE8000060C00060C00060C00060C0006060008B
:103DF800C06000C03001801C07000FFE0003F800FF
:103E080000000000000000000000000000000000AA
:103E1800000000000000000000000000000000009A
:103E2800000000000000000000000000000000008A
:103E3800000000000000000000000000000000FF7B
:103E4800F800FFFE00180700180300180300180305
:103E5800001806001FFC001FFE00180380180180D0
:103E68001800C01800C01800C01800C0180180FF52
:103E7800FF80FFFE000000000000000000000000BE
:103E8800000000000000000000000000000000002A
:103E9800000000000000000000000000000000001A
:103EA800000000000000000000000000000000000A
:103EB80000000000FFFFC0FFFFC00600C00600C0F2
:103EC8000600C00600C00600C00600C00600C00606
:103ED80000C00600000600000600000600000600FC
:103EE80000060000FFF000FFF000000000000000E6
:103EF80000000000000000000000000000000000BA
:103F080000000000000000000000000000000000A9
:103F18000000000000000000000000000000000099
:103F28000000000000000000001FFFF01FFFF0036A
:103F380001800301800301800301800301800301E4
:103F48008003018003018003018003018003018055
:103F58000601800601801C0180FFFFF0FFFFF0C012
:103F68000030C00030C00030C00030000000000049
:103F78000000000000000000000000000000000039
:103F88000000000000000000000000000000000029
:103F9800000000000000000000000000000003F026
:103FA800000FFC001C0F00300300600180600180DE
:103FB800C000C0FFFFC0FFFFC0C00000C00000E09D
:103FC80000006000007000003800C01E03C00FFF32
:103FD8000003F800000000000000000000000000DE
:103FE80000000000000000000000000000000000C9
:103FF80000000000000000000000000000000000B9
:1040080000000000000000000000000000000000A8
:1040180000000078FF1E7CFF3E661866661866631F
:1040280018C601998001DB8000FF0001FF80039919
:10403800C00318C00618600E18700C18301818182D
:10404800181818F0FF0FF0FF0F0000000000000024
:104058000000000000000000000000000000000058
:104068000000000000000000000000000000000048
:104078000000000000000000000000000000000038
:10408800000000000000000061FC0067FF007C03E6
:104098008070018060018060018060070007FC007B
:1040A80007FF000003800001C00000C00000C0003E
:1040B80000C0C001C0F803803FFF0007FC000000FB
:1040C80000000000000000000000000000000000E8
:1040D80000000000000000000000000000000000D8
:1040E80000000000000000000000000000000000C8
:1040F80000000000000000000000000000FF01F8C0
:10410800FF01F81803C01806C01806C0180CC0181C
:1041180018C01818C01830C01860C018C0C018C01F
:10412800C01980C01B00C01B00C01E00C0FC07F8DF
:10413800FC07F8000000000000000000000000007C
:104148000000000000000000000000000000000067
:104158000000000000000000000006018006018049
:1041680007038003870001FE0000FC000000000038
:104178000000FF01F8FF01F81803C01806C0180670
:10418800C0180CC01818C01818C01830C01860C063
:1041980018C0C018C0C01980C01B00C01B00C01EBA
:1041A80000C0FC07F8FC07F8000000000000000051
:1041B80000000000000000000000000000000000F7
:1041C80000000000000000000000000000000000E7
:1041D80000000000000000000000000000000000D7
:1041E80000000000000000FF03C0FF07C0180CC05B
:1041F8001818C01830C01830C01860001FC0001F41
:10420800E000187000181800181C00180C00180698
:1042180000180600180300FF01F0FF01F00000007D
:104228000000000000000000000000000000000086
:104238000000000000000000000000000000000076
:104248000000000000000000000000000000000066
:104258000000000000000000000000000FFFF80F41
:10426800FFF80180C00180C00180C00180C00180CA
:10427800C00180C00180C00180C00180C00180C031
:104288000180C0C180C0C380C0C700C0FE07F87CE1
:1042980007F8000000000000000000000000000017
:1042A8000000000000000000000000000000000006
:1042B80000000000000000000000000000000000F6
:1042C80000000000000000000000000000000000E6
:1042D80000000000000000000000000000007C005A
:1042E8001F007E003F001E003C001B006C001B00EE
:1042F8006C001980CC001980CC0018C18C0018C142
:104308008C0018630C0018630C0018630C00183636
:104318000C0018360C00181C0C00181C0C00FF00B0
:104328007F80FF007F800000000000000000000088
:104338000000000000000000000000000000000075
:104348000000000000000000000000000000000065
:104358000000000000000000000000000000000055
:10436800000000000000000000000000007E07E0E0
:104378007E07E01801801801801801801801801854
:1043880001801FFF801FFF8018018018018018011D
:1043980080180180180180180180180180FF0FF033
:1043A800FF0FF00000000000000000000000000007
:1043B80000000000000000000000000000000000F5
:1043C80000000000000000000000000000000000E5
:1043D80000000000000000000000000000000000D5
:1043E800000003F0000FFC001C0E003807007003EB
:1043F80080600180C000C0C000C0C000C0C000C054
:10440800C000C0C000C06001807003803807001C75
:104418000E000FFC0003F000000000000000000088
:104428000000000000000000000000000000000084
:104438000000000000000000000000000000000074
:104448000000000000000000000000000000000064
:10445800000000000000007FFFE07FFFE0180180FF
:10446800180180180180180180180180180180182F
:104478000180180180180180180180180180180136
:1044880080180180180180FF0FF0FF0FF000000076
:104498000000000000000000000000000000000014
:1044A8000000000000000000000000000000000004
:1044B80000000000000000000000000000000000F4
:1044C800000000000000000000000000F87E00F975
:1044D800FF801B81C01F00E01E00701C0030180008
:1044E80018180018180018180018180018180018BC
:1044F8001C00301E00701F00E01B81C019FF8018CF
:104508007E001800001800001800001800001800AD
:1045180000180000FFC000FFC000000000000000FD
:104528000000000000000000000000000000000083
:104538000000000000000000000000000000000073
:104548000003F1800FFD801C0F8030038060018024
:10455800600180C00000C00000C00000C00000C0B2
:104568000000C000006000006000C03001C01C0FE7
:10457800800FFE0003F800000000000000000000AB
:104588000000000000000000000000000000000023
:104598000000000000000000000000000000000013
:1045A8000000000000000000000000000000000003
:1045B800000000000000FFFFC0FFFFC0C0C0C0C077
:1045C800C0C0C0C0C0C0C0C0C0C0C0C0C0C0C0C0E3
:1045D800C0C0C0C000C00000C00000C00000C000D3
:1045E80000C00000C0001FFE001FFE000000000009
:1045F80000000000000000000000000000000000B3
:1046080000000000000000000000000000000000A2
:104618000000000000000000000000000000000092
:104628000000000000000000000000FE01FCFE0188
:10463800FC3000303000301800600C00C00C00C0A6
:1046480006018006018003030003030001860000C1
:10465800CC0000CC0000780000780000300000306A
:104668000000600030E00030C0003180003F800072
:104678003E000000000000000000000000000000F4
:10468800000000000000000000000000000007E03B
:104698000007E000006000006000006000006000AB
:1046A8000F6F001FFF8038F1C0606060606060E0DD
:1046B8006070C06030C06030C06030C06030C060C2
:1046C80030C06030C0603060606060606038F1C0E9
:1046D8001FFF800F6F000060000060000060000096
:1046E80060000FFF000FFF00000000000000000046
:1046F80000000000000000000000000000000000B2
:1047080000000000000000000000000000000000A1
:1047180000000000007F0FE07F0FE01801800C030D
:1047280000060600030C0001980000F0000060007D
:1047380000F000019800030C000606000C030018A6
:1047480001803000C0FE07F0FE07F0000000000006
:104758000000000000000000000000000000000051
:104768000000000000000000000000000000000041
:104778000000000000000000000000000000000031
:10478800000000000000000000007E07E07E07E057
:1047980018018018018018018018018018018018FC
:1047A8000180180180180180180180180180180103
:1047B80080180180180180180180FFFFF8FFFFF8BA
:1047C8000000180000180000180000180000000081
:1047D80000000000000000000000000000000000D1
:1047E80000000000000000000000000000000000C1
:1047F800000000000000000000000000000000FFB2
:104808000FF0FF0FF01801801801801801801801BF
:10481800801801801803801807801C1D800FF980FC
:1048280007E1800001800001800001800001800014
:104838007FF0007FF0000000000000000000000092
:104848000000000000000000000000000000000060
:104858000000000000000000000000000000000050
:104868000000000000000000000000000000000040
:1048780000000000FCFCFCFCFCFC30303030303028
:104888003030303030303030303030303030303020
:104898003030303030303030303030303030303010
:1048A80030303030FFFFFCFFFFFC0000000000004C
:1048B80000000000000000000000000000000000F0
:1048C80000000000000000000000000000000000E0
:1048D80000000000000000000000000000000000D0
:1048E800000000000000000000FCFCFCFCFCFC30A8
:1048F80030303030303030303030303030303030B0
:10490800303030303030303030303030303030309F
:10491800303030303030303030FFFFFEFFFFFE00E7
:104928000006000006000006000006000000000067
:10493800000000000000000000000000000000006F
:10494800000000000000000000000000000000005F
:104958000000000000000000000000000000FFF060
:1049680000FFF000C18000C18000C18000C180004C
:10497800C18000C1FF8001FFE00180700180180143
:10498800801801801801801801803801807007FFA5
:10499800F007FFC000000000000000000000000059
:1049A80000000000000000000000000000000000FF
:1049B80000000000000000000000000000000000EF
:1049C80000000000000000000000000000000000DF
:1049D800000000FE01FEFE01FE30003030003030E5
:1049E80000303000303000303FF0303FF830301CBD
:1049F80030300630300630300630300630300E3079
:104A0800301C30FFFDFEFFF1FE000000000000003A
:104A1800000000000000000000000000000000008E
:104A2800000000000000000000000000000000007E
:104A38000000000000000000000000FE00FE003042
:104A48000030003000300030003FF83FFC300E30BE
:104A5800033003300330033007300EFFFEFFF80049
:104A6800000000000000000000000000000000003E
:104A7800000000000000000000000000000000002E
:104A8800000000000000000000000000000000001E
:104A980000000000000063F0006FFC007C0E007056
:104AA80003006001806000806000C00000C001FF5A
:104AB800C001FFC00000C00000C0000180C001802C
:104AC800E003007C0E001FFC0007F000000000005F
:104AD80000000000000000000000000000000000CE
:104AE80000000000000000000000000000000000BE
:104AF80000000000000000000000000000000000AE
:104B080000000000000000000000007F07C07F1FB9
:104B1800F018383818701C18600C18E00E18C00609
:104B28001FC0061FC00618C00618C00618C0061801
:104B3800600C18600C18301C183838FF1FF0FF077D
:104B4800C00000000000000000000000000000009D
:104B5800000000000000000000000000000000004D
:104B6800000000000000000000000000000000003D
:104B7800000000000000000000000000000000002D
:104B880003FFE00FFFE00E030018030018030018EE
:104B980003001803001C03000E030007FF0001FFB9
:104BA800000383000E03001C0300180300300300F9
:104BB800E01FE0E01FE0000000000000000000002F
:104BC80000000000000000000000000000000000DD
:104BD80000000000000000000000000000000000CD
:104BE8000000000000001C0E001C0E001C0E00003F
:104BF800000000000003F0000FFC001C0F00300351
:104C080000600180600180C000C0FFFFC0FFFFC0DE
:104C1800C00000C00000E000006000007000003824
:104C280000C01E03C00FFF0003F8000000000000D2
:104C3800000000000000000000000000000000006C
:104C4800000000000000000000000000000000005C
:104C5800000000000000000000000000000000004C
:104C68000000000000000000000003F1800FFD803C
:104C78001C0F80300380600180400180C00180C02B
:104C88000000FFE000FFE000C00000C0000060007E
:104C9800006000C03001C01C0F800FFE0003F80048
:104CA80000000000000000000000000000000000FC
:104CB80000000000000000000000000000000000EC
:104CC8000000000000000000C00000C00000C0009C
:104CD80000C0000000000000000000000000003FCD
:104CE800C0003FC00000C00000C00000C00000C0FD
:104CF8000000C00000C00000C00000C00000C000EC
:104D080000C00000C00000C00000C00000C000FFDC
:104D1800FFC0FFFFC000000000000000000000000E
:104D2800000000000000000000000000000000007B
:104D3800000000000000000000000000000000006B
:104D48000000000000381C00381C00381C0000005F
:104D5800000000003FC0003FC00000C00000C000CD
:104D680000C00000C00000C00000C00000C000007B
:104D7800C00000C00000C00000C00000C00000C0AB
:104D88000000C000FFFFC0FFFFC0000000000000DF
:104D9800000000000000000000000000000000000B
:104DA800000000000000000000000000006000009B
:104DB80060000060000060000060FFFFE0FFFFE0AF
:104DC80006000006000006000006000006000006B7
:104DD80000000600000600000600000600000600AD
:104DE800000600000600000600000600000600009D
:104DF800060000060000060000FFF000FFF00000BB
:104E0800000000000000000000000000000000009A
:104E1800000000000000000000000000000000008A
:104E2800000000000000000000000000000000007A
:104E380000C00000C00000C00000C00000C0FFFFAC
:104E4800C0FFFFC0060000060000060000060000C4
:104E58000600000600000600000600000600000626
:104E68000000060000060000060000060000FFF033
:104E780000FFF0000000000000000000000000003B
:104E8800000000000000000000000000000060F0CA
:104E9800F0F0F0F0F0F0F06060606060606060007A
:104EA80000000060F0F0600000000000000000005A
:104EB800000000F8F8F8F8F0F0F0F0F0F07070701A
:104EC800706060606060606060000000000000006A
:104ED80000000000000000000000000000000000CA
:104EE80000000000000000000000000000000000BA
:104EF800000000000000000618061806180618062C
:104F08001806180C300C300C300C30FFFFFFFF0C6B
:104F1800300C300C300C300C30FFFFFFFF0C300C25
:104F2800300C300C30186018601860186018601861
:104F38006000000000000000000000018001800106
:104F48008007C01FEC383C301C600C600C600060AF
:104F58000070003C000FC001F8001C000E000600A5
:104F6800060006C006C00CF03CFFF8CFC0030003E3
:104F7800000300030003000300000000000000001D
:104F880000000000001E006180408080408040805A
:104F9800408040408061801E03001C00E00700380C
:104FA80000C00000F0030C0204040204020402041E
:104FB800020204030C00F0000000000000000000E2
:104FC80000000000000000000000000000000000D9
:104FD80000000003C007F80E301800180018001869
:104FE800000C000C001E003E00630EE18EC198C04C
:104FF800D8C0D0C070607070F03F9E0F1E000000D7
:10500800000000000000000000000000000000F0A8
:10501800F0F0F0F060606060606060000000000028
:105028000000000000000000000000000000000078
:1050380000000C0C1818303030606060C0C0C0C070
:10504800C0C0C0C0C0C060606030303018180C0CE0
:105058000000000000C0C060603030301818180C24
:105068000C0C0C0C0C0C0C0C0C1818183030306094
:1050780060C0C000000000000000018001800180C5
:1050880001800180E187FFFF1FF803C003C00660AD
:105098000C300C3018181008000000000000000048
:1050A80000000000000000000000000000000000F8
:1050B80000000000000000000000000000000000E8
:1050C800000000000000000000000000C00000C058
:1050D8000000C00000C00000C00000C00000C00008
:1050E80000C00000C000FFFFC0FFFFC000C00000FC
:1050F800C00000C00000C00000C00000C00000C028
:105108000000C00000C00000000000000000000017
:105118000000000000000000000000000000000087
:105128000000000000000000000000000000000077
:10513800000000000000000000001E1C3C38387809
:10514800707060E0C0C000000000000000000000B7
:105158000000000000000000000000000000000047
:105168000000000000000000000000000000000037
:105178000000000000FFFF80FFFF8000000000002B
:105188000000000000000000000000000000000017
:105198000000000000000000000000000000000007
:1051A80000000000000000000000000000000000F7
:1051B80000000000000000000000000000000000E7
:1051C8000000000000000078FCFCFC7800000000F3
:1051D800000000000003000300060006000C000C9D
:1051E80000180018003000300060006000C000C0E7
:1051F8000180018003000300060006000C000C007B
:10520800180018003000300060006000C000C000C6
:10521800000000000000000000000000000007E09F
:105228000FF01818300C600660066006C003C00353
:10523800C003C003C003C003C003C003C003C0034E
:10524800C003600660066006300C18180FF007E00F
:105258000000000000000000000000000000000046
:105268000000000001800F8079806180018001804A
:10527800018001800180018001800180018001801E
:10528800018001800180018001800180018001800E
:105298000180FFFFFFFF0000000000000000000089
:1052A8000000000000000000000003E00FF81C1CD4
:1052B800380E300760036003000300030006000C8B
:1052C80000180030006000C00180030006000C00D8
:1052D800180030006003C003FFFFFFFF000000005C
:1052E80000000000000000000000000000000000B6
:1052F80007E01FF8383C600C600E00060006000648
:105308000006000C001803F003E00038000C00064B
:1053180000030003000300038007E00E783C1FF839
:1053280007E000000000000000000000000000008E
:10533800000000000000007800F800D801980398E9
:105348000318061806180C180C181818181830180E
:1053580060186018C018FFFEFFFE0018001800183B
:105368000018001801FE01FE000000000000000007
:105378000000000000000000000000003FFC3FFCAF
:10538800300030003000300030003000300033F0A2
:105398003FF8381C00060007000300030003000361
:1053A80000030007C006E00E783C1FF807E0000085
:1053B80000000000000000000000000000000000E5
:1053C8000000007E01FF07800E001800300020005A
:1053D80060004000C000C3E0CFF8DE1CD806F00231
:1053E800E003E003C00360036003300238061C1CBE
:1053F8000FF803E0000000000000000000000000BB
:105408000000000000000000FFFEFFFEC006C0060E
:10541800000C000C000C000C0018001800180030DC
:1054280000300030006000600060006000C000C014
:1054380000C0018001800180010000000000000020
:10544800000000000000000000000000000007C08D
:105458001FF03838600CE00EC006C006C006C00653
:10546800600C38181FF01FF03018600CC006C0061A
:10547800C006C006C006C006600C38381FF007C05A
:105488000000000000000000000000000000000014
:10549800000000000F801FE038306018600CC00C5E
:1054A800C004C006C006C006600E701E38761FE62F
:1054B8000F86000600060004000C00180038007073
:1054C80081E0FF807E000000000000000000000076
:1054D800000000000000000000000000000000784C
:1054E800FCFCFC78000000000000000078FCFCFCDC
:1054F800780000000000000000000000000000002C
:1055080000000000000000000000000F001F801FC6
:10551800801F800F00000000000000000000000055
:10552800001E003C003C003800780070006000E07D
:1055380000C000C0000000000000000000000000E3
:105548000000000000000000000000000000000053
:10555800600001E0000380000E00003C00007000C5
:1055680001C0000780001E0000380000E00000387D
:1055780000001E000007800001C000007000003C11
:1055880000000E000003800001E000006000000041
:105598000000000000000000000000000000000003
:1055A80000000000000000000000000000000000F3
:1055B80000000000000000000000000000000000E3
:1055C800000000000000000000FFFFF0FFFFF000F7
:1055D8000000000000000000000000FFFFF0FFFFD7
:1055E800F0000000000000000000000000000000C3
:1055F80000000000000000000000000000000000A3
:105608000000000000000000000000000000000092
:105618000000000000000000000000000000000082
:10562800C00000F000003800000E000007800001F4
:10563800C000007000003C00000F00000380000064
:10564800E0000380000F00003C0000700001C00073
:105658000780000E0000380000F00000C0000000C5
:105668000000000000000000000000000000000032
:105678000000000000000000000000000000000022
:1056880000000FC03FF0F078C018C01CC00C000C20
:10569800000C000C0018003800E003C003000300F1
:1056A800030000000000000007800FC00FC0078043
:1056B80000000000000000000000000000000000E2
:1056C800000003E00FF81C1C380C7006600660062A
:1056D800C006C03EC0FEC1C6C186C306C306C30617
:1056E800C306C1C6C0FFC07FC000C0006000600024
:1056F800300038061C0E0FFC03F00000000000000C
:105708000000000000000000000000000000000091
:105718000000000000000FFE00000FFF0000003333
:10572800000000618000006180000061800000C00E
:10573800C00000C0C00000C0C0000180600001803F
:10574800600001806000030030000300300007FFA4
:10575800F80007FFF800060018000C000C000C0009
:105768000C000C000C0018000600FF003FC0FF00F2
:105778003FC0000000000000000000000000000022
:105788000000000000000000000000000000000011
:105798000000000000000000000000000000FFFC06
:1057A80000FFFF001803801801801800C01800C00F
:1057B8001800C01800C01801801807001FFE001F3D
:1057C800FF001803C01800E0180070180030180017
:1057D800301800301800301800601801E0FFFFC0D2
:1057E800FFFF0000000000000000000000000000B3
:1057F80000000000000000000000000000000000A1
:105808000000000000000003F0C00FFCC01E0FC025
:105818003803C03001C06000C06000C0C00000C0D4
:105828000000C00000C00000C00000C00000C000B0
:1058380000C00000E000006000007000603000E080
:105848001C01C00E078007FF0001F80000000000DF
:105858000000000000000000000000000000000040
:105868000000000000000000000000000000000030
:10587800FFF800FFFE001803801801C01800C018C8
:105888000060180060180030180030180030180048
:105898003018003018003018003018003018003068
:1058A8001800601800601800C01801C0180780FFB1
:1058B800FE00FFF8000000000000000000000000EB
:1058C80000000000000000000000000000000000D0
:1058D800000000000000000000FFFFC0FFFFC0182C
:1058E80000C01800C01800C01800C01800C0183048
:1058F800001830001830001FF0001FF000183000AA
:10590800183000183000180060180060180060187F
:105918000060180060180060FFFFE0FFFFE0000073
:10592800000000000000000000000000000000006F
:10593800000000000000000000000000000000005F
:105948000000FFFFE0FFFFE018006018006018008B
:105958006018006018006018300018300018300017
:105968001FF0001FF0001830001830001830001821
:1059780000001800001800001800001800001800A7
:1059880000FFF000FFF00000000000000000000031
:1059980000000000000000000000000000000000FF
:1059A800000000000000000000000001F8C00FFE29
:1059B800C01E07C03801C03000C06000C0600000D1
:1059C800C00000C00000C00000C00000C00000C04F
:1059D8007FF8C07FF8C000C0C000C06000C0600091
:1059E800C03000C03800C01E03C007FF0001FC0023
:1059F800000000000000000000000000000000009F
:105A0800000000000000000000000000000000008E
:105A180000000000FF0FF0FF0FF018018018018050
:105A28001801801801801801801801801801801859
:105A380001801FFF801FFF80180180180180180156
:105A480080180180180180180180180180180180D1
:105A5800180180FF0FF0FF0FF000000000000000A9
:105A6800000000000000000000000000000000002E
:105A7800000000000000000000FFFFFFFF018001A0
:105A88008001800180018001800180018001800106
:105A980080018001800180018001800180018001F6
:105AA800800180FFFFFFFF000000000000000000F1
:105AB80000000000000000000000000000000000DE
:105AC80000000007FFF007FFF000060000060000D6
