:020000040800F2
:10000000A01E0020F50100088B290008E927000840
:10001000892900087B0300088549000800000000CA
:10002000000000000000000000000000092B000894
:10003000A504000800000000072B0008152B00088D
:100040000F0200080F0200080F0200080F0200084C
:100050000F0200080F0200080F0200080F0200083C
:100060000F0200080F0200080F0200080F0200082C
:100070000F0200080F0200080F0200080F0200081C
:100080000F0200080F0200080F0200080F0200080C
:100090007D0300080F0200080F0200080F0200088D
:1000A0000F0200080F0200080F0200080F020008EC
:1000B0000F0200080F0200080F0200080F020008DC
:1000C0000F0200080F0200080F0200080F020008CC
:1000D0000F020008E5310008F1310008FD31000889
:1000E0000F0200080F0200080F0200080F020008AC
:1000F0000F0200080F0200080F0200080F0200089C
:100100000F0200080F0200080F0200080F0200088B
:100110000F0200080F0200080F0200080F0200087B
:100120000F0200080F0200080F0200080F0200086B
:100130000F020008000000000000000000000000A6
:100140000000000000000000000000008D290008F1
:100150000F0200080F0200080F0200080F0200083B
:100160000F0200080F0200080F0200080F0200082B
:100170000F0200080F02000800000000000000004D
:100180000F0200080F0200080F0200080F0200080B
:100190000F0200080F020008000000000F02000814
:1001A0000000000000000000000000000F02000836
:1001B0000F0200080F02000800000000000000000D
:1001C000000000000000000000000000000000002F
:1001D0000000000000000000000000000F02000806
:1001E000DFF80CD000F08CF800480047614A0008A6
:1001F000A01E00200648804706480047FEE7FEE7AD
:10020000FEE7FEE7FEE7FEE7FEE7FEE7FEE7FEE7C6
:10021000BD2B0008E10100082DE9F05F0546002034
:1002200092469B4688460646814640241BE0284667
:1002300041464746224600F053F853465A46C01AF4
:10024000914110D311461846224600F03AF82D1A73
:1002500067EB01084F4622460120002100F031F8EB
:1002600017EB00094E41201EA4F10104DFDC4846D3
:1002700031462A464346BDE8F09F40EA01039B070A
:1002800003D009E008C9121F08C0042AFAD203E00B
:1002900011F8013B00F8013B521EF9D27047D2B26F
:1002A00001E000F8012B491EFBD270470022F6E75F
:1002B00010B513460A4604461946FFF7F0FF2046DC
:1002C00010BD202A04DB203A00FA02F1002070471A
:1002D0009140C2F1200320FA03F319439040704784
:1002E000202A04DB203A21FA02F00021704721FA8B
:1002F00002F3D040C2F120029140084319467047F2
:10030000064C074D06E0E06840F0010394E8070062
:1003100098471034AC42F6D3FFF766FF504C000804
:10032000704C000870B58C1810F8015B15F00703CD
:1003300001D110F8013B2A1106D110F8012B03E07E
:1003400010F8016B01F8016B5B1EF9D12B0705D486
:100350000023521E0DD401F8013BFAE710F8013BCF
:10036000CB1A921C03E013F8015B01F8015B521EEB
:10037000F9D5A142D8D3002070BDFEE7014800F0B6
:100380008ABA00001804002000207047002070473F
:1003900005490022054810B503F03CF8044903481C
:1003A00003F032F8002010BD9C160020C80C00207D
:1003B0009C1400202DE9F0410B460978490714D11F
:1003C0000F4F4FF446760F4D0CE000BF2C6810F82D
:1003D00001C0621C491C07F804C0B2FBF6F406FB1E
:1003E00014222A601A688A42F0D80146064803F0AF
:1003F0000BF8054802F0EDFF0020BDE8F081000099
:10040000C00500200C000020C80C00200020704710
:10041000094A10B5D2F8BC22D2F814210AB1012041
:1004200010BD0A460146044802F0F4FFBDE8104042
:10043000014803F050B80000C80C002070B588B027
:10044000154600234FF6FE761C4602930090CDE938
:1004500003318DF8143003E0641CA4B2B4420FD809
:100460000F4800F002FA0028F6D0012000F05CFCF2
:1004700000244FF47A7609E0641CA4B2B44202D995
:10048000012008B070BD012000F04EFC044806AB0E
:100490002A46694600F089F80028EDD1F1E700000E
:1004A00018040020704700003EB5194CD4E905013E
:1004B00088422CD017490A5C08448DF80020417806
:1004C0008DF8011081788DF80210C1788DF8031035
:1004D00001798DF8041041798DF8051081798DF836
:1004E0000610C1798DF80710017A8DF808100A21DD
:1004F000407A8DF809006846FFF78AFF606940F28C
:10050000DE310A30B0FBF1F201FB120060613EBD4A
:1005100000000020E00800201CB5184CD4E90310AE
:10052000814229D016490A5C08448DF800206A46A9
:1005300041788DF8011081788DF80210C1788DF81E
:10054000031001798DF8041041798DF80510817937
:100550008DF806100821C0798DF807000020FFF7FC
:100560006DFF002808D120694FF446710830B0FBB8
:10057000F1F201FB120020611CBD00000000002010
:10058000C0050020704790F82020012A07D0022AD9
:1005900005D0416A41F48021416201207047006822
:1005A00042690A43426100207047F0B590F820503C
:1005B0000468A468012D05D0022D03D0416A41F4DE
:1005C00080215AE014F0406F01D1E50052D5C4F308
:1005D0000164022C03D9416A41F400014DE0012677
:1005E0004FF4C075A6401E608B68ABB1CE684F68F3
:1005F000D0F800C0334305EB041643EAC7034CF8B8
:10060000063007684FF4C27303EB04130E69FE5003
:10061000097D012909D00DE00E88CB68076843EAFF
:10062000465305EB0416BB51EBE70168CE5846F480
:100630008076CE50D2F805304FF4C67C11790CEBA1
:10064000041C06684FF4C47741EA032107EB041346
:1006500046F80C10167805EB0411D2F80120076853
:1006600046EA0222FA500068425842F00102425023
:100670000020F0BD416A41F4001141620120F0BD4B
:1006800030B590F820300268012B07D0022B05D03E
:10069000416A41F480214162012030BDD2F800322C
:1006A000012043F00103C2F80032D2F81C320C7D65
:1006B00004F01F04A0408343C2F81C32CB69B3B9D5
:1006C000D2F80C328343C2F80C328C894B684D69E6
:1006D00064F31F4302EBC504C4F840320C890B6875
:1006E0004D6964F31F4302EBC504C4F84432CB697F
:1006F000012B16D1D2F80C320343C2F80C320C880D
:100700004B684D6964F31F4302EBC504C4F84032E3
:100710000C89CB684D6964F31F4302EBC504C4F830
:1007200044328B69002BD2F804320FD053EA000315
:10073000C2F804320B69002BD2F8143208D00343FC
:10074000C2F81432096A012904D008E08343EFE7B4
:100750008343F5E7D2F81C120143C2F81C12D2F809
:10076000000220F00100C2F80002002030BD7047F6
:10077000F0B590F82040012C05D0022C03D0416A3E
:1007800041F4802166E0046800295ED02469A40752
:100790005DD005684FF4D87404EB01142D5915F0A1
:1007A0000405956005682D5957D0ED08C2F804502E
:1007B00007684FF4DA754FF4DC7C4FF4DE763C5971
:1007C000002905EB011504F00207D7600CEB0114BA
:1007D00006EB01110668765906F00F0616610668E9
:1007E0007659C6F307269661066875594FEA15458E
:1007F0005561026812591A70026812594FEA1222A2
:100800005A70026812594FEA12429A7002681259DD
:100810004FEA1262DA70026852581A71026852582E
:100820004FEA12225A71026852584FEA12429A71E4
:10083000026851584FEA1161D971006810D00169FE
:1008400041F0200101610020F0BDE4689FE7416AAA
:1008500041F4001141620120F0BD6D0D1560A7E764
:10086000C16841F02001C160EDE790F82010024618
:100870000020012901D002290CD111688A68520197
:1008800000D501208A68120100D5401C8968C90082
:1008900000D5401C70472DE9F05F05460068002434
:1008A0004669D0F804908768D0F80CB0D0F810A052
:1008B000F207D0F8188048D0F90714D001218160E0
:1008C000BA0703D5284600F016FA0CE0780702D5DF
:1008D0004FF4006407E0380702D54FF4805402E07B
:1008E000284600F007FAF80516D52868BA054FF42F
:1008F0008071816003D5284600F0FFF90CE078058F
:1009000002D544F4005407E0380502D544F480448D
:1009100002E0284600F0F0F9F80316D52868BA037B
:100920004FF48031816003D5284600F0E8F90CE0EF
:10093000780302D544F4004407E0380302D544F4B8
:10094000803402E0284600F0D9F9300707D55FEA85
:10095000CB6004D52968102044F40074C860700787
:100960004FF0080707D55FEA0B7004D52868C76009
:10097000284600F055F9B00706D52868C0688007FA
:1009800002D0284600F04EF9700607D55FEACA602B
:1009900004D52968102044F480640861B00607D5A6
:1009A0005FEA0A7004D528680761284600F072F9EA
:1009B000F00606D528680069800702D0284600F0B6
:1009C0006AF9B00308D55FEAC96005D52968102027
:1009D0004860284600F060F9F00307D55FEA097027
:1009E00004D528684760284600F08AF9300446D5C7
:1009F0005FEA497040D5F00504D55FEAC87001D0C0
:100A000044F00104B00504D55FEA887001D544F0D4
:100A10000204700504D55FEA487001D544F004046F
:100A2000300529D518F0700F26D008F07000402846
:100A300015D006DC102809D020280AD0302816D17D
:100A40000AE050280ED0602811D10EE044F00804CE
:100A50000DE044F010040AE044F0200407E044F004
:100A6000400404E044F0800401E044F48074286809
:100A7000816921F070018161296804204860002C9F
:100A800005D0686A204368622846FFF770FEBDE81B
:100A9000F09F70B5040003D094F8200010B104E07A
:100AA000012070BD204600F081F82068016821F027
:100AB0000201016000F028FA0526054604E000F076
:100AC00023FA401B0A2811D8206840688007F6D412
:100AD0002068016841F00101016000F015FA054647
:100AE0000BE000F011FA401B0A2806D9606A40F4B6
:100AF0000030606284F82060D2E720684068C00758
:100B0000EFD0207E0128206801683DD021F08001CF
:100B10000160607E01282068016838D021F0400122
:100B20000160A07E01282068016833D021F02001F7
:100B30000160E07E0128206801682ED041F010019C
:100B40000160207F01282068016829D021F0080178
:100B50000160607F01282068016824D021F0040131
:100B60000160D4E90110D4E903326569491E1843D4
:100B700023682A43104300220843D861012162629E
:100B800084F82010104670BD41F08001C0E741F0AC
:100B90004001C5E741F02001CAE721F01001CFE78D
:100BA00041F00801D4E741F00401D9E710B586B05F
:100BB000044614216846FFF779FB164920688842ED
:100BC00026D11548016841F000710160006800F00D
:100BD0000070059010481038016841F00201016072
:100BE00000680221002200F002000590032309247E
:100BF0004FF440708DE81F000848694600F0A6F8E1
:100C000000221420114600F0DFF9142000F0CEF984
:100C100006B010BD006400404038024000040240AD
:100C200070470000F0B589B000216A4607ABFFF7B6
:100C30009FFD002828D104990298CDB208B10198EF
:100C400000E0009840F2DE34104A114B060A916928
:100C50005E54491CB1FBF4F604FB1616711C985542
:100C6000B1FBF4F007AE04FB10100021906108E026
:100C7000775C491C1F54401CB0FBF4F789B204FB9D
:100C80001700A942F4D3906109B0F0BD0000002024
:100C9000E0080020704770477047000070B50446B8
:100CA00090F82000012804D0606A40F400206062BF
:100CB00018E0022084F820002068016821F001017A
:100CC000016000F021F905460EE000BF00F01CF9BC
:100CD000401B0A2808D9616A052041F4003161628D
:100CE00084F82000012070BD20684068C007EDD165
:100CF000606270BD704770477047704770477047BB
:100D0000704790F83510022903D0802141650120F9
:100D10007047052180F835100068016821F0010155
:100D2000016000207047000070B5044600F0ECF848
:100D30000546601C02D004480078044400F0E4F842
:100D4000401BA042FAD370BD940000202DE9F84F5B
:100D500000224FF001094FF0030A4FF00F0E00BFC1
:100D60000B6809FA02F42340A34270D14D68012DAB
:100D700005D0022D03D0112D01D0122D11D185687F
:100D80005700CE680AFA07FC25EA0C05BE402E4340
:100D9000866045680E79A543C6F3001696402E433B
:100DA0004660C56856008F680AFA06F4A543B74046
:100DB0002F43C7604D68022D01D0122D12D1D508E6
:100DC0000F694FEA427C00EB8505AB462D6A4FEA7E
:100DD000DC6C0EFA0CF807FA0CF725EA08052F432D
:100DE000CBF820700F79056807F00307A543B740DB
:100DF0002F4307604C68E4006AD5384C256845F4F9
:100E000080452560246822F00305970704F4804498
:100E10000094334C3F0F2544D5F80848DFF8C4C090
:100E20000EFA07F6604524EA060401D1002624E004
:100E30002D4EB04201D101261FE02C4EB04201D10F
:100E400002261AE02A4EB04202D1032615E03FE006
:100E5000284EB04201D104260FE0274EB04201D106
:100E600005260AE0254EB04201D1062605E0244EB3
:100E7000B04201D1072600E00826BE40214F26439C
:100E8000C5F808684D683C68ED0324EA030400D502
:100E90001C431C4D3C602D1D4E682C68B60324EA93
:100EA000030400D51C43174E2C6008364D68346887
:100EB000ED0224EA030400D51C43124D34600C35C6
:100EC0004E682C68B60224EA030400D51C432C604B
:100ED000521C102AFFF444AFBDE8F88F443802409A
:100EE00000300140000002400004024000080240BF
:100EF000000C0240001002400014024000180240A2
:100F0000001C0240003C014001488068704700001E
:100F10009400002002488168027811448160704783
:100F200094000020032010B500F06EF8002000F0BF
:100F300005F800F023F8002010BD000070B50D4D3D
:100F400004464FF47A700C4A29781268B0FBF1F02D
:100F5000B2FBF0F001F03AFA48B9102C07D20022A7
:100F60002146501E00F030F800206C6070BD01205A
:100F700070BD000094000020A00000200A4808B5C1
:100F8000016841F080510160006800F080500090DD
:100F90000548001D016841F480410160006800F4CB
:100FA0008040009008BD000040380240002809DB66
:100FB000410900F01F028900012001F1E021904069
:100FC000C1F80001704700000E4BF0B41B680D46DD
:100FD000C3F30223C3F10706042E00D90426191D0A
:100FE000072901D2002300E0DB1E012404FA06F1E8
:100FF0009C40491E2940641E994014402143F0BC86
:1010000003F0C1BC0CED00E0064900F0070210B58A
:101010004FF6FF040868044B204040EA02201843C2
:10102000086010BD0CED00E00000FA050168012326
:10103000C0F8FC33002280F8F4238869044A40F0A9
:1010400000608861486D10434865002070470000CB
:101050000300001070B5164D0446A1B1012911D14D
:101060002068D0F8001E41F00101C0F8001ED4F83D
:10107000000402F07BFD206A002803D0286840F0BD
:101080000600286070BD206A28B101F045FD28687F
:1010900020F0060028602068D0F8001E21F0010131
:1010A000C0F8001ED4F80004BDE8704002F0FCBC9B
:1010B00010ED00E00068416200207047F0B5036861
:1010C0005D6A39B19F6A4C1E00204FF4827605EBB1
:1010D00017450BE045EA0240986210E0471C06EB1A
:1010E000800053F800C0F8B205EB1C45A042F5D3D0
:1010F0004FF4807000EB810045EA02421A50002054
:10110000F0BDD0F8000402F039BCC1EBC10200EB25
:101110008202D0F80004926C02F0A4BBC1EBC102C1
:1011200000EB8202D0F80004D2F8082202F0EFBBF4
:10113000D0F8000402F024BC01F00F020B0670B5D9
:10114000C2EBC20104464FF001004FF0000504EB72
:10115000810103D581F83D003C3103E081F8FD5168
:1011600001F5FE710A7094F8BC23012A08D084F8B6
:10117000BC03206802F09CFF002084F8BC5370BDC3
:10118000022070BD70B54268044601F00F00904225
:1011900001D9012070BD01F00F024FF000050B06D0
:1011A000C2EBC2014FF0010204EB810103D581F8CB
:1011B0003D203C3103E081F8FD5101F5FE718D7059
:1011C000087094F8BC03012808D084F8BC23206878
:1011D00003F06AF9002084F8BC5370BD022070BD92
:1011E00001F00F01C1EBC10100EB8100D0F8140246
:1011F00070472DE9F04101F00F0604460D064FF04F
:101200000100C6EBC6014FF0000504EB810103D5D8
:1012100081F83D003C3103E081F8FD5101F5FE719C
:101220004F788A60CB700E7007B1CE80022B00D150
:101230000D7194F8BC23012A09D084F8BC032068FE
:1012400002F092FE284684F8BC53BDE8F0810220EB
:10125000FBE770B501F00F050C460026C5EBC50194
:1012600000EB8101C1F80822C1E9843681F8FD61F3
:1012700081F8FC5101F5FE710369012B00D10A616F
:101280002207027C006803D003F066F9002070BDDD
:1012900003F050F8FAE770B50D464168044605F0D2
:1012A0000F00884201D9012070BD29064FF00006C9
:1012B0004FF0010207D5C0EBC00104EB810181F8BA
:1012C0003D203C3107E0C5EBC50104EB810181F80D
:1012D000FD6101F5FE718A70087094F8BC03012865
:1012E00007D084F8BC23206803F00AF9280702D04D
:1012F00007E0022070BD217C04F57172206803F0C4
:10130000A7F8002084F8BC6370BD2DE9F04101F01E
:101310000F050C460026C5EBC501012700EB810136
:101320008A64C1E9143681F83D7001F83C5F0369B5
:10133000012B00D10A612207027C006804D003F06F
:101340000BF90020BDE8F08102F0F4FFF9E700009E
:101350002DE9FC5F05680446284603F026FA0028BC
:101360007ED1206803F04DFA002879D0206803F080
:1013700048FA800704D52068416901F00201416103
:10138000206803F03EFAC10604F57170009034D570
:101390002068816921F0100181612F6A07F00F0137
:1013A000C7F34340C1EBC101022804EB810606F5F7
:1013B000FE7602D0062811D01AE047F6F0700742F8
:1013C00016D0C7F30A12F1681746284603F01DFA33
:1013D000F168B0693944F160384408E000990822A6
:1013E000284603F012FAB069C7F30A110844B06145
:1013F0002068816941F010018161206803F001FAE1
:1014000000034FF001094FF0080B5BD52068002660
:1014100003F0D6F9DFF8A8A3074651E0F8074DD04E
:101420002068F1B203F0E5F98046C00707D005EB6C
:101430004611C1F8089B3146204601F0ADFA5FEA3B
:10144000087022D505EB4611C1F808BB2068016C75
:1014500000EB461001915145D0F8081B07D900E078
:10146000ABE1090403D54FF40041C0F8081B204646
:1014700000F09EFA0198504507D92069012804D14F
:1014800020680121009A02F0E3FF5FEAC86004D5FA
:1014900005EB46111020C1F8080B5FEA886004D5FF
:1014A00005EB46102021C0F8081B5FEA884005D5EF
:1014B00005EB46114FF40050C1F8080B7F08761C6D
:1014C000002FABD1206803F09CF940034FF0000AD5
:1014D0005CD5206803F06DF90026074654E0F80754
:1014E00050D02068F1B203F072F98046C00723D0D3
:1014F000D5F8342806F00F0C05EB461309FA0CF06A
:101500008243C5F83428C3F80899206901280FD10F
:10151000C6EBC60004EB8000D0E9111211448164CF
:1015200036B9206D20B920680121009A02F090FFA1
:101530002046F1B2FFF7E9FD5FEA087003D505EB3D
:101540004611C1F808B95FEAC86004D505EB461139
:101550001020C1F808095FEA486004D505EB461180
:101560004020C1F808095FEA887004D505EB4611F0
:101570000220C1F808095FEA086003D53146204619
:1015800001F070FA7F08761C002FA8D1206803F0C4
:1015900038F9002811DAD5F8040820F00100C5F860
:1015A000040894F8F403012839D0204600F0E4F947
:1015B0002068416901F000414161206803F021F990
:1015C00000050BD5D5F80808C00702D0204600F06A
:1015D0000BFA2068416901F400614161206803F061
:1015E00010F900010AD52068416901F000614161EC
:1015F00094F8F403D0B1204600F0F6F9206803F027
:1016000000F9C00476D5D5F8040820F00100C5F82B
:1016100004082068102103F0A9F8002135E000211A
:10162000204684F8F4A3FFF715FDC1E784F8F4938E
:101630002068406D0121C0F38300C4F8F803204600
:10164000FFF708FDDAE700BF05EB41104FF67F32E8
:10165000C0F80829D0F8003923F40013C0F8003985
:10166000D0F8003943F00063C0F80039C0F8082B07
:10167000D0F8002B22F40012C0F8002BD0F8002B79
:1016800042F00062C0F8002B491C60688842DBD839
:10169000D5F81C0840F00110C5F81C08206B60B19B
:1016A000D5F8840840F00B00C5F88408D5F8440844
:1016B00040F00B00C5F844080CE0D5F8140842F2DD
:1016C0002B010843C5F81408D5F8100840F00B00AA
:1016D000C5F81008D5F8000820F4FE60C5F8000829
:1016E000217C2068009A02F0B3FE2068416901F471
:1016F00080514161206803F084F8800417D5206888
:1017000002F072FC206803F043F8E06000F046FC51
:101710000146207B2368C2B2184603F0ADF820468C
:1017200000F014F92068416901F40051416120681A
:1017300003F067F8000707D5204600F021F920687C
:10174000416901F008014161206803F05AF8C002C4
:1017500008D50021204600F035F82068416901F4E1
:1017600080114161206803F04CF8800208D5002107
:10177000204600F02BF82068416901F40011416116
:10178000206803F03EF8400007D52046FFF7B9FC7B
:101790002068416901F080414161206803F031F81F
:1017A00040070AD520684568680702D52046FFF73C
:1017B000BFFC2168486828434860BDE8FC9F0000E2
:1017C0000A30544FD0F8000402F02CB9D0F80004CD
:1017D00002F02AB92DE9F04104008AB005D094F84E
:1017E000BD030025266820B108E001200AB0BDE84D
:1017F000F081204684F8BC5300F066F8032084F89A
:10180000BD03F06BC00500D42561206802F08CFD9B
:1018100004F11001684628228846FEF72EFD94E860
:101820000F0002F0EFFB0227D8BB2068002102F076
:10183000FAFF0020012610E0C0EBC001421C04EBBF
:10184000810181F83D6081F83F504D648D640D65E4
:1018500081F83C00A1F84200D0B261688142EBD827
:10186000002011E0C0EBC001421C04EB810181F8B3
:10187000FD5181F8FF51C1F80452C1F80852C1F876
:10188000105281F8FC01D0B261688142EAD8282266
:1018900041466846FEF7F1FC94E80F0002F086FC32
:1018A00010B184F8BD73A0E7606A84F8385084F8FA
:1018B000BD63012802D12046FFF7B8FB206802F083
:1018C00069FC002092E7000010B586B004461421A0
:1018D0006846FEF7EBFC2068B0F1A04F30D1194804
:1018E000016841F00101016000680221002200F05E
:1018F0000100059003230A244FF4C0508DE81F0017
:1019000011486946FFF722FA0E48001D016841F0B0
:1019100080010160006800F08000059009481430E3
:10192000016841F48041016000680022114600F422
:10193000804005904320FFF747FB4320FFF736FB2D
:1019400006B010BD303802400000024070B50446B9
:10195000C068012570B1022801D0FEF713FED4F84B
:101960000004294602F0B6F8D4F80004BDE870403F
:1019700002F071B80025F2E7D0F8000402F094B844
:10198000D0F8000402F09AB810B5044690F8BC03F1
:1019900001280BD0012084F8381084F8BC0320689B
:1019A00002F058FF002084F8BC0310BD022010BDD7
:1019B000D0F8002400F57171104602F097B810B508
:1019C000044690F8BC0301280CD0012084F8BC0325
:1019D000206802F0D3FB206802F0B2FE002084F8F9
:1019E000BC0310BD022010BD10B50446D0F80004A1
:1019F00002F0BCF82068D0F8001E41F00101C0F8E8
:101A0000001E206A002804D00248016841F0060147
:101A1000016010BD10ED00E02DE9F84F044600789C
:101A2000DFF81C944FF000073E46C0070ED0D9F8EF
:101A3000001021F40001C9F80010D9F80010E26A82
:101A40001143C9F80010E06A00B90127FC4D206875
:101A5000843500030ED5616B286820F440100843DC
:101A60002860606BB0F5801F01D010B102E0012743
:101A700000E0012620684FF4800BC0020CD5A16B5A
:101A8000286820F4400008432860A06B584501D125
:101A9000012701E000B901262078800667D5E848D3
:101AA0003830016841F0805101600068DFF894A38C
:101AB00000F080500090DAF8001041F48071CAF80C
:101AC0000010FFF721FA804606E000BFFFF71CFA7E
:101AD000A0EB080064287DD8DAF80000C005F5D531
:101AE000DFF85C8308F16808D8F8000010F4407053
:101AF0002AD0218D01F44071814225D0D8F8001000
:101B0000D8F8002021F4407142F48032C8F8002057
:101B1000D8F8002022F48032C8F80020C8F800105D
:101B2000D8F80000C0070FD0FFF7EEF9824607E0B3
:101B3000FFF7EAF9A0EB0A0141F288308142CAD8E6
:101B4000D8F800008007F3D5A06AC0F3012103296B
:101B50007ED0D9F8001021F4F811C9F80010228DB8
:101B6000D8F80010C2F30B021143C8F80010207817
:101B7000C00607D5286820F0807028602868216B8F
:101B8000084328602188AE488830490405D5E26DB5
:101B9000016821F44031114301602188090405D511
:101BA000226E016821F44021114301602168C903BC
:101BB00005D5626E016821F440111143016021785E
:101BC000490605D5E26B016821F00301114301606C
:101BD000217800E00BE1090605D5226C016821F0AF
:101BE0000C01114301602188C90505D5626C0168AB
:101BF00021F03001114301602188890505D5A26CCF
:101C0000016821F0C001114301602188490505D513
:101C1000E26C016821F440711143016021880905DB
:101C200005D5226D016821F44061114301602188CE
:101C3000C90405D5626D016821F44051114301606A
:101C40002188890407D5A26D016821F4404100E094
:101C500034E01143016021684FF0006A890209D520
:101C6000626F016821F0006111430160616F5145AD
:101C700000D101262168490305D5E26E016821F0F3
:101C80004071114301602168090205D5A26F016806
:101C900021F08051114301602168490105D5E26FAF
:101CA000016821F0005111430160DFF89C91012F80
:101CB0000ED02068B0F1007F0AD06EE0634AD9F8F8
:101CC0000030104023F4F8120243C9F8002046E720
:101CD000D9F800004F4620F08060C9F80000FFF7F7
:101CE00013F9804606E000BFFFF70EF9A0EB0800ED
:101CF00064287CD838680001F6D4217850487C30BC
:101D0000C9070DD0E16A59B9227A6168D0F800C0DC
:101D10008B01CCF3036143EA016141EA0271016086
:101D200021680A0303D5626BB2F5801F04D0C90293
:101D300014D5A16B594511D1237B626801689201CA
:101D4000C1F3027142EA036242EA0171016029684B
:101D5000E26921F01F01521E1143296021688901A7
:101D600008D56168227B237A890141EA026141EA50
:101D7000037101603968B84641F080613960FFF74E
:101D8000C3F8074605E000BFFFF7BEF8C01B642894
:101D900063D8D8F800000001F6D54EB3D9F800009A
:101DA0004E4620F08050C9F80000FFF7ADF8074616
:101DB00005E000BFFFF7A8F8C01B64284DD83068C5
:101DC000C0438000F6D51E48216880300A0301D543
:101DD000626B1AB1C90219D5A16BB9B9236901683F
:101DE000227D9B01C1F3014143EA014101E034E05E
:101DF0003AE041EA0261016029686FF0FF03226A5C
:101E000021F4F85103EB0222114329602168890271
:101E10000DD5616F51450AD1228B21690368890173
:101E200041EA0242C3F3036142EA016101603068A2
:101E300040F080503060FFF767F8044610E0000083
:101E4000083802400070004000380240FFFCFF0FDD
:101E5000FFF75AF8001B642802D90320BDE8F88F69
:101E60003068C0438000F3D40020F7E72DE9F04745
:101E700005000F4663D0444E306800F00F00B842B2
:101E800009D2306820F00F0038433060306800F02D
:101E90000F00B84253D128683C4C810712D5400747
:101EA00003D5206840F4E05020602878000703D56F
:101EB000206840F460402060A968206820F0F000AD
:101EC000084320602878C0072AD03049686808395C
:101ED000012810D00968022810D0890700292EDABD
:101EE000216821F0030101432160FFF70DF88046CE
:101EF00041F288390DE009688903EFE78901EDE7D0
:101F0000FFF702F8A0EB0801494502D90320BDE81C
:101F1000F0876868216801F00C01B1EB800FEFD108
:101F2000306800F00F00B8420BD9306820F00F0085
:101F300038433060306800F00F00B84201D0012013
:101F4000E5E72878400705D5E968206820F4E050E7
:101F5000084320602878000706D52869216821F405
:101F6000604141EAC000206000F03EF82168084A64
:101F7000C1F30311515CC840064908600648006877
:101F8000FEF7DCFF0020C2E7003C024008380240B8
:101F9000384C0008A000002098000020014800688C
:101FA00070470000A0000020044905480968006847
:101FB000044AC1F38221515CC8407047083802408E
:101FC000A0000020484C0008044905480968006842
:101FD000044AC1F34231515CC8407047083802409E
:101FE000A0000020484C0008154910B515480968A4
:101FF00011F00C0213D04110042A0FD0082A0ED180
:102000000F4C241F2268236802F03F025B0207D5B1
:102010002068C0F38810A0FB010106E0084610BD4F
:102020002168C1F38811A1FB00010023FEF7F4F839
:102030002168C1F30141491C4900B0FBF1F010BD1A
:10204000083802400024F4002DE9F84F04004FF056
:1020500000076ED02078DFF868A3AAF10408C00753
:10206000A8F104054CD0DAF800105046C1F3810104
:10207000012908D00068C0F3810002280AD1D8F8ED
:102080000000400206D52868800339D56068002822
:10209000DFD035E06068B0F5803F0BD010B1B0F50F
:1020A000A02F11D0286820F480302860286820F400
:1020B000802002E0286840F480302860606890B199
:1020C000FEF722FF06460AE0286840F480202860D8
:1020D000F0E700BFFEF718FF801B642872D828685D
:1020E0008003F7D50CE0FEF70FFF064605E000BFC2
:1020F000FEF70AFF801B6428F0D828688003F7D415
:102100002078800742D5DAF80010504611F00C0F05
:1021100008D00068C0F3810002280BD1D8F8000075
:10212000400207D42868800718D5E068012800D14C
:1021300014E041E1E0680028286817D040F0010071
:102140002860FEF7E1FE064605E000BFFEF7DCFE74
:10215000801B0228C2D828688007F7D52069296823
:1021600021F0F80141EAC00028600FE020F00100F2
:102170002860FEF7C9FE064605E000BFFEF7C4FE74
:10218000801B02281ED828688007F7D42078000713
:1021900029D58B4861696C3000298146016812D0CD
:1021A00041F001010160FEF7AFFE064605E000BF09
:1021B000FEF7AAFE801B022804D8D9F80000800789
:1021C000F6D510E089E021F001010160FEF79CFEE8
:1021D000064604E0FEF798FE801B02287DD8D9F859
:1021E00000008007F6D4207840076BD5DFF8D09147
:1021F00009F13809D9F80000C0000BD4D9F8001053
:1022000041F08051C9F80010D9F80000012700F012
:10221000805000906B480168C90512D4016883465C
:1022200041F480710160FEF76FFE064605E000BFD5
:10223000FEF76AFE801B64284FD8DBF80000C0055B
:10224000F6D55F4EA068683601280AD008B1052887
:1022500011D0306820F001003060306820F00400B8
:1022600002E0306840F001003060A068A0B1FEF7E5
:102270004BFE83460CE0306840F004003060F0E72D
:10228000FEF742FEA0EB0B0141F28830814266D896
:1022900030688007F4D50EE0FEF736FE834607E08F
:1022A000FEF732FEA0EB0B0141F28830814256D896
:1022B00030688007F4D42FB1D9F8001021F0805194
:1022C000C9F80010A069C8B3DAF80010C1F38101A1
:1022D00002294BD00228286800E040E020F08070FE
:1022E000286003D0FEF710FE04463BE0FEF70CFE2C
:1022F000064604E0FEF708FE801B02282FD8286857
:102300008001F7D4D4E90962D4E907012E4B5708BC
:1023100094F82C20084303EB074343EA8611084353
:1023200040EA026040F00050C8F80000286840F021
:1023300080702860FEF7E8FD044606E03EE000BF3E
:10234000FEF7E2FD001B022809D828688001F7D5B6
:1023500034E000BFFEF7D8FD001B022802D903209D
:10236000BDE8F88F28688001F4D427E00128D8F868
:10237000000021D0E16900F480028A421CD1216A68
:1023800000F03F028A4217D1626A47F6C0710140ED
:10239000B1EB821F10D1A16A4FF0FF3200F440333D
:1023A00002EB5101B3EB014F06D194F82C1000F071
:1023B0007060B0EB016F01D00120D1E70020CFE7C2
:1023C00008380240007000400000FFFF401EB0F1DE
:1023D000807F10B501D3012010BD4FF0E024606173
:1023E0000F21601702F0CFFA0020A06107212161C0
:1023F00010BD704770B50446006800210F222023ED
:10240000056825F4907505602068856825F001054C
:102410008560206885686D061FD5856825F04005B4
:102420008560E06E48B10F490165E06EFEF769FC1A
:1024300088B1E06E016D88470DE0A4F85A1061651F
:10244000206802622068816941F008018161A36708
:102450002046FFF7CEFF002070BDA4F85A1061653A
:102460000262F4E7ED2D0008704700002DE9F0410D
:1024700002680446002540F60F06D069116893688B
:10248000304205D183067BD58B0679D5216E7CE061
:1024900003F0010601F49077374371D0C70707D0E6
:1024A000CF0505D501271762E26F42F00102E2670E
:1024B000820708D5DA0706D0276802223A62E26F5F
:1024C00042F00402E267420708D5DA0706D0236823
:1024D00004221A62E26F42F00202E26702070AD5A2
:1024E00001F02002324306D0236808221A62E26F0C
:1024F00042F00802E267020509D54A0107D52368C0
:102500004FF400621A62E26F42F02002E267E26F6B
:10251000002A2ED0800605D5880603D5216E09B184
:10252000204688472168E06F8968490602D410F088
:10253000280F20D0204600F06BFC206881684906F7
:1025400014D5816821F040018160E06E70B11849B6
:102550000165E06EFEF7D5FB00280AD0E06E016D44
:1025600000E02046BDE8F041084709E02046FFF7BB
:102570007BFFBDE8F0812046FFF776FFE567F8E7CF
:10258000030605D50B0603D5616E0029E9D1F0E7F6
:102590004006EED54806ECD513682021204623F0EE
:1025A000400313606167656600F01DF9E1E7000014
:1025B000D92D000810B5040002D0606F10B107E0FB
:1025C000012010BD002084F87000204600F026F89D
:1025D000242060672068016821F001010160204625
:1025E00000F080FC0128ECD0606A10B1204600F0B9
:1025F00071FB2068416821F4904141602068816846
:1026000021F02A0181602068016841F00101016028
:102610002046BDE8104000F0C1BB0000F0B587B017
:10262000044614216846FDF741FE276800233D4A11
:1026300002253B4903263C480724974221D1384ACA
:102640001432176847F010071760126802F0100282
:1026500005920A6842F002020A600968CDE9023672
:1026600001F002010591C0210494CDE900156946ED
:10267000FEF76CFB002225201146FEF7A5FC252065
:1026800025E0274ADFF8A4C01032674523D110683F
:1026900040F400301060106800F4003005900868C5
:1026A00040F00100086008686946CDE9023600F094
:1026B000010005900C200494CDE900051C48FEF7AC
:1026C00045FB002226201146FEF77EFC2620FEF761
:1026D0006DFC07B0F0BDDFF85CC06745F9D1176845
:1026E00047F480271760126802F4802205920A6876
:1026F00042F002020A600968CDE9023601F00201E7
:1027000005914FF440610494CDE900156946FEF748
:102710001DFB002227201146FEF756FC2720D6E796
:1027200030380240001001400004024000440040E4
:10273000000002400048004070B5836F202B4BD151
:10274000B9B1B2B190F87030012B45D08368012641
:1027500080F870600024416535030466AB42A0F840
:102760005820A0F85A204FF0FF0107D1026912B19A
:1027700026E0012070BD40F2FF1121E04FF07F0202
:10278000E3B1B3F1805F1ED0A0F85C402221C467A2
:10279000816701688A6842F001028A608168A94203
:1027A00001D10169B1B10D49016680F8704000683E
:1027B000016841F490710160002070BD036933B974
:1027C000A0F85C10E2E7016909B13F21F8E7A0F841
:1027D0005C20DBE70249E7E7022070BD8B2E000892
:1027E000312E000870477047FEE70000F0B5002367
:1027F0000A251C463026372711E000BFB5EB107FB5
:1028000002D906EB107C01E007EB107C01F813C045
:1028100001EB430C00015B1C8CF80140DBB29342DE
:10282000ECD3F0BD18480C2330B50024154D8BB007
:1028300005604FF40012C0E901349903C460C0E997
:102840000412047644768476C47604774477FEF7DF
:1028500020F9012001940E21029403940494CDE9FF
:102860000640CDE908010594694607480094FDF744
:1028700007FF05480221FDF786FE0348FEF70EFA22
:102880000BB030BD006400401804002010B50E4CA1
:1028900000200C4B0C214FF4E1322360C4E90120ED
:1028A000E060C4E90401A061E0612062606220464A
:1028B000FFF780FE05496068B1FBF0F00449C8618C
:1028C00010BD00000010014040040020001BB700B4
:1028D000000000200A48002130B4084C0C224FF4BC
:1028E000E1330460C0E90131C160C0E904128161D3
:1028F000C1610162416230BCFFF75CBE0044004030
:10290000C00400200A48002130B4084C0C224FF4C7
:10291000E1330460C0E90131C160C0E904128161A2
:10292000C1610162416230BCFFF744BE0048004013
:102930004005002010490022104810B500F066FF45
:1029400008B1FDF71FFE0E490C4801F036F908B139
:10295000FDF718FE0B49094800F04FFD08B1FDF7DF
:1029600011FE064801F0A2F9002803D0BDE810408E
:10297000FDF708BE10BD000020000020C80C00209C
:102980008001002080000020FEE770470148FEF72C
:10299000DFBC0000980F00202DE9F04104460069DB
:1029A0000D462027236801284FF4004604F5717274
:1029B00003EB4511D3F840C0D1F8080B09D0DFF87C
:1029C0009CE0F4453AD1020433D500BFC1F8086B4E
:1029D00040E0234B5FEA007E04D59C453AD90004D1
:1029E000F4D437E05FEA806E02D5C1F8087B31E0AD
:1029F00010F0280F2ED19C4501D90004E6D4D1F85F
:102A0000103BC5EBC50004EB8000C3F31203D0F804
:102A10000412A1EB0303C0F81432D0F808321944B1
:102A2000C0F8081295B9D4F8100278B920680121CD
:102A30000AE080060AD5C1F8087B07E035B9D4F86A
:102A4000100218B90021184601F002FD2046E9B233
:102A5000FEF764FB0020BDE8F08100000A31544F0E
:102A60000A30544F2DE9F84F0E4605688146C1EBF8
:102A7000C60100EB8104D4E914203C34904202D911
:102A80000120BDE8F88FA168101A814200D20846E3
:102A9000C01C05EB461887081BE000BFA268A0EB2E
:102AA000010A524500D2924699F810100AF103002B
:102AB00000911FFA8AF3E16887082846F2B201F014
:102AC0004FFFE16801EB0A00E060A16901EB0A0039
:102AD000A061D8F8180980B2B84205D3D4E905013D
:102AE000814201D20028D9D1D4E90501884208D811
:102AF000D5F83418012006F00F0290408143C5F844
:102B000034180020BDE7704770470178407841EAEB
:102B100000207047FEF7FEB930B5B3B0302120A8D1
:102B2000FDF7C4FB14212CA8FDF7C0FB80216846EB
:102B3000FDF7BCFB1E48016841F080510160006850
:102B400000F0805031901B48016821F4404141F46D
:102B500080410160006801230225990500F440408E
:102B600031900420CDE9265128A960221C0481E877
:102B700025002B9020A8CDE92034FFF765FA8022AC
:102B80000F215001CDE92C1500243094CDE92E20E1
:102B900001212CA8FFF76AF907480F9410941194AB
:102BA0001D9400906846FEF737FF33B030BD00003B
:102BB0004038024000700040C001200005484FF03E
:102BC00000610368034A43F470030360803A1160B4
:102BD0007047000088ED00E01149C82270B501F58A
:102BE0002070FFF7A9FD0F4DB5F85A00C82815D27F
:102BF0000D4C00BFB5F85A00E080E06901F0E4FE3A
:102C0000B5F85A00E1888842F4D188B2C0F1C80012
:102C100020800448FFF7EEFB012070BD002070BD4E
:102C2000C001002040040020000000201149C822FB
:102C300070B501F50E70FFF77FFD0F4DB5F85A0026
:102C4000C82815D20D4C00BFB5F85A002081E069A4
:102C500001F0BAFEB5F85A0021898842F4D188B251
:102C6000C0F1C80060800448FFF7C4FB012070BDBC
:102C7000002070BD88020020C00400200000002059
:102C80001149C82270B501F5F870FFF755FD0F4DD9
:102C9000B5F85A00C82815D20D4C00BFB5F85A0037
:102CA0006081E06901F090FEB5F85A0061898842C0
:102CB000F4D188B2C0F1C800A0800448FFF79AFBA5
:102CC000012070BD002070BD500300204005002091
:102CD0000000002090F82410C90706D00168836A1C
:102CE0004A6822F400321A434A6090F82410890797
:102CF00006D50168C36A4A6822F480321A434A60E2
:102D000090F82410490706D50168036B4A6822F43D
:102D100080221A434A6090F82410090706D50168FA
:102D2000436B4A6822F400421A434A6090F8241028
:102D3000C90606D50168836B8A6822F480521A435B
:102D40008A6090F82410890606D50168C36B8A68EA
:102D500022F400521A438A6090F82410490611D5D3
:102D60000168036C4A6822F480121A434A60016CBD
:102D7000B1F5801F06D10168436C4A6822F4C00295
:102D80001A434A6090F82410090606D50168826C3F
:102D9000486820F4002010434860704738B500258B
:102DA0000446C567FEF7B0F80346206800680007D0
:102DB0000BD56FF07E400090002220464FF40011AA
:102DC00000F0BEF908B1032038BD2020606784F808
:102DD0007050A067002038BD10B5806B0021A0F8AE
:102DE0005A10A0F85210FFF73FFB10BD10B5806BD2
:102DF00000230F212022A0F85A30036819620168CD
:102E00008B6943F008038B618267FFF7F2FA10BD0C
:102E100010B50168202200230C6824F490740C6023
:102E200001688C6824F001048C608267036610BD21
:102E300010B5816FB0F85C202229016804D0886940
:102E400040F00800886110BD496A436D1140198047
:102E5000416D891C4165B0F85A10491EA0F85A10FE
:102E6000B0F85A100029EED10168202200230C6826
:102E700024F490740C6001688C6824F001048C6068
:102E800082670366FFF7AEFC10BD10B5816FB0F826
:102E90005C202229016804D0886940F0080088611C
:102EA00010BD496A436D11401970416D491C41655F
:102EB000B0F85A10491EA0F85A10B0F85A1000295C
:102EC000EED10168202200230C6824F490740C6079
:102ED00001688C6824F001048C6082670366FFF748
:102EE00081FC10BD2DE9F04104468068DFF820C266
:102EF000884F2368D4E90452E16928431E680025FD
:102F00000A438549104306EA0C0606431E604FF447
:102F100000422068E668436823F44053334343602B
:102F20002368A669206AD3F808C030432CF43066C1
:102F300006439E602068B8420AD1086810F003007A
:102F400052D001287BD002287AD003286ED186E0A7
:102F5000724B98420AD1086810F00C0079D004280E
:102F60007BD0082877D00C2860D178E06C4B984251
:102F70000AD1086810F030006BD010286DD02028DE
:102F800069D0302852D16AE0664B98420AD108686D
:102F900010F0C0005DD040285FD080285BD0C028F2
:102FA00044D15CE0604B98420DD1086810F4407049
:102FB0004FD0B0F5807F50D0B0F5007F4BD0B0F54A
:102FC000407F33D14BE0594B98420FD1086810F441
:102FD000406009D0B0F5806F3FD0B0F5006F3AD0B7
:102FE000B0F5406F22D13AE0012120E0504B9842E9
:102FF0000DD1086810F440502BD0B0F5805F2CD074
:10300000B0F5005F27D0B0F5405F0FD127E0494B06
:1030100098420BD1086810F440401AD0B0F5804FA8
:103020001BD0904217D0B0F5404F18D01021E06966
:103030004FF6EF7690423AD1092961D202E00CE0D6
:1030400009E006E0DFE801F00D10255C285C5C5C1F
:103050002B000021EBE70221E9E70421E7E7082143
:10306000E5E7FEF7A1FF01E0FEF7AEFF6168400073
:1030700000EB5100B0FBF1F080B2A0F11001B142C1
:103080003ED84FF6F0732168C0F342021840104357
:1030900026E02949606805E0FEF7A6FFE6E76068DC
:1030A0004FF4803101EB5001B1FBF0F0E4E7092966
:1030B00026D2DFE801F0050817251C2525251F006D
:1030C000FEF772FF01E0FEF77FFF616800EB510041
:1030D000B0FBF1F080B2A0F11001B14210D821682C
:1030E000C8600EE06068154901EB500105E0FEF78D
:1030F0007BFFEAE7606802EB5001B1FBF0F0E9E723
:1031000001250020206660662846BDE8F0810000A9
:10311000F369FFEF00100140903802400044004086
:1031200000480040004C00400050004000140140A6
:1031300000780040007C00400048E8010024F400D2
:103140002DE9F0479A4617460E460446089D4FF073
:1031500000094FF0200839E0681C37D0FDF7D4FE95
:10316000A0EB0A00A84222D80DB3206801684907E5
:103170002CD5C069C043000528D423684FF40061F2
:10318000196221680B6823F4D0730B6021688B6887
:1031900023F001038B60C4F87480C4F87880C4F80D
:1031A0007C8000BF032084F87090BDE8F087216820
:1031B0000B6823F4D0730B6021688B6823F0010344
:1031C0008B60C4F87480C4F87880EBE72068C0692D
:1031D00036EA000004D00020B842BDD00020E4E769
:1031E0000120F9E70148FFF741B900004004002041
:1031F0000148FFF73BB90000C00400200148FFF779
:1032000035B90000400500202DE9F041D0F8C42276
:103210000C46D0F8BC12F1B104EB8403002600EB9D
:103220008305AB694BB1C4EBC40702EB8702526C58
:10323000B3FBF2F702FB17327AB1C1F814612246F0
:10324000D0F8C0020369D1F8080101F588719847E8
:103250000020BDE8F0810320FBE7002321461A4649
:10326000AE6100F08CFCF3E770B5D0F8BC420546C7
:103270006CB100F092FBC4F80C0104F58671D5F82E
:10328000C002C268D4F804019047002070BD03203A
:1032900070BD70B500260446812100F0DAFA0025E1
:1032A00020460121258700F0D4FA82212046A4F887
:1032B000785100F0CEFAD4F8BC02A4F84C50A4F82F
:1032C0004E5048B1D4F8C00204F52F7440688047CE
:1032D000206801F09DFB2560304670BD10B5D0E937
:1032E000AF4159B194F80001FF2807D08B682146FF
:1032F00094F801219847FF2084F80001002010BDB8
:103300000A21018000487047A80000204321018065
:1033100000487047F80000204321018000487047B2
:10332000B400002043210180004870473C01002088
:103330002DE9F04704464FF48E7001F047FC05007C
:103340004FF0000735D0207C01264FF480794FF0F4
:103350001008C4F8BC5280B34023204602228121C9
:1033600000F064FB4023268702222046012100F062
:103370005DFBA4F878610823032220468221A4F88B
:103380004E8000F053FBA4F84C60D4F8C0020068F3
:103390008047C5F81471C5F81871207CD5F8042150
:1033A000A8B140232046012100F04CFB0020BDE8DD
:1033B000F0870220C4F8BC72F9E7FFE702224B460F
:1033C0008121204600F032FB4B462687CCE74B4656
:1033D000E8E710B5D0F8BC1251B1027C002AD1F850
:1033E000042107D04023012100F02CFB002010BD58
:1033F000032010BD4FF48073F5E719B1C0F8C01277
:103400000020704703207047D0F8BC02C0F80411B8
:1034100000207047D0F8BC02C0F81021C0F8081195
:10342000002070472DE9FC4105460C460020064669
:10343000D5F8BC728DF80000ADF80400087810F0E3
:10344000600122D020293ED1E288B2B1000608D521
:10345000D5F8C0023946836860789847E2883946D3
:1034600029E06078394687F80001A07987F80101E2
:103470002846E28800F06DF82AE0D5F8C002002264
:10348000214683686078984722E0607830B101284F
:103490001ED00A2809D00B2815D110E095F89C02FF
:1034A000032810D1022201A905E095F89C02032807
:1034B00009D101226946284600F065F808E095F830
:1034C0009C02032804D02146284600F037F8032642
:1034D0003046BDE8FC8110B5D0F8BC12012219B10C
:1034E000D1F8143113B10FE0032010BD0122C1F84F
:1034F0001421D1F81021C262D1F81031D1F808217D
:10350000812100F03CFB0022104610BD10B5D0F820
:10351000B8220AB152689047002010BD13460A46EF
:10352000002110B500F08EFA002010BD13460A46A7
:10353000002110B500F023FB002010BD10B5802144
:10354000044600F001FB2046BDE81040002100F0D9
:10355000FBBA10B5C0F858210323C0F894321346C3
:10356000C0F85C210A46002100F06CFA002010BD72
:103570000521002310B51A46C0F89412194600F030
:1035800061FA002010BD10B582610223C0F89432A8
:103590001346C2610A46002100F0F1FA002010BD76
:1035A0000421002310B51A46C0F89412194600F001
:1035B000E6FA002010BD000004A00A46024910B53A
:1035C00000F0F3F8004810BD9C1300204344432052
:1035D000436F6E66696700001220088000487047DC
:1035E0004400002004A00A46024910B500F0DDF8AE
:1035F000004810BD9C13002043444320496E74656D
:10360000726661636500000004200880004870470E
:103610004000002004A00A46024910B500F0C5F899
:10362000004810BD9C13002053544D6963726F65B0
:103630006C656374726F6E696373000004A00A4660
:10364000024910B500F0B1F8004810BD9C130020ED
:1036500053544D3332205669727475616C20436F38
:103660006D506F727400000010B51A2008800B486E
:103670000A490830021F096800681468081809D050
:1036800007490822FFF7B2F8054904222046103105
:10369000FFF7ACF80248801E10BD0000107AF01F42
:1036A000660000200C200880004870475800002069
:1036B000F8B504460D460020ADF800004888010A20
:1036C000062947D006DC01290FD0022912D0032990
:1036D00062D11DE0072946D00F295DD1D4F8B4028C
:1036E000C26920E0694690473BE0D4F8B412207CE0
:1036F0000A68F7E7207C02260028D4F8B80205D033
:10370000C16A684688470146467036E0816AF8E734
:10371000C0B2062840D2DFE800F003090D111519E8
:10372000D4F8B4024268B2B3207CDBE7D4F8B40228
:103730008268F8E7D4F8B402C268F4E7D4F8B402B7
:103740000269F0E7D4F8B4024269ECE7D4F8B402B5
:103750008269E8E7207CF0B9D4F8B802416B68468A
:103760008847014609E0207CA8B9D4F8B802016B6B
:1037700068468847014607204870EA888AB1BDF844
:10378000000040B1824200D902462046ADF8002038
:10379000FFF7F9FEF8BDFFE729462046FFF7CEFE0A
:1037A000F8E72046FFF7FCFEF4E770B500284FF07D
:1037B00000051ED004462E4602E0761C641CF6B2BC
:1037C0002378002BF9D1022404EB460414801278EC
:1037D0006B1C03264A550024AA1CCE5406E0551C37
:1037E0008B54EAB2531C401C8C54DAB20378002B81
:1037F000F5D170BD01004FF0000004D0012901D0C7
:10380000022901D0032070470120704730B4A0B1D5
:10381000D0F8B84200230CB1C0F8B832D0F8CC428E
:103820000CB1C0F8CC3209B1C0F8B4120121027059
:1038300080F89C1230BC00F0B5B830BC0320704753
:1038400010B5D0F8C402FDF79DFCBDE81040FFF7AD
:10385000D1BF10B5D0F8C402FDF76EFCBDE8104032
:10386000FFF7C8BF70B51646044649B1D4F8B80290
:1038700042691AB194F89C02032842D0032070BD1B
:10388000D4F89412002504F11400022932D1D0E9B1
:103890000232934206D99A1A314682602046FFF7D7
:1038A00045FE0FE09A4214D14068904211D3D4F8FB
:1038B000981288420DD2002220461146FFF736FEAC
:1038C000C4F8985200231A461946204600F0BAF868
:1038D00010E0D4F8B802C16829B194F89C0203281A
:1038E00001D1204688478021204600F02DF920464E
:1038F000FFF73EFE94F8A002012806D184F8A052FA
:1039000003E0204690470028B9D1002070BD10B5D3
:103910001346044649B1D4F8B80282691AB194F842
:103920009C02032824D0032010BDD4F8941204F57F
:10393000AA70032920D1D0E9021291420AD98A1A29
:103940008260C068824200D3024619462046FFF7D3
:10395000E5FD11E0D4F8B802016929B194F89C02A0
:10396000032801D1204688472046FFF719FE03E0CF
:10397000204690470028D7D1002010BD0020704776
:1039800010B5D0F8B812012280F89C2219B1037941
:103990004A68D9B29047002010BDD0F8C402FDF7A4
:1039A0001FBC000070B5017839BB15490022022503
:1039B00006244FF0A043C1F80004C0F8C412084622
:1039C0000A61C1E906520A624A628A62CA620A63ED
:1039D000C1E90034FDF7FEFE08B1FCF7D3FD08484D
:1039E0008021FDF767FB064840220021FDF766FBBA
:1039F000034880220121FDF761FB002070BD00001B
:103A0000980F0020D0F8C42201F07F000B06C0EB15
:103A1000C00002EB800002D590F83E00704790F89D
:103A2000FE017047002070470020704710B51C460B
:103A3000D0F8C40213462246FDF7DBFBBDE8104078
:103A4000FFF7D8BE10B5D0F8C402FDF702FCBDE800
:103A50001040FFF7CFBE70B5044601250020D4F812
:103A6000BC1284F89C52C4F894026060C4F8A402AA
:103A700029B1D4F8B80200214268204690470022BC
:103A8000204640231146FFF7D1FF4026A4F8645199
:103A90000022334680212046C4F86061FFF7C6FF4C
:103AA000A5840020266270BD90F89C12042903D1E1
:103AB00090F89D1280F89C120020704710B590F885
:103AC0009C12032904D1D0F8B812C96901B1884702
:103AD000002010BD01740020704710B5D0F8C4025A
:103AE000FDF752FFBDE81040FFF784BE70B50446F5
:103AF00000F2AA20054600F04BF8B4F8B0320121DC
:103B000094F8AA0210F01F02C4E9A5130AD0012AF2
:103B10000ED0022A12D000F080012046BDE870408D
:103B200000F012B829462046BDE8704000F0C0B849
:103B300029462046BDE8704000F0EBB929462046F2
:103B4000BDE8704000F03FB910B5D0F8C402FDF7F1
:103B5000A2FBBDE81040FFF74DBE10B5D0F8C4027F
:103B6000FDF72DFFBDE81040FFF744BE90F89C2202
:103B7000042180F89D2280F89C120020704710B527
:103B8000D0F8C402FDF7C1FBBDE81040FFF732BE1C
:103B900070B5054608788C1C2870487868702046F7
:103BA000FEF7B3FFA41C68802046FEF7AEFFA88096
:103BB000A01CFEF7AAFFE88070BD38B504460020BF
:103BC000ADF8000041B1C4F8B8126846896A884768
:103BD000C4F8CC02002038BD032038BDD0F8B8327C
:103BE00002460320002B02D01B681046184770477E
:103BF0002DE9F0412C4E0446887800250F46C1B2CD
:103C00000129317006D939462046FFF797FC032079
:103C1000BDE8F08194F89C0202280CD003281DD046
:103C200039462046FFF78AFC31782046FFF76EFCC4
:103C300003252846ECE799B320466160FFF7CEFFE5
:103C4000050004D039462046FFF778FCF1E720460E
:103C5000FFF7A6FC032084F89C02EAE74FF0020875
:103C6000C1B1606888421BD0C1B22046FFF74EFC4C
:103C7000317820466160FFF7B1FF050010D039466A
:103C80002046FFF75BFC21792046FFF73FFC84F8D4
:103C90009C82CEE76160204684F89C82FFF736FC68
:103CA0002046FFF77DFCC4E7A4000020FFF755BFC6
:103CB0002DE9F0410A784FF0000512F0600208D0BB
:103CC000202A01D0402A71D1D0F8B82292689047BA
:103CD00031E04B78002201260A2B67D2DFE803F09F
:103CE000415E6658660805662D29FFF7E1FC5FE036
:103CF00004468888D8B9C888C8B94888802816D2A8
:103D000094F89C2200F07F07032A10D03946204601
:103D100084F89E72FFF7E1FE2046FFF741FC1FB1D9
:103D2000022084F89C0243E084F89C6240E0204634
:103D30003CE0FFF75DFF05463AE0CB88012B35D12B
:103D400090F89C32012B04D0022B02D0032B2DD1F2
:103D500004E000F108018260012216E00122011D49
:103D600013E090F89C22012A03D0022A01D0032AF2
:103D70001CD1CA88022A19D1D0F8A412C66009B190
:103D80000321C160022200F10C01FFF7FCFB0FE0F0
:103D9000498801290CD1C0F8A46211E090F89C3246
:103DA000012B08D0022B06D0032B04D0FFF7C6FB53
:103DB0002846BDE8F08149880129F9D1C0F8A4223C
:103DC000FFF7EEFBF4E72DE9F04104460878002701
:103DD0000D46097910F060000BD0202801D0402852
:103DE00073D1D4F8B8022946826820469047074626
:103DF0008CE06878D8B3012822D0032865D194F8E4
:103E00009C02022802D003287CD10BE0002979D043
:103E1000802977D02046FFF797FE80212046FFF7C4
:103E200093FE73E0688838B931B1802904D0E888FE
:103E300010B92046FFF788FE2046FFF7B1FB65E08A
:103E400094F89C020228E1D003285BD16888D8BB93
:103E5000480602D02046FFF7F3FC2046FFF7A0FB00
:103E6000D4F8B80229468268204690474EE0FFE722
:103E700094F89C020026022802D0032842D111E0C7
:103E800009B180293ED1080601F07F0000EB8000D7
:103E900004EB800101D5143101E001F5AA71022281
:103EA0000E602BE0080601F00F0000EB800004EB31
:103EB00080000BD5808C40B101F07F0000EB8000CA
:103EC00004EB800514350CE020E01BE0B0F8640141
:103ED000C0B101F07F0000EB800004EB800505F528
:103EE000AA7541B1802906D02046FFF78BFD10B19D
:103EF0000120286000E02E60022229462046FFF7BC
:103F000042FB03E029462046FFF718FB3846BDE890
:103F1000F08170B5064608780D464FF0000410F0A9
:103F2000600003D0202801D0402817D196F89C02C9
:103F3000012803D0022801D003280FD128790128B5
:103F40000CD8D6F8B8028268304690470446E88814
:103F5000204306D13046FFF723FB02E03046FFF74F
:103F6000EDFA204670BD000070B54D7801230A7847
:103F7000012D1C4C02F00F0503FA05F3D0F81C5874
:103F800017D000EB421245EA0343C0F81C38D2F8C0
:103F9000000B00040BD40B89C978D2F8000BC3F3D3
:103FA0000A03184344EA81410843C2F8000B002089
:103FB00070BD9EB23543C0F81C5800EB4213D3F8D5
:103FC00000090004F3D40D89C978D3F80009C5F3BA
:103FD0000A058904284341EA825108432043C3F873
:103FE0000009E4E700800010D0F800196FF30A011F
:103FF000C0F80019D0F8041841F48071C0F8041812
:104000000020704770B504460699049D0D9801295B
:1040100015D0E06840F04000E060204600F02CF849
:10402000A16B41F48031A163012D07D1A16841F05A
:104030000601A160A16841F02001A16070BDA26BE2
:1040400001280C4922F48030A063E06800EA0100F6
:10405000E060E06840F01000E060E06820F44010AC
:10406000E06003D1E06840F48010E060204600F09A
:1040700003F8D9E7BFFFBDFF0C49012202E0521C43
:104080008A420BD80369002BF9DA0369012243F055
:104090000103036104E0521C8A4201D903207047E6
:1040A0000369DB07F7D1002070470000400D0300D3
:1040B00070B50A7801234C78012C00EB42122CD009
:1040C000D2F8004B002C0BDAD2F8004B44F000641D
:1040D000C2F8004BD2F8004B44F08044C2F8004BC9
:1040E0000C78D0F83C5804F00F0403FA04F425EAE5
:1040F0000444C0F83C480978D0F81C4801F00F018E
:104100008B401C4924EA0343C0F81C38D2F8000B4A
:104110000840C2F8000B002070BDD2F80049002C06
:104120000BDAD2F8004944F00064C2F80049D2F832
:10413000004944F08044C2F800490D78D0F83C486A
:1041400005F00F050C4E03FA05F5ADB2AC43C0F80F
:104150003C48D0F81C48097801F00F018B4099B217
:104160008C43C0F81C48D2F800093040C2F800095E
:10417000D1E700000078F3EF007833EC10B5D0F809
:10418000041821F00201C0F804180320FCF7CCFD4C
:10419000002010BD10B5D0F8041841F00201C0F89D
:1041A00004180320FCF7C0FD002010BD2DE9F04FDE
:1041B0000E4604460021DDF824B00D46109F084647
:1041C000DDF82C2004EB800CCCF80411401C0F28E7
:1041D000F8D32046B7B1806B40F4001CC4F838C057
:1041E00088460846C4F8000E2046D4F80018012A74
:1041F000C4F8001839D0032A37D0D0F8001841F09D
:10420000030117E0D0F8040840F0020CC4F804C819
:10421000A06B20F4001CC4F838C0206840F0400CAB
:10422000C4F800C0206840F0800CC4F800C0D7E794
:1042300041F00101C0F80018102100F097FA00B118
:104240000125204600F082FA00B1012540464FF0DA
:1042500000694FF67F334FF0904AC4F81088C4F8D5
:104260001488C4F81C88002119E0D0F80018002B2D
:10427000E0D0DDE704EB4112D2F800C9BCF1000F39
:1042800006DA11B1C2F800A904E0C4F8009901E00F
:10429000C2F80009C2F81009C2F80839491C8E4258
:1042A000E8D8002115E000BF04EB4112D2F800CBA2
:1042B000BCF1000F06DA11B1C2F800AB04E0C4F89B
:1042C000009B01E0C2F8000BC2F8100BC2F8083BDB
:1042D000491C8E42E8D8D4F81038BBF1000F6FF0BB
:1042E000804223F48073C4F81038A061626103D166
:1042F000A06940F01000A061A069094A0C9940EA49
:104300000200A06119B1A06940F00800A061012F6E
:1043100003D1A06903490843A0612846BDE8F08F96
:1043200000383C8004000040816821F00101816078
:104330000020704770B50B784E78444C0D78012EF4
:1043400000EB431320D0D3F8100B6FF31200C3F827
:10435000100BD3F8100B2040C3F8100B486908B1BC
:1043600088684861D3F8100B012A40F40020C3F894
:10437000100BD3F8100B8A68C2F3120240EA020055
:10438000C3F8100B56D059E04E69002ED3F81069CF
:1043900033D06FF31206C3F81069D3F810692640C2
:1043A000C3F810694E698C68A64200D94C61D3F8F5
:1043B000104944F40024C3F81049D3F810494E6959
:1043C000C6F3120654EA0604C3F81049012A22D0A3
:1043D00000EB4512D2F8003943F00443C2F800392B
:1043E0004A6932B30B78D0F83418012203F00F0376
:1043F0009A401143C0F8341826E02640C3F81069EB
:10440000D3F8104944F40024C3F81049D3F81049F4
:104410006FF31204D8E7096919B100EB4512C2F82D
:10442000141900EB4510D0F8001941F00441C0F810
:10443000001909E0C86808B1C3F8140BD3F8000BE1
:1044400040F00440C3F8000B002070BDFFFF07E000
:1044500010B5144C036CA34203D9D0F8003B002BD9
:104460001EDB0023C0F8103B0129D0F8101B41F4DB
:104470000021C0F8101BD0F8101B41F01801C0F843
:10448000101BD0F8101B41F0C041C0F8101B07D121
:10449000C0F8142BD0F8001B41F08021C0F8001B9D
:1044A000002010BD0A30544F0B784A78012A00EBE7
:1044B00043100BD0D0F8002B22F40012C0F8002BD0
:1044C000C978032914D0022912D017E0D0F80029A6
:1044D00022F40012C0F80029C978032901D002296A
:1044E0000CD1D0F8001941F08051C0F8001905E056
:1044F000D0F8001B41F08051C0F8001B002070472D
:104500000A784B78D1B2012B00EB421012D0D0F8D0
:10451000002B002A06DB29B1D0F8001B21F08041D6
:10452000C0F8001BD0F8001B41F40011C0F8001BBC
:1045300000207047D0F80029002A06DB29B1D0F806
:10454000001921F08041C0F80019D0F8001941F499
:104550000011C0F80019EBE7F8B50B786FF0604672
:104560004F78764DDCB2012F00EB431326D0D3F801
:10457000104B6FF31204C3F8104BD3F8104B2C40C0
:10458000C3F8104B4C698D68002C74D0D3F8107BA5
:104590002C44641EB4FBF5F4A4B206EAC4452F43D0
:1045A000C3F8107BD3F8105B8E686643C6F3120421
:1045B0002543C3F8105B012A72D0A6E04F6927B3E8
:1045C000D3F810796FF31207C3F81079D3F8107984
:1045D0002F40C3F810794F698D68D3F810C92F4464
:1045E0007F1EB7FBF5F506EAC54545EA0C05C3F89D
:1045F0001059D3F810594E69C6F312063543C3F863
:104600001059CD78012D10D01BE0D3F810692E4041
:10461000C3F81069D3F8105945F40025C3F81059B0
:10462000D3F810596FF3120509E0D3F8105925F0AB
:10463000C045C3F81059D3F8105945F00055C3F8D8
:104640001059012A18D000EB4413D3F8004944F064
:104650000444C3F80049CC78012C2FD04A6962B3D6
:104660000B78D0F83418012203F00F039A4011435D
:10467000C0F834185FE036E00A691AB100EB441361
:10468000C3F81429C97801290FD1D0F80818C90531
:1046900000EB4411D1F8002903D442F0005202E0AB
:1046A0002FE042F08052C1F8002900EB4410D0F80E
:1046B000001941F00441C0F800193CE0D0F8084866
:1046C000E405D3F8004902D444F0005401E044F07A
:1046D0008054C3F8004900928B8A0A78C9689BB25B
:1046E00000F03EF927E0D3F8104BC5F312052C4338
:1046F000C3F8104BD3F8104B44F40024C3F8104B0C
:1047000059E7CA680AB1C3F8142BC97801290CD13A
:10471000D0F80808C005D3F8000B02D440F00050D0
:1047200001E040F08050C3F8000BD3F8000B40F0DC
:104730000440C3F8000B0020F8BD0000FFFF07E0B5
:10474000816841F00101816000207047064A102114
:1047500001610021491C914201D90320704703697E
:10476000DB06F7D400207047400D03002023074AE2
:1047700043EA811303610021491C914201D90320BE
:10478000704703699B06F7D400207047400D030073
:10479000D0F8080810F0060004D0022803D006283C
:1047A00001D00F20704702207047406900F00100DF
:1047B0007047D0F81818D0F81C08084080B270472D
:1047C000D0F81818D0F81C080840000C704710B535
:1047D000D0F8102801F00F0300EB4114D0F8341882
:1047E000D4F80809D94001F0010142EAC11108409A
:1047F00010BD00EB4111D1F8081BD0F81408084097
:1048000070474169806908407047D21C00F58050AC
:104810009308002210B502E00468521C10C19A42AD
:10482000FAD3084610BD10B5C268012922F0C04273
:10483000C26002D029B1012010BDC16841F0005111
:1048400002E0C16841F08041C1603220FCF76CFA9F
:10485000002010BDD0F800284FF4FE6303EA0113D6
:1048600022F4FE62C0F80028D0F800181943C0F8FE
:104870000018002070470000022A3ED1264A274B2C
:104880000A449A4201D20F2138E0254A254B0A44B6
:104890009A4201D20E2131E0234A244B0A449A4223
:1048A00001D20D212AE0224A224B0A449A4201D227
:1048B0000C2123E0204B214A0B44934201D20B21CF
:1048C0001CE01F4B1F4A0B44934201D20A2115E002
:1048D0001D4B1E4A0B4493420FD31D4B1D4A0B44E4
:1048E000934201D2082109E01B4B1C4A1944914212
:1048F00001D2072102E0062100E00921C2684FF43D
:10490000705322F47052C26003EA8123C1681943D4
:10491000C160002070470000405327FF00350C00A5
:10492000401E1BFF40420F0000DC0BFF804F1200B7
:10493000808CF9FE20D6130060B6E5FE60E3160019
:1049400000D3CEFE40771B00C05BB3FEC0912100B8
:1049500000CA91FE20753800E05459FEE09C4100E9
:1049600010B5029C64B900EB0230DB1C00229B08EE
:1049700000F5805002E010C90460521C9A42FAD33C
:10498000002010BDFEE7090700284FEA116104DB93
:1049900000F1E02080F80014704700F00F0000F1F3
:1049A000E02080F8141D704702E008C8121F08C1FB
:1049B000002AFAD170477047002001E001C1121FA0
:1049C000002AFBD1704700000D4A30B50D4915682B
:1049D00000240D4B45F080751B6815604C600C6819
:1049E0000A4AB3FBF2F244F001030B604243486809
:1049F0009042FCD3086820F00100086030BD000040
:104A0000FCED00E0001000E0A000002040420F009C
:104A100010B5002821D0114B0022001F196803E0B7
:104A2000814203D80A4649680029F9D152B1136876
:104A3000841A9C4204D1006818441060104602E0B9
:104A4000506000E0186039B102680B1A934203D13C
:104A50000B681A4402604968416010BDB80100202B
:104A600008B5FCF75FFAFEF757F84FF49670FCF7BD
:104A70005BF95248016841F080010160016801F072
:104A800080010091016841F001010160016801F0BD
:104A900001010091016841F002010160006800F02D
:104AA00002000090FDF746FFFDF7BCFEFDF7EEFEAD
:104AB000FDF710FFFDF726FF414F0025414C07F1A0
:104AC000C80907F5C87600BFFBF726FDFBF7ECFC2D
:104AD000FEF782F8F0B101202288002105E07B5C1E
:104AE0000BB9401C80B2491C89B29142F7D33121E5
:104AF0007970824200D220802188081A81B2304821
:104B0000FBF786FCE580E088411C3D5488B2E080DC
:104B1000C828F8D3FEF78AF838B36288012000214C
:104B20004B46904609E000BF13F801C0BCF1000FEE
:104B300001D1401C80B2491C89B29142F4D3322188
:104B400089F80110804500D260806188081A81B21E
:104B50001B48C830FBF75CFC494625812089421C74
:104B60000D5490B22081C828F8D3FEF789F80028A8
:104B7000AAD0A28801200021134608E016F801C03F
:104B8000BCF1000F01D1401C80B2491C89B299428E
:104B9000F4D333217170824200D2A080A188081A18
:104BA00081B20948FBF734FC65816089411C3554AA
:104BB00088B26081C828F8D386E700003038024008
:104BC000C00100200000002050030020F0B50B3091
:104BD000154D20F007010024144A0FE003688B42B2
:104BE0000BD38B4205D95E1A43184768C3E90067A7
:104BF00000E04368136002C004E0021D1068002852
:104C0000ECD12046002802D1286808B10020F0BD70
:104C1000064A07481060074A121A22F00702C0E944
:104C2000002401202860D7E7BC010020B801002043
:104C3000A4180020A01A00200000000000000000BE
:104C40000102030406070809000000000102030432
:104C5000704C000800000020C00100002403000880
:104C6000484D0008C0010020E01C0000B8490008C1
:104C700012C82902011A13D935140809361B081560
:104C8000041A3D041A69041AB9141AE5041AA50C89
:104C9000100B0403090412010102020216408304EE
:104CA000405726020102030114050F0C1C010710D6
:104CB0001721031A1A031391031B088D041A890480
:104CC0001AB504130D041A083F1182105324F4136B
:104CD0000A06294B2A401C1C090243671125C032D1
:104CE0000904197B1201130524161001052401186B
:104CF0000901042402020524067C15058203081517
:104D00001009040133020A15070501021A01072AD6
:104D100081070938442A40072A8107112B090744D3
:104D20000A3B0444133133140893321408253442E7
:104D3000081ADD0C1A09041A6904C11A19281A0D77
:084D4000041A25041A01048184
:04000005080001E10D
:00000001FF
