:020000040800F2
:10000000801E002065010008A7250008AF24000815
:10001000A5250008EB020008C53E0008000000000E
:100020000000000000000000000000004F26000853
:1000300005040008000000004D26000851260008B5
:100040007F0100087F0100087F0100087F01000890
:100050007F0100087F0100087F0100087F01000880
:100060007F0100087F0100087F0100087F01000870
:100070007F0100087F0100087F0100087F01000860
:100080007F0100087F0100087F0100087F01000850
:10009000ED0200087F0100087F0100087F010008D1
:1000A0007F0100087F0100087F0100087F01000830
:1000B0007F0100087F0100087F0100087F01000820
:1000C0007F0100087F0100087F0100087F01000810
:1000D0007F0100086D280008A9280008E52800080D
:1000E0007F0100087F0100087F0100080000000078
:1000F0000000000000000000000000000000000000
:1001000000000000000000007F0100087F010008DF
:10011000192700087F0100087F0100087F010008FF
:100120007F0100087F0100087F0100087F010008AF
:100130007F01000800000000000000007F010008AF
:100140007F0100087F0100087F010008A925000841
:10015000DFF80CD000F08CF800480047053F00089D
:10016000801E00200648804706480047FEE7FEE75D
:10017000FEE7FEE7FEE7FEE7FEE7FEE7FEE7FEE757
:10018000C5260008510100082DE9F05F0546002052
:1001900092469B4688460646814640241BE02846F8
:1001A00041464746224600F020F853465A46C01AB8
:1001B000914110D311461846224600F04AF82D1AF4
:1001C00067EB01084F4622460120002100F041F86C
:1001D00017EB00094E41201EA4F10104DFDC484664
:1001E00031462A464346BDE8F09F202A04DB203AE8
:1001F00021FA02F00021704721FA02F3D040C2F147
:100200002002914008431946704740EA01039B07CA
:1002100003D009E008C9121F08C0042AFAD203E07B
:1002200011F8013B00F8013B521EF9D27047D2B2DF
:1002300001E000F8012B491EFBD270470022F6E7CF
:1002400010B513460A4604461946FFF7F0FF20464C
:1002500010BD202A04DB203A00FA02F1002070478A
:100260009140C2F1200320FA03F3194390407047F4
:10027000064C074D06E0E06840F0010394E80700F3
:1002800098471034AC42F6D3FFF766FF5840000899
:100290007840000870B58C1810F8015B15F0070362
:1002A00001D110F8013B2A1106D110F8012B03E00F
:1002B00010F8016B01F8016B5B1EF9D12B0705D417
:1002C0000023521E0DD401F8013BFAE710F8013B60
:1002D000CB1A921C03E013F8015B01F8015B521E7C
:1002E000F9D5A142D8D3002070BDFEE7014800F047
:1002F0007EBB00006804002000207047002070478B
:1003000010B500220449054802F0FEFB04490348E9
:1003100002F0F4FB002010BD7C180020980C002097
:100320007C1600202DE9F0410A460978490711D1D1
:100330000D4D0E4B4FF4467609E01C68475C2F5577
:10034000641CB4FBF6F706FB1744491C1C601468D8
:100350008C42F2D80146064802F0D0FB044802F075
:10036000B1FB0020BDE8F0819005002008000020CE
:10037000980C0020094A10B5D2F8B822D2F81422FD
:100380000AB1012010BD0A460146044802F0BCFB38
:10039000BDE81040014802F015BC0000980C002098
:1003A00070B588B0002402940090CDE90341154651
:1003B0008DF814404FF6FE7603E0641CA4B2B442FC
:1003C0000FD80F4800F0FDFA0028F6D0012000F009
:1003D00055FD00244FF47A7609E0641CA4B2B442BF
:1003E00002D9012008B070BD012000F047FD06AB26
:1003F0002A466946024800F084F90028EDD1F1E769
:1004000068040020704700003EB5194CD4E904018F
:1004100088422CD017490A5C08448DF800204178A6
:100420008DF8011081788DF80210C1788DF80310D5
:1004300001798DF8041041798DF8051081798DF8D6
:100440000610C1798DF80710017A8DF80810407AEE
:100450008DF809000A216846FFF78CFF206940F2F9
:10046000DE310A30B0FBF1F201FB120020613EBD2B
:1004700000000020B00800202DE9F04778490A2745
:10048000002591F86300774C4FF00D084FF47A7A0D
:10049000FF283ED0A06950B100F0F2FDA16988426A
:1004A00005D9258064216E48A561FFF7C7FE6C4918
:1004B000643191F86300FF2850D0E06958B100F032
:1004C000DFFDE169884206D96548658064216430B2
:1004D000E561FFF7B3FE6249C83191F86300FF2878
:1004E00063D0206A58B100F0CBFD216A884206D95A
:1004F0005B48A5806421C8302562FFF79FFEE28833
:100500004FF4C878082A03D95007B0F1804F74D04F
:100510007DE0002630460A5C2AB1761C401C80B281
:10052000B6B26328F7D3312289464A70022EB8D971
:1005300031464B48FFF71EFF09F80670761CB0B233
:10054000474909F80080401C82B2534601F53970D2
:1005500001F050FF0A2000F091FCA2E7002630468F
:100560000A5C2AB1761C401C80B2B6B26128F7D36F
:10057000322289464A70022EA6D939483146643063
:10058000FFF7F8FE09F80670761CB0B2344909F896
:100590000080401C82B26431534601F5207001F0A6
:1005A00029FF0A2000F06AFC8EE7002630460A5C2C
:1005B0002AB1761C401C80B2B6B26128F7D3332230
:1005C00089464A70022E93D925483146C830FFF734
:1005D000D1FE09F80670761CB1B2534609F80180C5
:1005E000491C8AB21E49C83101F5077001F002FFAB
:1005F0000A2000F043FC7BE7FFE71B4B981810F83C
:10060000011C0A2903D110F8020C0D280FD0606AD2
:10061000002822D000F034FD616A88421DD9E580AF
:1006200041466562BDE8F0470F48FFF707BE00216D
:100630000E4E4FF44677921EA0680AE013F801C0F0
:1006400006F800C0401CB0FBF7FC07FB1C00491C6F
:1006500089B29142F2DBA060E1E7BDE8F0870000DB
:10066000AC01002000000020D802002090050020EE
:100670001CB5184CD4E90210814229D016490A5CF5
:100680008DF8002008446A4641788DF80110817881
:100690008DF80210C1788DF8031001798DF80410DF
:1006A00041798DF8051081798DF80610C0798DF8A3
:1006B000070008210020FFF773FE002808D1E0683A
:1006C0004FF446710830B0FBF1F201FB1200E0601C
:1006D0001CBD00000000002090050020704790F82D
:1006E0002020012A07D0022A05D0416A41F4802146
:1006F000416201207047006842690A43426100205C
:100700007047F0B590F820500468A468012D05D01A
:10071000022D03D0416A41F4802153E014F0406F70
:1007200001D1E5004BD5C4F30164022C03D9416A21
:1007300041F4000146E00125A5401D608D684FF49D
:10074000C0739DB1CE6835434E6845EAC60506685C
:1007500003EB0417F5514FF4C275076805EB041558
:100760000E697E51097D012905D009E00E88CD680A
:1007700045EA4655EBE701684E5946F480764E51FE
:100780001179D2F805504FF4C67641EA0525016883
:1007900006EB04168D511178D2F801204FF4C47580
:1007A00041EA0221026805EB04155151006803EB90
:1007B0000411425842F0010242500020F0BD416A4B
:1007C00041F4001141620120F0BD000010B590F825
:1007D0002020012A07D0022A05D0416A41F4802155
:1007E0004162012010BD3B48D0F8002242F00102D6
:1007F000C0F80022D0F8002222F47C52C0F8002277
:10080000D0F800224B6A42EA0322C0F800220A7D97
:1008100002F01F0301229A40D0F81C329343C0F823
:100820001C32CB69B3B9D0F80C329343C0F80C3208
:100830008C894B6864F31F434C6900EBC404C4F813
:1008400040320C890B6864F31F434C6900EBC4040D
:10085000C4F84432CB69012B16D1D0F80C321343C3
:10086000C0F80C320C884B6864F31F434C6900EBF2
:10087000C404C4F840320C89CB6864F31F434C694C
:1008800000EBC404C4F844328B69002BD0F8043266
:100890000ED01343C0F804320B69002BD0F8143289
:1008A00008D01343C0F81432096A012904D008E0C3
:1008B0009343EFE79343F5E7D0F81C121143C0F8D8
:1008C0001C12D0F8001221F00101C0F80012002023
:1008D00010BD000000640040704730B590F8204023
:1008E000012C05D0022C03D0416A41F480215DE047
:1008F0000468002955D02469A40754D04FF4D87453
:10090000056804EB01142D5915F004059560056880
:100910002D594ED0ED08556005682C5904F002049D
:10092000D4604FF4DA74056804EB01142D5905F016
:100930000F05156105682D59C5F3072595610568F3
:100940002C59240C54614FF4DC72046802EB011240
:10095000A4581C700468A458240A5C700468A45845
:10096000240C9C700468A258120EDA704FF4DE72E8
:10097000046802EB0112A4581C710468A458240AEC
:100980005C710468A458240C9C710468A258120E6F
:10099000DA71006881B1016941F020010161002034
:1009A00030BDE468A8E7416A41F4001141620120CA
:1009B00030BD6D0D1560AFE7C16841F02001C16029
:1009C000EDE70246002092F82010012901D002290B
:1009D0000CD111688A68520100D501208A68120181
:1009E00000D5401C8968C90000D5401C70472DE91E
:1009F000F05F0546006800244669D0F804908768D7
:100A0000D0F80CB0D0F810A0D0F81880F10748D07A
:100A1000F90714D001218160B80703D5284600F0FA
:100A200026FA0CE0780702D54FF4006407E0380797
:100A300002D54FF4805402E0284600F017FAF8057A
:100A400016D529684FF480708860B80503D528460C
:100A500000F00FFA0CE0780502D544F4005407E0EA
:100A6000380502D544F4804402E0284600F000FA3C
:100A7000F80316D529684FF480308860B80303D591
:100A8000284600F0F8F90CE0780302D544F400445D
:100A900007E0380302D544F4803402E0284600F031
:100AA000E9F9300707D55FEACB6004D52968102043
:100AB00044F40074C86070074FF0080707D55FEA78
:100AC0000B7004D52868C760284600F065F9B007A8
:100AD00006D52868C068800702D0284600F05EF975
:100AE000700607D55FEACA6004D52968102044F46F
:100AF00080640861B00607D55FEA0A7004D52868EB
:100B00000761284600F082F9F00606D528680069DA
:100B1000800702D0284600F07AF9B00308D55FEAD2
:100B2000C96005D5296810204860284600F070F992
:100B3000F00307D55FEA097004D5286847602846A6
:100B400000F09AF9300446D55FEA497040D5F005C7
:100B500004D55FEAC87001D044F00104B00504D5A3
:100B60005FEA887001D544F00204700504D55FEA9D
:100B7000487001D544F00404300529D518F0700FF1
:100B800026D008F07000402815D006DC102809D0C7
:100B900020280AD0302816D10AE050280ED060282C
:100BA00011D10EE044F008040DE044F010040AE016
:100BB00044F0200407E044F0400404E044F08004E2
:100BC00001E044F480742868816921F0700181613A
:100BD000296804204860002C05D0686A20436862B8
:100BE0002846FFF779FEBDE8F09F70B5040003D0FA
:100BF00094F8200010B104E0012070BD204600F000
:100C000081F82068016821F00201016000F038FAE3
:100C10000546052604E000F033FA401B0A2811D8E7
:100C2000206840688007F6D42068016841F001011F
:100C3000016000F025FA05460BE000F021FA401BA8
:100C40000A2806D9606A40F40030606284F82060A7
:100C5000D2E720684068C007EFD0207E01282068D6
:100C600001683DD021F080010160607E012820688C
:100C7000016838D021F040010160A07E0128206881
:100C8000016833D021F020010160E07E0128206856
:100C900001682ED041F010010160207F01282068FA
:100CA000016829D021F008010160607F01282068D7
:100CB000016824D021F004010160D4E90201084355
:100CC000D4E90412114308436168491E08432168AE
:100CD000C86100206062012084F82000002070BDFF
:100CE00041F08001C0E741F04001C5E741F020013B
:100CF000CAE721F01001CFE741F00801D4E741F045
:100D00000401D9E710B586B000210091019102914C
:100D1000039100681C49884233D11C48C16941F0E5
:100D20000071C161C16901F000710491816941F0F4
:100D3000080181618069164C00F0080004904FF4AE
:100D4000807000906946204600F0AAF86015009077
:100D500002200190032003906946204600F0A0F88D
:100D60000C48416821F4C04141F0E06141F4804108
:100D7000416000221146142000F0EEF9142000F02A
:100D8000DDF906B010BD0000006400400010024014
:100D9000000C01400000014070470000F0B589B030
:100DA00007AB6A460021FFF798FD002828D1049878
:100DB000C5B2029808B1019900E00099124C114A9D
:100DC0000B0A6069135440F2DE33401CB0FBF3F6AB
:100DD00003FB160007AE1154401CB0FBF3F103FBFC
:100DE00011000021606108E0775C1754401CB0FBE3
:100DF000F3F703FB1700491C89B2A942F4D36061E1
:100E000009B0F0BDB0080020000000207047704716
:100E10007047000070B5044690F82000012804D007
:100E2000606A40F40020606218E0022084F820002C
:100E30002068016821F00101016000F021F90546F8
:100E40000EE000BF00F01CF9401B0A2808D9606AB8
:100E500040F400306062052084F82000012070BD5D
:100E600020684068C007EDD1606270BD7047704770
:100E700070477047704770477047000070B5044670
:100E800000F0FEF80546601C02D0044800780444D7
:100E900000F0F6F8401BA042FAD370BD8800002095
:100EA0002DE9F84FDFF8B891002409F1040A0AF19E
:100EB000040B23460F270BF1040EC9E00125A540C2
:100EC0002A40AA427DD1674ED1F804C0ACEB060897
:100ED000B44532D014DCBCF1030F3AD009DCBCF1CC
:100EE000000F2AD0BCF1010F1CD0BCF1020F31D190
:100EF0001DE0BCF1110F17D0BCF1120F2AD119E07F
:100F0000B8F5881F19D006DCB8F5803F15D0B8F5C4
:100F1000801F1FD111E0B8F5001F0ED0B8F5041FD7
:100F200018D10AE0CB6815E0CB681B1D12E0CB6836
:100F300008330FE0CB680C330CE08B682BB1012B2E
:100F40004FF0080303D0456104E0042302E005618B
:100F500000E00023FF2A01D8064601E000F1040664
:100F60004FEA840501D9A5F12005D6F8008007FADB
:100F700005FC28EA0C0803FA05F548EA0508C6F856
:100F800000804D68ED0062D5374DAE6946F0010630
:100F9000AE61AD6924F0030605F001050095334DFF
:100FA00006EB050CDCF80850A607360F07FA06F822
:100FB00025EA0805DFF8B880404503D14FF0000866
:100FC00017E044E0DFF8AC80404502D14FF0010863
:100FD0000FE0DFF8A480404502D14FF0020808E09E
:100FE000DFF89880404502D14FF0030801E04FF050
:100FF000040808FA06F848EA0508CCF808804D68A5
:10100000D9F80060ED034D4601D5164300E0964344
:101010002E604D68DAF80060AD03554601D51643E1
:1010200000E096432E604D68DBF80060ED025D46FF
:1010300001D5164300E096432E604D68DEF800604F
:10104000AD02754601D5164300E096432E60641C40
:101050000D682A46E5407FF431AFBDE8F88F000007
:101060000004014000001110001002400000014087
:1010700000080140000C0140001001400014014034
:10108000014880687047000088000020024881689D
:10109000027811448160704788000020074810B52D
:1010A000016841F010010160032000F075F8002094
:1010B00000F006F800F024F8002010BD00200240E7
:1010C00070B50D4D04464FF47A712878B1FBF0F0FD
:1010D0000A490968B1FBF0F001F072F848B9102C28
:1010E00007D200222146501E00F036F800206C6026
:1010F00070BD012070BD0000880000209400002019
:101100000C4808B5816941F001018161816901F0F4
:1011100001010091C16941F08051C161C06900F0D5
:10112000805000900448416821F0E06141F0007176
:10113000416008BD0010024000000140002809DBAA
:1011400000F01F02012191404009800000F1E020E1
:10115000C0F8001170470000F0B40E4B1B680C463D
:10116000C3F30223C3F10705042D00D90425191D7B
:10117000072901D2002300E0DB1E012606FA05F153
:10118000491E214099409E40761E16403143F0BCD6
:1011900002F099BE0CED00E0064900F00702086875
:1011A0004FF6FF03184040EA0220034A104308604C
:1011B000704700000CED00E00000FA050068416295
:1011C00000207047F0B50368586A39B19C6A4FF443
:1011D000827600EB144400204D1E0AE040EA0240F3
:1011E00098620FE006EB8007DF59401C04EB1744C0
:1011F000C0B2A842F6D344EA02404FF4807202EB38
:10120000810158500020F0BDD0F8FC0301F02DBF43
:10121000C1EBC10200EB8202D0F8FC03926C01F03A
:1012200080BEC1EBC10200EB8202D0F8FC03D2F811
:10123000082201F0D9BED0F8FC0301F018BF70B548
:1012400004460B0601F00F00C0EBC00104EB810166
:101250004FF001024FF0000503D581F83D203C31ED
:1012600003E081F8FD5101F5FE71087094F8BC03AC
:10127000012808D084F8BC23206802F059FA84F8C9
:10128000BC53002070BD022070BD70B5044601F053
:101290000F006268904201D9012070BD0B0601F079
:1012A0000F01C1EBC10104EB81014FF001024FF0CE
:1012B000000503D581F83D203C3103E081F8FD5164
:1012C00001F5FE718D70087094F8BC03012808D0F8
:1012D00084F8BC23206802F0B5FB84F8BC530020DE
:1012E00070BD022070BD01F00F01C1EBC10100EB28
:1012F0008100D0F8140270472DE9F04104460F0632
:1013000001F00F00C0EBC00104EB81014FF00106BA
:101310004FF0000503D581F83D603C3103E081F8D2
:10132000FD5101F5FE7108708A60CB704A7802B1F8
:10133000C880022B00D10D7194F8BC03012809D09C
:1013400084F8BC63206802F05DF9284684F8BC5339
:10135000BDE8F0810220FBE770B50C4601F00F05F7
:10136000C5EBC50100EB8101C1F808220022C1E9EB
:10137000843281F8FD2181F8FC51006801F5FE718D
:10138000220703D002F0B6FB002070BD02F0C2FAC3
:10139000FAE770B504460D4601F00F006168884217
:1013A00001D9012070BD29064FF000064FF001025F
:1013B00007D5C0EBC00104EB810181F83D203C3131
:1013C00007E0C5EBC50104EB810181F8FD6101F582
:1013D000FE718A70087094F8BC03012807D084F865
:1013E000BC23206802F05AFB280702D006E0022046
:1013F00070BD04F57171206802F002FB84F8BC63D3
:10140000002070BD70B50C4601F00F05C5EBC5019D
:1014100000EB81018A640022C1E91432012281F8C3
:101420003D2001F83C5F0068220703D002F062FB18
:10143000002070BD02F06EFAFAE700002DE9F05FBF
:1014400005680446284602F053FC00287ED1206837
:1014500002F07AFC002879D0206802F075FC800741
:1014600004D52068416901F002014161206802F061
:101470006BFC00034FF001094FF0080B61D500260B
:10148000206802F040FC0746DFF89CA357E0F8070D
:1014900053D0F1B2206802F04FFC8046C0071BD049
:1014A00005EB4611C1F8089B216820460B6C01EB47
:1014B0004612D2F8081B53450BD10B0404D54FF448
:1014C0000040C2F8080B07E0890602D52021C2F8C7
:1014D000081BF1B2FFF7A5FE5FEA087014D520687B
:1014E000016C00EB4612D2F8080B514505D10004FF
:1014F00003D54FF40040C2F8080B204600F05BFA19
:1015000005EB4610C0F808BB5FEAC86004D505EBE0
:1015100046101021C0F8081B5FEA886004D505EB6F
:1015200046102021C0F8081B5FEA884005D505EB6E
:1015300046104FF40051C0F8081B7F08761C002F9E
:10154000A5D1206802F000FC400300E06AE149D523
:10155000206802F0D1FB0746002641E0F8073DD0A5
:10156000F1B2206802F0D6FB8046C00710D006F02A
:101570000F0209FA02F0D5F834288243C5F834285E
:1015800005EB4610C0F80899F1B22046FFF740FE7F
:101590005FEA087003D505EB4611C1F808B95FEAA8
:1015A000C86004D505EB46111020C1F808095FEAB0
:1015B000486004D505EB46104021C0F808195FEAE1
:1015C000887004D505EB46100221C0F808195FEABF
:1015D000086003D53146204600F0ECFF7F08761CFA
:1015E000002FBBD1206802F0AFFB00280DDAD5F840
:1015F000040820F00101C5F80418204600F0BFF9E6
:101600002068416901F000414161206802F09CFBC3
:1016100000050BD5D5F80808C00702D0204600F019
:10162000E7F92068416901F400614161206802F036
:101630008BFBC10404F5717859D5D5F8040820F066
:101640000101C5F804181021206802F033FB0021C5
:101650004FF67F3213E000BF05EB4110C0F80829B8
:10166000D0F8003923F40013C0F80039C0F8082B73
:10167000D0F8003B23F40013C0F8003B491C60681D
:101680008842E9D8D5F81C0840F00111C5F81C18AB
:10169000206B002828460DD0D0F8840840F00B01BC
:1016A000C5F88418D5F8440840F00B012846C5F861
:1016B00044180DE0D0F8140842F22B010843C5F895
:1016C0001408D5F8100840F00B012846C5F810188A
:1016D000D0F8000820F4FE61C5F8001841462068E3
:1016E00002F08EF92068416901F48051416120685F
:1016F00002F02AFB800415D5206801F0C3FF2068A2
:1017000002F0EAFAE06000F0E5FA0146227B206888
:1017100002F054FB204600F01FF92068416901F4F3
:1017200000514161206802F00FFBC00634D52068EB
:10173000816921F0100181612F6A07F00F00C0EB71
:10174000C00004EB8006C7F3434006F5FE7602288E
:1017500002D0062811D01AE047F6F070074216D0E2
:10176000C7F30A1217462846F16802F0F1FAF0684A
:101770003844F060B069384408E008224146284601
:1017800002F0E6FAB069C7F30A110844B0612068B4
:10179000816941F010018161206802F0D5FA0007EB
:1017A00007D5204600F0EFF82068416901F00801F4
:1017B0004161206802F0C8FAC00208D50021204625
:1017C00000F034F82068416901F48011416120681B
:1017D00002F0BAFA800208D50021204600F02AF86B
:1017E0002068416901F400114161206802F0ACFAFF
:1017F000400007D52046FFF707FD2068416901F04A
:1018000080414161206802F09FFA40070AD52068B4
:101810004568680702D52046FFF70DFD206841683E
:1018200029434160BDE8F09F0A31544FD0F8FC03D2
:1018300001F068BCD0F8FC0301F066BC2DE9F04172
:101840008AB0040005D094F8BD032668002520B1B5
:1018500008E001200AB0BDE8F08184F8BC532046BE
:1018600000F05EF8032084F8BD03F06BC00500D4DF
:101870002561206802F048F804F11001282288460A
:101880006846FEF7C2FC94E80F0001F009FF02264B
:10189000C8BB0021206802F069FA002001270EE091
:1018A000C0EBC00104EB810181F83D7001F83C0FF1
:1018B000C880CD708D60CD60401CC0B24D61616844
:1018C0008142EDD8002011E0C0EBC00104EB8101A2
:1018D00081F8FD5181F8FC0181F8FF51C1F80452F3
:1018E000C1F80852401CC0B2C1F810526168814270
:1018F000EAD8282241466846FEF787FC94E80F00A4
:1019000001F06EFF10B184F8BD63A2E784F838508F
:1019100084F8BD73206801F057FF00209AE70000AB
:1019200008B50068B0F1A04F12D10A48416941F4EE
:10193000805141614069002200F4805000901146BE
:101940004320FFF709FCBDE808404320FFF7F6BB42
:1019500008BD00000010024070B50446C0680125B3
:10196000022801D0FEF7BAFE2946D4F8FC0301F0A4
:1019700020FCD4F8FC03BDE8704001F0DCBBD0F8DB
:10198000FC0301F000BCD0F8FC0301F006BC10B56C
:10199000044690F8BC0301280BD0012084F8BC0356
:1019A00084F83810206802F0F8F9002084F8BC03AD
:1019B00010BD022010BDD0F8FC2300F57171104657
:1019C00001F003BC10B5044690F8BC0301280CD00C
:1019D000012084F8BC03206801F0EAFE206802F0D0
:1019E00053F9002084F8BC0310BD022010BD000094
:1019F00010B50446D0F8FC0301F026FC2068D0F8AE
:101A0000001E41F00101C0F8001E206A002804D029
:101A10000248016841F00601016010BD10ED00E0D0
:101A20002DE9F843044600785B4DC0074FF00109EB
:101A300051D0E8690026C00008D4E86940F0805021
:101A4000E861E869012600F0805000905348016881
:101A5000C90512D40168804641F480710160FFF726
:101A60000FFB074605E000BFFFF70AFBC01B642819
:101A700077D8D8F80000C005F6D5286A10F4407071
:101A80001ED0A18801F44071814219D0286A4449CE
:101A900020F44070C1F8009000220A602862C0075C
:101AA0000ED0FFF7EDFA074641F2883805E000BF97
:101AB000FFF7E6FAC11B414553D8286A8007F7D5DE
:101AC000286A616820F44070084328621EB1E86902
:101AD00020F08050E8612078800705D56868A1680B
:101AE00020F44040084368602078400705D5E86A44
:101AF000E16820F400300843E8622078000705D54B
:101B0000E86A216920F480200843E862E86A8003DB
:101B100002D4E86A400333D52868C00028D4286876
:101B2000400105D5E86AA16900F0F000884225D19E
:101B3000E86AA16920F0F0000843E862E86A616998
:101B400020F470400843E8621649C1F87090FFF72E
:101B500097FA064608E004E0FFF792FA801B642833
:101B600002D90320BDE8F88328688000F4D507E097
:101B7000E86A616900F47040884201D00120F1E711
:101B80002078C00605D56868E16920F48000084324
:101B900068600020E6E7000000100240007000408E
:101BA00040044242000042422DE9F0470F46050042
:101BB00061D0434E306800F00700B84209D2306867
:101BC00020F0070038433060306800F00700B8426A
:101BD00051D128683B4C810712D5400703D5606876
:101BE00040F4E06060602878000703D5606840F446
:101BF000605060606068A96820F0F0000843606091
:101C00002878C00728D06868012810D021680228E9
:101C100010D0890700292EDA616821F00301014301
:101C20006160FFF72DFA804641F288390DE02168A6
:101C30008903EFE78901EDE7FFF722FAA0EB08013E
:101C4000494502D90320BDE8F0876068696800F063
:101C50000C00B0EB810FEFD1306800F00700B84204
:101C60000BD9306820F0070038433060306800F04E
:101C70000700B84201D00120E5E72878400705D5E4
:101C80006068E96820F4E060084360602878000735
:101C900006D56068296920F4605040EAC1006060A0
:101CA00000F03EF86168084AC1F30311515CC84076
:101CB0000649086006480068FFF702FA0020C2E7FC
:101CC0000020024000100240404000089400002024
:101CD0008C0000200148006870470000940000203C
:101CE0000448054900684968044AC1F30221515C6F
:101CF000C840704794000020001002405040000887
:101D00000448054900684968044AC1F3C221515C8E
:101D1000C840704794000020001002405040000866
:101D2000F0B523A289B00FCA04AC84E80F0024A147
:101D30000FC98DE80F0026494A68264802F00C03B7
:101D4000042B2FD0082B2DD104A8C2F38343C45CED
:101D5000D00329D5C86A00F00F001DF80020C86A1A
:101D6000C00316D5C86AC96AC0F30310C1F30321C2
:101D7000401C891CA0FB0223A1FB0416154F002563
:101D8000A1FB070C06FB07C601FB0561FEF7FCF98A
:101D900003E010486043B0FBF2F09DF81D10A14233
:101DA00000D1400809B0F0BD0B486043FAE70000DD
:101DB000000004050607080900000000000D0000EF
:101DC0000102030405060708090A0B0C0D0E0F108B
:101DD0000010024000127A0000093D002DE9F84F82
:101DE000040070D02078F14DC00749D06868C0F376
:101DF0008100012807D06868C0F38100022809D15A
:101E00006868C00306D52868800339D5A068002813
:101E1000E7D035E0A068B0F5803F0BD010B1B0F549
:101E2000A02F11D0286820F480302860286820F482
:101E3000802002E0286840F480302860A06890B1DB
:101E4000FFF71EF906460AE0286840F48020286063
:101E5000F0E700BFFFF714F9801B642876D82868E4
:101E60008003F7D50CE0FFF70BF9064605E000BF4D
:101E7000FFF706F9801B6428F0D828688003F7D4A0
:101E80002078CB4E80074FF001094FF000073AD57C
:101E9000686810F00C0F07D06868C0F38100022852
:101EA00009D16868C00306D42868800715D5606921
:101EB000012808D111E06069B8B1C6F80090FFF7B9
:101EC000DFF8804606E042E1FFF7DAF8A0EB080011
:101ED0000228C3D828688007F6D52868A16920F0B1
:101EE000F80040EAC10028600DE03760FFF7C8F84D
:101EF000804605E0FFF7C4F8A0EB08000228ADD843
:101F000028688007F6D4207800072ED5A948E16913
:101F1000E9B1C0F80090FFF7B3F8804606E000BFD3
:101F2000FFF7AEF8A0EB0800022897D8686A800790
:101F3000F6D5A1484FF4FA510068B0FBF1F00090DB
:101F400000BF0098411E0091FAD20EE0B0E0076099
:101F5000FFF796F8804605E0FFF792F8A0EB08003F
:101F6000022889D8686A8007F6D42078400763D5AC
:101F7000E8694FF00008C00009D4E86940F08050DB
:101F8000E861E8694FF0010800F0805000908B484C
:101F90000168C90512D40168834641F4807101606B
:101FA000FFF76EF8824605E0FFF76AF8A0EB0A003B
:101FB00064287DD8DBF80000C005F5D5206901282C
:101FC0000AD008B1052813D0286A20F00100286241
:101FD000286A20F0040002E0286A40F0010028622C
:101FE000206941F2883B98B1FFF74AF882460BE03E
:101FF000286A40F004002862EEE700BFFFF740F8CF
:10200000A0EB0A01594553D8286A8007F6D50CE0A1
:10201000FFF736F8824605E0FFF732F8A0EB0A0139
:10202000594545D8286A8007F6D4B8F1000F03D087
:10203000E86920F08050E861E06AD0B36968C903BC
:1020400007D56968C1F38101022902D1E96AC90390
:102050007DD4022808D0E86A20F48030E862B766B0
:10206000FFF70EF880463BE02868C00005D5E86A17
:10207000616B00F0F000884269D1B766FFF700F8A5
:10208000804605E0FEF7FCFFA0EB0800642874D84A
:1020900028680001F6D4E86A616B20F0F00008437C
:1020A000E862E86A216B20F470600843E86201E0AE
:1020B00063E018E0C6F86890FEF7E2FF804605E0AE
:1020C000FEF7DEFFA0EB0800642856D82868000160
:1020D000F6D508E0FEF7D4FFA0EB080064284CD842
:1020E00028680001F6D4206A90B36968C1F38101C1
:1020F000022949D00228376603D0FEF7C1FF044603
:102100003EE0FEF7BDFF074605E000BFFEF7B8FF63
:10211000C01B022831D828688001F7D4606AB0F566
:10212000803F09D1E86A61680843E862E86AE168CB
:1021300020F00F000843E862D4E909010843696808
:1021400021F4741108436860C6F8609001E028E04B
:1021500029E0FEF795FF044605E000BFFEF790FF7B
:10216000001B022809D828688001F7D51BE000BFB2
:10217000FEF786FF001B022802D90320BDE8F88F76
:1021800028688001F4D40EE00128F7D06868626AFC
:1021900000F48031914204D1A16A00F470108842A9
:1021A00001D00120EAE70020E8E70000001002402B
:1021B000000042428004424294000020007000402F
:1021C00010B5401EB0F1807F01D3012010BD4FF04B
:1021D000E02460610F21601701F075FE0020A0610E
:1021E00007202061002010BD70B5040004D094F8D1
:1021F0003900002510B106E0012070BD84F8385088
:10220000204600F023F8242084F839002068C168B3
:1022100021F40051C160204600F09AFA206801695B
:1022200021F4904101612068416921F02A01416156
:102230002068C16841F40051C160E563202084F842
:10224000390084F83A00002070BD0000F0B585B078
:10225000002400940194029403945E4903685C4D49
:1022600002200F1503228602AB4225D1CB6943F42D
:102270000023CB61CB6903F4002304938B6943F003
:1022800010038B618969544D01F01001CDE90321E0
:10229000CDE9007069462846FEF702FECDE90064EC
:1022A000694628460294FEF7FBFD002211463420C1
:1022B000FEF752FF342031E0DFF820C1484D63457E
:1022C00030D18B6943F480438B618B6903F4804385
:1022D00004938B6943F008038B618969039201F0D1
:1022E000080104914021CDE9001069462846FEF717
:1022F000D7FD8020CDE90004694628460294FEF708
:10230000CFFD3848416841F0E06141F0040141608F
:10231000002211462520FEF71FFF2520FEF70EFFA5
:1023200005B0F0BDDFF8C0C0634527D1CB6943F4E9
:102330000033CB61CB6903F4003304938B6943F022
:1023400004038B618969294D01F004010491042182
:10235000CDE90010039269462846FEF7A1FD08204A
:10236000CDE90004694628460294FEF799FD002253
:1023700011462620FEF7F0FE2620CFE7DFF870C0DA
:102380006345CDD1CB6943F48023CB61CB6903F4A2
:10239000802304938B6943F008038B61896901F002
:1023A0000801CDE90321CDE9007069462846FEF712
:1023B00077FDCDE90064694628460294FEF770FD7A
:1023C000002211462720FEF7C7FE2720A6E70000BF
:1023D000004C004000100240001001400038014055
:1023E000000C014000000140004400400008014092
:1023F000004800402DE9F843044690F839001F4694
:1024000016460D46202850D1A5B19EB194F838004B
:1024100001284AD0012084F838004FF00008C4F8A1
:102420003C80212084F83900FEF72AFEA6848146EC
:10243000E68426E00120BDE8F883E08C401EE084BD
:10244000A0684B46B0F5805F4FF000024FF080016E
:102450002046009703D000F0D7F9E8B90DE000F06E
:10246000D3F9C8B928882168C0F3080048602069FA
:1024700008B16D1C05E0AD1C03E0216815F8010BE7
:102480004860E08C0028D8D14B46002240212046ED
:10249000009700F0B9F908B10320CCE7202084F8B8
:1024A000390084F838800020C5E70220C3E7FEE742
:1024B000F0B500230A24302537261F4611E000BF5F
:1024C000B4EB107F02D905EB107C01E006EB107C29
:1024D00001F813C001EB430C00015B1C8CF8017088
:1024E000DBB29342ECD3F0BD10B518488AB0164960
:1024F00001600C210024C0E901148903C0E90341F3
:102500004FF400114161047644768476C4760477F2
:102510004477FEF76AFB012001940294CDE906405E
:102520000394089004940E20059409900094694641
:102530000648FEF74BF902210448FEF7D0F803489D
:10254000FEF768FC0AB010BD00640040680400207B
:1025500010B500220F49104800F0BCFC08B1FEF78E
:10256000BDF80E490C4800F095FE08B1FEF7B6F82C
:102570000B49094800F0BAFA08B1FEF7AFF806486F
:1025800000F0DEFE002803D0BDE81040FEF7A6B83C
:1025900010BD000028000020980C002074010020CD
:1025A00078000020FEE7FEE70148FEF747BF000085
:1025B0007C1100202DE9F0470E46C1EBC60100EB6F
:1025C00081040568D4E914103C34884202D9012002
:1025D000BDE8F087081AA168814200D20846C01CF5
:1025E000870805EB461817E0A0EB0109A0684845ED
:1025F00000D2814609F1030087081FFA89F3F2B27D
:102600002846E16801F04EFCE16801EB0900E0605A
:10261000A16901EB0900A061D8F8180980B2B8429D
:1026200005D3D4E90501814201D20028DCD1D4E9E7
:102630000501884208D806F00F0101208840D5F82E
:1026400034188143C5F834180020C1E7704770473B
:10265000FEF71CBD70B59CB038216846FDF7EEFD55
:1026600014210EA8FDF7EAFD202113A8FDF7E6FDD1
:10267000012500242804CDE902040226CDE90860E2
:102680000095059501940001CDE90A046846FFF71D
:10269000A5FB0F20CDE90E06A802CDE910400121CF
:1026A0000EA81294FFF780FA1020139080041A905D
:1026B00013A8FFF7B5F9024805671CB070BD00000C
:1026C000000042421048016841F001010160416888
:1026D0000E4A1140416001680D4A114001600168D5
:1026E00021F480210160416821F4FE01416001680C
:1026F00021F0A05101604FF47F0181600021C1628F
:102700000449C00308607047001002400000FFF059
:10271000FFFFF6FE08ED00E0094810B5006801680B
:1027200089060BD542680849064B08881A54401C94
:102730000880FEF7A5FC05493230086010BD000096
:1027400090040020D8020020060000202400002071
:102750002DE9F041044600680169E26821F4405126
:10276000114301612169A068084361690843216838
:10277000CA6841F20C639A430243CA602068416907
:10278000A26921F44071114341611E49206864250A
:102790003226884202D1FFF7B3FA01E0FFF7A0FA30
:1027A00000EBC00101EB001160686FF018078000BA
:1027B000B1FBF0F2B2FBF5F2B1FBF0F37A4303EBBD
:1027C0008202B1FBF0F306EB0212B2FBF5F2B3FBAF
:1027D000F5F302F0F00202EB0312B1FBF0F3B1FBF0
:1027E000F0F0B0FBF5F0784303EB800006EB00104F
:1027F000B0FBF5F0216800F00F0010448860BDE8E0
:10280000F0810000003801402DE9F041984617465C
:102810000E460446069D1DE0681C1BD02DB1FEF738
:102820002FFCA0EB0800A84214D92068C16821F44D
:10283000D071C1602068416921F00101416120200F
:1028400084F8390084F83A00002084F83800032026
:10285000BDE8F0812068006836EA000004D000205E
:10286000B842D9D00020F3E70120F9E70A4810B5B3
:102870000068016889060ED542680949074B094C72
:1028800008881A54401C08802068002803D1FEF7ED
:10289000F7FB0A30206010BDD0040020AC010020FE
:1028A00000000020180000200A4810B500680168E8
:1028B00089060ED542680949074B094C08881A5405
:1028C000401C08802068002803D1FEF7D9FB0A309D
:1028D000206010BD10050020100200200200002022
:1028E0001C0000200A4810B50068016889060ED552
:1028F00042680949074B094C08881A54401C088053
:102900002068002803D1FEF7BBFB0A30206010BD11
:102910005005002074020020040000202000002048
:102920002DE9F041D0F8C032D0F8B822DAB101EB8D
:10293000810400EB84040025E6694EB1C1EBC107B8
:1029400003EB87035B6CB6FBF3F703FB176323B161
:10295000C2F814520020BDE8F08100231A46E56158
:1029600000F07BFCF6E70220F5E770B50546D0F8ED
:10297000B84200F087FBC4F80C02D5F8B80248B1A1
:10298000D5F8BC12D4F80402CA6804F50371904764
:10299000002070BD022070BD70B504460026812164
:1029A00000F0B6FA002501212046E56200F0B0FAF9
:1029B00082212046C4F86C5100F0AAFA2564D4F8AC
:1029C000B80248B1D4F8BC0204F52E7440688047C0
:1029D000206800F012FE2560304670BD10B5D0E9C9
:1029E000AE4159B194F80002FF2807D08B6894F8E3
:1029F000012221469847FF2084F80002002010BDE4
:102A00000A210180004870479C000020432101807A
:102A100000487047EC0000204321018000487047C7
:102A2000A8000020432101800048704730010020A9
:102A30002DE9F04104460026007C4FF40077012583
:102A400090B3402302228121204600F05FFB402307
:102A5000E56202220121204600F058FB08230322F0
:102A600082212046C4F86C5100F050FB4FF40770EF
:102A7000256400F0C3FDC4F8B802F8B10546D4F8E7
:102A8000BC02006880470020C5F81402C5F818028F
:102A9000207CD5F8042298B140230121204600F083
:102AA00041FB3046BDE8F081FFE73B460222812131
:102AB000204600F02BFB3B46E562CAE70126F0E723
:102AC0003B46EAE710B5D0F8B81269B1027C002A9B
:102AD000D1F8042205D04023012100F023FB00207F
:102AE00010BD4FF40073F7E7022010BD024602202C
:102AF000002902D00020C2F8BC127047D0F8B802FA
:102B0000C0F8041200207047D0F8B802C0F81022B4
:102B1000C0F80812002070472DE9FC410546D0F8A6
:102B2000B87200208DF80000ADF804000646087861
:102B30000C4610F0600121D020293BD1E288AAB1D7
:102B40000006607807D5D5F8BC128B6839469847DF
:102B5000E288394626E087F80002A07987F801026A
:102B6000E2883946284600F06AF828E0D5F8BC1219
:102B7000607800228B682146984720E0607820B179
:102B80000A2809D00B2815D110E095F89C020328DB
:102B900010D1022201A905E095F89C02032809D171
:102BA00001226946284600F064F808E095F89C0286
:102BB000032804D02146284600F036F80226304685
:102BC000BDE8FC8110B5D0F8B812A1B1D1F814223B
:102BD0000AB1012010BD0122C1F81422D1F810223F
:102BE0000263B1F8102293B2D1F80822812100F0DB
:102BF00034FB002010BD022010BD10B5D0F8B42267
:102C000052689047002010BD134610B50A460021B7
:102C100000F088FA002010BD134610B50A460021C6
:102C200000F01BFB002010BD10B50446802100F011
:102C3000F9FA2046BDE81040002100F0F3BA10B5C3
:102C40000323C0F85C21C0F89432C0F86021134619
:102C50000A46002100F066FA002010BD10B50521DB
:102C60000023C0F894121A46194600F05BFA0020BF
:102C700010BD10B50223C261C0F89432026213463F
:102C80000A46002100F0E9FA002010BD10B5042129
:102C90000023C0F894121A46194600F0DEFA00200C
:102CA00010BD000010B50A46024903A000F0E2F88A
:102CB000004810BD7C15002043444320436F6E66DE
:102CC0006967000012200880004870474800002013
:102CD00010B50A46024903A000F0CCF8004810BD28
:102CE0007C15002043444320496E7465726661631D
:102CF0006500000004200880004870474400002060
:102D000010B50A46024903A000F0B4F8004810BD0F
:102D10007C15002053544D6963726F656C65637454
:102D2000726F6E696373000010B50A46024903A012
:102D300000F0A0F8004810BD7C15002053544D331E
:102D400032205669727475616C20436F6D506F72DA
:102D50007400000010B51A2008800A480168001DA0
:102D60000468001D0068081809D008220649FFF70A
:102D70009FFB0549042210312046FFF799FB0248CA
:102D8000801E10BDE8F7FF1F5E000020F8B5044666
:102D90000020ADF8000048880D46010A082948D2F5
:102DA000DFE801F04704091747473C45D4F8B01263
:102DB000207C0A6819E0207C02260028D4F8B4029E
:102DC00005D0C16A68468847014646703EE0816A80
:102DD000F8E7C0B206282CD2DFE800F0030A10148E
:102DE000181CD4F8B002426805E0694690471CE020
:102DF000D4F8B0028268E2B1207CF6E7D4F8B002E1
:102E0000C268F8E7D4F8B0020269F4E7D4F8B00277
:102E10004269F0E7D4F8B0028269ECE7207C40B95F
:102E2000D4F8B402416B6846884701460EE0207C26
:102E300020B129462046FFF7F7FEF8BDD4F8B402CA
:102E4000016B68468847014607204870BDF80000BE
:102E500048B1EA8852B1824200D90246ADF800205A
:102E60002046FFF706FFE8880028E6D12046FFF756
:102E70000DFFF8BD70B5002300281ED004460025C4
:102E800002E06D1CEDB2641C2678002EF9D10224FC
:102E900004EB450414801278CA545B1C0322CA5404
:102EA00000245B1C06E0CA545B1CDAB28C54521C32
:102EB000D3B2401C0278002AF5D170BD01004FF05A
:102EC000000004D0012901D0022901D0022070475E
:102ED0000120704710B580B1D0F8B43213B100238F
:102EE000C0F8B43209B1C0F8B012012180F89C12C8
:102EF000027000F0CBF8002010BD022010BD10B50C
:102F0000D0F8C002FEF7C1F9BDE81040FFF7D6BF08
:102F100010B5D0F8C002FEF792F9BDE81040FFF7F7
:102F2000CDBF2DE9F0411746044651B1D4F8B402A3
:102F300042691AB194F89C02032851D00220BDE8DE
:102F4000F081D4F89432002504F11400022B03D050
:102F5000042B3AD0C3B33CE0D0E903639E4207D9C7
:102F6000F11AC1608AB239462046FFF755FE12E0D9
:102F70008068B0FBF3F103FB110199B9984211D3BA
:102F8000D4F8981288420DD2002211462046FFF74D
:102F900043FEC4F8985200231A461946204600F012
:102FA000C1F816E0D4F8B402C16829B194F89C02C3
:102FB000032801D1204688478021204600F032F9BD
:102FC0002046FFF74BFE04E0FFE78021204600F09B
:102FD00029F994F8A002012804D184F8A05201E054
:102FE000204690470020AAE770B51546044649B12F
:102FF000D4F8B40282691AB194F89C02032830D044
:10300000022070BDD4F8941204F5AA70032902D0EE
:1030100005291ED027E0D0E903218A420BD9531A93
:10302000C3600846834200D303469AB2294620462D
:10303000FFF7EAFD17E0D4F8B402016929B194F86A
:103040009C02032801D1204688472046FFF71EFE38
:1030500009E000200146C4F89402204600F0E2F89E
:1030600001E020469047002070BD0020704710B559
:10307000012180F89C12D0F8B4220179526890475F
:10308000002010BDD0F8C002FEF72DB910B50178B0
:1030900019BB1349C1F8FC03C0F8C0124FF0A0409F
:1030A0000860042048600220C8600020C8610862EF
:1030B000C8620846FEF7C2FB08B1FDF70FFB80218E
:1030C0000748FEF77BF8402200210548FEF77AF812
:1030D000802201210248FEF775F8002010BD000093
:1030E0007C1100200A0601F07F01D0F8C002C1EB7C
:1030F000C10100EB810002D590F83E00704790F8C6
:10310000FE017047002070470020704710B51C4634
:103110001346D0F8C0022246FEF7EEF8BDE8104094
:10312000FFF7CCBE10B5D0F8C002FEF715F9BDE828
:103130001040FFF7C3BE70B500220446402311467D
:10314000FFF7E4FF40260125C4F8646133460022FE
:1031500080212046C4F85851FFF7D8FF6662A56168
:1031600084F89C520020C4F894026060C4F8A40261
:10317000D4F8B80228B1D4F8B4020021426820463D
:103180009047002070BD90F89C12042903D190F85C
:103190009D1280F89C120020704710B590F89C1288
:1031A000032904D1D0F8B412C96901B188470020BD
:1031B00010BD01740020704710B5D0F8C002FEF7B2
:1031C000E6FBBDE81040FFF779BE70B5044600F598
:1031D0002A70054600F04AF80120C4F89402B4F8B9
:1031E000AE02C4F8980294F8A80210F01F010AD0A9
:1031F00001290DD0022910D000F08001204600F0F6
:1032000011F8002070BD2946204600F09EF8F8E72E
:103210002946204600F0CAF9F3E72946204600F087
:103220001DF9EEE710B5D0F8C002FEF7B2F8BDE820
:103230001040FFF743BE10B5D0F8C002FEF7C2FB46
:10324000BDE81040FFF73ABE90F89C1280F89D123E
:10325000042180F89C120020704710B5D0F8C002FD
:10326000FEF7D0F8BDE81040FFF728BE0A780270DC
:103270004A7842708A78CB7802EB032242800A793E
:103280004B7902EB032282808A79C97902EB012112
:10329000C18070470246002011B1C2F8B4127047D5
:1032A0000220704710B5D0F8B42202241AB1126877
:1032B000904700B90024204610BD000070B50E46AE
:1032C0001E4D897804462970012931D894F89C0252
:1032D00002280BD003280FD031462046FFF7A4FC6C
:1032E00029782046BDE87040FFF787BCD9B103209C
:1032F000616084F89C0209E071B16068884212D074
:10330000C1B22046FFF779FC297861602046FFF7BB
:10331000C9FF02280CD006E0022084F89C02204657
:103320006160FFF76AFC2046BDE87040FFF7AEBC65
:1033300031462046BDE87040FFF776BC980000207B
:1033400010B5FFF778FF002010BD2DE9F0410A7895
:10335000002612F0600208D0202A01D0402A70D145
:10336000D0F8B422926890476DE04B780022012596
:103370000A2B66D2DFE803F0405D655765080565F6
:103380002C29FFF703FD5EE004468888D8B9C88879
:10339000C8B94888802816D200F07F0794F89C02AC
:1033A000032810D084F89E7239462046FFF704FFA8
:1033B0002046FFF76BFC1FB1022084F89C0242E01C
:1033C00084F89C523FE020463BE0FFF777FF3AE06D
:1033D000CB88012B35D190F89C32012B04D0022BE5
:1033E00002D0032B2DD104E08260012200F10801FC
:1033F00016E00122011D13E090F89C22012A03D05F
:10340000022A01D0032A1CD1CA88022A19D1C56018
:10341000D0F8A41209B10321C160022200F10C010D
:10342000FFF727FC0FE0498801290CD1C0F8A4520E
:1034300011E090F89C32012B08D0022B06D0032B10
:1034400004D0FFF7F1FB3046BDE8F081498801293F
:10345000F9D1C0F8A422FFF719FCF4E72DE9F041F7
:103460000A46044610780027097910F060030AD054
:10347000202B01D0402B50D1D4F8B40211468368E0
:10348000204698478FE0C0F34110012806D05078BD
:10349000D0B301282AD003283FD107E0D4F8B402E2
:1034A000114683682046BDE8F041184794F89C0215
:1034B000022802D0032872D10AE071B380296ED0AD
:1034C0002046FFF7AFFE80212046FFF7ABFE6AE003
:1034D000508838B931B1802904D0D08810B920463D
:1034E000FFF7A0FE2046FFF7D1FB5CE094F89C02BA
:1034F0000228E2D0032852D1508898BB4806F1D068
:103500002046FFF7FCFCEDE7FFE794F89C0200265D
:10351000022803D0032842D112E040E009B18029FB
:103520003DD1080601F07F0000EB800004EB800134
:1035300001D5143101E001F5AA7102220E602AE0E2
:10354000080601F00F0000EB800004EB80000AD5B4
:10355000806920B301F07F0000EB800004EB800560
:1035600014350BE01FE0D0F85801C0B101F07F0026
:1035700000EB800004EB800505F5AA7541B18029B8
:1035800006D02046FFF7AEFD10B10120286000E014
:103590002E60022229462046FFF76BFB03E011460E
:1035A0002046FFF741FB3846BDE8F08170B505467F
:1035B00008780C4610F0600003D0202801D0402885
:1035C00016D195F89C02012803D0022801D00328C7
:1035D0000ED1207901280BD8D5F8B402826828468C
:1035E0009047E188014306D12846FFF74FFB02E0F0
:1035F0002846FFF719FB002070BD70470048704750
:103600005C0F002070B50A78012302F00F054E7898
:10361000AB401B4CD0F81C58012E17D045EA034391
:10362000C0F81C3800EB4210D0F8002B12040BD469
:10363000D0F8002B0B89C978C3F30A031A4344EA74
:1036400081410A43C0F8002B002070BD9BB21D438E
:10365000C0F81C5800EB4210D0F800391B04F3D41A
:10366000D0F800390D89C978C5F30A0589042B43C0
:1036700041EA82510B432343C0F80039E4E70000DC
:1036800000800010D0F800196FF30A01C0F800198B
:10369000D0F8041841F48071C0F804180020704775
:1036A00010B5044604990B9801290BD0E06840F04E
:1036B0004000E060204600F01FF8A16B41F480312B
:1036C000A16310BDA16B21F48031A163E168094AB7
:1036D0001140E160E16821F44011E160012803D16B
:1036E000E06840F48010E0602046BDE8104000F043
:1036F00003B80000BFFFBDFF01220C4902E0521CCD
:103700008A420BD80369002BF9DA026942F0010200
:103710000261012204E0521C8A4201D90320704751
:103720000369DB07F7D1002070470000400D03005C
:1037300030B50B784D78012203F00F0402FA04F43F
:10374000012DD0F83C5817D025EA0444C0F83C4875
:10375000D0F81C48097801F00F018A4024EA0241A0
:10376000C0F81C1800EB4310D0F8001B0E4A1140A3
:10377000C0F8001B002030BDA4B2A543C0F83C58DF
:10378000D0F81C48097801F00F018A4091B28C43AF
:10379000C0F81C4800EB4310D0F80019034A114050
:1037A000C0F80019E6E700000078F3EF007833EC8A
:1037B00010B5D0F8041821F00201C0F80418032055
:1037C000FDF75CFB002010BD10B5D0F8041841F0E7
:1037D0000201C0F804180320FDF750FB002010BDC3
:1037E0002DE9F04700260446DDF83CA0DDF82C90DA
:1037F0000F463046354600BF04EB8001C1F8045146
:10380000401C0F28F8D3A06B40F400212046A16390
:10381000C4F8005ED4F80018C4F80018D4F80018F2
:1038200041F00301C4F80018102100F043FA00B180
:103830000126204600F02EFA00B10126C4F81058E7
:10384000C4F81458C4F81C5800204FF000634FF01F
:1038500090484FF67F3214E004EB4011D1F800C9D4
:10386000BCF1000F06DA10B1C1F8008904E0C4F819
:10387000003901E0C1F80059C1F81059C1F8082910
:10388000401C8742E8D8002015E000BF04EB40113F
:10389000D1F800CBBCF1000F06DA10B1C1F8008BF3
:1038A00004E0C4F8003B01E0C1F8005BC1F8105B24
:1038B000C1F8082B401C8742E8D8D4F8100820F43F
:1038C0008071C4F81018A5616FF080406061A06934
:1038D00040F01000A061A06909490843A061B9F156
:1038E000000F03D0A06940F00800A061BAF1010FF9
:1038F00003D1A06903490843A0613046BDE8F087C1
:1039000000383C8004000040816821F001018160A2
:103910000020704730B50C784D78384BE2B200EBA0
:103920004212012D24D0D2F8100B6FF31200C2F80E
:10393000100BD2F8100B1840C2F8100B486908B1F0
:1039400088684861D2F8100B40F40020C2F8100BD0
:10395000D2F8100B8968C1F312010843C2F8100BAA
:10396000D2F8000B40F00440C2F8000B002030BD3C
:103970004D69002DD2F8105932D06FF31205C2F8FC
:103980001059D2F810591D40C2F810594D698B6872
:103990009D4200D94B61D2F8103943F40023C2F89C
:1039A0001039D2F810394D69C5F3120553EA0503F1
:1039B000C2F8103900EB4412D2F8003943F0044346
:1039C000C2F800394A69002AD0D0D0F834280978E2
:1039D00001F00F03012199400A43C0F83428C5E7DC
:1039E0001D40C2F81059D2F8103943F40023C2F830
:1039F0001039D2F810396FF31203D9E7FFFF07E04F
:103A0000016C0F4A914203D9D0F8001B002914DB46
:103A10000021C0F8101BD0F8101B41F40021C0F8A1
:103A2000101BD0F8101B41F01801C0F8101BD0F883
:103A3000101B41F0C041C0F8101B0020704700006F
:103A40000A30544F4A780B78012A00EB43100BD010
:103A5000D0F8002B22F40012C0F8002BC9780329FB
:103A600014D0022912D017E0D0F8002922F4001255
:103A7000C0F80029C978032901D002290CD1D0F857
:103A8000001941F08051C0F8001905E0D0F8001B82
:103A900041F08051C0F8001B002070470A784B7835
:103AA000D1B200EB4110012B12D0D0F8001B00293D
:103AB00006DB2AB1D0F8001B21F08041C0F8001BC2
:103AC000D0F8001B41F40011C0F8001B0020704723
:103AD000D0F80019002906DB2AB1D0F8001921F02E
:103AE0008041C0F80019D0F8001941F40011C0F865
:103AF0000019EBE770B50D784E78624BEAB26FF0C3
:103B0000604400EB4212012E27D0D2F8105B6FF315
:103B10001205C2F8105BD2F8105B1D40C2F8105BB2
:103B20004D69002D73D08B681D446D1EB5FBF3F3FA
:103B3000D2F8105B9BB204EAC3442543C2F8105B81
:103B4000D2F8104B8D685D43C5F312031C43C2F8D5
:103B5000104BC97801296FD08CE04E691EB3D2F8A2
:103B600010696FF31206C2F81069D2F810691E408E
:103B7000C2F810694E698B681E44761EB6FBF3F3DB
:103B800004EAC343D2F810492343C2F81039D2F8EB
:103B900010394C69C4F312042343C2F81039CB78AE
:103BA000012B10D01BE0D2F810491C40C2F810497C
:103BB000D2F8103943F40023C2F81039D2F8103982
:103BC0006FF3120309E0D2F8103923F0C043C2F8B2
:103BD0001039D2F8103943F00053C2F8103900EB15
:103BE0004512D2F8003943F00443C2F80039CB78CB
:103BF000012B0DD04A697AB3D0F83428097801F046
:103C00000F03012199400A43C0F8342838E014E03A
:103C1000D0F80838DB05D2F8003902D443F000535D
:103C200001E043F08053C2F800398A8A93B20A78DF
:103C3000C96800F037F923E00FE0D2F8103B8C6838
:103C4000C4F312042343C2F8103BD2F8103B43F4F0
:103C50000023C2F8103B7CE712E0D0F80808C0054A
:103C6000D2F8000B02D440F0005001E040F0805048
:103C7000C2F8000BD2F8000B40F00440C2F8000B71
:103C8000002070BDFFFF07E0816841F00101816005
:103C900000207047002110220261054A491C914210
:103CA00001D9032070470369DB06F7D40020704771
:103CB000400D03000022202343EA811101610549E0
:103CC000521C8A4201D90320704703699B06F7D42E
:103CD00000207047400D0300D0F8080800F00600EF
:103CE000022803D0062801D00F2070470220704719
:103CF000406900F001007047D0F81818D0F81C088F
:103D0000084080B27047D0F81818D0F81C08084056
:103D1000000C704710B5D0F81038D0F8342801F0F6
:103D20000F0400EB4110E24002F00102D0F8080954
:103D300043EAC212104010BD00EB4111D1F8081B3C
:103D4000D0F81408084070474169806908407047FE
:103D5000D21C10B59308002200F5805002E00468E0
:103D6000521C10C19A42FAD3084610BD10B5C26861
:103D700022F0C042C260012902D029B1012010BD49
:103D8000C16841F0005102E0C16841F08041C1606A
:103D90003220FDF773F8002010BDD0F8002822F47F
:103DA000FE62C0F80028D0F800284FF4FE6303EA52
:103DB00001110A43C0F8002800207047022A2ED1C2
:103DC000264A274B0A449A4201D20F2138E0254A5D
:103DD000254B0A449A4201D20E2131E0234A244B5A
:103DE0000A449A4201D20D212AE0224A224B0A4477
:103DF0009A4201D20C2123E0204A214B0A449A42E4
:103E000001D20B211CE01F4A1F4B0A449A4201D2E7
:103E10000A2115E01D4A1E4B0A449A4201D209218B
:103E20000EE01C4A1C4B0A449A4201D2082107E0CA
:103E30001A4A11441A4A914201D2072100E0062190
:103E4000C26822F47052C260C2684FF4705303EA31
:103E500081210A43C260002070470000405327FFC1
:103E600000350C00401E1BFF40420F0000DC0BFF22
:103E7000804F1200808CF9FE20D6130060B6E5FE5C
:103E800060E3160000D3CEFE40771B00C05BB3FE9C
:103E9000C091210000CA91FE20753800E05459FEFF
:103EA000E09C410010B5DB1C9C0800EB02300023B5
:103EB00000F5805002E004C902605B1CA342FAD303
:103EC000002010BDFEE70907090E002804DB00F101
:103ED000E02080F80014704700F00F0000F1E020AF
:103EE00080F8141D704702E008C8121F08C1002A9C
:103EF000FAD170477047002001E001C1121F002A6B
:103F0000FBD1704708B5FDF7C9F8FEF7A3FB4FF4E6
:103F10009670FCF7B3FF4448816941F0200181614C
:103F2000816901F020010091816941F00401816102
:103F3000816901F004010091816941F0080181610A
:103F4000816901F008010091816941F010018161EE
:103F5000806900F010000090FEF7C6FA344D334837
:103F60004FF4E13928600024C5E901944FF00C0AB0
:103F7000EC60C5E9044AAC612846EC61FEF734F90F
:103F800005F140062B483060C6E90194F460C6E9AB
:103F9000044AB4613046F461FEF726F905F1800762
:103FA00025483860C7E90194FC60C7E9044ABC6150
:103FB0003846FC61FEF718F9FEF7CAFAA5F1400889
:103FC0001E49C8F80010C8E90194C8F80C40C8E9B7
:103FD000044AC8F818404046C8F81C40FEF704F9E7
:103FE0004FF4FA70FCF74AFF2868C16841F02001DD
:103FF000C1603068C16841F02001C1603868C168A3
:1040000041F02001C160D8F80000C16841F02001F2
:10401000C0F80C10FCF72CFBFCF7F6F9FCF72CFAB7
:104020000220FCF72BFFF5E70010024000380140AA
:10403000D00400200044004000480040004C0040F4
:104040000000000000000000010203040607080948
:104050000000000001020304784000080000002076
:10406000AC010000940200083C410008AC010020B3
:10407000D41C0000F63E0008012813C52C1B08F5CF
:104080000413012D1B0829041A55041AA5101AD16E
:1040900004170403090412011402020216408304E7
:1040A0004057260201020301031A1A0313010314E5
:1040B00008FD021B08F9041A250C192F1182105350
:1040C00024F4130A0632022A401C1C090243571129
:1040D0001DC03209043D1A020B13052416100105F8
:1040E0002401100901042402020524061701070512
:1040F0008203081C1009048D320A1D0705010243C2
:104100002C070581070938442A40072A8107112B0B
:104110000907440A3B044413312A14089929140856
:10412000192B42081ADD0C1A21041A6B04C11A1942
:0C413000281A0D041A25041A01040000CE
:04000005080001519D
:00000001FF
