:020000040800F2
:10000000C8680020F5010008CB1E0008C91D0008C3
:10001000C91E000825030008CB3C000800000000B2
:10002000000000000000000000000000DB1E0008CF
:100030007903000800000000D91E0008DD1E00083A
:100040000F0200080F0200080F0200080F0200084C
:100050000F0200080F0200080F0200080F0200083C
:100060000F0200080F0200080F0200080F0200082C
:100070000F0200080F0200080F0200080F0200081C
:100080000F0200080F0200080F0200080F0200080C
:100090000F0200080F0200080F0200080F020008FC
:1000A0000F0200080F0200080F0200080F020008EC
:1000B0000F0200080F0200080F0200080F020008DC
:1000C0000F0200080F0200080F0200080F020008CC
:1000D0000F020008512400080F0200080F02000858
:1000E0000F0200080F0200080F0200080F020008AC
:1000F0000F0200080F0200080F0200080F0200089C
:100100000F0200080F0200080F0200080F0200088B
:100110000F0200080F0200080F0200080F0200087B
:100120000F0200080F0200080F0200080F0200086B
:100130000F020008000000000000000000000000A6
:10014000000000000000000000000000CD1E0008BC
:100150000F0200080F0200080F0200080F0200083B
:100160000F0200080F0200080F0200080F0200082B
:100170000F0200080F02000800000000000000004D
:100180000F0200080F0200080F0200080F0200080B
:100190000F0200080F020008000000000F02000814
:1001A0000000000000000000000000000F02000836
:1001B0000F0200080F02000800000000000000000D
:1001C000000000000000000000000000000000002F
:1001D0000000000000000000000000000F02000806
:1001E000DFF80CD000F08CF8004800475D3D0008B7
:1001F000C86800200648804706480047FEE7FEE73B
:10020000FEE7FEE7FEE7FEE7FEE7FEE7FEE7FEE7C6
:10021000811F0008E10100082DE9F05F054600207C
:1002200092469B4688460646814640241BE0284667
:1002300041464746224600F053F853465A46C01AF4
:10024000914110D311461846224600F03AF82D1A73
:1002500067EB01084F4622460120002100F031F8EB
:1002600017EB00094E41201EA4F10104DFDC4846D3
:1002700031462A464346BDE8F09F40EA01039B070A
:1002800003D009E008C9121F08C0042AFAD203E00B
:1002900011F8013B00F8013B521EF9D27047D2B26F
:1002A00001E000F8012B491EFBD270470022F6E75F
:1002B00010B513460A4604461946FFF7F0FF2046DC
:1002C00010BD202A04DB203A00FA02F1002070471A
:1002D0009140C2F1200320FA03F319439040704784
:1002E000202A04DB203A21FA02F00021704721FA8B
:1002F00002F3D040C2F120029140084319467047F2
:10030000064C074D06E0E06840F0010394E8070062
:1003100098471034AC42F6D3FFF766FFC44100089B
:10032000E4410008FEE7000000214FEA010210B599
:1003300000EB8203521C0F2AC3F88413F8D3002267
:100340004FF400738418521C9A4284F81C11F9D39C
:1003500001220170402341708270C0F8C4130276FC
:100360008371417680F81C1380F81D2380F81F13D9
:1003700080F81E13002010BD7047704790F83510AC
:10038000022903D08021416501207047052180F8B2
:1003900035100068016821F00101016000207047FC
:1003A00070B5044600F0F2F80546601C02D004481F
:1003B0000078044400F0EAF8401BA042FAD370BD74
:1003C0000C0000202DE9F84F00224FF001094FF0FA
:1003D000030A4FF00F0E00BF0B6809FA02F4234026
:1003E000A34270D14D68012D05D0022D03D0112DEF
:1003F00001D0122D11D185685700CE680AFA07FC8A
:1004000025EA0C05BE402E43866045680E79A5435B
:10041000C6F3001696402E434660C56856008F68A6
:100420000AFA06F4A543B7402F43C7604D68022D72
:1004300001D0122D12D1D5080F694FEA427C00EB92
:100440008505AB462D6A4FEADC6C0EFA0CF807FA0C
:100450000CF725EA08052F43CBF820700F790568C3
:1004600007F00307A543B7402F4307604C68E4003B
:100470006AD5384C256845F480452560246822F00B
:100480000305970704F480440094334C3F0F254440
:10049000D5F80848DFF8C4C00EFA07F6604524EA2C
:1004A000060401D1002624E02D4EB04201D10126E0
:1004B0001FE02C4EB04201D102261AE02A4EB04273
:1004C00002D1032615E03FE0284EB04201D10426B8
:1004D0000FE0274EB04201D105260AE0254EB0427A
:1004E00001D1062605E0244EB04201D1072600E0E6
:1004F0000826BE40214F2643C5F808684D683C6871
:10050000ED0324EA030400D51C431C4D3C602D1D63
:100510004E682C68B60324EA030400D51C43174E2A
:100520002C6008364D683468ED0224EA030400D5D7
:100530001C43124D34600C354E682C68B60224EA18
:10054000030400D51C432C60521C102AFFF444AF56
:10055000BDE8F88F443802400030014000000240FE
:100560000004024000080240000C0240001002405B
:100570000014024000180240001C0240003C0140F0
:100580000AB1816170470904FBE7000001488068F7
:10059000704700000C000020D0F8C00202F081BDBE
:1005A000D0F8C00202F087BD006803F0E3B800682D
:1005B00003F0E4B801EB810100EBC10090F85C00AE
:1005C000704701EB810100EBC100C06C704710B5B2
:1005D000044690F8B802012809D0012084F8B80236
:1005E000206803F0D6F8002084F8B80210BD02207D
:1005F00010BD2DE9FE4F04469A46DDE90D6094F8E2
:10060000B832DDF83090012B1CD001EB81034FF0A4
:10061000010B84F8B8B2002504EBC3035FEA02685B
:1006200002F07F0C83F83D5083F838A0A3F8400017
:1006300083F8391083F83F6083F83AC005D583F812
:100640003BB004E00220BDE8FE8F83F83B5083F806
:100650003C905346CDF80090CDE90160206803F04E
:10066000F9F884F8B852EEE7704700002DE9F0037E
:1006700001EB81044FF0020600EBC404DDE90875CC
:10068000DDE906C984F83B20BCF1000F84F83F3057
:100690000CD084F8426000BF4FF000056BB1012B15
:1006A0002ED0022B12D0032B16D10FE084F83D5030
:1006B0004FF0030884F84280EEE7BCF1010F0BD144
:1006C00052B9D7B9012284F8512003E0AAB194F8B5
:1006D0005020AAB184F84260C4E9119784F85C50B4
:1006E000E56484F8391004F1380184F85D50027C27
:1006F0000068BDE8F00303F02FB994F85120E8E753
:1007000084F84250E8E700002DE9F0410446006813
:10071000064603F03AF801287ED1206803F042FA39
:10072000002879D0206803F03DFA800203D52168C3
:100730004FF400104861206803F034FAC00203D57A
:1007400021684FF480104861206803F02BFA4001C3
:1007500003D521684FF080604861206803F022FAD9
:10076000800702D5216802204861206803F01AFA48
:1007700080000ED521684FF000504861D6F8400443
:10078000C00706D12046FFF70BFF2068012103F0C8
:10079000EDF9206803F006FAC00102D5204601F009
:1007A0004DFA206803F0FEF9000705D5204600F059
:1007B000CAF8216808204861206803F0F3F9800135
:1007C00023D5206803F0C4F8002507464FF0010840
:1007D00014E000BF05F00F0108FA01F038420CD018
:1007E00006EB4510D0F80005E9B20004204602D51A
:1007F00000F0C7FF01E001F002F96D1CA068A842FB
:10080000E8D821684FF000704861206803F0CAF909
:10081000C043C0060ED400E00CE02068816921F0DE
:1008200010018161204601F053FA2068816941F08E
:1008300010018161BDE8F08170B504008AB005D077
:1008400094F8B9020026256818B107E001200AB023
:1008500070BD204684F8B86200F028F8032084F8C0
:10086000B902E86BC00500D42661206802F02CFFB5
:1008700004F11001684628220D46FFF7FEFC94E8BB
:100880000F0002F0CBFE2068012103F0B6F9282208
:1008900029466846FFF7F1FC94E80F0003F004F9DD
:1008A000012084F8B9020020D1E7000010B586B01D
:1008B000044614216846FFF7F9FC2068B0F1A04F08
:1008C00030D11948016841F001010160006802213E
:1008D000002200F00100059003230A244FF4C050C9
:1008E0008DE81F0011486946FFF76CFD0E48001D9A
:1008F000016841F080010160006800F0800005900F
:1009000009481430016841F4804101600068002208
:10091000114600F480400590432000F09BF84320EE
:1009200000F08AF806B010BD3038024000000240E6
:10093000D0F8C00202F042BCD0F8C00202F042BCC3
:10094000006803F041B9D0F8C00202F0F1BB10B565
:10095000044690F8B80201280DD0012084F8B802AE
:10096000206802F0DFFE2068012102F0C5FE0020B1
:1009700084F8B80210BD022010BD10B5044690F8EE
:10098000B802012809D0012084F8B802206803F0D9
:100990004BF9002084F8B80210BD022010BD000001
:1009A0000248816802781144816070470C00002081
:1009B000032010B500F06EF8002000F005F800F0FC
:1009C00023F8002010BD000070B50D4D04464FF413
:1009D0007A700C4A29781268B0FBF1F0B2FBF0F0A3
:1009E00000F074FD48B9102C07D200222146501E99
:1009F00000F030F800206C6070BD012070BD000078
:100A00000C000020180000200A4808B5016841F0D9
:100A100080510160006800F0805000900548001D82
:100A2000016841F480410160006800F4804000905A
:100A300008BD000040380240002809DB410900F0F1
:100A40001F028900012001F1E0219040C1F800015E
:100A5000704700000E4BF0B41B680D46C3F3022331
:100A6000C3F10706042E00D90426191D072901D257
:100A7000002300E0DB1E012404FA06F19C40491E1D
:100A80002940641E994014402143F0BC03F01EB974
:100A90000CED00E0064900F0070210B54FF6FF0428
:100AA0000868044B204040EA02201843086010BD4B
:100AB0000CED00E00000FA051848F8B5016841F0B7
:100AC000805101600068164C00F080500090206852
:100AD00040F480302060FFF759FD4FF47A760546E8
:100AE00005E000BFFFF752FD401BB0420FD8606821
:100AF000C003F7D5206840F400302060FFF746FDC2
:100B0000054606E0FFF742FD401BB04201D9032035
:100B1000F8BD60688003F5D50020F8BD403802407C
:100B2000007000402DE9F84F04460078DFF81C946F
:100B30004FF000073E46C0070ED0D9F8001021F450
:100B40000001C9F80010D9F80010E26A1143C9F891
:100B50000010E06A00B90127FC4D206884350003CD
:100B60000ED5616B286820F4401008432860606B44
:100B7000B0F5801F01D010B102E0012700E001268E
:100B800020684FF4800BC0020CD5A16B286820F4BC
:100B9000400008432860A06B584501D1012701E0BF
:100BA00000B901262078800667D5E848383001680A
:100BB00041F0805101600068DFF894A300F080509C
:100BC0000090DAF8001041F48071CAF80010FFF7C5
:100BD000DDFC804606E000BFFFF7D8FCA0EB080074
:100BE00064287DD8DAF80000C005F5D5DFF85C830D
:100BF00008F16808D8F8000010F440702AD0218D60
:100C000001F44071814225D0D8F80010D8F80020B6
:100C100021F4407142F48032C8F80020D8F8002056
:100C200022F48032C8F80020C8F80010D8F800007C
:100C3000C0070FD0FFF7AAFC824607E0FFF7A6FC2B
:100C4000A0EB0A0141F288308142CAD8D8F80000EE
:100C50008007F3D5A06AC0F3012103297ED0D9F81B
:100C6000001021F4F811C9F80010228DD8F80010F6
:100C7000C2F30B021143C8F800102078C00607D554
:100C8000286820F0807028602868216B084328605D
:100C90002188AE488830490405D5E26D016821F409
:100CA0004031114301602188090405D5226E016895
:100CB00021F44021114301602168C90305D5626E0A
:100CC000016821F44011114301602178490605D5DE
:100CD000E26B016821F0030111430160217800E01B
:100CE0000BE1090605D5226C016821F00C011143C6
:100CF00001602188C90505D5626C016821F03001C9
:100D0000114301602188890505D5A26C016821F095
:100D1000C001114301602188490505D5E26C0168D5
:100D200021F44071114301602188090505D5226D28
:100D3000016821F44061114301602188C90405D58F
:100D4000626D016821F440511143016021888904DA
:100D500007D5A26D016821F4404100E034E0114361
:100D6000016021684FF0006A890209D5626F01684D
:100D700021F0006111430160616F514500D10126EE
:100D80002168490305D5E26E016821F040711143E5
:100D900001602168090205D5A26F016821F0805128
:100DA000114301602168490105D5E26F016821F016
:100DB000005111430160DFF89C91012F0ED0206893
:100DC000B0F1007F0AD06EE0634AD9F800301040DD
:100DD00023F4F8120243C9F8002046E7D9F80000CE
:100DE0004F4620F08060C9F80000FFF7CFFB804637
:100DF00006E000BFFFF7CAFBA0EB080064287CD820
:100E000038680001F6D4217850487C30C9070DD0ED
:100E1000E16A59B9227A6168D0F800C08B01CCF33D
:100E2000036143EA016141EA0271016021680A033A
:100E300003D5626BB2F5801F04D0C90214D5A16B33
:100E4000594511D1237B626801689201C1F3027197
:100E500042EA036242EA017101602968E26921F015
:100E60001F01521E114329602168890108D561685C
:100E7000227B237A890141EA026141EA0371016020
:100E80003968B84641F080613960FFF77FFB07465B
:100E900005E000BFFFF77AFBC01B642863D8D8F8D1
:100EA00000000001F6D54EB3D9F800004E4620F000
:100EB0008050C9F80000FFF769FB074605E000BF56
:100EC000FFF764FBC01B64284DD83068C043800026
:100ED000F6D51E48216880300A0301D5626B1AB12D
:100EE000C90219D5A16BB9B923690168227D9B019B
:100EF000C1F3014143EA014101E034E03AE041EA53
:100F00000261016029686FF0FF03226A21F4F85141
:100F100003EB022211432960216889020DD5616F1C
:100F200051450AD1228B21690368890141EA0242B5
:100F3000C3F3036142EA01610160306840F0805010
:100F40003060FFF723FB044610E000000838024041
:100F50000070004000380240FFFCFF0FFFF716FB57
:100F6000001B642802D90320BDE8F88F3068C04315
:100F70008000F3D40020F7E72DE9F04705000F4685
:100F800063D0444E306800F00F00B84209D2306898
:100F900020F00F0038433060306800F00F00B84296
:100FA00053D128683C4C810712D5400703D52068EF
:100FB00040F4E05020602878000703D5206840F412
:100FC00060402060A968206820F0F000084320609D
:100FD0002878C0072AD0304968680839012810D01D
:100FE0000968022810D0890700292EDA216821F02B
:100FF000030101432160FFF7C9FA804641F28839B5
:101000000DE009688903EFE78901EDE7FFF7BEFA14
:10101000A0EB0801494502D90320BDE8F0876868C4
:10102000216801F00C01B1EB800FEFD1306800F0C6
:101030000F00B8420BD9306820F00F003843306001
:10104000306800F00F00B84201D00120E5E72878B1
:10105000400705D5E968206820F4E0500843206087
:101060002878000706D52869216821F4604141EA03
:10107000C000206000F038F82168084AC1F303116D
:10108000515CC8400649086006480068FFF79CFCB0
:101090000020C2E7003C0240083802409C3E0008A5
:1010A0001800002010000020044905480968006865
:1010B000044AC1F38221515CC8407047083802409D
:1010C00018000020AC3E0008044905480968006883
:1010D000044AC1F34231515CC840704708380240AD
:1010E00018000020AC3E0008154910B515480968E5
:1010F00011F00C0213D04110042A0FD0082A0ED18F
:101100000F4C241F2268236802F03F025B0207D5C0
:101110002068C0F38810A0FB010106E0084610BD5E
:101120002168C1F38811A1FB00010023FFF774F8C7
:101130002168C1F30141491C4900B0FBF1F010BD29
:10114000083802400024F4002DE9F84F04004FF065
:1011500000076ED02078DFF868A3AAF10408C00762
:10116000A8F104054CD0DAF800105046C1F3810113
:10117000012908D00068C0F3810002280AD1D8F8FC
:101180000000400206D52868800339D56068002831
:10119000DFD035E06068B0F5803F0BD010B1B0F51E
:1011A000A02F11D0286820F480302860286820F40F
:1011B000802002E0286840F480302860606890B1A8
:1011C000FFF7E4F906460AE0286840F4802028602A
:1011D000F0E700BFFFF7DAF9801B642872D82868AF
:1011E0008003F7D50CE0FFF7D1F9064605E000BF14
:1011F000FFF7CCF9801B6428F0D828688003F7D467
:101200002078800742D5DAF80010504611F00C0F14
:1012100008D00068C0F3810002280BD1D8F8000084
:10122000400207D42868800718D5E068012800D15B
:1012300014E041E1E0680028286817D040F0010080
:101240002860FFF7A3F9064605E000BFFFF79EF907
:10125000801B0228C2D828688007F7D52069296832
:1012600021F0F80141EAC00028600FE020F0010001
:101270002860FFF78BF9064605E000BFFFF786F907
:10128000801B02281ED828688007F7D42078000722
:1012900029D58B4861696C3000298146016812D0DC
:1012A00041F001010160FFF771F9064605E000BF5A
:1012B000FFF76CF9801B022804D8D9F800008007DA
:1012C000F6D510E089E021F001010160FFF75EF939
:1012D000064604E0FFF75AF9801B02287DD8D9F8AA
:1012E00000008007F6D4207840076BD5DFF8D09156
:1012F00009F13809D9F80000C0000BD4D9F8001062
:1013000041F08051C9F80010D9F80000012700F021
:10131000805000906B480168C90512D4016883466B
:1013200041F480710160FFF731F9064605E000BF26
:10133000FFF72CF9801B64284FD8DBF80000C005AC
:10134000F6D55F4EA068683601280AD008B1052896
:1013500011D0306820F001003060306820F00400C7
:1013600002E0306840F001003060A068A0B1FFF7F3
:101370000DF983460CE0306840F004003060F0E77F
:10138000FFF704F9A0EB0B0141F28830814266D8E7
:1013900030688007F4D50EE0FFF7F8F8834607E0E1
:1013A000FFF7F4F8A0EB0B0141F28830814256D8E8
:1013B00030688007F4D42FB1D9F8001021F08051A3
:1013C000C9F80010A069C8B3DAF80010C1F38101B0
:1013D00002294BD00228286800E040E020F080700D
:1013E000286003D0FFF7D2F804463BE0FFF7CEF8C1
:1013F000064604E0FFF7CAF8801B02282FD82868A9
:101400008001F7D4D4E90962D4E907012E4B5708CB
:1014100094F82C20084303EB074343EA8611084362
:1014200040EA026040F00050C8F80000286840F030
:1014300080702860FFF7AAF8044606E03EE000BF8F
:10144000FFF7A4F8001B022809D828688001F7D507
:1014500034E000BFFFF79AF8001B022802D90320EE
:10146000BDE8F88F28688001F4D427E00128D8F877
:10147000000021D0E16900F480028A421CD1216A77
:1014800000F03F028A4217D1626A47F6C0710140FC
:10149000B1EB821F10D1A16A4FF0FF3200F440334C
:1014A00002EB5101B3EB014F06D194F82C1000F080
:1014B0007060B0EB016F01D00120D1E70020CFE7D1
:1014C00008380240007000400000FFFF401EB0F1ED
:1014D000807F10B501D3012010BD4FF0E024606182
:1014E0000F21601702F0F2FB0020A06107212161AB
:1014F00010BD70472DE9F04102680446002540F612
:101500000F06D06911689368304205D183067BD5F8
:101510008B0679D5216E7CE003F0010601F490770B
:10152000374371D0C70707D0CF0505D5012717620C
:10153000E26F42F00102E267820708D5DA0706D0BF
:10154000276802223A62E26F42F00402E267420731
:1015500008D5DA0706D0236804221A62E26F42F047
:101560000202E26702070AD501F02002324306D0E8
:10157000236808221A62E26F42F00802E26702055D
:1015800009D54A0107D523684FF400621A62E26F59
:1015900042F02002E267E26F002A2ED0800605D5D5
:1015A000880603D5216E09B1204688472168E06F7F
:1015B0008968490602D410F0280F20D0204600F098
:1015C00079FD20688168490614D5816821F04001C1
:1015D0008160E06E70B118490165E06EFEF7CEFEE5
:1015E00000280AD0E06E016D00E02046BDE8F04121
:1015F000084709E02046FFF77CFFBDE8F081204660
:10160000FFF777FFE567F8E7030605D50B0603D577
:10161000616E0029E9D1F0E74006EED54806ECD529
:1016200013682021204623F040031360616765663C
:1016300000F0A6F8E1E70000A120000810B50400C2
:1016400002D0606F10B107E0012010BD002084F8C7
:101650007000204600F026F82420606720680168AA
:1016600021F001010160204600F034FD0128ECD09A
:10167000606A10B1204600F091FC2068416821F4B6
:10168000904141602068816821F02A0181602068D2
:10169000016841F0010101602046BDE8104000F002
:1016A000E1BC000010B586B0044614216846FEF780
:1016B000FDFD16492068884225D11548016841F092
:1016C00010010160006800F0100005901048143807
:1016D000016841F00201016000680221002200F06F
:1016E00002000590C020032307248DE81F0009484D
:1016F0006946FEF767FE002225201146FFF7AAF98A
:101700002520FFF799F906B010BD00000010014038
:10171000443802400004024070B5436F202B28D1AA
:10172000B1B1AAB190F87030012B22D086680124A3
:1017300080F87040002343662125C164B6F5805FC0
:10174000A0F85020A0F85220C367456702D003E0FC
:10175000012070BD016951B10749416680F87030C0
:101760000068016841F080010160002070BD0349FC
:10177000F3E7022070BD0000712300083123000848
:1017800070472DE9F05F074600680E464FF00409E8
:1017900000EB4114D4F8082501EB86004FF0050B4F
:1017A0004FF0100807EBC005510708D5C4F808959D
:1017B000D4F80C0540F00200C4F80C0546E0D4F85B
:1017C0000805C0050DD507204FF48071C4F8081531
:1017D00085F85D00D4F80C0540F00200C4F80C0553
:1017E00019E0D4F80805800603D52020C4F80805C0
:1017F0002CE0D4F808054FF0080A000710D5D4F8FB
:101800000C3543F00203C4F80C3585F85DB0C4F81C
:101810000885C4F808A53146386801F0BAFF15E01C
:10182000D4F80805400511D5D4F80C0540F00200A5
:10183000C4F80C053868314601F0ABFF4FF4806204
:10184000C4F8088585F85DA0C4F80825D4F8080513
:1018500080050ED5D4F80C0540F00200C4F80C0544
:10186000386804F5A164314601F093FF4FF400702D
:10187000A2E0D4F8080500210122C00743D038694E
:1018800030B1D4F81035A86CC3F31203C01AE86461
:1018900085F85D20A965C4F8082595F83F0030B1AA
:1018A000022804D0032811D0012818D023E0D4F84E
:1018B0000C0540F00200C4F80C05386804F5A1647A
:1018C000314601F066FFC4F8008014E0D4F800054A
:1018D00040F00050C4F8000585F85C2007E095F85A
:1018E000500085F85C2080F0010085F850003146FA
:1018F0003846FEF7B9FE95F8500080F0010085F8F3
:101900005000BDE8F09FD4F8080580073DD5D4F815
:101910000C05022320F00200C4F80C0595F85D00C8
:1019200001280AD005280BD006280CD008280AD098
:10193000032819D007281AD01EE085F85C201BE088
:1019400085F85CB018E0A86D401CA86503280BD989
:10195000A96585F85C90D4F8000520F0804040F03F
:101960000040C4F8000507E085F85C30F3E7A86D97
:1019700085F85C90401CA865C4F80835314695F898
:101980005C203846FEF770FEBBE7D4F80805000679
:1019900014D5D4F80C05062140F00200C4F80C055B
:1019A000A86D04F5A164401CA86585F85D1031465A
:1019B000386801F0EEFE80202060A2E7D4F8080528
:1019C000C0069ED595F83F00032803D020B1022819
:1019D00002D011E0A96505E0A965386960B9032066
:1019E00085F85D00D4F80C0540F00200C4F80C0541
:1019F0003868314601F0CDFEC4F8088581E72DE94D
:101A0000F047026802EB4114D4F808254FF00403B4
:101A1000520709D5C4F80835D4F80C0540F0020087
:101A2000C4F80C05BDE8F087D4F8086501EB810522
:101A300000224FF0020C00EBC505B60615D5202399
:101A4000C4F8083595F83D30012BEBD185F83D20E1
:101A500085F85CC0D4F80C2542F00202C4F80C25CD
:101A60000068BDE8F04701F094BED4F8087501267F
:101A70007F0611D585F85D3085F83D60AA65D4F8FC
:101A80000C2542F00202C4F80C25006804F5A1649C
:101A900001F07FFE402010E0D4F80875BF050ED598
:101AA000D4F80C2542F00202C4F80C25006804F5B5
:101AB000A16401F06EFE4FF400702060B2E7D4F82C
:101AC0000875FF070FD0AA65D4F80C2542F0020272
:101AD000C4F80C25006804F5A16401F05AFE2660E4
:101AE00085F85D609EE7D4F8088508274FF0050962
:101AF0005FEA08780DD5C4F80875D4F80C2542F0D3
:101B00000202C4F80C25006801F043FE85F85D90E0
:101B100088E7D4F808854FF0100A5FEAC86818D53E
:101B200095F83D300327AA6585F85D7023B995F8CF
:101B30003C200AB985F83D60D4F80C2542F0020239
:101B4000C4F80C25006804F5A16401F022FE50469B
:101B5000B3E7D4F808855FEA08680FD5D4F80C25F8
:101B600042F00202C4F80C25006804F5A16401F0FB
:101B700010FE062185F85D1080209EE7D4F80885C8
:101B80005FEA485812D5D4F80C2542F00202C4F896
:101B90000C25006804F5A16401F0FBFD4FF48061A1
:101BA000C4F800A0216085F85D703BE7D4F80875A3
:101BB000BF0797D5D4F80C7527F00207C4F80C7549
:101BC00095F85D70012F0AD0032F17D0042F15D080
:101BD000052F16D0062F17D0082F15D027E095F81F
:101BE0003F2085F85C60022A01D0032A1FD195F8B6
:101BF000512082F0010285F8512018E085F85CC080
:101C000015E085F85C9012E0AE6D761CAE65032E93
:101C100003D9AA6585F85C3001E085F85CC0D4F88A
:101C2000002522F0804242F00042C4F80025C4F8AA
:101C300008C595F85C20FEF717FDF3E67CB504684F
:101C40000546D4F840040190D4F8400420F02E005A
:101C500000900198800709D50198C00702D0284656
:101C6000FEF79AFC009840F00200009001980007EF
:101C700024D5009840F008000090019840071AD53C
:101C8000A869022803D0E86801280CD00FE0019869
:101C9000C0F341400228286803D0012101F066FF0B
:101CA00005E00221FAE74EF66020C4F80404284655
:101CB000FEF742FE02E02846FEF73AFE0198800653
:101CC000009802D540F020000090C4F840047CBD8C
:101CD0002DE9F04102460068016A074601F00F064F
:101CE000C1F34343022BC1F30A1426D1002C24D0A4
:101CF00006EB860102EBC105696C00291DD0224666
:101D000001F054FF6A6C07EB46100D4922446A64E7
:101D1000EA6C2244EA64D0F810250A420DD0D0F8CB
:101D2000001521F0804141F00041C0F8001595F800
:101D3000500080F0010085F85000BDE8F0810000FF
:101D40000000F81FF0B50246437A00200446157AD9
:101D5000166843B18B4220D9536801FB035101F04F
:101D6000070506EBD1065368D90803E03078E70091
:101D7000B840641C5F0701D04F1C00E00F46A7422B
:101D8000F4D80121E84001FA03F4D568641E20402C
:101D9000854202D81569854201D20020F0BD957AAE
:101DA0006DB15B1E9940014209D0D26960EA04011D
:101DB000012A02D002FB01F0F0BD0846F0BDD16956
:101DC0000129FBD04843F0BDFEE7000020B100220E
:101DD00002482021FEF7D4BB0122F9E700040240AB
:101DE00010B586B014216846FEF760FA1548016800
:101DF00041F080010160016801F0800105910168F6
:101E000041F001010160016801F0010105910168E3
:101E100041F002010160006800220B4C202100F01B
:101E2000020005902046FEF7ABFB00212020009029
:101E300001222046CDE9012103916946FEF7C2FA4D
:101E400006B010BD30380240000402400A480021AC
:101E500030B4084C0C224FF4E1330460C0E9013186
:101E6000C160C0E904128161C1610162416230BC9C
:101E7000FFF7E4BB00100140980100200C4901224B
:101E80000C4810B501F0D5F808B1FEF776FA0A490A
:101E9000084801F065FB08B1FEF76FFA054801F04C
:101EA000A3FB002803D0BDE81040FEF766BA10BDC2
:101EB000FD350008180200201C000020014801F038
:101EC0003DBA000018020020FEE770470148FEF707
:101ED0001BBC0000F005002070477047FEF760BD96
:101EE00030B5B3B0302120A8FEF7E0F914212CA8BA
:101EF000FEF7DCF980216846FEF7D8F91D48016835
:101F000041F080510160006800F0805031901A4823
:101F1000016821F4404141F48041016000680123DF
:101F20000225990500F4404031900420CDE9265166
:101F300028A960221C0481E825002B9020A8CDE967
:101F40002034FFF701F9FEF7B7FD002430940F218C
:101F50008020CDE92E04CDE92C1501212CA8FFF716
:101F60000BF806480F941D9400906846FEF7DAFDC2
:101F700033B030BD403802400070004040002000C7
:101F800005484FF000610368034A43F4700303609F
:101F9000803A11607047000088ED00E090F824104E
:101FA000C90706D00168836A4A6822F400321A43DE
:101FB0004A6090F82410890706D50168C36A4A6808
:101FC00022F480321A434A6090F82410490706D55B
:101FD0000168036B4A6822F480221A434A6090F831
:101FE0002410090706D50168436B4A6822F40042B1
:101FF0001A434A6090F82410C90606D50168836B1D
:102000008A6822F480521A438A6090F82410890664
:1020100006D50168C36B8A6822F400521A438A60AD
:1020200090F82410490611D50168036C4A6822F41F
:1020300080121A434A60016CB1F5801F06D1016815
:10204000436C4A6822F4C0021A434A6090F8241094
:10205000090606D50168826C486820F40020104308
:102060004860704738B500250446C567FEF78EFA0C
:1020700003462068006800070BD56FF07E40009093
:10208000002220464FF4001100F090F908B103201F
:1020900038BD2020606784F87050A067002038BDEC
:1020A00010B5806B0021A0F85A10A0F85210FFF76D
:1020B00020FA10BD10B50168202200230C6824F41A
:1020C00090740C6001688C6824F001048C60826755
:1020D000036610BD2DE9F04104468068DFF820C298
:1020E000884F2368D4E90452E16928431E6800251B
:1020F0000A438549104306EA0C0606431E604FF466
:1021000000422068E668436823F440533343436049
:102110002368A669206AD3F808C030432CF43066DF
:1021200006439E602068B8420AD1086810F0030098
:1021300052D001287BD002287AD003286ED186E0C5
:10214000724B98420AD1086810F00C0079D004282C
:102150007BD0082877D00C2860D178E06C4B98426F
:102160000AD1086810F030006BD010286DD02028FC
:1021700069D0302852D16AE0664B98420AD108688B
:1021800010F0C0005DD040285FD080285BD0C02810
:1021900044D15CE0604B98420DD1086810F4407067
:1021A0004FD0B0F5807F50D0B0F5007F4BD0B0F568
:1021B000407F33D14BE0594B98420FD1086810F45F
:1021C000406009D0B0F5806F3FD0B0F5006F3AD0D5
:1021D000B0F5406F22D13AE0012120E0504B984207
:1021E0000DD1086810F440502BD0B0F5805F2CD092
:1021F000B0F5005F27D0B0F5405F0FD127E0494B25
:1022000098420BD1086810F440401AD0B0F5804FC6
:102210001BD0904217D0B0F5404F18D01021E06984
:102220004FF6EF7690423AD1092961D202E00CE0F4
:1022300009E006E0DFE801F00D10255C285C5C5C3D
:102240002B000021EBE70221E9E70421E7E7082161
:10225000E5E7FEF729FF01E0FEF736FF6168400081
:1022600000EB5100B0FBF1F080B2A0F11001B142DF
:102270003ED84FF6F0732168C0F342021840104375
:1022800026E02949606805E0FEF72EFFE6E7606872
:102290004FF4803101EB5001B1FBF0F0E4E7092984
:1022A00026D2DFE801F0050817251C2525251F008B
:1022B000FEF7FAFE01E0FEF707FF616800EB510050
:1022C000B0FBF1F080B2A0F11001B14210D821684A
:1022D000C8600EE06068154901EB500105E0FEF7AB
:1022E00003FFEAE7606802EB5001B1FBF0F0E9E7B9
:1022F00001250020206660662846BDE8F0810000C8
:10230000F369FFEF001001409038024000440040A4
:1023100000480040004C00400050004000140140C4
:1023200000780040007C00400048E8010024F400F0
:10233000416F212910D1B0F8521071B1C16C0268FF
:102340000988C1F308019162C16C891CC164B0F8AD
:102350005210491EA0F85210704701680A6822F016
:1023600080020A600068016841F040010160704726
:10237000416F21290ED1B0F8521061B1C16C0268D1
:1023800009789162C16C491CC164B0F85210491EB1
:10239000A0F85210704701680A6822F080020A60B3
:1023A0000068016841F04001016070472DE9F04785
:1023B0009A4617460E460446089D4FF000094FF016
:1023C000200839E0681C37D0FEF7E0F8A0EB0A00DF
:1023D000A84222D80DB32068016849072CD5C069EE
:1023E000C043000528D423684FF4006119622168B6
:1023F0000B6823F4D0730B6021688B6823F0010312
:102400008B60C4F87480C4F87880C4F87C8000BF06
:10241000032084F87090BDE8F08721680B6823F4EE
:10242000D0730B6021688B6823F001038B60C4F8C4
:102430007480C4F87880EBE72068C06936EA000051
:1024400004D00020B842BDD00020E4E70120F9E725
:102450000148FFF74FB800009801002000224FF616
:10246000FF7310B500EB8204B4F8844324040BD44A
:102470009A4207D002F00F0341F4004100EB8300C1
:10248000C0F88413D0B210BD521CD2B20B2AE9D3CB
:102490001A46F7E710B500F0FBFD002010BD30B480
:1024A0008278012A07D10022022404740123437494
:1024B00042828182C282002230BC114600F00FB8F5
:1024C0007FB501AE1C4601250023009586E80E006D
:1024D0002A46214600F0A8FE04B0002070BD70B569
:1024E0008378012504462846012B0BD0022B08D106
:1024F000204600F01BFC58B1032809D0022800D167
:10250000A57070BDA1600221A2812576A17070BD69
:10251000A5700021217670BD7FB51D4690F81D3352
:10252000089C03B100240123CDE900310023294692
:10253000CDE902241A4600F077FE04B0002070BDF9
:102540001FB5002314460822CDE90031CDE902234E
:102550001A46214600F068FE04B0002010BDFDF7C9
:102560001FBF70B500F54E74002000EB800505EB31
:10257000C00504EB4505EE7B0A358E4201D0FF29EC
:1025800009D1AE79964201D0FF2A04D1ED799D425E
:1025900006D0FF2B04D0401CC0B20228E5D3FF2098
:1025A00070BD0B2907D200EB8100B0F88413C1F392
:1025B0000E01C0F8841300207047F0B48578049CA5
:1025C000012D0FD141F080060674062542820321B9
:1025D0004574B1EB122F02D140F2094100E0002115
:1025E0008182C4822246F0BC1946FFF778BF0A8870
:1025F00003781A440A80017808447047F8B500F15E
:102600001C050E464FF4007204462B460091002133
:10261000FFF7D3FF070005D104F54E703246294677
:1026200000F01DFE3846F8BDF8B500F58E730D4676
:102630004FF48072044600910021FFF7BEFF00288E
:1026400039D194F81C21082D94F81D6194F820319B
:1026500094F8211184F8262394F8222184F8276322
:1026600094F82361B4F81E7184F82A3384F82B138C
:1026700084F82C23A4F8287384F82D631BD9B4F8AC
:10268000245194F82A1194F82B2194F82C31A4F8B1
:102690002E5394F82D51B4F82661A4F83063B4F8A1
:1026A000286184F8341384F8352384F83633A4F889
:1026B000326384F83753F8BDF8B51C46164641F42A
:1026C0004072009300F58E7300211D46FFF775FFE1
:1026D000002814D16978032911D129788A1EA242D1
:1026E00000D814460021A2B2AD1C04E06B5C891C2A
:1026F00089B206F8013B9142F8D300213170F8BD50
:1027000001004FF0000004D0012901D0022901D0BE
:102710000220704701207047F8B50746D0F87C03C7
:102720000125C4696079062854D2DFE800F003531C
:102730002D033541FE8B07F11C00092E0DD909210F
:10274000ADF8001005E06946FFF751FF41782129F7
:1027500005D0BDF80010B142F5D302201AE001788F
:1027600084F82610417884F8271041882185017962
:1027700084F82A10417984F82B10817984F82C1080
:10278000B0F80700E085E8E7E18D384600F0A1F8F1
:1027900098B9042060711DE000223846114600F00F
:1027A000A3FA4FF0050108B1032813D1617111E0BC
:1027B0000021384600F0A8FA10B1032809D009E03A
:1027C00001206071D7F8D4230221384690470025B4
:1027D00000E002252846F8BD704702810023016011
:1027E0008380C3808372704770B5837A0024BBB93D
:1027F00001258572002311E0C5888688B54212D074
:102800000668755D01F8015BC5886D1CADB2C580B9
:102810000689B54200D1C4805B1C9BB29342EBD3C6
:102820008472104670BD8472184670BDF0B5837A0C
:102830000025F3B901248472002318E08488C78836
:102840002646641CBC4217D0B0F808C0644500D1CD
:1028500097B1076811F8014BBC558488641CA4B279
:1028600084800689B44200D185805B1C9BB2934270
:10287000E4D385721046F0BD85721846F0BD0000A5
:10288000064A417A8378012B515C01D0807910B1DE
:102890000248823800E00248405C7047D840000897
:1028A000D43F000802780146FF200B2A0ED191F890
:1028B000242302EB820303EBC20201EB420191F8F5
:1028C0004913012903D0022900D1012070470220B9
:1028D000704708B500F58E734FF40852009101213E
:1028E000FFF76BFE08BD000010B500F0CDF808B191
:1028F000002010BD004810BDB4080020F0B40C4604
:10290000A12604990125067442EA04244574002294
:10291000448282820A46C1821946F0BCFFF7DFBDBD
:1029200070B50546D0F87C030026C469617839B1DA
:102930002846FFF7AFFD61782846FFF732FE667044
:10294000217839B12846FFF7A5FD21782846FFF701
:1029500028FE2670D5F87C03C06920B101F0D6F9B5
:10296000D5F87C03C661002070BD00002DE9FE4350
:102970000546D0F87C030027FF2301220179284671
:10298000FFF7EFFDFF28064620D0022E1ED201469B
:10299000284600F0F4FDC8B9342001F049FAD5F812
:1029A0007C13041ECC6111D034212046FDF77EFC3F
:1029B00006EB860101EBC6010720A07005EB41067E
:1029C00096F84903012804D0022804D00220BDE86B
:1029D000FE832B4800E02B4820630020A07060712C
:1029E00096F84E03A076B6F85003208396F852036B
:1029F000A0830A2801D20A20A08396F84603022861
:102A000001D8804637E04FF0020800BF06EBC70050
:102A10004FF0030990F84E13080613D5284621718C
:102A2000FFF71CFD60700146208B95F81D33CDE942
:102A300000390290284695F81C33227900F005FCF5
:102A4000617812E02846E170FFF708FD207001462A
:102A5000228B284695F81D33CDE90039029295F86E
:102A60001C33E27800F0F1FB21780022284600F0C8
:102A7000B9FB7F1CFFB24745C8D30020A7E7000081
:102A8000392B0008952B000870B5D0F87C03C46979
:102A9000228BEAB3244904F10800FFF7A5FE218B3D
:102AA00088423ED121480021FFF74CF9204C0021FB
:102AB00060701E482030FFF745F9A07000211B48C8
:102AC0004030FFF73FF9E070002118486030FFF711
:102AD00039F92071002115488030FFF733F9607112
:102AE00000211248A030FFF72DF9A07100210F48F6
:102AF000C030FFF727F9E07100210C48E030FFF704
:102B000021F9002520720B482946FFF71BF900E048
:102B100007E06219691CCDB2062D5072F3D3002074
:102B200070BD022070BD000044000020B43E0008CB
:102B3000B4080020B43F000870B5D0F87C330146DB
:102B400012480024124E2246DB69A6F10805847063
:102B500044700471C47084714471047280F8074039
:102B600046F8224045F82240521C022AF8D3188B1E
:102B7000082801D90820188350225D6103F108005C
:102B800001F58E71FFF729FE002070BDB40800200A
:102B90004400002070B5D0F87C330022114C01466F
:102BA000104604F10806DB6904F11005227062701A
:102BB000A270E27084F8042046F8202045F8202016
:102BC000401C0228F8D3188B082801D90820188344
:102BD00050225D6103F1080001F58E71FFF7FDFDE4
:102BE000002070BD4C0000202DE9F8430646D0F8C7
:102BF0007C0301274FF004080025C469A07807284A
:102C00005ED2DFE800F004085D5D27223700216B0B
:102C10003046884715E0207E00220090012163693C
:102C20003046FFF76BFE0521050007D0012D07D0C8
:102C3000032808D00720A070022541E0A1703FE0E2
:102C40000025A7703CE00025F8E7D6F8C403C007CC
:102C500034D135E0207E6378C2B26169304600F03D
:102C600007FA0621A170D6F8C4130020216284F867
:102C7000240025E06178304600F056FA617801289A
:102C8000304604D000F050FA052812D018E000F0C9
:102C900036FA94F8241099B990B1228B04F1080007
:102CA0006169FFF7C3FD304684F82470FFF794FD97
:102CB00006E0A17E3046FFF7F2FB08B984F80280F7
:102CC0002846BDE8F883D0F87C13C9698A78062ABB
:102CD00008D1D0F8C4030A6A8B8B801A984201D3BA
:102CE000042088700020704730B4212505740A2420
:102CF0004474002342EA0121418283821A46C3823E
:102D0000194630BCFFF7EBBB212303740B2242743E
:102D100000294FF0000101D0418201E001224282EE
:102D200000228182C1821146FFF7D9BB2DE9F84FFD
:102D3000017E044601204FF007080B2605460927AF
:102D40004FF0050A0C294FF00D0919D2DFE801F008
:102D5000AD060E25303B465F6B778293627904F1B6
:102D600010012046FFF7ECFB022049E06179204684
:102D700000F0DAF9012804D004287AD0022878D0AB
:102D800093E0207CE18A00F0800019B1802839D1DD
:102D9000032035E0802814D02DE0D4F8C403E0816E
:102DA00020462379A289A168FFF78AFB042027E047
:102DB0002179204600F0B8F9012802D005283CD03E
:102DC00050E0277671E0009020466379A289A168DF
:102DD000FFF7A2FBD4F8C403062121E06179204665
:102DE00000F0A2F9012806D0052807D0022809D052
:102DF00004280AD059E084F8188056E00C200325F6
:102E0000207652E084F818A04FE0022531E000223D
:102E1000237911462046FFF753FBD4F8C403082159
:102E20002176E08141E02179204600F07DF90128FA
:102E30001BD004281DD0052837D1032535E00022FA
:102E40000090637911462046FFF766FBD4F8C4036F
:102E50000A21E5E76179204600F066F9012804D0EF
:102E60000228AED0042804D01FE0002584F8189072
:102E70001BE0267619E0617E491CC9B26176022901
:102E800002D82076A07010E0D4F8D4230621204682
:102E900090470026667661792046FFF782FB21790C
:102EA0002046FFF77EFB022526702846BDE8F88FF6
:102EB0002DE9FE430446407800254FF001080D2718
:102EC0004646082804F58E720CD2DFE800F004357F
:102ED00047737A919DA408212046FFF7A5FB10B106
:102EE000032818D0A2E094F81D13802294F82D0333
:102EF000A07184F801800091CDE9015094F81C3351
:102F00002046217900F0A1F9A07994F81D130091D1
:102F1000CDE9015043E094F81E03401CC0B284F890
:102F20001E03032818D861792046FFF73AFB217960
:102F30002046FFF736FB59E012212046FFF774FBCD
:102F4000A8BB022047E000BF94F81E03401CC0B29B
:102F500084F81E03032840D9277067E0012120462A
:102F600000F018FB10B1032822D05FE00220FFF729
:102F7000F6FAA079032294F81D13434684F81C83C3
:102F800062708022CDE9001502902046217900F080
:102F90005CF9A17994F81D03CDE9000502910022A6
:102FA00094F81C332046617900F04FF93EE00EE0C2
:102FB00027702EE009212046FFF720FB38B90420B6
:102FC00009E0B4F83A132046FFF718FB10B10328C4
:102FD000BAD02BE00520607028E061792046FFF729
:102FE000E0FA21792046FFF7DCFA657025701DE0D4
:102FF00094F8341306250AE0FF232046FFF75CFB14
:1030000038B1032805D011E094F8351307250029BD
:10301000F2D165700AE094F8361331B1FF232046EF
:10302000FFF74AFB08B1032800D100263046BDE86F
:10303000FE8370B504000E4618D084F8CC2300251A
:10304000C4F87C53C4F8805304F54874FDF76CF958
:10305000E57025706570A570A4F548740EB1C4F8CC
:10306000D463204600F074F8002070BD022070BDCB
:103070007FB501AE1C4601250023009586E80E00B1
:1030800003232A46214600F0CFF804B0002070BD8B
:1030900010B5D0F8D003FDF79AFABDE81040FFF75D
:1030A0002FBB0021012280F8202380F8211380F813
:1030B00022130846704710B504460020012184F809
:1030C000211384F8200384F82303204600F0A3F89A
:1030D00021792046FFF765FA61792046FFF761FA0A
:1030E000002010BD10B590F8CC03012802D108468D
:1030F000FEF76CFEC820FDF753F9002010BDD0F894
:10310000D003FDF75EBA10B5D0F8D0030124FDF767
:103110004EFA20B1012805D0022803D101E0002495
:1031200000E00224204610BDD0F8D003FDF742BADB
:10313000D0F8C413491CC0F8C41301780B2905D179
:10314000D0F87C13002901D0896908477047000036
:1031500070B5044690F8CC0301281DD10F4800211A
:103160000C2503264FF0A043C0F8C0420222C4F849
:10317000D00385600360C0E90361C0E90621C16234
:10318000FDF75AFB08B1FDF7F8F80448FDF70CFA13
:103190000146204600F023F8002070BDF005002015
:1031A000FEB508AF97E870008DE87000D0F8D00346
:1031B000FDF71FFABDE8FE40FFF7A2BA002180F834
:1031C00023137047012180F82313704710B5D0F8FE
:1031D000D003FDF7B5FBBDE81040FFF791BAC0F88A
:1031E000C4137047D0F8D00301EB810100EBC1009C
:1031F00090F83B1011B180F8502001E080F8512088
:103200000020704710B5D0F8D003FDF7A0FBBDE853
:103210001040FFF775BA10B5D0F8D003FDF7ADFB3D
:10322000BDE81040FFF76CBA2DE9FF410DF1280809
:1032300098E8F0008DE8F000D0F8D003FDF716FA1A
:1032400004B0BDE8F041FFF75BBAFEB508AF97E800
:1032500070008DE87000FFF7A3FF0020FEBD2DE990
:10326000F84105460B78092A08464FF000072B70F5
:103270004A786A704A886A800A792A714A796A713A
:103280008A79AA71CA79EA71097A297254D909210D
:10329000ADF800104BE06946FFF7A9F94178042921
:1032A00043D107EB870101EBC701002605EB41087D
:1032B000017808F10A0488F80A10417888F80B10A0
:1032C000817888F80C10C17888F80D10017988F899
:1032D0000E10417988F80F10817988F81010C179A3
:1032E00088F81110017A217215E06946FFF77FF91D
:1032F000417805290FD108EBC6010278761CF6B299
:103300000A7542784A7582788A75C278CA75828849
:103310000A8382798A762179B14204D96A88BDF814
:1033200000108A42E1D87F1CFFB2022F04D26988C4
:10333000BDF800209142AED8BDE8F881FEB502216B
:10334000044600208DF8001094F82123012A01D1B1
:103350000322227022780D26082700250C2A17D276
:10336000DFE802F0061734DCF669C07C848C99D55E
:1033700094F8200300280BD001202070C820FFF70C
:10338000EEF82046FFF722FF84F81C53C4F8C85318
:10339000DEE094F8230301280DD0D4F8C803B0F57B
:1033A0007A7F0CD994F81F03401CC0B284F81F0325
:1033B00003286FD86CE084F81F532170C8E00A30EE
:1033C000C4F8C8030A20FFF7CAF8C1E0D4F8D42330
:1033D00012B10421204690476420FFF7C0F8204630
:1033E000FFF791FE84F81D0305212170002120467E
:1033F000FFF734F8802160712046FFF72FF8A3799A
:10340000014694F81D232071204600928022CDE9C8
:10341000015394F81C33FFF718FFA079002294F8A9
:103420001D130091CDE9015094F81C3320466179B9
:10343000FFF70BFF8CE02046FFF73AFD8DF8000008
:103440009DF80000002808D194F8370384F824532D
:10345000012801D0072056E0277079E0D4F8D42362
:10346000002A75D0012120469047F5E794F83D13D6
:10347000204600F09DF8A0BB092044E094F83F03EB
:103480000A25800604D50121204600F09FF840BBA4
:1034900025705DE039E0D4F8801311B394F8471338
:1034A000C4F87C5304EB8002D2F8782312798A4264
:1034B00006D104EB8000D0F87803C4F87C0304E064
:1034C000401C10F0FF00EDD02846F0B18168204686
:1034D0008847D0B906202070D4F8D4230321204691
:1034E000904735E0D4F87C0378B1016920468847DD
:1034F0008DF800009DF8000020B19DF80000022822
:1035000003D025E00B20207022E0267020E0D4F8C4
:103510007C03E8B141692046884719E084F82153CB
:103520002046FCF701FFD4F87C0320B1C168204697
:103530008847C4F87C53D4F8D42312B1052120461F
:10354000904794F82203012804D02046FFF75AFE42
:103550000020FEBD84F82253204600F045F8F7E72E
:103560004FF0000211B1D0F8803313B1022210469F
:1035700070470123C0F88033C0F87813F7E790F85C
:103580003C3300228B4202D980F8241300E002224F
:10359000104670478278012A06D100220274052362
:1035A000437441828282C28200221146FEF797BF95
:1035B0008278012A06D100220274092343744182D1
:1035C0008282C28200221146FEF789BF8278012AD8
:1035D00006D1002202740323437441828282C28294
:1035E00000221146FEF77BBF10B50446FFF70AFE26
:1035F00001212046FFF776FD002010BD01290AD0E9
:103600000548022906D0042903D0052903D1032146
:1036100000E00121017070470400002070B50446ED
:103620000699049D0D98012915D0E06840F04000EE
:10363000E060204600F02CF8A16B41F48031A163DA
:10364000012D07D1A16841F00601A160A16841F0F8
:103650002001A16070BDA26B01280C4922F48030CA
:10366000A063E06800EA0100E060E06840F010005C
:10367000E060E06820F44010E06003D1E06840F4CE
:103680008010E060204600F003F8D9E7BFFFBDFFDF
:103690000C49012202E0521C8A420BD80369002B1C
:1036A000F9DA0369012243F00103036104E0521CCB
:1036B0008A4201D9032070470369DB07F7D1002054
:1036C00070470000400D0300816821F00101816016
:1036D0000020704700EB4110064AC0F81025D0F8D2
:1036E000001521F0804141F00041C0F80015002094
:1036F000704700000000088008B5D0F8402422F090
:103700002E020092D20405D4012909D1009941F476
:10371000805103E021B9009921F48051C0F8401490
:10372000002008BD816841F00101816000207047E0
:10373000064A102101610021491C914201D9032050
:1037400070470369DB06F7D400207047400D030083
:103750002023074A43EA811303610021491C914257
:1037600001D90320704703699B06F7D400207047F6
:10377000400D0300D0F8080480B2704708B5D0F8B7
:1037800040040090C0F3414008BD406900F00100D2
:10379000704700EB41114FF47A73D1F80025C2F362
:1037A00081426AB1022A0BD0D1F8002542F0804252
:1037B000C1F80025D0F8100410F47F0F2ED009E0D6
:1037C000D1F8002542F08042C1F80025C06A10F40B
:1037D0007F0F07D0D1F8000540F00040C1F8000588
:1037E00000207047D1F80025012022F00042C1F8E6
:1037F0000025D1F8002542F00042C1F80025D1F89B
:10380000002522F40042C1F8002502E0401C984245
:10381000E6D8D1F80025002AF8DBE1E7D1F8002549
:10382000012022F00042C1F80025D1F8002542F025
:103830000042C1F80025D1F8002522F40042C1F869
:10384000002502E0401C9842CAD8D1F80025002A81
:10385000F8DBC5E72DE9F04700EB41144FF0FF37E7
:103860004FF00005DDE90896DDF828A0C4F80875DA
:10387000DEB1012E35D0022E17D0032E29D001251E
:1038800001F00F0CD0F8181401275FEA026807FA5C
:103890000CF741EA0701C0F81814816941F0007182
:1038A00081612CD54FF400412AE05FEA026C40F2BE
:1038B0009D47C4F80C7504D5D4F80C7547F480778F
:1038C0001AE0C76BFF05DBD5D4F80C7547F060072D
:1038D00012E05FEA026C40F29D67C4F80C75EBD40D
:1038E000CEE75FEA026C40F22527C4F80C75C7D515
:1038F000D4F80C7547F4C077C4F80C75C0E7002104
:10390000B9F1020F18D000204FF4F0474FF0FE58E5
:1039100007EAC22208EA835313434FF4402C0CEA0F
:1039200086473B43CAF30A0213430B430343C4F8DD
:103930000035032E03D008E04FF40030E4E7D4F85C
:10394000000540F00050C4F800052846BDE8F087A7
:10395000D0F8140480B27047F8B5C36B4FF480758B
:103960004C784FF0000EDB0516D50B79A3B912B1D8
:10397000012A07D010E04B79012B0DD12146FFF72A
:10398000A9FE8CE000EB4413D3F80C6526F060062A
:10399000C3F80C6581F805E00B695BB10E8933440F
:1039A0005B1EB3FBF6F39BB2AB4204D936022B4647
:1039B0000E6100E00123CD78BDB30D895D430D613B
:1039C0006FF060468F7A06EAC34300EB4414C5F3F8
:1039D00012054FF0C04C1D430CEA47763543C4F83E
:1039E000105512B1CB68C4F81435D0F80834D4F8A7
:1039F000006543F3000526F00053C4F80035D4F801
:103A000000656D1C274B46EA4575C4F80055D4F88F
:103A100000551D601D6825F080451D60CD78002D86
:103A20001D6805D045F4004504E0FFE70D69C7E7D0
:103A300025F400451D601D6845F000451D601B68AC
:103A4000C4F800355ABBCA784ABB0A693AB3CB7985
:103A500033B1012B0FD0022B02D0032B17D10AE078
:103A6000C36AD21C9BB2C2F38F0293420FD2826907
:103A700042F020020AE0D0F81034D21C9BB2C2F30C
:103A80008F02934203D2826942F080628261CDF854
:103A900000E00B8A4A78C9689BB200F004F9002064
:103AA000F8BD0000080000202DE9F0410025174670
:103AB0000446DDF81880C0F8005E806B20F400102A
:103AC000A063E06BC00501D5012B04D0D4F800043D
:103AD00020F0040103E0D4F8000440F00401204683
:103AE000C4F800141021FFF733FE2046FFF720FE34
:103AF00000204FF0FF3606E004EB4011C1F80865E6
:103B0000C1F80C55401C8742F6D801212046FFF72A
:103B1000F3FDC820FCF744FCA5616661E06BC005BD
:103B200004D50D494FF400720C4802E00C49802284
:103B30000C486262A162C4F80001B8F1000F03D121
:103B4000A06940F01000A061A06907490843A06186
:103B50000020BDE8F0810000000200010003E00049
:103B600080006000E0004000080020A3D0F800249E
:103B7000012901F0030322F00302C0F80024D0F869
:103B8000002442EA0302C0F8002402D0022903D034
:103B900006E04BF6803101E041F27071C0F8041488
:103BA000002070474169806908407047D21C00F5C9
:103BB00080509308002210B502E00468521C10C126
:103BC0009A42FAD3084610BD38B50446D0F84004EE
:103BD00020F02E00009040F48070C4F8400464206F
:103BE00004F58864FCF7DCFB009820F4807020600A
:103BF0000A20FCF7D5FB002038BD10B5C2680129AA
:103C000022F0C042C26002D029B1012010BDC168BB
:103C100041F0005102E0C16841F08041C1603220B2
:103C2000FCF7BEFB002010BD30B5044680680025BF
:103C300020F00100A06010212046FFF789FD2046FA
:103C4000FFF776FD5FF0000004EB4011D1F800258E
:103C5000401C0F2822F0802242F08042C1F800254B
:103C6000F2D900204FF47A7304EB4011D1F800250B
:103C700022F4004242F04042C1F800256D1C9D42F2
:103C800003D8D1F80025002AF8DB401C0F28EBD917
:103C90004FF0FF30C4F814046061A06840F00100E8
:103CA000A060002030BD10B5029C64B900EB02306A
:103CB000DB1C00229B0800F5805002E010C9046064
:103CC000521C9A42FAD3002010BDFEE709070028D3
:103CD0004FEA116104DB00F1E02080F80014704726
:103CE00000F00F0000F1E02080F8141D704702E0A2
:103CF00008C8121F08C1002AFAD170477047002077
:103D000001E001C1121F002AFBD1704710B5002845
:103D100021D0114B0022001F196803E0814203D813
:103D20000A4649680029F9D152B11368841A9C42A5
:103D300004D1006818441060104602E0506000E0B2
:103D4000186039B102680B1A934203D10B681A4408
:103D500002604968416010BD64000020FCF728FE45
:103D6000FEF7BEF8FEF73CF8FEF770F8FEF786F8AF
:103D70002D4C0026DFF8A8802A4FA4F1C80500BF0B
:103D8000FEF79CF898F800000228F9D12748FEF7C2
:103D900089FD0228F4D12548FEF7A6FD00283860E9
:103DA000EED0FEF76DFDA0F121015E2905D20021C4
:103DB0006A5C92B3491CC829FADB0A2801D00D2895
:103DC000DED1002210462654401C6428FBDBFF2174
:103DD00021706170002084F86310295C0A290BD0DF
:103DE0000D2909D0A1F121035E2B02D22318521C08
:103DF0009970401C6128F0DB00202E54401CC8281C
:103E0000FBDB002ABCDD0849642201F16400FDF7F8
:103E100083FC1420FCF7C4FAB2E7FFE76854CCE750
:103E200004000020000000203401002018020020BF
:103E3000F0B50B30154D20F007010024144A0FE0B7
:103E400003688B420BD38B4205D95E1A431847682F
:103E5000C3E9006700E04368136002C004E0021D8C
:103E600010680028ECD12046002802D1286808B14B
:103E70000020F0BD064A07481060074A121A22F0D7
:103E80000702C0E9002401202860D7E7680000206D
:103E900064000020CC080020C8280020000000009A
:103EA00000000000010203040607080900000000EA
:103EB0000102030444000020010000000000000093
:103EC00000000000010000000000000001000000F0
:103ED000010000004400002001000000010000007B
:103EE00000000000010000000000000001000000D0
:103EF000010000004400002001000000020000005A
:103F000000000000010000000000000001000000AF
:103F10000100000044000020010000000300000038
:103F2000000000000100000000000000010000008F
:103F30000100000044000020010000000400000017
:103F4000000000000100000000000000010000006F
:103F500001000000440000200100000005000000F6
:103F6000000000000100000000000000010000004F
:103F700001000000440000200100000006000000D5
:103F8000000000000100000000000000010000002F
:103F900001000000440000200100000007000000B4
:103FA000000000000100000000000000010000000F
:103FB000010000004600002008000000000600008C
:103FC0000000000065000000000000006500000027
:103FD0000100000000603132333435363738393073
:103FE0002D3D000D0971776572747975696F705B8D
:103FF0005D5C006173646667686A6B6C3B27000AEE
:1040000000007A786376626E6D2C2E2F000000001F
:104010000020000000000000000000000000000080
:10402000000000000D00000000000000000000374C
:104030003431002F383532302A3936332E2D2B00CB
:104040000A00000000000000000000000000000066
:10405000000000000000007E21402324255E262A67
:1040600028295F2B00000051574552545955494F9C
:10407000507B7D7C004153444647484A4B4C3A2292
:10408000000A00005A584356424E4D3C3E3F000045
:104090000000000000000000000000000000000020
:1040A0000000000000000000000000000000000010
:1040B0000000000000000000000000000000000000
:1040C00000000000000000000000000000000000F0
:1040D0000000000000000000000000001F3230213E
:1040E00013222324182526273433191A11142015D6
:1040F0001731122F162E02030405060708090A0BB2
:104100002B6E0F103D0C0D1B1C1D2A282901353666
:10411000371E707172737475767778797A7B7C7DCF
:104120007E4B50554C5156594F54535A5F64696AEF
:104130006C5D62675C61665B606563682D81000031
:10414000000000000000000000000000000000006F
:10415000000000000000000000000000006B0038BC
:10416000000000000000000000000000000000004F
:10417000000000000000000000000000000000003F
:10418000000000000000000000000000000000002F
:10419000000000000000000000000000000000001F
:1041A000000000000000000000000000000000000F
:1041B00000000000000000003A2C3C7F40393E80A7
:1041C00048494400E4410008000000206C00000061
:1041D000EE3C0008504200086C0000205C680000C3
:1041E000FE3C00080000000000000000000000008D
:1041F0000100000010000000000000000024F40096
:10420000C0410008030000006D29000821290008B2
:1042100019270008E92B0008C72C0008000000003F
:10422000000000000000000000000000000000008E
:10423000000000000000000000000000000000007E
:10424000000000000000000000000000000000006E
:04000005080001E10D
:00000001FF
