:020000040800F2
:100000008068002065010008A92B0008712A0008FB
:10001000A52B000895020008CF4E00080000000044
:10002000000000000000000000000000E92B0008B4
:10003000ED02000800000000BD2B0008EB2B0008BB
:100040007F0100087F0100087F0100087F01000890
:100050007F0100087F0100087F0100087F01000880
:100060007F0100087F0100087F0100087F01000870
:100070007F0100087F0100087F0100087F01000860
:100080007F0100087F0100087F0100087F01000850
:100090007F0100087F0100087F0100087F01000840
:1000A0007F0100087F0100087F0100087F01000830
:1000B0007F0100087F0100087F0100087F01000820
:1000C0007F0100087F0100087F0100087F01000810
:1000D0007F010008F12F00087F0100087F01000860
:1000E0007F0100087F0100087F0100080000000078
:1000F0000000000000000000000000000000000000
:1001000000000000000000007F0100087F010008DF
:100110007F0100087F0100087F0100087F010008BF
:100120007F0100087F0100087F0100087F010008AF
:100130007F01000800000000000000007F010008AF
:100140007F0100087F0100087F010008AD2B000837
:10015000DFF80CD000F08CF8004800477D4F000815
:10016000806800200648804706480047FEE7FEE713
:10017000FEE7FEE7FEE7FEE7FEE7FEE7FEE7FEE757
:10018000892C0008510100082DE9F05F0546002088
:1001900092469B4688460646814640241BE02846F8
:1001A00041464746224600F020F853465A46C01AB8
:1001B000914110D311461846224600F04AF82D1AF4
:1001C00067EB01084F4622460120002100F041F86C
:1001D00017EB00094E41201EA4F10104DFDC484664
:1001E00031462A464346BDE8F09F202A04DB203AE8
:1001F00021FA02F00021704721FA02F3D040C2F147
:100200002002914008431946704740EA01039B07CA
:1002100003D009E008C9121F08C0042AFAD203E07B
:1002200011F8013B00F8013B521EF9D27047D2B2DF
:1002300001E000F8012B491EFBD270470022F6E7CF
:1002400010B513460A4604461946FFF7F0FF20464C
:1002500010BD202A04DB203A00FA02F1002070478A
:100260009140C2F1200320FA03F3194390407047F4
:10027000064C074D06E0E06840F0010394E80700F3
:1002800098471034AC42F6D3FFF766FF18540008C5
:100290003854000800BFFEE70146002200BF05E019
:1002A000002301F5607040F82230521C0F2AF7D36A
:1002B000002204E0002301F58E708354521CB2F535
:1002C000007FF7D30020087048700120887000205C
:1002D000C1F8C00301230B7640238B7100234B76BA
:1002E00081F81C33012381F81D3370477047704734
:1002F00070B50446002594F82100022803D004209C
:10030000A0630125C1E02068006820F00E0021688C
:1003100008602068006820F00100216808605C49DE
:100320002068884252D95A4978392068884201D1D8
:10033000012047E0564964392068884201D11020E5
:1003400040E0534950392068884201D1801539E096
:100350004F493C392068884201D1801432E04C4931
:1003600028392068884202D14FF480302AE0484979
:1003700014392068884202D14FF4801022E04449A9
:100380002068884201D140041CE04249206888422C
:1003900001D1012016E03F4914312068884201D183
:1003A00010200FE03B4928312068884201D1801598
:1003B00008E038493C312068884201D1801401E0CE
:1003C0004FF480303349091F086051E030497839D3
:1003D0002068884201D1012047E02D496439206816
:1003E000884201D1102040E02949503920688842D4
:1003F00001D1801539E026493C392068884201D175
:10040000801432E0224928392068884202D14FF412
:1004100080302AE01E4914392068884202D14FF406
:10042000801022E01A492068884201D140041CE073
:1004300018492068884201D1012016E0154914317D
:100440002068884201D110200FE01249283120682D
:10045000884201D1801508E00E493C31206888426D
:1004600001D1801401E04FF480300949803948609F
:10047000012084F8210000BF002084F8200000BF84
:10048000606B10B12046616B8847284670BD000044
:10049000800002400804024070B5044600F0A6F94E
:1004A00006462546681C10B104480078054400BF84
:1004B00000F09CF9801BA842FAD370BD1400002004
:1004C0002DE9F8470346002294466EE14FF00108FB
:1004D00008FA02F4D1F8008008EA0400A0427DD1B5
:1004E000DFF8DCA2D1F80480A8EB0A09D0453AD0A5
:1004F00014DCB8F1030F50D009DCB8F1000F31D093
:10050000B8F1010F1CD0B8F1020F49D120E0B8F1C9
:10051000110F18D0B8F1120F42D11EE0B9F5881FA3
:1005200025D006DCB9F5803F20D0B9F5801F37D142
:100530001AE0B9F5001F18D0B9F5041F30D117E043
:10054000D1F80CC02DE0D1F80C8008F1040C28E0A3
:10055000D1F80C8008F1080C23E0D1F80C8008F1E8
:100560000C0C1EE000BF00BF00BF00BF00BF00BFFB
:10057000D1F80880B8F1000F02D14FF0040C0BE065
:10058000D1F80880B8F1010F03D14FF0080C1C61BD
:1005900002E04FF0080C5C6103E04FF0000C00E05B
:1005A00000BF00BFFF2801D8984601E003F104080E
:1005B0004646FF2802D84FEA820803E0A2F1080865
:1005C0004FEA88084746D6F800804FF00F0909FA2D
:1005D00007F928EA09080CFA07F900E088E048EA78
:1005E0000908C6F80080D1F8048008F08058B8F1F6
:1005F000805F7DD100BFDFF8CC81D8F8188048F04B
:100600000108DFF8C091C9F81880C846D8F81880EA
:1006100008F00108CDF8008000BF00BF4FEAB938EC
:100620004FEA920958F829504FEA82784FEA187930
:100630004FF00F0808FA09F825EA0805DFF8888165
:10064000434502D14FF0000816E0DFF880814345B2
:1006500002D14FF001080FE0DFF87481434502D169
:100660004FF0020808E0DFF86C81434502D14FF0FB
:10067000030801E04FF004084FEA82794FEA197944
:1006800008FA09F848EA0505DFF84C814FEA9209B3
:1006900048F82950D1F8048008F48038B8F5803F34
:1006A0000AD1DFF83881D8F8008048EA0008DFF87E
:1006B0002C91C9F8008009E0DFF82081D8F800808B
:1006C00028EA0008DFF81491C9F80080D1F8048006
:1006D00008F40038B8F5003F10D1DFF8008108F1C8
:1006E0000408D8F8008048EA0008DFF8F09000E03D
:1006F0005AE009F10409C9F800800DE0DFF8DC8058
:1007000008F10408D8F8008028EA0008DFF8CC9047
:1007100009F10409C9F80080D1F8048008F48018B0
:10072000B8F5801F0ED1DFF8B48008F10808D8F8BA
:10073000008048EA0008DFF8A49009F10809C9F828
:1007400000800DE0DFF8948008F10808D8F80080F8
:1007500028EA0008DFF8849009F10809C9F8008048
:10076000D1F8048008F40018B8F5001F0ED1DFF8A6
:100770006C8008F10C08D8F8008048EA0008DFF81F
:100780005C9009F10C09C9F800800DE0DFF84C809D
:1007900008F10C08D8F8008028EA0008DFF83C903F
:1007A00009F10C09C9F80080521CD1F8008028FA20
:1007B00002F8B8F1000F7FF489AEBDE8F8870000B9
:1007C000000011100010024000080140000C014020
:1007D00000100140001401400800014000040140E5
:1007E0000AB1016101E00B04036170470148006830
:1007F000704700000C00002010B50446D4F8C00279
:1008000003F059FB10BD10B50446D4F8C00203F044
:100810005DFB10BD10B50446206803F0CBFF10BD92
:1008200010B50446206803F0CCFF10BD024601EB72
:10083000810302F1380000EBC30090F824007047F8
:10084000024601EB810302F1380000EBC30040696E
:10085000704770B504460D46002600BF94F8B802F4
:10086000012801D1022070BD012084F8B80200BF28
:100870002946206803F0B6FF00BF002084F8B802C4
:1008800000BF3046EFE72DE9FE4F04460D46164601
:100890001F46DDE90D9ADDF8308000BF94F8B802FC
:1008A000012802D10220BDE8FE8F012084F8B802A1
:1008B00000BF002105EB850204F1380000EBC20007
:1008C000417105EB850104F1380000F8317005EB4A
:1008D000850100EBC100A0F808A005EB850104F13B
:1008E000380000EBC100457005EB850104F13800CC
:1008F00000EBC10080F8079006F07F0105EB850250
:1009000004F1380000EBC200817006F080008028FE
:1009100008D1012105EB850204F1380000EBC2008B
:10092000C17007E0002105EB850204F1380000EBFF
:10093000C200C17005EB850104F1380000EBC10075
:1009400080F804808DE800073B463246294620683F
:1009500004F003F8834600BF002084F8B80200BF0B
:100960005846A0E770472DE9F05F04460D4616464D
:100970001F46DDE90C9BDDE90A8A05EB850104F1E0
:10098000380000EBC100C67005EB850104F13800AA
:1009900000EBC100C771B8F1000F10D1032105EBC6
:1009A000850204F1380000EBC200817205EB85017D
:1009B00004F1380000EBC10080F805B007E0022127
:1009C00005EB850204F1380000EBC200817237B1FB
:1009D000012F74D0022F2BD0032F71D15DE0B8F11D
:1009E000010F24D11EBBB9F1000F07D1012105EB86
:1009F000850204F1380000EBC200417605EB850169
:100A000004F1380000EBC100407E40B9002105EB45
:100A1000850204F1380000EBC200817207E0022178
:100A200005EB850204F1380000EBC200817275E02D
:100A3000CEB905EB850104F1380000EBC100407E22
:100A400040B9002105EB850204F1380000EBC2003B
:100A5000817221E0022105EB850204F1380000EBF0
:100A6000C200817218E005EB850104F1380000EB4B
:100A7000C100007E40B9002105EB850204F1380079
:100A800000EBC200817207E0022105EB850204F150
:100A9000380000EBC200817240E0DEB905EB850151
:100AA00004F1380000EBC100407E50B9002105EB95
:100AB000850204F1380000EBC200817223E023E0DC
:100AC0002BE0022105EB850204F1380000EBC200A7
:100AD000817218E005EB850104F1380000EBC100DC
:100AE000007E40B9002105EB850204F1380000EBDF
:100AF000C200817207E0022105EB850204F1380093
:100B000000EBC200817209E0002105EB850204F1CF
:100B1000380000EBC200817200E000BF00BF05EBAF
:100B2000850104F1380000EBC100C0F80CA005EB12
:100B3000850104F1380000EBC100C0F810900021DD
:100B400005EB850204F1380000EBC20080F82410A8
:100B500005EB850204F1380000EBC200416105EBB2
:100B6000850104F1380000EBC1004570002105EB60
:100B7000850204F1380000EBC20080F8251005EB77
:100B8000850304F1380202EBC301206803F0B2FFD1
:100B9000BDE8F09F2DE9F0410446D4F800804746B7
:100BA000206803F01AFE012870D1206804F0CEF806
:100BB00008B9BDE8F081206804F0C8F800F400101E
:100BC000B0F5001F03D14FF4001021684861206880
:100BD00004F0BCF800F48010B0F5801F03D14FF48E
:100BE000801021684861206804F0B0F800F080604F
:100BF000B0F1806F03D14FF08060216848612068B8
:100C000004F0A4F800F00200022801D12168486134
:100C1000206804F09BF800F00050B0F1005F0FD1A5
:100C20004FF0005021684861D7F8400400F00100FF
:100C300030B92046FFF7E7FD0121206804F064F891
:100C4000206804F083F800F08070B0F1807F02D15A
:100C5000204601F0C9FD206804F078F800F0080093
:100C6000082805D1204600F0ADF808202168486129
:100C7000206804F06BF800F00070B0F1007F27D11D
:100C8000206803F02FFF064600251AE035E005F046
:100C90000F0101208840304090B107F5A06000EBC3
:100CA0004510006800F40040B0F5004F04D1E9B2EF
:100CB000204601F04FF803E0E9B2204601F007FBBF
:100CC0006D1CA068A842E2D84FF00070216848610E
:100CD000206804F03BF8C0F3001070B12068806910
:100CE00020F0100021688861204601F0D9FD2068BD
:100CF000806940F010002168886100BF59E730B575
:100D00008BB0044614B901200BB030BD256894F8AF
:100D1000B90228B9002084F8B802204600F02AF869
:100D2000032084F8B902E86B00F4807008B9002150
:100D30002161206803F0DCFC282204F110016846E0
:100D4000FFF763FA94E80F0003F07CFC01212068B0
:100D500004F030F8282204F110016846FFF755FA34
:100D600094E80F0003F07CFF012084F8B902002012
:100D7000CAE7000038B504462068B0F1A04F15D18D
:100D800000BF0B48406940F480500949486108465B
:100D9000406900F48050009000BF00BF002211465F
:100DA000432000F0C9F8432000F0B6F838BD000039
:100DB000001002407047704710B50446206803F0E9
:100DC000DBFF10BD10B50446D4F8C00203F0CEF826
:100DD00010BD10B5044600BF94F8B802012801D137
:100DE000022010BD012084F8B80200BF206803F083
:100DF000ABFC0121206803F082FC00BF002084F8D6
:100E0000B80200BF00BFECE710B5044600BF94F87D
:100E1000B802012801D1022010BD012084F8B802D7
:100E200000BF206803F0E1FF00BF002084F8B80293
:100E300000BF00BFF0E700000348006803490978DD
:100E400008440149086070470C000020140000208D
:100E500010B50848006840F01000064908600320FB
:100E600000F0A8F8002000F007F800F02BF80020B0
:100E700010BD00000020024070B504460E48007806
:100E80004FF47A71B1FBF0F00C490968B1FBF0F551
:100E9000284600F0DFFD08B1012070BD102C07D2FC
:100EA00000222146501E00F047F80548046001E08A
:100EB0000120F2E70020F0E71400002018000020D5
:100EC0001000002008B500BF1148806940F0010003
:100ED0000F4988610846806900F00100009000BF5A
:100EE00000BF00BF0846C06940F08050C861084696
:100EF000C06900F08050009000BF00BF00BF0549EE
:100F0000486820F0E06040F00070486000BF08BD15
:100F1000001002400000014001460846002809DB9D
:100F200000F01F0301229A4043099B0003F1E023D4
:100F3000C3F8002100BF70472DE9F05F80460D46E1
:100F40001646002703F0C6FF074639462A463346B1
:100F500001F00700C0F1070ABAF1040F02D94FF0FF
:100F6000040A01E0C0F1070AD14600F1040ABAF10F
:100F7000070F02D24FF0000A01E0A0F1030AD446A5
:100F80004FF0010A0AFA09FAAAF1010A0AEA020A6A
:100F90000AFA0CFA4FF0010B0BFA0CFBABF1010B48
:100FA0000BEA030B4AEA0B042146404603F09AFF82
:100FB000BDE8F09F00BF00F00702064B19684FF62E
:100FC000FF031940044B0B4343EA0221014B196014
:100FD00000BF70470CED00E00000FA052DE9F84372
:100FE0000446002600250027207800F00100002894
:100FF0006ED0A8467948C06900F0805078B900BF2B
:101000007648C06940F080507449C8610846C0699C
:1010100000F08050009000BF00BF4FF00108704802
:10102000006800F48070B8B96D48006840F48070C2
:101030006B490860FFF7DAFB064607E0FFF7D6FBCF
:10104000801B642802D90320BDE8F8836448006847
:1010500000F480700028F1D06048006A00F4407508
:101060002DB3A08800F44070A84220D05B48006AED
:1010700020F4407501205B49086000200860574853
:10108000056205F0010090B1FFF7B0FB064608E0ED
:10109000FFF7ACFB801B41F28831884201D9032065
:1010A000D2E74E48006A00F002000028F0D04B481A
:1010B000006A20F440706168084348490862B8F14A
:1010C000010F04D10846C06920F08050C86100BFFC
:1010D000207800F00200022807D14048406820F440
:1010E0004040A16808433D494860207800F0040072
:1010F000042807D13948C06A20F40030E168084369
:101100003649C862207800F00800082807D1334823
:10111000C06A20F48020216908433049C8622F4802
:10112000C06A00F4003020B92C48C06A00F4802066
:1011300000B10127012F41D12848006800F08050FC
:1011400090BB2648006800F0806040B12348C06A28
:1011500000F0F001A069814201D0012074E71F482E
:10116000C06A20F0F000A16908431C49C862084623
:10117000C06A20F47040616908431849C8620120C0
:1011800019490867FFF732FB064606E0FFF72EFB1A
:10119000801B642801D9032056E71048006800F03E
:1011A00000500028F2D009E0FFE70C48C06A00F4C4
:1011B00070406169884201D0012045E7207800F045
:1011C0001000102807D10548406820F48000E1692C
:1011D000084302494860002036E700000010024042
:1011E00000700040400442420000424270B5044694
:1011F0000D460CB9012070BD5A48006800F0070088
:10120000A8420ED25748006820F0070028435549ED
:1012100008600846006800F00700A84201D00120DD
:10122000E9E7207800F0020002281DD1207800F0C4
:101230000400042805D14C48406840F4E0604A4965
:101240004860207800F00800082805D1464840682A
:1012500040F46050444948604348406820F0F00042
:10126000A168084340494860207800F0010078B345
:101270006068012806D13C48006800F4003090B94D
:101280000120B8E76068022806D13748006800F0FE
:10129000007040B90120AEE73348006800F002005A
:1012A00008B90120A7E73048406820F003006168D2
:1012B00008432D494860FFF799FA064609E0FFF711
:1012C00095FA801B41F28831884202D9032092E7C7
:1012D00007E02548406800F00C006168B0EB810F22
:1012E000EDD12048006800F00700A8420ED91D4843
:1012F000006820F0070028431A4908600846006883
:1013000000F00700A84201D0012074E7207800F027
:101310000400042807D11448406820F4E060E16824
:10132000084311494860207800F00800082808D1D7
:101330000D48406820F46050216940EAC1000A4924
:10134000486000F03FF808494968C1F30311074AB3
:10135000515CC8400649086006480068FFF78CFDEC
:10136000002048E70020024000100240F050000832
:10137000180000201000002001480068704700009D
:101380001800002000B5FFF7F7FF04494968C1F3D2
:101390000221034A515CC84000BD00000010024019
:1013A0000051000800B5FFF7E7FF04494968C1F3A1
:1013B000C221034A515CC84000BD00000010024039
:1013C000005100082DE9F04F8BB03CA2D2E9013169
:1013D0001068D268CDE908310A9207903BA3D3E99F
:1013E0000020D3E9021304AC0BC403924FF00009B0
:1013F000CB46CA4600240020029001900090374856
:10140000D0F8049009F00C0000284FD0042802D036
:1014100008284AD102E0324802904AE007A8C9F3FE
:101420008341445C09F48030C0B32C48C06A00F0AA
:101430000F0003A911F800B02848C06A00F48030FA
:1014400008B32648C06AC0F30310401C019023482B
:10145000C06AC0F30320801C00900198A0FB0B50D1
:1014600006461F490098A1FB00210023A2FB047C33
:1014700001FB04C102FB03112A4633463846FEF73E
:1014800083FE824603E016486043B0FBFBFA9DF8FA
:101490002900A04206D14FEA5A0A03E0FFE71148AB
:1014A00004FB00FACDF808A003E000BF0C4802904E
:1014B00000BF00BF02980BB0BDE8F08F000004052C
:1014C0000607080900000000000D000001020304E7
:1014D00005060708090A0B0C0D0E0F10001002403C
:1014E00000127A0000093D00F8B504460CB901204D
:1014F000F8BD207800F00100002878D0FD48406851
:1015000000F00C0004280CD0FA48406800F00C00F1
:10151000082811D1F748406800F48030B0F5803FCA
:101520000AD1F448006800F4003000285FD0A068B9
:1015300000285CD10120DBE700BFA068B0F5803F48
:1015400006D1EC48006840F48030EA49086028E0A1
:10155000A06858B9E748006820F48030E549086081
:101560000846006820F4802008601AE0A068B0F502
:10157000A02F0BD1DF48006840F48020DD490860CF
:101580000846006840F4803008600AE0D9480068E6
:1015900020F48030D74908600846006820F4802095
:1015A000086000BFA06888B1FFF720F9054606E093
:1015B000FFF71CF9401B642801D9032098E7CD48A8
:1015C000006800F400300028F2D010E0FFF70EF9B8
:1015D000054606E0FFF70AF9401B642801D90320FD
:1015E00086E7C448006800F400300028F2D1207873
:1015F00000F00200022857D1BE48406800F00C00FD
:1016000050B1BC48406800F00C00082818D1B94817
:10161000406800F4803098B9B648006800F00200D5
:1016200020B16069012801D0012061E7B14800685C
:1016300020F0F800A16940EAC100AE49086033E03B
:101640006069E8B10120AC490860FFF7CFF80546B2
:1016500006E0FFF7CBF8401B022801D9032047E73B
:10166000A448006800F002000028F2D0A1480068F9
:1016700020F0F800A16940EAC1009E49086013E02B
:1016800000209D490860FFF7B1F8054606E0FFF726
:10169000ADF8401B022801D9032029E795480068CE
:1016A00000F002000028F2D1207800F0080008289D
:1016B0002DD1E069B8B1012090490860FFF796F894
:1016C000054606E0FFF792F8401B022801D90320E7
:1016D0000EE78848406A00F002000028F2D001209E
:1016E00001F06EFA13E0002084490860FFF77EF8ED
:1016F000054606E0FFF77AF8401B022801D90320CF
:10170000F6E67C48406A00F002000028F2D120781A
:1017100000F00400042873D100277648C06900F067
:10172000805070B900BF7348C06940F08050714963
:10173000C8610846C06900F08050009000BF00BF3B
:1017400001276F48006800F48070B0B96C480068E9
:1017500040F480706A490860FFF748F8054606E0E3
:10176000FFF744F8401B642801D90320C0E6644811
:10177000006800F480700028F2D000BF20690128C2
:1017800006D15C48006A40F001005A49086227E02F
:10179000206958B95748006A20F00100554908628D
:1017A0000846006A20F00400086219E02069052854
:1017B0000BD15048006A40F004004E4908620846C8
:1017C000006A40F0010008620AE04A48006A20F01E
:1017D0000100484908620846006A20F004000862D7
:1017E00000BF2069A0B1FFF701F8054609E0FEF748
:1017F000FDFF401B41F28831884202D9032077E681
:1018000022E03C48006A00F002000028EFD012E01D
:10181000FEF7ECFF054608E0FEF7E8FF401B41F24B
:101820008831884201D9032062E63248006A00F01C
:1018300002000028F0D1012F05D12E48C06920F008
:1018400080502C49C86100BFE06AA0B329484068B5
:1018500000F48030B0F5803F0ED12648406800F09B
:101860000C00082808D12348C06A00F48030B0F585
:10187000803F01D101203BE6E06A022850D11D489B
:10188000006800F0805040B11A48C06A00F0F001D2
:10189000606B814201D001202AE60020164988664B
:1018A000FEF7A4FF054607E0FEF7A0FF401B6428F3
:1018B00002D903201CE64DE00E48006800F00060ED
:1018C0000028F1D10B48C06A20F0F000616B08439A
:1018D0000849C8620846C06A20F47060216B08435A
:1018E0000449C862012004498866FEF77FFF054667
:1018F0000FE000000010024000004242800442421B
:1019000000700040FEF772FF401B642801D90320DD
:10191000EEE54E48006800F000600028F2D019E0C3
:101920004A48C06A20F480304849C86200204849CB
:101930008866FEF75BFF054606E0FEF757FF401B93
:10194000642801D90320D3E54048006800F0006016
:101950000028F2D1206AE0B33C48406800F00C0057
:1019600008285ED0206A022846D10020384908663F
:10197000FEF73CFF054606E0FEF738FF401B022855
:1019800001D90320B4E53148006800F00070002858
:10199000F2D1606AB0F5803F0DD12C48C06A616811
:1019A00008432A49C8620846C06A20F00F00E1686F
:1019B00008432649C862D4E9090108432349496814
:1019C00021F4741108432149486001202049086628
:1019D00000E038E0FEF70AFF054606E0FEF706FFE6
:1019E000401B022801D9032082E51848006800F056
:1019F00000700028F2D026E0002015490866FEF7A6
:101A0000F5FE054606E0FEF7F1FE401B022801D96F
:101A100003206DE50D48006800F000700028F2D149
:101A200011E0206A012800D162E50848466806F402
:101A30008031606A814204D106F47011A06A81424B
:101A400001D0012054E5002052E5000000100240C2
:101A50000000424270B504462546681EB0F1807F02
:101A600001D301200FE0681E4FF0E02148610F21F3
:101A70004FF0FF3003F036FA00204FF0E02188618C
:101A800007200861002070BD704700002DE9F04775
:101A90000446206805682068C668206847694FF0DA
:101AA0000008C14605F00F08B8F1000F0AD105F093
:101AB000200038B106F0200020B1204601F040F9A6
:101AC000BDE8F087B8F1000F6DD007F0010018B93C
:101AD00006F49070002866D005F0010030B106F4DD
:101AE000807018B1E06B40F00100E06305F0040085
:101AF00030B107F0010018B1E06B40F00200E06384
:101B000005F0020030B107F0010018B1E06B40F0C1
:101B10000400E06305F0080030B107F0010018B1DF
:101B2000E06B40F00800E063E06B68B305F0200074
:101B300028B106F0200010B1204601F001F920681C
:101B40004069C0F38019E06B00F0080010B9B9F1EA
:101B5000000F22D0204601F0D3F82068406900F041
:101B60004000B0B12068406920F040002168486121
:101B7000606B50B11748616B4863606BFEF7B8FB50
:101B800010B1606B416B88470CE02046FFF77CFF8B
:101B900008E02046FFF778FF04E02046FFF774FFD7
:101BA0000020E0638CE705F0800030B106F0800093
:101BB00018B1204601F0E8F982E705F0400030B1A5
:101BC00006F0400018B1204601F0AAF878E700BFFF
:101BD00076E70000ED2C000810B504460CB9012092
:101BE00010BDA06900B100E000BF94F8390028B929
:101BF000002084F83800204600F028F8242084F8DB
:101C000039002068C06820F400502168C860204670
:101C100001F0EAF82068006920F49040216808612A
:101C20002068406920F02A00216848612068C06867
:101C300040F400502168C8600020E063202084F850
:101C4000390084F83A000020CAE7000010B586B0D9
:101C500004460020029003900490059022492068D9
:101C600088423ED100BF2148806940F480401F492E
:101C700088610846806900F48040019000BF00BF81
:101C800000BF0846806940F0080088610846806906
:101C900000F00800019000BF00BF40200290022029
:101CA00003900320059002A91148FEF709FC80204B
:101CB000029000200390049002A90D48FEF700FC5A
:101CC00000BF0C49486840F0E06040F00400486004
:101CD00000BF002211462520FFF72EF92520FFF72F
:101CE0001BF906B010BD0000003801400010024092
:101CF000000C014000000140704710B5034693F806
:101D00003900202823D101B10AB9012010BD00BF3C
:101D100093F83800012801D10220F7E7012083F869
:101D2000380000BF19629A84DA840020D863212029
:101D300083F8390000BF002083F8380000BF18681E
:101D4000C06840F080001C68E0600020DEE70220F0
:101D5000DCE770472DE9F04705468846D5F8009046
:101D60004E46444606F5A06000EB4410806800F043
:101D70000400042812D1042106F5A06000EB4410F1
:101D8000816006F5A06000EB4410C06840F00201DD
:101D900006F5A06000EB4410C1606DE006F5A060A0
:101DA00000EB4410806800F02000202806D120219C
:101DB00006F5A06000EB441081605DE006F5A060D0
:101DC00000EB4410806800F00800082825D106F5D3
:101DD000A06000EB4410C06840F0020106F5A0606E
:101DE00000EB4410C160052104EB840205F13800CA
:101DF00000EBC20080F82510102106F5A06000EB72
:101E000044108160082106F5A06000EB4410816059
:101E1000E1B2286802F0E6FC2EE006F5A06000EBD7
:101E20004410806800F48060B0F5806F24D106F51E
:101E3000A06000EB4410C06840F0020106F5A0600D
:101E400000EB4410C160E1B2286802F0CBFC102125
:101E500006F5A06000EB44108160082104EB8402C9
:101E600005F1380000EBC20080F82510C90106F525
:101E7000A06000EB4410816006F5A06000EB441008
:101E8000806800F40070B0F5007F17D106F5A060FF
:101E900000EB4410C06840F0020106F5A06000EBC2
:101EA0004410C160E1B2286802F09CFC4FF400715C
:101EB00006F5A06000EB4410816006E206F5A06024
:101EC00000EB4410806800F0010000287ED0012162
:101ED00004EB840205F1380000EBC20080F8251005
:101EE000002104EB840205F1380000EBC20001621E
:101EF000012106F5A06000EB4410816004EB840131
:101F000005F1380000EBC100C07940B104EB840159
:101F100005F1380000EBC100C079022816D106F5A2
:101F2000A06000EB4410C06840F0020106F5A0601C
:101F300000EB4410C160E1B2286802F053FC1021AC
:101F400006F5A06000EB441081604AE004EB8401D8
:101F500005F1380000EBC100C079032821D106F556
:101F6000A06000EB4410006840F0005106F5A0604E
:101F700000EB44100160012104EB840205F13800FC
:101F800000EBC20080F8241004EB840305F1380054
:101F900000EBC30090F82420E1B22846FEF7E2FCF3
:101FA0001FE004EB840105F1380000EBC100C079AB
:101FB000012816D1012104EB840205F1380000EB61
:101FC000C20080F8241004EB840300E01AE005F15D
:101FD000380000EBC30090F82420E1B22846FEF759
:101FE000C1FC04EB840105F1380000EBC100007E68
:101FF00080F0010104EB840205F1380000EBC2001F
:10200000017662E106F5A06000EB4410806800F004
:102010000200022871D106F5A06000EB4410C068F0
:1020200020F0020106F5A06000EB4410C16004EB53
:10203000840105F1380000EBC10090F8250001286B
:1020400009D1012104EB840205F1380000EBC20044
:1020500080F824108BE004EB840105F1380000EBDC
:10206000C10090F82500052809D1052104EB840260
:1020700005F1380000EBC20080F8241077E004EB93
:10208000840105F1380000EBC10090F82500062816
:1020900009D004EB840105F1380000EBC10090F891
:1020A0002500082842D104EB840105F1380000EB3B
:1020B000C100006A401C04EB840205F1380101EB09
:1020C000C201086204EB840105F1380000EBC10095
:1020D000006A032812D9002104EB840205F13800BC
:1020E00000EBC2000162042104EB840205F1380018
:1020F00000EBC20080F8241009E04BE0022104EB61
:10210000840205F1380000EBC20080F8241006F5C7
:10211000A06000EB4410076827F0804747F00047B5
:1021200006F5A06000EB4410076020E004EB84019A
:1021300005F1380000EBC10090F82500032816D106
:10214000022104EB840205F1380000EBC20080F8A4
:10215000241006F5A06000EB4410076827F08047C4
:1021600047F0004706F5A06000EB4410076002212D
:1021700006F5A06000EB4410816004EB840305F1D8
:10218000380000EBC30090F82420E1B22846FEF7A7
:10219000E9FB9AE006F5A06000EB4410806800F0CF
:1021A000800080282ED106F5A06000EB4410C068A6
:1021B00040F0020106F5A06000EB4410C16004EBA2
:1021C000840105F1380000EBC100006A401C04EBFB
:1021D000840205F1380101EBC2010862062104EB1B
:1021E000840205F1380000EBC20080F82510E1B24E
:1021F000286802F0F7FA802106F5A06000EB441091
:10220000816062E006F5A06000EB4410806800F099
:102210001000102859D104EB840105F1380000EBBF
:10222000C100C079032818D1002104EB840205F114
:10223000380000EBC200016206F5A06000EB44101C
:10224000C06840F0020106F5A06000EB4410C160D8
:10225000E1B2286802F0C6FA31E004EB840105F12E
:10226000380000EBC100C07940B104EB840105F1F6
:10227000380000EBC100C079022820D1002104EB16
:10228000840205F1380000EBC2000162032104EB77
:10229000840205F1380000EBC20080F8251006F535
:1022A000A06000EB4410C06840F0020106F5A06099
:1022B00000EB4410C160E1B2286802F093FA1021EB
:1022C00006F5A06000EB44108160BDE8F0872DE9C1
:1022D000F04705460F46D5F800904E463C4606F5B9
:1022E000A06000EB4410806800F00400042812D1C4
:1022F000042106F5A06000EB4410816006F5A060A3
:1023000000EB4410C06840F0020106F5A06000EB4D
:102310004410C16066E206F5A06000EB44108068DE
:1023200000F02000202830D1202106F5A06000EB2D
:102330004410816004EB840105F1380000EBC1001A
:1023400040790128E6D1002104EB840205F1380030
:1023500000EBC2004171022104EB840205F1380058
:1023600000EBC20080F8241006F5A06000EB4410DA
:10237000C06840F0020106F5A06000EB4410C160A7
:10238000E1B2286802F02EFA2CE206F5A06000EB1C
:102390004410806800F0400040282FD1042104EB55
:1023A000840205F1380000EBC20080F825100121FD
:1023B00004EB840205F1380000EBC20041710021FA
:1023C00004EB840205F1380000EBC200016206F55F
:1023D000A06000EB4410C06840F0020106F5A06068
:1023E00000EB4410C160E1B2286802F0FBF9402123
:1023F00006F5A06000EB44108160F3E106F5A060F3
:1024000000EB4410806800F40070B0F5007F17D135
:1024100006F5A06000EB4410C06840F0020106F52C
:10242000A06000EB4410C160E1B2286802F0DAF964
:102430004FF4007106F5A06000EB44108160D1E11B
:1024400006F5A06000EB4410806800F0010030B396
:10245000002104EB840205F1380000EBC2000162A8
:1024600006F5A06000EB4410C06840F0020106F5DC
:10247000A06000EB4410C160E1B2286802F0B2F93C
:10248000012106F5A06000EB4410816004EB84029A
:1024900005F1380000EBC20080F82510A2E106F536
:1024A000A06000EB4410806800F0080008281FD1ED
:1024B000082106F5A06000EB4410816006F5A060DD
:1024C00000EB4410C06840F0020106F5A06000EB8C
:1024D0004410C160E1B2286802F084F9052104EBE0
:1024E000840205F1380000EBC20080F8251079E184
:1024F00006F5A06000EB4410806800F01000102882
:1025000027D1002104EB840205F1380000EBC20062
:102510000162032104EB840205F1380000EBC200E4
:1025200080F8251006F5A06000EB4410C06840F06C
:10253000020106F5A06000EB4410C160E1B228681A
:1025400002F050F9102106F5A06000EB4410816004
:1025500048E106F5A06000EB4410806800F08000C0
:1025600080281FD106F5A06000EB4410C06840F041
:10257000020106F5A06000EB4410C160E1B22868DA
:1025800002F030F9062104EB840205F1380000EB7B
:10259000C20080F82510802106F5A06000EB4410F1
:1025A00081601FE106F5A06000EB4410806800F434
:1025B0008060B0F5806F25D106F5A06000EB441077
:1025C000C06840F0020106F5A06000EB4410C16055
:1025D000E1B2286802F006F9102106F5A06000EBD0
:1025E00044108160890106F5A06000EB4410816011
:1025F000082104EB840205F1380000EBC20080F8EA
:102600002510EFE006F5A06000EB4410806800F0B4
:10261000020002289CD106F5A06000EB4410C068BF
:1026200020F0020106F5A06000EB4410C16004EB4D
:10263000840105F1380000EBC10090F82500012865
:102640002BD1012104EB840205F1380000EBC2001C
:1026500080F8241004EB840105F1380000EBC10080
:10266000C079022808D004EB840105F1380000EBA2
:10267000C100C07903280FD104EB840105F13800B3
:1026800000EBC100407E80F0010104EB840205F103
:10269000380000EBC200417692E004EB840105F1C2
:1026A000380000EBC10090F82500032809D1022171
:1026B00004EB840205F1380000EBC20080F824101E
:1026C0007EE004EB840105F1380000EBC10090F8D6
:1026D0002500042809D1022104EB840205F1380009
:1026E00000EBC20080F824106AE004EB840105F1DD
:1026F000380000EBC10090F82500052809D105211C
:1027000004EB840205F1380000EBC20080F82410CD
:1027100056E004EB840105F1380000EBC10090F8AD
:102720002500062809D004EB840105F1380000EBF0
:10273000C10090F82500082842D104EB840105F17E
:10274000380000EBC100006A401C04EB840205F174
:10275000380101EBC201086204EB840105F1380085
:1027600000EBC100006A032811D9002104EB8402A8
:1027700005F1380000EBC2000162042104EB840281
:1027800005F1380000EBC20080F8241008E00221B7
:1027900004EB840205F1380000EBC20080F824103D
:1027A00006F5A06000EB4410D0F8008028F08048C7
:1027B00048F0004806F5A06000EB4410C0F8008027
:1027C000022106F5A06000EB4410816004EB840355
:1027D00005F1380000EBC30090F82420E1B2284650
:1027E000FEF7C0F8BDE8F0877CB50446266835469C
:1027F000D5F840040190D5F840040090009820F0EE
:102800002E000090019800F0020002280AD10198E1
:1028100000F0010010B12046FDF7EEFF009840F0F7
:1028200002000090019800F0080008282AD10098C2
:1028300040F008000090019800F0040004281ED128
:10284000A06902280FD1019800F4C020B0F5802FB4
:1028500004D10221206802F057FA0CE0012120681F
:1028600002F052FA07E0E068012804D14EF6602138
:1028700040F2044041512046FEF79DFA02E0204616
:10288000FEF798FA019800F02000202803D1009864
:1028900040F0200000900098C5F840047CBD000086
:1028A0002DE9F05F0546D5F800A057462868D0F816
:1028B000208008F00F04C8F3434BC8F30A16BBF19D
:1028C000020F09D0BBF1030F66D0BBF1050F61D039
:1028D000BBF1070F5FD160E0002E5AD004EB8401FA
:1028E00005F1380000EBC100C068E8B3B2B204EBF8
:1028F000840C05F1380303EBCC03D968286802F097
:102900002AFA04EB840105F1380000EBC100C0682D
:10291000811904EB840205F1380000EBC200C160AC
:1029200004EB840105F1380000EBC1004069811916
:1029300004EB840205F1380000EBC200416107F5A9
:10294000A06000EB441000691649084060B107F52B
:10295000A06000EB4410D0F8009029F0804949F0C5
:10296000004907F5A06000E013E000EB4410C0F858
:10297000009004EB840105F1380000EBC100007EFB
:1029800080F0010104EB840205F1380000EBC20085
:10299000017603E002E000BF00BF00BF00BFBDE85A
:1029A000F09F00000000F81F2DE9F04102460B46A1
:1029B000002100241668177A507A68B1507A98423C
:1029C00002DC0020BDE8F081506800FB03F53D44C7
:1029D00006EBD50605F00707002405E030784FEA3E
:1029E000C40C00FA0CF1641C107900F0070018B157
:1029F0005068C008401C01E05068C008A042EDD8F3
:102A000021FA07F092F804804FF0010C0CFA08FC50
:102A1000ACF1010C00EA0C01D068884202D81069C0
:102A2000884201D20020CDE7907AC8B11079401ECB
:102A30004FF0010C0CFA00F0084088B192F80480C5
:102A4000012000FA08F0401EC04340EA010CD069A2
:102A5000012801D16046B5E7D06900FB0CF0B1E771
:102A6000D069012801D10846ACE7D0694843A9E7FD
:102A700000BFFEE770B5044625460CB9012500E00D
:102A800000252A4620210248FDF7AAFE70BD00005D
:102A9000000C014000B585B0002001900290039029
:102AA000049000BF1C48806940F020001A498861EA
:102AB0000846806900F02000009000BF00BF00BF02
:102AC0000846806940F0040088610846806900F08B
:102AD0000400009000BF00BF00BF0846806940F0BE
:102AE000080088610846806900F00800009000BF77
:102AF00000BF002220210948FDF772FE202001902E
:102B000001200290002003900220049001A90348B4
:102B1000FDF7D6FC05B000BD00100240000C0140DE
:102B200010B50B480B4908604FF4E13048600021B4
:102B300008488160C16001610C214161002181610F
:102B4000C161FFF749F808B1FDF7D1FB10BD0000E6
:102B5000003801406C00002010B501220A490B48E2
:102B600001F05DF908B1FDF7C2FB0949074801F022
:102B7000D8FC08B1FDF7BBFB044801F03BFD08B1F0
:102B8000FDF7B5FB10BD00000D460008D801002080
:102B90001C00002010B5024801F095FB10BD00009C
:102BA000D801002000BFFEE77047000010B50248C2
:102BB000FDF7F0FF10BD0000A805002070470000E1
:102BC00008B508490968C9084FF47A72B1FBF2F1F7
:102BD0004143009100BF00BF00994A1E00920029A6
:102BE000F9D108BD18000020704710B5FEF724F990
:102BF00010BD000000B59BB038210DA8FDF71EFBED
:102C0000142108A8FDF71AFB20216846FDF716FBE2
:102C100001200D9000040F900020109001201290D0
:102C200000200E9002201590C1031691C104179147
:102C3000002018900DA8FEF757FC08B1FDF757FBD0
:102C40000F2008900220099000200A904FF4806025
:102C50000B9000200C90012108A8FEF7C7FA08B1DC
:102C6000FDF745FB10200090800407906846FEF7B2
:102C7000B5F908B1FDF73BFB0120024908671BB01D
:102C800000BD0000000042421448006840F001000E
:102C90001249086008464068114908400F494860D9
:102CA000084600680F4908400C490860084600685B
:102CB00020F4802008600846406820F4FE00486048
:102CC0000846006820F0A05008604FF47F0088603C
:102CD0000020C862C8030449086070470010024021
:102CE0000000FFF0FFFFF6FE08ED00E070B50546BE
:102CF0006C6A0020E085E0842046FEF7C5FE70BDCA
:102D00000168C96821F490710268D160016849695D
:102D100021F0010102685161202180F83A107047CA
:102D200010B504462068C06820F040002168C860E3
:102D3000202084F839002046FFF70BF8002010BD52
:102D400070B5044694F83A0022284AD1A068B0F53C
:102D5000805F13D1A56A206940B920684068C0F33C
:102D600008002880A06A801CA06219E020684068E2
:102D7000C0B22880A06A401CA06211E0206938B966
:102D800020684068C1B2A26A501CA062117007E0BE
:102D90002068406800F07F01A26A501CA062117098
:102DA000E08D401E80B2E085C8B92068C06820F080
:102DB00020002168C8602068C06820F48070216805
:102DC000C8602068406920F0010021684861202027
:102DD00084F83A002046FEF78FFF002070BD0020E7
:102DE000FCE70220FAE7000070B504462168096993
:102DF00021F44051E2681143226811612269A168FF
:102E00001143626941EA02052168C96841F20C6216
:102E1000914329432268D1602168496921F44071B6
:102E2000A269114322685161564A2168914254D1E6
:102E3000FEF7B8FA00EBC00101EB001162689200E6
:102E4000B1FBF2F100EBC00202EB001263689B00E1
:102E5000B2FBF3F26423B2FBF3F202EBC20303EB27
:102E60000212A1EB8201322202EB01116422B1FBBA
:102E7000F2F101F0F00100EBC00202EB0012636816
:102E80009B00B2FBF3F26423B2FBF3F201EB0212FC
:102E900000EBC00101EB001163689B00B1FBF3F193
:102EA00000EBC00303EB00136668B600B3FBF6F358
:102EB0006426B3FBF6F303EBC30606EB0313A1EBA7
:102EC0008301322303EB01116423B1FBF3F101F021
:102ED0000F0111442268916053E0FEF753FA00EBB2
:102EE000C00101EB001162689200B1FBF2F100EB4E
:102EF000C00202EB001263689B00B2FBF3F2642392
:102F0000B2FBF3F202EBC20303EB0212A1EB82016C
:102F1000322202EB01116422B1FBF2F101F0F00167
:102F200000EBC00202EB001263689B00B2FBF3F2FD
:102F30006423B2FBF3F201EB021200EBC00101EBE0
:102F4000001163689B00B1FBF3F100EBC00303EBDE
:102F500000136668B600B3FBF6F36426B3FBF6F322
:102F600003EBC30606EB0313A1EB8301322303EB50
:102F700001116423B1FBF3F101F00F011144226848
:102F8000916070BD00380140014691F83900212858
:102F90002CD18868B0F5805F0FD10A6A1088C0F321
:102FA00008000B685860086918B9086A801C086234
:102FB00009E0086A401C086205E00B6A581C0862B8
:102FC00018780B685860C88C401E80B2C88458B905
:102FD0000868C06820F080000B68D8600868C06886
:102FE00040F040000B68D860002070470220FCE7EA
:102FF00010B50248FEF74AFD10BD00006C0000202D
:1030000070B506460D46304600F001F904464FF60D
:10301000FF70844207D045F4004104F00F0206F52A
:10302000607040F82210E0B270BD70B504460D46E5
:103030002946204600F02CFF002070BD70B50446E4
:103040000D46A078012807D1022121740121617465
:1030500000216182A582E18200221146204600F013
:1030600016F870BD2DE9FF4107460C4615461E4671
:103070000020012103460A468DE8320003903146C4
:10308000384601F014F8002004B0BDE8F0812DE9C5
:10309000F04104460E4617460125A078012802D0CB
:1030A000022820D107E0A660A78101212176022015
:1030B000A070012518E0204600F002FD05462DB95C
:1030C0000120A0700021217600250BE0032D04D102
:1030D0000120A0700021217604E0022D02D1012000
:1030E000A07000BF00E000BF00BF2846BDE8F0812F
:1030F0002DE9FF4104460D4617461E46DDF828809F
:1031000094F81D0308B14FF00008012000231A466F
:1031100031468DE8A101204600F0C9FF002004B02F
:10312000BDE8F0817FB506460C4615460020082113
:10313000CDE9000403460246CDE902102946304697
:1031400000F0B5FF002004B070BD10B50446204665
:10315000FDF7A2F910BDF0B506460C461546002253
:10316000002106F236371AE002EB820000EBC20CB7
:1031700007F10A0000EB4C014879A04201D0FF2C76
:103180000BD18879A84201D0FF2D06D1C879984289
:1031900001D0FF2B01D11046F0BD501CC2B2022A53
:1031A000E2D3FF20F8E702460B2909D202F560704E
:1031B00030F82100C0F30E0302F5607040F82130B2
:1031C000002070472DE9F04104460E4615461F4683
:1031D000DDF81880A078012812D146F08001217412
:1031E00006216174658205F47F40B0F5407F03D10C
:1031F00040F20941A18201E00021A182A4F81680D9
:10320000424639462046FFF742FFBDE8F0810246BC
:10321000002100BF0AE002F5607030F8210000F4E0
:10322000004008B908467047481CC1B20B29F2D3C8
:103230004FF6FF70F7E710B502460B881478234469
:103240000B801378981810BDF8B504460D4604F1AC
:103250001C0633464FF40072002120460095FFF70C
:10326000B1FF071E05D12A46314604F2363000F080
:1032700053FF3846F8BDF8B504460D4604F58E7385
:103280004FF48072002120460095FFF79BFF061E39
:1032900006D12A4604F58E7104F5497000F0A9FFA5
:1032A0003046F8BD2DE9F84304460E4617461D4644
:1032B00046F4407204F58E73002120460095FFF716
:1032C00081FFB0F1000805D12A46394604F58E7019
:1032D00000F0DEFF4046BDE8F8830146002031B132
:1032E000012906D0022906D0032908D105E00020D3
:1032F00007E0022005E0012003E0022001E00220B7
:1033000000BF00BF70472DE9F041054601270126A7
:10331000D5F87803C4696079062838D2DFE800F070
:10332000033812041A2900BF0921284600F0C7F803
:1033300038B905F58E7104F1260000F0F9FA022083
:10334000607126E0E18D284600F0C8F808B9042035
:1033500060711EE000221146284600F087FB0646F9
:1033600016B90520607103E0032E01D105206071BC
:103370000FE00021284600F08DFB38B90120607174
:1033800002212846D5F8CC239047002701E000BF52
:1033900000BF00BF3846BDE8F0817047002383803E
:1033A000C380837202810160704770B503460C468A
:1033B0002546987AF0B901209872002118E0D88843
:1033C0009E88B0420ED0DE881868805D05F8010B3B
:1033D000D888401CD880D8881E89B04206D10020E9
:1033E000D88003E000209872084670BD481C81B266
:1033F0009142E4DB002098721046F6E7F0B50346F0
:103400000C462546987A28BB0120987200211FE0BF
:103410009888401CDE88B04206D09888401C1E89DF
:10342000B04205D1D88818B9002098720846F0BD7E
:1034300015F8010B9F881E68F0559888401C9880ED
:1034400098881E89B04201D100209880481C81B222
:103450009142DDDB002098721046E8E701468A7849
:10346000012A01D08A792AB14A7A054B9A5C054B28
:10347000985C04E04A7A024B9A5C034B985C704774
:103480002C530008AA5200082852000810B5014623
:10349000FF200B780B2B11D191F8223303EB83041F
:1034A00004EBC30401F5507303EB4403DA79012AFA
:1034B00001D1022002E0022A00D1012010BDF8B59E
:1034C00004460D4604F58E734FF404520121204644
:1034D0000095FFF777FE06463046F8BDF8B504467E
:1034E0000D4604F58E734FF40852012120460095D5
:1034F000FFF768FE06463046F8BD000010B50446EA
:10350000204600F049F908B9014810BD0020FCE749
:103510006C0800202DE9F04104460D4616461F4672
:10352000DDF81880A12121740121617446EA05218A
:1035300061820021A182A4F81680424639462046C5
:10354000FFF7A5FDBDE8F08170B50546D5F8780315
:10355000C469607848B161782846FFF766FD6178F4
:103560002846FFF720FE00206070207848B12178BF
:103570002846FFF75AFD21782846FFF714FE002061
:103580002070D5F87803C06940B1D5F87813C869C0
:1035900001F0CCFC0020D5F87813C861002070BD84
:1035A0002DE9FE4305460027D5F878030179FF236E
:1035B00001222846FFF7CFFD0646FF2E01D0022E3E
:1035C00004D300BF00BF0220BDE8FE833146284679
:1035D00000F0C0FF8046B8F1000F01D00220F3E7F1
:1035E000342001F04FFDD5F87813C861D5F8780381
:1035F000C4691CB900BF00BF0220E5E734212046A2
:10360000FCF71CFE0720A07006EB860000EBC6014D
:1036100005F5507000EB4100C079012804D100BFCE
:1036200000BF5B48206313E006EB860000EBC60199
:1036300005F5507000EB4100C079022804D100BFAD
:1036400000BF5448206303E000BF00BF0220BBE777
:103650000020A070607106EB860000EBC60105F546
:10366000507000EB4100007BA07606EB860000EB7B
:10367000C60105F5507000EB4100C089208306EBC0
:10368000860000EBC60105F5507000EB4100007CA0
:10369000A083A08B0A2801D20A20A08306EB860013
:1036A00000EBC60105F5507000EB410000790228DF
:1036B00009D806EB860000EBC60105F5507000EB5B
:1036C0004100007900E00220814600275BE006EB24
:1036D000860000EBC60105F5507000EB41000A3092
:1036E00000EBC700807800F0800028B306EB86006E
:1036F00000EBC60105F5507000EB41000A3000EB0D
:10370000C7008078207121792846FFF779FC607026
:10371000208B032295F81D13CDE90012029095F835
:103720001C3322796178284600F0E1FC61780022A0
:10373000284600F081FC24E006EB860000EBC60181
:1037400005F5507000EB41000A3000EBC7008078AF
:10375000E070E1782846FFF753FC2070208B0322AD
:1037600095F81D13CDE90012029095F81C33E2780C
:103770002178284600F0BBFC21780022284600F082
:103780005BFC781CC7B24F45A1DB00201CE70000A2
:103790006D380008D138000870B50646D6F87803B1
:1037A000C569288B08B9022070BD2A8B244905F110
:1037B0000800FFF7FAFD298B88423FD100212148FC
:1037C000FFF7F2F82049487000212048FFF7ECF895
:1037D0001D49887000211E48FFF7E6F81A49C87095
:1037E00000211C48FFF7E0F81749087100211A482A
:1037F000FFF7DAF81449487100211848FFF7D4F8A8
:103800001149887100211648FFF7CEF80E49C8719A
:1038100000211448FFF7C8F80B490872002409E09A
:1038200021461148FFF7C0F8C1B2074809300155D9
:10383000601CC4B2062CF3D30020B5E70220B3E726
:1038400044000020085100086C080020285100089E
:10385000485100086851000888510008A851000824
:10386000C8510008E85100080852000870B5064623
:10387000D6F87803C569002012498870487008712D
:10388000C870887148710872C871002407E0002070
:103890000D4941F824000D4941F82400641C022C14
:1038A000F5D3288B082801D90820288307486861A8
:1038B000502206F58E7105F10800FFF76FFD00201C
:1038C00070BD00006C080020440000203C00002077
:1038D00070B50646D6F87803C5690020114908700E
:1038E0004870887000210F48C1700171002407E002
:1038F00000200D4941F824000C4941F82400641CC3
:10390000022CF5D3288B082801D9082028830748E2
:103910006861502206F58E7105F10800FFF73EFD43
:10392000002070BD4C000020540000205C000020EE
:103930000A7802704A7842708B78CA7843EA022289
:1039400042800A7902714A7942718A798271CB790F
:103950000A7A43EA022202817047F8B5054600263A
:10396000D5F87803C469A078072869D2DFE800F0A9
:10397000040A68682F273E002846216B88470120EB
:10398000A0705EE0207E009000220121284663693D
:10399000FFF7C0FD064616B90520A0700EE0012E07
:1039A00003D10120A070002608E0032E03D10520DA
:1039B000A070002602E00720A070022641E0D5F8A2
:1039C000C00300F0010008B10420A07039E0637862
:1039D000227E2846616900F046FA0620A070D5F8DC
:1039E000C0032062002084F824002AE06178284681
:1039F00000F0B3FA012815D16178284600F08CFA5E
:103A0000074694F82400D0B9CFB1228B04F1080006
:103A10006169FFF7F3FC012084F824002846FFF7D2
:103A2000BCFC0CE06178284600F097FA052806D126
:103A3000A17E2846FFF702FB08B90420A07000E031
:103A400000BF00BF3046F8BD0246D2F87803C16916
:103A50008878062808D1D2F8C0030B6AC01A8B8B6D
:103A6000984201D3042088700020704770B5044646
:103A70000D461646212121740A21617446EA05216A
:103A800061820021A182E182002211462046FFF7D7
:103A9000FEFA70BD70B504460D46212121740B213C
:103AA000617415B10021618201E001216182002170
:103AB000A182E182002211462046FFF7E8FA70BD9C
:103AC000F8B5044601270025207E0C286FD2DFE8D8
:103AD00000F0D5060F323E505E7A869AA8BD627914
:103AE00004F110012046FFF71DFB02212176C6E0FC
:103AF0006179204600F031FA0546012D14D1207C71
:103B000000F08006E08A38B1802E02D103212176B0
:103B100010E0052121760DE0802E02D109212176C9
:103B200008E00721217605E0042D01D0022D01D106
:103B30000B212176A3E0D4F8C003E0812379A28988
:103B40002046A168FFF78EFA0421217697E02179BB
:103B5000204600F002FA0546012D01D10921217607
:103B6000052D01D1032703E0042D01D10B2121767E
:103B700085E0012000906379A2892046A168FFF7C3
:103B8000B7FAD4F8C003E0810621217677E06179A5
:103B9000204600F0E2F90546012D02D107212176E9
:103BA00010E0052D04D10C21217603270AE065E001
:103BB000022D02D10521217604E0042D02D10B2132
:103BC000217602275BE02379002211462046FFF789
:103BD00049FAD4F8C003E081082121764FE0217929
:103BE000204600F0BAF90546012D03D10D212176BA
:103BF000002707E0042D02D10B21217602E0052DDC
:103C000000D103273BE00120009063790022114698
:103C10002046FFF76DFAD4F8C003E0810A2121762F
:103C20002DE06179204600F098F90546012D03D179
:103C300000270D21217608E0022D02D109212176ED
:103C400003E0042D01D10B21217618E0607E401C99
:103C5000C1B26176022904D8012121760120A07029
:103C60000BE006212046D4F8CC2390470021617652
:103C700000BF00BF00202070022700E000BF00BF8F
:103C80003846F8BD3EB5044601256078082873D251
:103C9000DFE800F0042A36616973899F0821204615
:103CA000FFF7E9FAF8B994F82B13A17101206070BD
:103CB000A079002294F81D13CDE90012029094F827
:103CC0001C3321798022204600F011FAA0790022CD
:103CD00094F81D13CDE90012029094F81C33617919
:103CE000204600F004FA89E012212046FFF7C3FACB
:103CF00028B900BF00BF00BF00BF022060707DE098
:103D00000121204600F03AFC20BB0220FFF71DFAFB
:103D1000012184F81C1300BF00BF03206070A0794C
:103D2000002294F81D13CDE90012029094F81C3380
:103D300021798022204600F0DAF9A079002294F857
:103D40001D13CDE90012029094F81C3361792046CE
:103D500000F0CDF952E009212046FFF775FA08B9C5
:103D6000042060704AE0B4F838132046FFF76CFA7C
:103D700008B90520607041E03FE094F8320368B173
:103D800094F83213FF2304F58E722046FFF78AFA67
:103D900040B900BF00BF0620607003E000BF00BF55
:103DA000062060702AE094F8330368B194F8331366
:103DB000FF2304F58E722046FFF774FA40B900BF66
:103DC00000BF0720607003E000BF00BF07206070E5
:103DD00014E094F8340360B194F83413FF2304F52D
:103DE0008E722046FFF75EFA30B900BF00BF002593
:103DF00002E000BF00BF002500E000BF00BF284672
:103E00003EBD10B5044620780B2807D1D4F87803BE
:103E100020B1D4F8780381692046884710BD70B579
:103E200004460D4616461CB900BF00BF022070BDF7
:103E300084F8C4630020C4F87803C4F87C032046E7
:103E4000FCF72AFA002184F8211384F81E1384F861
:103E50001F1384F820130DB1C4F8CC53204600F092
:103E600091F80020E3E72DE9FF4107460C4615468F
:103E70001E460020012103230A468DE832000390EC
:103E80003146384600F013F9002004B0BDE8F08157
:103E90002DE9F04104460D46002600272946D4F8B6
:103EA000C803FCF7D6FC06463046FFF716FA07466D
:103EB0003846BDE8F0810146012281F81E23002228
:103EC00081F81F2381F820230020704710B5044695
:103ED000012184F81F13002184F81E1384F8211394
:103EE000204600F0D5F821792046FFF75CF961798A
:103EF0002046FFF758F9002010BD70B505460C4666
:103F000095F8C403012802D12046FEF7B3FDC8206E
:103F1000FCF7C2FA002070BD70B504460D46294674
:103F2000D4F8C803FCF78CFC70BD70B504460125BD
:103F3000D4F8C803FCF774FC20B1012804D002288F
:103F400006D103E0002505E0012503E0022501E09C
:103F5000012500BF00BF284670BD70B504460D4660
:103F60002946D4F8C803FCF761FC70BD10B50446BF
:103F7000D4F8C003401CC4F8C0032046FFF741FF3B
:103F800010BD000070B5044694F8C40301281CD18C
:103F90000F48C0F8C042C4F8C8034FF0A0400C4915
:103FA000086008210A4881600121C1600021C161C7
:103FB000FCF7A5FE08B1FCF79AF90548FCF72AFCC6
:103FC00005462946204600F034F8002070BD000068
:103FD000A80500202DE9FF5F04460D4616461F4642
:103FE000DDE90F9ADDF838804FF0000B00200390D8
:103FF0008DE800073B4632462946D4F8C803FCF753
:1040000042FC83465846FFF768F90390039804B0D2
:10401000BDE8F09F70B5044600250026D4F8C8031B
:10402000FCF7CAFE05462846FFF757F90646304614
:1040300070BDC0F8C013704730B50446D4F8C8331B
:1040400001EB810503F1380000EBC500C07838B101
:1040500001EB810503F1380000EBC500027606E0B4
:1040600001EB810503F1380000EBC500427600202A
:1040700030BD70B5044600250026D4F8C803FCF70F
:10408000A8FE05462846FFF728F90646304670BDCB
:1040900070B5044600250026D4F8C803FCF7B4FE2A
:1040A00005462846FFF719F90646304670BD2DE94A
:1040B000F04F87B004460D4616461F46DDE912ABA9
:1040C000DDE910890020069005908DE8000F3B4641
:1040D00032462946D4F8C803FCF745FC06900698FA
:1040E000FFF7FBF80590059807B0BDE8F08F2DE9C4
:1040F000FE4F04460D4616461F46DDE90D9ADDF8D3
:1041000030803B463246294620468DE80007FFF7BF
:1041100061FF0020BDE8FE8F2DE9F84F04460E46F2
:10412000934635464FF00008C14600BF30782070F6
:1041300070786070B178F07841EA00206080307962
:10414000207170796071B079A071F079E071307A86
:104150002072BBF1090F4AD90920009000273EE0E8
:1041600069462846FFF767F805466878042836D17F
:1041700008EB880000EBC80104F10A0000EB4107DE
:104180002946384600F071F84FF00009CA461AE097
:1041900069462846FFF74FF805466878052812D18A
:1041A00008EB880000EBC80104F10A0000EB4100B5
:1041B0000A3000EBC90A2946504600F046F809F1DA
:1041C000010000F0FF093879484504DD6088BDF83A
:1041D00000108842DCDC08F1010000F0FF08B8F1B3
:1041E000020F04D26088BDF800108842B8DCBDE838
:1041F000F88F10B50B7803704B7843708C78CB78C0
:1042000044EA032343800B7903714B7943718B7923
:104210008371CB79C371082A16D90C7A4B7A44EA98
:10422000032303818C7ACB7A44EA032343810C7BFA
:104230004B7B44EA032383818B7B8373CB7BC373E8
:104240000B7C03744B7C437410BD0A7802704A786F
:1042500042708A788270CA78C2700B794A7943EAD0
:10426000022282808A79827170470A7802704A78C5
:1042700042708A788270CA78C2700A7902714A796B
:1042800042718A798271CA79C2710A7A0272704760
:1042900030B513464578032D14D10578AD1E9D42E7
:1042A00002D80578AD1E00E01D46ACB2801C00228D
:1042B00004E0855C0D70491C951CAAB2A242F8DB93
:1042C00000250D7030BD7FB5044602200390002507
:1042D00094F81F03012801D10320207020780E28B4
:1042E00076D2DFE800F007151DEC7555CC6A7681B3
:1042F00093E375FE94F81E0348B100BF00BF012090
:104300002070C820FEF721FF2046FFF783FE04E15E
:10431000012184F8211300BF00BF02202070FCE0BF
:10432000D4F8CC0320B104212046D4F8CC23904704
:104330006420FEF70AFF2046FFF7F7FD84F81D030F
:104340000520207000212046FEF75AFE6071802172
:104350002046FEF755FE2071A079002294F81D1327
:10436000CDE90012029094F81C3321798022204676
:10437000FFF7BDFEA079002294F81D13CDE90012CD
:10438000029094F81C3361792046FFF7B0FEC4E038
:104390002046FFF777FC78B900BF00BF002184F802
:1043A000221394F83503012804D100BF00BF082070
:1043B000207001E007202070AFE0D4F8CC0330B1CA
:1043C00001212046D4F8CC23904708202070A4E097
:1043D000A1E094F83B13204600F0E4F818B9092056
:1043E000207000BF00BF98E094F83D0300F020006B
:1043F00048B10121204600F0E9F830B900BF00BF04
:104400000A20207001E00A20207086E0D4F87C03A6
:1044100008B900BF32E00020C4F87803002510E09E
:1044200004F55D7050F82500017994F84503814248
:1044300005D104F55D7050F82500C4F87803681CB8
:10444000C5B2002DECD0D4F8780398B1D4F8780335
:1044500081682046884748B90620207000BF00BF09
:1044600003212046D4F8CC23904707E00D2020708C
:1044700000BF03E00D20207000BF00BF4DE0D4F866
:10448000780358B1D4F8780301692046884703902F
:104490009DF80C0030B90B20207003E00D20207037
:1044A00000BF00BFC820FEF750FE36E0D4F8780306
:1044B00020B1D4F878034169204688472DE00021D7
:1044C00084F81F132046FBF7E7FED4F8780338B1D1
:1044D000D4F87803C168204688470020C4F87803E0
:1044E00000E019E0D4F8CC0320B105212046D4F82F
:1044F000CC23904700BF00BF94F82003012806D1C9
:10450000002184F82013204600F074F802E02046D1
:10451000FFF7AFFD01E000BF00BF00BF002004B007
:1045200070BD10B50246002081B1D2F87C334BB982
:10453000D2F87C43631CC2F87C3302F55D7343F808
:10454000241006E000BF00BF022002E000BF00BF51
:10455000022010BD0246002092F83A338B4209DD5A
:1045600082F8221300BF00BF00BF00BF00BF00BF22
:1045700000BF02E000BF00BF0220704770B50446D4
:104580000D46A078012807D100212174052161740E
:1045900065820021A182E182002211462046FEF7B9
:1045A00076FD70BD70B504460D46A078012807D190
:1045B000002121740921617465820021A182E182B8
:1045C000002211462046FEF762FD70BD70B504461C
:1045D0000D46A078012807D10021217403216174C0
:1045E00065820021A182E182002211462046FEF769
:1045F0004EFD70BD10B504462046FFF73AFD01217F
:104600002046FFF77AFC002010BD0000012906D0EB
:10461000022909D004290BD005290DD100E00CE0B6
:104620000322074B1A7008E00222054B1A7004E0BF
:104630000122034B1A7000E000BF00BF704700006A
:10464000040000200FB470B504460A98012817D161
:10465000A06B20F48030A063E06811490840E0605E
:10466000E06820F44010E0601198012803D1E06870
:1046700040F48010E060204600F014F805460BE09E
:10468000E06840F04000E060204600F00BF805468E
:10469000A06B40F48030A063284670BC5DF814FB2A
:1046A000BFFFBDFF0146002200BF501C02460F4B5A
:1046B000984201D903207047086900F000400028A3
:1046C000F3D00022086940F00100086100BF501CCF
:1046D0000246064B984201D90320ECE7086900F036
:1046E00001000028F3D100BFE5E70000400D030002
:1046F0000146886820F0010088600020704708B5F6
:104700000246134600200090D3F840040090009821
:1047100020F02E000090009800F4805030B901295C
:1047200004D1009840F48050C3F84004009800F48D
:104730008050B0F5805F05D121B9009820F48050F9
:10474000C3F84004002008BD0146886840F001001D
:104750008860002070470000014600221020086198
:1047600000BF501C0246064B984201D903207047F7
:10477000086900F010001028F3D00020F7E70000CF
:10478000400D030010B502460023202040EA8110AE
:10479000106100BF581C0346054CA04201D90320FC
:1047A00010BD106900F020002028F3D00020F7E7AA
:1047B000400D030001460A464FF48160805880B2E4
:1047C000704708B501460A4600200090D2F8400420
:1047D00000900098C0F3414008BD0146486900F0D0
:1047E00001007047F0B503460C461A4621460025E5
:1047F00002F5A06000EB41100068C0F381460EB1E5
:10480000022E53D102F5A06000EB4110006840F089
:10481000804702F5A06000EB41100760D86A00F401
:104820007F00A8BB02F5A06000EB4110006820F0FB
:10483000004702F5A06000EB4110076002F5A060A0
:1048400000EB4110006840F0004702F5A06000EB6B
:104850004110076002F5A06000EB4110006820F4F1
:10486000004702F5A06000EB4110076000BF681C24
:104870000546B0F57A7F00D909E002F5A06000EBAB
:104880004110006800F00040B0F1004FEFD062E04E
:10489000FFE702F5A06000EB4110006840F0004720
:1048A00002F5A06000EB4110076054E002F5A06043
:1048B00000EB4110006840F0804702F5A06000EB7B
:1048C000411007604FF48260805800F47F00A8BB5D
:1048D00002F5A06000EB4110006820F0004702F5EF
:1048E000A06000EB4110076002F5A06000EB4110F2
:1048F000006840F0004702F5A06000EB411007603F
:1049000002F5A06000EB4110006820F4004702F5BA
:10491000A06000EB4110076000BF681C0546B0F5C1
:104920007A7F00D909E002F5A06000EB4110006831
:1049300000F00040B0F1004FEFD00CE0FFE702F5CF
:10494000A06000EB4110006840F0004702F5A06055
:1049500000EB411007600020F0BD2DE9F04F054647
:1049600014469C46DDE90A69DDF8248000202A46C9
:104970004FF0FF3A02F5A06B0BEB411BCBF808A000
:1049800036B1012E3DD0022E03D0032E55D11CE0AE
:1049900000BF40F29D4A02F5A06B0BEB411BCBF828
:1049A0000CA004F0800ABAF1800F0DD102F5A06AC4
:1049B0000AEB411ADAF80CA04AF4807A02F5A06BEF
:1049C0000BEB411BCBF80CA039E040F29D6A02F5DD
:1049D000A06B0BEB411BCBF80CA004F0800ABAF1E2
:1049E000800F0DD102F5A06A0AEB411ADAF80CA08B
:1049F0004AF4807A02F5A06B0BEB411BCBF80CA0BC
:104A00001DE040F2252A02F5A06B0BEB411BCBF811
:104A10000CA004F0800ABAF1800F0DD102F5A06A53
:104A20000AEB411ADAF80CA04AF4C07A02F5A06B3E
:104A30000BEB411BCBF80CA001E0012000BF00BF35
:104A4000D2F818A401F00F0E4FF0010B0BFA0EFB79
:104A50004AEA0B0AC2F818A4D5F818A04AF0007A5E
:104A6000C5F818A004F0800ABAF1800F02D14FF403
:104A7000004300E00023B8F1020F02D14FF40037E9
:104A800000E000274FF0FE5A0AEA8C5A4FF4F04B30
:104A90000BEAC42B4AEA0B0A4FF4402B0BEA864B75
:104AA0004AEA0B0AC9F30A0B4AEA0B0A4AEA030A62
:104AB0004AEA070A02F5A06B0BEB411BCBF800A0FA
:104AC000032E0DD102F5A06A0AEB411ADAF800A014
:104AD0004AF0005A02F5A06B0BEB411BCBF800A08B
:104AE000BDE8F08F01460A4640F21440805880B27B
:104AF000704700002DE9F04F07460C463E466578AA
:104B00004FF4807A206978B1218920690844401ED9
:104B1000B0FBF1F01FFA80F8D04507DDD0462089C0
:104B200000FB08F0206101E04FF00108E07818B1C7
:104B3000208900FB08F020612069C0F3120046497B
:104B400001EAC8410843A17A4FF0C04202EA41712C
:104B5000084306F5A06101EB451108614FF481603F
:104B6000805900F0010080F0010B06F5A06000EB19
:104B70004510006820F0005106F5A06000EB4510DC
:104B8000016006F5A06000EB4510006840EA4B713B
:104B900006F5A06000EB4510016006F5A06000EB93
:104BA000451000682D4908600846006820F08040E4
:104BB0000860E07828B10846006840F400400860CA
:104BC00005E02648006820F4004024490860234896
:104BD000006840F00040214908600846016806F579
:104BE000A06000EB45100160E07888BB206978B3D5
:104BF000E07930B1012813D0022803D003281ED158
:104C00000DE000BF2069C01CC0F38F09F86A80B2B4
:104C1000484503D2B86940F02000B86110E000BFF9
:104C20002069C01CC0F38F094FF48260805980B2A4
:104C3000484503D2B86940F08060B86100E000BF29
:104C400000BF208A83B262783846E16800F027F915
:104C50000020BDE8F08F00000000F81F08000020D1
:104C60000FB470B5044625460020C5F8000EA06BB1
:104C700020F48020A063A06B20F40020A063D5F86E
:104C8000000420F00400C5F8000410212046FFF7BE
:104C900079FD2046FFF760FD00260DE04FF0FF3163
:104CA00005F5A06000EB46108160002105F5A060CD
:104CB00000EB4610C160761C0698B042EED8012188
:104CC0002046FFF71CFDC820FBF7E6FB0020A06193
:104CD000401E6061802060620848A0620848C4F8F5
:104CE0000001A06940F01000A061A06905490843D7
:104CF000A061002070BC5DF814FB00008000600023
:104D0000E0004000080020A310B502460B46114603
:104D1000D1F8000420F00300C1F80004D1F8000429
:104D200003F003042043C1F80004012B05D14BF626
:104D3000803440F20440445006E0022B04D141F29A
:104D4000707440F204404450002010BD0146486990
:104D50008A6910407047F0B503461E460846D71CC6
:104D6000BD08002405E04FF48057BF590760001DBF
:104D7000641CAC42F7D3F0BD38B50446254600208C
:104D80000090D5F840040090009820F02E0000908C
:104D9000009840F48070C5F840046420FBF77CFB69
:104DA000009820F48070C5F840040A20FBF774FBDB
:104DB000002038BD70B504460D46E06820F0C040C4
:104DC000E060012D04D1E06840F00050E06007E0B1
:104DD00025B9E06840F08040E06001E0012070BD4E
:104DE0003220FBF759FB0020F9E72DE9F041074697
:104DF0003E464FF000083846FFF77AFC102138464F
:104E0000FFF7C0FC3846FFF7A7FC002410E006F5CA
:104E1000A06000EB4410056845F0804525F0004592
:104E200025F4004506F5A06000EB44100560641C05
:104E30000F2CECD9002423E006F5A06000EB441011
:104E4000056845F0804545F0004525F4004506F528
:104E5000A06000EB4410056000BF08F1010080462F
:104E6000B0F57A7F00D909E006F5A06000EB4410A8
:104E7000006800F00040B0F1004FEED000BF641CAD
:104E80000F2CD9D94FF0FF3140F214408151084620
:104E900078613846FFF758FC0020BDE8F0812DE925
:104EA000F0410446A4460D46D81C8708002609E0B8
:104EB0000CF5805000EB0230D5F80080C0F800807F
:104EC0002D1D761CBE42F3D30020BDE8F08100BF4B
:104ED000FEE7000002480068C0F3022070470000AF
:104EE0000CED00E010B5002804DB0A07130E054A9C
:104EF000135406E00A07140E034A00F00F031B1FA9
:104F0000D45410BD00E400E018ED00E002E008C851
:104F1000121F08C1002AFAD170477047002001E033
:104F200001C1121F002AFBD17047000010B50028F4
:104F300021D0114B0022001F196803E0814203D8E1
:104F40000A4649680029F9D152B11368841A9C4273
:104F500004D1006818441060104602E0506000E080
:104F6000186039B102680B1A934203D10B681A44D6
:104F700002604968416010BD64000020FBF768FFD3
:104F8000FDF738FEFDF786FDFDF7E6FDFDF7C8FDF0
:104F90006AE0FDF7FFFD35480078022864D1344807
:104FA000FEF774FA02285FD13148FEF7A7FA3149BB
:104FB000086008460068002856D008460068FEF7DA
:104FC0004DFA0546202D0DDD7F2D0BDA002406E07D
:104FD0002948005D10B92848055502E0641CC82C1A
:104FE000F6DB00BF0A2D01D00D2D3DD10026002497
:104FF00003E0002021490855641C642CF9DBFF20E4
:105000001E490870487081F86300002417E01A48B0
:10501000005D0A2803D01848005D0D2800D110E07B
:105020001548005D202809DD1348005D7F2805DA5A
:105030001148015D114AA01C1154761C641C612C9E
:10504000E5DB00BF002403E000200B490855641C89
:10505000C82CF9DB002E07DD642208490848FCF75C
:105060004CFE1420FBF718FA93E700000400002020
:10507000D801002000000020AC00002074010020B6
:105080006C000020F0B50B30154D20F00701002416
:10509000144A0FE003688B420BD38B4205D95E1A8A
:1050A00043184768C3E9006700E04368136002C023
:1050B00004E0021D10680028ECD12046002802D12F
:1050C000286808B10020F0BD064A07481060074A6A
:1050D000121A22F00702C0E9002401202860D7E755
:1050E0006800002064000020840800208028002040
:1050F0000000000000000000010203040607080988
:105100000000000001020304440000200100000030
:10511000000000000000000001000000000000008E
:105120000100000001000000440000200100000018
:10513000010000000000000001000000000000006D
:1051400001000000010000004400002001000000F8
:10515000020000000000000001000000000000004C
:1051600001000000010000004400002001000000D8
:10517000030000000000000001000000000000002B
:1051800001000000010000004400002001000000B8
:10519000040000000000000001000000000000000A
:1051A0000100000001000000440000200100000098
:1051B00005000000000000000100000000000000E9
:1051C0000100000001000000440000200100000078
:1051D00006000000000000000100000000000000C8
:1051E0000100000001000000440000200100000058
:1051F00007000000000000000100000000000000A7
:10520000010000000100000046000020080000002E
:105210000006000000000000650000000000000023
:105220006500000001000000006031323334353683
:10523000373839302D3D000D0971776572747975F5
:10524000696F705B5D5C006173646667686A6B6C54
:105250003B27000A00007A786376626E6D2C2E2F51
:10526000000000000020000000000000000000001E
:1052700000000000000000000D0000000000000021
:10528000000000373431002F383532302A393633B8
:105290002E2D2B000A00000000000000000000007E
:1052A00000000000000000000000007E21402324D8
:1052B000255E262A28295F2B0000005157455254AD
:1052C0005955494F507B7D7C004153444647484ADD
:1052D0004B4C3A22000A00005A584356424E4D3C6D
:1052E0003E3F000000000000000000000000000041
:1052F00000000000000000000000000000000000AE
:10530000000000000000000000000000000000009D
:10531000000000000000000000000000000000008D
:10532000000000000000000000000000000000007D
:105330001F32302113222324182526273433191A2B
:10534000111420151731122F162E0203040506071B
:1053500008090A0B2B6E0F103D0C0D1B1C1D2A2873
:1053600029013536371E70717273747576777879C6
:105370007A7B7C7D7E4B50554C5156594F54535A35
:105380005F64696A6C5D62675C61665B60656368E7
:105390002D8100000000000000000000000000005F
:1053A00000000000000000000000000000000000FD
:1053B000006B00380000000000000000000000004A
:1053C00000000000000000000000000000000000DD
:1053D00000000000000000000000000000000000CD
:1053E00000000000000000000000000000000000BD
:1053F00000000000000000000000000000000000AD
:105400000000000000000000000000003A2C3C7F7B
:1054100040393E80484944003854000800000020CC
:105420006C0000000C4F0008A45400086C00002021
:10543000146800001C4F000800000000000000007D
:10544000000000000000000010000000010000004B
:105450000024F4001454000803000000A1350008E3
:1054600049350008073300085B390008493A00084D
:10547000000000000000000000000000000000002C
:10548000000000000000000000000000000000001C
:10549000000000000000000000000000000000000C
:0454A0000000000008
:04000005080001519D
:00000001FF
