:020000040800F2
:1000000000200020E52C0008972B00089F2B0008FB
:1000100000000000000000000000000000000000E0
:10002000000000000000000000000000A72B0008F6
:100030000000000000000000B12B0008BB2B0008EE
:10004000352D000800000000352D0008352D000872
:10005000352D0008352D0008352D0008352D0008F8
:1000600000000000CD2B00080D2C0008252C0008F6
:10007000352D0008352D0008352D00080000000042
:10008000352D00080000000000000000352D00089C
:1000900000000000352D0008352D0008352D000822
:1000A000352D0008352D0008352D00083D2C0008A1
:0800B000912C00080000000083
:1000B80010B5064C2378002B07D1054B002B02D036
:1000C800044800E000BF0123237010BD5400002045
:1000D80000000000184B0008044B10B5002B03D09B
:1000E8000349044800E000BF10BDC04600000000FE
:1000F80058000020184B000802B47146490849000E
:10010800095C49008E4402BC7047C046002243087F
:100118008B4274D303098B425FD3030A8B4244D3C7
:10012800030B8B4228D3030C8B420DD3FF22090209
:1001380012BA030C8B4202D31212090265D0030BC8
:100148008B4219D300E0090AC30B8B4201D3CB03BE
:10015800C01A5241830B8B4201D38B03C01A524100
:10016800430B8B4201D34B03C01A5241030B8B4202
:1001780001D30B03C01A5241C30A8B4201D3CB02ED
:10018800C01A5241830A8B4201D38B02C01A5241D2
:10019800430A8B4201D34B02C01A5241030A8B42D5
:1001A80001D30B02C01A5241CDD2C3098B4201D3ED
:1001B800CB01C01A524183098B4201D38B01C01A6B
:1001C800524143098B4201D34B01C01A52410309E2
:1001D8008B4201D30B01C01A5241C3088B4201D391
:1001E800CB00C01A524183088B4201D38B00C01A3E
:1001F800524143088B4201D34B00C01A5241411A65
:1002080000D20146524110467047FFE701B5002071
:1002180000F0F0F802BDC0460029F7D076E7704735
:1002280003460B437FD4002243088B4274D303094F
:100238008B425FD3030A8B4244D3030B8B4228D3F0
:10024800030C8B420DD3FF22090212BA030C8B4216
:1002580002D31212090265D0030B8B4219D300E0B6
:10026800090AC30B8B4201D3CB03C01A5241830B3B
:100278008B4201D38B03C01A5241430B8B4201D3EB
:100288004B03C01A5241030B8B4201D30B03C01A14
:100298005241C30A8B4201D3CB02C01A5241830A8E
:1002A8008B4201D38B02C01A5241430A8B4201D3BD
:1002B8004B02C01A5241030A8B4201D30B02C01AE7
:1002C8005241CDD2C3098B4201D3CB01C01A52414E
:1002D80083098B4201D38B01C01A524143098B42D7
:1002E80001D34B01C01A524103098B4201D30B01C0
:1002F800C01A5241C3088B4201D3CB00C01A5241E5
:1003080083088B4201D38B00C01A524143088B42A9
:1003180001D34B00C01A5241411A00D20146524142
:10032800104670475DE0CA0F00D04942031000D361
:100338004042534000229C4603098B422DD3030AB6
:100348008B4212D3FC22890112BA030A8B420CD3C6
:10035800890192118B4208D3890192118B4204D3EF
:1003680089013AD0921100E08909C3098B4201D36F
:10037800CB01C01A524183098B4201D38B01C01AA9
:10038800524143098B4201D34B01C01A5241030920
:100398008B4201D30B01C01A5241C3088B4201D3CF
:1003A800CB00C01A524183088B4201D38B00C01A7C
:1003B8005241D9D243088B4201D34B00C01A524153
:1003C800411A00D20146634652415B10104601D3E0
:1003D8004042002B00D54942704763465B1000D36A
:1003E800404201B5002000F005F802BD0029F8D010
:1003F80016E770477047C04603008218934200D141
:10040800704719700133F9E770B500260C4C0D4D93
:10041800641BA410A64209D1002604F079FB0A4CFB
:100428000A4D641BA410A64205D170BDB300EB5859
:1004380098470136EEE7B300EB5898470136F2E7E4
:100448002C4C00082C4C0008304C00082C4C0008A0
:1004580070470000094A82B013680193019B431C4E
:10046800591E8B41C01880235B02002801D102B0BD
:10047800704711681942FCD00138F6E710E000E037
:10048800F7B5020000260C682000F04000D1FEBD40
:1004980001202300B0400340044233D048680324BD
:1004A8000090180058434443009DE443013D012D4A
:1004B8000BD88D689768454327403D43CF689560C2
:1004C8005F4355689D433D4355600D69D768454373
:1004D80027403D43D560009D022D0DD14D69019502
:1004E800FF2B11D805000F2745436F43136ABB4301
:1004F800019F6F433B43136213682340009C604392
:10050800034313600136BEE70F271B0A5B435B43B7
:100518005F43556ABD43019F5F433D435562EBE727
:1005280010B5174C0368A0420AD0164A904207D06B
:10053800154A904209D1154A1A40CB6813430AE07C
:10054800702293434A681343F5E7114A9042F2D068
:10055800104A9042EFD003608B68C3620B888362B5
:10056800A04205D00A4B984202D00A4B984201D1CA
:100578000B6903630123426913434361002010BDE3
:10058800002C01400004004000200040FFFCFFFF59
:100598000044014000480140802370B55B01994246
:1005A80000D1DFE00BD8102900D16DE080235B007B
:1005B800994200D1A0E0012932D0012070BD8023EA
:1005C8005B02994200D1F5E080235B039942F4D1A4
:1005D800036A8C4D8C492B400362046A436D0B40BF
:1005E800116809021943894B1C4013691B052343F1
:1005F80054682B4024052343854CA04205D0854CE4
:10060800A04202D0844CA04206D145689469834E2A
:10061800A40235402C434460D2684165C26530E08D
:10062800036A7F4E8B430362036A446885693540D9
:10063800166835430226B343166933438B43516822
:100648000B437349884205D07249884202D07249E7
:10065800884212D108218B43516989001943042328
:10066800994393689B000B436E4921409469214349
:100678006D4C2140D46964000C43D26844608561A4
:1006880042630362002099E7036A684C8B43036264
:10069800066A436885692540146824022C4320258E
:1006A800AE4315692D0135438D43290055682D0149
:1006B8000D435749884205D05649884202D05649C9
:1006C800884213D180218D435169890129434025EE
:1006D800A9439568AD010D4355490B4091698900BF
:1006E8001943544B1940D369DB000B434360D3686B
:1006F800846183630562C5E7036A4A4E484933400B
:100708000362056A4368C4690C4011680C43464992
:100718000D40116909022943556831402D020D43E6
:100728003B49884205D03B49884202D03A49884231
:1007380013D140490D405169890229433C4D294054
:100748009568AD020D433C490B4091690901194375
:100758003A4B1940D3695B010B434360D368C461CA
:10076800C363C7E7036A344E304C33400362056AFB
:100778004168C3692340146824021C432F4B1D4061
:1007880013691B032B43556833402D032B43204D1E
:10079800A84205D01F4DA84202D01F4DA84204D13F
:1007A800274D0D40916989012943D2684160C46190
:1007B800026466E7036A234C23400362056A224BFE
:1007C800416D194013681943204B1D4013691B04E0
:1007D8002B43556823402D041D430D4B984205D0EB
:1007E8000C4B984202D00C4B984205D1466893694D
:1007F80034401B0223434360D3684165826D83659F
:1008080078E7C046FFFFEFFFFF8FFFFEFFFFDFFF28
:10081800002C01400044014000480140FFFFFBFF5D
:100828008CFFFEFFFFFEFFFFFFFDFFFFFF8CFFFEBB
:10083800FFFBFFFFFFF7FFFFFFEFFFFFFFDFFFFFFC
:10084800FFBFFFFFFFFFFEFF8FFFFEFFFFFFFDFF64
:10085800F0B5040085B0002802D1012005B0F0BD34
:100868000368DB0710D423689B075CD423681B0745
:1008780000D5C1E023685B0700D5F2E0E369002BEF
:1008880000D079E10020E9E73822AF4DAB6813408A
:10089800EA68102B09D1D3439B0708D12B689B0327
:1008A800E1D56368002BDED1D7E7082BF6D080228C
:1008B80063685202934211D12A6813432B6000F0F7
:1008C800B1FD80270600BF022B683B42CBD100F068
:1008D800A9FD801B6428F7D90320BFE7A021C9021E
:1008E8008B4208D180232968DB020B432B602B68DD
:1008F8001A432A60E3E72A6894490A402A602A686A
:1009080093490A402A60002BD9D100F08BFD80273B
:100918000600BF022B683B42A5D000F083FD801B78
:100928006428F7D9D8E73822874DAB681340EA68BE
:10093800102B28D103210A40022A26D12A68520501
:1009480003D5E268002A00D187E7696862698148AF
:10095800120201400A436A60002B0CD12B687E4AC0
:100968007E491340226913432B602B687C4A9B0401
:100978005B0FDA400A607B4B186800F00BFD00281B
:1009880000D173E769E7002BD8D0E368002B20D0AB
:100998002B68714A802713402269FF0013432B609C
:1009A80080232A685B0013432B6000F03BFD0600A0
:1009B8002B683B4207D06A68636966491B020A4094
:1009C80013436B6052E700F02DFD801B0228EFD91E
:1009D80082E72B68644A802713402B6000F022FDD1
:1009E8000600FF002B683B4200D13FE700F01AFDEC
:1009F800801B0228F6D96FE73822534DAB681340A5
:100A0800182B08D12B6E9B0700D433E7A369002B62
:100A180000D02FE721E7A2690123002A10D02A6E0F
:100A2800022713432B6600F0FDFC06002B6E3B42A9
:100A380000D01FE700F0F6FC801B0228F6D94BE730
:100A48002A6E02279A432A6600F0ECFC06002B6EF9
:100A58003B4200D10EE700F0E5FC801B0228F6D9E6
:100A68003AE73822384DAB681340202B08D1EB6D9C
:100A78009B0700D402E7A368002B00D0FEE6ECE653
:100A880080220021EB6B52050091134208D1EB6BD9
:100A98001343EB63EB6B13400393039B0123009316
:100AA8008027324E7F0033683B4215D0A368012B64
:100AB80022D1EA6D1343EB6500F0B4FC022706006F
:100AC800EB6D3B4238D0009B012B00D0D6E6EB6B98
:100AD800274A1340EB63D1E633683B43336000F0A9
:100AE800A1FC019033683B42E0D100F09BFC019BE4
:100AF800C01A0228F6D9EFE6EA6D052B05D1013BAD
:100B08001343EB65EA6D0123D4E701218A43EA65C3
:100B1800EA6D03318A43EA65002BCDD100F082FCEF
:100B280002270600EB6D3B42CDD000F07BFC114B59
:100B3800801B9842F6D9CFE600F074FC0D4B801B61
:100B48009842BDD9C8E6C04600100240FFFFFEFF2C
:100B5800FFFFFBFFFF80FFFFFFC7FFFF0000002034
:100B68000024F40008000020FFFEFFFF0070004092
:100B7800FFFFFFEF8813000038213F4DAA680A40A5
:100B8800102A51D03D4A022B38D12B6880271340B8
:100B98002B6000F047FC0600BF042B683B4227D1BE
:100BA800616A236AEA680B43354980260A40134381
:100BB800E26AB6041343226B1343A26A1202134378
:100BC800EB6080232A685B0413432B608023EA6868
:100BD8005B051343EB6000F025FC04002B683342EF
:100BE80000D04FE600F01EFC001B0228F6D973E681
:100BF80000F018FC801B0228CFD96DE62B688026F0
:100C080013402B6000F00EFC0400B6042B6833423E
:100C180004D1EB681B4A1340EB6033E600F002FC9A
:100C2800001B0228F2D957E6012B00D115E6032252
:100C3800E868216A02408A4200D00EE67022616AA2
:100C480002408A4200D008E6FE21A26AC90101409A
:100C58001202914200D000E6F822E16A92030240B3
:100C68008A4200D0F9E5236B400F4007C01A431EA3
:100C78009841C0B2F2E5C04600100240FFFFFFFEF7
:100C88008C80C11FFCFFFEEF382370B51D4CA26895
:100C98001A4205D123681C489B045B0FD84070BDDD
:100CA800A2681A40082A27D0A2681A40102A17D129
:100CB800E368E168DB43E5684906490F6F322D0AAE
:100CC800013115409B0709D11048FFF71FFAE16869
:100CD8006843490F0131FFF719FAE0E70A48F4E7DA
:100CE800A2681A40202A09D0A26800201340182BB5
:100CF800D5D1FA20C001D2E70448D0E7802000020D
:100D0800CDE7C046001002400024F40000127A002B
:100D1800F7B504000D00002801D10120FEBD07270A
:100D2800484E33683B408B422AD3226893073BD412
:100D3800D20748D4072733683B40AB420AD9336807
:100D4800BB432B43336000F06DFB019033683B409D
:100D5800AB4268D123683C4D5B076CD4FFF794FF26
:100D6800AB683A491B051B0F9B005B581F210B40C2
:100D7800D840374A374B1060186800F00BFBCDE7B6
:100D88003368BB430B43336000F04CFB019033687E
:100D98003B40AB42C9D000F045FB019BC01A2E4B2B
:100DA8009842F4D90320B9E72749530704D5E0232B
:100DB8008868DB0103438B608B6828480340A06880
:100DC80003438B60B4E760681F4F032829D8FFF7F7
:100DD80093F920021C243B689B039ED50722BB681D
:100DE80093430343BB6000F01DFB01903823BA68AE
:100DF8001A406368DB009A429CD000F013FB019B09
:100E0800C01A154B9842F1D9CCE73B689B01E5D451
:100E180083E73B685B05E1D47FE73B6E9B07DDD446
:100E28007BE7FB6DFAE700F0FDFA019BC01A0A4B5D
:100E380098428BD9B6E7AB68094A1340E268134376
:100E4800AB608BE70020024000100240744B0008A2
:100E5800000000200800002088130000FFF0FFFFBA
:100E6800FF8FFFFFF0B50368050085B000209B03E6
:100E780051D58022484C5205E36B0090134208D1AB
:100E8800E36B1343E363E36B13400393039B012377
:100E980000938027414E7F0033683B43336000F066
:100EA800C1FA019033683B4227D0E26DC02310009D
:100EB8009B0069693A4E18401A4217D0814215D0F2
:100EC8008022E36DE06D190052020243E265E26D93
:100ED800344831400240E265E165DB0706D500F0A1
:100EE800A1FA07000222E36D13424DD0E36D6A694F
:100EF800334013430020E36506E000F093FA019BBA
:100F0800C01A0228CED90320009B012B03D1E36B22
:100F1800254A1340E3632A68D30706D503241E49EC
:100F28004B6DA3436C6823434B65930606D51A495A
:100F38001E4C4B6D2340AC6823434B6553040FD5BF
:100F480015492C694B6D9B009B0823434B658023F7
:100F5800DB059C4204D18023CC685B022343CB6031
:100F680012050FD50C4A124C536DE96823400B4308
:100F780053658023DB01994204D18023D1685B0249
:100F88000B43D36005B0F0BD00F04CFA094BC01B11
:100F98009842A7D9B7E7C046001002400070004049
:100FA800FFFCFFFFFFFFFEFFFFFFFFEFFFCFFFFF8D
:100FB800FF3FFFFF88130000054B064A9B681B058F
:100FC8001B0F9B009B581F221340D8407047C046F8
:100FD80000100240744B0008054B064A9B685B04EE
:100FE8005B0F9B009B581F221340D8407047C04698
:100FF80000100240544B00083821154B10B59A6870
:101008000A40082A22D0102A1AD1D8680D3A10406E
:101018000338424250410F4A404210400E4A80185D
:10102800DA68D968DC68490653045B0E490F013158
:101038005843FFF76BF8610F0131FFF767F810BDF0
:101048001B6805489B045B0FD840F8E70348F6E7A0
:101058000010024000EE85FF0024F40000127A0020
:1010680010B50400FFF7C8FF2060FFF7A5FF606018
:10107800FFF7B2FFA06010BD030010B50020032BDE
:1010880010D1C020114A8002516D0B401843104BFB
:10109800984208D00F4B98420BD00F4B98420DD175
:1010A800FFF7AAFF10BD10680C4B4005C017184089
:1010B800F8E7D06D8007C00FC003F3E7FFF79CFF88
:1010C800FFF77AFFFFF788FFECE7C0460010024001
:1010D8000200030003000300010003000024F400E1
:1010E8000020054B5A69824205DA044A9A60044A8C
:1010F8009A605869C00F7047002002402301674575
:10110800AB89EFCDF8B5040000F08CF98027060014
:101118007F02144D2B693B4216D12A69124B1100EC
:101128001248194028611A4217D18027FF022B69FB
:10113800180038403B420FD0631CF8D000F072F919
:10114800801BA042F3D306E0631CE3D000F06AF9E9
:10115800801BA042DDD30320F8BD054B0120596058
:10116800FAE7C04600200240FA830000FB83000033
:1011780070000020F7B5174E0193337804000D0076
:1011880002200092012B1ED00123FA203370002385
:1011980080007360FFF7B6FF002812D10E4F012CB4
:1011A80012D17B6923437B61009B2B60BFF36F8F58
:1011B800019B6B60FA208000FFF7A4FF7B69A343C3
:1011C8007B6100233370FEBD2800009903F0ACFC5E
:1011D800F0E7C0467000002000200240FA2010B559
:1011E8008000FFF78FFF8022044B120659690A43DB
:1011F8005A615869C043C00F10BDC0460020024064
:10120800044A05485369C90003401943034B0B437B
:10121800536170470020024007E0FFFF0200010011
:10122800F7B5214F05003B7802240191012B1AD014
:101238000123FA203B70002380007B60FFF762FFE8
:10124800041E0ED104236B602B68042B0DD1FA20E9
:10125800164A174B516980000B435361FFF752FF41
:10126800040000233B702000FEBD0123019A5B426D
:101278001360AE68AB68EA689B18B3420CD968681B
:101288003100FFF7BDFFFA208000FFF73BFF002881
:1012980008D00400019B1E600221044A53698B4355
:1012A8005361DEE70136E5E77000002000200240C8
:1012B8000400010010B5114C1149236802000B40CD
:1012C80003432360802300209B009A420ED10D4BDC
:1012D8000D49186806235843FEF718FF8022431C5F
:1012E800D200616908001040114200D110BD002BE6
:1012F80001D0013BF5E70320F8E7C0460070004045
:10130800FFF9FFFF0000002040420F0010B5FF2446
:1013180003220B0021000240D20091409B01234090
:10132800C943934000280ADBC0240B4A8008800088
:101338008018A40002590A401343035110BD0F221C
:1013480010400838054A800880008018C26911409A
:101358001943C161F2E7C04600E100E000ED00E09A
:101368008022431E5204012093420DD2C021074A15
:1013780007485360036A09061B021B0A0B430362F2
:1013880000200723906013607047C04610E000E01B
:1013980000ED00E070B5104B05001978002901D167
:1013A800012070BDFA208000FEF7B0FE0B4C010052
:1013B8002068FEF7ABFEFFF7D3FF041EF0D1032D24
:1013C800EED80200012029004042FFF79FFF044B9E
:1013D80020001D60E5E7C046040000200000002052
:1013E800080000208023084A5B00116810B50B43F1
:1013F80003201360FFF7CEFF041E03D101F04AFC5F
:10140800200010BD0124FBE700200240034A044BE2
:1014180011681B785B1813607047C0468C00002069
:1014280004000020014B18687047C0468C0000205B
:101438007FB50400036801200D00034248D18B6882
:10144800096922680B4369690B43E9690B4327491A
:101458000A40134323606368254A1340EA6813432C
:101468006360A368234A1340AA691343A360224B0D
:101478009C4222D10230FFF7FFFD2B6800281FD0C5
:101488006E68002E1CD00B2B15D81C4A9B0099584F
:10149800FEF73CFE8022E9697308120291421ED1D0
:1014A8004000C0183100FEF731FE154B034000071D
:1014B800400F1843E060002003E0124B9C4209D023
:1014C80001200F21E26A2B688A439BB21343E3622F
:1014D80004B070BD01A8FFF7C3FD0398CDE7310044
:1014E8001818FEF713FE80B2E4E7C046F369FFEF71
:1014F800FFCFFFFFFFFCFFFF00380140B44B00089F
:10150800F0FF00000044004080B586B000AF78606E
:10151800EFF31083BB60BB687B610123FB60FB6852
:1015280083F31088C0467B681B6820221A437B68B7
:101538001A607B693B613B6983F31088C046C046EB
:10154800BD4606B080BD80B586B000AF7860EFF3C9
:101558001083BB60BB687B610123FB60FB6883F37E
:101568001088C0467B681B68102293431A007B686A
:101578001A607B693B613B6983F31088C046C046AB
:10158800BD4606B080BD80B586B000AF7860EFF389
:101598001083BB60BB687B610123FB60FB6883F33E
:1015A8001088C0467B681B68802293431A007B68BA
:1015B8001A607B693B613B6983F31088C046C0466B
:1015C800BD4606B080BD000080B586B000AF78602B
:1015D800EFF31083BB60BB687B610123FB60FB6892
:1015E80083F31088C0467B681B68074A1A407B68EB
:1015F8001A607B693B613B6983F31088C046C0462B
:10160800BD4606B080BDC046FFFFFFFB80B586B073
:1016180000AF7860EFF31083BB60BB687B61012388
:10162800FB60FB6883F31088C0467B689B680122D7
:1016380093431A007B689A607B693B613B6983F33B
:101648001088C046C046BD4606B080BD80B500AF14
:10165800FFF7C8FE00F038F800F0C4F800F01EFAF2
:1016680000F076FC01F014F801F02CF901F0B6FB5B
:10167800134B1800FFF767FF114B1800FFF783FFA4
:101688000F4B1800FFF7A0FF0D4B1800FFF7BEFF28
:101698000B4B1800FFF738FF0A4B1800FFF753FFF2
:1016A800084B1800FFF76FFF064B1800FFF78CFF79
:1016B800044B1800FFF7AAFF01F0CEFBFCE7C04679
:1016C800003801400044004090B593B000AF1424A6
:1016D8003B19180034231A000021FEF78DFE3B1D2C
:1016E800180010231A000021FEF786FE80239B00B5
:1016F8001800FFF7DFFD3B1902221A603B19802210
:101708005200DA6021007B1800221A617B184022FF
:101718005A617B180222DA617B1802221A627B184E
:1017280000225A627B1808229A627B188022920251
:10173800DA627B18802292051A637B181800FFF77B
:1017480087F8031E01D000F019F83B1D07221A6024
:101758003B1D02225A603B1D00229A603B1D00225D
:10176800DA603B1D02211800FFF7D2FA031E01D0F0
:1017780000F004F8C046BD4613B090BD80B500AF78
:1017880072B6C046C046FDE780B582B000AF78604B
:1017980039607B683A689A61C046BD4602B080BD30
:1017A80080B582B000AF786039607B683A689A6229
:1017B800C046BD4602B080BD80B584B000AF786039
:1017C800074B596B064B7A680A435A63044B5B6BA9
:1017D8007A681340FB60FB68C046BD4604B080BD14
:1017E8000010024080B586B000AF3B0018001823F7
:1017F8001A000021FEF700FE0120FFF7DDFF02209E
:10180800FFF7DAFFA023DB0510211800FFF7C8FF58
:10181800A023DB0520211800FFF7C2FFA023DB056A
:1018280080211800FFF7BCFF4C4B01211800FFF77F
:10183800ABFF4A4B02211800FFF7A6FF3B0001222D
:101848001A603B0000225A603B0001221A613A00EC
:10185800A023DB0511001800FEF712FE3B00022250
:101868001A603B0000225A603B0001221A613A00CC
:10187800A023DB0511001800FEF702FE3B00102232
:101888001A603B0001225A603B0000229A603B002C
:101898000022DA603B0000221A613A00A023DB052F
:1018A80011001800FEF7ECFD3B0020221A603B00F7
:1018B80001225A603B0000229A603B000022DA6055
:1018C8003B0000221A613A00A023DB051100180032
:1018D800FEF7D6FD3B0080221A603B0001225A60C9
:1018E8003B0000229A603B000022DA603B000022A5
:1018F8001A613A00A023DB0511001800FEF7C0FDAD
:101908003B0001221A603B0001225A603B00002282
:101918009A603B000022DA603B0001221A613B001A
:101928000E4A19001000FEF7ABFD3B0002221A60B8
:101938003B0001225A603B0000229A603B000022D3
:10194800DA603B0001221A613B00044A19001000CA
:10195800FEF796FDC046BD4606B080BD00040050A7
:1019680080B582B000AF0200FB1D1A70FB1D1B780A
:101978007F2B09D8FB1D1B781A001F231A40044B24
:10198800012191400A001A60C046BD4602B080BDE0
:1019980000E100E090B583B000AF02003960FB1DA4
:1019A8001A70FB1D1B787F2B28D82F4AFB1D1B782C
:1019B8005BB29B08C0339B009B58FA1D127811003C
:1019C80003220A40D200FF2191400A00D2431A4064
:1019D80011003B689B01FF221A40FB1D1B78180071
:1019E80003230340DB009A401F48FB1D1B785BB2B2
:1019F8009B080A43C0339B001A5031E01B4AFB1D69
:101A08001B7819000F230B40083B9B0806339B00EB
:101A1800D31804331B68FA1D1278110003220A40F8
:101A2800D200FF2191400A00D2431A4011003B68BE
:101A38009B01FF221A40FB1D1B781800032303405B
:101A4800DB009A400948FB1D1B781C000F2323402C
:101A5800083B9B080A4306339B00C31804331A60EB
:101A6800C046BD4603B090BD00E100E000ED00E0D7
:101A780080B584B000AF7860074B996B064B7A68E5
:101A88000A439A63044B9B6B7A681340FB60FB68BC
:101A9800C046BD4604B080BD0010024080B500AF0E
:101AA8000120FFF7E5FF00210920FFF773FF092058
:101AB800FFF756FF00210A20FFF76CFF0A20FFF707
:101AC8004FFF00210B20FFF765FF0B20FFF748FFB2
:101AD800C046BD4680BD000080B586B000AFF86046
:101AE800B9607A60FB687B610C4ABB68D3181B78C5
:101AF8001A007B69D3181B68094A13401900074A62
:101B0800BB68D3181B781A007B69D3187A680A4314
:101B18001A60C046BD4606B080BDC046E44B00080A
:101B2800EFBFFFFF80B586B000AFF860B9607A609C
:101B3800FB687B610C4ABB68D3181B781A007B6969
:101B4800D3181B68202293431900074ABB68D3188F
:101B58001B781A007B69D3187A680A431A60C04652
:101B6800BD4606B080BDC046E44B000880B586B0CF
:101B780000AFF860B9607A60FB687B610C4ABB68AB
:101B8800D3181B781A007B69D3181B68402293432B
:101B98001900074ABB68D3181B781A007B69D31849
:101BA8007A680A431A60C046BD4606B080BDC04682
:101BB800E44B000880B586B000AFF860B9607A6081
:101BC800FB687B610C4ABB68D3181B781A007B69D9
:101BD800D3181B68802293431900074ABB68D3189F
:101BE8001B781A007B69D3187A680A431A60C046C2
:101BF800BD4606B080BDC046E44B000880B586B03F
:101C080000AFF860B9607A60FB687B610C4ABB681A
:101C1800D3181B781A007B69D3181B68094A13402C
:101C28001900074ABB68D3181B781A007B69D318B8
:101C38007A680A431A60C046BD4606B080BDC046F1
:101C4800E44B0008FFFCFFFF80B586B000AFF860EA
:101C5800B9607A60FB687B610C4ABB68D3181B7853
:101C68001A007B69D3181B68094A13401900074AF0
:101C7800BB68D3181B781A007B69D3187A680A43A3
:101C88001A60C046BD4606B080BDC046E44B000899
:101C9800FFF3FFFF80B586B000AFF860B9607A60E7
:101CA800FB687B610C4ABB68D3181B781A007B69F8
:101CB800D3181B68094A13401900074ABB68D31890
:101CC8001B781A007B69D3187A680A431A60C046E1
:101CD800BD4606B080BDC046E44B0008FFCFFFFFFD
:101CE80080B586B000AFF860B9607A60FB689B0A7F
:101CF8000F4A5A401300DB009B1A7B61BA687B6964
:101D0800D3189B000B4A944663441B683F229343B5
:101D18001900BA687B69D3189B00064A9446634445
:101D28007A680A431A60C046BD4606B080BDC04600
:101D3800800010000008024080B582B000AF7860D3
:101D48007B681B68802293431A007B681A60C04630
:101D5800BD4602B080BD000080B584B000AF786099
:101D680039603B68012B2CD03B68042B27D03B689B
:101D7800102B22D03B68402B1DD03A6880235B0093
:101D88009A4216D03A688023DB009A420FD03A680C
:101D980080235B019A4208D03A6880235B029A420A
:101DA80001D107230EE008230CE006230AE00523EF
:101DB80008E0042306E0032304E0022302E00123F1
:101DC80000E000230F203A1813707B6818331900BD
:101DD8003B181B780A4AD35CCB18BB60BB681B68EE
:101DE8003A18127807498A5C110004228A40D243C3
:101DF8001A40BB681A60C046BD4604B080BDC046E4
:101E0800EC4B0008F84B000880B584B000AF786050
:101E180039603B68012B2CD03B68042B27D03B68EA
:101E2800102B22D03B68402B1DD03A6880235B00E2
:101E38009A4216D03A688023DB009A420FD03A685B
:101E480080235B019A4208D03A6880235B029A4259
:101E580001D107230EE008230CE006230AE005233E
:101E680008E0042306E0032304E0022302E0012340
:101E780000E000230F203A1813707B68183319000C
:101E88003B181B78094AD35CCB18BB60BB681A683F
:101E98003B181B780649CB5C190008238B401A4372
:101EA800BB681A60C046BD4604B080BDEC4B000854
:101EB800F84B000880B582B000AF786039607B6865
:101EC8005B68702293431A003B681A437B685A6028
:101ED800C046BD4602B080BD80B582B000AF786014
:101EE8007B689B68802293431A007B689A60C0468F
:101EF800BD4602B080BD000080B584B000AF7860F8
:101F0800074BD96B064B7A680A43DA63044BDB6BE1
:101F18007A681340FB60FB68C046BD4604B080BDCC
:101F28000010024080B584B000AF7860074B596B51
:101F3800064B7A680A435A63044B5B6B7A68134012
:101F4800FB60FB68C046BD4604B080BD001002407F
:101F5800B0B594B000AF3C257B19180014231A00C3
:101F68000021FEF749FA1C243B19180020231A0007
:101F78000021FEF741FA3B1D180018231A00002122
:101F8800FEF73AFA0220FFF7B7FF484B202200215C
:101F98001800FFF7A5FE454B102200211800FFF797
:101FA8009BFDC0239B0141481A000021FFF772FEE8
:101FB8003E4B202200211800FFF7B4FD3B4B0022C6
:101FC80000211800FFF7D2FD384B802200211800AD
:101FD800FFF7F0FD80235B0034481A000021FFF76B
:101FE8000DFE324B002200211800FFF72DFE7B1951
:101FF80000221A807B1900225A607B194F229A60AE
:102008007B190022DA607B19294A19001000FEF7B3
:1020180087FA274B1800FFF78FFE254B0121180080
:10202800FFF7F2FE21007B1860221A607B1800225D
:102038005A607B1800229A607B180022DA607B18AD
:1020480000221A617B181A481A000121FEF7A4FA27
:10205800174B01211800FFF77FFE154B00211800D0
:10206800FFF728FF124B1800FFF736FF0120FFF794
:1020780059FF3B1D40221A603B1D02225A603B1D3E
:1020880003229A603B1D0022DA603B1D00221A6180
:102098003B1D01225A613A1DA023DB0511001800DF
:1020A800FEF7EEF9C046BD4614B0B0BD00000240D0
:1020B8000004004080B582B000AF0200FB1D1A701A
:1020C800FB1D1B787F2B09D8FB1D1B781A001F23CB
:1020D8001A40044B012191400A001A60C046BD46CF
:1020E80002B080BD00E100E090B583B000AF02000F
:1020F8003960FB1D1A70FB1D1B787F2B28D82F4ACF
:10210800FB1D1B785BB29B08C0339B009B58FA1DD4
:102118001278110003220A40D200FF2191400A00E0
:10212800D2431A4011003B689B01FF221A40FB1D55
:102138001B78180003230340DB009A401F48FB1D4F
:102148001B785BB29B080A43C0339B001A5031E0EE
:102158001B4AFB1D1B7819000F230B40083B9B08EB
:1021680006339B00D31804331B68FA1D127811003C
:1021780003220A40D200FF2191400A00D2431A40AC
:1021880011003B689B01FF221A40FB1D1B781800B9
:1021980003230340DB009A400948FB1D1B781C0001
:1021A8000F232340083B9B080A4306339B00C318B0
:1021B80004331A60C046BD4603B090BD00E100E09C
:1021C80000ED00E080B586B000AFF860B9607A60D5
:1021D800FB687B610C4ABB68D3181B781A007B69C3
:1021E800D3181B68094A13401900074ABB68D3185B
:1021F8001B781A007B69D3187A680A431A60C046AC
:10220800BD4606B080BDC046044C0008EFBFFFFFC6
:1022180080B586B000AFF860B9607A60FB687B6112
:102228000C4ABB68D3181B781A007B69D3181B6843
:10223800202293431900074ABB68D3181B781A0059
:102248007B69D3187A680A431A60C046BD4606B04F
:1022580080BDC046044C000880B586B000AFF86069
:10226800B9607A60FB687B610C4ABB68D3181B783D
:102278001A007B69D3181B68402293431900074A48
:10228800BB68D3181B781A007B69D3187A680A438D
:102298001A60C046BD4606B080BDC046044C000862
:1022A80080B586B000AFF860B9607A60FB687B6182
:1022B8000C4ABB68D3181B781A007B69D3181B68B3
:1022C800802293431900074ABB68D3181B781A0069
:1022D8007B69D3187A680A431A60C046BD4606B0BF
:1022E80080BDC046044C000880B586B000AFF860D9
:1022F800B9607A60FB687B610C4ABB68D3181B78AD
:102308001A007B69D3181B68094A13401900074A49
:10231800BB68D3181B781A007B69D3187A680A43FC
:102328001A60C046BD4606B080BDC046044C0008D1
:10233800FFFCFFFF80B586B000AFF860B9607A6037
:10234800FB687B610C4ABB68D3181B781A007B6951
:10235800D3181B68094A13401900074ABB68D318E9
:102368001B781A007B69D3187A680A431A60C0463A
:10237800BD4606B080BDC046044C0008FFF3FFFF11
:1023880080B586B000AFF860B9607A60FB687B61A1
:102398000C4ABB68D3181B781A007B69D3181B68D2
:1023A800094A13401900074ABB68D3181B781A005A
:1023B8007B69D3187A680A431A60C046BD4606B0DE
:1023C80080BDC046044C0008FFCFFFFF80B586B033
:1023D80000AFF860B9607A60FB689B0A0F4A5A4000
:1023E8001300DB009B1A7B61BA687B69D3189B00DA
:1023F8000B4A944663441B683F2293431900BA680A
:102408007B69D3189B00064A944663447A680A435A
:102418001A60C046BD4606B080BDC04680001000A8
:102428000008024080B582B000AF78607B681B6806
:1024380001221A437B681A60C046BD4602B080BDBF
:1024480080B582B000AF78607B681B68034A1A4089
:102458007B681A60C046BD4602B080BDFFFFFFDF43
:1024680080B586B000AF78603960EFF31083BB6049
:10247800BB687B610123FB60FB6883F31088C0465F
:102488007B689B68DB00DA083B685B071A437B685C
:102498009A607B693B613B6983F31088C046C046FC
:1024A800BD4606B080BD000080B586B000AF78603C
:1024B8003960EFF31083BB60BB687B610123FB606D
:1024C800FB6883F31088C0467B689B68084A1A40FB
:1024D8003B685B061A437B689A607B693B613B6992
:1024E80083F31088C046C046BD4606B080BDC046CE
:1024F800FFFFFFF180B582B000AF786039607B687C
:102508001B68054A1A403B681B041A437B681A601B
:10251800C046BD4602B080BDFFFFE0FF80B582B077
:1025280000AF786039607B681B68054A1A403B68D1
:102538005B051A437B681A60C046BD4602B080BD81
:10254800FFFF1FFC80B582B000AF78607B689B6896
:102558008022D2011A437B689A60C046BD4602B009
:1025680080BD000080B582B000AF786039607B68BC
:102578009B68054A1A403B681A437B689A60C046C4
:10258800BD4602B080BDC046FF7FFFFF80B582B068
:1025980000AF78607B685B68074A1A407B685A60BE
:1025A8007B689B682A2293431A007B689A60C0461E
:1025B800BD4602B080BDC046FFB7FFFF80B582B000
:1025C80000AF78607B68DA6980239B031A40802318
:1025D8009B039A4201D1012300E000231800BD4665
:1025E80002B080BD80B582B000AF78607B68DA69E0
:1025F8008023DB031A408023DB039A4201D10123A5
:1026080000E000231800BD4602B080BD80B584B04C
:1026180000AF7860074BD96B064B7A680A43DA63D8
:10262800044BDB6B7A681340FB60FB68C046BD4611
:1026380004B080BD0010024080B584B000AF78605F
:10264800074B196C064B7A680A431A64044B1B6CD7
:102658007A681340FB60FB68C046BD4604B080BD85
:102668000010024080B584B000AF7860074B596B0A
:10267800064B7A680A435A63044B5B6B7A681340CB
:10268800FB60FB68C046BD4604B080BD0010024038
:1026980090B595B000AF3023FB18180020231A001E
:1026A8000021FDF7A9FE1823FB18180018231A00AB
:1026B8000021FDF7A1FE3B00180018231A00002195
:1026C800FDF79AFE3B0001221A603B0000225A6087
:1026D8003B001800FEF7C6FB031E01D0FFF74EF8BB
:1026E8008023DB011800FFF7A7FF0120FFF7BAFFDF
:1026F80018217B18802292001A600C003B190222D4
:102708005A603B1900229A603B190022DA603B1993
:1027180000221A613B1901225A613A19A023DB05EC
:1027280011001800FDF7ACFE21007B188022D200B2
:102738001A600C003B1902225A603B1900229A6069
:102748003B190022DA603B1900221A613B19012269
:102758005A613A19A023DB0511001800FDF790FE15
:1027680021007B18802252011A607B1802225A60CD
:102778007B1800229A607B180022DA607B180022FE
:102788001A617B1801225A617A18A023DB0511000F
:102798001800FDF775FE494B332201211800FFF799
:1027A80015FE464B102201211800FFF70BFD802370
:1027B8005B0142481A000121FFF7E2FD3F4B00226E
:1027C80001211800FFF724FD3C4B002201211800CD
:1027D800FFF742FD394B802201211800FFF760FD09
:1027E800364B002201211800FFF77EFD334B0022F3
:1027F80001211800FFF79EFD00211B20FFF774FC44
:102808001B20FFF757FC30217B1800221A607B1829
:10281800962292015A607B1800229A607B18002247
:10282800DA607B1800221A617B180C225A617B1827
:1028380000229A617B180022DA617B18204A19006D
:102848001000FEF7F5FD1E4B00211800FFF708FEEB
:102858001B4B00211800FFF727FE194B1800FFF744
:1028680071FE174B00211800FFF77CFE144B002166
:102878001800FFF753FE124B00211800FFF73AFE2D
:102888000F4B1800FFF7DCFD0D4B1800FFF77EFE1D
:102898000B4B1800FFF7C6FDC046094B1800FFF7A1
:1028A8008DFE031EF9D0064B1800FFF79BFE031E92
:1028B800F3D0C046C046BD4615B090BD00000240EA
:1028C8000038014090B58FB000AF18243B191800AC
:1028D80020231A000021FDF78FFD3B001800182364
:1028E8001A000021FDF788FD80239B021800FFF7DE
:1028F8008DFE0120FFF7B6FE3B0004221A603B0064
:1029080002225A603B0000229A603B000022DA60F3
:102918003B0000221A613B0001225A613A00A023C1
:10292800DB0511001800FDF7ABFD3B0008221A601B
:102938003B0002225A603B0000229A603B000022C2
:10294800DA603B0000221A613B0001225A613A001A
:10295800A023DB0511001800FDF792FD384B352246
:1029680003211800FFF732FD354B10220321180010
:10297800FFF728FC324B002203211800FFF700FD67
:102988002F4B002203211800FFF742FC2C4B00229A
:1029980003211800FFF760FC294B8022032118004F
:1029A800FFF77EFC264B002203211800FFF79CFC52
:1029B800234B002203211800FFF7BCFC00211C2038
:1029C800FFF792FB1C20FFF775FB3B1900221A60EA
:1029D8003B19962292015A6021007B1800229A60C6
:1029E8007B180022DA607B1800221A617B180C22FF
:1029F8005A617B1800229A617B180022DA617B18E1
:102A0800104A19001000FEF713FD0E4B1800FFF7CF
:102A1800BDFD0C4B1800FFF705FDC046094B18001B
:102A2800FFF7CCFD031EF9D0064B1800FFF7DAFDBF
:102A3800031EF3D0C046C046BD460FB090BDC04689
:102A4800000002400044004080B582B000AF7860CA
:102A58007B681B6802221340022B01D1012300E08E
:102A680000231800BD4602B080BD80B582B000AF1B
:102A780078607B681B6804221340042B01D1012372
:102A880000E000231800BD4602B080BD80B582B0CA
:102A980000AF78607B6802225A60C046BD4602B02B
:102AA80080BD80B582B000AF78607B6820225A6014
:102AB800C046BD4602B080BD80B582B000AF786028
:102AC8007B68802292015A60C046BD4602B080BD34
:102AD80080B582B000AF78607B6804225A60C04637
:102AE800BD4602B080BD80B582B000AF78607B681B
:102AF800DB6920221340202B01D1012300E00023B1
:102B08001800BD4602B080BD80B582B000AF7860C5
:102B18007B6802221A62C046BD4602B080BD80B5FD
:102B280082B000AF78607B6804221A62C046BD4656
:102B380002B080BD80B582B000AF78607B680822A3
:102B48001A62C046BD4602B080BD80B582B000AFF3
:102B580078607B6810221A62C046BD4602B080BD0C
:102B680080B582B000AF78607B68802212011A625B
:102B7800C046BD4602B080BD80B582B000AF786067
:102B88007B685B6ADBB21800BD4602B080BD80B5C9
:102B980000AFC046FDE780B500AFC046FDE780B591
:102BA80000AFC046BD4680BD80B500AFC046BD463B
:102BB80080BD80B500AF01F0DBF8FEF727FCC0460A
:102BC800BD4680BD80B500AF0D4B1800FFF74DFF27
:102BD800031E06D001F048FC094B1800FFF778FFE8
:102BE8000BE0074B1800FFF72FFF031E05D001F07D
:102BF8003BFC034B1800FFF749FFC046BD4680BDAC
:102C08000000024080B500AF034B1800FFF749FFF2
:102C1800C046BD4680BDC0460000024080B500AF3A
:102C2800034B1800FFF748FFC046BD4680BDC046AD
:102C38000000024080B500AF124B1800FFF753FFA9
:102C4800031E08D00F4B1800FFF796FF030018006B
:102C580000F09AFB13E00B4B1800FFF76BFF094BD2
:102C68001800FFF751FF074B1800FFF758FF054BF7
:102C78001800FFF76AFF034B1800FFF771FFC04603
:102C8800BD4680BD0038014080B500AFC046BD4696
:102C980080BD000080B582B000AF0F4B1A6C0E4BA0
:102CA80001210A431A640C4B1B6C012213407B6000
:102CB8007B68094BDA6B084B802149050A43DA63C4
:102CC800054BDA6B80235B0513403B603B68C046CD
:102CD800BD4602B080BDC046001002400D48854682
:102CE800FDF7B6FB0C480D490D4A002302E0D45805
:102CF800C4500433C4188C42F9D30A4A0A4C00233E
:102D080001E013600432A242FBD3FDF77DFBFEF71E
:102D18009DFCFEE700200020000000205400002059
:102D2800344C00085400002098100020FEE780B5BD
:102D380082B000AF78607B68DB6980221340802B0B
:102D480001D1012300E000231800BD4602B080BD78
:102D580080B582B000AF78600A00FB1C1A70FB1CBB
:102D68001A787B689A62C046BD4602B080BD80B5BD
:102D780082B000AF786039607B683A689A61C04673
:102D8800BD4602B080BD80B582B000AF78603960C2
:102D98007B683A689A62C046BD4602B080BD0000B2
:102DA80080B500AF024B1B681800BD4680BDC04609
:102DB8009075FF1F80B500AF024B1B681800BD4619
:102DC80080BDC0469475FF1F80B500AF024B1B68DD
:102DD8001800BD4680BDC0469875FF1F80B500AF7E
:102DE80001F08AFD184B1B88002B0CD0174B1A8852
:102DF800154B1B8819001000FDF788F903009BB2DA
:102E0800DAB2134B1A70114B1A880F4B1B88190032
:102E18001000FDF701FA0B009BB2002B05D00C4BFC
:102E28001B780133DAB20A4B1A70074B1B88094A20
:102E3800128853439BB2180001F08EFA00F0D0FAC2
:102E4800C046BD4680BDC046100000200E000020D0
:102E5800120000201400002080B500AF00F02AFD09
:102E680000F004F8C046BD4680BD000090B589B0AA
:102E780000AF1F23FB1800221A701C23FB18002226
:102E88001A801B23FB1800221A703B1D18001423FC
:102E98001A000021FDF7B0FA1A23FB1801221A7054
:102EA80019217B1800221A701823FB1800221A70A7
:102EB800C04B1A78C04B1B789A4200D150E2BE4BE7
:102EC8001B781A00BD4B9B5C062B00D803E27B18CD
:102ED80000221A70A5E0B84B1B781A001923FB18BA
:102EE8001B78B74912028A18D35C3B2B06D11A21EA
:102EF8007B181A787B1801321A708CE0AE4B1B785D
:102F08001A0019203B181B78AD4912028A18D35CA5
:102F1800092B00D890E0A84B1B781A003B181B78A7
:102F2800A74912028A18D35CDB2B00D984E01A2344
:102F3800FB181B78012B16D11F243B191B781A1C70
:102F48009200D318DB18DAB29B4B1B7819003B1898
:102F58001B789B4809024118CB5CD318DAB23B199D
:102F6800303A1A7057E01A23FB181B78022B17D136
:102F78001C243B191B881A1C9200D318DB189BB21F
:102F88008D4A127811001922BA1812788C48090251
:102F980041188A5C9B189AB23B19303A1A803AE079
:102FA8001A23FB181B78032B17D11B243B191B78FA
:102FB8001A1C9200D318DB18DAB27F4B1B78190061
:102FC8001923FB181B787E4809024118CB5CD318DB
:102FD800DAB23B19303A1A701DE01A23FB181B7835
:102FE800042B18D118203B181B78132B13D8724BBD
:102FF8001B7819001923FB181A7804003B181B7852
:103008006F4809024118895C3A1DD1543B191A7856
:103018003B1901321A7019217B181A787B18013272
:103028001A70654B1B781A00644B9B5C1922BA18FE
:1030380012789A4200D24EE71F23FB181B78012B07
:103048001CD11C23FB181B88002B17D01923FB1835
:1030580001221A700CE019243B191B780021180072
:1030680000F0D0FA21007B181A787B1801321A7008
:103078001923FB181B78062BEDD978E01F23FB18C2
:103088001B78022B0FD11B22BB181B78002B0AD0F0
:10309800BB181B78062B06D8BB181B780021180014
:1030A80000F0B0FA63E01F23FB181B78032B32D122
:1030B8001B203B181B78002B2DD03B181B78062BA8
:1030C80029D8404B1B881C243A1912889A421AD3D3
:1030D8003B191A883B4B1B8819003B4B1B88CB18A4
:1030E8009A4210DA3B191B88DAB2364B1B88DBB2DE
:1030F800D31ADBB20133DAB23B181B78110018007F
:1031080000F080FA33E01B23FB181B78002118001D
:1031180000F078FA2BE01F23FB181B78042B26D12C
:103128001B22BB181B78002B21D0BB181B78062B41
:103138001DD8244B1B881C203A1812889A4216D393
:103148003B181A881F4B1B8819001F4B1B88CB186C
:103158009A420CDA3B181B88DAB21A4B1B88DBB28E
:10316800D31ADBB20133DBB2180000F06FF93B1D54
:103178001B78232B00D0E3E03B1D5B78532B00D05A
:10318800DEE03B1D9B78452B00D0D9E03B1DDB786A
:10319800542B00D0D4E03B1D1B792D2B00D0CFE061
:1031A8001C23FB1800221A801923FB1807221A7007
:1031B80030E0C046DC0B0020DD0B0020CC0B0020EB
:1031C800CC0100200C0000200E00002019217B18E3
:1031D8001B783A1DD35C2F2B16D97B181B783A1D08
:1031E800D35C392B10D81C203B181B881A1C920062
:1031F800D318DB189BB27A181278391D8A5C9B1891
:103208009AB23B18303A1A8019217B181A787B1821
:1032180001321A701923FA181823FB1812781B7830
:103228009A42D3D31C22BB181B88002B00D187E0FD
:103238003B1D5B79532B10D13B1D9B79432B0CD144
:103248001100BB181B88484A934206D8474B7A1886
:1032580012881A8001F0B0FB72E03B1D5B79542B99
:103268000FD13B1D9B79512B0BD11C22BB181B88FE
:10327800312B06D83E4BBA1812881A8001F09CFBF5
:103288005EE03B1D5B79432B10D13B1D9B79512B95
:103298000CD11C217B181B88334A934206D8354B26
:1032A8007A1812881A8001F087FB49E03B1D5B7988
:1032B800432B45D13B1D9B794C2B41D11C217B18BD
:1032C8001B88294A93423BD82B4B7A1812881A80BC
:1032D80001F072FB34E0294B1B781A00284B9B5CE9
:1032E800052B2DD1254B1B781A00264B1202D35CD7
:1032F800472B25D1214B1B78224A1B02D3180133B7
:103308001B78502B1CD11D4B1B781E4A1B02D3184F
:1033180002331B78442B13D1184B1B78194A1B0214
:10332800D31803331B78302B0AD1144B1B78154A5A
:103338001B02D31804331B78312B01D100F050FD48
:103348000E4B1B780133DAB20C4B1A700B4B1B78FF
:103358000A211800FCF760FF0B00DAB2074B1A705D
:10336800C046BD4609B090BDDD0300000C0000203A
:103378000E0000201000002014000020DD0B0020AB
:10338800CC0B0020CC01002080B582B000AF020039
:10339800FB1D1A700E4B1B7818000D4B1B781A007A
:1033A8000C4B9B5C19000C4A0302D318FA1D1278C7
:1033B8005A54074B1B78074AD25C0132D1B2054AEE
:1033C800D154064B00221A60C046BD4602B080BDEB
:1033D800DC0B0020CC0B0020CC010020D80B0020F7
:1033E80080B582B000AFBB1D01221A801DE0BB1D55
:1033F8001B88DBB21900062000F004F93B1D0022EF
:103408001A8009E000F056FA0120FDF723F83B1D69
:103418001A883B1D01321A803B1D1B88312BF1D9BC
:10342800BB1D1A88BB1D01321A80074B1B88BA1DA9
:1034380012889A42DBD90021062000F0E3F8C04642
:10344800BD4602B080BDC0460E000020B0B584B0B5
:1034580000AF0200FB1D1A700E23FB1800221A8011
:1034680059E00E243B191B88604AD35C002B4CD1D1
:10347800FB1D1B785A1E5E4B1B8819001000FCF7B9
:10348800B5FF0B009AB25B4B19880C257B194A4390
:103498001A80FB1D1B785A1E554B1B8819001000FB
:1034A800FCF7BEFE03009AB20A217B1801321A808B
:1034B8007B181B885B00013B9BB2FA2292005343A6
:1034C80099B23B191A887B191B88CB1899B24A4BB9
:1034D8005200D1523B191A88474B5200D25A454BD9
:1034E8001B88D3189BB23A191288013B99B2434BF7
:1034F8005200D1523B191B88414A0121D1543B1932
:103508001B883A4A6421D1540AE00E217B181A8894
:103518007B1801321A800E23FB181B88312BA0D987
:103528000E23FB1800221A8056E00E243B191B8834
:103538002E4AD35C002B49D1FB1D1B785A1E2C4BFD
:103548001B8819001000FCF751FF0B009AB2294B99
:1035580019880C257B194A431A80FB1D1B785A1EB3
:10356800234B1B8819001000FCF75AFE03009AB27F
:103578000A217B1801321A807B181B88FA22D20094
:10358800534399B23B191A887B191B88CB1899B2F7
:10359800194B5200D1523B191A88174B5200D25A74
:1035A800144B1B88D3189BB23A191288013B99B265
:1035B800124B5200D1523B191B88114A0121D15498
:1035C8003B191B88094A6421D1540BE00E217B1852
:1035D8001A887B1801321A800E23FB181B88312B9E
:1035E800A3D9C046C046BD4604B0B0BD9401002072
:1035F800100000201400002098000020FC0000208B
:1036080060010020F0B587B000AF0200FB1D1A7002
:10361800BB1D0A1C1A70FB1D1A789D4B5200002115
:10362800D152FB1D1A789B4B52000021D152FB1D31
:103638001B78994A0021D154FB1D1B78974A002119
:10364800D154FB1D1B780A331A00914B52000021FC
:10365800D152FB1D1B780A331A008E4B52000021F1
:10366800D152FB1D1B780A338B4A0021D154FB1D14
:103678001B780A33894A0021D154FB1D1B78013B72
:10368800874AB91D0978D154864B00221A6016233F
:10369800FB1801221A80EDE01223FB1800221A8081
:1036A8001423FB1801221A8017E01423FB181B8827
:1036B800013B7B4AD35C1A001623FB181B889342F4
:1036C80005D112217B181A887B1801321A8014211F
:1036D8007B181A887B1801321A8014257B191B88DD
:1036E800062BE2D91226BB191B88002B00D1BBE0A0
:1036F80016243B191B885A1E6B4B1B881900100097
:10370800FCF774FE0B009AB2684B19880E23FB185D
:103718004A431A803B191B885A1E634B1B881900A1
:103728001000FCF77DFD03009AB20C217B180132D2
:103738001A805E4B1A880A217C18BB191B8819004D
:103748001000FCF7E3FC0300238010217B180E22F5
:10375800BA1812881A807B1901221A807EE0142078
:103768003B181B88013B4E4AD35C1A001623FB18F2
:103778001B88934200D06BE00C26BB191B885B00AA
:10378800013B9BB2FA229200534399B23B181A8824
:1037980010243B191B88CB1899B23D4B5200D152CB
:1037A8003B181A883A4B5200D25A0A257B191B88B3
:1037B800D3189BB23A181288013B99B2354B520084
:1037C800D1523B181B883A181288D1B2324AD154C8
:1037D8003B181B88314A0021D154BB191B88FA2297
:1037E800D200534399B23B181B880A331A003B197D
:1037F8001B88CB1899B2264B5200D15201007B1876
:103808001B880A331A00224B5200D25A7B191B8894
:10381800D3189BB208007A1812880A32013B99B271
:103828001C4B5200D1523B181B880A333A18128895
:10383800D1B2194AD1543B181B880A33174A0021C0
:10384800D1543B1939197A19098812888A181A80AB
:1038580014217B181A887B1801321A801423FB184C
:103868001B88062B00D87AE716217B181A887B1844
:1038780001321A800E4B1B881622BA1812889A42F7
:1038880000D809E7C046C046BD4607B0F0BDC046EF
:1038980098000020FC000020600100209401002016
:1038A80090000020C8010020100000201400002013
:1038B8000E00002080B582B000AFBB1D00221A8028
:1038C8003B1DFA2292001A8000F0C4FD031E00D0AE
:1038D80063E1FA239B0000221900002000F072FF28
:1038E800FB1C00221A70FCE0FB1C1A78AD4B52003E
:1038F800D35AFA2291001800FCF708FC03009AB288
:10390800A94B1B889A4200D9E6E0FB1C1A78A74B02
:103918005200D35AFA2291001800FCF7F7FB030073
:103928009AB2A14B1B889A4200D2D5E0FB1C1A78A8
:103938009C4B5200D35A002B00D1CDE0FB1C1A78C7
:103948009A4B5200D35A002B00D1C5E0FB1C1A78C1
:10395800944B5200D35A1900934B1B881A0013003A
:103968005B019B1A9B009B18DB00994212DBFB1C36
:103978001A788C4B5200D15A8B4B1B881A1C920117
:10398800D21A9201D2189218D318DB009AB2BB1D32
:103998008A181A80844B1B881A0013005B019B1A33
:1039A8009B009B18DB00824A94466344FA1C1178FA
:1039B8007E4A49008A5A934212DBFB1C1A787B4BD9
:1039C8005200D15A784B1B881A1C9201D21A9201C4
:1039D800D2189218D318DB009AB23B1D8A181A80A5
:1039E800FB1C1B78734AD35C032B0BD8FB1C1B787E
:1039F800714AD25C3B1D1988BB1D1B88180000F05A
:103A0800E1FE10E0FB1C1B786A4AD35C642B0AD9E0
:103A1800FB1C1B78684AD25C3B1D1988BB1D1B88A0
:103A2800180000F0CFFEFB1C1B78624AD35C002B09
:103A380052D0FB1C1A785B4B5200D35AFA229100E1
:103A48001800FCF763FB03009AB2574B1B889A4295
:103A580042D1FB1C1B78574AD25C0132D1B2554A7D
:103A6800D154FB1C1B78534AD35C062B05D1FB1C95
:103A78001B78504A0121D1542EE0FB1C1B784D4A7B
:103A8800D35C6C2B28D1FB1C1B784A4A6421D15487
:103A9800FB1C1B78484AD25C0132D1B2464AD15449
:103AA800FB1C1B78444AD35C042B15D9FB1C1A78E1
:103AB8003C4B52000021D152FB1C1A783B4B520060
:103AC8000021D152FB1C1B783A4A0021D154FB1C1F
:103AD8001B78394A0021D154FB1C1A78FB1C01328F
:103AE8001A70FB1C1B78312B00D8FDE62E4B1B8867
:103AF800DBB2180000F06AF800F056FC2A4B1B886D
:103B080001339AB2284B1A80274B1B881A002B4B7B
:103B18001B785B009A4202DD234B01221A80284B56
:103B28001B68284A934239D9254B00221A60FB1C8E
:103B380000221A701AE0FB1C1A781A4B5200002156
:103B4800D152FB1C1A78194B52000021D152FB1C90
:103B58001B78194A0021D154FB1C1B78154A0021F7
:103B6800D154FB1C1A78FB1C01321A70FB1C1B7801
:103B7800312BE0D9FB1C00221A7009E0FB1C1B78D2
:103B8800114A0021D154FB1C1A78FB1C01321A700F
:103B9800FB1C1B78052BF1D900E0C046BD4602B0DE
:103BA80080BDC0469800002016000020FC000020C0
:103BB800E6030000940100206001002012000020AC
:103BC800C801002060EA00009000002080B584B0A1
:103BD80000AF0200FB1D1A70FB1D1B78642B06D971
:103BE8000F23FB18FA1D1278643A1A700FE0FB1DB8
:103BF8001B78082B06D90F23FB18FA1D1278083AF0
:103C08001A7004E00F23FB18FA1D12781A70574B2C
:103C180001211800FFF7ABF8544B02211800FFF7F9
:103C2800A6F8A023DB0520211800FFF7ACF8A02395
:103C3800DB0580211800FFF7A6F8A023DB0510217B
:103C48001800FFF7A0F80F23FB181B78022B06D1EA
:103C5800A023DB0520211800FFF789F864E00F2373
:103C6800FB181B78032B06D1A023DB058021180045
:103C7800FFF77DF858E00F23FB181B78042B0CD1B5
:103C8800A023DB0520211800FFF771F8A023DB052E
:103C980080211800FFF76BF846E00F23FB181B780C
:103CA800052B06D1A023DB0510211800FFF75FF8CC
:103CB8003AE00F23FB181B78062B0CD1A023DB0559
:103CC80020211800FFF753F8A023DB051021180066
:103CD800FFF74DF828E00F23FB181B78072B0CD1B2
:103CE800A023DB0580211800FFF741F8A023DB059E
:103CF80010211800FFF73BF816E00F23FB181B787C
:103D0800082B11D1A023DB0520211800FFF72FF87D
:103D1800A023DB0580211800FFF729F8A023DB0585
:103D280010211800FFF723F8FB1D1B78082B05D876
:103D38000E4B01211800FFF726F813E0FB1D1B7836
:103D4800102B05D8094B02211800FFF71CF809E0D1
:103D5800064B01211800FFF716F8044B0221180042
:103D6800FFF711F8C046BD4604B080BD00040050FE
:103D780080B500AF164B1B685A1C154B1A60154BC3
:103D88001B685A1C134B1A60124B1B68032B1CD957
:103D9800114B1B781A00114B9B5C002B15D00E4B56
:103DA8001B780133DAB20C4B1A700B4B1B780A21C3
:103DB8001800FCF731FA0B00DAB2074B1A70064B01
:103DC8001B781A00054B00219954C046BD4680BD9A
:103DD800C8010020D80B0020DC0B0020CC0B0020F1
:103DE800F0B597B000AF4026BB1918000C231A0095
:103DF8000021FCF701FB18257B19180028231A005D
:103E08000021FCF7F9FA00237B653B1D7A4A13CAA7
:103E180013C31168196012791A71FEF7D5FF0200F1
:103E2800BB191A60FEF7C6FF0200BB195A60FEF7FD
:103E3800B7FF0200BB199A6002230A211800FCF799
:103E480065F90300DBB20A211800FCF7E5F90B005D
:103E5800DBB23033DAB22C003B191A7002230A2184
:103E68001800FCF7D9F90B00DBB23033DAB23B1992
:103E78005A70624B62491800FCF748F903000A219E
:103E88001800FCF7C9F90B00DBB23033DAB23B1982
:103E98009A705A4B5B491800FCF738F903000A215D
:103EA8001800FCF7B9F90B00DBB23033DAB23B1972
:103EB800DA70524B54491800FCF728F903000A211C
:103EC8001800FCF7A9F90B00DBB23033DAB23B1962
:103ED8001A714A4B4D491800FCF718F903000A21DA
:103EE8001800FCF799F90B00DBB23033DAB23B1952
:103EF8005A71424AFA2399001000FCF707F90300A7
:103F08000A211800FCF788F90B00DBB23033DAB26B
:103F18003B199A71394B64211800FCF7F7F8030034
:103F28000A211800FCF778F90B00DBB23033DAB25B
:103F38003B19DA71314B0A211800FCF7E7F8030046
:103F48000A211800FCF768F90B00DBB23033DAB24B
:103F58003B191A72294B0A211800FCF75DF90B006E
:103F6800DBB23033DAB23B195A720A237B6500237D
:103F78003B651DE01C23FB6414E04023FB183A6DED
:103F88009200D258FB6CDA4013000F221A407B6D66
:103F9800591C7965391D895C1822BA18D154FB6CF3
:103FA800043BFB64FB6C002BE7DA3B6D01333B659C
:103FB8003B6D022BDEDD00233B6513E0C046144B4E
:103FC8001800FEF7B4FE031EF9D01823FA183B6D4B
:103FD800D3181B780E4A19001000FEF7B9FE3B6D86
:103FE80001333B653A6D7B6D9A42E7DBC046C046BC
:103FF800BD4617B0F0BDC046404B0008021613007E
:104008008096980040420F00A0860100102700000B
:104018000038014080B584B000AF786039607B68B3
:10402800FB600B4A3B68D3181B781A00FB68D3184F
:104038001A6807493B68CB181B781900FB68CB182E
:1040480001210A431A60C046BD4604B080BDC0467F
:104058000C4C000880B584B000AF786039607B688C
:10406800FB600B4A3B68D3181B781A00FB68D3180F
:104078001A6807493B68CB181B781900FB68CB18EE
:1040880001218A431A60C046BD4604B080BDC046BF
:104098000C4C000880B586B000AFF860B9607A6053
:1040A800FB687B610C4ABB68D3181B781A007B69D4
:1040B800D3181B68202293431900074ABB68D318FA
:1040C8001B781A007B69D3187A680A431A60C046BD
:1040D800BD4606B080BDC0460C4C000880B586B011
:1040E80000AFF860B9607A60FB687B610B4ABB6817
:1040F800D3181B781A007B69D3185B681B0C19044A
:10410800064ABB68D3181B781A007B69D3187A68EB
:104118000A435A60C046BD4606B080BD0C4C000834
:1041280080B586B000AFF860B9607A60FB687B61E3
:10413800064ABB68D3181B781A007B69D3187A68BB
:10414800DA60C046BD4606B080BDC0460C4C0008CB
:1041580080B586B000AFF860B9607A60FB687B61B3
:10416800064ABB68D3181B781A007B69D3187A688B
:104178009A60C046BD4606B080BDC0460C4C0008DB
:1041880080B584B000AF786039607B68FB600B4A0B
:104198003B68D3181B781A00FB68D3181A680749BC
:1041A8003B68CB181B781900FB68CB1802210A431F
:1041B8001A60C046BD4604B080BDC0460C4C00081D
:1041C80080B584B000AF786039607B68FB600B4ACB
:1041D8003B68D3181B781A00FB68D3181A6807497C
:1041E8003B68CB181B781900FB68CB1804210A43DD
:1041F8001A60C046BD4604B080BDC0460C4C0008DD
:1042080080B582B000AF78607B681B6801221A43D2
:104218007B681A60C046BD4602B080BD80B582B0DA
:1042280000AF78607B681B68012293431A007B68A3
:104238001A60C046BD4602B080BD80B582B000AFEE
:10424800786039607B681A6A3B681A437B681A622F
:10425800C046BD4602B080BD80B584B000AF78606E
:1042680039603B68012B2CD03B68042B27D03B6876
:10427800102B22D03B68402B1DD03A6880235B006E
:104288009A4216D03A688023DB009A420FD03A68E7
:1042980080235B019A4208D03A6880235B029A42E5
:1042A80001D107230EE008230CE006230AE00523CA
:1042B80008E0042306E0032304E0022302E00123CC
:1042C80000E000230F203A1813707B681833190098
:1042D8003B181B78094AD35CCB18BB60BB681A68CB
:1042E8003B181B780649CB5C190008238B401A43FE
:1042F800BB681A60C046BD4604B080BD144C0008B7
:10430800204C000880B582B000AF78607B685B6C99
:10431800802212021A437B685A64C046BD4602B026
:1043280080BD80B582B000AF78607B68DB68802292
:1043380092001A437B68DA60C046BD4602B080BD71
:1043480080B582B000AF786039607B683A689A615E
:10435800C046BD4602B080BD80B582B000AF020045
:10436800BB1D1A80BB1D1A88C0239B009A4209D224
:10437800BB1D1B881B099BB201339BB21B019AB260
:10438800074B1A80074B00211800FFF719FF054B50
:1043980000211800FFF7F4FEC046BD4602B080BDFC
:1043A800180000200000024080B500AF00F05CF863
:1043B80000F05AF8224B00225A63224B00211800C1
:1043C800FFF748FE1E4B1800FFF7ABFF1E4A1D4BB8
:1043D80000211800FFF7BCFE1C4B1A481A000021E8
:1043E800FFF79EFEC0235B0016481A000021FFF766
:1043F80075FE144B202200211800FFF74BFE114BCD
:1044080000211800FFF706FE0D4B1800FFF789FF83
:104418000B4B01211800FFF71FFF094B0121180062
:10442800FFF70BFF064B1800FFF7EAFE044B1800D6
:10443800FFF768FF064B01221A70C046BD4680BDD3
:10444800000400400000024034040040E00B00205B
:104458008010002080B500AF024B1B781800BD46C5
:1044680080BDC0468010002080B582B000AF494BA7
:104478001A88494B1B889A422FD2BB1D00221A80EA
:1044880026E0464B1A88434B1B881900444B5B5C5B
:104498001900100000F08EF8404B1B8818339AB2B0
:1044A8003E4B1A803D4B1B88C02251001800FBF779
:1044B800B3FE0B009AB2394B1A80364B1B88013376
:1044C8009AB2344B1A80BB1D1A88BB1D01321A8060
:1044D800BB1D1B88072BD4D957E02E4B1A882E4BAF
:1044E8001B889A423AD1BB1D00221A8031E03B1D3D
:1044F80000221A800DE0294B1B881A003B1D1B88DF
:10450800D318284A0021D1543B1D1A883B1D01327B
:104518001A803B1D1B88172BEDD9204B1B8818339D
:104528009AB21E4B1A801D4B1B88C02251001800DE
:10453800FBF772FE0B009AB2184B1A80154B1B88BA
:1045480001339AB2134B1A80BB1D1A88BB1D013266
:104558001A80BB1D1B88072BC9D916E00D4B0022FA
:104568001A800E4B00221A800F4B01211800FFF70A
:10457800E7FE0D4B02211800FFF7E2FE0B4B180077
:10458800FFF74CFE0A4B00221A70C046BD4602B027
:1045980080BDC04682100020180000208410002032
:1045A800600D0020E00B00200004005000040040D3
:1045B8008010002080B584B000AF0200BB1D1A80B7
:1045C8007B1D0A1C1A700F23FB1819221A700E2360
:1045D800FB1819221A700D23FB1819221A707B1D5B
:1045E8001B78022B07D07B1D1B78042B03D07B1D67
:1045F8001B78062B03D10F23FB1831221A707B1D61
:104608001B78012B0BD07B1D1B78042B07D07B1D3F
:104618001B78052B03D07B1D1B78062B03D10E239B
:10462800FB1831221A707B1D1B78032B07D07B1DCA
:104638001B78052B03D07B1D1B78062B03D10D237C
:10464800FB1831221A707B1D1B78FA2B0BD10F2314
:10465800FB1800221A700E23FB1800221A700D2373
:10466800FB1800221A70BB1D1B88554A1921D1540A
:10467800BB1D1B880133524A0F2039180978D154C1
:10468800BB1D1B8802334E4A39180978D154BB1D0B
:104698001B8803334A4A39180978D154BB1D1B8833
:1046A8000433474A39180978D154BB1D1B88053390
:1046B800434A39180978D154BB1D1B880633404A30
:1046C80039180978D154BB1D1B8807333C4A39185F
:1046D8000978D154BB1D1B880833394A1921D15494
:1046E800BB1D1B880933364A0E2039180978D15466
:1046F800BB1D1B880A33324A39180978D154BB1DAF
:104708001B880B332E4A39180978D154BB1D1B88D6
:104718000C332B4A39180978D154BB1D1B880D332B
:10472800274A39180978D154BB1D1B880E33244AEF
:1047380039180978D154BB1D1B880F33204A391802
:104748000978D154BB1D1B8810331D4A0D20391818
:104758000978D154BB1D1B881133194A39180978B7
:10476800D154BB1D1B881233154A39180978D15406
:10477800BB1D1B881333124A39180978D154BB1D45
:104788001B8814330E4A39180978D154BB1D1B886D
:1047980015330B4A39180978D154BB1D1B881633B9
:1047A800074A39180978D154BB1D1B881733044AA6
:1047B80039180978D154C046BD4604B080BDC046FA
:1047C800E00B002090B585B000AF04000800110090
:1047D800BB1D221C1A803B1D021C1A80FB1C0A1CD4
:1047E8001A700E217B183A1D12881A800C23FB18A8
:1047F800BA1D12881A803B1D1A88244B1B88043B5B
:104808009A4204DB214B1A887B18043A1A80BB1D94
:104818001A881E4B1B88053B9A4212DB1B4B1A88D1
:104828000C23FB18053A1A800BE00C203B181B8858
:10483800174AF91C0978D1543B181A883B180132D9
:104848001A800C23FA180E23FB1812881B889A4228
:10485800EBD30E4B1B88013B0D4AFA21D1540B4B6D
:104868001B88023B0A4AFA21D154084B1B88033B98
:10487800074AFA21D154054B1B88043B044AFA2104
:10488800D154C046BD4605B090BDC04618000020B2
:10489800600D002080B500AFBFF34F8FC046044BBA
:1048A800044ADA60BFF34F8FC046C046FDE7C046F2
:1048B80000ED00E00400FA0580B586B000AF78602E
:1048C800EFF31083BB60BB687B610123FB60FB686F
:1048D80083F31088C0467B681B68202293431A0024
:1048E8007B681A607B693B613B6983F31088C0462B
:1048F800C046BD4606B080BD80B500AF002000F0C0
:10490800F5F802000B0092B2274B1A80264B1B8841
:10491800002B05D0244B1A88FA239B009A4202D315
:10492800214B01221A80012000F0E0F802000B0060
:1049380092B21E4B1A801D4B1B88002B03D01B4BB9
:104948001B88322B02D9194B0A221A80022000F048
:10495800CDF802000B0092B2154B1A80144B1B883D
:10496800002B05D0124B1A88104B1B889A4205D988
:104978000E4B1B885B089AB20D4B1A80032000F07F
:10498800B5F802000B0092B20A4B1A80094B1B883B
:10499800002B03D0074B1B88962B02D9054B3222DC
:1049A8001A80C046BD4680BD0C0000200E000020C5
:1049B8001000002014000020B0B58AB000AF3B4BB7
:1049C8001800FFF779FF72B6C04600237B62002308
:1049D8003B620023FB610023BB61FCF781FB344B86
:1049E800180000F075F803007B62324B1B689A02CE
:1049F800FE235B021340304A94466344180000F0DB
:104A080067F802007B6AD31A01333B622B4B022200
:104A18001A602A4B7A6A9A60284B3A6ADA60182335
:104A2800FA18264B11001800FCF7FAFB204BFB6123
:104A3800234B1B883B6100237B61F9693A697B69D9
:104A48000120FCF797FBFB69083319001D4B1B88F5
:104A5800BB600023FB60BA68FB680120FCF78AFB97
:104A6800FB6910331900184B1B883B6000237B60DF
:104A78003A687B680120FCF77DFBFB691833190055
:104A8800124B1B881C0000231D0022002B00012054
:104A9800FCF770FBFCF7A2FB62B6C046FA239B004A
:104AA8001800FBF7D7FCFFF7F5FEC04600380140B9
:104AB80000780008E075FF1FFFFFFF07881000203F
:104AC8000C0000200E000020100000201400002020
:104AD80080B582B000AF78607B68F82212069446F1
:104AE8006344DB0A1800BD4602B080BD80B582B0C1
:104AF80000AF78607B68054A94466344DB001A6817
:104B08005B6810001900BD4602B080BD000F0001AF
:104B1800F8B5C046F8BC08BC9E467047F8B5C04614
:104B2800F8BC08BC9E46704701B40248844601BCE4
:084B3800604700BF1D000020D2
:104B400030313233343536373839414243444546C3
:104B50000000000000000000000000000000000055
:104B6000000000000100000002000000030000003F
:104B70000400000000000000000000000000000031
:104B80000000000000000000000000000000000025
:104B9000000000000100000002000000030000000F
:104BA00004000000060000000700000008000000EC
:104BB00009000000010000000200000004000000E5
:104BC00006000000080000000A0000000C000000C1
:104BD00010000000200000004000000080000000E5
:104BE00000010000081C30445800000000000000D4
:104BF0000404043C3C000000000008000000080021
:104C000008000000081C304458000000081C304414
:104C100058000000000000000404043C3C000000B8
:0C4C200000000800000008000800000070
:044C2C00E10000089B
:044C3000B9000008BF
:104C34000024F400010000000400000001000A0048
:104C440005000200320001002003000080220C4B0A
:104C540030B55C69D20222435A61EFF3108272B616
:104C64004C1CFF34401A0D6845500431A142FAD15E
:104C74008021490218690842FCD182F3108830BDB2
:044C840000200240CA
:0400000508002CE5DE
:00000001FF
