:020000040800F2
:1000000000100020810E0008E5080008E70800083D
:1000100000000000000000000000000000000000E0
:10002000000000000000000000000000E9080008D7
:100030000000000000000000EB080008ED080008C8
:10004000D10E000800000000D10E0008D10E0008FB
:10005000D10E0008D10E0008D10E0008D10E000804
:1000600000000000D10E0008D10E00080D090008A4
:10007000D10E0008D10E0008D10E000800000000CB
:10008000D10E00080000000000000000D10E0008A2
:1000900000000000D10E0008D10E0008D10E0008AB
:1000A00000000000D10E0008000000004109000817
:1000B0000000000000000000000000000000000040
:1000C00010B5064C2378002B07D1054B002B02D02E
:1000D000044800E000BF0123237010BD1000002081
:1000E00000000000541D0008044B10B5002B03D085
:1000F0000349044800E000BF10BDC04600000000F6
:1001000014000020541D0008002243088B4274D3C1
:1001100003098B425FD3030A8B4244D3030B8B4208
:1001200028D3030C8B420DD3FF22090212BA030C11
:100130008B4202D31212090265D0030B8B4219D3F2
:1001400000E0090AC30B8B4201D3CB03C01A524112
:10015000830B8B4201D38B03C01A5241430B8B425A
:1001600001D34B03C01A5241030B8B4201D30B0343
:10017000C01A5241C30A8B4201D3CB02C01A52416A
:10018000830A8B4201D38B02C01A5241430A8B422D
:1001900001D34B02C01A5241030A8B4201D30B0216
:1001A000C01A5241CDD2C3098B4201D3CB01C01A30
:1001B000524183098B4201D38B01C01A524143093A
:1001C0008B4201D34B01C01A524103098B4201D328
:1001D0000B01C01A5241C3088B4201D3CB00C01A95
:1001E000524183088B4201D38B00C01A524143080D
:1001F0008B4201D34B00C01A5241411A00D2014632
:10020000524110467047FFE701B5002000F0F0F8BA
:1002100002BDC0460029F7D076E7704703460B437E
:100220007FD4002243088B4274D303098B425FD3EF
:10023000030A8B4244D3030B8B4228D3030C8B421B
:100240000DD3FF22090212BA030C8B4202D3121201
:10025000090265D0030B8B4219D300E0090AC30BD6
:100260008B4201D3CB03C01A5241830B8B4201D383
:100270008B03C01A5241430B8B4201D34B03C01A6C
:100280005241030B8B4201D30B03C01A5241C30AE4
:100290008B4201D3CB02C01A5241830A8B4201D355
:1002A0008B02C01A5241430A8B4201D34B02C01A3F
:1002B0005241030A8B4201D30B02C01A5241CDD2E4
:1002C000C3098B4201D3CB01C01A524183098B422F
:1002D00001D38B01C01A524143098B4201D34B0118
:1002E000C01A524103098B4201D30B01C01A52417B
:1002F000C3088B4201D3CB00C01A524183088B4202
:1003000001D38B00C01A524143088B4201D34B00EA
:10031000C01A5241411A00D201465241104670475C
:100320005DE0CA0F00D04942031000D34042534061
:1003300000229C4603098B422DD3030A8B4212D321
:10034000FC22890112BA030A8B420CD38901921153
:100350008B4208D3890192118B4204D389013AD090
:10036000921100E08909C3098B4201D3CB01C01A65
:10037000524183098B4201D38B01C01A5241430978
:100380008B4201D34B01C01A524103098B4201D366
:100390000B01C01A5241C3088B4201D3CB00C01AD3
:1003A000524183088B4201D38B00C01A5241D9D2EB
:1003B00043088B4201D34B00C01A5241411A00D26C
:1003C0000146634652415B10104601D34042002B68
:1003D00000D54942704763465B1000D3404201B5E7
:1003E000002000F005F802BD0029F8D016E770479C
:1003F0007047C04682B00A4A5169012319435161CE
:10040000526913400193019B064AC2218900535847
:100410001B021B0A535080231B01136002B070475C
:100420000010024000E100E0F0B5DE4657464E46BF
:100430004546E0B58BB01822002104A801F05EFC0F
:10044000384B5A698021C9030A435A615A690A40E4
:100450000392039A5A69802189020A435A615A69B0
:100460000A400292029A5A698021C9020A435A61DB
:100470005B690B400193019B9024E40508239B4694
:10048000A36218339A46A36220339946A36240338D
:100490009846A36201260496089604A9200001F05C
:1004A00051F90227049700250595089604A9200014
:1004B00001F048F9042304930595089604A9200047
:1004C00001F040F95B46049305960695079508955B
:1004D00004A9200001F036F95346049305960695C9
:1004E0000795089704A9200001F02CF94B460493C6
:1004F000059606950795089704A9200001F022F9B2
:1005000043460493059606950795089704A920008D
:1005100001F018F90BB0F0BCBB46B246A946A046A4
:10052000F0BDC04600100240F8B500221E49002070
:1005300000F08EFC1D4B00221A6001240EE00131F8
:10054000C9B20133DBB2022B04D8194AD25CA242F1
:10055000F7D1F4E7002906D10134E4B2242C21D8E4
:1005600000210023EFE7631E124A5B00985A124AEB
:100570009E5A801BFFF752FE87B2002501E001352D
:10058000EDB2022DE8D80A4B5B5DA342F7D1701E95
:1005900080B2F619B6B26A1CD2B2711E89B200F0EE
:1005A00057FCECE7F8BDC046881300002C00002083
:1005B000300000206C1D0008B41D0008F8B5604B29
:1005C0001F78002F57D05F4B1B68022B53D9052F84
:1005D00033D85B4B00221A7000260025002435E03A
:1005E0000131C9B20133DBB29F422CD9564AD25CE9
:1005F0003B2AF5D010000A38C0B2D12823D80129EF
:100600000BD0022911D00329ECD1B00030184000E2
:100610001218D2B2303AD6B2E4E7A0002018400057
:100620001218D2B2303AD4B2DCE7A8002818400041
:100630001218D2B2303AD5B2D4E7002301210026F5
:1006400000250024D0E73E4B00221A706F1E2421A3
:100650003800FFF7E3FD3D4B1B78013B98420BD080
:100660002523012C10D0022C11D0032C20D0042CD7
:1006700037D0012C61D8F8BD24213800FFF7B4FE33
:10068000CBB20133DBB2ECE7002DF2D1EBE7002E69
:10069000EBD0032EE9D8012E06D0022E06D0013E63
:1006A0002B4B00229A55E4E72600F8E70126F6E7EF
:1006B000002EDCD0032EDAD8012E09D0022E09D06C
:1006C0005A1ED2B2232A07D8013E214A9355D0E7B9
:1006D0000226F5E70126F3E7013E1D4B00229A555D
:1006E000C7E7002BC5D0242BC3D8013B194A5B00B8
:1006F0009D5A013DADB2184A9E5A013EB6B2022241
:100700003100280000F0A4FB782001F0E3FA012278
:100710003100280000F09CFB782001F0DBFA032276
:100720003100280000F094FB782001F0D3FA084B48
:1007300000221A705A709A709BE7FFF7F5FE9AE74D
:10074000480000204C000020340000200000002061
:1007500030000020B41D00086C1D000810B5642096
:1007600001F0B8FA002415E000220E49002000F044
:100770006FFB0D4B6200D05A0C4BD15A013989B234
:10078000013880B2012200F063FB642001F0A2FA7C
:100790000134E4B2232CE7D900220249002000F002
:1007A00057FB10BD88130000B41D00086C1D000825
:1007B00010B5094B1A68094B9A420AD810BD084A6D
:1007C0000021D1540133DBB2022BF8D9FFF7ACFE84
:1007D000F4E70023F8E7C0462C000020C0270900FA
:1007E0003000002072B6FEE700B595B0302200213F
:1007F00008A801F083FA1022002104A801F07EFA73
:1008000010220021684601F079FA01230893099328
:100810000133109380235B02119380235B031293B7
:1008200008A800F0EDFB002817D107230493053B2F
:100830000593002306930793012104A800F058FEB6
:1008400000280CD10123009300230293684600F096
:10085000E9FE002805D115B000BDFFF7C3FFFFF783
:10086000C1FFFFF7BFFF000010B500F05BFBFFF713
:10087000BBFFFFF7D9FDFFF7BDFD00F07FF800F0EB
:1008800037F900F08FF900F003FAEFF3108101233C
:1008900083F31088064A136820200343136081F312
:1008A0001088FFF75BFFFFF789FEFFF781FFFAE78C
:1008B0000038014082B00A4B9969012211439961C5
:1008C00099690A400092009ADA69802149050A4331
:1008D000DA61DB690B400193019B02B07047C046AF
:1008E00000100240FEE7FEE77047704710B5054A6A
:1008F000136801331360044A13680133136000F076
:1009000021FB10BD4C0000202C00002010B50B4B2B
:100910001B685B0304D4094B1B689B0307D410BD01
:1009200000F040FA054B8022D2025A60F7E700F04F
:1009300039FA024B802292025A60F0E7000002402E
:10094000094BDB699B060DD5084B00221A60084B4A
:100950001B78054A918C074AD154112B02D8044ABE
:10096000013313707047C046003801404C0000202E
:10097000480000203400002070470000F0B5CE464B
:10098000474680B59DB017AE14220021300001F01B
:10099000B5F92024202200210FA801F0AFF9182278
:1009A000002109A801F0AAF91822002103A801F0EA
:1009B000A5F9464FBB69802212011343BB61BB6995
:1009C00013400293029B424B1A6842490A4010218D
:1009D0000A431A601968404A1140C02292010A4332
:1009E0001A601A68A24322431A601A6840218A4397
:1009F0001A601A68403188468A430A431A601A68A6
:100A000036490A408021490089460A431A601A681B
:100A100033490A401A600024348018943B23199308
:100A20001A941B942F4D3100280001F071F82B68A7
:100A3000424693432B602C4E3368783A134333601D
:100A400060230F931094119412941394149415949A
:100A500016940FAA4946280001F09AF83368042238
:100A6000934333606B686C3293436B60AB68424670
:100A70009343AB6009940A940B9400236A46302197
:100A8000521813706B465C8680239B010D930E9465
:100A900009A9280001F09CF87B698022D202134347
:100AA0007B617B6913400193019B022303930493B1
:100AB0000322059206940793089303A90B4800F0BC
:100AC00041FE1DB0C0BCB946B046F0BD00100240AA
:100AD00058000240EFBFFFFFFFCFFFFFFFFCFFFF0B
:100AE000FFF3FFFF002C01401C2C014000040048D4
:100AF000F0B597B01422002111A801F0FFF82022D0
:100B0000002109A801F0FAF81822002103A801F039
:100B1000F5F8214DEB69802252001343EB61EB693C
:100B200013400293029B772313931C4F11A93800A3
:100B300000F0EEFF3B68802293433B60184E336821
:100B4000783A134333606023099300240A940B948A
:100B5000243B0C930D9409AA0121380001F018F8E8
:100B600033680422934333606B69802189020B430D
:100B70006B616B690B400193019B102303930E3B48
:100B800004930594069407940892902003A9C00545
:100B900000F0D8FD17B0F0BD00100240002000406A
:100BA00018200040F0B591B01C22002109A801F0E6
:100BB000A5F81822002103A801F0A0F82F4B9A698C
:100BC0008021C9010A439A619A690A400292029AF5
:100BD0005A69802189020A435A615B690B4001937B
:100BE000019B80239B000393022704970324059411
:100BF000012508959026F60503A9300000F0A2FD16
:100C00008023DB0003930497059400240694079443
:100C1000089503A9300000F095FD194AC621890006
:100C200053581B021B0A535080231B051360962345
:100C30009B0109930A940B940C940C230D930E942E
:100C40000F94104C09A9200000F0ECFFEFF3108284
:100C500085F31088A3680C490B40A36082F31088C9
:100C600063680A4A13406360A36808229343A36041
:100C700023682B43236011B0F0BDC0460010024032
:100C800000E100E000380140FFFBFFFFFFF7FFFF3E
:100C900010B51B4B0022DA63DA68802000010243A2
:100CA000DA60184A184991601168042421431160E0
:100CB0001168023C214311601449D1605168090C4C
:100CC00009047F34FF34214351601168803CFF3CAC
:100CD00021431160DA681043D8600D490A68082082
:100CE00002430A60196A8022D2000A431A621A6813
:100CF00022431A60596C802212020A435A6410BDC2
:100D0000002C0140580002403C2C014054000020BF
:100D10001C2C014070B506290ED85A23CB40DB07A6
:100D20000CD5242502290BD0042912D0052912D074
:100D3000062912D0132604E01325F3E71325F1E763
:100D4000242603290BD005290CD006290CD0132406
:100D500006E02426F5E72426F3E72426F1E72424F9
:100D6000002308E02424FBE72424F9E7C2180C49F7
:100D70008D540133DBB2072BF8D9082304E0C218E5
:100D800007498E540133DBB20F2BF8D9102304E04E
:100D9000C21803498C540133DBB2172BF8D970BD4C
:100DA0005400002070B5254B1A88C823DB009A42F6
:100DB0001FD200243EE0224A1288D2182149002086
:100DC000885401339BB2172BF5D91D4D2888183054
:100DD00080B22880C0214900FFF71CFA2980174AF9
:100DE0001388013313800134A4B2072C03D80023E5
:100DF000E9E70024F9E7114B1A88134B9A421BD9F3
:100E00000E4B00221A8017E0104B0C4E3288995C72
:100E10000B4D2888FFF77EFF2888183080B2288085
:100E2000C0214900FFF7F6F9298033880133338068
:100E30000134A4B2072CE7D970BDC04614080020C5
:100E40005000002054000020A4060000D40100201F
:100E5000C823DB00994200D31900064B984205D9FC
:100E6000054803E0054B1A54013080B28142F9D89D
:100E70007047C0463E0600003F060000D401002037
:100E80000D488546FFF778FD0C480D490D4A0023B3
:100E900002E0D458C4500433C4188C42F9D30A4A2F
:100EA0000A4C002301E013600432A242FBD300F09D
:100EB0002DFFFFF7D9FCFEE7001000200000002006
:100EC000100000203C1E0008100000201C0800201C
:100ED000FEE7000010B504000F4B1978FA208000DF
:100EE000FFF712F901000D4B1868FFF70DF900F03C
:100EF0006BF800280DD1032C01D901200AE0013044
:100F000000222100404200F02FF8054B1C60002019
:100F100000E0012010BDC0460800002004000020B1
:100F20000C00002010B5064A136810210B43136013
:100F30000320FFF7CFFFFFF7BDFC002010BDC04628
:100F400000200240034A1168034B1B785B181360B2
:100F50007047C0461808002008000020014B1868A0
:100F60007047C0461808002070B5002811DB8308C0
:100F7000134DC0339B005C5903221040C000FC326B
:100F800016008640B44389010A40824022435A51E8
:100F900070BD0F230340083B9B0806339B00094AA2
:100FA000944663445C6803221040C000FC32150084
:100FB0008540AC4389010A40824022435A60E7E7FA
:100FC00000E100E000ED00E0013880235B0498427E
:100FD0000FD2094A50600948036A1B021B0AC0214C
:100FE00009060B430362002393600733136000205C
:100FF00070470120FCE7C04610E000E000ED00E093
:1010000070B582B0041E00D12EE20368DB0726D53E
:10101000AE4B5A680C231340042B18D0AB4B5A68C4
:101020000C231340082B0ED06368012B3CD0002BFF
:1010300051D1A64B1A68A6490A401A601A68A549F8
:101040000A401A6036E0A14B5B68DB03ECD59F4B8E
:101050001B689B0303D56368002B00D107E223685C
:101060009B0772D5994B5B680C221A425DD0974B57
:101070005A680C231340082B53D0E368002B00D18F
:1010800085E0924A136801210B431360FFF766FF66
:1010900005008E4B1B689B0770D4FFF75FFF401B5A
:1010A0000228F6D90320E0E1884A116880235B0218
:1010B0000B4313606368002B25D0FFF74FFF05003B
:1010C000824B1B689B03CAD4FFF748FF401B642870
:1010D000F6D90320C9E1052B09D07C4B1A687C495D
:1010E0000A401A601A687B490A401A60E2E7774BA7
:1010F00019688022D2020A431A60196880225202BB
:101100000A431A60D6E7FFF729FF05006F4B1B68FB
:101110009B03A4D5FFF722FF401B6428F6D90320C8
:10112000A3E16A4B5B68DB03A7D4684B1B689B0792
:1011300003D5E368012B00D09BE164490B68F822DA
:1011400093432269D20013430B6023681B0744D5E5
:10115000E369002B2ED05D4A536A01210B43536291
:10116000FFF7FCFE0500594B5B6A9B0735D4FFF780
:10117000F5FE401B0228F6D9032076E153490B689F
:10118000F82293432269D20013430B60DDE74F4AF4
:10119000136801218B431360FFF7E0FE05004B4B02
:1011A0001B689B07D1D5FFF7D9FE401B0228F6D953
:1011B00003205AE1454A536A01218B435362FFF7EA
:1011C000CDFE0500414B5B6A9B0706D5FFF7C6FEC7
:1011D000401B0228F6D9032047E123685B0700D4AF
:1011E00080E03A4BDB69DB001DD4384BDA698021A3
:1011F00049050A43DA61DB690B400193019B012534
:10120000354B1B68DB0510D5A368012B21D0002BC3
:1012100036D12E4B1A6A01218A431A621A6A0331A7
:101220008A431A621AE00025EAE72B4A11688023F4
:101230005B000B431360FFF791FE0600264B1B6813
:10124000DB05E1D4FFF78AFE801B6428F6D9032072
:101250000BE11E4A136A01210B431362A368002BA2
:1012600024D0FFF77BFE0600184B1B6A9B0737D480
:10127000FFF774FE801B194B9842F5D90320F4E068
:10128000052B09D0114B1A6A01218A431A621A6A86
:1012900003318A431A62E1E70C4B1A6A04210A43BC
:1012A0001A621A6A03390A431A62D7E7FFF756FE31
:1012B0000600064B1B6A9B0712D5FFF74FFE801BEB
:1012C000064B9842F5D90320CFE0C04600100240FB
:1012D000FFFFFEFFFFFFFBFF0070004088130000D0
:1012E000012D33D02368DB0610D56369012B33D081
:1012F000053351D1654A536B04218B435363536BC0
:10130000F4318B43A169C9000B435363236A002B5B
:1013100000D1B0E05D4A51680C220A40082A00D191
:101320008AE0022B4FD0594A136859490B40136089
:10133000FFF714FE0400554B1B689B017AD5FFF79D
:101340000DFE001B0228F6D903208EE04F4AD36918
:1013500050490B40D361C5E74C4B5A6B04210A43FB
:101360005A635A6B03390A435A63FFF7F7FD0500C6
:10137000464B5B6B9B0706D4FFF7F0FD401B022832
:10138000F6D9032071E041494B6BF8229343A269DF
:10139000D20013434B63B9E73C4B5A6B04210A4319
:1013A0005A635A6B03398A435A63FFF7D7FD050026
:1013B000364B5B6B9B07A9D5FFF7D0FD401B02287E
:1013C000F6D9032051E0314A136831490B401360CC
:1013D000FFF7C4FD05002D4B1B689B0106D5FFF7E9
:1013E000BDFD401B0228F6D903203EE0274BDA6AF8
:1013F0000F218A43E16A0A43DA625A6826490A40A1
:10140000A16A606A01430A435A6019688022520443
:101410000A431A60FFF7A2FD04001C4B1B689B01E6
:1014200006D4FFF79BFD001B0228F6D903201CE021
:1014300000201AE0002018E0012B1ED0134B5A6840
:10144000D86A80235B021340616A8B4217D10F2355
:101450000340E16A8B4214D1F0239B031A40A36A34
:101460009A4210D1002000E0012002B070BD01209E
:10147000FBE70120F9E70020F7E70120F5E701206D
:10148000F3E70120F1E70120EFE7C046001002403A
:10149000FFFFFFFEFFFFFFEFFFFFC2FF10B5104B86
:1014A0005A680C231340082B01D00E4810BD910C34
:1014B000073319400C48445C0949C96A0B400B4981
:1014C000C95CD20304D50748FEF71EFE6043EDE772
:1014D0006201121B93019B1ADB001B191802E5E73E
:1014E0000010024000127A00141E0008241E00089A
:1014F00070B504000D00002800D17EE0434B1A684F
:10150000012313408B420AD240490B6801229343C6
:101510002B430B600B681A40AA4200D06FE023688F
:101520009A070ED55B0705D5394A5168E023DB00E1
:101530000B435360364A5368F0218B43A1680B4339
:1015400053602368DB072DD56368012B1ED0022B67
:1015500022D02F4A1268920753D52D494A6803209A
:10156000824313434B60FFF7F9FC0600284B5B688E
:101570000C221A4063689B009A4213D0FFF7EEFCDE
:10158000801B244B9842F1D9032035E0204A126891
:101590009203E2D401202FE01D4A12689201DCD4AC
:1015A000012029E0194B1A6801231340AB4209D9E5
:1015B00016490B68012293432B430B600B681A40BA
:1015C000AA4220D123685B0706D5114A5368124905
:1015D0000B40E1680B435360FFF760FF0C4B5A6808
:1015E00012090F2313400D4AD35CD8400C4B1860EE
:1015F0000320FFF76FFC002070BD0120FCE70120F5
:10160000FAE70120F8E70120F6E7C0460020024093
:101610000010024088130000FFF8FFFFFC1D0008C7
:101620000400002070B582B004000368DB0339D5E4
:101630003E4BDB69DB004BD43C4BDA69802149052A
:101640000A43DA61DB690B400193019B0125384BAA
:101650001B68DB053ED5354B1A6AC0239B00110081
:1016600019401A4215D06368C022920013408B4281
:101670000FD02E4B1A6A2F4911401E6A802040025B
:1016800030431862186A2C4E304018621962D20733
:1016900034D4264A136A27490B4061680B4313620E
:1016A000012D3AD02368DB0706D5204A136B0321AE
:1016B0008B43A1680B43136323689B0632D51B4AF7
:1016C000136B10218B43E1680B43136300202AE066
:1016D0000025BCE7164A116880235B000B431360AA
:1016E000FFF73CFC0600124B1B68DB05B3D4FFF789
:1016F00035FC801B6428F6D9032014E0FFF72EFC8C
:1017000006000A4B1B6A9B07C3D4FFF727FC801B0C
:101710000A4B9842F5D9032005E0D36908490B40EC
:10172000D361BFE7002002B070BDC0460010024088
:1017300000700040FFFCFFFFFFFFFEFF881300006A
:10174000FFFFFFEFF0B5002216E00B699C46C4686E
:101750002B006B435E00F618F743B44366465E43C6
:101760003443C4604C68022C26D04D6804683C4069
:101770006B432343036001320C682300D3403BD00A
:101780000123934025001D401C42F4D04B68013BCF
:10179000012BDAD88F6883682C006C4366003619F9
:1017A000B3437C43234383600E68CC684368B343F0
:1017B000744323434360C8E7FF2D0DD84C69A4460A
:1017C000066A1C006C436C4325012D1BAE43654625
:1017D0006C4334430462C8E74C69A446466A2D0A48
:1017E0002C006C436C436C4325012D1BAE436546B6
:1017F0006C4334434462B8E70020F0BD044B5A68A0
:1018000012090F231340034AD35CD8407047C046E7
:1018100000100240FC1D0008044B5A68120A0723FE
:101820001340034AD35CD8407047C04600100240C2
:101830000C1E000870B50B4B5B68802252021340EF
:1018400093420DD00848074DE96A0F242140013129
:10185000FEF75AFC6B689B0C1C400234604370BD61
:101860000248F0E70010024000093D0000127A0033
:1018700010B5054B5A680C231340082B01D00348C0
:1018800010BDFFF7D7FFFBE70010024000127A00FF
:1018900010B5002829D1164B1A6B0323834013403F
:1018A00000060343022B16D0032B0BD0012B06D0CE
:1018B000FFF7DEFFFFF7A2FFFFF7AEFF16E0FFF72F
:1018C000D7FF13E00A4B1B680222100018401A428F
:1018D0000CD008480AE0064B1B6A02221000184090
:1018E0001A4203D08020000200E0002010BDC04654
:1018F0000010024000127A0070B5036A0126B3435B
:101900000362036A456882697324A2430C68144326
:10191000022293430A691343B3434A681343114AAB
:10192000904205D0104A904202D0104A904212D103
:10193000082293434A6992001343042293438A681E
:10194000920013430A4A2A408D692A43094D2A40CE
:10195000CD696D00154345608461CA6842630362C6
:10196000002070BD002C01400044014000480140AF
:10197000FFFEFFFFFFFDFFFF70B5036A1026B343B4
:101980000362036A44688269184D2A400D682D027B
:101990002A432025AB430D692D012B43B3434D68EA
:1019A0002D012B43124DA84205D0124DA84202D062
:1019B000114DA84213D18025AB434D69AD012B4396
:1019C0004025AB438D68AD012B430C4D25408C6900
:1019D000A40025430A4C2540CC69E4002C43446014
:1019E0008261CA6882630362002070BDFF8CFFFFC2
:1019F000002C01400044014000480140FFFBFFFF74
:101A0000FFF7FFFF70B5036A1B4E33400362036AA2
:101A10004468C2697325AA430D682A43174D2B40B9
:101A20000D692D022B4333404D682D022B43144D7D
:101A3000A84205D0134DA84202D0134DA84213D19D
:101A4000124D1D404B699B021D43114B1D408B687D
:101A50009B022B430F4D25408C69240125430E4CDE
:101A60002540CC6964012C434460C261CA68C263EA
:101A70000362002070BDC046FFFEFFFFFFFDFFFFB9
:101A8000002C01400044014000480140FFF7FFFFE7
:101A9000FFFBFFFFFFEFFFFFFFDFFFFF70B5036AF4
:101AA000144E33400362036A4468C269124D2A40EF
:101AB0000D682D022A43114D2B400D692D032B4338
:101AC00033404D682D032B430D4DA84205D00D4DDD
:101AD000A84202D00C4DA84204D10C4D25408C697F
:101AE000A4012C434460C261CA68026403620020FE
:101AF00070BDC046FFEFFFFFFF8CFFFFFFDFFFFF62
:101B0000002C01400044014000480140FFBFFFFF9E
:101B10000368194A904202D0184A904203D17022B9
:101B200093434A681343144A90420BD0134A90429D
:101B300008D0134A904205D0124A904202D0124A6D
:101B4000904203D1114A1340CA68134303608B6863
:101B5000C3620B888362084B984205D0094B9842B8
:101B600002D0094B984201D10B69036343690122FA
:101B70001343436100207047002C014000040040E3
:101B8000002000400044014000480140FFFCFFFFEE
:101B900010B50B00110080225200934215D008D8D6
:101BA000012B0FD0102B02D1FFF7E6FE09E0012038
:101BB00007E080225201934202D1FFF76FFF00E05D
:101BC000012010BDFFF798FEFBE7FFF71BFFF8E7CA
:101BD0000B7B8A6813430D4A13404A6813430C4A2F
:101BE00013400A6813430B4A1340CA8913430A4A35
:101BF00013400A691343094A13404A6913430849C9
:101C00000B401A43426400207047C046FFFBFFFFB1
:101C1000FFF7FFFFFFEFFFFFFFDFFFFFFFBFFFFF4C
:101C2000FF7FFFFF70B504000D000368DB0742D49F
:101C30000368234A1A404B68C9680B4329690B4360
:101C4000A9690B4313430360AB6842681D490A400E
:101C5000134343606B6982681B490A4013438360E6
:101C60001A4B984201D0012026E00020FFF710FE19
:101C7000002822D02968002901D101201CE0AA698E
:101C800080231B029A4208D04B08C018FEF73CFA8A
:101C900003041B0CE36000200EE040004B08C0185A
:101CA000FEF732FA0A4B03400004400C07220240C0
:101CB0001343E360EFE7012070BD0120FCE7C0465D
:101CC000F369FFFFFFCFFFFFFFFCFFFF003801407C
:101CD000F0FF000082B0084B1B680193019B431C7E
:101CE00000D00130002805D0034B1B68DB03F9D579
:101CF0000138F7E702B0704710E000E003008218F7
:101D0000934200D1704719700133F9E770B500268E
:101D10000C4C0D4D641BA410A64209D1002600F006
:101D200019F80A4C0A4D641BA410A64205D170BDD7
:101D3000B300EB5898470136EEE7B300EB589847ED
:101D40000136F2E7341E0008341E0008381E000871
:101D5000341E0008F8B5C046F8BC08BC9E46704763
:0C1D6000F8B5C046F8BC08BC9E467047B1
:101D6C0057018001A901D20137010E01E500BC0029
:101D7C0021004A0073009C00270350037903A2033F
:101D8C000703DE02B5028C02F1011A0243026C0257
:101D9C00F90422054B057405D904B00487045E04CC
:101DAC00C303EC0315043E04370160018901B20141
:101DBC001701EE00C5009C0001002A0053007C00B6
:101DCC00080331035A038303E802BF0296026D0233
:101DDC00D201FB0124024D02D90402052B05540546
:101DEC00B904900467043E04A303CC03F5031E045A
:101DFC0000000000000000000102030406070809AF
:101E0C000000000001020304020304050607080990
:101E1C000A0B0C0D0E0F1010010203040506070827
:081E2C00090A0B0C0D0E0F104A
:041E3400E9000008B9
:041E3800C1000008DD
:101E3C000100000000127A00010000000400000004
:0400000508000E8160
:00000001FF
