:020000040800F2
:10000000005000209D0E0008710C0008730C0008C1
:10001000750C0008770C0008790C0008000000003F
:100020000000000000000000000000007B0C000841
:100030007D0C0008000000007F0C0008810C000807
:10004000E50E0008E50E0008E50E0008E50E0008C4
:10005000E50E0008E50E0008E50E0008E50E0008B4
:10006000E50E0008E50E0008E50E0008E50E0008A4
:10007000E50E0008E50E0008E50E0008E50E000894
:10008000E50E0008E50E0008E50E0008E50E000884
:10009000850C0008E50E0008E50E0008E50E0008D6
:1000A000E50E0008E50E0008E50E0008E50E000864
:1000B000E50E0008E50E0008E50E0008E50E000854
:1000C000E50E0008E50E0008E50E0008E50E000844
:1000D000E50E00089D0C0008E50E0008E50E00087E
:1000E000E50E0008E50E0008E50E0008000000001F
:1000F0000000000000000000000000000000000000
:0C01000000000000000000005FF808F1A3
:10010C0010B5054C237833B9044B13B10448AFF345
:10011C0000800123237010BD10000020000000009F
:10012C001825000808B5034B1BB103490348AFF36E
:10013C00008008BD000000001400002018250008F5
:10014C000C231C481C4A10B500244FF44021C0E974
:10015C0000234FF480138AB084618483C0E9024485
:10016C00C0E9041300F014FF08B100F057FD01239F
:10017C00CDE907330E2369460E48CDE90044CDE99D
:10018C000244059404940694099300F07CFF08B192
:10019C0000F044FD0221074801F08CF808B100F092
:1001AC003DFD044800F0DFFF08B100F037FD0AB058
:1001BC0010BD00BF2C0000200064004010B50446A8
:1001CC0086B01022002102A802F074F92268194BA3
:1001DC009A422DD103F5D633DA69174842F00072F2
:1001EC00DA61DA6902A902F000720092009A9A6947
:1001FC0042F004029A619B6903F004030193019B92
:10020C004FF40063029301F0EDFA4FF48052022395
:10021C00CDE902230323084802A9059301F0E2FA71
:10022C0000221420114601F073F9142001F0A0F9FA
:10023C0006B010BD006400400008014010222DE9FA
:10024C00F04389B00DEB0200002102F033F9414B71
:10025C00DFF804919A69414F42F010029A619A6951
:10026C00DFF8FC8002F010020092009A9A6948466E
:10027C0042F020029A619A694FF4005102F0200278
:10028C000192019A9A69002542F004029A619A69D6
:10029C00012602F004020292029A9A69022442F0A8
:1002AC0008029A619B69002203F008030393039BE5
:1002BC0001F078FB3846002240F21B1101F072FB72
:1002CC00002240464FF6044101F06CFB4FF4005302
:1002DC00484604A9CDE90436CDE9065401F082FA6A
:1002EC001B23384604A9CDE90436CDE9065401F0A8
:1002FC0079FA0423384604A9CDE90435069501F0B2
:10030C0071FA404604A9CDE90465069501F06AFA34
:10031C0046F60443404604A9CDE90436CDE906541B
:10032C0001F060FA4FF41043404604A9CDE90436BD
:10033C00CDE9064401F056FA4FF48073384604A90F
:10034C00CDE90436CDE9064401F04CFA09B0BDE81C
:10035C00F08300BF00100240001001400008014073
:10036C00000C014030B591B02022002107A802F00A
:10037C00A1F81422002101A802F09CF801251023F9
:10038C000224CDE90A534FF4201306A806940D94C9
:10039C000F9301F00DFB08B172B6FEE70F23CDE908
:1003AC0001344FF480630390CDE90430294601A851
:1003BC0001F0D4FC08B172B6FEE711B030BD0000FC
:1003CC0070B500224FF48071954801F0EBFA954C12
:1003DC0000224FF40041944801F0E4FA00224FF45B
:1003EC008051914801F0DEFA23782BBB00228F4B11
:1003FC001A708F4B1B88F3B92578E5B9042188480E
:10040C0001F0CAFA01288B4E00F07E8100F0A8FDA5
:10041C00894B00F6B8301A783060002A40F05C81C5
:10042C0001224FF48051804801F0BCFA834B844A7E
:10043C001B6812781A6470BD00F092FD814B1B682A
:10044C00984204D90023794A23701370D1E723789A
:10045C00022B35D1754D2A78DAB901224FF480512F
:10046C00714801F09FFA754B754A1B6812781A6433
:10047C0000F076FD6F4E33689842BAD92B78013371
:10048C002B7000F06DFD64302B783060022BD9D8C6
:10049C00AFE7012A08D14FF48071614801F082FA6C
:1004AC00664B694A1B68E1E7022AE1D101224FF44D
:1004BC0000415D4801F076FA604B644A1B68D5E751
:1004CC000C2B0FD8022B94D9043B082B2BD8DFE82C
:1004DC0013F0360040004A005A0060006E00BF0066
:1004EC00D600E600FE2B84D1504D2A78002A40F02D
:1004FC00DB8001224FF480514B4801F053FA4F4BF3
:10050C004F4A1B6812781A6400F02AFD494E336872
:10051C0098427FF66EAF2B7801332B7000F020FDE4
:10052C0000F6B830B0E701224FF480713C4801F07E
:10053C0039FA424B444A1B6812781A6459E7012273
:10054C004FF40041384801F02DFA3C4B3F4A1B68F0
:10055C00F2E701224FF48051334801F023FA374B74
:10056C00374A1B68E8E7314D2B78002B76D10122F6
:10057C004FF480712A4801F015FA304B324A1B684F
:10058C0012781A646AE0294D2B78002B66D101226F
:10059C007CE0264D2B78002B60D101224FF480514A
:1005AC00214801F0FFF9254B254A1B68E8E71F4D50
:1005BC002A78EAB901224FF48071194801F0F2F956
:1005CC001E4B214A1B6812781A6400F0C9FC194EA4
:1005DC00336898427FF60DAF2B7801332B7000F007
:1005EC00BFFC2B78C8303060022B3FF6FFAE00E723
:1005FC00012A08D14FF400410B4801F0D3F90F4BFD
:10060C00124A1B68DFE7022ADFD101224FF4805126
:10061C00054801F0C7F9094B094A1B68D3E700BF2D
:10062C00000801404C040020000C01404D04002047
:10063C0050040020480400204E04002058040020E0
:10064C0000000020440400200200002001000020D3
:10065C00374D2A78002A8AD0012A9FD000F080FCDE
:10066C00344E336898427FF6C4AE2B7801332B702E
:10067C0000F076FC2B78C8303060012BB5E72C4DA0
:10068C002A78002A3FF473AF012AE7D14FF40041D6
:10069C00294801F087F9294B294A1B6870E7244D3A
:1006AC002A78002AD8D172E7012A08D14FF4807138
:1006BC00244801F077F9214B234A1B6822E7022AD0
:1006CC007FF422AF01224FF400411B4801F06AF97C
:1006DC001A4B1B4A1B6815E7012A08D14FF480718D
:1006EC00184801F05FF9154B174A1B68A1E6022A5E
:1006FC007FF4A1AE01224FF400410F4801F052F9F2
:10070C000E4B0F4A1B6894E600F02AFC33689842A3
:10071C00BFF491AE0D4A356013780133DBB2022B76
:10072C0098BF13704FF0000388BF1570237082E6DA
:10073C004D04002048040020000C01405804002007
:10074C000100002000080140020000204E0400209F
:10075C00F0B58BB0002101AB03AA00F032FD58BB01
:10076C00DDE90331059A079D002A08BF1946BDF83B
:10077C00043009BB174A5BBA12889BB29A4200D06C
:10078C00D3B9002240F2DE30134E144F3368EDB271
:10079C00FA540133B3FBF0F400FB1433FA54013375
:1007AC00B3FBF0F400FB143301AC33601FFA81FC93
:1007BC00654503D802B133600BB0F0BD14F8012BC2
:1007CC000131FA540133B3FBF0F200FB1233012276
:1007DC00ECE700BF5004002040040020540000202F
:1007EC0038B504460C4D00F053FF284600F0E8FFE6
:1007FC000A4A136923F00203136100F05BFF00F057
:10080C0047FF224600232946012000F087FFBDE860
:10081C00384000F04FBF00BF00F800080020024035
:10082C00F8B5A748A74B02681B689A4213D040F250
:10083C00DE36A54911440A32B2FBF6F706FB172245
:10084C000B794D79012B8C790260C97904D19F4BBE
:10085C0044EA05251D80F8BD272B53D8012BFAD966
:10086C009A1E252AF7D801A050F822F03109000869
:10087C00510900086B090008A70900085109000874
:10088C006B090008A7090008E9090008050A000817
:10089C00130A00081B0A0008230A00085B0A000858
:1008AC00930A0008C10A00086308000863080008DE
:1008BC0063080008ED0A00086308000863080008D4
:1008CC006308000863080008630800086308000850
:1008DC00630800086308000863080008410A000860
:1008EC00410A0008410A0008410A0008410A0008B0
:1008FC00410A0008410A0008410A0008410A0008A0
:10090C00410A0008FE2B00F0FF80FF2B00F00A814B
:10091C005E2B04D8592B9ED96D4A13709BE7632B21
:10092C00FAD098E702226B4B1A7000F019FB6A4B55
:10093C0000F5EA30C030186000F012FB6430674BF1
:10094C00186077E063490A78042A14D0053A072A1C
:10095C0012D8DFE802F0411110411111113F5D492D
:10096C000A78032A07D0053A052A05D8DFE802F0F1
:10097C003003043004320B230B7000F0F1FA564BA9
:10098C0000F5EA30C030186000F0EAFA0122534B4F
:10099C00C83018604E4B1A705DE74E490A78032A2E
:1009AC001AD0043A072AE7D801A050F822F000BF69
:1009BC00DD09000885090008E5090008DD090008C3
:1009CC00850900088509000885090008E109000867
:1009DC000C23D1E70923CFE70A23CDE709223D4BAE
:1009EC001A7000F0BDFA3C4B00F5EA30C0301860CC
:1009FC0000F0B6FAC830A2E7364A1178042908BFCD
:100A0C0009231370EDE7334A11780529F7E7314ACA
:100A1C0011780329F3E72F4A1378032B07D0063BF1
:100A2C00052B07D8DFE803F0030606100A0D002299
:100A3C00284B1A700022254B1A800CE70522254BF7
:100A4C00F7E70422234BF4E70C231370F2E7214A57
:100A5C001378042BEBD0073B052BEBD801A151F8F5
:100A6C0023F000BF3B0A0008410A00088F0A000867
:100A7C00410A0008890A0008490A00080322154B9C
:100A8C00D7E70A23E1E7134A1378052BCFD0083BAD
:100A9C00042BCFD801A151F823F000BF3B0A00086A
:100AAC00BD0A0008890A0008410A00084F0A00081C
:100ABC000B23CAE70023074A1370044A1380CAE6C3
:100ACC003C0400204004002054000020540400206A
:100ADC00520400204C040020440400204804002050
:100AEC006B1EDBB2F92B9CBF204B1D70631EDBB25F
:100AFC00F92B9CBF1E4B1C704B1EDBB2F92B3FF627
:100B0C00AAAE1C4B1970A6E61B4A137000F028FA0B
:100B1C001A4B00F5EA30C030186000F021FA00F6EC
:100B2C00B8300CE70421164800F036FF01283FF4DA
:100B3C0092AE44EA0520134C00252080FFF750FEAE
:100B4C002288114B25801A80FE220B4B1A7000F064
:100B5C0007FA0A4B00F5EA30C030186000F000FAD2
:100B6C000A4B00F6B8301860258074E602000020AD
:100B7C0001000020000000204C0400204404002050
:100B8C0000080140540400205004002048040020B8
:100B9C001D4C08B500F0C6F9FFF7E4FBFFF74EFB60
:100BAC00FFF7CEFA00F0DAF800F012F90C2120462B
:100BBC0001F006FB0122236832201A64134B1A88B9
:100BCC00531EB3F57A7F28BF0022114B1A801B8865
:100BDC00584300F0CBF94FF4807101220D4800F01E
:100BEC00E1FE0D4A2368127864201A6400F0BEF905
:100BFC0000224FF48071074800F0D4FEFFF710FE7E
:100C0C00FFF7DEFBFAE700BF5804002000F80008ED
:100C1C0050040020000801400200002072B6FEE7DC
:100C2C000E4B82B09A6942F001029A619A6902F005
:100C3C0001020092009ADA6942F08052DA61DB69B3
:100C4C00074A03F080530193019B536823F0E06340
:100C5C0043F00073536002B0704700BF00100240B5
:100C6C0000000140FEE7FEE7FEE7FEE7FEE7704707
:100C7C007047704700F068B910B5044C204600F07E
:100C8C0036FB2046BDE81040FFF762BD2C0000206B
:100C9C00014801F067BB00BF980400200F4B1A6895
:100CAC0042F001021A6059680D4A0A405A601A68EB
:100CBC0022F0847222F480321A601A6822F48022A4
:100CCC001A605A6822F4FE025A604FF41F029A60AE
:100CDC004FF00062034B9A60704700BF0010024057
:100CEC000000FFF800ED00E00268084B82B09A4269
:100CFC000AD103F50333DA6942F00202DA61DB69E7
:100D0C0003F002030193019B02B070470004004002
:100D1C0010B5044686B01022002102A801F0CAFBCF
:100D2C0022680C4B9A4212D103F503339A690A4894
:100D3C0042F008029A619B6902A903F0080301932F
:100D4C00019B0223CDE90233059300F04BFD06B065
:100D5C0010BD00BF00040040000C014010B5002481
:100D6C008AB021461C2203A8CDE9014401F0A2FB64
:100D7C000B23154815498460C0E90013FF238461D7
:100D8C00C0E9033401F052F908B1FFF747FF0E48F0
:100D9C0001A9CDE9014401F015FA08B1FFF73EFFB6
:100DAC0000236022CDE903230C2207480DEB02013E
:100DBC000593079301F080F908B1FFF72FFF024864
:100DCC00FFF7A6FF0AB010BD580400200004004035
:100DDC0008B54FF416430A480A4AC0E90023002319
:100DEC000C22C0E90233C0E905230361C36101F0A1
:100DFC004FFA18B1BDE80840FFF710BF08BD00BF9F
:100E0C00980400200038014010B5044686B010222A
:100E1C00002102A801F04EFB22681B4B9A4230D1F4
:100E2C0003F558439A69194842F480429A619A69C9
:100E3C0002A902F480420092009A9A69002442F0BE
:100E4C0004029A619B694FF4007203F0040301934E
:100E5C00019B0223CDE902230323059300F0C2FC7E
:100E6C004FF48063094802A9CDE90234049400F0E0
:100E7C00B9FC25202246214600F04AFB252000F033
:100E8C0077FB06B010BD00BF0038014000080140E0
:100E9C00002103E00B4B5B58435004310A480B4BC9
:100EAC0042189A42F6D30A4A02E0002342F8043B65
:100EBC00084B9A42F9D3FFF7F1FE01F003FBFFF761
:100ECC0067FE704764250008000000201000002019
:100EDC001000002000050020FEE7000038B50E4B86
:100EEC0005461A784FF47A73B3FBF2F30B4A106889
:100EFC00B0FBF3F000F04AFB044658B90F2D09D8AB
:100F0C00024629464FF0FF3000F002FB2046044B0E
:100F1C001D6038BD0120FCE7080000200400002003
:100F2C000C000020074A08B51368032043F0100397
:100F3C00136000F0DBFA0020FFF7D0FFFFF770FE24
:100F4C00002008BD00200240034A044B11681B78A6
:100F5C000B441360704700BFD80400200800002029
:100F6C00014B1868704700BFD804002038B5044600
:100F7C00FFF7F6FF0546631C1EBF044B1B78E418F5
:100F8C00FFF7EEFF431BA342FAD338BD0800002045
:100F9C0038B5044600286ED090F820300BB9FFF716
:100FAC000DF92268136823F002031360FFF7D8FFD2
:100FBC00054623685A68910751D41A6842F0010219
:100FCC001A60FFF7CDFF054623685A68D20754D53F
:100FDC00227E0020012A1A680CBF42F0800222F007
:100FEC0080021A60627E012A1A680CBF42F040022D
:100FFC0022F040021A60A27E012A1A680CBF42F04D
:10100C00200222F020021A60E27E012A1A680CBF2C
:10101C0022F0100242F010021A60227F012A1A6894
:10102C000CBF42F0080222F008021A60627F012A0B
:10103C001A680CBF42F0040222F004021A60D4E9D0
:10104C0002210A4321690A4361690A436168013933
:10105C000A43DA610123606284F8203038BDFFF75F
:10106C007FFF401B0A28A4D9636A43F400336362F0
:10107C00052384F820300120F0E7FFF771FF401BB7
:10108C000A28A1D9F0E770B590F820200368013A3E
:10109C00012A62D80120D3F8002242F00102C3F8E1
:1010AC0000224A69D3F81C5202F01F04A04025EA22
:1010BC000005C3F81C52CD69C44395BBD3F80C5240
:1010CC00CE682540C3F80C528D8803EBC20245EA6A
:1010DC000645C2F840528E680D8845EA0645C2F8AE
:1010EC0044528A697ABBD3F804222240C3F8042202
:1010FC000A6962BBD3F814221440C3F814420A6A7A
:10110C00012A04BFD3F81C2202434FF0000008BF91
:10111C00C3F81C22D3F8002222F00102C3F80022EB
:10112C0070BD012DDDD1D3F80C520E680543C3F808
:10113C000C528D8803EBC20245EA0645C2F84052B8
:10114C008E688D89C9E7D3F804220243CEE7D3F821
:10115C0014220243C3F81422D1E7436A43F48023D8
:10116C0043620120DCE770B590F820300446012B77
:10117C00DDB220D10223026880F82030136823F0FE
:10118C0001031360FFF7ECFE064623685B6813F05F
:10119C00010302D11D4663620BE0FFF7E1FE801BE9
:1011AC000A28F2D9636A43F400336362052384F896
:1011BC002030284670BD436A012543F40023436266
:1011CC00F7E7F0B50446084694F8201001390129D8
:1011DC006CD8266840B9F168890707D1636A43F473
:1011EC0000130120636255E03169F5E706EB001549
:1011FC00D5F8B071010107F004079760002F4AD1B0
:10120C00D5F8B0717F0D1760D5F8B0710E4407F0AA
:10121C000207D760D5F8B47107F00F071761D5F83E
:10122C00B471D5F8B451C7F307272D0C97615561EC
:10123C00D6F8B8211A7022680A44D2F8B821120ADA
:10124C005A7022680A44D2F8B821120C9A7022689B
:10125C000A44D2F8B821120EDA7022680A44D2F885
:10126C00BC211A7122680A44D2F8BC21120A5A71A4
:10127C0022680A44D2F8BC21120C9A7122680A44E2
:10128C00D2F8BC21120EDA71236848B9DA6842F040
:10129C002002DA60F0BDD5F8B071FF085760B3E7F3
:1012AC001A69002042F020021A61F3E7636A43F4E2
:1012BC00802396E790F82030013B012B05D802687B
:1012CC0000205369194351617047436A43F48023EA
:1012DC0043620120704770477047704770477047F2
:1012EC0070477047704770477047704770472DE9DB
:1012FC00F84F036805465E69D3F8049016F00104B4
:10130C009F68D3F80CB0D3F810A0D3F8188022D073
:10131C0017F0010407D00122B9079A6040F1A580AB
:10132C00FFF7D9FF0024FB0509D54FF480722B6819
:10133C00B8059A6040F1A7802846FFF7CDFFFB0364
:10134C0009D54FF480322B68B8039A6040F1A9801C
:10135C002846FFF7C2FF330707D51BF0100F1FBF3E
:10136C0010222B6844F40074DA60770708D51BF060
:10137C00080F05D008222B682846DA60FFF7B1FF6A
:10138C00B00706D52B68DB68990702D02846FFF713
:10139C00DFF9720607D51AF0100F1FBF10222B6849
:1013AC0044F480641A61B30608D51AF0080F05D00E
:1013BC0008222B6828461A61FFF795FFF70606D519
:1013CC002B681B69980702D02846FFF78BFFB103E7
:1013DC0008D519F0100F05D010222B6828465A603A
:1013EC00FFF782FFF20308D519F0080F05D0082289
:1013FC002B6828465A60FFF778FF33042CD519F078
:10140C00040F2A6826D0F70504D518F0010F18BF71
:10141C0044F00104B00504D518F0020F18BF44F0D5
:10142C000204710504D518F0040F18BF44F004042D
:10143C0033050FD518F070030CD0402B4FD03ED88D
:10144C00202B46D0302B47D0102B3FD0936923F064
:10145C0070039361042353602CB16B6A28462343B9
:10146C006B62FFF743FFBDE8F88F7A0705D417F0DE
:10147C00080405D1FFF732FF55E74FF4006452E73B
:10148C004FF480544FE7790502D544F4005456E7E5
:10149C003A0502D544F4804451E72846FFF71FFF74
:1014AC004DE7790302D544F4004454E73A0302D5DE
:1014BC0044F480344FE72846FFF712FF4BE7502BDC
:1014CC0010D0602BC2D144F48074BFE744F0080400
:1014DC00BCE744F01004B9E744F02004B6E744F04C
:1014EC004004B3E744F08004B0E70000074903026E
:1014FC00CA6803F4E06322F4E0621204120C134392
:10150C0043F0BF6343F40033CB60704700ED00E061
:10151C00154B30B5DC68C4F30224C4F10703251D58
:10152C00042B28BF0423062D4FF0FF3594BF002455
:10153C00033C05FA03F321EA0303A54022EA050262
:10154C00A340002843EA0203ACBF00F16040074A05
:10155C004FEA0313DBB2ABBF00F5614000F00F00A4
:10156C0080F80033135430BD00ED00E014ED00E0C2
:10157C00002807DB01234109034A00F01F008340C8
:10158C0042F82130704700BF00E100E00138B0F1B3
:10159C00807F0BD24FF0E023F021054A586182F88E
:1015AC0023100020072298611A61704701207047B0
:1015BC0000ED00E008B590F82130022B03D0042395
:1015CC008363012008BD03681A6822F00E021A60BA
:1015DC001A6822F001021A60174A93421CD0143286
:1015EC0093421BD0143293421AD0143293421AD025
:1015FC00143293421AD0143293420CBF4FF480131E
:10160C004FF080730D4A53604FF480730384436B27
:10161C007BB198470020D5E70123F3E71023F1E7CE
:10162C004FF48073EEE74FF48053EBE74FF48033C5
:10163C00E8E71846C6E700BF080002400000024079
:10164C00114AD36813F0100305D01049CB6943F04D
:10165C000203CB611023D268500706D50B4943F027
:10166C000403CA6942F00102CA61074AD169C90779
:10167C0008D50648C16941F00401C161D16921F066
:10168C000101D161D360704700200240E0040020CA
:10169C00064B186910F0800007D0054A5A6002F119
:1016AC0088325A601869C0F3C0107047002002409D
:1016BC0023016745034A0020136943F0800313613B
:1016CC00704700BF0020024070B50546FFF748FC8C
:1016DC000646114CE368D80712D4E368990644BF58
:1016EC002023E360E368DA0606D4E369DB0703D45E
:1016FC00E06810F0040007D0FFF7A2FF012003E020
:10170C006B1CE7D00DB9032070BDFFF729FC801BC3
:10171C00A842DFD9F7E700BF002002402DE9F84FBF
:10172C00DFF894A01F469AF818300546012B88461E
:10173C0091463FD001234CF250308AF81830FFF715
:10174C00C3FF90BB012D03D0022D0CBF0225042535
:10175C0000263346DFF864B03401C4F12001A4F153
:10176C00200207FA01F129FA04F4CAF81C300C43E0
:10177C0027FA02F21443DBF81020A4B242F0010263
:10178C00CBF810204CF2503028F81640FFF79CFF95
:10179C00DBF8102022F00102CBF8102028B901361A
:1017AC00F2B295424FF00003D6D800238AF81830D5
:1017BC00BDE8F88F0220FBE7E00400200020024087
:1017CC000022064BDA61064B1A6942F002021A61DA
:1017DC0058611A6942F040021A617047E004002017
:1017EC00002002402DE9F74F00221646644F654B4E
:1017FC00DFF894C1DFF894E10D6835FA06F402D1F4
:10180C0003B0BDE8F08F4FF0010808FA06F805EABE
:10181C00080438EA05057AD14D68032D07D8013D37
:10182C00022D00F28780DFE805F0959AA000122DBA
:10183C0000F098806DD8112D00F08E80FF2C98BF91
:10184C0082464FF00F0988BF00F1040A4FEA860563
:10185C00DAF8008088BF203D09FA05FB28EA0B085E
:10186C0002FA05F548EA0505CAF80050D1F804A0BB
:10187C001AF0805F4BD0BD6926F0030845F00105D6
:10188C00BD61BD6908F1804805F00105019508F5B9
:10189C00803806F0030B019D4FEA8B0BD8F80850EB
:1018AC0009FA0BF925EA0909394DA84261D005F569
:1018BC008065A8425FD005F58065A8425DD005F52E
:1018CC008065A8420CBF0325042505FA0BF545EAF3
:1018DC000905C8F808501D681AF4803F14BF254349
:1018EC00A5431D605D681AF4003F14BF2543A54352
:1018FC005D609D681AF4801F14BF2543A5439D604D
:10190C00DD681AF4001F14BF2543A543DD600136C2
:10191C0072E7DFF880904D450CD017D8A9F58019E7
:10192C004D4507D009F570294D4503D0A9F580190F
:10193C004D4583D18A68D2B1012A08BFC0F8108006
:10194C004FF0080218BFC0F8148077E76545F1D056
:10195C007545EEE7CA6871E7CA6804326EE7CA6873
:10196C0008326BE7CA680C3268E7002266E704228B
:10197C0064E70025A9E70125A7E70225A5E700BF35
:10198C000010024000040140000031100000321031
:10199C0000080140000022108368194214BF012086
:1019AC00002070470AB1016170470904FBE7000091
:1019BC002DE9F341054638B30368DB0710D42B68D7
:1019CC009F075ED42B68190700F195802B685A0786
:1019DC0000F1C180E869002840F02C81002029E04A
:1019EC00904C636803F00C03042B07D0636803F07E
:1019FC000C03082B0AD16368DE0307D523689C030C
:101A0C00DDD56B68002BDAD1012013E06B68B3F5E0
:101A1C00803F12D1236843F480332360FFF7A0FA90
:101A2C00064623689803CAD4FFF79AFA801B6428E9
:101A3C00F7D9032002B0BDE8F0819BB9236823F4E9
:101A4C0080332360236823F480232360FFF788FA14
:101A5C00064623689903B2D5FFF782FA801B6428E7
:101A6C00F7D9E6E7B3F5A02F236803D143F480231D
:101A7C002360CFE723F480332360236823F480238F
:101A8C00CBE7684C636813F00C0F07D0636803F066
:101A9C000C03082B10D16368DA030DD423689B0761
:101AAC0002D52B69012BAFD123686A6923F0F803A7
:101ABC0043EAC203236085E72A695B4B6AB10122C2
:101ACC001A60FFF74DFA064623689F07ECD4FFF720
:101ADC0047FA801B0228F7D9ABE71A60FFF740FAE8
:101AEC000646236898077FF56DAFFFF739FA801B20
:101AFC000228F6D99DE7AA694A4E4B4BE2B1012266
:101B0C00C3F88024FFF72CFA0446736A9B070DD5A3
:101B1C004FF4FA52454B1B68B3FBF2F3019300BF31
:101B2C00019B5A1E0192002BF9D14FE7FFF718FACF
:101B3C00001B0228E9D97CE7C3F88024FFF710FAD0
:101B4C000446736A9F077FF541AFFFF709FA001B44
:101B5C000228F6D96DE7334CE369D80024D4012769
:101B6C00E36943F08053E361E36903F0805300932E
:101B7C00009B2F4E3368D90518D5EB68012B26D165
:101B8C00236A43F001032362FFF7EAF941F2883834
:101B9C000646236A9B073FD5002F3FF41BAFE36932
:101BAC0023F08053E36115E70027E2E7336843F441
:101BBC0080733360FFF7D4F980463368DA05DCD4E0
:101BCC00FFF7CEF9A0EB08006428F6D931E7ABB9E2
:101BDC00236A41F2883823F001032362236A23F03D
:101BEC0004032362FFF7BCF90646236A9807D3D592
:101BFC00FFF7B6F9801B4045F7D91AE7052B236A86
:101C0C0003D143F004032362BAE723F001032362F8
:101C1C00236A23F00403B6E7FFF7A2F9801B4045C3
:101C2C00B7D906E700100240000042420400002031
:101C3C00007000402A4C636803F00C03082B3ED064
:101C4C000022284B02281A662CD1FFF789F9064688
:101C5C002368990120D42B6AB3F5803F05D16268C3
:101C6C00A96822F400320A436260696A62680B4315
:101C7C0022F474121343012263601A4B1A66FFF7A5
:101C8C006FF9054623689A013FF5A8AEFFF768F98E
:101C9C00401B0228F6D9CCE6FFF762F9801B02281C
:101CAC00D6D9C6E6FFF75CF9054623689B017FF59C
:101CBC0095AEFFF755F9401B0228F6D9B9E6012875
:101CCC003FF4B8AE63682A6A03F4803191427FF422
:101CDC009BAE6A6A03F4701393423FF47FAE93E6B3
:101CEC00001002400000424230B5184B87B002ACE5
:101CFC0003F11005224618685968083303C2AB4239
:101D0C001446F7D140F201231149ADF804304B6869
:101D1C0003F00C02082A17D1C3F3834218326A4429
:101D2C00DB0312F8100C0CD54B680A4AC3F3404382
:101D3C00504318336B4413F8143CB0FBF3F007B06A
:101D4C0030BD054B5843FAE70248F8E74825000830
:101D5C000010024000127A0000093D002DE9F0410C
:101D6C000D46044610B90120BDE8F081444A1368C1
:101D7C0003F007038B4228D321688E0730D4CA079F
:101D8C0043D43F4A136803F00703AB4265D822687B
:101D9C003C4D12F0040F6CD1130706D56B68226909
:101DAC0023F4605343EAC2036B60FFF79DFF6B683B
:101DBC00354AC3F30313D35CD840344B1860344B0F
:101DCC001868FFF78BF80020CEE7136823F00703A1
:101DDC000B431360136803F007038B42C3D1CBE7AB
:101DEC00284B11F0040F1EBF5A6842F4E0625A608F
:101DFC00080742BF5A6842F460525A605A68A06899
:101E0C0022F0F00202435A60B9E762681D4E012AC3
:101E1C0033681AD113F4003FA5D0736841F28838A7
:101E2C0023F0030313437360FFF79AF807467368B4
:101E3C00626803F00C03B3EB820FA2D0FFF790F8AB
:101E4C00C01B4045F3D903208EE7022A02D113F0C0
:101E5C00007FE1E713F0020FDEE7136823F00703BE
:101E6C002B431360136803F00703AB427FF47BAF83
:101E7C008DE76B68E16823F4E0630B436B608BE7E1
:101E8C000020024000100240302500080400002011
:101E9C000C000020044B054A5B68C3F30223D35C9F
:101EAC00034A1068D84070470010024040250008D3
:101EBC0004000020044B054A5B68C3F3C223D35CC7
:101ECC00034A1068D84070470010024040250008B3
:101EDC0004000020036A70B523F001030362036A57
:101EEC00446882690D6822F073022A438D6823F0DE
:101EFC0002032B430A4DA8420BD1CD6823F00803F3
:101F0C002B4324F44074D1E90556354323F00403E4
:101F1C002C43446082614A684263036270BD00BF17
:101F2C00002C0140036A70B523F480730362036ACA
:101F3C004468C2690D6822F073022A438D6823F449
:101F4C00007343EA05230B4DA8420DD1CD6823F451
:101F5C00006343EA052324F44054D1E90556354384
:101F6C0023F4806344EA05144460C2614A68C26386
:101F7C00036270BD002C0140036A30B523F480531A
:101F8C000362036A4468C2690D6822F4E64242EABD
:101F9C0005228D6823F4005343EA0533064DA8420D
:101FAC0002BF4D6924F4804444EA85144460C26144
:101FBC004A680264036230BD002C01401A4A03686F
:101FCC0090420AD0B0F1804F07D0A2F594329042E3
:101FDC0003D002F58062904215D14A6823F0700359
:101FEC001343114A90420AD0B0F1804F07D0A2F5AA
:101FFC009432904203D002F58062904203D1CA68B9
:10200C0023F4407313434A6923F0800313430360A2
:10201C008B68C3620B688362034B984204BF0B69E5
:10202C000363012343617047002C014010B5044643
:10203C00A0B190F83D3003F0FF021BB980F83C20B2
:10204C00FEF752FE0223206884F83D30211DFFF775
:10205C00B5FF0123002084F83D3010BD0120FCE7C2
:10206C00036A70B523F010030362036A4468826943
:10207C000D6822F4E64242EA05228D6823F0200323
:10208C0043EA05130B4DA8420DD1CD6823F0800314
:10209C0043EA051324F44064D1E90556354323F093
:1020AC00400344EA8504446082614A6882630362A7
:1020BC0070BD00BF002C014038B590F83C30044690
:1020CC00012B4FF0020010D00123082A84F83C3079
:1020DC0084F83D003CD009D8D2B1042A28D0012381
:1020EC00002084F83D3084F83C0038BD0C2AF6D131
:1020FC002068FFF741FFC3690A6943F40063C361B9
:10210C00C36923F48063C361C36943EA02232DE0EE
:10211C002068FFF7DFFE83690A6943F008038361D7
:10212C00836923F004038361836913438361D6E7D6
:10213C002068FFF795FF83690A6943F400638361A4
:10214C00836923F480638361836943EA0223EDE7A7
:10215C002068FFF7E7FEC3690A6943F00803C3610F
:10216C00C36923F00403C361C3691343C361B6E7B6
:10217C0010B50124036A01F01F018C4023EA04030B
:10218C000362036A8A401A43026210BD006808B5F4
:10219C000122FFF7EDFF094B984202BF436C43F459
:1021AC0000434364836803F00703062B1EBF0368D8
:1021BC0043F001030360002008BD00BF002C014068
:1021CC00FFF7E4BF30B590F83C200346012A4FF0EE
:1021DC00020014D01C6883F83D006068A2680D688A
:1021EC00496820F0700022F0800228430A436060A6
:1021FC00A2600020012283F83C0083F83D2030BD12
:10220C000368DA6822F49072DA605A6922F00102EB
:10221C005A61202380F83A307047000038B50446E4
:10222C000368C1681A69192522F440520A431A61DD
:10223C0082680069D9680243606921F4B05121F0C9
:10224C000C0102430A43DA605A69A16922F4407214
:10225C000A435A610D4A934215D1FFF72BFE05FB39
:10226C0000F3626820689200B3FBF2F36422B3FBC4
:10227C00F2F102FB11331B013233B3FBF2F303EB2C
:10228C000113836038BDFFF705FEE8E70038014015
:10229C0010B5044640B390F8393003F0FF021BB977
:1022AC0080F83820FEF7B0FD2423226884F83930FA
:1022BC00D368204623F40053D360FFF7AFFF2368A5
:1022CC0000201A6922F490421A615A6922F02A02FB
:1022DC005A61DA6842F40052DA602023E06384F831
:1022EC00393084F83A3010BD0120FCE77047704754
:1022FC0090F83A3010B5222B24D181680469B1F5DD
:10230C00805F0268836A22D15268E4B9C2F3080282
:10231C0023F8022B8362C38D013B9BB2C3858BB91F
:10232C000368DA6822F02002DA60DA6822F480723C
:10233C00DA605A6922F001025A61202380F83A309F
:10234C00FFF7D5FF10BDD2B223F8012BE2E7591CE1
:10235C00526881620CB91A70DDE702F07F02FAE76D
:10236C0070470000036870B51A6804461607D968F0
:10237C005D6907D1960659D58D0657D5BDE87040D5
:10238C00FFF7B6BF05F0010001F4907505434DD081
:10239C00D60705D5CD0542BFE36B43F00103E363DC
:1023AC00530704D518B1E36B43F00203E3639607BC
:1023BC0004D518B1E36B43F00403E363150704D5AC
:1023CC0018B1E36B43F00803E363E36B4BB3900684
:1023DC0004D58A0602D52046FFF78AFF21682046DD
:1023EC004B69E26B03F0400302F0080253EA02056A
:1023FC0018D0FFF705FF4B695B060FD54B69606B77
:10240C0023F040034B6148B1254B4363FFF7D2F8EF
:10241C0038B1606BBDE87040436B18472046FFF73E
:10242C009FFF70BDFFF79CFFE563FAE7160628D502
:10243C000D0626D594F83920212AF2D1A168226AFA
:10244C00B1F5805F18D11188C1F308015960216979
:10245C0081B902322262E28C013A92B2E284002A01
:10246C00DFD1DA6822F08002DA60DA6842F04002EA
:10247C00DA60D6E70132EDE7511C216212785A601E
:10248C00E9E75006CDD54A06CBD5DA68204622F0CE
:10249C004002DA60202384F83930FFF727FFC0E7C9
:1024AC00B124000808B50023406AC385C384FFF734
:1024BC0057FF08BD03460244934200D1704703F80E
:1024CC00011BF9E770B500260C4D0D4C641BA410D4
:1024DC00A64209D100F01AF800260A4D0A4C641BDA
:1024EC00A410A64205D170BD55F8043B984701369F
:1024FC00EEE755F8043B98470136F2E75C250008F7
:10250C005C2500085C25000860250008F8B500BFB4
:10251C00F8BC08BC9E467047F8B500BFF8BC08BCB8
:04252C009E46704710
:102530000000000000000000010203040607080973
:102540000000000001020304020304050607080955
:0C2550000A0B0C0D0E0F10100000000014
:04255C003101000841
:042560000D01000861
:10256400321E2D000024F4000100000010000000C1
:0400000508000E9D44
:00000001FF
