:020000040800F2
:1000000000180020350B0008110B0008130B000826
:1000100000000000000000000000000000000000E0
:10002000000000000000000000000000150B0008A8
:100030000000000000000000170B0008190B00086A
:10004000B50B0008B50B0008B50B0008B50B000890
:10005000B50B0008B50B0008B50B0008B50B000880
:10006000B50B0008B50B0008B50B0008B50B000870
:10007000B50B0008B50B0008B50B0008B50B000860
:10008000B50B00080000000000000000B50B0008E0
:1000900000000000B50B0008B50B0008B50B000808
:1000A00000000000B50B0008B50B0008B50B0008F8
:1000B000B50B000800000000210B0008B50B00087C
:1000C00010B5064C2378002B07D1054B002B02D02E
:1000D000044800E000BF0123237010BD1000002081
:1000E00000000000201C0008044B10B5002B03D0BA
:1000F0000349044800E000BF10BDC04600000000F6
:1001000014000020201C000802B471464908490070
:10011000095649008E4402BC7047C04602B471467D
:1001200049084900095C49008E4402BC7047C0463A
:1001300003B47146490840004900095E49008E44F5
:1001400003BC7047002243088B4274D303098B42DF
:100150005FD3030A8B4244D3030B8B4228D3030C97
:100160008B420DD3FF22090212BA030C8B4202D339
:100170001212090265D0030B8B4219D300E0090A61
:10018000C30B8B4201D3CB03C01A5241830B8B426A
:1001900001D38B03C01A5241430B8B4201D34B0353
:1001A000C01A5241030B8B4201D30B03C01A5241B8
:1001B000C30A8B4201D3CB02C01A5241830A8B423D
:1001C00001D38B02C01A5241430A8B4201D34B0226
:1001D000C01A5241030A8B4201D30B02C01A52418A
:1001E000CDD2C3098B4201D3CB01C01A524183093E
:1001F0008B4201D38B01C01A524143098B4201D378
:100200004B01C01A524103098B4201D30B01C01AA2
:100210005241C3088B4201D3CB00C01A524183081C
:100220008B4201D38B00C01A524143088B4201D349
:100230004B00C01A5241411A00D2014652411046A9
:100240007047FFE701B5002000F006F802BDC04688
:100250000029F7D076E770477047C046D0400B00C2
:10026000D1409C46203AD3401843524263469340C3
:10027000184370470B480C4BC02210B503600C2389
:10028000120343600261002380228361520383834F
:100290008360C360426100F0E7FC002801D000F0F9
:1002A0001DFC10BD2C0000200064004010B50400AF
:1002B00088B01422002103A801F086FC174B2268A5
:1002C0009A4228D18021164B8904DA6990200A438A
:1002D000DA61DA69C0050A4080210192019A5A69FF
:1002E00089020A435A615B690B400293029BC02357
:1002F0005B010393022304930133069303A90133A3
:10030000079301F093F800221E20110000F082FFF5
:100310001E2000F0A9FF08B010BDC04600640040D8
:100320000010024030B589B01422002103A801F06A
:100330004BFC8021174BC9035A6990240A435A6128
:100340005A69E4050A4080210192019A5A6989029A
:100350000A435A615B6900220B4020000293072187
:10036000029B01F01BF9072300250393063B2000A5
:10037000049303A901330593069501F057F88023F0
:1003800020001B0203A903930495059501F04EF884
:1003900009B030BD0010024030B593B02C220021CE
:1003A00007A801F011FC1022002101A801F00CFCAB
:1003B00080235B020F938023012402255B0305A8A1
:1003C000059406940E95109301F0EEF8002801D0E4
:1003D00072B6FEE70723019380230390DB00210020
:1003E00001A80295049301F065FB002801D072B6C4
:1003F000FEE713B030BD0000902070B5002204214C
:10040000C00501F0CBF8902000220121C00501F0C9
:10041000C5F8902000220221C00501F0BFF8924CDF
:100420002378002B24D10022904B1A70904B1B880C
:10043000002B1CD12578002D19D180219020090294
:10044000C00501F0A5F88B4E012800D1F8E000F0BE
:10045000F3FB894BC018894B30601978002900D014
:10046000E4E0012211009020C00501F097F870BD72
:1004700000F0E2FB824B1B68984204D900237B4AC0
:1004800023701370D2E72078022823D1774D297882
:10049000002916D1012211009020C00501F07EF83C
:1004A00000F0CAFB734E33689842BFD92B780133F2
:1004B0002B7000F0C1FB64302B783060022BDDD84C
:1004C000B4E7012902D10A000331E5E70229E7D1A7
:1004D0000122E1E70C280BD80228A7D90438082804
:1004E00022D8FFF71BFE282B2E464D587D848E0008
:1004F000FE289BD15D4D2978002900D08CE0012297
:1005000011009020C00501F049F800F095FB594E0C
:100510003368984200D889E72B7801332B7000F0BC
:100520008BFB554BC018C7E7012204219020C00562
:1005300001F034F87AE701220221F7E701221100E5
:10054000F4E74A4D01222B78002B55D000F074FBC4
:10055000484E3368984200D868E72B7801332B70F7
:1005600000F06AFB2B78C8303060012B00D95AE7C5
:100570005CE73E4D01222B78002BE7D1022105E0FC
:100580003A4D2B78002BE1D1012211009020C005BB
:1005900001F004F8DAE7354D2A78002A18D1042151
:1005A00001329020C00500F0F9FF00F045FB314E0C
:1005B0003368984200D839E72B7801332B7000F06C
:1005C0003BFB2B78C8303060022B00D92BE72DE79E
:1005D0000221012AE5D0022AE7D1013A1100E0E721
:1005E000224D2978002913D101220431CEE71F4D75
:1005F0002A78002A02D101320421C7E7012AA5D1B5
:10060000BCE71A4D2978002902D101220231BDE749
:1006100001299BD10A00B9E7012902D10A0003315F
:100620006FE7022900D070E701226AE7012902D1B1
:100630000A00033117E70122022900D017E712E769
:1006400000F0FAFA3368984200D310E70B4A35609D
:1006500013780133DBB2022B03D81370002323700D
:1006600005E71570FAE7C0464C0400204D04002051
:100670005004002048040020B80B00004E04002065
:1006800044040020F0B58DB0002103AB05AA00F0B2
:1006900017FC00282ED1079B099A059D002B00D03E
:1006A000069D02AB9B88002D24D118495BBA0988AE
:1006B0009BB2994201D0002B1CD10024144E154F3F
:1006C0003068D3B23C54144901300193FFF7C0FDA8
:1006D0007C54481C1049FFF7BBFD6A4692882300F2
:1006E0003160019201340198AAB2824204D3002BF6
:1006F00000D031600DB0F0BD03AB5B5D481C7B5496
:100700000549FFF7A5FD01352300ECE75004002063
:100710004004002054000020DE03000070B50C4DA2
:10072000040000F0E5FD280000F06EFE0221094AF9
:1007300013698B43136100F0EFFD00F0D9FD290030
:1007400022000023012000F01BFE00F0E5FD70BD3B
:10075000007C000800200240F8B5934F934B3868A6
:100760001B6898420FD0924B92491B180A301C7993
:100770005D799E79FFF76CFD3960012C04D18E4BB9
:100780002D0235431D80F8BD272C2CD8012CFAD919
:10079000A01E2528F7D8FFF7CBFC4F0061006E00A4
:1007A000880061006E0088009B00A900AF00B500C2
:1007B000BA00D200E300F400F6FFF6FFF6FFF6FF02
:1007C000F6FFF6FFF6FFF6FFF6FFF6FFF6FFF6FF81
:1007D000F6FF5D005D005D005D005D005D005D0099
:1007E0005D005D005D00FE2C00D1CFE0FF2CCAD182
:1007F000802190200902C00500F0CAFE0128C2D065
:100800006D4C280230432080FFF788FF22886B4B15
:1008100000251A80FE226A4B25801A7000F00CFA1F
:10082000684A694B8018186000F006FA674A684BFE
:10083000801818602580A6E70222614B1A7000F02C
:10084000FBF9604A604B8018186000F0F5F9604BC6
:10085000643018600022584B1A8094E7584B18787F
:10086000042814D00538072812D8FFF757FC2F1199
:10087000102F1111112D524B1878032807D005386D
:10088000052805D8FFF74AFC1E03041E04200B248C
:100890001C7000F0D1F94B4A4B4B8018186000F0E7
:1008A000CBF94B4BC83018606DE7454B18780328DF
:1008B0000CD004380728EBD8FFF726FC04EA08041C
:1008C000EAEAEA060C24E3E70924E1E70A24DFE781
:1008D00009223B4B1A7000F0AFF93A4A3A4B8018A4
:1008E000186000F0A9F93A4BC830B2E7344B1A78D7
:1008F000042A05D1092403E0314B1A78052AF9D0DE
:100900001C70E8E72E4B1A78032AF9D1F2E72C4B3A
:100910001878032807D0063805289BD8FFF7F4FB82
:10092000039A9A0D070A0022254B1A7092E70522B6
:10093000234BFAE70422224BF7E70C22F5E7204B82
:1009400018780428EFD00738052883D8FFF7DCFB98
:10095000EB82068203EF0322194BE6E70A22E4E763
:10096000174B18780528DED00838042800D971E71D
:10097000FFF7DEFBD9FF0500F1FF70FFE0FF0B2260
:10098000D3E700220E4B1A700B4B65E70C4B1C7023
:1009900000F052F90B4A0C4B8018186000F04CF92B
:1009A0000A4A0B4B801854E73C0400204004002006
:1009B00054000020DE0300005204002050040020F8
:1009C0004C040020C0D4010044040020B80B0000F7
:1009D00048040020002310B5134C8AB005930093FF
:1009E00001930293039304930693013307930893AF
:1009F00069460D332000099300F0BFF9002801D0AB
:100A000072B6FEE70221200000F0E3FA002801D0D0
:100A100072B6FEE7200000F023FA002801D072B67B
:100A2000FEE70AB010BDC0462C00002010B500F053
:100A3000E7F8FFF7B1FCFFF775FCFFF71BFCFA20A6
:100A4000400000F0FFF8FA21224B234C1A8889005D
:100A5000531E9BB28B4239D22280FFF7BBFF9020FE
:100A600000220421C00500F099FD90200022012100
:100A7000C00500F093FD902000220221C00500F087
:100A80008DFD32202388584300F0DCF890200122AD
:100A90000421C00500F082FD642000F0D3F890200E
:100AA00000220421C00500F079FD902000220121E0
:100AB000C00500F073FD902000220221C00500F067
:100AC0006DFDFFF749FEFFF797FCFAE7002323804F
:100AD000C3E7C046007C00085004002072B6FEE761
:100AE00001210A4B82B09A690A439A619A690A40C5
:100AF00080210092009ADA6949050A43DA61DB69CC
:100B00000B400193019B02B07047C04600100240A9
:100B1000FEE7FEE77047704710B500F081F810BDA2
:100B200010B5024800F074FA10BDC0462C00002039
:100B3000704700001348854613480168090E134AA0
:100B4000914205D1124813490160134813490160CD
:100B500013481449144A002302E0D458C450043303
:100B6000C4188C42F9D3114A114C002301E01360E0
:100B70000432A242FBD3FFF7DBFF01F02DF8FFF7B1
:100B800055FFFEE700180020040000001F000000D1
:100B900018100240010000000000014000000000A9
:100BA000000000200C000020701C00081000002035
:100BB00078040020FEE7000070B50500FA200D4B18
:100BC00080001978FFF7BEFA0B4C01002068FFF790
:100BD000B9FA00F055FB04000120002C09D1032DC7
:100BE00007D802382200290000F014FB2000034B34
:100BF0001D6070BD040000200000002008000020DF
:100C00001023064A10B5116803200B431360FFF749
:100C1000D3FFFFF765FF002010BDC0460020024053
:100C2000034A044B11681B785B1813607047C04679
:100C30005404002004000020014B18687047C0468F
:100C40005404002070B50400FFF7F6FF0500631C94
:100C500002D0044B1B78E418FFF7EEFF401BA042C4
:100C6000FAD370BD04000020F8B504000120002C68
:100C700064D02518EB7F002B02D12000FFF716FB74
:100C80000127226813683B431360FFF7D5FF060076
:100C900023685A683A4244D002271A68BA431A6055
:100CA000FFF7CAFF060023685A683A4247D1217EFF
:100CB0008022012949D119680A431A60617E4022C5
:100CC000012946D119680A431A60A17E2022012910
:100CD00043D119680A431A60E17E1022012940D1EC
:100CE000196891431960217F082201293DD11968B3
:100CF0000A431A60617F042201293AD119680A4324
:100D00001A60E168A26800200A4321690A43616908
:100D10000A43616801390A43DA6101236062EB77B3
:100D20000CE0FFF789FF801B0A28B1D98023626A93
:100D30009B021343636205230120EB77F8BDFFF7A5
:100D40007BFF801B0A28AED9F0E719689143196030
:100D5000B4E7196891431960B7E7196891431960BE
:100D6000BAE719680A431A60BDE719689143196028
:100D7000C0E7196891431960C3E770B5421CD27F80
:100D80000368013A012A64D880240120A4001A597A
:100D9000872602431A514A69E23CFF3C1440A040B6
:100DA000B6009C59C54384439C51CC69002C35D175
:100DB000103E9C59D2002C409C51CC684E682404B3
:100DC000B6B2344390269A18B60094518C680E68D7
:100DD0002404B6B234439126B600945181228C6922
:100DE0009200002C2FD19C582C409C5085220C69DD
:100DF0009200002C2AD19C582C409C500A6A012A4F
:100E000004D1872189005A5802435A508021012079
:100E100089005A58824300205A5070BD012CDDD100
:100E20008326B6009C59D20004439C510C684E683E
:100E30002404B6B2344390269A18B60094518C68B4
:100E4000CE682404C5E79C580443CEE79C5804436D
:100E5000D3E78023426ADB02134343620120DCE7CD
:100E6000F7B5461CF37F0400DDB2012B21D101331D
:100E7000F37702682F001368AB431360FFF7DCFEC3
:100E8000019023685A6813003B403A4202D11D008A
:100E900063620CE0FFF7D0FE019BC01A0A28F0D96C
:100EA0008023626A9B02134363620523F377280061
:100EB000FEBD8023426A1B03134301254362F6E70C
:100EC000F7B504000800611CC97F0139012900D968
:100ED0007BE021680191019D0321002809D1EE6882
:100EE0000E4208D18023626A9B0313430120636290
:100EF00061E02E69F4E7D826019D010169180425F7
:100F000076008F592F40976056D18F597F0D17600B
:100F100002278E593E40D6600826B337FF37CD5999
:100F2000354202D10F25CE592E401661CE59C959EE
:100F3000360A090C5161F6B20199966102018D18C9
:100F4000B935FF352968197021688918B931FF3121
:100F50000968090A597021688918B931FF3109688F
:100F6000090C997021688918B931FF310968090E97
:100F7000D97021688918BD31FF310968197121685C
:100F80008918BD31FF310968090A5971216889182A
:100F9000BD31FF310968090C997121688A18BD3289
:100FA000FF321268120EDA7122682023002807D15E
:100FB000D1680B43D360FEBD8F59FF085760A7E788
:100FC000116900200B431361F5E78023626ADB029D
:100FD0008BE7421CD27F0B00013A012A05D8026838
:100FE000002051691943516170478023426ADB0236
:100FF000134343620120F7E770477047704770471B
:101000007047704770477047704770477047704728
:10101000F0B5036885B05E695A689F680192DA6826
:10102000340002921A69050003929A690092012223
:101030001440164222D03C001440174206D09A6059
:10104000BB0700D4AAE0FFF7D7FF002480235B0092
:101050001F4207D02A689360BB0500D4AEE0280089
:10106000FFF7CBFF80235B021F4207D02A68936003
:10107000BA0300D4B1E02800FFF7C0FF330708D55A
:101080001023029A1A4204D08022920014432A6844
:10109000D360730708D50823029A1A4204D02A683D
:1010A0002800D360FFF7AEFFB30706D52B68DB68D7
:1010B0009B0702D02800FFF7E5FA730608D5102336
:1010C000039A1A4204D08022D20014432A68136182
:1010D000B30608D50823039A1A4204D02A682800C8
:1010E0001361FFF791FFF30606D52B681B699B0779
:1010F00002D02800FFF787FFB30308D51023019A19
:101100001A4204D02A6828005360FFF77EFFF303D9
:1011100008D50823019A1A4204D02A68280053608F
:10112000FFF774FF33042FD5019B2A685B0729D58D
:10113000F30504D501230099194200D01C43B305DF
:1011400004D502230099194200D01C43730504D52D
:1011500004230099194200D01C43360512D5702192
:10116000009B00980B4008420CD0402B49D040D83F
:10117000202B48D0302B48D0102B41D070219369C0
:101180008B43936104235360002C05D06B6A2800C5
:1011900023436B62FFF73BFF05B0F0BD7B0707D42D
:1011A00008233C001C401F4205D1FFF728FF4DE7F4
:1011B000802424014AE78024640147E77B0503D5A6
:1011C00080239B011C434DE73B0502D58023DB01B7
:1011D000F8E72800FFF714FF44E77A0303D58023DC
:1011E0001B021C434AE73F03FBD42800FFF709FF1B
:1011F00044E7502B0BD0602BC0D180235B0000E074
:1012000008231C43BAE71023FBE72023F9E78023D8
:10121000F7E7000030B5FF2503242A000440E4006E
:10122000A24089012940D243A140C3B200280ADB71
:10123000C0240B4B80088000C018A4000359134041
:101240000B43035130BD0F200340083B05489B086A
:101250009B001B18D86902400A43DA61F2E7C046D6
:1012600000E100E000ED00E0002805DB1F2318404E
:101270001E3B8340014A13607047C04600E100E016
:101280008022431E5204012093420DD2C021074AFE
:1012900007485360036A09061B021B0A0B430362DB
:1012A00000200723906013607047C04610E000E004
:1012B00000ED00E00C4A1021D06830B503000B406F
:1012C000084205D002230948C4692343C3610B00C7
:1012D0000420D168014205D00121044C0343E56993
:1012E0002943E161D36030BD002002405804002052
:1012F000064B00201A69120606D5054A5A60054AAF
:101300005A6018690006C00F7047C04600200240AE
:1013100023016745AB89EFCD8023034A0020116983
:101320000B4313617047C0460020024070B50400B3
:10133000FFF782FC01260500104BDA68324211D11A
:101340002022D968114200D0DA60D9681022080042
:101350001040114202D1DB685B0708D5FFF7AAFFF6
:10136000012004E0621CE8D0002C01D1032070BDF4
:10137000FFF762FC401BA042DED9F7E700200240E5
:10138000F0B585B003931D4B009102921A7E0400C4
:101390000220012A30D0012219481A76FFF7C6FF31
:1013A000002826D12600012C02D0022C00D00426D1
:1013B0000024124B0193029803992201FEF74EFF7D
:1013C00000220127019B0F4DDA612B69009A3B43F4
:1013D0002B6163009B1880B218800948FFF7A6FFB5
:1013E0002B69BB432B61002803D1E419E3B29E4271
:1013F000E1D80022014B1A7605B0F0BD5804002058
:1014000050C30000002002400022064BDA61064B68
:10141000023219690A431A614022586119690A4364
:101420001A61704758040020002002400023F0B5E4
:1014300087B00A681400DC4001D107B0F0BD012577
:1014400014009D402C4000942A4200D194E04A6848
:101450005F0094460322644622400324BC40E443D8
:101460000194541E012C2ED88668019C2640CC681D
:10147000BC403443846044680126AC432500644684
:10148000240934409C402C434460C568019C25409D
:101490008C68BC402C43C460022A16D107250F2655
:1014A0001D40AD00AE40DC08A40004190294246A7B
:1014B00003962600039CA64334000E69AE402643E3
:1014C000029C266201E0032ADFD1BA400468019D34
:1014D00025402A43C02402606246A40222424BD027
:1014E0000125264A90279469FF052C43946192694F
:1014F0009C082A400592059A214AA400A4180F22AC
:1015000002351D40AD00AA40A66896430022B842AD
:1015100008D01C4F0132B84204D01B4F0132B842F0
:1015200000D00332AA4067463243A260174A009CAB
:101530009668009DE4433543FF0201D43500254001
:1015400067469560D668009D3543BF0201D43500DB
:1015500025406746D5605668009D3543BF0301D4DA
:1015600035002540674655601568009E2E43FF03F1
:1015700001D425402E00166001335AE700100240C6
:101580000000014000040048000800480004014039
:1015900000690840431E9841C0B27047002A01D03C
:1015A000816170478162FCE7F0B5040085B00028D6
:1015B0004ED00368DB0733D423689B0700D58AE04D
:1015C00023681B0700D5CAE023685B0700D5EDE060
:1015D0002368DB061AD562690423BB4D012A00D0BB
:1015E00056E1696B02270B436B636B6B1A436A63AB
:1015F000FFF722FB06006B6B3B4200D141E1F82173
:101600006A6BA3698A43DB0013436B6323689B0601
:1016100000D565E1636A002B00D0A4E100202FE033
:101620000C22A94D6B681340042B0BD06B68134040
:10163000082B0FD1C0226B68520213408022520245
:10164000934207D12B689B03B6D56368002BB3D1B7
:10165000012015E06368012B14D180232A685B0206
:1016600013432B60FFF7E8FA80270600BF022B68C0
:101670003B42A1D1FFF7E0FA801B6428F7D9032091
:1016800005B0F0BD002B16D12B68904A802713407F
:101690002B602B688E4ABF0213402B60FFF7CCFAF9
:1016A00006002B683B4200D186E7FFF7C5FA801B96
:1016B0006428F6D9E3E7052B05D180232A68DB02ED
:1016C00013432B60C9E72B68804A13402B602B68BB
:1016D0007F4A1340C5E70C227B4D6B6813420BD049
:1016E0006B681340082B15D1C0226B68520213405F
:1016F0008022120293420DD12B689B0702D5E3682A
:10170000012BA5D1F8212A6823698A43DB00134302
:101710002B6055E7E2680123002A0FD02A680227D0
:1017200013432B60FFF788FA06002B683B42E9D190
:10173000FFF782FA801B0228F7D9A0E72A68022760
:101740009A432A60FFF778FA06002B683B4200D1E3
:1017500036E7FFF771FA801B0228F6D98FE7E269B6
:101760000123594D002A10D06A6A022713436B6285
:10177000FFF762FA06006B6A3B4200D024E7FFF7EE
:101780005BFA801B0228F6D979E76A6A02279A4336
:101790006A62FFF751FA06006B6A3B4200D113E719
:1017A000FFF74AFA801B0228F6D968E78022002159
:1017B000454D5205EB690091134208D1EB69134383
:1017C000EB61EB6913400393039B01230093802794
:1017D000404E7F0033683B4215D0A368012B22D1D5
:1017E0002A6A13432B62FFF727FA022706002B6AA7
:1017F0003B423FD0009B012B00D0E9E6EB69364A23
:101800001340EB61E4E633683B433360FFF714FABF
:10181000019033683B42E0D1FFF70EFA019BC01AFA
:101820006428F6D92BE70122002B14D12B6A02275A
:1018300093432B622B6A033293432B62FFF7FCF92D
:1018400006002B6A3B42D5D0FFF7F6F9234B801BED
:101850009842F6D913E7052B05D1296A013B0B43C2
:101860002B622B6ABDE72B6A934304222B622B6AFF
:101870009343B7E7FFF7E0F9184B801B9842B6D9BE
:10188000FDE6FFF7D9F9801B022800D8B3E6F6E69B
:10189000053203D16A6B9A436A63B0E66A6B02272A
:1018A000134301226B636B6B93436B63FFF7C4F9C4
:1018B00006006B6B3B4200D1A8E6FFF7BDF9801B29
:1018C0000228F6D9DBE6C04600100240FFFFFEFF0B
:1018D000FFFFFBFF00700040FFFFFFEF88130000D9
:1018E0000C22554D6B681340934209D06B6813402E
:1018F000082B0ED1C0226B6852021340934208D1CC
:101900006B6B9B0300D485E6236A012B00D09FE616
:1019100080E6236A002B13D080236A6B5B0213439B
:101920006B63FFF789F980270600BF026B6B3B42B0
:1019300000D06FE6FFF780F9801B0228F6D99EE6FB
:101940006B6B3E4A802713406B63FFF775F9060007
:10195000BF026B6B3B4200D15CE6FFF76DF9801B69
:101960000228F6D98BE60C21334D6A680A40082A12
:1019700047D0334A022B32D12B68802713402B608B
:10198000FFF75AF90600BF042B683B4221D10F2212
:10199000EB6A80269343226BB6041343EB62A16A81
:1019A000E36A6A680B4327490A4013436B6080234C
:1019B0002A685B0413432B60FFF73EF904002B6891
:1019C000334200D02AE6FFF737F9001B0228F6D988
:1019D00055E6FFF731F9801B0228D5D94FE62B6871
:1019E000802613402B60FFF727F90400B6042B680C
:1019F000334200D112E6FFF71FF9001B0228F6D987
:101A00003DE6012B00D123E6C0216B68A06A4902A4
:101A1000EA6A1940814200D01AE60F210A40216B80
:101A20008A4200D014E6F02292031340E26A934205
:101A300000D1F3E50CE6C04600100240FFFFFEFFB8
:101A4000FFFFFFFEFF7FC2FF0C2070B5134D6B68D8
:101A50001840082808D00C38431E9841104B4042CB
:101A60001840104BC01870BD0F200F499A0C02404F
:101A70008C5CEA6A0D490240895CC02280205202D7
:101A800013404002834201D1094802E09342FBD156
:101A90000448FEF757FB6043E5E7C04600100240EC
:101AA00000A69DFD006CDC02481C0008581C0008C4
:101AB00000127A00F7B504000F00002801D10120C0
:101AC000FEBD01223A4D2B6813408B421CD3226885
:101AD000930722D4D2072FD401232A681A40BA428E
:101AE00057D82368334D5B075AD4FFF7ADFF6B68B7
:101AF000314A1B061B0FD35C3049D84008600320D5
:101B0000FFF75AF80020DBE72B6893430B432B6069
:101B10002B6813408B42D2D1D9E72649530704D50D
:101B2000E0234868DB0003434B60F0204B688343AD
:101B3000A06803434B60CDE762681E4E012A03D1C3
:101B400033689B0305D4BAE7022A1AD133689B0194
:101B5000B5D5032173688B4313437360FFF76CF8AB
:101B600001900C2372681A4063689B009A42B3D0BC
:101B7000FFF762F8019BC01A114B9842F1D903207C
:101B80009EE7032A01D1736BDBE733689B07E0D440
:101B900095E72A689A432A602A681A42A1D08EE7FC
:101BA0006B68084A1340E26813436B609DE7C046C8
:101BB0000020024000100240381C000800000020F5
:101BC00088130000FFF8FFFF03008218934200D142
:101BD000704719700133F9E770B500260C4C0D4DB4
:101BE000641BA410A64209D1002600F019F80A4C83
:101BF0000A4D641BA410A64205D170BDB300EB587A
:101C000098470136EEE7B300EB5898470136F2E704
:101C1000681C0008681C00086C1C0008681C000890
:101C2000F8B5C046F8BC08BC9E467047F8B5C0463B
:081C3000F8BC08BC9E46704799
:101C38000000000000000000010203040607080974
:101C480002030405060708090A0B0C0D0E0F1010F5
:101C58000102030405060708090A0B0C0D0E0F10F4
:041C6800E900000887
:041C6C00C1000008AB
:0C1C700000127A000100000004000000D7
:0400000508000B35AF
:00000001FF
