:020000040800F2
:20000000E8080020010100082923000897200008252300088D01000871360008000000001E
:200020000000000000000000000000003530000801020008000000002B2300087530000845
:200040001B0100081B0100081B0100081B0100081B0100081B0100081B0100081B01000880
:200060001B0100081B0100081B0100081B0100081B0100081B0100081B0100081B01000860
:200080001B0100081B0100081B0100081B0100085D3600081B0100081B0100081B010008C9
:2000A0001B0100081B0100081B0100081B0100081B0100081B0100081B0100081B01000820
:2000C0001B0100081B0100081B0100081B0100081B0100084D3600081B0100081B01000899
:2000E0001B0100081B0100081B010008DFF80CD000F03AF800480047CD360008E808002015
:200100000648804706480047FEE7FEE7FEE7FEE7FEE7FEE7FEE7FEE7FEE7FEE7E13000082A
:20012000ED000008202A04DB203A21FA02F00021704721FA02F3D040C2F120029140084351
:2001400019467047D2B201E000F8012B491EFBD270470022F6E710B513460A4604461946FF
:20016000FFF7F0FF204610BD064C074D06E0E06840F0010394E8070098471034AC42F6D302
:20018000FFF7B8FF84370008A437000800BFFEE7F0B587B005460E461746002400200290BA
:2001A0000095049603908DF8140008E0601C84B24FF6FE70844202DD012007B0F0BD0F4816
:2001C00000F0C1FA0028F1D0052000F00BFE002409E0601C84B2B4F57A7F01DD0120ECE73A
:2001E000012000F0FFFD06AB3A466946034800F0BCF80028EDD100BFDFE700002004002074
:20020000704770470021074AD1610749096941F00201054A116111464861096941F0400131
:2002200011617047C8040020002002400022054BDA61054A126942F00102034B1A61018051
:2002400070470000C80400200020024000201E49C96801F0100139B11C49C96941F002012A
:200260001A4AD16140F010001749C96801F0040139B11649C96941F00101144AD16140F0B3
:2002800004001149C96901F0010169B10F49C96941F004010D4AD16100BF0B49C96921F022
:2002A0000101094AD16100BF00BF40F20111884206D10549C96921F00101034AD16101E061
:2002C0000149C86000BF704700200240C804002070B5044600F0B2FF054609E0601C38B13F
:2002E00024B100F0ABFF401BA04201D9032070BD1248C06800F001000028EFD10F48C0684E
:2003000000F0200020B100BF20200C49C86000BF0A48C06800F0100048B90848C06900F0DD
:20032000010020B90548C06800F0040018B1FFF78DFF0120DBE70020D9E70000002002400A
:2003400010B5024692F82030012B01D0022B06D110684069084314686061002010BD506A65
:2003600040F4802050620120F8E7F0B504460D461E4694F8207020688368A86800B900E019
:2003800000BF012F01D0022F7CD103F0806030B903F0006018B903F08050002873D0C3F35B
:2003A0000161022905D9606A40F4000060620120F0BD012088403060A86860B9B5F800C035
:2003C000E86840EA4C5C206800F5C07000EB0110C0F800C00FE0D5E901C040EACC00D5F8A9
:2003E0000CC040EA0C00D4F800C00CF5C07C0CEB011CCCF80000D5F810C0206800F5C07010
:2004000000EB0110C0F804C0287D01280ED1206800F5C07000EB0110406840F4807C2068AE
:2004200000F5C07000EB0110C0F804C0D079000692F806C040EA0C4092F805C040EA0C2C59
:2004400010794CEA000C206800F5C07000EB0110C0F80CC0D078000692F802C040EA0C4094
:2004600092F801C040EA0C2092F800C040EA0C00D4F800C00CF5C07C0CEB011CCCF80800B2
:20048000206801E016E00FE000F5C07000EB0110006840F0010C206800F5C07000EB01109F
:2004A000C0F800C0002083E7606A40F40010606201207DE7606A40F480206062012077E706
:2004C000F0B504460A46216894F82050012D01D0022D74D1D1F8000240F00100C1F800022E
:2004E000107D00F01F06012000FA06F3D1F81C029843C1F81C02D069C8B9D1F80C02984341
:20050000C1F80C02908880B2968940EA064601F51070576940F83760108880B2168940EA9D
:20052000064601F51070576900EBC7004660D069012819D1D1F80C021843C1F80C02908884
:2005400080B2168840EA064601F51070576940F83760908980B2168940EA064601F510707A
:20056000576900EBC7004660906928B9D1F804029843C1F8040204E0D1F804021843C1F859
:200580000402106928B9D1F814029843C1F8140204E0D1F814021843C1F81402106A0128E2
:2005A00004D1D1F81C021843C1F81C02D1F8000220F00100C1F800020020F0BDFFE7606A39
:2005C00040F4802060620120F7E7704770B5044694F82050012D01D0022D7DD151B9206856
:2005E000C06800F0030080B9606A40F400106062012070BD2068006900F0030028B9606AFA
:2006000040F4001060620120F3E7206800F5D87000EB0110006800F004009060906840B9DB
:20062000206800F5D87000EB01100068400D106007E0206800F5D87000EB01100068C008FC
:200640005060206800F5D87000EB0110006800F00200D060206800F5D87000EB0110406836
:2006600000F00F001061206800F5D87000EB0110406800F47F40000A9061206800F5D8702E
:2006800000EB01104068000C5061206800F5D87000EB011080681870206800F5D87000EB18
:2006A0000110806800F47F40000A5870206800F5D87000EB0110806800F47F00000C98708C
:2006C000206800F5D87000EB01108068000ED870206800F5D87000E02FE000EB0110C06843
:2006E0001871206800F5D87000EB0110C06800F47F40000A5871206800F5D87000EB011041
:20070000C06800F47F00000C9871206800F5D87000EB0110C068000ED87131B92068C0684F
:2007200040F020002668F06005E02068006940F020002668306100205BE7606A40F4802046
:200740006062012055E70146002091F82020012A01D0022A11D10B689B6803F0806303B140
:20076000401C0B689B6803F0006303B1401C0B689B6803F0805303B1401C70472DE9F05FD9
:2007800004460025206846692068D0F80490206887682068D0F80CA02068D0F810B02068C4
:2007A000D0F8188006F00100002855D007F00100C0B101202168886007F0020018B1204672
:2007C00000F0B1FA0EE007F0040010B145F4006508E007F0080010B145F4805502E0204638
:2007E00000F0A0FA07F48070C8B14FF480702168886007F4007018B1204600F096FA0EE05F
:2008000007F4806010B145F4005508E007F4006010B145F4804502E0204600F085FA07F4FA
:200820008030C8B14FF480302168886007F4003018B1204600F07BFA0EE007F4802010B122
:2008400045F4004508E007F4002010B145F4803502E0204600F06AFA06F0080038B10AF0EB
:20086000100020B145F4007510202168C86006F0040040B10AF0080028B108202168C86069
:20088000204600F0A9F906F0020038B12068C06800F0030010B1204600F0A0F906F04000F6
:2008A00038B10BF0100020B145F4806510202168086106F0200040B10BF0080028B1082028
:2008C00021680861204600F0FBF906F0100038B12068006900F0030010B1204600F0F1F908
:2008E00006F4003040B109F0100028B1102021684860204600F0E6F906F4803040B109F0D1
:20090000080028B1082021684860204600F010FA06F4004088B309F0040078B306F48070B6
:2009200020B108F0010008B145F0010506F4007020B108F0020008B145F0020506F48060F5
:2009400020B108F0040008B145F0040506F40060A0B108F0700088B108F07000402817D0D0
:2009600006DC10280BD020280CD0302819D10CE0502810D0602814D110E01DE019E045F050
:2009800008050FE045F010050CE045F0200509E045F0400506E045F0800503E045F48075B7
:2009A00000E000BF00BF2068806920F07000216888610420216848602DB1606A284360624C
:2009C0002046FFF702FEBDE8F09F70B504460CB9012070BD94F8200010B9204600F0B0F892
:2009E0002068006820F002002168086000F026FC05460DE000F022FC401B0A2808D9606A74
:200A000040F400306062052084F820000120E0E72068406800F002000028EBD12068006811
:200A200040F001002168086000F008FC05460DE000F004FC401B0A2808D9606A40F40030DC
:200A40006062052084F820000120C2E72068406800F001000028EBD0207E012806D120681F
:200A6000006840F080002168086005E02068006820F0800021680860607E012806D12068B1
:200A8000006840F040002168086005E02068006820F0400021680860A07E012806D12068D1
:200AA000006840F020002168086005E02068006820F0200021680860E07E012806D12068B1
:200AC000006820F010002168086005E02068006840F0100021680860207F012806D1206870
:200AE000006840F008002168086005E02068006820F0080021680860607F012806D1206820
:200B0000006840F004002168086005E02068006820F0040021680860D4E9020108432169D9
:200B20000843616908436168491E08432168C86100206062012084F82000002049E7000039
:200B400010B586B00446002002900390049005901E492068884236D100BF1D48C06940F0A5
:200B600000701B49C8610846C06900F00070019000BF00BF00BF0846806940F0040088617F
:200B80000846806900F00400019000BF00BFC814029000200390049002A90E4800F0B0F9CC
:200BA0004FF480500290022003900320059002A9084800F0A5F900221146142000F0C4FB3E
:200BC000142000F0B1FB06B010BD0000006400400010024000080140704700002DE9F04185
:200BE0008AB006464FF00008002401AB03AA00213046FFF7EBFC0746002F58D1079800F003
:200C0000FF08059808B1049C00E0039C9DF804009DF8055060F31F25002C48D12548008804
:200C2000854201D0002D42D1C4F307202249234A1268885421480068401C20490860084684
:200C4000006840F2DE31B0FBF1F201FB12001B4908601949194A12688C5418480068401C40
:200C6000164908600846006840F2DE31B0FBF1F201FB120011490860002016E001A9095C33
:200C80000D4A0E4B1B68D1540C490968491C0B4A11601146096840F2DE32B1FBF2F302FB73
:200CA0001311064A1160411C88B24045E6DB0AB0BDE8F08100000020380000200800002002
:200CC00070477047704770B5044694F82000012822D1022084F820002068006820F00100F9
:200CE0002168086000F0AAFA05460DE000F0A6FA401B0A2808D9606A40F400306062052024
:200D000084F82000012070BD2068406800F001000028EBD16062F6E7606A40F40020606265
:200D20000120F0E77047704770477047704770477047000070B50446002594F8210002284F
:200D400003D00420A063012548E02068006820F00E00216808602068006820F001002168C2
:200D600008601F492068884201D1012026E01C4914312068884201D110201FE018492831A1
:200D80002068884201D1801518E015493C312068884201D1801411E0114950312068884201
:200DA00002D14FF4803009E00D4964312068884202D14FF4801001E04FF0807008490839FF
:200DC0004860012084F8210000BF002084F8200000BF606B10B12046616B8847284670BD4B
:200DE0000800024070B5044600F028FA06462546681C10B104480078054400BF00F01EFA58
:200E0000801BA842FAD370BD340000200348006940F08000014908610020704700200240AF
:200E20002DE9FE4F05468B4617469846012600240020029000BF2448007E012802D1022034
:200E4000BDE8FE8F01202049087600BF4CF25030FFF73EFA064686BB012D02D1012002906C
:200E600006E0022D02D10220029001E00420029000241EE02201B946C24648465146FFF7D8
:200E800051F980B20190022000FB04B000900199FFF7CCF94CF25030FFF71AFA06460B4828
:200EA000006920F001000949086106B104E0601CC4B202988442DDDB00BF00BF002002496F
:200EC000087600BF3046BBE7C80400200020024000200849096901F0800151B10649054A7A
:200EE0005160064951601146096901F0800101B1012070470020024023016745AB89EFCD5A
:200F00002DE9F8470346002294466EE14FF0010808FA02F4D1F8008008EA0400A0427DD139
:200F2000DFF8DCA2D1F80480A8EB0A09D0453AD014DCB8F1030F50D009DCB8F1000F31D0E1
:200F4000B8F1010F1CD0B8F1020F49D120E0B8F1110F18D0B8F1120F42D11EE0B9F5881F37
:200F600025D006DCB9F5803F20D0B9F5801F37D11AE0B9F5001F18D0B9F5041F30D117E070
:200F8000D1F80CC02DE0D1F80C8008F1040C28E0D1F80C8008F1080C23E0D1F80C8008F196
:200FA0000C0C1EE000BF00BF00BF00BF00BF00BFD1F80880B8F1000F02D14FF0040C0BE08B
:200FC000D1F80880B8F1010F03D14FF0080C1C6102E04FF0080C5C6103E04FF0000C00E063
:200FE00000BF00BFFF2801D8984601E003F104084646FF2802D84FEA820803E0A2F10808DE
:201000004FEA88084746D6F800804FF00F0909FA07F928EA09080CFA07F900E088E048EA2F
:201020000908C6F80080D1F8048008F08058B8F1805F7DD100BFDFF8CC81D8F8188048F0EB
:201040000108DFF8C091C9F81880C846D8F8188008F00108CDF8008000BF00BF4FEAB938A2
:201060004FEA920958F829504FEA82784FEA18794FF00F0808FA09F825EA0805DFF8888181
:20108000434502D14FF0000816E0DFF88081434502D14FF001080FE0DFF87481434502D127
:2010A0004FF0020808E0DFF86C81434502D14FF0030801E04FF004084FEA82794FEA19796B
:2010C00008FA09F848EA0505DFF84C814FEA920948F82950D1F8048008F48038B8F5803F33
:2010E0000AD1DFF83881D8F8008048EA0008DFF82C91C9F8008009E0DFF82081D8F8008075
:2011000028EA0008DFF81491C9F80080D1F8048008F40038B8F5003F10D1DFF8008108F159
:201120000408D8F8008048EA0008DFF8F09000E05AE009F10409C9F800800DE0DFF8DC8040
:2011400008F10408D8F8008028EA0008DFF8CC9009F10409C9F80080D1F8048008F48018C4
:20116000B8F5801F0ED1DFF8B48008F10808D8F8008048EA0008DFF8A49009F10809C9F8CF
:2011800000800DE0DFF8948008F10808D8F8008028EA0008DFF8849009F10809C9F800804D
:2011A000D1F8048008F40018B8F5001F0ED1DFF86C8008F10C08D8F8008048EA0008DFF8F2
:2011C0005C9009F10C09C9F800800DE0DFF84C8008F10C08D8F8008028EA0008DFF83C9029
:2011E00009F10C09C9F80080521CD1F8008028FA02F8B8F1000F7FF489AEBDE8F887000046
:20120000000011100010024000080140000C01400010014000140140080001400004014091
:20122000024693680B400BB1012000E0002070470AB1016101E00B040361704701480068B3
:20124000704700002C000020034800680349097808440149086070472C00002034000020B6
:2012600010B50848006840F0100006490860032000F0A8F8002000F007F800F02BF8002005
:2012800010BD00000020024070B504460E4800784FF47A71B1FBF0F00C490968B1FBF0F5D1
:2012A000284600F00BFC08B1012070BD102C07D200222146501E00F047F80548046001E0F5
:2012C0000120F2E70020F0E734000020280000203000002008B500BF1148806940F0010042
:2012E0000F4988610846806900F00100009000BF00BF00BF0846C06940F08050C8610846CA
:20130000C06900F08050009000BF00BF00BF0549486820F0E06040F00070486000BF08BDFD
:20132000001002400000014001460846002809DB00F01F0301229A4043099B0003F1E0238C
:20134000C3F8002100BF70472DE9F05F80460D461646002702F08EF9074639462A4633460C
:2013600001F00700C0F1070ABAF1040F02D94FF0040A01E0C0F1070AD14600F1040ABAF169
:20138000070F02D24FF0000A01E0A0F1030AD4464FF0010A0AFA09FAAAF1010A0AEA020A8A
:2013A0000AFA0CFA4FF0010B0BFA0CFBABF1010B0BEA030B4AEA0B042146404602F062F9A4
:2013C000BDE8F09F00BF00F00702064B19684FF6FF031940044B0B4343EA0221014B1960FD
:2013E00000BF70470CED00E00000FA0570B504460D460CB9012070BD5A48006800F00700C9
:20140000A8420ED25748006820F007002843554908600846006800F00700A84201D00120EA
:20142000E9E7207800F0020002281DD1207800F00400042805D14C48406840F4E0604A4969
:201440004860207800F00800082805D14648406840F46050444948604348406820F0F000CC
:20146000A168084340494860207800F0010078B36068012806D13C48006800F4003090B912
:201480000120B8E76068022806D13748006800F0007040B90120AEE73348006800F00200F8
:2014A00008B90120A7E73048406820F00300616808432D494860FFF7C1FE064609E0FFF777
:2014C000BDFE801B41F28831884202D9032092E707E02548406800F00C006168B0EB810F9D
:2014E000EDD12048006800F00700A8420ED91D48006820F0070028431A49086008460068C6
:2015000000F00700A84201D0012074E7207800F00400042807D11448406820F4E060E1686C
:20152000084311494860207800F00800082808D10D48406820F46050216940EAC1000A493C
:20154000486000F03FF808494968C1F30311074A515CC8400649086006480068FFF794FEF7
:20156000002048E700200240001002406C37000828000020300000200148006870470000BD
:201580002800002000B5FFF7F7FF04494968C1F30221034A515CC84000BD0000001002407C
:2015A0007C37000800B5FFF7E7FF04494968C1F3C221034A515CC84000BD00000010024039
:2015C0007C370008F0B585B00FF26C0C9CE8E01001A8A0E8E0101CA52D680095002100223A
:2015E000002300240020194D696801F00C05F5B1042D02D0082D19D101E0154819E001AD9E
:20160000C1F38346AC5D01F4803555B10F4D6D68C5F340451DF805200D4D6543B5FBF2F355
:2016200002E00C4D04FB05F3184602E000BF084800BF00BF05B0F0BD02030405060708091D
:201640000A0B0C0D0E0F1010010200000010024000127A0000093D00F8B504460CB901201B
:20166000F8BD207800F00100002878D0F848406800F00C0004280CD0F548406800F00C00EF
:20168000082811D1F248406800F48030B0F5803F0AD1EF48006800F4003000285FD0606891
:2016A00000285CD10120DBE700BF6068B0F5803F06D1E748006840F48030E549086028E017
:2016C000606858B9E248006820F48030E04908600846006820F4802008601AE06068B0F511
:2016E000A02F0BD1DA48006840F48020D84908600846006840F4803008600AE0D4480068E8
:2017000020F48030D24908600846006820F48020086000BF606888B1FFF790FD054606E03C
:20172000FFF78CFD401B642801D9032098E7C848006800F400300028F2D010E0FFF77EFDE0
:20174000054606E0FFF77AFD401B642801D9032086E7BF48006800F400300028F2D1207884
:2017600000F00200022857D1B948406800F00C0050B1B748406800F00C00082818D1B448C7
:20178000406800F4803098B9B148006800F0020020B12069012801D0012061E7AC48006840
:2017A00020F0F800616940EAC100A949086033E02069E8B10120A7490860FFF73FFD0546E7
:2017C00006E0FFF73BFD401B022801D9032047E79F48006800F002000028F2D09C480068CE
:2017E00020F0F800616940EAC1009949086013E0002098490860FFF721FD054606E0FFF74B
:201800001DFD401B022801D9032029E79048006800F002000028F2D1207800F0080008283F
:201820002DD1A069B8B101208B490860FFF706FD054606E0FFF702FD401B022801D903203A
:201840000EE78348406A00F002000028F2D0012001F0DCFB13E000207F490860FFF7EEFC36
:20186000054606E0FFF7EAFC401B022801D90320F6E67748406A00F002000028F2D120781F
:2018800000F00400042873D100277148C06900F0805070B900BF6E48C06940F080506C499F
:2018A000C8610846C06900F08050009000BF00BF01276A48006800F48070B0B96748006814
:2018C00040F4807065490860FFF7B8FC054606E0FFF7B4FC401B642801D90320C0E65F481C
:2018E000006800F480700028F2D000BFE068012806D15748006A40F001005549086227E062
:20190000E06858B95248006A20F00100504908620846006A20F00400086219E0E0680528B2
:201920000BD14B48006A40F00400494908620846006A40F0010008620AE04548006A20F05A
:201940000100434908620846006A20F00400086200BFE068A0B1FFF771FC054609E0FFF775
:201960006DFC401B41F28831884202D9032077E622E03748006A00F002000028EFD012E0DC
:20198000FFF75CFC054608E0FFF758FC401B41F28831884201D9032062E62D48006A00F057
:2019A00002000028F0D1012F05D12948C06920F080502749C86100BFE069C8B3244840688C
:2019C00000F00C00082860D0E069022848D1002020490866FFF732FC054606E0FFF72EFCB3
:2019E000401B022801D903203AE61948006800F000700028F2D1206AB0F5803F07D114480F
:201A0000406820F40030A168084311494860D4E9080108430E49496821F4741108430C4931
:201A2000486001200B490866FFF708FC054607E03DE0FFF703FC401B022801D903200FE666
:201A40000348006800F000700028F2D02FE0000000100240000042428004424200700040EC
:201A6000002014490866FFF7E9FB054606E0FFF7E5FB401B022801D90320F1E50E48006884
:201A800000F000700028F2D111E0E069012800D1E6E50948466806F48031206A814204D130
:201AA00006F47011606A814201D00120D8E50020D6E50000000042420010024070B504464F
:201AC0002546681EB0F1807F01D301200FE0681E4FF0E02148610F214FF0FF3001F0D2FDC4
:201AE00000204FF0E021886107200861002070BD10B5024600BF92F83C00012801D1022011
:201B000010BD012082F83C0000BF022082F83D00106843681068846823F0700308680343C6
:201B200024F08004486804431068436010688460012082F83D0000BF002082F83C0000BF73
:201B400000BFDDE710B586B00446002002900390049005900D492068884215D100BF0C48AE
:201B6000806940F008000A4988610846806900F00800019000BF00BF0220029003900590EE
:201B800002A90448FFF7BCF906B010BD0004004000100240000C014070B504460D4616461F
:201BA00000BF94F83C00012801D1022070BD012084F83C0000BF022084F83D0036B1042EC8
:201BC0001BD0082E31D00C2E5ED145E02946206801F0FEFA2068806940F00800216888615A
:201BE0002068806920F004002168886120688069296908432168886147E02946206801F01F
:201C000017FB2068806940F40060216888612068806920F480602168886120688069296961
:201C200040EA0120216888612FE02946206801F033FB2068C06940F008002168C86120689F
:201C4000C06920F004002168C8612068C069296908432168C86118E02946206801F050FB2A
:201C60002068C06940F400602168C8612068C06920F480602168C8612068C069296940EAA9
:201C800001202168C86100E000BF00BF012084F83D0000BF002084F83C0000BF00BF85E7B8
:201CA00010B504460CB9012010BD94F83D0028B9002084F83C00204600F00CF8022084F8E8
:201CC0003D00211D206801F037FA012084F83D000020E9E708B5094A016891420DD100BF2C
:201CE0000749C96941F00201054AD1611146C96901F00201009100BF00BF08BD0004004018
:201D00000010024070B504460E4601223146206801F04CFA0D492068884201D1012000E0DA
:201D2000002028B12068406C40F40040216848642068806800F00705062D05D02068006869
:201D400040F0010021680860002070BD002C0140704700002DE9F0470446206805682068DC
:201D6000C668206847694FF00008C14605F00F08B8F1000F0AD105F0200038B106F02000FC
:201D800020B1204601F00AFBBDE8F087B8F1000F6DD007F0010018B906F49070002866D0E4
:201DA00005F0010030B106F4807018B1E06B40F00100E06305F0040030B107F0010018B13F
:201DC000E06B40F00200E06305F0020030B107F0010018B1E06B40F00400E06305F00800EB
:201DE00030B107F0010018B1E06B40F00800E063E06B68B305F0200028B106F0200010B150
:201E0000204601F0CBFA20684069C0F38019E06B00F0080010B9B9F1000F22D0204601F01B
:201E20009DFA2068406900F04000B0B12068406920F0400021684861606B50B11748616B9F
:201E40004863606BFEF776FF10B1606B416B88470CE02046FFF77CFF08E02046FFF778FF1D
:201E600004E02046FFF774FF0020E0638CE705F0800030B106F0800018B1204601F0B2FB40
:201E800082E705F0400030B106F0400018B1204601F074FA78E700BF76E700004933000800
:201EA00010B504460CB9012010BDA06900B100E000BF94F8390028B9002084F83800204627
:201EC00000F028F8242084F839002068C06820F400502168C860204601F0B4FA206800693E
:201EE00020F49040216808612068406920F02A00216848612068C06840F400502168C8608A
:201F00000020E063202084F8390084F83A000020CAE7000010B586B0044600200290039058
:201F2000049005901E492068884236D100BF1D48806940F480401B4988610846806900F43F
:201F40008040019000BF00BF00BF0846806940F0040088610846806900F00400019000BF24
:201F600000BF48150290022003900320059002A90D48FEF7C5FF4FF4806002900020039025
:201F8000049002A90848FEF7BBFF002211462520FFF7DAF92520FFF7C7F906B010BD0000FE
:201FA00000380140001002400008014010B5034693F83A0020282FD101B10AB9012010BD8F
:201FC00000BF93F83800012801D10220F7E7012083F8380000BF99629A85DA850020D8631D
:201FE000222083F83A0000BF002083F8380000BF1868C06840F480701C68E06018684069E0
:020000040800F2
:2020000040F001001C6860611868C06840F020001C68E0600020D2E70220D0E705498842C4
:2020200006D105490978FE2902D1FF21024A117070470000880400201800002010B503466A
:2020400093F83900202823D101B10AB9012010BD00BF93F83800012801D10220F7E701207F
:2020600083F8380000BF19629A84DA840020D863212083F8390000BF002083F8380000BF56
:202080001868C06840F080001C68E0600020DEE70220DCE7704700BFFEE7000000B58BB00F
:2020A0001E481F4908600C20486000211C488160C1604FF4403101614FF400114161002162
:2020C000017641768176C17601774177FEF77DFC08B1FEF796F8002006900190029003905E
:2020E0000490059007900120089009900E200A9001A90B48FEF7E4F908B1FEF782F80221EC
:202100000748FEF71DF908B1FEF77BF80448FEF7DAFD08B1FEF775F80BB000BD00640040F5
:202120002004002000B585B00020019002900390049000BF4B48806940F010004949886111
:202140000846806900F01000009000BF00BF00BF0846806940F0200088610846806900F0E4
:202160002000009000BF00BF00BF0846806940F0040088610846806900F00400009000BFA4
:2021800000BF00BF0846806940F0080088610846806900F00800009000BF00BF00224FF4C7
:2021A00000513148FFF744F8002240F21B112F48FFF73EF800224FF604412D48FFF738F8B9
:2021C0004FF40050019001200290002003900220049001A92448FEF793FE1B200190012036
:2021E0000290002003900220049001A91F48FEF787FE0420019000200290039001A91B4852
:20220000FEF77EFE0120019000200290039001A91748FEF775FE46F6044001900120029021
:20222000002003900220049001A91148FEF768FE4FF41040019001200290022003900490B7
:2022400001A90B48FEF75CFE4FF4807001900120029002200390049001A90448FEF750FE39
:2022600005B000BD001002400010014000080140000C014000B589B00020079008901C2139
:202280006846FDF766FF1748174908600B204860002115488160FF21C16000210161816138
:2022A000FFF7FEFC08B1FDF7ACFF00200790089007A90D48FFF71CFC08B1FDF7A2FF6020A6
:2022C000009000200190029004900C2269460648FFF762FC08B1FDF794FF0348FFF732FC69
:2022E00009B000BD000400404804002010B50B480B4908604FF41640486000210848816051
:20230000C16001610C21416100218161C161FFF7C7FD08B1FDF775FF10BD00000038014025
:202320008804002000BFFEE77047704710B500224FF48071FE48FEF77BFF00224FF4004169
:20234000FC48FEF775FF00224FF48051F948FEF76FFFF948007818B90020F849087049E268
:20236000FEF76CFFF6490968884205D90020F2490870F24908703DE2EF480078022844D112
:20238000EE48007850B901221103EA48FEF750FFEC480078EC49096808641CE0E748007878
:2023A00001280AD101220102E148FEF741FFE7480078E549096808640DE0E048007802282C
:2023C00009D101228103DB48FEF732FFE0480078DD4909680864FEF731FFDE490968884209
:2023E000BDD9D6480078401CD4490870FEF726FF6430D8490860D14800780228AFDD002022
:20240000CD490870CD490870F4E1CB48007803280AD101221102C648FEF70AFFCB4800786D
:20242000C94909680864E5E1C348007804280AD101224103BF48FEF7FBFEC5480078C24971
:2024400009680864D6E1BC48007805280AD101221103B848FEF7ECFEBA480078BA49096860
:202460000864C7E1B4480078062824D1B348007848B901221102AE48FEF7DAFEB3480078D1
:20248000B14909680864FEF7D9FEB24909688842BAD9AA480078401CA8490870FEF7CEFEE0
:2024A000C830AC490860A54800780128ACDD0020A24908709EE1A0480078072824D19F4843
:2024C000007848B90122D1039A48FEF7B1FEA04800789D4909680864FEF7B0FE9D490968E9
:2024E000884291D995480078401C94490870FEF7A5FEC8309749086090480078012892DDE2
:2025000000208E49087075E18B480078082824D18A48007848B9012211038648FEF788FEBB
:2025200088480078884909680864FEF787FE89490968884286D981480078401C7F490870E2
:20254000FEF77CFEC830834908607C480078012887DD0020794908704CE177480078092828
:2025600042D17648007850B9012211027048FEF75FFE764800787449096808641CE06F4846
:20258000007801280AD10122C1036A48FEF750FE6F4800786C49096808640DE0674800780E
:2025A000022809D10122C1026248FEF741FE65480078654909680864FEF740FE6549096851
:2025C0008842A0D95D480078401C5C490870FEF735FEC8305F49086058480078022892DD41
:2025E00000205649087005E1534800780A2833D15248007850B9012211024D48FEF718FE84
:20260000524800785049096808640DE04B480078012809D1012201034648FEF709FE4948F5
:202620000078494909680864FEF708FE49490968884291D941480078401C40490870FEF72E
:20264000FDFDC830434908603C4800780128CADD00203A490870CDE0374800780B2833D1D2
:202660003648007850B9012211023148FEF7E0FD364800783449096808640DE02F480078AE
:20268000012809D10122C1032A48FEF7D1FD304800782D4909680864FEF7D0FD2D4909682F
:2026A000884210D925480078401C24490870FEF7C5FDC8302749086020480078012802DDD2
:2026C00000201E49087095E01B4800780C2848D11A48007850B90122D1031648FEF7A8FD8C
:2026E0001B4800781849096808640DE013480078012809D1012201030E48FEF799FD11489D
:202700000078114909680864FEF798FD1149096888426FD909480078401C08490870FEF7C0
:202720008DFDC8300B49086004480078012813E000080140000C01400C0000200D0000208C
:202740001000002026000020480400202400002025000020140000204CDD00205049087080
:2027600048E050480078FE2844D14D48007850B9012211034C48FEF75BFD4C4800784C4917
:20278000096808641CE04648007801280AD1012201024848FEF74CFD47480078444909685D
:2027A00008640DE03E480078022809D1012281033D48FEF73DFD414800783D4909680864FF
:2027C000FEF73CFD3E490968884213D934480078401C33490870FEF731FD00F6B830384957
:2027E00008602F480078022804DD00202D4908702B4908703348008850BB2A48007838BB92
:2028000004212C48FEF70CFD012831D0FEF716FD00F6B8302A4908602B48007850B901221F
:2028200011032148FEF704FD2048007820490968086434E02448007801280AD101220102DD
:202840001C48FEF7F5FC1C48007819490968086425E01D480078022821D101228103124814
:20286000FEF7E6FC1548007811490968086416E0FEF7E4FC12490968884210D200201049B9
:20288000086011480078401C0F49087008460078022801DD0020087000200249087010BDBD
:2028A0000D0000200C000020000C01402600002048040020000801402400002025000020EE
:2028C00014000020000000200E0000200EB5FB480068FB490968884257D0FA48F74909686F
:2028E000405C8DF80000F749F4480068401C085C8DF80100F1480068801C085C8DF8020065
:20290000EE480068C01C085C8DF80300EB480068001D085C8DF80400E8480068401D085C53
:202920008DF80500E5480068801D085C8DF80600E2480068C01D085C8DF80700DF480068FE
:202940000830085C8DF80800DC4800680930085C8DF80900D94800680A30D84908600846FD
:20296000006840F2DE31B0FBF1F201FB1200D34908609DF80400012808D19DF805009DF8C4
:20298000061060F31F21D0480180F1E29DF80400022810D1CD490870FEF750FCCC4908444E
:2029A000CC490860FEF74AFC6430CB4908600020C5490880DCE29DF80400032831D1C3480A
:2029C0000078042803D0C1480078072803D10B20BE49087016E0BD480078052803D0BB48DC
:2029E0000078082803D10A20B84908700AE0B74800780C2803D10920B449087002E00320AC
:202A0000B2490870FEF71AFCB1490844B1490860FEF714FCC830B04908600120AF490870A1
:202A2000A6E29DF80400042831D1A8480078032803D0A6480078062803D10B20A3490870EA
:202A400016E0A2480078052803D0A0480078082803D10C209D4908700AE09C4800780A28B8
:202A600003D109209949087002E0042097490870FEF7E4FB9649084496490860FEF7DEFB8D
:202A8000C8309549086001209449087070E29DF80400052831D18D480078032803D08B484A
:202AA0000078062803D10A208849087016E087480078042803D085480078072803D10C2079
:202AC000824908700AE0814800780B2803D109207E49087002E005207C490870FEF7AEFB37
:202AE0007B4908447B490860FEF7A8FBC8307A4908600120794908703AE29DF804000628A1
:202B000031D172480078042803D070480078072803D10B206D49087016E06C4800780528A7
:202B200003D06A480078082803D10A20674908700AE0664800780C2803D1092063490870DD
:202B400002E0062061490870FEF778FB6049084460490860FEF772FBC8305F490860012052
:202B60005E49087004E29DF80400072831D157480078032803D055480078062803D10B202F
:202B80005249087016E051480078052803D04F480078082803D10C204C4908700AE04B4852
:202BA00000780A2803D109204849087002E0072046490870FEF742FB454908444549086053
:202BC000FEF73CFBC83044490860012043490870CEE19DF80400082831D13C480078032816
:202BE00003D03A480078062803D10A203749087016E036480078042803D0344800780728D6
:202C000003D10C20314908700AE0304800780B2803D109202D49087002E008202B490870D4
:202C2000FEF70CFB2A4908442A490860FEF706FBC8302949086001202849087098E19DF81E
:202C40000400092810D121490870FEF7F7FA2049084420490860FEF7F1FAC8301E49086069
:202C600000201949088083E19DF804000A2819D116480078042803D109201449087002E07B
:202C80000A2012490870FEF7D9FA1149084411490860FEF7D3FAC8300F49086000200A491A
:202CA000088065E19DF804000B282BD107480078052815D109200549087014E0040000209D
:202CC0000800002038000020020000200C000020C0D40100100000201400002018000020F5
:202CE0000B20A4490870FEF7A9FAA3490844A3490860FEF7A3FAC830A14908600020A1493A
:202D0000088035E19DF804000C2819D199480078032803D109209749087002E00C20954999
:202D20000870FEF78BFA9449084494490860FEF785FAC8309249086000209249088017E109
:202D40009DF804000D2826D18A480078032803D088480078062803D100208649087016E0BF
:202D6000844800780A2803D10520824908700EE0804800780B2803D104207E49087006E023
:202D80007C480078092802D10C207A49087000207C490880ECE09DF804000E2826D17548D0
:202DA0000078042803D073480078072803D100207049087016E06F4800780C2803D10520C3
:202DC0006C4908700EE06B4800780B2803D103206849087006E067480078092802D10A201F
:202DE00064490870002067490880C1E09DF804000F2826D15F480078052803D05D480078B2
:202E0000082803D100205B49087016E0594800780C2803D10420574908700EE0554800781C
:202E20000A2803D103205349087006E051480078092802D10B204F490870002051490880DD
:202E400096E09DF80400102805D10020494908704C4908808CE09DF80400142824D19DF843
:202E60000500012807DB9DF80500FA2803DC9DF80500454908709DF80600012807DB9DF8CC
:202E80000600FA2803DC9DF80600404908709DF8070001286CDB9DF80700FA2868DC9DF8EC
:202EA00007003B49087063E09DF804001E2807DB9DF80400272803DC00203249088057E0EA
:202EC0009DF804005A2808DB9DF804005E2804DC9DF804002F4908704AE09DF8040063281E
:202EE00002D12C49087043E09DF80400FE2811D120490870FEF7A2F91F4908441F49086059
:202F0000FEF79CF900F6B8301D49086000201D4908802DE09DF80400FF2829D104211E481B
:202F2000FEF77EF9012823D09DF805009DF8061060F31F2113480180008800F07DF811480F
:202F400000881649088000200E490880FE2009490870FEF773F90849084408490860FEF76F
:202F60006DF900F6B830064908600020054908800EBD00000C000020C0D4010010000020A4
:202F800014000020020000202400002025000020260000201800002000080140000000206B
:202FA00010B515480078002811DD13480078FE280DDA012210491148FFF740F808221049FB
:202FC0000E48FEF7F3FFFE200B49087013E00A480078FF280FD10A480078652802D10020BC
:202FE00008490870064A082107480088FDF7D0F800200149087010BD180000208804002069
:20300000190000200C0000200000002008B508490968C9084FF47A72B1FBF2F14143009108
:2030200000BF00BF00994A1E00920029F9D108BD280000207047000010B50446FDF748FF7E
:203040000A48FDF7DFF80A48006920F0020008490861FDF7DBFEFDF73BFF224600230349FA
:203060000120FDF7DDFEFDF7D1FE10BD00F800080020024010B5FEF7E7F810BD00B58FB014
:20308000282105A8FDF765F814216846FDF761F8022005900120099010200A9002200C90C0
:2030A00000210D914FF420110E9105A8FEF7D4FA08B1FDF7A6F80F200090022001900020F1
:2030C00002904FF4806003900020049001216846FEF78CF908B1FDF794F80FB000BD0000F5
:2030E0001148006840F001000F490860084640680E4908400C494860084600680C49084039
:20310000094908600846006820F4802008600846406820F4FE0048604FF41F008860C8035E
:203120000449086070470000001002400000FFF8FFFFF6FE08ED00E010B50268184B9842A7
:2031400008D0B0F1804F05D0164B984202D0164B984203D122F070024B681A43104B98426D
:2031600008D0B0F1804F05D00E4B984202D00E4B984203D122F44072CB681A4322F0800339
:203180004C6943EA040202608B68C3620B688362034B984201D10B6903630123436110BD0C
:2031A000002C0140000400400008004030B501F01F05012404FA05F3046A9C430462046AE0
:2031C00001F01F0502FA05F52C43046230BD000030B5056A25F001050562026A4368846948
:2031E00024F0700424F003040D682C4322F002028D682A430D4DA84206D100BF22F00802DA
:20320000CD682A4322F00402084DA84207D123F4807323F400734D692B438D692B4343601E
:2032200084614D684563026230BD0000002C014030B5056A25F010050562026A43688469A5
:2032400024F4E04424F440740D6844EA052422F020028D6842EA05120E4DA84207D100BF52
:2032600022F08002CD6842EA051222F04002094DA84209D123F4806323F400634D6943EA7D
:2032800085038D6943EA8503436084614D688563026230BD002C014030B5056A25F48075B6
:2032A0000562026A4368C46924F0700424F003040D682C4322F400728D6842EA05220F4DB0
:2032C000A84207D100BF22F40062CD6842EA052222F48062094DA84209D123F4805323F45A
:2032E00000534D6943EA05138D6943EA05134360C4614D68C563026230BD0000002C0140E2
:2033000030B5056A25F480550562036A4468C26922F4E04222F440720D6842EA052223F4E1
:2033200000538D6843EA0533064DA84204D124F480444D6944EA85144460C2614D68056490
:20334000036230BD002C014070B505466C6A0020E085E0842046FEF7FBFC70BD0168C96866
:2033600021F490710268D1600168496921F0010102685161202180F83A10704710B5044689
:203380002068C06820F040002168C860202084F839002046FEF77EFE002010BD70B5044654
:2033A00094F83A0022284AD1A068B0F5805F13D1A56A206940B920684068C0F3080028804E
:2033C000A06A801CA06219E020684068C0B22880A06A401CA06211E0206938B920684068FF
:2033E000C1B2A26A501CA062117007E02068406800F07F01A26A501CA0621170E08D401E12
:2034000080B2E085C8B92068C06820F020002168C8602068C06820F480702168C860206816
:20342000406920F0010021684861202084F83A002046FEF7F3FD002070BD0020FCE70220ED
:20344000FAE7000070B504462168096921F44051E2681143226811612269A168114362692E
:2034600041EA02052168C96841F20C62914329432268D1602168496921F44071A269114364
:2034800022685161564A2168914254D1FEF78AF800EBC00101EB001162689200B1FBF2F1C4
:2034A00000EBC00202EB001263689B00B2FBF3F26423B2FBF3F202EBC20303EB0212A1EB0F
:2034C0008201322202EB01116422B1FBF2F101F0F00100EBC00202EB001263689B00B2FB60
:2034E000F3F26423B2FBF3F201EB021200EBC00101EB001163689B00B1FBF3F100EBC00381
:2035000003EB00136668B600B3FBF6F36426B3FBF6F303EBC30606EB0313A1EB830132234B
:2035200003EB01116423B1FBF3F101F00F0111442268916053E0FEF725F800EBC00101EBC6
:20354000001162689200B1FBF2F100EBC00202EB001263689B00B2FBF3F26423B2FBF3F2B2
:2035600002EBC20303EB0212A1EB8201322202EB01116422B1FBF2F101F0F00100EBC00291
:2035800002EB001263689B00B2FBF3F26423B2FBF3F201EB021200EBC00101EB00116368A7
:2035A0009B00B1FBF3F100EBC00303EB00136668B600B3FBF6F36426B3FBF6F303EBC3063E
:2035C00006EB0313A1EB8301322303EB01116423B1FBF3F101F00F0111442268916070BD6A
:2035E00000380140014691F8390021282CD18868B0F5805F0FD10A6A1088C0F308000B6875
:203600005860086918B9086A801C086209E0086A401C086205E00B6A581C086218780B68DC
:203620005860C88C401E80B2C88458B90868C06820F080000B68D8600868C06840F04000B6
:203640000B68D860002070470220FCE710B50248FEF780FB10BD00008804002010B50348DB
:20366000FDF78CF80148FDF7B9FA10BD2004002000BFFEE702480068C0F3022070470000EF
:203680000CED00E010B5002804DB0A07130E054A135406E00A07140E034A00F00F031B1FFB
:2036A000D45410BD00E400E018ED00E002E008C8121F08C1002AFAD170477047002001E05C
:2036C00001C1121F002AFBD170470000FDF7C8FDFFF7D4FCFEF726FDFEF7E0FCFEF7CAFD26
:2036E000FEF704FE0C211C48FEF70CFB01201A49096808641948008819490880084600883C
:20370000012804DB08460088B0F57A7F02DD00201349088012490988322201FB02F0FDF728
:2037200061FB012211020F48FDF782FD0E4800780949096808646420FDF754FB00224FF404
:2037400080710848FDF774FD05E0FFF7BFF8FEF7EDFDFFF725FCF8E74804002000F80008F0
:20376000000000200008014024000020000000000000000001020304060708090000000074
:2037800001020304A43700080000002038000000AC360008DC37000838000020B0080000CF
:2037A000BC360008000000000000000000000000000000000000000000000000000000000F
:2037C00000000000000001002D1E32000024F400000000001000000001000000FFFFFFFF46
:2037E000FFFFFFFFFFFFFFFFFFFFFFFFFFFFFFFFFFFFFFFFFFFFFFFFFFFFFFFFFFFFFFFFE9
:20380000FFFFFFFFFFFFFFFFFFFFFFFFFFFFFFFFFFFFFFFFFFFFFFFFFFFFFFFFFFFFFFFFC8
:20382000FFFFFFFFFFFFFFFFFFFFFFFFFFFFFFFFFFFFFFFFFFFFFFFFFFFFFFFFFFFFFFFFA8
:20384000FFFFFFFFFFFFFFFFFFFFFFFFFFFFFFFFFFFFFFFFFFFFFFFFFFFFFFFFFFFFFFFF88
:020000040800F2
:00000001FF
